S00F000062745F73706335782E733337BD
S214012000C00A0020FD410100330F0300330F030017
S214012010D7210300330F0300330F0300330F0300F0
S214012020330F0300330F0300330F0300330F030096
S214012030330F03003CDF0300C10C0300330F030022
S214012040330F0300330F0300330F0300330F030076
S214012050330F0300330F0300330F0300330F030066
S214012060330F0300330F0300330F0300330F030056
S214012070AD960100330F0300330F0300330F030047
S214012080330F0300330F0300330F0300330F030036
S214012090330F0300214A0100330F0300330F0300FF
S2140120A0330F0300194C0100F54B0100330F0300F9
S2140120B0330F030099E70200330F0300E1F102003A
S2140120C08DC4030089C40300D1E9020099C403004A
S2140120D091C40300B9F1020095C4030021F2020085
S2140120E0B1CB020075CD020091F20200330F03005E
S2140120F0330F0300330F0300330F0300330F0300C6
S214012100330F0300330F0300330F0300330F0300B5
S214012110330F0300330F0300330F0300330F0300A5
S214012120330F0300330F0300330F0300330F030095
S214012130330F0300330F0300B53901008F0D030081
S214012140013800D0FCE77047002370B5404C0546C7
S2140121508AB0E36318B1008823600CF001FF3D48A4
S21401216029F0F6FC3C4E3D4B304633603C4B7360E9
S21401217024F08CFB0021304616F0E8FC32A3D3E9AC
S2140121800023A062C4E9062324F08BFBD4E90623CE
S21401219019431043C4E90601CDE900014FF0FF33AE
S2140121A04FF0FF32A06A29F04EFD02224FF0FF31B8
S2140121B0A06A29F04DFD01200CF052FC4FF400738B
S2140121C000222849A06A29F096FDB0F5007F38D193
S2140121D000239422CDE9073309933C23CDE903324A
S2140121E005939623A06A03A9069316F0CDFD35B391
S2140121F0287C0DF025F80546F0B9A06A29F059FEAD
S2140122000CF0CCFF0CF00EFC20B14FF480700021D6
S2140122100AF078FB0CF016FC20B14FF400600021A8
S2140122200AF070FB24F007FC012016F0E3FC0E4ACE
S2140122300E49A06A24F028FB28460AB070BDFF208C
S214012240D7E70725F8E700BF0DD5015520000000A8
S214012250900F0020690345EC68230020E5E80100A3
S214012260782300206821002031680300716803008C
S2140122700348044B834202D0034B03B1184770470F
S2140122801C0F00201C0F002000000000064B074911
S214012290C91A891048BF0131491003D0044B0BB14C
S2140122A001481847704700BF1C0F00201C0F002074
S2140122B00000000010B5064C237843B9FFF7D8FF9D
S2140122C0044B13B10448AFF300800123237010BD03
S2140122D0182B002000000000202A040008B5054B3A
S2140122E01BB105490548AFF30080BDE80840FFF77C
S2140122F0CDBF00BF00000000F0110020202A04001E
S214012300A3F5803A704700BF174B002B08BF134B4D
S2140123109D46FFF7F5FF00218B460F461348144AEA
S214012320121A2AF06EF90E4B002B00D098470D4B6F
S214012330002B00D098470020002104000D000D4816
S214012340002802D00C48AFF300801DF04FFC20009F
S21401235029001EF0A9FC1DF0B7F900BF0000080017
S2140123600000000000000000C00A00201C0F002032
S214012370642C0020000000000000000070B5044638
S2140123800D4621B94FF41671084800F0A7F80E461D
S214012390062056F8043F33B906288ABFA3682B687F
S2140123A01B68636070BD20469847F2E7E0D40300DF
S2140123B038B5036804462BB183681BB145680B4AE0
S2140123C0954203D0C8210A4800F088F898470828A3
S2140123D001D0D221F7E7A3681B6863602046A16895
S2140123E0FFF7CCFF0728F9D838BD00BFCCD40300CF
S2140123F0E0D403002DE9FF4104460F46456801B1CC
S21401240025B94FF496712F4800F068F82E463946E4
S214012410204673689847012824D83668002EF6D1DE
S21401242004B0BDE8F081EB680BB1204698472D68F3
S21401243020E0906828B104A800EB830040F8102C37
S214012440013312681FE05DF8253020469B689847E7
S214012450013D1DE0062023E0EB680BB120469847BE
S2140124602D6825E00628DBD909281BD1D4F8088079
S21401247067686560B542D6D141462046FFF77EFFC4
S2140124803A46002361688A4201D0042BD1D15D1EF1
S2140124906B1CD8D13B696760002BDBD02046984780
S2140124A065682E4600270628BAD9D4F80880A760A2
S2140124B0AE42D1D141462046FFF760FF65682E4601
S2140124C0F1E700BFE0D40300024B0360024BC0E912
S2140124D001317047C0D40300CCD403000D4C07B5BE
S2140124E00D4920681FF0F1FC0C4920681FF0EDFC37
S2140124F01EF0A6FC1EF0A5FC094B0A4A0A490093E9
S21401250020680E231FF0E1FC084A094920681FF0E5
S214012510DCFCFEE74013002023D70300E8D40300C9
S21401252022D50300EDD40300FAD4030006D5030038
S2140125300CD50300FF230374014B8360082070470A
S21401254084D80300014B83600820704754D80300E9
S2140125500B68374A10B5934257D002F18072934206
S21401256007D0A2F1FE7293425FD100F0E1FE022095
S21401257010BD304B1B68DB7A032BF8D8DFE803F07D
S21401258002152535032001F013FC0028EFD02A4C54
S2140125902A4920681FF099FC1EF052FC1EF051FCDF
S2140125A0274920681FF091FCE1E7032001F000FCB9
S2140125B00028DCD0204C214920681FF086FC1EF044
S2140125C03FFC1EF03EFC1F49EBE7032001F0F0FB49
S2140125D00028CCD0184C194920681FF076FC1EF054
S2140125E02FFC1EF02EFC1849DBE7032001F0E0FB70
S2140125F00028BCD0104C114920681FF066FC1EF064
S2140126001FFC1EF01EFC1149CBE7032001F0D0FB96
S2140126100028ACD0084C094920681FF056FC1EF073
S2140126200FFC1EF00EFC0A49BBE70020A0E700BF26
S214012630A000060150120020401300202CD50300F4
S21401264031D503003ED5030074D50300ACD5030095
S21401265001D6030037B50446002101200FF0BEFD68
S214012660E06018B3334D344928681FF02EFC334917
S21401267028681FF02AFC1EF0E3FB1EF0E2FB304B3D
S214012680304A009330494FF4997328681FF01DFCB7
S2140126902E49E3682E4A28681FF017FCE06801F00F
S2140126A0CDFB2C4928681FF010FCFEE70221207C98
S2140126B00FF0F8FCE06018B31E4D1F4928681FF0A4
S2140126C004FC1E4928681FF000FC1EF0B9FB1EF032
S2140126D0B8FB1B4B1B4A00931B494FF49B7328689E
S2140126E01FF0F3FB1949E368194A28681FF0EDFB50
S2140126F0E06801F0A3FB174928681FF0E6FBFEE738
S214012700032001F055FB60B10A4C134920681FF005
S214012710DCFB1EF095FB1EF094FB104920681FF0B1
S214012720D4FB0F481EF081FC01F0E8FA042003B048
S21401273030BD00BF4013002023D70300E8D40300B8
S2140127403CD8030018D60300FAD4030034D603009D
S2140127502DD6030049D603002CD503005AD6030014
S21401276040DE030037B50546032001F021FB60B1CA
S2140127701E4C1F4920681FF0A8FB1EF061FB1EF0CF
S21401278060FB1C4920681FF0A0FB01F0D3FA1A4B2E
S2140127901B68187B0FF036FDE86018B3134C174919
S2140127A020681FF092FB164920681FF08EFB1EF072
S2140127B047FB1EF046FB134B134A0093134940F2A6
S2140127C0A51320681FF081FB1149EB68114A2068A8
S2140127D01FF07BFBE86801F031FB0F4920681FF012
S2140127E074FBFEE7042003B030BD00BF4013002099
S2140127F02CD503006BD603005012002023D703000C
S214012800E8D40300EDD7030018D60300FAD403007A
S21401281034D603002DD6030049D6030037B50B681E
S2140128206A4A044693425AD00BD802F17C4293423C
S21401283038D002F14072934200F0B580002003B018
S21401284030BD634A9342F9D1624B01211B68187966
S2140128500FF0EAFCE060002800F092805E4D5F49D0
S21401286028681FF032FB5E4928681FF02EFB1EF019
S214012870E7FA1EF0E6FA5B4B5B4A00935B4940F2CF
S214012880CF1328681FF021FB5949E368594A286885
S2140128901FF01BFBE06801F0D1FA574928681FF0CA
S2140128A014FBFEE7032001F083FA4A4C78B14A4D47
S2140128B0524928681FF009FB1EF0C2FA1EF0C1FA41
S2140128C023684F49D3F8052028681FF0FEFA2368CD
S2140128D04B48D3F805101DF063F80220AFE73D4BD7
S2140128E01B6818790FF0F2FBE06018B33A4D3B49CC
S2140128F028681FF0EAFA3A4928681FF0E6FA1EF03F
S2140129009FFA1EF09EFA374B374A0093374940F23A
S214012910BB1328681FF0D9FA3549E368354A286899
S2140129201FF0D3FAE06801F089FA334928681FF0EE
S214012930CCFAFEE7032001F03BFA60B1264D2F49A1
S21401294028681FF0C2FA1EF07BFA1EF07AFA2D49AB
S21401295028681FF0BAFA032001F02AFA60B11E4D6A
S214012960264928681FF0B1FA1EF06AFA1EF069FAC5
S214012970254928681FF0A9FA244B0720A3605EE7C3
S214012980032001F015FA0028A7D0134C1B49206834
S2140129901FF09BFA1EF054FA1EF053FA1C492068E9
S2140129A01FF093FA99E7032001F002FA60B10A4D8D
S2140129B0124928681FF089FA1EF042FA1EF041FA01
S2140129C0144928681FF081FA134BD6E7A0000F04BC
S2140129D0A0000F09501200204013002023D7030047
S2140129E0E8D40300D0D7030018D60300FAD40300B6
S2140129F034D603002DD6030049D603002CD5030098
S214012A0088D6030093D60300A7D60300C4D70300D5
S214012A10BFD60300E2D60300B8D7030030B50A6874
S214012A20944B04469A4287B040F02281032001F07D
S214012A30BFF990B1904D914928681FF046FA1EF0F3
S214012A40FFF91EF0FEF98E4B1968CB888A88098932
S214012A50009128688B491FF038FA032001F0A8F985
S214012A60E8B1854D854928681FF02FFA1EF0E8F970
S214012A701EF0E7F9637CE07D0493A37C824903930F
S214012A80E37C824A0293237D002818BF0A460193FD
S214012A90637D7F490093A37D28681FF016FAA37D06
S214012AA000212376637D08226376237D1920A37691
S214012AB0FF23E376FE232377E37C6377A37CA37768
S214012AC0637CE37704F118030FF044FB0146E060F2
S214012AD010B3694D6F4928681FF0F7F96E492868E9
S214012AE01FF0F3F91EF0ACF91EF0ABF96B4B6C4A14
S214012AF000936C49952328681FF0E7F96A49E36853
S214012B006A4A28681FF0E1F9E06801F097F9684918
S214012B1028681FF0DAF9FEE72A200FF05FFBE06075
S214012B2010B3554D5B4928681FF0CFF95A492868FC
S214012B301FF0CBF91EF084F91EF083F9574B584A63
S214012B40009358499A2328681FF0BFF95649E3684D
S214012B50564A28681FF0B9F9E06801F06FF9544940
S214012B6028681FF0B2F9FEE704F110000FF04CFAE6
S214012B70E06010B3404D474928681FF0A6F9464962
S214012B8028681FF0A2F91EF05BF91EF05AF9434BB4
S214012B90434A00934349AF2328681FF096F94249F8
S214012BA0E368424A28681FF090F9E06801F046F9A8
S214012BB03F4928681FF089F9FEE70221207C0FF0C3
S214012BC05DFA0346E06010B32B4D324928681FF0CA
S214012BD07CF9314928681FF078F91EF031F91EF0AA
S214012BE030F92E4B2E4A00932E49B42328681FF045
S214012BF06CF92D49E3682D4A28681FF066F9E068EC
S214012C0001F01CF92A4928681FF05FF9FEE74FF426
S214012C10487200901146207C0FF00EFAE06010B367
S214012C20154D1C4928681FF050F91B4928681FF0EC
S214012C304CF91EF005F91EF004F9184B184A0093DA
S214012C401849BA2328681FF040F91749E368174A5C
S214012C5028681FF03AF9E06801F0F0F8144928688E
S214012C601FF033F9FEE70720124BA36007B030BD13
S214012C700020FBE7A0000100401300202CD5030034
S214012C80501200200AD70300EED60300FCD603003C
S214012C9025D7030023D70300E8D403006CD803002C
S214012CA018D60300FAD4030034D603002DD6030049
S214012CB049D6030060D803000B684E4A73B59342A9
S214012CC0044607D002F14172934200F0868000204C
S214012CD002B070BD032001F06BF860B1464D474964
S214012CE028681FF0F2F81EF0ABF81EF0AAF8444967
S214012CF028681FF0EAF8434806F036FAE060B0B9F3
S214012D00032001F055F860B13B4D3C4928681FF09F
S214012D10DCF81EF095F81EF094F83B4928681FF081
S214012D20D4F83A481EF0BCF90022394B1A70394DD6
S214012D3003202B685B7BFF2B13D101F039F860B1C0
S214012D402D4D2E4928681FF0C0F81EF079F81EF0A8
S214012D5078F8314928681FF0B8F8304B0720A3608F
S214012D60B6E701F025F860B1234E244930681FF01C
S214012D70ACF81EF065F81EF064F8294930681FF0BB
S214012D80A4F82B68187B0FF03DFAE06018B31A4DD3
S214012D90244928681FF099F8234928681FF095F8F8
S214012DA01EF04EF81EF04DF8204B214A00932149A3
S214012DB04FF4B57328681FF088F81F49E3681F4A67
S214012DC028681FF082F8E06801F038F81C49286886
S214012DD01FF07BF8FEE71B4BC0E70E4B1B68DA794A
S214012DE0012A01D0022073E71B89012BFAD100F0DA
S214012DF051F9F7E7A0000600401300202CD5030088
S214012E005BD703002812002072D7030058DE0300A8
S214012E10192B00205012002099D7030030D8030048
S214012E20A6D7030023D70300E8D4030018D803006D
S214012E3018D60300FAD4030034D603002DD60300B7
S214012E4049D603000CD803000149FFF73DBB00BF7C
S214012E503525010010B5074C2378772B06D8064890
S214012E601EF021F923780133237010BD0122034B94
S214012E701A70FAE7192B002058DE03001A2B0020DF
S214012E801B4B37B5186804F041FF044610B3194DC3
S214012E90194928681FF019F8184928681FF015F80D
S214012EA01DF0CEFF1DF0CDFF154B164A00931649B7
S214012EB0452328681FF009F814492346144A286850
S214012EC01FF003F8204600F0B9FF124928681EF0EB
S214012ED0FCFFFEE7104B1D682846FFF7B5FF2246AC
S214012EE0214628462B681B6803B0BDE830401847CA
S214012EF0C40A00204013002023D70300E8D40300AF
S214012F0086DA0300E0D80300FAD4030034D60300BF
S214012F1031D6030049D60300DCD80300414B37B550
S214012F201A78002A7BD00021012019700FF056F97B
S214012F30054610B33C4C3D4920681EF0C6FF3C498F
S214012F4020681EF0C2FF1DF07BFF1DF07AFF394B93
S214012F50394A009339495D2320681EF0B6FF384987
S214012F602B46384A20681EF0B0FF284600F066FF60
S214012F70354920681EF0A9FFFEE7344806F0F4F84C
S214012F80044610B3284D294928681EF09EFF28499B
S214012F9028681EF09AFF1DF053FF1DF052FF254BC7
S214012FA0254A00932549602328681EF08EFF244990
S214012FB02346244A28681EF088FF204600F03EFF7C
S214012FC0214928681EF081FFFEE721481EF02DF8F2
S214012FD0204B03201C7000F0EBFE60B1124C1E4922
S214012FE020681EF072FF1DF02BFF1DF02AFF1B4903
S214012FF020681EF06AFF032000F0DAFE78B10A4C62
S214013000154920681EF061FF1DF01AFF1DF019FF1B
S2140130101349206803B0BDE830401EF056BF03B028
S21401302030BD00BF1A2B00204013002023D7030019
S214013030E8D4030073DA0300E0D80300FAD40300EF
S21401304034D6030031D6030049D6030028120020E7
S21401305040DE0300192B00202CD50300E9D803001D
S21401306012D90300084B094918600368002223F4AB
S2140130707F4323F007030B60E0234B71044B0A7177
S214013080186803685B681847501200204812002031
S214013090DCD8030010B5194B1B68B3F805300B2BB1
S2140130A009D00E2B1AD0022000F082FE28B3144B52
S2140130B0144918680EE0032000F07AFEE8B1104CBF
S2140130C0114920681EF001FF1DF0BAFE1DF0B9FE81
S2140130D00E492068BDE810401EF0F7BE032000F040
S2140130E067FE50B1064C084920681EF0EEFE1DF042
S2140130F0A7FE1DF0A6FE0649EBE710BD5012002004
S2140131004013002069D903002CD5030028D90300F9
S2140131104AD903002DE9F041DFF8108286B0D8F8CD
S214013120003004AE1C7B5F7B072200210B2000963B
S21401313003AB0EF0DDFF054610B36F4C6F492068F8
S2140131401EF0C3FE6E4920681EF0BFFE1DF078FE1D
S2140131501DF077FE6B4B6C4A00936C49D7232068B1
S2140131601EF0B3FE6A492B466A4A20681EF0ADFE81
S214013170284600F063FE684920681EF0A6FEFEE7BA
S214013180D8F80030DB7A502B1BD0532B74D08DF837
S214013190110002208DF8103000F00AFE002871D0D0
S2140131A0554D5E4928681EF090FE1DF049FE1DF043
S2140131B048FE009723463246594928681EF085FE88
S2140131C060E004F118030DEB03012B2F11F8082C16
S2140131D005D02D2F46D022F07F023A430CE002F0B4
S2140131E07F03632B4ED80733632B02F0800201D88E
S2140131F01A4301E042F0640201F8082CD309214683
S21401320002F07F0247481CF0CBFB334600210B201F
S214013210039A0EF09FFF0546002840D0364C3749EA
S21401322020681EF052FE364920681EF04EFE1DF044
S21401323007FE1DF006FE334B334A0093334940F236
S214013240531320681EF041FE31492B46314A20684F
S2140132501EF03BFE284600F0F1FD2F4920681EF0C7
S21401326034FEFEE712F07F030CD0073BDBB2632B84
S21401327002F08002C0D8BBE7532F06D121462A4868
S2140132801CF08EFB06B0BDE8F08104F118036B4418
S21401329013F8082C82F0800203F8082CAEE73246B9
S2140132A00B2003990EF084FF05460028EAD0124C45
S2140132B0124920681EF009FE114920681EF005FE1D
S2140132C01DF0BEFD1DF0BDFD0E4B0F4A00930F49CC
S2140132D04FF4AB7320681EF0F8FD0D492B460D4ADE
S2140132E020681EF0F2FD284600F0A8FD0A49206875
S2140132F01EF0EBFDFEE700BF4013002023D70300BE
S214013300E8D403005EDA0300E0D80300FAD4030031
S21401331034D6030031D6030049D60300A5D90300ED
S214013320AAD9030095D90300A0D9030050120020A2
S21401333037B5274B1B68B3F805000B2806D00E28B7
S21401334030D103B0BDE83040FFF7E4BE997A03F10F
S2140133500B020EF02DFF0546002837D01D4C1E49E6
S21401336020681EF0B2FD1D4920681EF0AEFD1DF05E
S21401337067FD1DF066FD1A4B1A4A00931A494FF471
S214013380BD7320681EF0A1FD18492B46184A206817
S2140133901EF09BFD284600F051FD164920681EF0E0
S2140133A094FDFEE7022000F003FD78B1094C1249B6
S2140133B020681EF08AFD1DF043FD1DF042FD0F49F9
S2140133C0206803B0BDE830401EF07FBD03B030BDBD
S2140133D0501200204013002023D70300E8D4030036
S2140133E04CDA0300E0D80300FAD4030034D6030015
S2140133F031D6030049D60300A5D90300C9D9030075
S214013400012937B57CD0022900F09180002940F0CF
S214013410AB80564B53F82050554B9D4240F0A4804C
S2140134202A200EF0DBFE044618B3524D5249286896
S2140134301EF04BFD514928681EF047FD1DF000FDAA
S2140134401DF0FFFC4E4B4F4A00934F4940F2AB1321
S21401345028681EF03AFD4D4923464D4A28681EF05D
S21401346034FD204600F0EAFC4A4928681EF02DFD8E
S214013470FEE728461DF0E2FD23464FF4FA71CDE93A
S2140134800044454A454805F079FF054618B3394CCE
S214013490394920681EF019FD384920681EF015FDCF
S2140134A01DF0CEFC1DF0CDFC354B364A0093364957
S2140134B040F2B91320681EF008FD34492B46344A01
S2140134C020681EF002FD284600F0B8FC314920684D
S2140134D01EF0FBFCFEE7032000F06AFC002843D048
S2140134E0244C2F4920681EF0F0FC1DF0A9FC1DF0AD
S2140134F0A8FC2C49206803B0BDE830401EF0E5BCAE
S2140135001A4B53F820201A4B9A422DD10EF0A0FEEA
S214013510032000F04DFC38B3164C214920681EF0FC
S214013520D4FC1DF08DFC1DF08CFC1F49E2E70F4B0F
S21401353053F820200E4B9A4216D1032000F038FC97
S21401354060B10C4C164920681EF0BFFC1DF078FCDB
S2140135501DF077FC154920681EF0B7FC002003B06B
S214013560BDE8304024F045B903B030BDD00A002094
S21401357040DE03004013002023D70300E8D40300F5
S21401358038DA0300E0D80300FAD4030034D6030087
S21401359031D6030049D60300552E0100281200201B
S2140135A02CD50300F5D9030014DA03002ADA030048
S2140135B030B503687C4A23F47F4323F00703934224
S2140135C089B040F0EE80082200211320774B0EF0E0
S2140135D0C1FD044610B3764D764928681EF075FC89
S2140135E0754928681EF071FC1DF02AFC1DF029FCA7
S2140135F0724B734A009373493D2328681EF065FC9D
S21401360071492346714A28681EF05FFC204600F087
S21401361015FC6F4928681EF058FCFEE70146032298
S21401362015206C4B0EF096FD044610B3604D6149B3
S21401363028681EF04AFC604928681EF046FC1DF00A
S214013640FFFB1DF0FEFB5D4B5D4A00935D494B237E
S21401365028681EF03AFC5C4923465C4A28681EF03E
S21401366034FC204600F0EAFB594928681EF02DFC80
S214013670FEE7014605221720574B0EF06BFD054667
S21401368010B34B4C4B4920681EF01FFC4A4920687A
S2140136901EF01BFC1DF0D4FB1DF0D3FB474B484A24
S2140136A000934849592320681EF00FFC46492B46D3
S2140136B0464A20681EF009FC284600F0BFFB444934
S2140136C020681EF002FCFEE70DF10F0104A80EF0C3
S2140136D0CBFD044610B3364D364928681EF0F5FB7F
S2140136E0354928681EF0F1FB1DF0AAFB1DF0A9FB69
S2140136F0324B334A00933349642328681EF0E5FBB6
S21401370031492346314A28681EF0DFFB204600F087
S21401371095FB2F4928681EF0D8FBFEE7BDF814304C
S21401372001465BBAADF818309DF8133008228DF8C3
S2140137301A30FF238DF81B30FE238DF81C309DF8C0
S214013740123019208DF81D30BDF810305BBAADF877
S2140137501E3006AB0EF0FEFC054610B3144C1549A0
S21401376020681EF0B2FB144920681EF0AEFB1DF067
S21401377067FB1DF066FB114B114A00931149742338
S21401378020681EF0A2FB10492B46104A20681EF046
S2140137909CFB284600F052FB0D4920681EF095FB65
S2140137A0FEE709B030BD00BFA00001008FDA0300BC
S2140137B04013002023D70300E8D40300CADA03002D
S2140137C098DA0300FAD4030034D6030031D6030096
S2140137D049D60300C0DA0300C4DA030010B5234C4F
S2140137E001F0FCFC01F01CFF236F23F0070343F0FC
S2140137F0030323671DF0ADFD1D4B00209B6A9B074D
S2140138005EBF01221B4B9A62D4F8203123F00303DA
S21401381043F00203C4F82031D4F8243123F007031F
S21401382043F00203C4F82431D4F8403123F00303F3
S21401383043F00203C4F84031D4F8603123F00303A7
S21401384043F00203C4F86031D4F8403223F0030396
S21401385043F00203C4F84032D4F8003223F00703E1
S21401386043F00203C4F8003210BD00BF00800050D0
S21401387000C0005000E0005008B502F01DFC012811
S2140138800ED1144B04205A6E4FF480231249520372
S21401389058BF124A4B6601F51041086258BF53667D
S2140138A004F016FA1DF0EDFA04F0A2F904F0FAF9A4
S2140138B004F0C0F91EF0B8FAFFF790FF04F0A8F97B
S2140138C01DF0D4FA00F054FD01F0B8F9BDE8084047
S2140138D004F00ABF008000500090005000A0005085
S2140138E030B5214D9DB009AC0FCD0FC495E80F0042
S2140138F04FF4165584E80F002822002112A80B95D4
S21401390028F07FFE194B01241193382313930523C6
S214013910159306230E2200210DF116008DF849405D
S214013920179328F06EFE4FF48010114B09AACDE9CB
S21401393003033E238DF814303F238DF815300D4BCD
S21401394003A90693202307930B4B0C48009311AB56
S2140139508DF8204004F04EFA0446002128461DF05A
S214013960D9FA20461DB030BDF0DD03000000035A31
S2140139703400035A1B2B002054120020C4120020CE
S214013980022905D8034B1B68186808B1436A184713
S214013990704700BFC00A002008B50449044804F077
S2140139A069FFBDE80840FFF79BBF00BFC80A0020BB
S2140139B0E812002001481EF0BFBA00BFC412002062
S2140139C0014B1A6A18681047C412002008B505484A
S2140139D01DF0D4FA04481DF0D1FABDE808400348AA
S2140139E01DF0CCBA40DE030028DE030010DE030023
S2140139F001481DF052BB00BF58DE0300184B37B517
S214013A0083422AD1174B1B783BB3C8B20EF05EFB3C
S214013A10054610B3144C154920681EF056FA144991
S214013A2020681EF052FA1DF00BFA1DF00AFA114B2F
S214013A30114A00931149852320681EF046FA104961
S214013A402B46104A20681EF040FA284600F0F6F988
S214013A500D4920681EF039FAFEE703B030BD00BFFD
S214013A60F01200203B2B00204013002023D7030038
S214013A70E8D40300E8DE030070DE0300FAD4030096
S214013A8034D6030031D6030049D6030030B50025ED
S214013A900368584A23F47F4323F0070385B0934213
S214013AA004460295ADF80C507ED002F58022934272
S214013AB00ED0A2F18272934240F09A804E4B1B7850
S214013AC0002B00F0958005B0BDE830401EF060BCCC
S214013AD0B0F80530232B40F08B80FF2304A91A464B
S214013AE011E903001DF0A5F9012814BF41F2FC15E8
S214013AF0414B05F0FC0208BF1870232120790EF017
S214013B003FFB054610B33D4C3D4920681EF0DDF9EC
S214013B103C4920681EF0D9F91DF092F91DF091F983
S214013B20394B3A4A00933A49592320681EF0CDF999
S214013B3038492B46384A20681EF0C7F9284600F057
S214013B407DF9364920681EF0C0F9FEE73449009039
S214013B502379344A0968344800F0CAF90546002832
S214013B6046D0264C264920681EF0AFF92549206824
S214013B701EF0ABF91DF064F91DF063F9224B234AE0
S214013B8000932349622320681EF09FF921492B46A2
S214013B90214A20681EF099F9284600F04FF91F497E
S214013BA020681EF092F9FEE7B0F80530B7EE047A09
S214013BB007EE903AF8EE677AB0F8073067EE877A44
S214013BC0013307EE103AB8EEC77A67EE877AB1EEA0
S214013BD0047A67EE877AFAFE677AFCEEE77A17EEE2
S214013BE0903AB3F57A7F38BF4FF47A730C4A136074
S214013BF005B030BDA00006023B2B0020401300207C
S214013C0023D70300E8D40300F7DE030070DE0300C9
S214013C10FAD4030034D6030031D6030049D6030094
S214013C20DC0A0020FD390100F012002004210022E8
S214013C30034B19711A6019739A6019751A617047E6
S214013C40281300202DE9F8431F4B06461B78ABB915
S214013C500325DFF87C901D4C59F8043BB34207D18D
S214013C6030461DF090F901280AD11EF04FFB206066
S214013C70013D15F0FF0504F10804EDD1BDE8F88318
S214013C8030461DF080F980460028F1D11EF03EFB3B
S214013C902368C71AFA2005F0FFFAB84202D984F859
S214013CA00480E5E74FF47A7005F0F6FAB84202D9D7
S214013CB001232371DCE741F2883005F0EDFAB842C2
S214013CC08CBF02230323F4E71D0D002028130020D8
S214013CD0D00A002070B500240426074D297904294E
S214013CE003D0E0B2FFF78CFB2E710134032C05F1F3
S214013CF00805F3D170BD00BF2813002038B5002495
S214013D00094D55F8040B1DF03EF9012804D11EF0AB
S214013D10FDFA064B43F834000134032CF1D100229E
S214013D20034B1A7038BD00BFD00A002028130020AC
S214013D301D0D0020064B1A784AB90121197004217D
S214013D40044B19711A6019739A6019751A617047D4
S214013D501D0D002028130020074B187850B9074B7B
S214013D601A79042A06D11A7B042A03D1187D031F67
S214013D7058425841704700BF1D0D002028130020EF
S214013D80094B1B785BB9094B1879042809D11A7BB2
S214013D90042A07D11B7D042B08BF01207047012090
S214013DA070470420704700BF1D0D00202813002017
S214013DB00B4B02461B7883B10A4B1B78834234BFF8
S214013DC000200120084B1B7833B1084B1B781341A8
S214013DD013F0010F08BF002070470120F2E700BF73
S214013DE0200D00201F0D00203C2B00201E0D002062
S214013DF0012208B5074B1A700022074B1A700422DD
S214013E00064B1A701F22064B1A7003F08BFF054BE8
S214013E10186008BD200D00203C2B00201F0D00203F
S214013E201E0D002040130020024B034918681EF0A7
S214013E304CB800BF4013002017DF030070B50C4CD0
S214013E400C49064620681EF040F803F06BFF054655
S214013E50206803F05BFF3046FFF7E6FF284603F0D5
S214013E6055FF20680449BDE870401EF02EB800BF1B
S214013E704013002019DF03001BDF030038B5054699
S214013E801DF083FA00230B4A14685CB1AC4206D1DC
S214013E90A96A6BB199621DF07EFA012007E02346FC
S214013EA0A46AF2E7002DF3D01DF075FA204638BD5E
S214013EB01160F0E74413002010B5044698B105F0F0
S214013EC053F92046FFF7DAFF10B194F82C300BB9FE
S214013ED0002010BD1DF059FA044A1368013B136017
S214013EE01DF059FAF4E72220F3E700BF481300203B
S214013EF02DE9F04385B00546914698460E469DF855
S214013F00307009B9002F5CD12846FFF7D5FF04466B
S214013F10002836D185F82C00686305F061FA8642E0
S214013F2033D905F0B3F92146844640F2E7304FF421
S214013F307A720023E6FB0C011BF02EFA4FF0FF32DB
S214013F4000231BF029FA2B46E88611462846CDE9C0
S214013F5000441D4A1EF0B5F9044690B9C5E9089813
S214013F6085F82D702E631DF010FA184A136833B3C6
S214013F701A469B6A002BFBD195620023AB621DF0AB
S214013F800AFA204605B0BDE8F08347B12B46314614
S214013F902846CDE900440C4A05F0AEF9DCE7304688
S214013FA003A905F08BF904460028EAD12B462846DA
S214013FB0CDE90077044A03991EF05FF9CCE7156056
S214013FC0DBE72124DDE700BFD13F010044130020D9
S214013FD091F82C3013B50C4683B98B8ECA8E93425A
S214013FE00ED243B9CDE9003320460B46104A4FF0B6
S214013FF0FF311EF026F9A38E0133A38602B010BD51
S21401400052B191F82D307BB101230093D1E90823F9
S2140140102046096BFFF76CFF0123064A84F82C3013
S214014020136801331360E9E7084605F09DF8F3E7E6
S214014030D13F0100481300202DE9F041144E3368AA
S21401404023B34FF00008134F1DF09FF905463C6857
S21401405024B92846BDE8F0411DF09DB994F82C30EE
S21401406093B1336884F82C80013B336094F82D308B
S21401407013B92046FFF702FF28461DF08CF9D4E954
S214014080083120469847DFE7A46AE1E7BDE8F081FA
S2140140904813002044130020034B1B68002B14BF59
S2140140A004200120704700BF48130020024B186807
S2140140B0B0FA80F040097047481300202DE9F04718
S2140140C0434D88B001AC0FCD0FC495E8070001251C
S2140140D084E8070001213A2000F0A6FFDFF8FC8003
S2140140E00121282000F0A0FF3A4B404601A9039386
S2140140F08DF8125002F01AF82B46042200210220F5
S21401410001F0E8FD2A4629460023022001F0E2FDDF
S21401411002212B460846042201F0DCFD04222B4630
S2140141201146002001F0D6FD4FF002132A4C02265C
S214014130C4F83036A3F58033C4F82C361C23102778
S214014140C4F8346604F5005AC4F81C364FF44870B7
S21401415005F0DEFA04F580591420CAF8107005F04F
S214014160D7FA2320C9F8107005F0D2FAB9214046D3
S214014170CAF810701DF090F9002330461A46194609
S214014180C9F8107001F0A6FD002329461A463046EC
S21401419001F0A0FD2B4631463046002201F09AFD83
S2140141A000222B461046042101F094FD404601F002
S2140141B095FF00212820C4F83016C4F82C16C4F840
S2140141C03416C4F81C1600F02FFF08B0BDE8F087BF
S2140141D020DF030000127A0000C0035000C0055023
S2140141E00348044A0449121A92101CF0A3BE00BFE9
S2140141F0902E0400902E0400642C002008B500F0D8
S2140142002FF8FFF7EDFF124B12498B4212D3002015
S214014210114B12498B4218D3FEF776F8186850F8FE
S2140142202240586840F82240013298688242F5D30D
S2140142300C33EAE70022F8E71C6844F82200013252
S2140142405C68A242F8D30833E4E70022F8E700BF2F
S214014250282A0400342A0400342A0400342A0400DC
S2140142604FF400414FF0FF30124B134A10B59A60DD
S214014270D3F8882042F47002C3F888200F4A91666A
S21401428001F1884101F5005210664FF6DF70506665
S2140142900220C3F8D000BFF34F8FBFF36F8F0824FF
S2140142A04FF440330648C0F88041D36004600B6188
S2140142B010BD00BF00ED00E000200100009000509E
S2140142C000E100E0014B1868704700BFE40A0020D7
S2140142D0084B1B6F03F00703022B04D0032B05D0FA
S2140142E0012B05D0FEE7044B18687047034BFBE72C
S2140142F00348704700800050E40A0020EC0A0020C2
S214014300002D310108B5FFF7E3FF054B1B6FC3F323
S21401431003330133B0FBF3F0024B186008BD00BF56
S21401432000800050E00A00200048704700B4C40432
S214014330014B1868704700BFEC0A0020054B186057
S214014340054B1B6F03F00703032B01D1FFF7DABF01
S214014350704700BFEC0A00200080005000487047FC
S214014360002D3101014B1868704700BFE80A002094
S21401437000239B6A10B5B3F5903F11D219680A4A1B
S21401438091420DD1094C227812F0FD0F01D0002088
S21401439010BDDB6998470028FAD101232370F6E7A0
S2140143A04FF48170F4E700BF07B0CD5E3D2B0020CF
S2140143B04FF00053074A1A60BFF34F8F0649074B69
S2140143C0CA6802F4E0621343CB60BFF34F8F00BFAD
S2140143D0FDE700BF02020FF000ED00E00400FA0561
S2140143E00346054A0549106803448B428CBF4FF0CB
S2140143F0FF301360704700BFF00A002000800020E5
S214014400F7B50468012105463A2000F00DFE0023A9
S21401441001226179207901F05DFC14233021227993
S21401442011FB023101F1A04101F570310968637990
S214014430D940C943A37901F00101022B217017D19C
S21401444000F044FB164A2B466179207900F068FBA0
S214014450FF28024660790ED12A46114900F098FBE2
S2140144600123024661792079CDE9003301F0D8FBBA
S214014470002003B0F0BD01262779002301460096EF
S214014480384601F087FC2A460549607900F080FB32
S2140144900023617902462079009301963346E5E7C9
S2140144A0910F030008B501213A2000F0BDFD03215C
S2140144B001230422002001F00DFC00201CF0D3FF94
S2140144C00122214B4FF46070C3F844241CF078FE9F
S2140144D01E4B00F5D520D3F8F02000F2FC4042F048
S2140144E00102C3F8F020D3F8FC2042F08072C3F832
S2140144F0FC20174AA3F55D431A60164B0222B0FB57
S214014500F3F0154B01381861C3F8F0204FF48072B0
S214014510C3F804234FF06043104A0020C3F8B02FBD
S2140145200F4AC3F8802ED3F8002E42F48072C3F8E7
S214014530002EFF2283F82020D3F8002E22F480726A
S214014540C3F8002E08BD00BF00D0035000ED00E008
S214014550FF030040F8590D00000004E055CEACC53D
S214014560090001004FF06043D3F8802E30B5D20722
S21401457015D501240B4D8440D5F8FC2042F08072FD
S214014580C5F8FC20D3F8002E2243C3F8002E53F8BA
S2140145902020002AF0D003F82010002030BD112082
S2140145A0FCE700BF00ED00E010B50122437801787A
S2140145B0847830209A40054B00FB01331CB942F247
S2140145C010015A5010BD41F21001FAE700C0035025
S2140145D010B5012243780178847830209A40054B43
S2140145E000FB01331CB941F210015A5010BD42F2D2
S2140145F01001FAE700C003502DE9F04F9A46564BDA
S21401460085B01B7806460F461546DDF83C909DF8AA
S21401461044B0DDF85080002B00F09780072A00F2A6
S21401462096800E9B002B00F09280B9F1000F00F0EF
S2140146308E80129BB3F5006F00F38980012803D1A9
S214014640109B002B00F08380444B03EB05131B7B70
S214014650002B7ED0424C10220021684627F0D1FF65
S21401466004EB45141022A7BB3946204627F0C9FFA4
S21401467043F210036380BBF1000F03D1E37843F0EC
S2140146800303E370364A0E9B02EB451CCCE901930B
S214014690129B6901581E9DF84C30C0F30A0003F0C6
S2140146A003039B0643EA001E53582E48012E00EAD8
S2140146B003004EEA0003CDF800A0535017D0B8F11E
S2140146C0000F2ED19CF8023068F304138CF80230E8
S2140146D027E00021204627F094FF4FF444736380BF
S2140146E0BBF1000FCED1E37843F03003C9E71323C3
S2140146F00CF1100ECCF80C309CE80F008EE80F0081
S2140147006FF00301DCF81C20109B61F39F02012F60
S214014710CCF81C20CCF8143003D1CCF81890CCF887
S214014720043000270D4A290102EB051342F80180E7
S214014730159A28465A60694622469F605E7301F0C4
S214014740A5FB384605B0BDE8F08F0748FAE70748ED
S214014750F8E70748F6E700BF3E2B00204C14002080
S2140147604C1300200F80FFF3028000F0018000F060
S214014770078000F038B5124B05461B78DBB1E0B177
S2140147801CF003FE0F4A00231146147B54B92B601C
S21401479001251A0101EB03131D738C501CF0FBFD60
S2140147A0204638BD0133082B02F11002EDD11CF072
S2140147B0F2FD0548F5E70548F3E70548F1E700BFD0
S2140147C03E2B00204C140020048000F0028000F0F4
S2140147D0018000F038B51CF0D8FD002305460B4AD1
S2140147E0147B6CB90133082B02F11002F8D101F0E9
S2140147F0EFFA074B28461C701CF0CDFD204603E05F
S21401480028461CF0C8FD034838BD00BF4C140020E4
S2140148103E2B0020058000F00D4B10B51B7804469A
S21401482093B1072812D81CF0B0FD0A4B03EB041312
S2140148301A7B2AB100241C731CF0ADFD204610BD66
S2140148401CF0A9FD0448FAE70448F8E70448F6E72F
S2140148503E2B00204C140020068000F0028000F061
S214014860018000F0154B13B51868002301908DF8F0
S21401487004301CF08AFD124B1C7824B11CF08BFD11
S214014880104802B010BD01221A701CF084FD0E4BB8
S21401489001A81C731C7783F82C4083F83C4083F8EE
S2140148A04C4083F85C4083F86C4083F87C400823D6
S2140148B08DF8073001F0B8FA2046E2E78CDF0300F6
S2140148C03E2B0020038000F04C1400200A4A08B555
S2140148D012785AB107280BD8084A02EB00131B7B43
S2140148E043B1002101F092FA002008BD0448FCE71C
S2140148F00448FAE70448F8E73E2B00204C14002051
S214014900028000F0018000F0078000F00A4A08B536
S21401491012785AB107280BD8084A02EB00131B7B02
S21401492043B1012101F072FA002008BD0448FCE7FA
S2140149300448FAE70448F8E73E2B00204C14002010
S214014940028000F0018000F0078000F00A4A08B5F6
S214014950127852B107280AD8084A02EB00131B7BCB
S2140149603BB101F0DDFA002008BD0548FCE705482B
S214014970FAE70548F8E700BF3E2B00204C1400205C
S214014980028000F0018000F0078000F00D4B1B78DC
S21401499093B1072812D889B10B4B03EB00131B7B8D
S2140149A073B10A4B1A6D01238340134214BF0123CE
S2140149B0002300200B707047054870470548704774
S2140149C0054870473E2B00204C1400200000045080
S2140149D0028000F0018000F0078000F00B4A10B55D
S2140149E012780C4662B107280CD859B1084A02EB76
S2140149F000131B7B43B101F0A5FA2070002010BD07
S214014A000448FCE70448FAE70448F8E73E2B002090
S214014A104C140020028000F0018000F0078000F0B6
S214014A20184B2DE9F0411F6D5B6D1F4000D5FEE769
S214014A3001260025144CDFF85880374218D0236829
S214014A40C8F85060A3B1A168284601316268A16028
S214014A509847637B012B0BD150B90C4B03EB4513E5
S214014A601A7B60F341021A731A7F60F341021A77C8
S214014A700135082D4FEA460604F11004DDD1BDE8E4
S214014A80F08100BF000004504C1400204C1300209D
S214014A900020045070B5044601250B4E04B970BDC4
S214014AA094FAA4F0B0FA80F005FA00F306EB0012CF
S214014AB024EA03045368002BF0D0117B11B19168EE
S214014AC09847EBE79847E9E7CC14002008B519208A
S214014AD000F0D2FD28B14FF00072074BC3F88021D9
S214014AE01A601A2000F0C8FD28B14FF08062024B10
S214014AF0C3F880211A6008BD00E100E038B505461C
S214014B000C461CF042FC0022044B03EB05135C60D0
S214014B101A73BDE838401CF03EBC00BFCC14002020
S214014B20F8B504460D4617461E461CF02EFC1CB969
S214014B30052D18D0FF241FE0012C05D1012D1FD013
S214014B40032DF7D104240EE0022C07D1052D19D030
S214014B50072D19D0002DEDD1062404E0032CE9D150
S214014B60022DE7D10924094904F1100301EB0311D1
S214014B700123C1E901760B731CF00DFC2046F8BD3C
S214014B800324F0E70724EEE70824ECE7CC14002022
S214014B90F8B505460E4617461CF0F7FB134B2C4698
S214014BA0D3F8242405F0FC0122FA05F3DB0712D51D
S214014BB000230133DBB2042B04D1FF241CF0EBFBF2
S214014BC02046F8BDEC1804F003040C4422FA04FC59
S214014BD01CF0010FEDD1FF2CF0D00122044B03EBAA
S214014BE00413C3E901671A73E8E700BF00C0035066
S214014BF0CC140020074BD3F82404D3F8202403F563
S214014C000053104000F0553020F05020C3F8200427
S214014C10FFF740BF00C00350074BD3F82404D3F876
S214014C20202403F50053104000F0AA3020F0A02005
S214014C30C3F82004FFF72EBF00C00350024B1968CB
S214014C40024B186813F094BBF40A0020140B0020E2
S214014C5070B59400224605460E4628F011FC431C0A
S214014C600AD058B922463146284627F0A0FC00282B
S214014C70034808BF002070BD0248FCE70248FAE777
S214014C8010E000F021E000F024E000F010B504464A
S214014C9028F0F2FB431C10D088B901F015FA234620
S214014CA020F003002044984201D1002010BD53F8A3
S214014CB0042B0132F7D00348F8E70348F6E7034828
S214014CC0F4E700BF0EE000F021E000F024E000F081
S214014CD008B51CF053FB014B186008BDBC1D002035
S214014CE0014B18681CF04EBBBC1D0020044BD3F8CA
S214014CF08420D206FBD4D3F88400C0F38110704719
S214014D000040005038B5104B0546D3F820310C460C
S214014D1003F00303022B0BD0032B0DD0012B0FD175
S214014D20FFF7D0FA052305B1286004B1236038BD2A
S214014D30FFF7FEFA0323F6E7FFF710FB0223F2E77D
S214014D4001230020EFE700BF0080005073B50D4639
S214014D5000210E4B0191D3F88041064604F003046E
S214014D60012C09D0022C0CD00C460EB1019B3360ED
S214014D7005B12C6002B070BD01A8FFF7C3FF0F2478
S214014D80F3E7FFF7EBFA0190EFE700BF0080005072
S214014D9038B5184B0546D3F824010C4600F0070039
S214014DA0062823D8DFE800F0040A121A1E0E1600A1
S214014DB0012305B1286004B1236038BDFFF782FAEC
S214014DC00523F6E7FFF77EFA0623F2E7FFF7B0FAC8
S214014DD00323EEE7FFF7ACFA0423EAE7FFF7BEFA90
S214014DE00223E6E71CF0B1F80723E2E700231846A2
S214014DF0DFE700BF0080005038B5104B0546D3F8FA
S214014E0040310C4603F00303022B0BD0032B0DD0CD
S214014E10012B0FD11CF09BF8092305B1286004B1C2
S214014E20236038BDFFF79EFA0823F6E71CF092F8D8
S214014E300B23F2E701230020EFE700BF00800050BC
S214014E4038B5144B0546D3F800020C4600F00700AF
S214014E5004281BD8DFE800F003090D111500012313
S214014E6005B1286004B1236038BD1CF070F8092331
S214014E70F6E7FFF777FA0823F2E71CF06BF80B2347
S214014E80EEE7FFF73FFA0E23800AE9E7002318460C
S214014E90E6E700BF0080005038B5104B0546D3F852
S214014EA040320C4603F00303022B0BD0032B0DD02C
S214014EB0012B0FD11CF04BF8092305B1286004B172
S214014EC0236038BDFFF74EFA0823F6E71CF042F8D8
S214014ED00B23F2E700231846EFE700BF00800050DF
S214014EE038B5104B0546D3F860310C4603F0030382
S214014EF0022B0BD0032B0DD0012B0FD11CF027F862
S214014F00092305B1286004B1236038BDFFF72AFAEA
S214014F100823F6E71CF01EF80B23F2E70123002016
S214014F20EFE700BF0080005010B40D4C0B46D4F8DC
S214014F30204204F00304012C0AD0022C0CD008B144
S214014F40002101600BB100221A605DF8044B704726
S214014F505DF8044BFFF7D6BE5DF8044BFFF74CBF78
S214014F600080005038B50C4605461CF007FA054B84
S214014F709A6A54402C4054409C62BDE838401CF06C
S214014F8001BA00BF00C00050B0F5207F1FD009D87D
S214014F90B0F5007F15D003D868B1B0F5C07F0AD050
S214014FA000200CE0B0F5607FFAD10B4BD3F88000FF
S214014FB0C0F3011003E0084B186FC0F30330013053
S214014FC07047054BD3F89000C0F30460F7E7024B37
S214014FD0186FC0F38020F2E7008000504FF40032D3
S214014FE00E4B014610B500209A66FFF7CDFF4843E9
S214014FF041F671320A490B4B884294BF00200120CA
S214015000DC69DA639A6822F4401242EA00529A6036
S214015010E20344BF0022DA6310BD00BF00900050D7
S214015020005A620200000350420910B50FD0012A4F
S2140150300FD00A4B0A4C022A18BF234600F01F0065
S21401504049B103F58053012282401A6010BD134610
S214015050F4E7044BF2E703F50053F4E768800050E9
S214015060608200506480005008B580201CF0A8F8CB
S214015070034B98429EBF4FF48032024B1A6708BD1D
S214015080005A620200A000501FB50023B0F5807FD1
S214015090019377D028D8382800F094800BD824388C
S2140150A0092810D809280ED8DFE800F06767676777
S2140150B00D0D620D377D52285FD008D83D283BD0B4
S2140150C03E2800F08480019805B05DF804FB802836
S2140150D0F9D1414B1B6F03F00703013B032BF2D8B9
S2140150E0DFE803F044413F6CB0F5D06F5BD019D8D0
S2140150F0B0F5A06F66D00AD8B0F5806F3DD0B0F598
S214015100906FE0D1002001A9FFF742FEDBE7B0F582
S214015110B06F2DD0B0F5C06FD5D1002001A9FFF733
S2140151206BFED0E7B0F5006FECD00AD8B0F5E06FB3
S2140151304DD0B0F5F06FC6D1002001A9FFF7D0FE23
S214015140C1E7B0F5086FBED1234BD3F8003103F0A9
S2140151500303022B2CD0032B2ED0012B30D1FFF7CB
S214015160E7F8032300E005230193ACE70223FBE7FE
S214015170002001A9FFF7EAFDA5E7002001A9FFF736
S214015180C1FDA0E702934FF0E0231B695B0705D53D
S214015190FFF7B8F80C230393039BE5E703A902A8DE
S2140151A0FFF72AFEF8E7002001A9FFF749FE8AE784
S2140151B0FFF7D8F80823D7E71BF0C7FE0723D3E786
S2140151C00123D1E7002001A9FFF7AEFE7BE700200F
S2140151D001A9FFF761FE76E7008000504FF4002238
S2140151E0034B5A66012203F580439A62704700BF5B
S2140151F00090005008B5FFF747FF082811D009387E
S214015200012802D94FF6FF7008BD4FF40012064B75
S2140152105A6603F5D8335B6ADB07F3D54FF4FA70A9
S214015220F2E7024B1888EFE700900050080D0020C7
S214015230F8B504468020FFF727FF032800F0878093
S2140152404FF40022424B02215A6645F60E03414AAC
S214015250C2F88030404B9962012103F58053996270
S214015260936DD903FCD4D4E900131B0543EA01630B
S214015270E17B94F820500B43217BE77E43EA014310
S214015280617B6D0143EA0133A17B43EA811313611C
S2140152909169D4E904031B0643EA806301F00041E7
S2140152A00B43A17E94F823000B43217E43EA01437E
S2140152B0617E43EA01239361136AE66923F00D03D5
S2140152C094F8221043EA8703002E2DD11362966AC2
S2140152D094F8213045EA031326F033052B4343F0B7
S2140152E0010393621D4D1B4B9A6D35EA0202FBD1F9
S2140152F00222194DAA621A659A6D5200FCD41A69E7
S214015300A56822F4700242EA05521A614FF0004283
S214015310114B9A6119B9022203F580539A6278B942
S21401532001220F4B9A620BE0334343F008031362EA
S214015330936A23F0330303432B4343EA4103936207
S21401534094F824301BB1034B064AC3F88020F8BDFD
S2140153500090005000C0005000D0005003000140F3
S21401536000E00050F1A7FFFF1E4BFF2870B59E6AB4
S21401537035D89A6D12F4803F18BF01211A4A18BF1A
S2140153809162022191629B6DDC0303D5154A936DF0
S2140153909907FCD50222144B124D1A65AC6D14F018
S2140153A08044FBD1114AAB6992F9002023F47F03B4
S2140153B0024423F47F4382F3080243EA002343EACC
S2140153C00243AB6131460220FFF7CCFDAB6DDB0338
S2140153D003D531460120FFF7C5FD204670BD2124C7
S2140153E0FBE700BF00C0005000D000503F2B00205C
S2140153F0014B93F9000070473F2B0020012215480E
S214015400154B816A9A62826D02F00302032AFAD171
S21401541002229A621A650F4A936D5B00FCD40F480C
S214015420936D30EA0303FBD101220B4B1A65A3F5FA
S21401543080539A6D9007FCD49A6D9207FCD5022290
S214015440054B1A65034A936D9B07FCD50320FFF7AE
S21401545089BD00BF00C0005000D00050030001000D
S214015460F0B5D0E901434FF480061A4A4178057831
S21401547056664FF4D156022702F5B8325662164EDA
S2140154804F2977604FF0010728BF4F2106F5805658
S21401549077601669F603FCD441EA052151611B01C8
S2140154A0417B43EA04230B43017B43EA41039360B8
S2140154B0C37B817B1B0143EA4113417C0B43017C87
S2140154C043EA41035360837C13B16FF4D1535362B3
S2140154D0F0BD00BF0090005000100250014B188034
S2140154E0704700BF080D0020014B1880704700BFB1
S2140154F0060D00204FF4001208B5184B5A66022319
S214015500174A5360936813F48033FBD1012822D1E4
S214015510FEF70EFF134B984215D003F5122303F541
S214015520F863984213D0104B00EB8002400AB3FB9D
S214015530F0F3520A0A49CA620B6301234B62002246
S214015540074B5A6008BD45F67A13084AF2E745F656
S2140155501A03074AEEE75362F1E700BF00900050D6
S2140155600040025000F0490264666666D8B805003D
S214015570BBCF0500B0F5207F10B50C4642D008D849
S214015580B0F5007F33D003D888B1B0F5C07F0ED018
S21401559010BDB0F5607FFBD11F4A4C1ED2F880309B
S2140155A023F0300343EA0413C2F88030F0E71BF01F
S2140155B0FFFD1BF0C9FE4FF48031184B164A1967E0
S2140155C0136F013C23F4704343EA04331367FEF779
S2140155D099FE0446FFF78AFBC0F1020120461BF044
S2140155E0ADFE00F02DF8BDE81040FFF73DBD0A4ABC
S2140155F04C1ED2F8903023F0F85343EA0463C2F805
S2140156009030C5E7044A4C1E136F23F4806343EAC7
S21401561084231367BCE700BF008000500090005051
S21401562008B50121022000F0F5F81BF0C1FD1BF0C2
S2140156308BFE4FF48032014B1A6708BD0090005074
S21401564008B54FF4C0701BF0BBFDBDE80840044927
S214015650884294BF012102214FF42070FFF78ABFD0
S21401566080F0FA02034B5868C0F30800003818BFF0
S2140156700120704700ED00E0054B420953F8223047
S21401568000F01F0023FA00F0C04300F0010070474D
S21401569000E100E010B5224B70B94FF40031214A09
S2140156A01860516602F598325268012A03D11E4AE3
S2140156B0D2F800211A6010BD1B68002BFBD01B4AD4
S2140156C05268012AF7D0184A8020C2F80031FFF745
S2140156D0DBFC05281FD14FF4C070FFF755FC0128ED
S2140156E0044604D102214FF4C070FFF743FF07229E
S2140156F00F4B1A610122A3F580535A600B4A1369B6
S214015700DB07FCD5012CD6D12146BDE810404FF46D
S214015710C070FFF72FBF0122064B5A60CBE700BFD0
S214015720C01D0020009000500080005000C00150B5
S21401573000E0015000D00150044A4178536F23F431
S214015740407343EA01235367704700BF004000508F
S21401575010B5044610B10020FFF79CFF104A1369EC
S21401576043F00403136103F0D1FA1BF017FE0D4B4F
S2140157700D4AC3F820241BF001FE27F085FE1BF01E
S21401578001FE1BF00CFE03F0E9FA1CB9BDE810405F
S214015790FEF7B8BD0120BDE81040FFF77BBF00BF94
S2140157A000ED00E000E003500000FF0F10B50446D6
S2140157B010B10020FFF76EFF0E4A136943F0040391
S2140157C013610D4B0D4AC3F8202403F09FFA1BF01A
S2140157D0D5FD27F059FE1BF0D5FD03F0BFFA1CB925
S2140157E0BDE81040FEF78EBD0120BDE81040FFF772
S2140157F051BF00BF00ED00E000E003500000FF0FC6
S214015800034A0179D36E23F030030B43D366704706
S21401581000400050F8B504461C4BD3F88420D1064E
S214015820FBD4D3F88430C3F381139C422CD0FEF70B
S2140158304FFD012C064602D121461BF07FFD1BF0D1
S2140158409DFD4FF00072124B07465A6620461BF02C
S214015850ADFD4FF480630D4D621E93402B676B6E5A
S2140158609A0103D4D5F884309B060AD538461BF036
S21401587089FD022C08D13046BDE8F84000211BF016
S2140158805DBDD5F88430EAE7F8BD00BF00400050A2
S2140158900060005010B50C4608B9FEF719FD074B1D
S2140158A021461B783BB1064B984204D80120BDE83F
S2140158B01040FFF7AFBF0220F9E700BF402B0020E2
S2140158C0005A62020278034B012100201A70FFF78A
S2140158D0E1BF00BF402B00204FF0004238B5264BF9
S2140158E026495A6601224A604AF6CD3103F50B2352
S2140158F05D6C1964154030BB9968C9070BD4002448
S21401590001221F4B5A6015B11E4B1F4A1A6426F01E
S214015910B2F9204638BD1A498A601C4AD96ACC07B2
S21401592005D4904201D10724EAE70130F6E7904218
S214015930E5D1F8E70132DC6A14F0080406D08A42A1
S214015940F8D10724DFE700221049F4E78A42F8D0AD
S21401595020220B4B0B495A620122A3F580539A6011
S21401596023460A4A486A800603D49342E9D00133A3
S214015970F8E79342C7D1E4E7009000500050095081
S21401598000600950004009503254FFFF40420F00AA
S2140159904FF0004238B5174B174C5A66012203F5F3
S2140159A00C235A604AF6CD33656C236443789340E2
S2140159B01343124AD363C3788178A2689B0043EAF3
S2140159C0011322F074021343A3600279837943EA38
S2140159D0022323614279C37943EA02236361007893
S2140159E0FFF77AFFEB0744BF054B236426F043F924
S2140159F0012038BD00900050004009500040005082
S214015A003254FFFF10B504461BF0D5FC002341F2CB
S214015A1002020849E360A360226104F50052E361D3
S214015A206361A36123626362E362A3645164A36258
S214015A3010BD00BF7F370C0138B50446154639B98D
S214015A401848844214BF084638201BF0B9FB0146AB
S214015A506368A36803F0E003402B1AD003D8D3B1E0
S214015A60202B1AD038BD602B19D0802BFAD10123F8
S214015A706B434901B1FBF3F10B4A2039204602EA98
S214015A80C10201211BF093FCA262BDE838401BF065
S214015A908EBC0623ECE71023EAE70823E8E7042395
S214015AA0E6E700BF0000035AF8FF7F00F8B5436839
S214015AB004460D4616461BB140F2FF711BF077FCFB
S214015AC02046FFF79FFFE9896B7B22690B43298AF2
S214015AD022F44C520B4322F0030213432361A268C3
S214015AE02B7B297E22F0804222F0E2020B431343F5
S214015AF06A69AF681343A3601FB9A36843F0004304
S214015B00A360EB69002B57D0987A1A7A4004A168F3
S214015B1040EA82503E4A0A4010439A8802F4C04244
S214015B2010435A7840EA82005A7B40EAC2009A7BC8
S214015B3040EA02109A7840EA8220A060E168D3E940
S214015B40042021F4D81121F4C06102430A43997953
S214015B5042EA8122D97942EA4122E2601A78012A90
S214015B6005D1E26842F00402E2602A4A06E0032A0E
S214015B703DD1E26842F00402E260274A0121C2F800
S214015B80C0105A7A04F580510A621AB1E26842F4EA
S214015B900062E260DA7A4AB1E268204942F40042E1
S214015BA0E2601A7B02F00F02C1F88020E269DB7B1B
S214015BB022F003021343E36136B196F8203004F570
S214015BC08051C3B101238B61052120461BF010FCD7
S214015BD01FB13A466968FFF72FFF204629781BF068
S214015BE024FC236CDB4313F4405FFAD1F8BD023A80
S214015BF0012AC2D9B9E7626996F8223096F82100DF
S214015C0022F009020343134343F001034B61DBE730
S214015C10E39BBDFF00E4035000D403500090035003
S214015C20072A2DE9F041154698464FF0030401F086
S214015C3003072DD89600B44000FA06F221461C4808
S214015C401BF002FC21461B4807FA06F21BF0FCFB80
S214015C50194B1A499DF81800B8F1000F18BF1946DC
S214015C60012303FA05F50D60154B1649002818BFE8
S214015C700B461D60144B9DF81C00C3F820541031D0
S214015C8003F22443002818BF0B461D60BDE8F081CF
S214015C90A2F10806B600B44000FA06F221460B4807
S214015CA01BF0D2FB21460A4807FA06F2CEE700BFF0
S214015CB000C4035008C4035010D4035010E403502A
S214015CC014E4035014D4035000E0035004C40350FA
S214015CD00CC40350F8B504460D461F4616464AB195
S214015CE001238B403021184A01FB0022F7B141F213
S214015CF01001535004EB4403072D4FF00F014FEAF8
S214015D00031316D8A80006FA00F281400F4818447B
S214015D101BF09AFB4EB9012330210B4AAB4001FB25
S214015D20042277B141F210015350F8BD42F210013E
S214015D30DFE7A5F10800800006FA00F2814004487A
S214015D40E5E742F21001EFE700C0035004C003503C
S214015D500CC0035010B50C4B0C4C0D4A0140C4F856
S214015D603004C3F83014C3F82C04D36E03F03003A8
S214015D70202B1FBFD36E23F0300343F01003D366EE
S214015D80C4F8200410BD00BF00D0035000E003504B
S214015D900040005038B514461D46032283F0010327
S214015DA0FFF798FF012004F11001884005FA01F180
S214015DB0FFF7D0FF9DF81010034B044A002918BFC7
S214015DC01346186038BD00BF24E4035024D40350A2
S214015DD04FF400120B4B10B5C3F88020BFF34F8F62
S214015DE0BFF36F8F0024FF22074B21465C652020FE
S214015DF09A625C60FFF718F92146BDE81040212041
S214015E00FFF712B900E100E000000450044A054B18
S214015E10002908BF1346012282401A60704700BF5E
S214015E20401004504020045010B5012104462020A3
S214015E30FFF7FAF801212120FFF7F6F80122114BAE
S214015E405A60227812069A606178A27842EA014284
S214015E509A61FF229A6200229A631A644FF0004206
S214015E605A654FF0FF324FF4001103F500531A65DF
S214015E70054AC2F88011E3781B01DBB282F81533BC
S214015E80116010BD0000045000E100E0F8B50125E6
S214015E90C3B2DFF888C0D1F800E09D408F7ACB7A94
S214015EA00C46097BCCF850500CF5005C4CF820E011
S214015EB04FF0300E174E1B050EFB006094F80DC018
S214015EC043EA074343EA415322F00302C0F860C0A5
S214015ED0C36502671BF059FA736D227A2B4373650B
S214015EE00D4B02B11D64627A02B19D632279A379DA
S214015EF043EA0243094A93616179E37943EA01433C
S214015F0005498B61034B55639D64BDE8F8401BF062
S214015F1042BA00BF00000450001004500020045094
S214015F2010B50124C0B284401BF02FFA044B5A6D01
S214015F3022EA04025A659C62BDE810401BF02BBAA7
S214015F400000045010B50124C0B284401BF01DFAB5
S214015F50074BDA6A224208D15B6B9C430CBF0124D3
S214015F6000241BF018FA204610BD0024F9E700BFF4
S214015F70000004504FF40032054B9A6641F6713228
S214015F8003F51C33DA63012203F50053DA60704728
S214015F900090005041F671320121064BDA6303F599
S214015FA00052D1600022DA634FF40032A3F51833B1
S214015FB09A66704700000350CB784A7810B55B01AB
S214015FC00C7843EA82030A79234343EA02130C223C
S214015FD0424302F1B0421363012C02BF8A78024B9E
S214015FE043F8202010BD00BFE880035008B54FF0ED
S214015FF0B0435A686AB958B15B680BB11BF034FA02
S21401600001210D4B59601BF02FFA4FF0B043D960B8
S21401601008BD5B680BB11BF027FA0028F0D11BF016
S21401602023FA4FF0B0430222DA601BF01DFA012278
S214016030024B5A60ECE700BF0010005800200058E1
S2140160404FF0B0414B6810B50BB11BF00DFA0122B1
S2140160500B4BC4785A608378934043EA84034478B0
S2140160602343047943EA0413447943EAC4038B6067
S214016070044B5A600378C3F10203CB6010BD00BF26
S21401608000200058001000584FF48032064B5A6624
S21401609003F5E6235B69C3F38512827003F03F02C2
S2140160A01B0B42700370704700900050014B986CB8
S2140160B0D96C70470080E00F024B1868C0F30740A8
S2140160C0704700BF0080E00F0120034B9B680A3336
S2140160D003F01F03984070470080E00F012200F58F
S2140160E080535A6040F6AA6341F2050243610023D9
S2140160F00B498360C365C26000F500520361C3614A
S214016100C364916407498365884203D1036500230C
S214016110436502E004498842F8D001235360704782
S214016120FFFF010000C005500000065038B50D46BF
S214016130FFF7D4FF012300F5805253602B8A816854
S21401614043F001030B43A97B044643EA81238360A2
S2140161508368297D43EA41738360AB7C4BB11C495C
S214016160EB7C88422BD1A1F51031C1F88C3180230C
S214016170D3652B7B2046D5E9011243F48053E360B7
S2140161801BF07AF96B7B0BB1102363616B7D1BB13E
S214016190A36843F48033A360AB7D1BB1A36843F4CB
S2140161A00043A360EB7D2A7E1B07120503F0E04344
S2140161B002F4E0021343A3652B78636138BD0549F9
S2140161C0884204BFA1F52031C1F89C31CFE700BF5A
S2140161D000C005500000065038B50446054D25F0B0
S2140161E06EFD0FCC0FC594E8030085E80300002080
S2140161F038BD00BFC41D002047F6FF739A42F0B5B4
S2140162006FD002296FD8394B5B5C012B6BD8384DA8
S214016210DF0005EBC30415F83330A178012B13D149
S2140162200025E078401AA84202D80844C0B2F0BD62
S214016230431B6668A0EB530336F913609642D4BF3E
S2140162401D4603F1FF30EEE760680028EFD0B0F995
S2140162500040944204DBB0F902409442B8BF1446B1
S21401626083883D44FF2B19BFC8224FF0280CB0F994
S2140162700620B0F908C0A2EB04030CBF01260026D5
S21401628093FBFCF333446E781BB29E4201DD002B78
S21401629001DA731E1BB24FF47A7C01339BB2071DE1
S2140162A05D1E2DB24FEAC50E00EBC505EA88AD6846
S2140162B09E4214FB025222EAE27202F15C02B2FB37
S2140162C0FCF204DD37F8335001339542E8D200EB97
S2140162D00E039888904228BF1046884238BF084669
S2140162E0A4E7FF20A3E70020A1E700BFB1DF03007A
S2140162F0C41D00200229F0B555D82C4B585C012846
S21401630051D82B4C04EBC00114F830004B6801281F
S2140163100FD1C8788C78904294BFC4EB0001C4EBCF
S2140163200201001BCAB28242C8BF002233F9120022
S214016330F0BD002B37D08878904202D3B3F9020023
S214016340F6E7CC78B3F900009442F1D94C789988F5
S214016350013CA1F1FF06714203F10405E4B271416B
S21401636003F10C07CEB2B44216D805EBC1014FF4C7
S2140163707A756A43B1F902404968521A04EBD4713E
S21401638002EB610292FBF4F29042D1DBB3F9020018
S2140163909042CDDC10B2CBE737F831C04E1C9445A5
S2140163A0E3D33146DEE70348C2E700BFB1DF0300AF
S2140163B0C41D00200080FFFF08B50448FFF70CFF4E
S2140163C0BDE80840012025F07EBC00BFB4DF030015
S2140163D0004870470A0D00201B0603F0706300F0AA
S2140163E00F000902034301F47061120402F47022E3
S2140163F00B431343014A1360704700BF0020025C41
S21401640060B5054619B10139B1F5806F0FD2094E55
S214016410F06810F48030FBD143EA012312072B43C6
S21401642002F08052134343F00043736060BD0120C5
S214016430FCE700BF0020025C0122054B9A60DA6887
S214016440D203FCD4D86820F00F000004000C70477B
S2140164500020025C014B1868704700BF0040025CD8
S214016460014B5868704700BF0010025C014B186B67
S214016470704700BF0010025C014B1868704700BFF0
S2140164800010025C014B9860704700BF0010025C70
S214016490014B1864704700BF0010025C014B586442
S2140164A0704700BF0010025C014B5863704700BF85
S2140164B00010025C0022014B1A6070470010025C5B
S2140164C0024A136843F00103136070470010025C30
S2140164D0024A136823F00103136070470010025C40
S2140164E043F20402014B1A60704700BF0010025CC1
S2140164F0024A136843F03003136070470010025CD1
S214016500044B1A6842F480721A601A6822F4807288
S2140165101A6070470010025C024A136843F48063F5
S214016520136070470010025C034A136823F470235B
S21401653043EA0043136070470010025C044B1A697B
S21401654002605A6942609A698260DB69C36070477B
S2140165500010025C0268044B1A6142685A61826844
S2140165609A61C268DA6170470010025C024B1A6BCE
S214016570D207FCD4186270470010025C0322024B5B
S214016580186019615A6370470000025C82B01FB53B
S21401659007930A9B04AC8B4228BF0B4604E907000D
S2140165A01048D100079948BF03330160099948BFD5
S2140165B023F0030323F0704301F0E041194341F057
S2140165C000518160002102F0E042019C1A4342F032
S2140165D00052C16004618261416304B0BDE81040AD
S2140165E002B070470000025C3F22034B1A63102280
S2140165F0DA6103229A6370470000025C024AD36B99
S2140166009B07FCD4704700BF0000025C044B9B6AEA
S21401661013F0240F14BF012000208000704700BF34
S2140166200000025C08B5FFF7F1FF064BDB6B23F4B5
S2140166307F4323F0EF0303431EBF0122024BC3F83F
S214016640FC2F08BD0000025C00F0FF3F4368182BDA
S2140166500AD0202B1DD0102B2BD1174BD3F8043486
S214016660DB010AD401207047134BD3F804349A0196
S214016670F8D50B6843F008030B6003680F4A934292
S21401668010D10B6843F040030B60002343600020E9
S2140166907047094BD3F804345B01E3D50B6843F02C
S2140166A00403E9E7064A9342F1D10B6843F08003FD
S2140166B0EAE70720704700BF0000025C422B00207B
S2140166C0412B00200B4607B50749D1F80414C9072A
S2140166D008D5002100920246084600F05BF803B098
S2140166E05DF804FB0120FAE70000025C1346064A47
S2140166F0D2F80424D20504D50A46014600201BF030
S214016700D7B80120704700BF0000025C13B5084CE3
S214016710D4F80444E40508D5009313460A46014616
S214016720002000F061F802B010BD0120FBE700BFB9
S2140167300000025C13B5084CD4F80444E40508D5FF
S214016740009313460A460146002000F071F802B095
S21401675010BD0120FBE700BF0000025C70B50446D7
S2140167600D4616468CB00A4A09AB07CA83E80700ED
S2140167701A462146CDE90563CDE90333CDE9013358
S21401678000954FF480301AF0BFFF0CB070BD00BF0B
S21401679038E00300F0B51C465B6815468DB01A0755
S2140167A0129E1AD1CBB17268934216D10C4B0D4A88
S2140167B053F8217009AB07CA83E807001A46294631
S2140167C0CDE90533CDE90333CDE90163009447F400
S2140167D080701AF099FF0DB0F0BD0720FBE700BFEF
S2140167E044E0030038E00300F0B516465A688DB061
S2140167F0102A0D46129F15D17A68102A12D10A4A1C
S21401680009AC07CA84E8070022462946CDE90547B0
S214016810CDE90344CDE90144044800961AF074FF1B
S2140168200DB0F0BD0720FBE738E0030030000100A3
S214016830F0B516465A688DB0102A0D46129F15D12E
S2140168407A68102A12D10A4A09AC07CA84E80700F6
S21401685022462946CDE90574CDE90344CDE9014434
S214016860044800961AF050FF0DB0F0BD0720FBE774
S21401687038E003001000010082B070B586B0149DA8
S21401688003AE202D86E807000B9359D805EB850348
S2140168908B4203D006236B438B4253D10C9BAB42F6
S2140168A050D10F9BB3EB450F4CD1129A934249D16D
S2140168B0012229462220159BFFF7A2FD044630BB84
S2140168C0034606220E210C20FFF786FD0123CDE9A3
S2140168D000332B4696E807001AF0A9FE0E230BAAF2
S2140168E0009307CA2B461AF0EDFD0C23164C0093B5
S2140168F00EAA2B4607CA1AF015FE636823F07F031B
S21401690043F026036360FFF797FD30B10624204667
S21401691006B0BDE8704002B07047636823F07F039D
S21401692043F022036360FFF787FD04460028EDD19C
S214016930062311AA009307CA2B461AF026FEE6E79D
S2140169400124E4E70724E2E70020025C70B598B072
S214016950002843D02C4C08AD0FCC0FC50FCC0FC56B
S2140169600FCC0FC594E80F0085E80F006D4604AE06
S21401697004F1100320340FCB85E80F0094E80F00D4
S21401698086E80F00FFF7BCFD0420FFF7CDFDFFF7FB
S214016990A7FD3046FFF7DEFD002408AE56F8040BCF
S2140169A00134FFF7E3FD102CF8D1FFF759FD03285A
S2140169B0FBD90024FFF77EFD2646FFF74BFD55F871
S2140169C0043B01365840042E44EA0004F5D12CB1AC
S2140169D0012206200D4B1A7018B070BDFFF790FD0E
S2140169E00820FFF74FFD0020FFF752FD0720FFF7B5
S2140169F055FD4FF40070FFF757FD0820FFF794FD93
S214016A00FFF75EFD0020E7E720E10300442B0020AE
S214016A1008B5FFF775FD0122014B1A7008BD00BFCE
S214016A20432B00201FB51BF0C2F8044630B10122EB
S214016A3006240D4B1A70204604B010BDFFF70AFD60
S214016A400090FFF707FD0190FFF704FD0290FFF7A6
S214016A5001FD03906846FFF77DFDFFF7D9FFFFF7BD
S214016A6047FDFFF759FDE6E7442B002006289ABFAD
S214016A70014B185C0020704780E1030030B5154BD0
S214016A8087B00293144B0390049346F611030D4608
S214016A90059300F077F91428044616D168461BF0D2
S214016AA030F94FF0A843032202A95A6319601D6109
S214016AB09A63DA6B9207FCD1142C02D168461BF05C
S214016AC02EF900F093F9044601E00028E9D02046AB
S214016AD007B030BDDC1D0020040000202DE9F04F7A
S214016AE0B1B005468C469E46E8466F4EDDF8EC9002
S214016AF0409C06F1100A474630687168083603C79D
S214016B005645B846F7D13E9B03EB0208C8F1000A8A
S214016B100AF00F0AB9F1000F00F09D80C9F10007D5
S214016B2007F00F070121DDF8FCB044F00050C4F176
S214016B301006CDF810B005910690300200F4F8501A
S214016B4040F021000790B9F1000F40F08680CDF8A3
S214016B5020D047F00050002D00F0848009912121BB
S214016B600A9041EA07210B9142F00050CDF830C05F
S214016B703D9B08A94FEA0A2C0D910E904CF041005E
S214016B800F901093002A75D13E9B119143F000534C
S214016B9012933C9B1390149310AB1593434B444AAA
S214016BA0169340F611031793424B0021002D08BFA0
S214016BB01346189314AB19933F4B10221A931123C3
S214016BC01B931CAB184625F01CFD01221D920022CA
S214016BD046F0804603461E96239205B9EB46102CD6
S214016BE0CDF880B024AE4BD1012322460021304699
S214016BF02193229425F005FD20AB002125938F4299
S214016C0018BF334647F0804226923A9A2CA828921B
S214016C102993B2FA82F35B0949EA837310222B9116
S214016C202A9325F0EEFCB9F1000F00D028AED0442F
S214016C3048F080432CA918A82D962E93FFF71EFF27
S214016C4030B92DB90346A34225D1002818BF2C2000
S214016C5031B0BDE8F08F102764E7CDF820E049F0A9
S214016C60005078E7002C3FF479AF04A9099101217F
S214016C700A9076E73E9B0CAA11924120129388E770
S214016C801022002130462193229425F0BAFC002CD4
S214016C90B2D10123B1E703F1C0026A4412F8C02C55
S214016CA001331043CFE700BF87E103001000002047
S214016CB09CE10300A0E1030004000020F0B5C02918
S214016CC09FB0DDE9244557D0B1F5807F04D08029F7
S214016CD048D029201FB0F0BD01265CB140F23447F0
S214016CE00294102403960494212401970594069592
S214016CF002AC0AE040F2144702941024039604946E
S214016D002124059401240197069507940125102452
S214016D10089409950A9221220B950C940D92174A14
S214016D200AAD0E92164A0F95109242F61102119272
S214016D30129313951494159201AA1692D3B112AB1D
S214016D401793042318931123199316AB1A901B93C8
S214016D5040F61103C9081C911AA806A91D93FFF74E
S214016D608DFEB7E7012614B94FF48267C4E74FF4E6
S214016D708667B5E70EABE3E70F20ABE798E10300C4
S214016D801000001038B5164B5A6E42F004025A66CF
S214016D90D3F8802242F00102C3F88022114B5B68CF
S214016DA0C3F3080343B14FF0A842D36B13F0430F6C
S214016DB0FBD11424204638BD4FF0A843DC6B14F0F9
S214016DC04304FBD1084D2B681BB90421284602F069
S214016DD0EBFE2B68013343F000432B60EAE700BF6C
S214016DE00080005000ED00E0DC1D0020014B00207B
S214016DF05B68704700ED00E04FF40052034B002043
S214016E009A660322C3F86022704700BF00900050C4
S214016E104FF40052034B00209A660322C3F8602207
S214016E20704700BF00A00050012300F01F02A0F52C
S214016E3006200949A0F550604009934051F82020EA
S214016E401A4341F82020054951F8202022EA03027E
S214016E5041F82020704700BFF41D0020E01D0020EF
S214016E600121A0F506230E4AA3F550635B0900F045
S214016E701F00814052F82300014342F823100949BC
S214016E80D1E90030034488680344C86809690344AB
S214016E905B1802BFC2E90033C2E9023313617047CF
S214016EA0E01D0020F41D00202DE9F04FA9B003924B
S214016EB01D4604460822339ECDE90401414021FACD
S214016EC002F34B40980702F1080218BF9B00202AE4
S214016ED01C44F4D18123B4FBF3F303EBC313E41A8C
S214016EE0734B04F506241B7804F55064002B3ED141
S214016EF0FDF7A4FE074620B16FF0910029B0BDE86A
S214016F00F08F0146402208A825F07BFB4022394637
S214016F1018A825F076FBDFF8B481DFF8B491C346F4
S214016F200BF10F0ACDF800A0102208A95B46D9F88C
S214016F30000024F053FC0022014608F1100808AFB7
S214016F40914246D1CDF800A05B461022D9F8000048
S214016F5018A924F04CFC4FF0000A834618AFD3451D
S214016F6041D1544B9845DAD10122514B1A704FF05A
S214016F70810A4FF00008DFF85CB1A4F50627A7F5F3
S214016F8050635B095BF8232004F01F01CA40D20757
S214016F903DD4494A52F82330CB40DB072AD5B8F115
S214016FA0000F08BFA0468123A7F6FF47B7FBF3F300
S214016FB003EBC313FF1A07F50624BAF1010A04F519
S214016FC05064DAD1039BBBB1B8F1000F14D044462C
S214016FD019E057F8040BCDE90612FFF725FF079ACB
S214016FE006990132ACE757F8040BFFF739FF0AF1AF
S214016FF0010AB4E7039B13B96FF08B007EE7B8F183
S214017000000F18BF4446349B00201C6076E7329B75
S21401701013B10023329A13600EB10023336010239C
S214017020DFF8AC9000932A4600232146D9F80000E9
S21401703011F010FB60BB32992A68204BC9B99A42FD
S21401704006D02146D9F8000011F09CFB0028D3D1C8
S214017050D5E90223DDE90410834208BF8A42A2D1A2
S214017060039B002BCFD06B68012BCCD16FF0840033
S21401707044E7102032999A420860E2D1002EE7D008
S21401708033462146D9F8000018AA11F037FB48B15B
S2140170900B4B9842D5D00B4B9842D2D00A4B984214
S2140170A0D6D029E7329A336812689B1A3360CFE745
S2140170B0452B002000710800E01D0020105D175EC2
S2140170C0FFDF00F011E000F0FEDF00F0006D0800C9
S2140170D0140B0020F41D00202DE9F04F87B08246E6
S2140170E0894698461646DDF840B02AB1002B4FD0A7
S2140170F040F26C739A424ED8BBF1010F4ED8002471
S21401710006F110073946012005941BF051F9054692
S214017110002846D021463A4625F073FA05ABCDE95C
S214017120014300942B46012250464946FFF7BCFE18
S214017130044680B110F18C0F08BF6FF08D043A46FB
S2140171400021284625F05DFA28461BF041F9204625
S21401715007B0BDE8F08F144BC5E902A92B60C5F84E
S21401716004B02EB13246414605F1100025F054FA1E
S214017170059E0E483B462A463146006811F0D2F974
S21401718018B93046FFF750FED9E76FF09104D6E7FD
S2140171906FF08604DBE76FF09104D8E76FF08504A3
S2140171A0D5E76FF08C04D2E7105D175E140B002054
S2140171B02DE9F0438DB08146DDE914780E4615467B
S2140171C01C469BB1B8F1000F05D16FF0860630461C
S2140171D00DB0BDE8F083002FF7D0B7F1005FF4D310
S2140171E0C3F1005303F500439F42EED8102200215D
S2140171F008A825F006FA002207AB029305AB019317
S21401720006AB31460093484608ABCDE90522FFF7A9
S2140172104BFE06460028DAD1059BA4B1AB4215D831
S21401722053EA0504D1D1069B0B48C8F800400094E8
S2140172303A46079900682B4411F00CFA002818BF4B
S2140172406FF09106C3E7AB42EDD2BEE75B1B9C42F3
S21401725028BF1C46E7E700BF140B002030B58DB0F1
S2140172600C4605461022002108A825F0CAF900227E
S21401727007AB029305AB019306AB21460093284664
S21401728008ABCDE90522FFF70FFE0446D8B9099BE6
S214017290012B1BD0079D104B2946186811F072FA76
S2140172A0B8B90122A5F506230C49A3F550635B097D
S2140172B005F01F00824051F823004240284641F85D
S2140172C02320FFF7CDFD20460DB030BD6FF08404BE
S2140172D0F9E76FF09104F6E7140B0020F41D002087
S2140172E02DE9F04F89B007460E46FFF7C5F8C007EF
S2140172F009D4042401201AF067FC80B3013CF9D1BB
S2140173006FF0920028E0102200210DEB020025F01C
S21401731078F904A8FFF712F9049B002BE9D0059B26
S214017320002BE6D0069B002BE3D0079B002BE0D07A
S2140173300025DFF8808008F10409B54219D34FF41F
S2140173408A74FFF793F800F00E03062B2DD1C305C0
S21401735001D5FFF7BDF8002009B0BDE8F08FFFF7B3
S21401736085F810F00E03FAD0022BF8D04105DFD5D0
S214017370C4E7FFF775F8A6EB050A8400544528BF55
S214017380544699E8030000238DE80300CDE9054340
S21401739007EB050BCDF810B0029404AAD8F800301C
S2140173A007CA1AF00AFB2544C7E724FA03F3DA07EB
S2140173B0A6D5C6E7ACE103001FB504A800E90E0098
S2140173C011460198FFF78CFF70B1FFF721FBBFF361
S2140173D04F8F0749074BCA6802F4E0621343CB603C
S2140173E0BFF34F8F00BFFDE705B05DF804FB00BF9C
S2140173F000ED00E00400FA052DE9F0438BB01746D6
S214017400DDE91545DDE913269C46DDE91738894691
S21401741021B96FF086000BB0BDE8F083002FF8D0DD
S2140174200EB9002CF5D1129909B9002AF1D10DB97E
S214017430002BEED1B8F1000FEBD0244A944541D190
S2140174400288B2F5105F3DD14288B7EBD20FE0D388
S21401745022F04001802902D0B2F5807FD9D16CB3E9
S214017460AE421CD23219954219D29C42D1D831462D
S2140174702246284625F0ABF82E4614F00F03C8D155
S214017480CDE90197CDE90336CDE90543CDE90754AA
S2140174900993FFF7B1FC38B16FF09200BBE79C424D
S2140174A0EBD96FF08900B6E707AA04A901A8FFF790
S2140174B009F90546FFF7ACFC0543EDD10020C8F8F5
S2140174C00040A8E76FF08500A5E700BF0044400430
S2140174D02DE9F04FA9B0834617469A460E46DDF8C9
S2140174E0C890DDF8D88029B96FF08603184629B010
S2140174F0BDE8F08F002AF7D0B9F1000FF4D0349B25
S214017500002BF1D0B8F1000FEED00024424B0CADA9
S21401751093E8070085E807003C22214619A818943D
S21401752025F06FF83388728803F4E040B0F5804F99
S214017530DAD03A4E3A480BEA060646F0106686421C
S21401754063D1B2F5807F60D147F2121293425CD1CB
S2140175500620344ABAF11F0FD3680E940B931369B1
S214017560126800FB03F3CDE90C23BDD9339B402BF6
S214017570BAD9359B1F2B4BD909F10102202612924D
S214017580402299F800300F97042B18AFCDE9132449
S214017590CDE91572109611941794A5D1FFF72CFC1E
S2140175A003460028A2D10B9B15AACDE9086305ABBB
S2140175B007CA83E8070002AB12AA07CA83E80700D6
S2140175C0DDE910018DE803000F9B95E80700FFF742
S2140175D053F90546FFF71CFC55EA000384D13D46E6
S2140175E0349A20AE2C4603CCB44210605160254636
S2140175F002F10802F6D100221146B9540132402A9E
S214017600FBD12022C8F8002070E76FF085036DE7F4
S2140176106FF089036AE700BF38E003000000FFF659
S214017620000002094CE00300F0B50E461D468BB083
S214017630002853D0002951D0002A4FD0002B4DD01E
S214017640048804F44F43B3F5824F03D06FF08500EE
S2140176500BB0F0BDE3B224F0FF04B4F5E24FB0F88E
S21401766002C0F3D1122B01D0172BEFD10CF1070179
S214017670B2EBD10F4FEAD10733D31D4A04ACBCF5A8
S214017680807F07CA84E80700E0D1122B07D1194B87
S2140176901A691B681344CDE90432002306930023BC
S2140176A0CDE907670993FFF7A7FB0028D0D1124A57
S2140176B002AB92E8030083E803000AAB13E9030078
S2140176C08DE80300079B94E807001AF0FBF80446D0
S2140176D0FFF79EFB204307D12F60B9E76FF08600C6
S2140176E0B6E76FF08900B3E76FF09200B0E700BF2E
S2140176F038E003004CE00300A4E103002DE9F04369
S2140177008FB01D46DDE916C600285CD000295AD088
S214017710002A58D0002B56D0BCF1000F53D0002EB3
S21401772051D0038803F44F44B4F5824F51D1DCB2F3
S21401773023F0FF03B3F5824F40884AD0122C01D0C4
S214017740172C46D1C31DB2EBD30F4FEAD3083AD359
S2140177504FEA4802571C674538D8B0F5807F38D1C4
S214017760122C18BF4FF000094FF0000308BF1C4C45
S214017770CDE9081805F1010114BF4C46D4F80C9068
S214017780CDE90B120A930D93FFF736FBC0B9CDE98D
S214017790058902AB08AA07CA83E807000EAB13E9FE
S2140177A003008DE803000B9B94E807001AF0A9F884
S2140177B00446FFF72DFB20430ED104232B703760C0
S2140177C00FB0BDE8F0836FF08600F9E76FF089002F
S2140177D0F6E76FF08500F3E76FF09200F0E700BF81
S2140177E04CE003002DE9F04389B00E4615461F46CE
S2140177F0DDF8488020B96FF0860009B0BDE8F08357
S2140178000029F8D0002AF6D0B8F1000FF3D003888B
S21401781003F44F42B2F5824F02D06FF08500ECE7D9
S214017820DAB2122A01D0172AF7D123F0FF03B3F5F3
S214017830E24F41D14488C8F8004044B9EB00B3F5A3
S214017840807FC8F80030E8D1122A0DD108E0E31D88
S214017850B5EBD30FCFD1B4F5807FDED1122A29D173
S214017860354B1C681B691C440023194670192C44AF
S21401787014F801CD10F8012D1143B2EB0C020CBF28
S2140178804FF0FF3C4FF0000C86420CEA030343EA3C
S2140178900203EDD10029AED0002BACDA109B9D423D
S2140178A046D82A463146384624F0B6FE119B0020BB
S2140178B01D60A2E70024D7E73378042B9BD16B1E0B
S2140178C0DB005B08B3F5807FC8F80030A5D1122A2B
