:020000021000EC
:10200000C00A00207D420100AB250300AB25030080
:102010005F380300AB250300AB250300AB250300AD
:10202000AB250300AB250300AB250300AB25030064
:10203000AB25030088E60300F9230300AB2503006A
:10204000AB250300AB250300AB250300AB25030044
:10205000AB250300AB250300AB250300AB25030034
:10206000AB250300AB250300AB250300AB25030024
:1020700025950100AB250300AB250300AB2503002C
:10208000AB250300AB250300AB250300AB25030004
:10209000AB250300554A0100AB250300AB25030027
:1020A000AB250300254C0100014C0100AB250300CA
:1020B000AB2503008DFB0200AB250300D505030013
:1020C00057CF030053CF0300C5FD020063CF0300C9
:1020D0005BCF0300AD0503005FCF030015060300CF
:1020E000A5DF020069E1020085060300AB250300BD
:1020F000AB250300AB250300AB250300AB25030094
:10210000AB250300AB250300AB250300AB25030083
:10211000AB250300AB250300AB250300AB25030073
:10212000AB250300AB250300AB250300AB25030063
:10213000AB250300AB250300A93A0100C524030029
:10214000002370B5404C05468AB0E36318B100889F
:1021500023600DF085FF3D482AF05FFA3C4E3D4B71
:10216000304633603C4B736025F063FF00213046FE
:1021700017F0E6FE32A3D3E90023A062C4E90623E8
:1021800025F062FFD4E9062319431043C4E9060190
:10219000CDE900014FF0FF334FF0FF32A06A2AF083
:1021A000B7FA02224FF0FF31A06A2AF0B6FA0120F6
:1021B0000DF0D6FC4FF4007300222849A06A2AF0E3
:1021C000FFFAB0F5007F38D100239422CDE9073320
:1021D00009933C23CDE9033205939623A06A03A912
:1021E000069317F0CBFF35B3287C0EF0E7F80546D1
:1021F000F0B9A06A2AF0C2FB0EF08EF80DF092FC46
:1022000020B14FF4807000210AF09AFB0DF09AFC87
:1022100020B14FF4006000210AF092FB25F0DFFFAF
:10222000012017F0E1FE0E4A0E49A06A25F0FFFEDC
:1022300028460AB070BDFF20D7E70725F8E700BFA2
:102240000DD5015520000000880F0020690345ECE2
:1022500024240020E5F90100342400202422002059
:10226000D77F03001780030010B5054C237833B9DE
:10227000044B13B1044800E000BF0123237010BDDC
:10228000E811002000000000E431040008B5034B11
:102290001BB10349034800E000BF08BD0000000077
:1022A000EC110020E4310400A3F5803A704700BF30
:1022B000174B002B08BF134B9D46FFF7F5FF00217E
:1022C0008B460F461348144A121A2AF097FE0E4BFB
:1022D000002B00D098470D4B002B00D098470020D2
:1022E000002104000D000D48002802D00C4800E039
:1022F00000BF1EF0F7FB2000290020F071F81EF04F
:10230000DDFB00BF0000080000000000000000002E
:10231000C00A0020180F0020082C00200000000038
:102320000000000070B504460D4621B94FF4167147
:10233000084800F0ABF80E46062056F8043F33B9C3
:1023400006288ABFA3682B681B68636070BD20469F
:102350009847F2E740DC030038B5036804462BB128
:1023600083681BB145680B4A954203D0C8210A48CF
:1023700000F08CF89847082801D0D221F7E7A3682D
:102380001B6863602046A168FFF7CCFF0728F9D8D7
:1023900038BD00BF48DC030040DC0300F0B5044654
:1023A0000F46456887B001B125B94FF496713148A1
:1023B00000F06CF82E46394620467368984701288D
:1023C0003FD83668002EF6D107B0F0BDEB681BB1E0
:1023D00020460191984701992D6839E0906828B10D
:1023E00006A800EB830040F8102C0133126837E098
:1023F0005D1E6B1C13D13B696760C3B120469847D3
:1024000065682E4600270628DED9A168A760AE427F
:102410000FD12046FFF786FF65682E46F3E702AB33
:1024200053F8253020469B689847013DE1E7062098
:10243000E6E7EB681BB120460191984701992D68AA
:10244000E5E70628C0D90928DCD1A168676865607E
:10245000B542BBD12046FFF765FF3A4600236168CD
:102460008A4201D0032BB9DD042BC1DD40F22A31B1
:102470009DE700BF40DC0300024B0360024BC0E954
:10248000013170475CDC030048DC03000F4C07B5EA
:102490000F49206821F05DF80E49206821F059F8B5
:1024A0000D49206821F055F801F038FD20F064F85E
:1024B0000A4B0B4A0B49009320680E2321F049F880
:1024C000094A0A49206821F044F8FEE73C1300203D
:1024D000BEDE030068DC030077DC0300B1DC030030
:1024E0007CDC030089DC030095DC03009BDC03003B
:1024F000FF230374014B8360082070472CE0030026
:10250000014B8360082070474CE003000B68414A90
:1025100010B5934267D002F18072934207D0A2F1C6
:10252000FE72934273D100F06DFF022070E03A4BCF
:102530001B68DB7A032BF8D8DFE803F002192D4182
:10254000032001F0CBFC0028EFD0344C3449206844
:1025500020F0FFFF3349206820F0FBFF01F0DEFC94
:1025600020F00AF83049206820F0F3FFDDE703206F
:1025700001F0B4FC0028D8D0284C2949206820F06C
:10258000E8FF2849206820F0E4FF01F0C7FC1FF0B5
:10259000F3FF2649E7E7032001F0A0FC0028C4D0A0
:1025A0001E4C1F49206820F0D4FF1E49206820F0EF
:1025B000D0FF01F0B3FC1FF0DFFF1D49D3E703207C
:1025C00001F08CFC0028B0D0144C1549206820F094
:1025D000C0FF1449206820F0BCFF01F09FFC1FF0F1
:1025E000CBFF1449BFE7032001F078FC00289CD002
:1025F0000A4C0B49206820F0ACFF0A49206820F003
:10260000A8FF01F08BFC1FF0B7FF0B49ABE70020E0
:1026100010BD00BFA00006012C1200203C130020BA
:10262000BBDC0300C7DC0300CCDC0300D9DC030007
:102630000FDD030047DD03009CDD030037B50446D2
:102640000221007C10F0DCFEE06038B3394D3A49DD
:10265000286820F07EFF3949286820F07AFF384941
:10266000286820F076FF01F059FC1FF085FF354BFC
:10267000354A36490093286840F2251320F069FF57
:102680003349E368334A286820F063FFE06801F0CB
:102690009FFC3149286820F05CFFFEE7032001F031
:1026A0001DFC80B1234D2D49286820F052FF2C4994
:1026B000286820F04EFF01F031FC1FF05DFF294932
:1026C000286820F046FF28481FF0EBFF01F0ACFB24
:1026D0000021012010F054FFE06038B3154D164979
:1026E000286820F036FF1549286820F032FF144989
:1026F000286820F02EFF01F011FC1FF03DFF114B68
:10270000114A1249009328684FF4987320F021FF72
:102710000F49E3680F4A286820F01BFFE06801F0CA
:1027200057FC0D49286820F014FFFEE7042003B091
:1027300030BD00BF3C130020BEDE030068DC030098
:1027400077DC030094DF0300B3DD030089DC0300C2
:10275000CFDD0300C8DD0300E4DD0300BBDC0300C4
:10276000C7DC0300F5DD030060E5030037B505466F
:10277000032001F0B3FB80B1224C2349206820F0F4
:10278000E8FE2249206820F0E4FE01F0C7FB1FF0BC
:10279000F3FE1F49206820F0DCFE01F061FB1D4BB9
:1027A0001B68187B10F000FFE86038B3154C1A491D
:1027B000206820F0CEFE1949206820F0CAFE184992
:1027C000206820F0C6FE01F0A9FB1FF0D5FE154BD6
:1027D000154A16490093206840F2971320F0B9FE7D
:1027E0001349EB68134A206820F0B3FEE86801F053
:1027F000EFFB1149206820F0ACFEFEE7042003B097
:1028000030BD00BF3C130020BBDC0300C7DC03006D
:1028100006DE03002C120020BEDE030068DC03008D
:1028200077DC030075DF0300B3DD030089DC030000
:10283000CFDD0300C8DD0300E4DD030037B50B681E
:10284000764A044693425DD00BD802F17C42934213
:102850003CD002F14072934200F0C880002003B0E7
:1028600030BD6F4A9342F9D16E4B01211B68187934
:1028700010F0ACFEE060002800F0A1806A4D6B49CA
:10288000286820F066FE6A49286820F062FE6949DF
:10289000286820F05EFE01F041FB1FF06DFE664BE4
:1028A000664A6749009328684FF4E07320F051FEB0
:1028B0006449E368644A286820F04BFEE06801F050
:1028C00087FB6249286820F044FEFEE7032001F000
:1028D00005FB08B90220C2E7534C5D49206820F08F
:1028E00038FE5C49206820F034FE01F017FB1FF031
:1028F00043FE4C4B58491B682068D3F8052020F054
:1029000028FEE7E7474B1B68187910F0B1FDE0603F
:1029100038B3454D4549286820F01BFE44492868D6
:1029200020F017FE4349286820F013FE01F0F6FA64
:102930001FF022FE404B414A4149009328684FF462
:10294000D67320F006FE3F49E3683F4A286820F02E
:1029500000FEE06801F03CFB3C49286820F0F9FDEE
:10296000FEE7032001F0BAFA80B12F4D38492868FC
:1029700020F0EFFD3749286820F0EBFD01F0CEFA9A
:102980001FF0FAFD3549286820F0E3FD032001F02F
:10299000A5FA80B1244D2E49286820F0DAFD2D4992
:1029A000286820F0D6FD01F0B9FA1FF0E5FD2C49AA
:1029B000286820F0CEFD2B4B0720A3604FE70320B3
:1029C00001F08CFA002885D0174C2149206820F0AE
:1029D000C0FD2049206820F0BCFD01F09FFA1FF0E7
:1029E000CBFD2149206820F0B4FD73E7032001F0FE
:1029F00075FA80B10C4D1649286820F0AAFD1549DA
:102A0000286820F0A6FD01F089FA1FF0B5FD1749EE
:102A1000286820F09EFD164BCEE700BFA0000F04F3
:102A2000A0000F092C1200203C130020BEDE030082
:102A300068DC030077DC030058DF0300B3DD03002C
:102A400089DC0300CFDD0300C8DD0300E4DD030003
:102A5000BBDC0300C7DC030023DE03002EDE030023
:102A600042DE030020E003005ADE03007DDE0300A7
:102A700014E0030030B50A68A14B04469A4287B0BF
:102A800040F09881032001F029FAB0B19D4D9E4994
:102A9000286820F05EFD9D49286820F05AFD01F06D
:102AA0003DFA1FF069FD9A4B28681968CB888A881F
:102AB00009890091974920F04CFD032001F00EFA9E
:102AC00008B3904D9049286820F043FD8F4928684D
:102AD00020F03FFD01F022FA1FF04EFD637CE07D07
:102AE0000493A37C8C490393E37C8C4A0293237D5B
:102AF000002808BF0A460193637D8949009328682E
:102B0000A37D20F026FDA37D00212376637D08228E
:102B10006376237D1A20A376FF23E376FE232377B3
:102B2000E37C6377A37CA377637CE37704F11803EA
:102B300010F0E2FC0146E06030B3724D794928683C
:102B400020F007FD7849286820F003FD77492868C0
:102B500020F0FFFC01F0E2F91FF00EFD744B754A06
:102B6000754900932868922320F0F3FC7349E368C9
:102B7000734A286820F0EDFCE06801F029FA7149F9
:102B8000286820F0E6FCFEE72A2010F0F9FCE0605F
:102B900030B35C4D6349286820F0DBFC624928684B
:102BA00020F0D7FC6149286820F0D3FC01F0B6F989
:102BB0001FF0E2FC5E4B5F4A5F4900932868952353
:102BC00020F0C7FC5D49E3685D4A286820F0C1FC3D
:102BD000E06801F0FDF95B49286820F0BAFCFEE7E7
:102BE0004FF6FF73A021CDE9000305224FF4E173F6
:102BF000084610F019FCE06030B3424D494928689E
:102C000020F0A7FC4849286820F0A3FC4749286821
:102C100020F09FFC01F082F91FF0AEFC444B454AC6
:102C2000454900932868A52320F093FC4349E368B5
:102C3000434A286820F08DFCE06801F0C9F9414959
:102C4000286820F086FCFEE704F1100010F08AFBF3
:102C5000E06030B32B4D3349286820F07AFC3249CC
:102C6000286820F076FC3149286820F072FC01F0D9
:102C700055F91FF081FC2E4B2E4A2F4900932868EE
:102C8000A92320F066FC2D49E3682D4A286820F02E
:102C900060FCE06801F09CF92A49286820F059FCA2
:102CA000FEE70221207C10F097FB0346E06000283D
:102CB0004AD0144D1B49286820F04BFC1A4928685B
:102CC00020F047FC1949286820F043FC01F026F960
:102CD0001FF052FC164B174A174900932868AE2381
:102CE00020F037FC1549E368154A286820F031FCCC
:102CF000E06801F06DF91349286820F02AFCFEE72E
:102D0000A00001003C130020BBDC0300C7DC030073
:102D10002C120020A5DE030097DE030089DE0300ED
:102D2000C0DE0300BEDE030068DC030077DC0300C6
:102D3000ABDF0300B3DD030089DC0300CFDD03005C
:102D4000C8DD0300E4DD030000904FF416624FF489
:102D5000C861207C10F01EFBE06030B3164D1749AF
:102D6000286820F0F6FB1649286820F0F2FB154988
:102D7000286820F0EEFB01F0D1F81FF0FDFB124BAC
:102D8000124A134900932868B42320F0E2FB11494A
:102D9000E368114A286820F0DCFBE06801F018F9CC
:102DA0000E49286820F0D5FBFEE707200C4BA360F6
:102DB00007B030BD0020FBE73C130020BEDE03005F
:102DC00068DC030077DC0300ABDF0300B3DD030046
:102DD00089DC0300CFDD0300C8DD0300E4DD030070
:102DE00058E0030038B5404A0B680446934205D0CA
:102DF00002F1417293426AD0002038BD032001F0F5
:102E00006DF880B1394D3A49286820F0A2FB394964
:102E1000286820F09EFB01F081F81FF0ADFB3649D9
:102E2000286820F096FB354806F0BEF8E060D0B97F
:102E3000032001F053F880B12C4D2D49286820F073
:102E400088FB2C49286820F084FB01F067F81FF00C
:102E500093FB2B49286820F07CFB2A481FF05EFC7E
:102E60000022294B1A70294B03201B685B7BFF2B28
:102E700017D101F033F880B11C4D1D49286820F0AE
:102E800068FB1C49286820F064FB01F047F81FF03C
:102E900073FB1F49286820F05CFB1E4B0720A360D2
:102EA000ABE701F01BF880B1104D1149286820F004
:102EB00050FB1049286820F04CFB01F02FF81FF060
:102EC0005BFB1549286820F044FB144BE6E70F4BE9
:102ED0001B68DA79012A04D11B89012B01D100F08A
:102EE0001BF9022089E700BFA00006003C13002068
:102EF000BBDC0300C7DC0300F6DE03003012002059
:102F00000DDF0300A8E50300BC2A00202C120020DE
:102F100034DF030040E0030041DF030034E003003E
:102F20000149FFF7A9BA00BFF124010010B5074C11
:102F30002378772B06D806481FF0F3FB237801335C
:102F4000237010BD0122034B1A70FAE7BC2A00203F
:102F5000A8E50300BD2A0020064B10B51C682046DA
:102F6000FFF7DEFF002223682046BDE8104011462F
:102F70001B68184754DF0300494B37B51A78002AFD
:102F800000F08C8000210120197010F0F9FA05463C
:102F900030B3444C4449206820F0DBFA43492068B0
:102FA00020F0D7FA4249206820F0D3FA00F0B6FFAB
:102FB0001FF0E2FA3F4B404A0093404958232068F3
:102FC00020F0C7FA3E492B463E4A206820F0C1FA5D
:102FD000284600F0FDFF3C49206820F0BAFAFEE7E1
:102FE0003A4805F0E1FF044630B32E4D2E492868DB
:102FF00020F0AFFA2D49286820F0ABFA2C49286858
:1030000020F0A7FA00F08AFF1FF0B6FA294B2A4AEF
:1030100000932A495B23286820F09BFA284923461D
:10302000284A286820F095FA204600F0D1FF26496A
:10303000286820F08EFAFEE725481FF032FB254B6A
:1030400003201C7000F04AFF80B1164C2249206812
:1030500020F07FFA2149206820F07BFA00F05EFF23
:103060001FF08AFA1E49206820F073FA032000F04E
:1030700035FF98B10B4C1849206820F06AFA1749BF
:10308000206820F066FA00F049FF1FF075FA154934
:10309000206803B0BDE8304020F05BBA03B030BD1B
:1030A000BD2A00203C130020BEDE030068DC0300C4
:1030B00077DC0300FBE1030064E0030089DC03002C
:1030C000CFDD0300CCDD0300E4DD0300301200207F
:1030D00060E50300BC2A0020BBDC0300C7DC030062
:1030E0006DE0030096E00300084B0949186003688F
:1030F000002223F47F4323F007030B60E0234B718E
:10310000044B0A71186803685B6818472C1200208A
:103110002412002054DF030010B51D4B1B68B3F8C8
:1031200005300B2B09D00E2B1ED0022000F0D6FE4E
:1031300068B3184B1849186812E0032000F0CEFE5F
:1031400028B3144C1549206820F003FA144920686C
:1031500020F0FFF900F0E2FE1FF00EFA114920689E
:10316000BDE8104020F0F5B9032000F0B7FE70B1C3
:10317000084C0A49206820F0ECF90949206820F041
:10318000E8F900F0CBFE1FF0F7F90749E7E710BDBB
:103190002C1200203C130020EDE00300BBDC0300F8
:1031A000C7DC0300ACE00300CEE00300F0B587B05D
:1031B00004AE072200210B20009603AB10F06AF941
:1031C000044630B37D4D7E49286820F0C2F97D4920
:1031D000286820F0BEF97C49286820F0BAF900F090
:1031E0009DFE1FF0C9F9794B794A00937949C823AC
:1031F000286820F0AEF978492346784A286820F0FC
:10320000A8F9204600F0E4FE7549286820F0A1F9ED
:10321000FEE7744D2A68D37A502B22D0532B76D0F8
:103220008DF8110002208DF8103000F057FEB0B17B
:10323000624F6D49386820F08CF96C49386820F08D
:1032400088F900F06BFE1FF097F92A686849137B34
:10325000527B38680092324620F07BF9204607B056
:10326000F0BD117B527B01F118030DEB030111F846
:10327000083C032023F07F03134301F8083C00F0CF
:103280002DFE98B14D4C5B49206820F062F95A49F7
:10329000206820F05EF900F041FE1FF06DF92A6809
:1032A0005649537B127B206820F053F933460021A6
:1032B0000B20039A10F020F9054600284CD03F4C13
:1032C0003F49206820F045F93E49206820F041F947
:1032D0003D49206820F03DF900F020FE1FF04CF938
:1032E0003A4B3B4A00933B494FF48273206820F0ED
:1032F00030F939492B46394A206820F02AF9284606
:1033000000F066FE3649206820F023F9FEE7117BC5
:10331000527B01F118030DEB030111F8083C032067
:1033200003F07F0343EAC21301F8083C00F0D6FD26
:103330000028BBD0214C2F49206820F00AF92E49E3
:10334000206820F006F900F0E9FD1FF015F92A6861
:103350002B49537B127BA6E732460B20039910F0D2
:10336000F9F8054638B3154C1549206820F0F1F8F6
:103370001449206820F0EDF81349206820F0E9F89E
:1033800000F0CCFD1FF0F8F8104B114A00931149E2
:1033900040F20713206820F0DCF80F492B460F4A53
:1033A000206820F0D6F8284600F012FE0C4920686C
:1033B00020F0CFF8FEE7012051E700BF3C130020CA
:1033C000BEDE030068DC030077DC0300F0E10300ED
:1033D00064E0030089DC0300CFDD0300CCDD0300E3
:1033E000E4DD03002C1200202BE1030037E1030091
:1033F0003CE10300BBDC0300C7DC030019E1030070
:1034000022E1030037B5454C2168B1F805000B28CF
:1034100006D00E2867D103B0BDE83040FFF7C6BE26
:103420008A7A01F10B03098910F066F8054638B372
:103430003B4C3C49206820F08CF83B49206820F048
:1034400088F83A49206820F084F800F067FD1FF002
:1034500093F8374B374A009337494FF493732068FA
:1034600020F077F835492B46354A206820F071F86E
:10347000284600F0ADFD3349206820F06AF8FEE7E9
:103480002368997AB3F8050003F10B0210F062F893
:10349000054600283FD0224C2249206820F059F8E8
:1034A0002149206820F055F82049206820F051F883
:1034B00000F034FD1FF060F81D4B1E4A00931E49BA
:1034C0004FF49673206820F044F81C492B461C4AA0
:1034D000206820F03EF8284600F07AFD194920685F
:1034E00020F037F8FEE7022000F0F8FC98B10C4C11
:1034F0001549206820F02DF81449206820F029F89B
:1035000000F00CFD1FF038F81149206803B0BDE849
:10351000304020F01EB803B030BD00BF2C12002098
:103520003C130020BEDE030068DC030077DC0300F0
:10353000DEE1030064E0030089DC0300CFDD03006B
:10354000CCDD0300E4DD03002BE1030037E10300E1
:103550005BE10300012937B500F08980022900F002
:10356000A180002940F0BF80604B53F82050604B91
:103570009D4240F0B8802A2010F002F8044638B38B
:103580005C4D5D4928681FF0E4FF5C4928681FF026
:10359000E0FF5B4928681FF0DCFF00F0BFFC1EF075
:1035A000EBFF584B584A0093584940F25D13286886
:1035B0001FF0CFFF56492346564A28681FF0C9FF1F
:1035C000204600F005FD544928681FF0C2FFFEE7C1
:1035D00028461FF06FF823464FF4FA71CDE90044F6
:1035E0004E4A4F4805F000FE054638B3414C42496B
:1035F00020681FF0AEFF414920681FF0AAFF404934
:1036000020681FF0A6FF00F089FC1EF0B5FF3D4BBF
:103610003D4A00933D4940F26B1320681FF099FF2B
:103620003B492B463B4A20681FF093FF284600F099
:10363000CFFC394920681FF08CFFFEE7032000F023
:103640004DFC00284FD02B4C364920681FF081FFDD
:10365000354920681FF07DFF00F060FC1EF08CFFF4
:103660003249206803B0BDE830401FF072BF1F4BE5
:1036700053F820201E4B9A4235D10FF0BBFF032098
:1036800000F02CFC78B31B4C264920681FF061FF2A
:10369000254920681FF05DFF00F040FC1EF06CFF24
:1036A0002349DEE7114B53F82020114B9A421AD1DF
:1036B000032000F013FC80B10E4C1A4920681FF063
:1036C00048FF194920681FF044FF00F027FC1EF056
:1036D00053FF184920681FF03CFF002003B0BDE8ED
:1036E000304025F057BC03B030BD00BFCC0A0020ED
:1036F00060E503003C130020BEDE030068DC03002D
:1037000077DC0300CAE1030064E0030089DC030006
:10371000CFDD0300CCDD0300E4DD03002D2F01002D
:1037200030120020BBDC0300C7DC030087E103008C
:10373000A6E10300BCE1030030B503685A4A23F454
:103740007F4323F00703934289B040F0AA8005220B
:1037500000211820554B0FF0CFFE054630B3544CD6
:10376000544920681FF0F5FE534920681FF0F1FE10
:10377000524920681FF0EDFE00F0D0FB1EF0FCFE69
:103780004F4B504A00935049592320681FF0E1FEE7
:103790004E492B464E4A20681FF0DBFE284600F0BB
:1037A00017FC4C4920681FF0D4FEFEE70DF10F0115
:1037B00004A80FF02BFF044630B33D4D3D49286867
:1037C0001FF0C7FE3C4928681FF0C3FE3B4928682C
:1037D0001FF0BFFE00F0A2FB1EF0CEFE384B394AB0
:1037E00000933949642328681FF0B3FE3749234604
:1037F000374A28681FF0ADFE204600F0E9FB354946
:1038000028681FF0A6FEFEE79DF8153001468DF8EA
:1038100018309DF8143008228DF819309DF81330B7
:103820001A208DF81A30FF238DF81B30FE238DF8F7
:103830001C309DF812308DF81D309DF811308DF838
:103840001E309DF810308DF81F3006AB0FF054FE7F
:10385000054630B3164C174920681FF07AFE16490A
:1038600020681FF076FE154920681FF072FE00F0F8
:1038700055FB1EF081FE124B124A0093124974232D
:1038800020681FF066FE11492B46114A20681FF080
:1038900060FE284600F09CFB0E4920681FF059FE90
:1038A000FEE709B030BD00BFA00001000EE203003A
:1038B0003C130020BEDE030068DC030077DC03005D
:1038C0003CE2030014E2030089DC0300CFDD0300C7
:1038D000CCDD0300E4DD030010B5234C01F08AFCCD
:1038E00001F070FE236F23F0070343F00303236707
:1038F0001FF06CF81D4B00209B6A9B075EBF0122E6
:103900001B4B9A62D4F8203123F0030343F00203E7
:10391000C4F82031D4F8243123F0070343F0020324
:10392000C4F82431D4F8403123F0030343F00103F9
:10393000C4F84031D4F8603123F0030343F00103AD
:10394000C4F86031D4F8403223F0030343F001039C
:10395000C4F84032D4F8003223F0070343F00103E7
:10396000C4F8003210BD00BF0080005000C00050FD
:1039700000E0005008B502F075FB01280ED1134B92
:1039800004205A6E4FF480231149520358BF114A44
:103990004B6601F51041086258BF536604F0DCF82D
:1039A0001EF0F6FD04F07CF804F09CF81FF07DFD9D
:1039B000FFF792FF04F084F81EF0E1FD00F018FD1F
:1039C00001F042F9BDE8084004F0D4BD0080005089
:1039D0000090005000A0005030B5204D9DB009ACC3
:1039E0000FCD0FC495E80F0084E80F004FF4165375
:1039F0002822002112A80B9329F000FB184B012468
:103A000011933823139302238DF8503015938DF8BA
:103A1000583003231022002105A817938DF8494040
:103A200029F0ECFA4FF480120E4B03A9CDE90323E1
:103A30003E238DF814303F238DF815300A4B09AA28
:103A4000069320230793094B0948009311AB8DF887
:103A5000204004F013F91DB030BD00BF40E5030065
:103A60000000035A3400035ABE2A002050120020DE
:103A7000C8120020022905D8034B1B68186808B13A
:103A8000436A1847704700BFC80A002008B50449B8
:103A9000044804F033FEBDE80840FFF79DBF00BFB7
:103AA000C00A0020C012002001481FF089BD00BFDD
:103AB000C8120020014B1A6A18681047C81200206B
:103AC00008B505481EF096FD04481EF093FDBDE8BC
:103AD000084003481EF08EBD60E5030078E5030052
:103AE00090E5030001481EF016BE00BFA8E50300E4
:103AF0001A4B37B583422ED1194B1B785BB3C8B232
:103B00000FF0B6FC054630B3164C174920681FF07D
:103B100020FD164920681FF01CFD154920681FF084
:103B200018FD00F0FBF91EF027FD124B124A134955
:103B30000093206885231FF00CFD11492B46114A84
:103B400020681FF006FD284600F042FA0E49206862
:103B50001FF0FFFCFEE703B030BD00BFEC120020F9
:103B6000DE2A00203C130020BEDE030068DC0300D8
:103B700077DC030038E60300C0E5030089DC0300BE
:103B8000CFDD0300CCDD0300E4DD030030B500240D
:103B90000368614A23F47F4323F0070385B093420F
:103BA00005468DF808408DF809408DF80A408DF8DB
:103BB0000B408DF80C408DF80D4000F0878002F529
:103BC000802293420ED0A2F18272934240F0A280F2
:103BD000524B1B78002B00F09D8005B0BDE83040B3
:103BE0001FF018BFB0F80530222B40F09380FF2360
:103BF00004A91A4611E903001EF0B7FC012814BFFE
:103C000041F2FC14454B04F0FC0208BF187022215D
:103C100028790FF087FC044630B3414D41492868AC
:103C20001FF097FC404928681FF093FC3F49286823
:103C30001FF08FFC00F072F91EF09EFC3C4B3D4AD9
:103C400000933D49592328681FF083FC3B492346D4
:103C50003B4A28681FF07DFC204600F0B9F939493D
:103C600028681FF076FCFEE7374900902B79374A29
:103C70000968374800F004FA054600284AD0284C65
:103C8000284920681FF065FC274920681FF061FC67
:103C9000264920681FF05DFC00F040F91EF06CFC26
:103CA000234B244A00932449622320681FF051FCCF
:103CB00022492B46224A20681FF04BFC284600F080
:103CC00087F9204920681FF044FCFEE7B0F8053072
:103CD000B7EE047A07EE903AF8EE677AB0F807305C
:103CE00027EE877A013307EE903AF8EEE77A67EE2F
:103CF000277AB1EE047A67EE877AFAFE677AFCEEED
:103D0000E77A17EE903AB3F57A7F38BF4FF47A73BB
:103D10000D4A136005B030BDA0000602DE2A002067
:103D20003C130020BEDE030068DC030077DC0300E8
:103D300047E60300C0E5030089DC0300CFDD030094
:103D4000CCDD0300E4DD0300D80A0020F13A0100D5
:103D5000EC12002004210022034B19711A60197320
:103D60009A6019751A617047241300202DE9F843F1
:103D7000204B06461B78ABB90325DFF880901E4C1C
:103D800059F8043BB34207D130461EF038FC0128F5
:103D90000AD11FF0FDFD2060013D15F0FF0504F183
:103DA0000804EDD1BDE8F88330461EF028FC8046BB
:103DB0000028F1D11FF0ECFD2368C71A4FF47A7088
:103DC00005F09EF9B84202D984F80480E4E740F691
:103DD000B83005F095F9B84202D901232371DBE729
:103DE00041F2883005F08CF9B8428CBF02230323DE
:103DF000F4E700BF190D002024130020CC0A002096
:103E000070B500240426074D2979E0B2042902D0B8
:103E1000FFF7A0FB2E710134032C05F10805F3D147
:103E200070BD00BF2413002070B50024094D0A4E58
:103E300055F8040B1EF0E3FB012803D11FF0A8FD89
:103E400046F834000134032CF2D10022034B1A70DF
:103E500070BD00BFCC0A002024130020190D0020E3
:103E6000064B1A784AB9012119700421044B1971C3
:103E70001A6019739A6019751A617047190D00203C
:103E800024130020074B187850B9074B1A79042ADD
:103E900006D11A7B042A03D1187D031F58425841CA
:103EA000704700BF190D002024130020094B1B7818
:103EB0005BB9094B1879042809D11A7B042A07D168
:103EC0001B7D042B08BF0120704701207047042090
:103ED000704700BF190D0020241300200B4B024631
:103EE0001B788BB10A4B1B78834234BF0020012022
:103EF000084B1B783BB1084B1B7843FA02F212F0D7
:103F0000010F08BF002070470120F1E71A0D0020C3
:103F10001B0D0020DF2A00201C0D002073B505F0CA
:103F2000CFF84FF47A740E46054605F0E3F80246E2
:103F3000A5FB0401002304FB06111CF027FC4EF630
:103F40006023B0FBF4F23C21B0FBF3F304FB12045A
:103F50000194B2FBF1F4B3FBF1F501FB14220092E2
:103F6000054A01FB1533B0FBF2F20448044900682E
:103F70001FF0EFFA02B070BD80EE36003C13002057
:103F800067E60300012208B5074B1A700022074BB1
:103F90001A700422064B1A701F22064B1A7003F087
:103FA00005FE054B186008BD1A0D0020DF2A002011
:103FB0001B0D00201C0D00203C130020024B034968
:103FC00018681FF0C6BA00BF3C1300207EE603004D
:103FD00070B50C4C0C49064620681FF0BAFA03F085
:103FE000E5FD0546206803F0D5FD3046FFF7E6FF06
:103FF000284603F0CFFD20680449BDE870401FF05B
:10400000A8BA00BF3C13002080E6030082E603004C
:1040100038B505461EF0F6FC00230B4A14685CB167
:10402000AC4206D1A96A6BB199621EF0F1FC012085
:1040300007E02346A46AF2E7002DF3D01EF0E8FC67
:10404000204638BD1160F0E74013002010B504464B
:1040500090B104F0A9FF2046FFF7DAFF58B194F8B9
:104060002C0040B11EF0CEFC044A1368013B1360E3
:104070001EF0CEFC002010BD2220FCE744130020DF
:104080002DE9F04F85B00546914698460E469DF8BD
:10409000387009B9002F66D12846FFF7D7FF0446CC
:1040A000002840D185F82C00686305F0D1F88642DD
:1040B0003DD905F01FF840F2E7318C462146E6FB7A
:1040C00000C14FF47A72604600231CF05FFB4FF092
:1040D000FF32002383468A461CF058FB4FF0FF3224
:1040E000E8860023584651461CF050FB2B461146EB
:1040F0002846CDE900441D4A1FF025FC044690B92E
:10410000C5E9089885F82D702E631EF07BFC184ACF
:10411000136833B31A469B6A002BFBD195620023C8
:10412000AB621EF075FC204605B0BDE8F08F47B1CC
:104130002B4631462846CDE900440C4A05F010F8DC
:10414000DCE7304603A904F0EDFF04460028EAD17D
:104150002B462846CDE90077044A03991FF0CFFB90
:10416000CCE71560DBE72124DDE700BF75410100E6
:104170004013002091F82C3013B50C4683B98B8E78
:10418000CA8E93420ED243B9CDE9003320460B4686
:10419000104A4FF0FF311FF096FBA38E0133A38628
:1041A00002B010BD52B191F82D307BB101230093C4
:1041B000D1E908232046096BFFF762FF0123064A75
:1041C00084F82C30136801331360E9E7084604F0E3
:1041D000EBFEF3E775410100441300202DE9F041A7
:1041E000144E336823B34FF00008134F1EF00AFC3F
:1041F00005463C6824B92846BDE8F0411EF008BCDD
:1042000094F82C3093B1336884F82C80013B3360F0
:1042100094F82D3013B92046FFF7FAFE28461EF019
:10422000F7FBD4E9083120469847DFE7A46AE1E7C5
:10423000BDE8F0814413002040130020034B1B68AD
:10424000002B0CBF01200420704700BF4413002046
:10425000024B1868B0FA80F0400970474413002000
:104260000348044A0449121A92101EF09FB900BF75
:104270005036040050360400082C002008B500F029
:104280002FF8FFF7EDFF124B12498B4212D300209B
:10429000114B12498B4218D3FEF70AF8186850F8F0
:1042A0002240586840F82240013298688242F5D393
:1042B0000C33EAE70022F8E71C6844F822000132D8
:1042C0005C68A242F8D30833E4E70022F8E700BFB5
:1042D000EC310400F8310400F8310400F831040036
:1042E0004FF400414FF0FF30124B134A10B59A6063
:1042F000D3F8882042F47002C3F888200F4A9166F0
:1043000001F1884101F5005210664FF6DF705066EA
:104310000220C3F8D000BFF34F8FBFF36F8F082484
:104320004FF440330648C0F88041D36004600B610D
:1043300010BD00BF00ED00E0002001000090005023
:1043400000E100E0014B1868704700BFE00A002060
:10435000084B1B6F03F00703022B04D0032B05D07F
:10436000012B05D0FEE7044B18687047034BFBE7B1
:104370000348704700800050E00A0020E40A002053
:10438000002D310108B5FFF7E3FF054B1B6FC3F3A9
:1043900003330133B0FBF3F0024B186008BD00BFDC
:1043A00000800050DC0A00200048704700B4C404BC
:1043B000014B1868704700BFE40A0020054B1860E5
:1043C000054B1B6F03F00703032B01D1FFF7DABF87
:1043D000704700BFE40A002000800050004870478A
:1043E000002D3101014B1868704700BFE80A00201A
:1043F0000020836A10B5B3F5903F0ED21968084AC1
:1044000091420AD1074C227812F0FD0F04D1DB69EA
:10441000984708B90123237010BD4FF48170FBE762
:1044200007B0CD5EE02A00204FF00053074A1A6023
:10443000BFF34F8F0649074BCA6802F4E06213438B
:10444000CB60BFF34F8F00BFFDE700BF02020FF04C
:1044500000ED00E00400FA0505490A681318054854
:1044600083428CBF4FF0FF320B601046704700BF95
:10447000EC0A002000800020F7B504680121054601
:104480003A2000F0DBFD002301226179207901F060
:10449000F3FB14233021227911FB023101F1A041F9
:1044A00001F5703109686379D940C943A37901F0F6
:1044B0000101022B217017D100F022FB164A2B4676
:1044C0006179207900F046FBFF28024660790ED121
:1044D0002A46114900F068FB0123024661792079E0
:1044E000CDE9003301F070FB002003B0F0BD0126E0
:1044F0002779002301460096384601F01FFC2A4622
:104500000549607900F050FB00236179024620796B
:10451000009301963346E5E70926030008B501211B
:104520003A2000F08BFD032101230422002001F03A
:10453000A3FB00201EF0D4FA0122214B4FF460703F
:10454000C3F844241EF07AF91E4B00F5D520D3F8A9
:10455000F02000F2FC4042F00102C3F8F020D3F852
:10456000FC2042F08072C3F8FC20174AA3F55D439B
:104570001A60164B0222B0FBF3F0154B013818619C
:10458000C3F8F0204FF48072C3F804234FF0604367
:10459000104A0020C3F8B02F0F4AC3F8802ED3F87A
:1045A000002E42F48072C3F8002EFF2283F82020F0
:1045B000D3F8002E22F48072C3F8002E08BD00BF8D
:1045C00000D0035000ED00E0FF030040F8590D005B
:1045D000000004E055CEACC50900010010B5012271
:1045E00043780178847830209A40054B00FB0133F2
:1045F0001CB942F210015A5010BD41F21001FAE705
:1046000000C0035010B5012243780178847830202F
:104610009A40054B00FB01331CB941F210015A507E
:1046200010BD42F21001FAE700C003502DE9F04F2F
:104630009A46564B85B01B7806460F461546DDF860
:104640003C909DF844B0DDF85080002B00F08D8048
:10465000072A00F28C800E9B002B00F08880B9F1B5
:10466000000F00F08480129BB3F5006F7FDC0128FF
:1046700002D1109B002B7AD0454B03EB05131B7B1B
:10468000002B76D0434C10220021684628F0B6FC5F
:1046900004EB45141022002F59D13946204628F04A
:1046A000ADFC43F210036380BBF1000F03D1E3784C
:1046B00043F00303E370374A0E9B02EB451CCCE941
:1046C0000193129B6901013BC3F30A009DF84C3032
:1046D000012E03F003034FEA836343EA001E53589D
:1046E0002D48CDF800A000EA03004EEA0003535025
:1046F00041D113230CF1100ECCF80C309CE80F00C4
:104700008EE80F006FF00301DCF81C20109B61F3B2
:104710009F02012FCCF81C20CCF8143003D1CCF828
:104720001890CCF804300027194A290102EB051330
:1047300042F80180159A28465A60694622469F60D1
:104740005E7301F077FB384605B0BDE8F08F0021BD
:10475000204628F053FC4FF444736380BBF1000FF4
:10476000A9D1E37843F03003A4E70C48ECE70C4808
:10477000EAE70C48E8E7B8F1000FD4D19CF8023022
:1047800068F304138CF80230CDE700BFE12A002063
:1047900048130020C81300200F80FFF3028000F0B0
:1047A000018000F0078000F038B5124B05461B78F9
:1047B000DBB1E0B11EF026F90F4A00231146147B4D
:1047C00054B92B6001251A0101EB03131D738C50A2
:1047D0001EF01EF9204638BD0133082B02F11002ED
:1047E000EDD11EF015F90548F5E70548F3E7054852
:1047F000F1E700BFE12A002048130020048000F008
:10480000028000F0018000F013B51EF0FBF80023D9
:104810000B4A147B7CB90133082B02F11002F8D14A
:10482000019001F0A9FA074B01981C701EF0F0F8F6
:10483000204602B010BD1EF0EBF80348F9E700BFB8
:1048400048130020E12A0020058000F00D4B10B530
:104850001B78044693B1072812D81EF0D3F80A4BF0
:1048600003EB04131A7B2AB100241C731EF0D0F84A
:10487000204610BD1EF0CCF80448FAE70448F8E7DB
:104880000448F6E7E12A002048130020068000F0E3
:10489000028000F0018000F0154B13B5186800236A
:1048A00001908DF804301EF0ADF8124B1C7824B145
:1048B0001EF0AEF8104802B010BD01221A701EF0B2
:1048C000A7F80E4B01A81C731C7783F82C4083F8C3
:1048D0003C4083F84C4083F85C4083F86C4083F89C
:1048E0007C4008238DF8073001F072FA2046E2E799
:1048F000D8E60300E12A0020038000F048130020DE
:104900000A4A08B512785AB107280BD8084A02EBB0
:1049100000131B7B43B1002101F04CFA002008BDBD
:104920000448FCE70448FAE70448F8E7E12A0020D5
:1049300048130020028000F0018000F0078000F0A2
:104940000A4A08B512785AB107280BD8084A02EB70
:1049500000131B7B43B1012101F02CFA002008BD9C
:104960000448FCE70448FAE70448F8E7E12A002095
:1049700048130020028000F0018000F0078000F062
:104980000A4A08B5127852B107280AD8084A02EB39
:1049900000131B7B3BB101F097FA002008BD0548CE
:1049A000FCE70548FAE70548F8E700BFE12A0020E0
:1049B00048130020028000F0018000F0078000F022
:1049C0000D4B1B7893B1072812D889B10B4B03EB21
:1049D00000131B7B73B10A4B1A6D012303FA00F01D
:1049E00010401ABF00200B700870704705487047D0
:1049F0000548704705487047E12A00204813002009
:104A000000000450028000F0018000F0078000F0F8
:104A10000B4A10B512780C4662B107280CD859B170
:104A2000084A02EB00131B7B43B101F05FFA2070D0
:104A3000002010BD0448FCE70448FAE70448F8E702
:104A4000E12A002048130020028000F0018000F0DD
:104A5000078000F02DE9F843174B1F6D5B6D1F4079
:104A600000D5FEE701260025144CDFF85480DFF85E
:104A70005490374217D02368C8F850609BB1A168A2
:104A8000284601316268A1609847637B012B0AD1F7
:104A900048B909EB45131A7B60F341021A731A7F78
:104AA00060F341021A770135082D4FEA460604F1FA
:104AB0001004DED1BDE8F883000004504813002044
:104AC00000200450C813002070B5044601250B4E89
:104AD00004B970BD94FAA4F0B0FA80F005FA00F3BE
:104AE00006EB001224EA03045368002BF0D0117B7C
:104AF00011B191689847EBE79847E9E7C81400209F
:104B000008B5192000F08AFD28B14FF00072074B5C
:104B1000C3F880211A601A2000F080FD28B14FF000
:104B20008062024BC3F880211A6008BD00E100E0FA
:104B300038B505460C461DF065FF0022044B03EB1B
:104B400005135C601A73BDE838401DF061BF00BFFB
:104B5000C8140020F8B504460D4617461E461DF041
:104B600051FF1CB9052D0DD0FF2414E0012C03D1F9
:104B7000012DF9D1032405E0022CF5D17DB1052DDD
:104B8000F2D107240123074D04F1100105EB0111B7
:104B9000C1E901760B731DF03BFF2046F8BD0624EA
:104BA000F0E700BFC8140020F8B505460F461646CA
:104BB0001DF028FF104B05F0FC02D3F8241400234D
:104BC000EC1804F00304144321FA04FC1CF0010F58
:104BD00007D00133042BF3D1FF241DF019FF204629
:104BE000F8BDFF2CF9D00122044B03EB0413C3E9F9
:104BF00001761A73F1E700BF00C00350C81400200B
:104C0000074BD3F82404D3F8202403F500531040B5
:104C100000F0553020F05020C3F82004FFF754BFB7
:104C200000C00350074BD3F82404D3F8202403F525
:104C30000053104000F0AA3020F0A020C3F8200458
:104C4000FFF742BF00C00350024B1968024B1868BF
:104C500014F088BDF40A0020F00A002037B5920055
:104C600004460D46019228F0BFFF431C0BD060B9EB
:104C700029462046019A28F08AF90028044808BFEE
:104C8000002003B030BD0348FBE70348F9E700BF4D
:104C900010E000F021E000F024E000F010B5044640
:104CA00028F0AAFF431C10D088B901F0E3F923468D
:104CB00020F003002044984201D1002010BD53F899
:104CC000042B0132F7D00348F8E70348F6E703481E
:104CD000F4E700BF0EE000F021E000F024E000F077
:104CE00008B51DF088FE014B186008BD081D0020A6
:104CF000014B18681DF083BE081D0020044BD3F83B
:104D00008420D206FBD4D3F88400C0F3811070470E
:104D10000040005038B5104B0546D3F820310C4602
:104D200003F00303022B0BD0032B0DD0012B0FD16B
:104D3000FFF708FB052305B1286004B1236038BDE7
:104D4000FFF736FB0323F6E7FFF748FB0223F2E702
:104D500001230020EFE700BF0080005073B50D462F
:104D600000210E4B0191D3F88041064604F0030464
:104D7000012C09D0022C0CD00C460EB1019B3360E3
:104D800005B12C6002B070BD01A8FFF7C3FF0F246E
:104D9000F3E7FFF723FB0190EFE700BF008000502F
:104DA00038B5184B0546D3F824010C4600F007002F
:104DB000062805D8DFE800F0230B131B1F0F170090
:104DC0000023184605B1286004B1236038BDFFF701
:104DD000B9FA0523F6E7FFF7B5FA0623F2E7FFF77E
:104DE000E7FA0323EEE7FFF7E3FA0423EAE7FFF726
:104DF000F5FA0223E6E71DF0E4FB0723E2E70123CF
:104E0000E0E700BF0080005038B5104B0546D3F8EE
:104E100040310C4603F00303022B0BD0032B0DD0C3
:104E2000012B0FD11DF0CFFB092305B1286004B180
:104E3000236038BDFFF7D6FA0823F6E71DF0C6FB5E
:104E40000B23F2E701230020EFE700BF00800050B2
:104E500038B5144B0546D3F800020C4600F00700A5
:104E6000042804D8DFE800F01B0A0E121600002305
:104E7000184605B1286004B1236038BD1DF0A3FBBE
:104E80000923F6E7FFF7AEFA0823F2E71DF09EFBD1
:104E90000B23EEE7FFF776FA0E23800AE9E70123FA
:104EA000E7E700BF0080005038B5104B0546D3F847
:104EB00040320C4603F00303022B0BD0032B0DD022
:104EC000012B0FD11DF07FFB092305B1286004B130
:104ED000236038BDFFF786FA0823F6E71DF076FB5E
:104EE0000B23F2E700231846EFE700BF00800050D5
:104EF00038B5104B0546D3F860310C4603F0030378
:104F0000022B0BD0032B0DD0012B0FD11DF05BFB1F
:104F1000092305B1286004B1236038BDFFF762FAA8
:104F20000823F6E71DF052FB0B23F2E701230020D4
:104F3000EFE700BF0080005010B40D4C0B46D4F8D2
:104F4000204204F00304012C0AD0022C0CD008B13A
:104F5000002101600BB100221A605DF8044B70471C
:104F60005DF8044BFFF7D6BE5DF8044BFFF74CBF6E
:104F70000080005038B50C4605461DF03CFD064B40
:104F80009A6A82EA040101EA050454409C62BDE881
:104F900038401DF034BD00BF00C00050B0F5207F88
:104FA0001FD009D8B0F5007F15D003D868B1B0F58F
:104FB000C07F0AD000200CE0B0F5607FFAD10B4B27
:104FC000D3F88000C0F3011003E0084B186FC0F362
:104FD000033001307047054BD3F89000C0F30460F4
:104FE000F7E7024B186FC0F38020F2E70080005013
:104FF0004FF400320E4B014610B500209A66FFF7C1
:10500000CDFF41F6713248430A490B4B88428CBFB1
:105010004FF480100020DC69DA639A6822F44012B1
:1050200002439A60E20344BF0022DA6310BD00BF6E
:1050300000900050005A620200000350420910B56F
:1050400010D0012A10D00B4B0B4C022A18BF23465C
:1050500000F01F0051B103F58053012202FA00F065
:10506000186010BD1346F3E7044BF1E703F5005356
:10507000F3E700BF688000506082005064800050F9
:1050800008B580201DF0DAFB034B98429EBF4FF419
:105090008032024B1A6708BD005A620200A000501D
:1050A0001FB50023B0F5807F019377D028D838282A
:1050B00000F094800BD82438092810D809280ED87D
:1050C000DFE800F0676767670D0D620D377D5228D6
:1050D0005FD008D83D283BD03E2800F0848001985E
:1050E00005B05DF804FB8028F9D1414B1B6F03F03C
:1050F0000703013B032BF2D8DFE803F044413F6C88
:10510000B0F5D06F5BD019D8B0F5A06F66D00AD8D3
:10511000B0F5806F3DD0B0F5906FE0D1002001A9CF
:10512000FFF73EFEDBE7B0F5B06F2DD0B0F5C06FF6
:10513000D5D1002001A9FFF767FED0E7B0F5006FD9
:10514000ECD00AD8B0F5E06F4DD0B0F5F06FC6D115
:10515000002001A9FFF7CCFEC1E7B0F5086FBED172
:10516000234BD3F8003103F00303022B2CD0032B85
:105170002ED0012B30D1FFF71BF9032300E00523CC
:105180000193ACE70223FBE7002001A9FFF7E6FD4E
:10519000A5E7002001A9FFF7BDFDA0E702934FF0AE
:1051A000E0231B695B0705D5FFF7ECF80C2303939D
:1051B000039BE5E703A902A8FFF726FEF8E7002016
:1051C00001A9FFF745FE8AE7FFF70CF90823D7E7A7
:1051D0001DF0F7F90723D3E70123D1E7002001A948
:1051E000FFF7AAFE7BE7002001A9FFF75DFE76E747
:1051F000008000504FF40022034B5A66012203F551
:1052000080439A62704700BF0090005008B5FFF7D6
:1052100047FF082811D00938012811D84FF400128F
:10522000094B4FF6FF705A6603F5D8335B6A13F0EB
:10523000010F18BF4FF4FA7008BD044B1888FBE744
:105240004FF6FF70F8E700BF00900050040D0020FB
:1052500070B504468020FFF723FF032800F082800A
:105260004FF40022444B02215A6645F60E03434A8E
:10527000C2F88030424B9962012103F58053996254
:10528000936DD903FCD4D4E900131B0543EA0163F1
:10529000E17B94F822500B43217B94F8236043EA8E
:1052A0000143617B43EA0133A17B43EA811313612C
:1052B0009169D4E904031B0643EA806301F00041CD
:1052C0000B43A17EE07E0B43217E43EA0143617ED6
:1052D00043EA01239361E369126A002B0CBF0021AA
:1052E000082122F00D0242EA030242EA8002234B27
:1052F00042EA01021A6294F820204FEA421232D1A7
:10530000986A94F8211020F0330042EA0112024317
:1053100042F001029A621B4A996D32EA0101FBD107
:10532000022217498A621A659A6D5200FCD41869E4
:10533000A26820F4700040EA02504FF00042186169
:105340000F4B9A611DB9022203F580539A6216B978
:1053500001220D4B9A6294F824301BB1074B0B4A83
:10536000C3F8802070BD996A21F0330131430A43AC
:1053700042EA4502EEE700BF0090005000C0005036
:1053800000D000500300014000E00050F1A7FFFFF3
:105390001F4BFF2873B5996A37D89A6D12F4803F76
:1053A00018BF01241B4A18BF9462022494629B6DAB
:1053B000DA0303D5164A936D9B07FCD50222154BE1
:1053C000134E1A65B46D14F08044FBD1124B93F95F
:1053D0000050B369054423F47F0323F47F4343EA79
:1053E000002385F3080043EA0043B36102200191E2
:1053F000FFF7C0FDB06D019910F4803003D001209B
:10540000FFF7B8FD204602B070BD2120FBE700BFCA
:1054100000C0005000D00050E22A0020014B93F958
:1054200000007047E22A002001221548154B816ACE
:105430009A62826D02F00302032AFAD102229A6272
:105440001A650F4B9A6D5200FCD40F4A986D32EAE0
:105450000000FBD101220B4B1A65A3F580539A6D16
:105460009007FCD49A6D9207FCD50222054B1A6571
:10547000034A936D9B07FCD50320FFF77BBD00BF5C
:1054800000C0005000D0005003000100014B188004
:10549000704700BF020D00204FF4001208B5184BF2
:1054A0005A660223174A5360936813F48033FBD182
:1054B000012822D1FEF77CFF134B984215D003F54B
:1054C000122303F5F863984213D0104B00EB8002CF
:1054D000400AB3FBF0F0520A0A4BDA620122186369
:1054E0005A620022074B5A6008BD45F67A10084AF6
:1054F000F2E745F61A00074AEEE75362F1E700BF0C
:10550000009000500040025000F049026466666658
:10551000D8B80500BBCF0500B0F5207F10B50C460C
:1055200042D008D8B0F5007F33D003D888B1B0F5A9
:10553000C07F0ED010BDB0F5607FFBD11F4B013C8A
:10554000D3F8801021F0300141EA0414C3F8804000
:10555000F0E71DF06BF91DF034FA4FF48031184A72
:10556000164B1167196F013C21F4704141EA043474
:105570001C67FEF707FF0446FFF7C0FBC0F10201FE
:1055800020461DF018FA00F02DF8BDE81040FFF796
:1055900077BD0A4B013CD3F8901021F0F85141EA55
:1055A0000464C3F89040C5E7044B013C196F21F433
:1055B000806141EA84241C67BCE700BF0080005082
:1055C0000090005008B50121022000F0F5F81DF010
:1055D0002DF91DF0F6F94FF48032014B1A6708BD22
:1055E0000090005008B54FF4C0701DF027F9BDE8D9
:1055F0000840044988428CBF022101214FF42070E9
:10560000FFF78ABF80F0FA02034B5868C0F3080026
:10561000003818BF0120704700ED00E0054B42093B
:1056200053F8223000F01F0023FA00F0C04300F0CE
:105630000100704700E100E0194B10B51B6873B31F
:10564000184A5268012A2AD0174A8020C2F800312D
:10565000FFF726FD05281FD14FF4C070FFF79EFC11
:105660000128044604D102214FF4C070FFF754FF13
:1056700007220E4B1A610122A3F580535A60094A92
:105680001369DB07FCD5012C09D12146BDE8104088
:105690004FF4C070FFF740BF0122054B5A6010BDA8
:1056A000BC1D002000C001500080005000E00150EF
:1056B00000D0015000224FF40031074B1A60074A16
:1056C000516602F598325268012A02BF044AD2F8A4
:1056D00000211A60704700BFBC1D002000900050E0
:1056E00000800050044A4178536F23F4407343EA2A
:1056F00001235367704700BF0040005010B50446B7
:1057000008B1FFF7D7FF104A136943F00403136190
:1057100003F024FA1DF07FF90C4B0D4AC3F8202446
:105720001DF069F928F058FA1DF069F91DF074F9B7
:1057300003F03CFA1CB1BDE81040FFF77DBFBDE8A7
:105740001040FEF71FBE00BF00ED00E000E0035078
:105750000000FF0F10B5044608B1FFF7ABFF0E4A7B
:10576000136943F0040313610C4B0D4AC3F8202462
:1057700003F0F4F91DF03FF928F02EFA1DF03FF97F
:1057800003F014FA1CB1BDE81040FFF755BFBDE8A7
:105790001040FEF7F7BD00BF00ED00E000E0035051
:1057A0000000FF0F034A0179D36E23F030030B434F
:1057B000D366704700400050F8B504461C4BD3F840
:1057C0008420D106FBD4D3F88430C3F381139C42E8
:1057D0002CD0FEF7BDFD012C064602D121461DF05E
:1057E000EAF81DF008F94FF00072124B07465A66AE
:1057F00020461DF016F94FF480630D4D621E934054
:105800002B676B6E9A0103D4D5F884309B060AD5BA
:1058100038461DF0F4F8022C08D13046BDE8F840B7
:1058200000211DF0C8B8D5F88430EAE7F8BD00BF04
:10583000004000500060005007B518B90191FEF714
:1058400087FD0199064B1B7843B1064B984205D85A
:10585000012003B05DF804EBFFF7AEBF0220F8E7CC
:10586000E32A0020005A62020278034B0121002043
:105870001A70FFF7E1BF00BFE32A00204FF000429B
:1058800038B5264B26495A6601224A604AF6CD3180
:1058900003F50B235D6C1964154030BB9968C9078B
:1058A0000BD4002401221F4B5A6015B11E4B1F4A16
:1058B0001A6426F045FF204638BD1A498A601C4A02
:1058C000D96ACC0705D4904201D10724EAE7013018
:1058D000F6E79042E5D1F8E70132DC6A14F00804FB
:1058E00006D08A42F8D10724DFE700221049F4E706
:1058F0008A42F8D020220B4B0B495A620122A3F5B1
:1059000080539A6023460A4A486A800603D4934229
:10591000E9D00133F8E79342C7D1E4E700900050A3
:105920000050095000600950004009503254FFFFF8
:1059300040420F004FF0004238B5194B194C5A66DF
:10594000012203F50C235A604AF6CD33656C2364BB
:105950004378154093401343134AD363A368827876
:1059600023F0740343EA0213C278002A14BF04220E
:1059700000221343A3600279837943EA022323615F
:105980004279C37943EA022363610078FFF776FF27
:105990000DB1064B236426F0D3FE012038BD00BFB5
:1059A0000090005000400950004000503254FFFF6A
:1059B00010B504461DF03AF8002341F202020849EE
:1059C000E360A360226104F50052E3616361A361B7
:1059D00023626362E362A3645164A36210BD00BFEB
:1059E0007F370C0138B50446154639B9184B984233
:1059F00014BF084638201CF021FF01466368A068E8
:105A000000F0E00040281AD003D8D0B120281AD0E6
:105A100038BD602819D08028FAD101236B43490191
:105A2000B1FBF3F10B4A2039204602EAC102012101
:105A30001CF0F8FFA262BDE838401CF0F3BF06235B
:105A4000ECE71023EAE70823E8E70423E6E700BFD2
:105A50000000035AF8FF7F00436870B504460D4606
:105A600016461BB140F2FF711CF0DCFF2046FFF729
:105A70009FFFE9896B7B22690B43298A22F44C52F0
:105A80000B4322F0030213432361A2682B7B297E80
:105A900022F0804222F0E2020B4313436A6913436F
:105AA000A360AB681BB9A36843F00043A360EB6934
:105AB000002B58D0A16898883F4A00F4C0400A40A3
:105AC00010431A7A40EA82509A7A40EA42405A7861
:105AD00040EA82005A7B40EAC2009A7B40EA021008
:105AE0009A7840EA8220A060E168D3E9042021F49A
:105AF000D81121F4C06102430A43997942EA812214
:105B0000D97942EA4122E2601A7802F0FD010129C6
:105B100008BFE168A2F1020204BF41F00401E160A4
:105B2000012A4FF0010294BF24492549C1F8C02041
:105B30005A7A04F580510A621AB1E26842F40062AE
:105B4000E260DA7A4AB1E2681E4942F40042E26059
:105B50001A7B02F00F02C1F88020E269DB7B22F0A1
:105B600003021343E36136B196F8203004F5805107
:105B7000A3B101238B61052120461CF074FFAA68A4
:105B800012B16968FFF72EFF204629781CF088FFC4
:105B9000236CDB4313F4405FFAD170BD626996F861
:105BA000223096F8210022F009020343134343F008
:105BB00001034B61DFE700BFE39BBDFF00D403504F
:105BC00000E4035000900350072AF7B501F00306E4
:105BD00014461F464FF003012CD89500A94000FA47
:105BE00005F21C4801911CF06AFF01991A4806FA57
:105BF00005F21CF064FF194B19499DF82000002F95
:105C000008BF1946012303FA04F40C60154B16492A
:105C1000002808BF0B461C60144B9DF82400C3F8F5
:105C200020441031A3F6DC33002808BF0B461C606B
:105C300003B0F0BDA2F10805AD00A94000FA05F2DD
:105C40000B4801911CF03BFF01990A4806FA05F246
:105C5000CFE700BF00C4035008C4035010E4035052
:105C600010D4035014D4035014E4035000E0035044
:105C700004C403500CC40350F8B504460D461F4637
:105C800016464AB101238B403021194A01FB0022FC
:105C9000FFB141F21001535004EB4403072D4FF0C4
:105CA0000F014FEA031317D8A80006FA00F281404B
:105CB000104818441CF003FF56B9012130230C484A
:105CC00001FA05F503FB040077B141F21003C5505A
:105CD000F8BD42F21001DEE7A5F10800800006FAE7
:105CE00000F281400448E4E742F21003EFE700BF0E
:105CF00000C0035004C003500CC0035010B50C4B3F
:105D00000C4C0D4A0140C4F83004C3F83014C3F8F9
:105D10002C04D36E03F03003202B1FBFD36E23F06F
:105D2000300343F01003D366C4F8200410BD00BF55
:105D300000D0035000E003500040005038B5144636
:105D40001D46032283F00103FFF796FF012004F1B3
:105D50001001884005FA01F1FFF7D0FF9DF81010FF
:105D6000034B044A002908BF1346186038BD00BF22
:105D700024D4035024E403504FF400120B4B10B50D
:105D8000C3F88020BFF34F8FBFF36F8F0024FF2233
:105D9000074B21465C6520209A625C60FFF74EF954
:105DA0002146BDE810402120FFF748B900E100E09E
:105DB00000000450044A054B002918BF1346012275
:105DC00002FA00F018607047402004504010045060
:105DD00010B5012104462020FFF730F901212120D0
:105DE000FFF72CF90122114B5A60227812069A60B3
:105DF0006178A27842EA01429A61FF229A62002207
:105E00009A631A644FF000425A654FF0FF324FF424
:105E1000001103F500531A65054AC2F88011E378B2
:105E20001B01DBB282F81533116010BD0000045075
:105E300000E100E0F8B50125C3B2DFF888C0D1F871
:105E400000E09D408F7ACB7A0C46097BCCF850500D
:105E50000CF5005C4CF820E04FF0300E174E1B059F
:105E60000EFB006094F80DC043EA074343EA415338
:105E700022F00302C0F860C0C36502671CF0C2FDD7
:105E8000736D227A2B4373650D4B02B11D64627AE8
:105E900002B19D632279A37943EA0243094A9361DF
:105EA0006179E37943EA014305498B61034B55630B
:105EB0009D64BDE8F8401CF0ABBD00BF000004507D
:105EC000001004500020045010B50124C0B28440DA
:105ED0001CF098FD044B5A6D22EA04025A659C623C
:105EE000BDE810401CF094BD0000045010B5012422
:105EF000C0B284401CF086FD074BDA6A224209D109
:105F00005B6B34EA03030CBF012400241CF080FD0A
:105F1000204610BD0024F9E7000004504FF4003281
:105F2000054B9A6641F6713203F51C33DA630122A0
:105F300003F50053DA6070470090005041F671326B
:105F40000121064BDA6303F50052D1600022DA63C7
:105F50004FF40032A3F518339A66704700000350DF
:105F6000CB784A7810B55B010C7843EA82030A7952
:105F7000234343EA02130C22424302F1B04213636B
:105F8000012C02BF8A78024B43F8202010BD00BFCD
:105F9000E880035008B54FF0B0435A6802B960B1C9
:105FA0005B680BB11CF09DFD4FF0B04130B101209A
:105FB000074B58601CF095FDC86008BD1CF091FDB2
:105FC0000223CB601CF08DFD0122024B5A60F4E7E6
:105FD00000100058002000584FF0B0435B6870B5C7
:105FE0000BB11CF07EFD0121104B45785960837880
:105FF0000679002BC37814BF02240024002B14BFA1
:10600000042200224379DB0043EA06132B43234397
:1060100013434FF0B0429360054B59600378002B57
:1060200014BF0B460223D36070BD00BF0020005890
:10603000001000584FF48032064B5A6603F5E623F1
:106040005B69C3F38512827003F03F021B0B427041
:106050000370704700900050014B986CD96C7047EA
:106060000080E00F024B1868C0F30740704700BF84
:106070000080E00F0120034B9B680A3303F01F03ED
:10608000984070470080E00F38B50446054D26F073
:106090007BFB0FCC0FC594E8030085E803000020CC
:1060A00038BD00BFC01D002047F6FF739A42F0B50F
:1060B0006AD002296AD8364B5B5C012B66D8354D15
:1060C000DF0005EBC30015F833308478012B13D1C2
:1060D0000025C3781B1BAB4202D8E018C0B2F0BD4C
:1060E000591B4668A3EB510136F911609642D4BFA3
:1060F0000D4601F1FF33EEE740680028EFD0B0F91C
:106100000030934204DBB0F902309342B8BF13462B
:1061100082883D44FF2A19BFC8214FF0280CB0F9EE
:106120000610B0F908C0A1EB03020CBF012600263F
:1061300092FBFCF26D78324412B2954201DD002AE6
:1061400001DA6A1E12B24FF47A7700EBC206F188C8
:10615000B668013213FB016112B221EAE1715C31D0
:106160009542B1FBF7F104DD00EBC206B6888E4222
:10617000EBD200EBC20232F8040C884228BF08467A
:10618000A04238BF2046A9E7FF20A8E70020A6E7E5
:1061900000E70300C01D00200229F0B557D82D4BA1
:1061A000585C012853D82C4C04EBC00114F8300083
:1061B0004B6801280FD1C8788C78904294BFC4EB0B
:1061C0000001C4EB0201001BCAB28242C8BF002218
:1061D00033F91200F0BD002B39D08878904202D3F9
:1061E000B3F90200F6E7CC78B3F900009442F1D994
:1061F0004C789988013CA1F1FF06714203F1040536
:10620000E4B2714103F10C071FFA82FCCEB2B44232
:1062100016D805EBC1014FF47A756A43B1F9024013
:106220004968521A04EBD47102EB610292FBF4F25A
:106230009042CFDBB3F902009042CBDC10B2C9E749
:1062400037F831E04E1CE645E3D33146DEE703483C
:10625000C0E700BF00E70300C01D00200080FFFF73
:1062600008B50448FFF710FFBDE80840012026F0FC
:106270008FBA00BF04E7030000487047060D0020F6
:106280001B0603F0706300F00F000902034301F4E2
:106290007061120402F470220B431343014A13602D
:1062A000704700BF0020025C60B5054619B1013996
:1062B000B1F5806F10D2094EF06810F48030FBD138
:1062C00043EA0121120741EA050302F08052134319
:1062D00043F00043736060BD0120FCE70020025CD6
:1062E0000122054B9A60DA68D203FCD4D86820F00A
:1062F0000F000004000C70470020025C014B18687E
:10630000704700BF0040025C014B5868704700BFF7
:106310000010025C014B186B704700BF0010025C5C
:10632000014B1868704700BF0010025C014B986079
:10633000704700BF0010025C014B1864704700BF3B
:106340000010025C014B5864704700BF0010025CF3
:10635000014B5863704700BF0010025C0022014BE4
:106360001A6070470010025C024A136843F0010390
:10637000136070470010025C024A136823F00103A7
:10638000136070470010025C43F20402014B1A6074
:10639000704700BF0010025C024A136843F03003EC
:1063A000136070470010025C044B1A6842F480725C
:1063B0001A601A6822F480721A6070470010025C3A
:1063C000024A136843F48063136070470010025C54
:1063D000034A136823F4702343EA004010607047B7
:1063E0000010025C044B1A6902605A6942609A69A3
:1063F0008260DB69C36070470010025C0268044B76
:106400001A6142685A6182689A61C268DA617047AB
:106410000010025C024B1A6BD207FCD41862704762
:106420000010025C82B01FB507930A9B04AC8B423C
:1064300028BF0B4604E907001048D100079948BF60
:1064400003330160099948BF23F0030323F070432D
:1064500001F0E041194341F000518160002102F058
:10646000E042019C134343F00053C1600461836127
:10647000416304B0BDE8104002B070470000025C08
:106480003F22034B1A631022DA6103229A6370479A
:106490000000025C024AD36B9B07FCD4704700BF2C
:1064A0000000025C034B986A10F0240018BF04201F
:1064B000704700BF0000025C08B5FFF7F3FF064B12
:1064C000DB6B23F47F4323F0EF0303431EBF012262
:1064D000024BC3F8FC2F08BD0000025C00F0FF3F38
:1064E000032208B5054B186019615A63FFF7C8FF0E
:1064F000FFF7D0FFBDE80840FFF7DEBF0000025CF9
:1065000042680346182A10B50AD0202A1DD0102A46
:106510002BD1174AD2F80424D4010AD4012013E065
:10652000134AD2F804249001F8D50A6842F0080210
:106530000A6010481A6882424FF000000ED10A68C3
:1065400042F040020A60586010BD094AD2F80424A3
:106550005201E3D50A6842F00402E9E7064CA24280
:10656000F2D10A6842F08002ECE70720ECE700BFB6
:106570000000025CE42A0020E52A00200B4607B553
:106580000749D1F80414C90708D500210092024632
:10659000084600F05BF803B05DF804FB0120FAE761
:1065A0000000025C1346064AD2F80424D20504D542
:1065B0000A46014600201CF09CBC0120704700BF29
:1065C0000000025C13B5084CD4F80444E40508D577
:1065D000009313460A460146002000F061F802B01D
:1065E00010BD0120FBE700BF0000025C13B5084CA2
:1065F000D4F80444E40508D5009313460A4601463E
:10660000002000F071F802B010BD0120FBE700BFD0
:106610000000025C70B504460D4616468CB00A4A6E
:1066200009AB07CA83E807001A462146CDE905638E
:10663000CDE90333CDE9013300954FF480301CF0F0
:106640007CFB0CB070BD00BF88E70300F0B51C46B2
:106650005B6815468DB01A07129E1AD1CBB17268CD
:10666000934216D10C4B0D4A53F8217009AB07CA5F
:1066700083E807001A462946CDE90533CDE90333FF
:10668000CDE90163009447F480701CF056FB0DB017
:10669000F0BD0720FBE700BF94E7030088E7030095
:1066A000F0B516465A688DB0102A0D46129F15D1C6
:1066B0007A68102A12D10A4A09AC07CA84E807008E
:1066C00022462946CDE90547CDE90344CDE90144F9
:1066D000044800961CF031FB0DB0F0BD0720FBE72D
:1066E00088E7030030000100F0B516465A688DB007
:1066F000102A0D46129F15D17A68102A12D10A4A23
:1067000009AC07CA84E8070022462946CDE905748A
:10671000CDE90344CDE90144044800961CF00DFB8B
:106720000DB0F0BD0720FBE788E703001000010073
:1067300082B070B586B0149D03AE202D86E80700A8
:106740000B9359D805EB85038B4203D006236B438B
:106750008B4253D10C9BAB4250D10F9BB3EB450FF7
:106760004CD1129A934249D1012229462220159BED
:10677000FFF79AFD044630BB034606220E210C208B
:10678000FFF77EFD0123CDE900332B4696E8070095
:106790001CF070FA0E230BAA009307CA2B461CF0BC
:1067A000B4F90C23164C00930EAA2B4607CA1CF012
:1067B000DCF9636823F07F0343F026036360FFF78F
:1067C0008FFD30B10624204606B0BDE8704002B00F
:1067D0007047636823F07F0343F022036360FFF791
:1067E0007FFD04460028EDD1062311AA009307CAB5
:1067F0002B461CF0EDF9E6E70124E4E70724E2E785
:106800000020025C70B598B0002843D02C4C08AD35
:106810000FCC0FC50FCC0FC50FCC0FC594E80F00E0
:1068200085E80F006D4604AE04F1100320340FCB51
:1068300085E80F0094E80F0086E80F00FFF7B4FD2D
:106840000420FFF7C5FDFFF79FFD3046FFF7D6FD9B
:10685000002408AE56F8040B0134FFF7DBFD102CC2
:10686000F8D1FFF751FD0328FBD90024FFF776FD8F
:106870002646FFF743FD55F8043B01365840042EE9
:1068800044EA0004F5D12CB1012206200D4B1A7008
:1068900018B070BDFFF788FD0820FFF747FD002006
:1068A000FFF74AFD0720FFF74DFD4FF40070FFF79B
:1068B0004FFD0820FFF78CFDFFF756FD0020E7E7AE
:1068C00070E80300E72A002008B5FFF76DFD0122FC
:1068D000014B1A7008BD00BFE62A00201FB51CF04E
:1068E00083FC044630B1012206240D4B1A70204669
:1068F00004B010BDFFF702FD0090FFF7FFFC019010
:10690000FFF7FCFC0290FFF7F9FC03906846FFF7E5
:1069100075FDFFF7D9FFFFF73FFDFFF751FDE6E7F4
:10692000E72A002006289ABF014B185C0020704718
:10693000D0E8030030B5154B87B00293144B039099
:10694000049346F611030D46059300F06DF91428E3
:10695000044616D168461CF0F7FC4FF0A84303220A
:1069600002A95A6319601D619A63DA6B9207FCD120
:10697000142C02D168461CF0F5FC00F089F904469D
:1069800001E00028E9D0204607B030BDD81D002026
:10699000040000202DE9F04FB1B005468C46E946D1
:1069A0006E4F3B9EDDF8F8E0409C07F1100AC846A8
:1069B000386879680837A8E803005745C146F6D11A
:1069C0000EEB0208C8F1000909F00F09002E00F0D3
:1069D000AF80774207F00F070121DDF8FCB0C4F16A
:1069E000100ACDF810B0059144F0005106914FEA1D
:1069F0000A2101F4F85141F02101079106B96B46D3
:106A00000893002D40F09680002C00F0938004AB9A
:106A10000993002E00F0908046F000530A93002D59
:106A200040F08D80002C14BF0123212343EA07236B
:106A30000B9308A942F00053CDF830C03D980D915A
:106A40000E934FEA092343F041030F93109002B1D4
:106A50000CA9002A16BF00224FF00052412342EA3F
:106A60000E021191129213933C9B3D4A149310AB6A
:106A700015933C4B0021169340F6110317933A4BA4
:106A8000002D08BF1346189314AB1993374B1022EF
:106A90001A9311231B931CAB184626F0AFFA012260
:106AA0001D924AF080421E9200220346239205B9AD
:106AB000EB46102C08BF01230DF1900A1022002193
:106AC0005046CDF880B02193229426F097FA002CFE
:106AD00037D020AB002125938F4218BF534647F093
:106AE000804226923A9A2CA88A42289229931346E9
:106AF0000CBF4FF080430B46102233432B912A9357
:106B000026F07CFAFEB95346C8442D932CA948F0D0
:106B1000804318A82E93FFF70DFF30B92DB9034617
:106B2000A34212D1002818BF2C2031B0BDE8F08F4D
:106B3000102751E701236BE747F000536EE721234D
:106B400074E70123C6E728ABDEE703F1C0026A441D
:106B500012F8C02C01331043E2E700BFD7E803006E
:106B6000E8E8030010000020ECE803000400002027
:106B7000F0B5C0299FB0249E4FD0B1F5807F04D0DE
:106B8000802941D029201FB0F0BD40F2344440F2AA
:106B90001445002E08BF2C462127102501940124FE
:106BA0000296039404950597259F069706B102ACBB
:106BB00007940124089509940A9221220B940C95BC
:106BC0000D92174A0AAC0E92164A0F94109242F692
:106BD00011021192129313941495159201AA169210
:106BE000CBB112AB1793042318931123199316AB4F
:106BF0001A901B9340F61103C9081C911AA806A904
:106C00001D93FFF797FEBEE7002E14BF4FF4866476
:106C10004FF48264C0E70EABE4E70F20B3E700BF98
:106C2000F0E803001000001038B5164B5A6E42F021
:106C300004025A66D3F8802242F00102C3F880228F
:106C4000114B5B68C3F3080343B14FF0A842D36B09
:106C500013F0430FFBD11424204638BD4FF0A84356
:106C6000DC6B14F04304FBD1084D2B681BB90421E5
:106C7000284602F06DFF2B68013343F000432B6080
:106C8000EAE700BF0080005000ED00E0D81D0020C2
:106C9000014B00205B68704700ED00E04FF40052AC
:106CA000034B00209A660322C3F86022704700BF9E
:106CB000009000504FF40052034B00209A660322CC
:106CC000C3F86022704700BF00A00050012300F00D
:106CD0001F02A0F506200949A0F550604009934025
:106CE00051F820201A4341F82020054951F820206E
:106CF00022EA030341F82030704700BFDC1D00206A
:106D0000F01D00200121A0F506230F4AA3F55063D2
:106D10005B0900F01F0001FA00F052F8231008434D
:106D20000A4942F82300D1E900300344886803444B
:106D3000C868096903445B1802BFC2E90033C2E9AD
:106D400002331361704700BFF01D0020DC1D0020DE
:106D50002DE9F04FA9B002921D46DDE932670446E5
:106D60000822CDE90301414021FA02F34B40980784
:106D700002F1080218BF9B00202A1C44F4D1812391
:106D8000B4FBF3F303EBC313E41A7A4B04F50624C4
:106D90001B7804F55064002B40D1FDF755FF0146E8
:106DA00020B16FF0910029B0BDE8F08F402205902E
:106DB00008A826F023F94022059918A826F01EF904
:106DC000DFF8C891DFF8C8A14B4603F10F0B102282
:106DD00008A9DAF80000CDF800B0059325F063FAB1
:106DE00000220146059B09F110090DF1200891428E
:106DF0004CD1CDF800B01022DAF8000018A925F027
:106E00005BFA4FF0000B03460DF160085B4549D17A
:106E1000594B9945D8D10122564B1A704FF0810831
:106E20004FF00009DFF868A1A4F506235349A3F544
:106E30005062520951F8221004F01F0C21FA0CF193
:106E4000C90744D44E4951F8220020FA0CF010F042
:106E5000010030D0B9F1000F08BFA146A3F6FF44EE
:106E60008123B4FBF3F303EBC313E41A04F5062404
:106E7000B8F1010804F55064D6D1029BEBB1B9F129
:106E8000000F1AD0349BC3F800906DE058F8040B43
:106E9000CDE906230591FFF719FF069A079B05998F
:106EA0000132A4E758F8040B05930BF1010BFFF72F
:106EB00029FF059BAAE7029B13B96FF08B0072E7CD
:106EC000349BB9F1000F4ED0C3F800906BE70EB1C0
:106ED000002333600FB100233B604FF0100B002301
:106EE0002A462146DAF80000CDF800B012F0ACFDD9
:106EF00008BB0EB1C6F800B02B68224A934224D1D9
:106F000066B15FB13B462146DAF8000018AA12F0DC
:106F1000EFFD80B93B6832689B1A3B60D5E90223DC
:106F2000DDE90310834208BF8A4216D0A4F5062487
:106F3000A4F6FF4494E7144B984206D012339842CB
:106F400003D0133B9842E9D02BE72146DAF8000042
:106F500012F012FE0028E1D0AFE7029B13B16B687C
:106F6000012B03D0349B1C6000201CE76FF08400D1
:106F700019E700BFE82A002000710800DC1D00208E
:106F8000F01D0020105D175EFFDF00F0006D0800AF
:106F9000F00A00202DE9F04F87B0824689469846D6
:106FA0001646DDF840B02AB1002B4ED040F26C738B
:106FB0009A424DD8BBF1010F4DD8002406F11007BD
:106FC0003946012005941CF035FD0546002845D0C2
:106FD00021463A4626F012F805ABCDE9014300946C
:106FE0002B46012250464946FFF7B2FE044680B1C7
:106FF00010F18C0F08BF6FF08D043A46002128462F
:1070000025F0FCFF28461CF026FD204607B0BDE811
:10701000F08F144BC5E902A92B60C5F804B02EB15E
:107020003246414605F1100025F0C1FF0E483B46AF
:107030002A460599006812F06FFC18B90598FFF709
:1070400045FEDAE76FF09104D7E76FF08604DCE7DE
:107050006FF09104D9E76FF08504D6E76FF08C04E8
:10706000D3E700BF105D175EF00A00202DE9F04362
:107070008DB08146DDE914780C4615461E469BB15D
:10708000B8F1000F05D16FF0860420460DB0BDE8C1
:10709000F083002FF7D0B7F1005FF4D3C3F10053B2
:1070A00003F500439F42EED81022002108A825F0E6
:1070B000A5FF002207AB029305AB019306AB214667
:1070C0000093484608ABCDE90522FFF741FE044690
:1070D0000028DAD10599DEB1A94203D80029D2D11E
:1070E00015B1D0E70029FBD0491BB14228BF31467A
:1070F000069B0948C8F8001000913A4607990068B5
:107100002B4412F0A1FC002818BF6FF09104BCE7DB
:10711000A942E9D2B7E700BFF00A002030B58DB030
:107120000C4605461022002108A825F067FF002222
:1071300007AB029305AB019306AB214600932846AB
:1071400008ABCDE90522FFF703FE0446D0B9099B41
:10715000012B1AD0104B0799186812F00DFDB8B921
:10716000012207980D49A0F50623A3F550635B099A
:1071700000F01F05AA4051F823506A4041F823202F
:10718000FFF7C0FD20460DB030BD6FF08404F9E775
:107190006FF09104F6E700BFF00A0020DC1D00202C
:1071A0002DE9F04F89B007460E46FFF7B9F8C20740
:1071B00005D40524013C2ED16FF0920028E0102266
:1071C00000210DEB020025F019FF04A8FFF70AF9D2
:1071D000049B002BEDD0059B002BEAD0069B002BD7
:1071E000E7D0079B002BE4D00025DFF8908008F162
:1071F0000409B5421ED30124FFF78CF800F00E03FA
:10720000062B33D110F4807002D0FFF7B5F80020C0
:1072100009B0BDE8F08F01201BF0F3FF0028C9D1B1
:10722000FFF778F810F00E03FAD0022BF8D04305E0
:10723000DAD5BFE7FFF768F8A6EB050A84005445E6
:1072400028BF544699E8030000238DE80300CDE9E8
:10725000054307EB050BCDF810B0029404AAD8F84B
:10726000003007CA1BF0C9FE2544C2E7082BA3D88B
:1072700004FA03F313F48A7F9ED0BDE7FCE8030011
:107280001FB504A800E90E0011460198FFF788FF1A
:1072900070B1FFF719FBBFF34F8F0749074BCA685F
:1072A00002F4E0621343CB60BFF34F8F00BFFDE7F2
:1072B00005B05DF804FB00BF00ED00E00400FA0536
:1072C0002DE9F0438BB01746DDE91545DDE91326BE
:1072D0009C46DDE91738894621B96FF086000BB06E
:1072E000BDE8F083002FF8D00EB9002CF5D112992B
:1072F00009B9002AF1D10DB9002BEED1B8F1000F78
:10730000EBD0254A944544D10288B2F5105F40D1B4
:107310004288B7EBD20FE0D322F04001802902D09F
:10732000B2F5807FD9D11CB92046C8F80040D6E715
:10733000AE421CD23219954219D29C42CDD8314668
:107340002246284625F040FE2E4614F00F03C4D1F5
:10735000CDE90197CDE90336CDE90543CDE90754E1
:107360000993FFF79BFC38B16FF09200B7E79C429E
:10737000EBD96FF08900B2E707AA04A901A8FFF7CB
:10738000FDF80546FFF796FC2843EDD1C8F800400C
:10739000A5E76FF08500A2E7004440042DE9F04F17
:1073A000A9B0834617469A460E46DDF8C890DDF828
:1073B000D88029B96FF08603184629B0BDE8F08F50
:1073C000002AF7D0B9F1000FF4D0349B002BF1D094
:1073D000B8F1000FEED00024434B0CAD93E807004A
:1073E00085E807003C22214619A8189425F006FEDE
:1073F0003288718802F4E040B0F5804FDAD03B4E1D
:107400003B480BEA060646F01066864265D1B1F5A8
:10741000807F62D147F212118A425ED1062035493F
:10742000BAF11F0F0A69CB6800FB02F209680B93DF
:10743000CDE90C120E94BDD9339B402BBAD9359BA4
:107440001F2B4DD909F1010220261292402299F8F2
:1074500000300F97042B18AFCDE91324CDE9157236
:10746000109611941794A5D1FFF718FC0346002835
:10747000A2D10B9B15AACDE9086305AB07CA83E827
:10748000070002AB12AA07CA83E80700DDE9100172
:107490008DE803000F9B95E80700FFF749F90546C3
:1074A000FFF708FC55EA000384D13D46349A20AE2C
:1074B0002C4603CCB44210605160254602F108020C
:1074C000F6D100221046B9180132412A03D12022F8
:1074D000C8F8002070E70870F5E76FF085036BE7E8
:1074E0006FF0890368E700BF88E703000000FFF63C
:1074F000000002095CE80300F0B58C461D468BB025
:10750000002856D0002954D0002A52D0002B50D049
:107510000488B0F802E0234604F44F41B1F5824FED
:1075200018BF002423F0FF03B3F5E24FE4B203D009
:107530006FF085000BB0F0BD122C01D0172CF7D1E5
:107540000EF10703B2EBD30F4FEAD30734D31D4B31
:1075500004AEBEF5807F93E8070086E80700E7D118
:10756000122C07D1184B1A691B681344CDE9043259
:10757000002306930023CDE907C70993FFF78EFB8D
:107580000028D7D1114A02AB92E8030083E8030038
:107590000AAB13E903008DE80300079B96E8070098
:1075A0001BF0B1FC0446FFF785FB204307D12F6099
:1075B000C0E76FF08600BDE76FF08900BAE76FF0B3
:1075C0009200B7E788E703005CE80300F4E80300F3
:1075D0002DE9F0438FB01D46DDE916C6002863D0C3
:1075E000002961D0002A5FD0002B5DD0BCF1000FD4
:1075F0005AD0002E58D00388B0F802E01C4603F49D
:107600004F47B7F5824F18BF002324F0FF00B0F5B5
:10761000824FDBB24ED0B7F5824F4BD1122B01D047
:10762000172B47D10EF10700B2EBD00F4FEAD0086D
:107630003AD34FEA4802571C674538D8BEF5807FD9
:1076400038D1122B18BF4FF000094FF0000308BFCC
:107650001B4CCDE9081805F1010114BF4C46D4F8C4
:107660000C90CDE90B120A930D93FFF717FBC0B9ED
:10767000CDE9058902AB08AA07CA83E807000EAB6B
:1076800013E903008DE803000B9B94E807001BF04F
:1076900059FC0446FFF70EFB20430ED104232B7048
:1076A00037600FB0BDE8F0836FF08600F9E76FF048
:1076B0008900F6E76FF08500F3E76FF09200F0E7DE
:1076C0005CE803002DE9F04389B00D4614461F46DF
:1076D000DDF8488020B96FF0860009B0BDE8F0837E
:1076E0000029F8D0002AF6D0B8F1000FF3D00288B4
:1076F00002F44F43B3F5824F0CBF13460023DBB2B5
:1077000002D06FF08500E8E7122B01D0172BF8D1DB
:1077100022F0FF02B2F5E24F40D14288C8F80020C3
:10772000002A36D1E200C8F80020D8F80020B2F5CF
:10773000807FE6D1122B09BF384B00221A681B69E3
:1077400005EB040608BFD21800231846224412F89D
:1077500001CD16F8011D0843B1EB0C010CBF4FF031
:10776000FF3C4FF0000CB5420CEA030343EA01036F
:10777000EDD10028AFD0002BADDA109B9C4249D848
:1077800022462946384625F012FC119B00201C6039
:10779000A3E70732B4EBD20FC7D09CE72A78042ABC
:1077A00099D1621ED2005208B2F5807FC8F800203D
:1077B000A7D1122B05F1010318BF4FF000094FF0BC
:1077C000400205934FF000030ABF144E4E46D6F810
:1077D0000C90CDE90623FFF761FA00287FF47DAF16
:1077E000CDF80C90D8F800300733DB08029308ABD3
:1077F00013E903008DE80300059B96E807001BF0E2
:107800004AFC0646FFF756FA00287FF466AF002EC2
:10781000B3D060E76FF089005FE700BF5CE803006A
:107820002DE9F04F8FB00546DDE918A993461E46B5
:10783000DDF868801C9F09B300B3B8F1000F1DD0BC
:10784000E7B1BAF1000F02D1B9F1000F16D1284B00
:1078500026F47E129A4247D128461BF0CDFD0446FD
:10786000B0BB6B88BBEBD30F4FEAD30206D316F441
:107870007C1FC6F3054504D0102D03D96FF0860494
:1078800026E010251B9B9D422BD80023CDE9011239
:107890001022CDE905930DF12809CDE9033ACDE990
:1078A0000823CDF81C90FFF7F9F9044680B907AA20
:1078B00004A901A8FEF776FE0646FFF7FBF9044689
:1078C00056B958B92A464946404625F070FB3D60F6
:1078D00020460FB0BDE8F08F6FF0920400233B60AC
:1078E000F6E76FF08904F3E76FF08504F0E700BF77
:1078F0000002C0032DE9F041069F0C4616460546DE
:1079000010B309B302B9FBB96288B3EBD20F4FEAE7
:10791000D20819D34C220021284625F06FFB0D4BCD
:1079200027F47E129A4212D120461BF065FD0446D0
:1079300038B942463146281D25F039FBC5F8248068
:107940002F602046BDE8F0816FF08604F9E76FF004
:107950008504F6E70002C0032DE9F0410E46144607
:107960000546002840D000293ED012B90020BDE8CD
:10797000F08103681F4823F47E13834237D1AF6B35
:10798000E7B1C7F1100807F128004245284404D2A6
:1079900025F00DFB3C44AC63E8E7424625F007FBCD
:1079A0001022103C3C19AA63E0D0284605F12801BA
:1079B0001BF03EFD0028DAD14644A863102C0CD9F8
:1079C000671E27F00F073A46314628461BF030FD68
:1079D0000028CCD1E41BC9D03E442246314605F1F3
:1079E000280025F0E4FAD6E76FF08600BFE76FF0D5
:1079F0008800BCE70002C0032DE9F04388461F461B
:107A000005468BB070B169B163B10368234923F4B3
:107A10007E1088423ED113F47C1FC3F3054604D088
:107A2000102E03D96FF086042AE0102696422BD838
:107A3000FFF734F9044618BBAB6B05F12802CDE91A
:107A400001236B6A2A1DCDE904231023CDE90830F8
:107A500007AB1A460390069005F13C0901A904A85A
:107A6000CDF81C90FEF7C2FD0546FFF723F904464A
:107A70006DB928B932464946404625F098FA3E602D
:107A800020460BB0BDE8F0836FF08904F8E76FF093
:107A90009204F5E76FF08504F2E700BF0002C0032F
:107AA00007B56B46054A1068516803C36846FDF781
:107AB00041FF002003B05DF804FB00BF08E90300AC
:107AC00013B50024064A6846536F43F00103536719
:107AD00000948DF80440FDF765FE204602B010BD0D
