S01D00005065726970686572616C2D52652D64657369676E65642E73333777
S214012000C00A0020954701006329030063290300E5
S214012010513C03006329030063290300632903007D
S214012020632903006329030063290300632903006E
S2140120306329030054F103001727030063290300F3
S214012040632903006329030063290300632903004E
S214012050632903006329030063290300632903003E
S214012060632903006329030063290300632903002E
S2140120707D9C010063290300632903006329030093
S214012080632903006329030063290300632903000E
S21401209063290300B14F010063290300632903008C
S2140120A063290300815101005D510100632903008A
S2140120B063290300DDEE02006329030025F902000F
S2140120C021CE03001DCE030015F102002DCE030024
S2140120D025CE0300FDF8020029CE030065F90200B3
S2140120E0F5D20200B9D40200D5F902006329030033
S2140120F0632903006329030063290300632903009E
S214012100632903006329030063290300632903008D
S214012110632903006329030063290300632903007D
S214012120632903006329030063290300632903006D
S2140121306329030063290300993E0100E927030090
S214012140013800D0FCE77047002370B5404C0546C7
S2140121508AB0E36318B1008823600DF023F93D4887
S2140121602AF0BDF93C4E3D4B304633603C4B736024
S21401217025F07FF80021304617F040F832A3D3E966
S2140121800023A062C4E9062325F07EF8D4E90623DD
S21401219019431043C4E90601CDE900014FF0FF33AE
S2140121A04FF0FF32A06A2AF015FA02224FF0FF31F3
S2140121B0A06A2AF014FA01200CF074FE4FF40073A2
S2140121C000222849A06A2AF05DFAB0F5007F38D1CE
S2140121D000239422CDE9073309933C23CDE903324A
S2140121E005939623A06A03A9069317F025F935B33C
S2140121F0287C0DF085FA0546F0B9A06A2AF023FB83
S2140122000DF02CFA0CF030FE20B14FF48070002156
S21401221009F0DCFE0CF038FE20B14FF4006000211E
S21401222009F0D4FE25F0D2F8012017F03BF80E4A4B
S2140122300E49A06A25F01BF828460AB070BDFF209B
S214012240D7E70725F8E700BF0DD5015520000000A8
S214012250880F0020690345EC0824002029ED0100C1
S214012260182400200822002017720300577203006A
S21401227010B5054C237833B9044B13B1044800E07C
S21401228000BF0123237010BDE811002000000000EC
S214012290883C040008B5034B1BB10349034800E022
S2140122A000BF08BD00000000EC110020883C0400BF
S2140122B0A3F5803A704700BF174B002B08BF134B9E
S2140122C09D46FFF7F5FF00218B460F461348144A3B
S2140122D0121A2AF0F8FD0E4B002B00D098470D4B32
S2140122E0002B00D098470020002104000D000D4867
S2140122F0002802D00C4800E000BF1DF09BFD200026
S214012300290020F0FCF91DF081FD00BF0000080047
S2140123100000000000000000C00A0020180F002086
S214012320F82B0020000000000000000070B50446F5
S2140123300D4621B94FF41671084800F0ABF80E4669
S214012340062056F8043F33B906288ABFA3682B68CF
S2140123501B68636070BD20469847F2E760E403009F
S21401236038B5036804462BB183681BB145680B4A30
S214012370954203D0C8210A4800F08CF898470828EF
S21401238001D0D221F7E7A3681B6863602046A168E5
S214012390FFF7CCFF0728F9D838BD00BF68E4030073
S2140123A060E40300F0B504460F46456887B001B106
S2140123B025B94FF49671314800F06CF82E4639462F
S2140123C020467368984701283FD83668002EF6D114
S2140123D007B0F0BDEB681BB1204601919847019903
S2140123E02D6839E0906828B106A800EB830040F814
S2140123F0102C0133126837E05D1E6B1C13D13B694C
S2140124006760C3B12046984765682E4600270628B0
S214012410DED9A168A760AE420FD12046FFF786FF3E
S21401242065682E46F3E702AB53F8253020469B68D5
S2140124309847013DE1E70620E6E7EB681BB1204639
S2140124400191984701992D68E5E70628C0D9092822
S214012450DCD1A16867686560B542BBD12046FFF74D
S21401246065FF3A46002361688A4201D0032BB9DD35
S214012470042BC1DD40F22A319DE700BF60E4030072
S214012480024B0360024BC0E9013170477CE4030054
S21401249068E403000D4C07B50D49206821F052FA97
S2140124A00C49206821F04EFA01F01EFF20F0F6F9E3
S2140124B0094B0A4A0A49009320680E2321F042FA82
S2140124C0084A0949206821F03DFAFEE7501300202A
S2140124D03FEC030088E40300C2E403008DE403003C
S2140124E09AE40300A6E40300ACE40300014B836016
S2140124F00820704778EB0300014B83600820704783
S21401250060EB0300014B836008207047FCEA030080
S2140125100B68042B03BF024B836007200020704723
S214012520DCEA03000B68564A70B5934204463FD076
S21401253008D8544A93421BD002F1007293424FD0FE
S214012540002070BD504A9342FAD1032001F0ACFE40
S21401255060B14E4D4E49286821F0F4F901F0C4FEF1
S21401256020F09CF94B49286821F0ECF94A4B1CE015
S2140125704A4D2B681A7B02775B7BFF2B7DD00320AD
S21401258001F092FE60B1414E4149306821F0DAF91E
S21401259001F0AAFE20F082F94149306821F0D2F913
S2140125A02B685B7B84F826303E4B0720A360C8E788
S2140125B0032001F079FE60B1344D3549286821F0D9
S2140125C0C1F901F091FE20F069F93749286821F038
S2140125D0B9F9324B1B685B7984F82630334BE4E754
S2140125E02E4B1B68DB7A032B07D8DFE803F00216B5
S2140125F02636032001F058FE08B90220A1E7234C35
S2140126002349206821F09EF901F06EFE20F046F97C
S2140126102749206821F096F9EFE7032001F044FEF0
S2140126200028EAD0194C1A49206821F08BF901F0EC
S2140126305BFE20F033F91F49EBE7032001F034FE7F
S2140126400028DAD0114C1249206821F07BF901F0FC
S2140126504BFE20F023F91849DBE7032001F024FEA6
S2140126600028CAD0094C0A49206821F06BF901F00C
S2140126703BFE20F013F91149CBE7012061E700BFCB
S214012680A0000F03A0000600A0000F0450130020B6
S214012690CCE40300E2E4030018EB03006012002020
S2140126A0D1E4030024EB0300F5E4030008EB030088
S2140126B00BE5030018E503004EE5030086E503007D
S2140126C037B50B68384A044693422CD002F1407263
S2140126D002F54032934265D1344B1868238BB0F82B
S2140126E005209A4205D1827A04F11D010B302AF0A9
S2140126F0C3FB032001F0D8FD98B12D4D2D49286864
S21401270021F020F901F0F0FD20F0C8F894F820300F
S214012710627F0193E37F284900932868A37F21F015
S21401272011F902203CE090F8260010F085F8E060F0
S21401273010B31F4D2149286821F004F92049286863
S21401274021F000F901F0D0FD20F0A8F81D4B1E4A3B
S2140127501E4900932868D52321F0F4F81C49E36844
S2140127601C4A286821F0EEF8E06801F017FE1A49C5
S214012770286821F0E7F8FEE7032001F095FD60B137
S2140127800B4D0C49286821F0DDF801F0ADFD20F075
S21401279085F81249286821F0D5F80720104BA36068
S2140127A003B030BD0020FBE7A00006016012002048
S2140127B050130020CCE40300DBE503003FEC0300EC
S2140127C088E4030096E90300FDE503009AE40300AC
S2140127D014E603000DE6030029E603003AE60300CB
S2140127E054EB0300244B37B5054618680023C27A1C
S2140127F00093417A847A0123D0F8050041EA042146
S2140128000FF022FFE86018B31C4C1D49206821F028
S21401281099F81C49206821F095F801F065FD20F033
S2140128203DF8194B194A0093194940F2691320687B
S21401283021F088F81749EB68174A206821F082F8DA
S214012840E86801F0ABFD1549206821F07BF8FEE74A
S214012850032001F029FD60B1084C1149206821F0E0
S21401286071F801F041FD20F019F80E49206821F0B9
S21401287069F8042003B030BD601200205013002018
S2140128803FEC030088E4030032E90300FDE50300A2
S2140128909AE4030014E603000DE6030029E60300AC
S2140128A0CCE403005DE60300204B37B51B68054604
S2140128B0187B0FF009FFE86018B31D4C1D4920680E
S2140128C021F040F81C49206821F03CF801F00CFD8D
S2140128D01FF0E4FF194B1A4A1A490093206840F288
S2140128E0052321F02FF81849EB68184A206821F0D3
S2140128F029F8E86801F052FD1549206821F022F810
S214012900FEE7032001F0D0FC60B1094C11492068B4
S21401291021F018F801F0E8FC1FF0C0FF0E4920680E
S21401292021F010F8042003B030BD00BF6012002073
S214012930501300203FEC030088E4030014E9030071
S214012940FDE503009AE4030014E603000DE6030028
S21401295029E60300CCE4030076E6030037B50B68EE
S214012960474A0446934206D002F1A062934232D00F
S214012970002003B030BD434B10221D68424905F1CB
S2140129800A002AF069FAB0B9D5F805300320636168
S21401299001F08AFC08B90220EBE73C4C3C49206870
S2140129A020F0D0FF01F0A0FC1FF078FF3949206825
S2140129B020F0C8FFEFE7022001F076FC0028EAD0FD
S2140129C0324C3549206820F0BDFF01F08DFC1FF028
S2140129D065FF3249EBE743691BB1314B0720A36022
S2140129E0C7E7284B1B6818790FF05CFEE06018B348
S2140129F0264D2C49286820F0A5FF2B49286820F091
S214012A00A1FF01F071FC1FF049FF284B284A0093F3
S214012A1028494FF40C73286820F094FF2649E36890
S214012A20264A286820F08EFFE06801F0B7FC2449AA
S214012A30286820F087FFFEE7022001F035FC60B130
S214012A40124D1549286820F07DFF01F04DFC1FF05E
S214012A5025FF1C49286820F075FF022001F024FCA0
S214012A6060B10A4D0C49286820F06CFF01F03CFC6F
S214012A701FF014FF1449286820F064FF134BADE7DC
S214012A80A00009016012002095EC030050130020FD
S214012A90CCE4030098E60300BDE60300C2E60300AB
S214012AA0A4EB03003FEC030088E403000BEA0300F9
S214012AB0FDE503009AE4030014E603000DE60300B7
S214012AC029E60300DBE6030005E7030098EB0300B5
S214012AD0204B37B51B680446416918790FF006FE8E
S214012AE0E06018B31C4D1D49286820F02BFF1C49D7
S214012AF0286820F027FF01F0F7FB1FF0CFFE194BE7
S214012B00194A1A490093286840F2562320F01AFF02
S214012B101749E368174A286820F014FFE06801F0B7
S214012B203DFC1549286820F00DFFFEE7032001F063
S214012B30BBFB60B1084C1149206820F003FF01F08F
S214012B40D3FB1FF0ABFE0E49206820F0FBFE0420ED
S214012B5003B030BD60120020501300203FEC03008C
S214012B6088E40300E6E90300FDE503009AE40300B8
S214012B7014E603000DE6030029E60300CCE4030097
S214012B801AE70300F7B50B68874A0446934207D055
S214012B9002F18062934200F0AF80002003B0F0BDE6
S214012BA0824E10223568824905F1090738462AF017
S214012BB053F9002843D16B79AA79032043EA02230B
S214012BC0238301F071FB60B17A4D7B49286820F0C0
S214012BD0B9FE01F089FB1FF061FE7849286820F0F4
S214012BE0B1FE33680122218B18790FF095FDE06064
S214012BF008B90220D2E76F4D7149286820F0A2FE7D
S214012C007049286820F09EFE01F06EFB1FF046FE1C
S214012C106D4B6E4A00936E4940F26923286820F096
S214012C2091FE6C49E3686C4A286820F08BFEE068E8
S214012C3001F0B4FB6949286820F084FEFEE7102203
S214012C40384667492AF008F9002842D16B79AA79F3
S214012C50032043EA0223638301F026FB60B1554D4E
S214012C605549286820F06EFE01F03EFB1FF016FE67
S214012C705C49286820F066FE33680122218B1879AA
S214012C800FF04AFDE0600028B3D04A4D4C49286851
S214012C9020F058FE4B49286820F054FE01F024FB32
S214012CA01FF0FCFD484B494A009349494FF41D73F8
S214012CB0286820F047FE4749E368474A286820F01D
S214012CC041FEE06801F06AFB4449286820F03AFEBC
S214012CD0FEE7022001F0E8FA00288AD0354C424986
S214012CE0206820F02FFE01F0FFFA1FF0D7FD3F49C4
S214012CF0206820F027FE7CE7438B2BB1038B1BB1AA
S214012D003B4B0720A36049E7284B1B6818790FF057
S214012D10C9FCE06018B3274D2949286820F012FE47
S214012D202849286820F00EFE01F0DEFA1FF0B6FDF5
S214012D30254B264A0093264940F29323286820F023
S214012D4001FE2449E368244A286820F0FBFDE06878
S214012D5001F024FB2149286820F0F4FDFEE702205B
S214012D6001F0A2FA60B1134D1F49286820F0EAFD70
S214012D7001F0BAFA1FF092FD1E49286820F0E2FD24
S214012D80022001F091FA60B10A4D1749286820F037
S214012D90D9FD01F0A9FA1FF081FD1749286820F036
S214012DA0D1FD164BADE700BFA0000902601200205E
S214012DB085EC030050130020CCE403003AE703003F
S214012DC03FEC030088E40300C3E90300FDE50300CC
S214012DD09AE4030014E603000DE6030029E6030067
S214012DE075EC03006CE70300BDE603009BE70300F8
S214012DF08CEB0300B5E7030005E7030080EB030057
S214012E0010B5032001F050FA60B10A4C0A49206857
S214012E1020F098FD01F068FA1FF040FD0749206890
S214012E2020F090FD01F0E6F905481FF056FE04205B
S214012E3010BD00BF50130020CCE40300EBE70300F5
S214012E4058F0030008B502481FF047FE052008BDEC
S214012E5058F003000B6873B5042B044606D09E4A4F
S214012E60934200F0F781002002B070BD4B7A032B2D
S214012E7000F22181DFE813F004005E01E101E101C7
S214012E800A7A964B53F82230954A93425FD15323E0
S214012E9080F8213090F82530418B80F822300344A9
S214012EA05B7F0322DB43C3F3C01380F8233000F1BA
S214012EB02103007F0FF048FC032001F0F5F980B1F3
S214012EC0884D8949286820F03DFD01F00DFA1FF074
S214012ED0E5FC94F8233094F825208449286820F0EE
S214012EE031FD0122824B83481A701FF0F6FD002344
S214012EF07D21CDE90033804A804806F021FDE0605F
S214012F00002800F0D480774D7D49286820F01AFD0E
S214012F107C49286820F016FD01F0E6F91FF0BEFC9A
S214012F20794B7A4A00937A4940F21A33286820F09E
S214012F3009FD7849E368784A286820F003FDE068CF
S214012F4001F02CFA7549286820F0FCFCFEE7744A6B
S214012F50934253D190F8252083185B7F03F07F03BB
S214012F60632B37D80533642B88BF6423502180F840
S214012F70222080F8211080F82330418B00F12103B4
S214012F800322007F0FF0E0FBE06018B3554D5C496B
S214012F90286820F0D7FC5B49286820F0D3FC01F0B4
S214012FA0A3F91FF07BFC584B584A0093584940F24E
S214012FB0EB23286820F0C6FC5649E368564A286881
S214012FC020F0C0FCE06801F0E9F95449286820F0D7
S214012FD0B9FCFEE7032001F067F9002881D0414DD6
S214012FE04149286820F0AEFC01F07EF91FF056FC3E
S214012FF094F8233094F825204A496FE74A4A9342C9
S2140130007FF46FAF90F8252083185B7F13F07F0362
S21401301038D0053BDBB2642B88BF0023502180F8F3
S214013020222080F8211080F82330418B00F1210303
S2140130300322007F0FF088FBE06018B3294D30496A
S214013040286820F07FFC2F49286820F07BFC01F0DF
S2140130504BF91FF023FC2C4B2C4A00932C4940F2D1
S2140130600133286820F06EFC2A49E3682A4A28685A
S21401307020F068FCE06801F091F92849286820F002
S21401308061FCFEE7032001F00FF900283FF429AFA9
S214013090144D1549286820F055FC01F025F91FF05C
S2140130A0FDFB94F8233094F82520204916E70320E9
S2140130B001F0FAF808B90220D6E60A4C0A49206857
S2140130C020F040FC01F010F91FF0E8FB18492068D9
S2140130D020F038FCEFE700BFA0000601CC0A002074
S2140130E010F0030050130020CCE40300F8E70300BF
S2140130F0B72A002058F00300313A01002C120020B4
S2140131003FEC030088E403006FE90300FDE50300DC
S2140131109AE4030014E603000DE6030029E6030023
S21401312028F003000AE8030040F003001EE803004D
S21401313032E80300564B0A7A53F82220554B9A423E
S214013140B9D190F82530418B022B8EBF0023013375
S214013150DBB280F82530032200F12103007F0FF057
S214013160F3FA0646E06018B34B4D4C49286820F048
S214013170E9FB4B49286820F0E5FB01F0B5F81FF0A4
S2140131808DFB484B484A0093484940F22B33286848
S21401319020F0D8FB4649E368464A286820F0D2FB6F
S2140131A0E06801F0FBF84449286820F0CBFBFEE715
S2140131B00225424B42481D701FF08FFC33467D218D
S2140131C0CDE900663F4A404806F0BAFBE06018B316
S2140131D0314D3249286820F0B5FB3149286820F086
S2140131E0B1FB01F081F81FF059FB2E4B2E4A0093DC
S2140131F02E4940F23A33286820F0A4FB2C49E368B4
S2140132002C4A286820F09EFBE06801F0C7F82A499E
S214013210286820F097FBFEE7032001F045F8002818
S2140132203FF449AF1C4C2949206820F08BFB01F084
S2140132305BF81FF033FB264949E7032001F034F819
S21401324020B1154B2349186820F07CFB002024F0A0
S21401325052FF30E71C4806F053FAE06098B90320A5
S21401326001F022F860B10C4D1849286820F06AFB7D
S21401327001F03AF81FF012FB1749286820F062FBAC
S2140132800F481FF027FC154B0720A360ECE500BF95
S214013290CC0A002010F00300501300203FEC03007E
S2140132A088E403006FE90300FDE503009AE40300E8
S2140132B014E603000DE6030029E60300B72A002002
S2140132C058F00300313A01002C120020CCE4030030
S2140132D03EE803004AE8030058E80300ECEA03006E
S2140132E037B5494B0A6804469A4240F08A80032063
S2140132F000F0DAFFA0B1454D4549286820F022FBD1
S21401330000F0F2FF1FF0CAFA424B19684889CB88D1
S2140133108A8801900989286800913F4920F012FBAC
S21401332000F050FB00234FF6FF725021CDE900322A
S2140133300846642302220FF063F9E06010B3334DB0
S2140133403649286820F0FEFA3549286820F0FAFA4E
S21401335000F0CAFF1FF0A2FA324B334A33490093FA
S2140133602868832320F0EEFA3149E368314A286859
S21401337020F0E8FAE06801F011F82F49286820F0FB
S214013380E1FAFEE7032126200FF042FAE06010B3CF
S2140133901E4D2249286820F0D5FA2149286820F0D8
S2140133A0D1FA00F0A1FF1FF079FA1E4B1E4A1F4901
S2140133B000932868862320F0C5FA1D49E3681D4A54
S2140133C0286820F0BFFAE06800F0E8FF1A4928688C
S2140133D020F0B8FAFEE7032000F066FF60B10B4D5F
S2140133E00B49286820F0AEFA00F07EFF1FF056FA6F
S2140133F01249286820F0A6FA0720114BA36003B0F3
S21401340030BD0020FBE700BFA000010050130020E4
S214013410CCE40300601200206DE803003FEC0300DB
S21401342088E40300ACE90300FDE503009AE4030029
S21401343014E603000DE6030029E6030095E8030001
S2140134406CEB030037B505460FF0C2F9E86018B318
S214013450134C1449206820F075FA1349206820F0AF
S21401346071FA00F041FF1FF019FA104B104A11498A
S2140134700093206840F2131320F064FA0E49EB68BB
S2140134800E4A206820F05EFAE86800F087FF0C49D3
S214013490206820F057FAFEE7052003B030BD00BFD4
S2140134A0501300203FEC030088E403005AE90300B0
S2140134B0FDE503009AE4030014E603000DE60300AD
S2140134C029E6030037B50B682E4A044693420AD014
S2140134D002F1806202F58022934251D0052B4DD035
S2140134E0002003B030BD284B18680579032D01D0A4
S2140134F00120F6E7817D173000F0F2F90028F7D0B9
S214013500284600F0D1FE60B1204D2149286820F000
S21401351019FA00F0E9FE1FF0C1F91E49286820F0EB
S21401352011FA1D4806F0ECF8E06018B3174D1B4978
S214013530286820F007FA1A49286820F003FA00F0F4
S214013540D3FE1FF0ABF9174B174A0093174940F209
S2140135502713286820F0F6F91549E368154A286804
S21401356020F0F0F9E06800F019FF1349286820F010
S214013570E9F9FEE7114B0720A360B2E7104BFAE723
S2140135800220AEE7A00005006012002050130020C4
S214013590CCE40300A9E803002C1200203FEC030052
S2140135A088E4030047E90300FDE503009AE403000D
S2140135B014E603000DE6030029E6030044EB0300CE
S2140135C034EB030010B500F015FE032000F06CFE8E
S2140135D060B1074C0749206820F0B4F900F084FE7A
S2140135E01FF05CF90449206820F0ACF9042010BDF6
S2140135F050130020CCE40300C7E803000149FEF79E
S2140136003FBF00BFED24010030B585B0044600F091
S2140136100DFE4EF6602003A906F030F938B90346D0
S214013620CDE90000354A0399354820F029FBE060D2
S21401363018B3344D3449286820F084F93349286892
S21401364020F080F900F050FE1FF028F9304B314A87
S21401365031490093286840F2011320F073F92F498D
S214013660E3682F4A286820F06DF9E06800F096FEBE
S2140136702C49286820F066F9FEE7012120461FF054
S21401368037F808460FF0B0F8E06018B31D4D1E4934
S214013690286820F057F91D49286820F053F900F0F2
S2140136A023FE1FF0FBF81A4B1A4A1B4900932868A1
S2140136B04FF4857320F046F91849E368184A2868DC
S2140136C020F040F9E06800F069FE1749286820F00C
S2140136D039F9FEE7032000F0E7FD60B1094C134914
S2140136E0206820F02FF900F0FFFD1FF0D7F81049F1
S2140136F0206820F027F9042005B030BD6D3A01009E
S2140137002C120020501300203FEC030088E4030035
S21401371081E90300FDE503009AE4030014E60300D3
S2140137200DE6030029E60300D3E80300CCE403001A
S21401373003E9030004220A4B70B500251A60E02253
S2140137401D715A71074B1C682046FFF757FF236807
S2140137502A4629462046BDE870401B68184700BF28
S2140137605412002010E903003D4B37B51B78002B9F
S21401377038D03C4805F0C4FF054610B33A4C3B49E7
S214013780206820F0DFF83A49206820F0DBF800F0E6
S214013790ABFD1FF083F8374B374A009337497F2339
S2140137A0206820F0CFF836492B46364A206820F0AC
S2140137B0C9F8284600F0F2FD3349206820F0C2F827
S2140137C0FEE7032000F070FD60B1274C2F4920680A
S2140137D020F0B8F800F088FD1FF060F82C4920684A
S2140137E020F0B0F82B4B1A78CAB1002203201A70C9
S2140137F000F05AFD60B11C4C2449206820F0A2F864
S21401380000F072FD1FF04AF82349206820F09AF86C
S214013810224B00221868224903685B689847214CAE
S2140138202378DBB1032000F03FFD60B10E4D174950
S214013830286820F087F800F057FD1FF02FF81A4986
S214013840286820F07FF80022144B18491868227067
S21401385003685B6803B0BDE83040184703B030BD6D
S214013860B82A00202C120020501300203FEC030041
S21401387088E4030062EC0300B0EB03009AE4030063
S21401388014E6030011E6030029E60300CCE4030076
S214013890B9EB0300B92A0020C9EB030010E90300C5
S2140138A054120020BB2A0020DAEB0300A8EC030028
S2140138B0084B094918600368002223F47F4323F06C
S2140138C007030B60E0234B71044B0A711868036809
S2140138D05B681847601200204C12002010E90300B4
S2140138E02DE9F04105460F460024DFF83480BC423E
S2140138F002D30020BDE8F0812B195B782E5D063BD4
S214013900012B06D8A01C10224146284429F0A4FA0F
S21401391018B101363444E4B2E9E70120EAE700BF12
S21401392095EC030073B51B4E044633785BBB1A490E
S2140139301A480EF093FF054618B3194C194920682A
S21401394020F000F8184920681FF0FCFF00F0CCFCBE
S2140139501EF0A4FF154B164A0093164940F20513B4
S21401396020681FF0EFFF14492B46144A20681FF009
S214013970E9FF284600F012FD114920681FF0E2FF1A
S214013980FEE70123337014B1034B1B782370034801
S21401399002B070BDBA2A0020B62A0020B02A002044
S2140139A0501300203FEC030088E4030041EC0300C1
S2140139B0B0EB03009AE4030014E6030011E60300EB
S2140139C029E6030030B589B00DF11F00FFF7AAFF05
S2140139D00446032000F068FCF0B1104D1049286839
S2140139E01FF0B0FF00F080FC1EF058FF22786379CC
S2140139F0049262789DF81F000392A2780949029208
S214013A00E278019222790092074A002808BF0A4606
S214013A10064928681FF096FF09B030BD50130020F4
S214013A20CCE40300FDEB0300EFEB03000BEC03001B
S214013A3010B50B4C23787BB10A481FF051F830B112
S214013A4008481FF04AF82378013B237010BD05484B
S214013A50BDE810401FF041B80122034B1A70F5E78C
S214013A60B72A002058F00300B82A00200122014B93
S214013A701A707047BB2A00200122034B1A70034BB1
S214013A8059721872704700BFB92A002054120020DC
S214013A9030B503687F4A23F47F4323F0070393423C
S214013AA089B040F0F4800822002114207A4B0EF0F1
S214013AB061FE044610B3794D794928681FF042FF2C
S214013AC0784928681FF03EFF00F00EFC1EF0E6FE67
S214013AD0754B764A009376493D2328681FF032FFDE
S214013AE074492346744A28681FF02CFF204600F0CC
S214013AF055FC724928681FF025FFFEE701460322A0
S214013B0016206F4B0EF036FE044610B3634D644923
S214013B1028681FF017FF634928681FF013FF00F09D
S214013B20E3FB1EF0BBFE604B604A009360494B23EB
S214013B3028681FF007FF5F4923465F4A28681FF081
S214013B4001FF204600F02AFC5C4928681FF0FAFEB7
S214013B50FEE70146052218205A4B0EF00BFE0546DD
S214013B6010B34E4C4E4920681FF0ECFE4D492068BC
S214013B701FF0E8FE00F0B8FB1EF090FE4A4B4B4AE1
S214013B8000934B49592320681FF0DCFE49492B4618
S214013B90494A20681FF0D6FE284600F0FFFB474939
S214013BA020681FF0CFFEFEE70DF10F0104A80EF00E
S214013BB055FE044610B3394D394928681FF0C2FE38
S214013BC0384928681FF0BEFE00F08EFB1EF066FE28
S214013BD0354B364A00933649642328681FF0B2FEF7
S214013BE034492346344A28681FF0ACFE204600F0CC
S214013BF0D5FB324928681FF0A5FEFEE79DF8153073
S214013C0001468DF818309DF8143008228DF81930C9
S214013C109DF813301A208DF81A30FF238DF81B30CB
S214013C20FE238DF81C309DF812308DF81D309DF85E
S214013C3011308DF81E309DF810308DF81F3006AB10
S214013C400EF098FD054610B3144C154920681FF078
S214013C5079FE144920681FF075FE00F045FB1EF042
S214013C601DFE114B114A00931149742320681FF061
S214013C7069FE10492B46104A20681FF063FE28464D
S214013C8000F08CFB0D4920681FF05CFEFEE709B0D2
S214013C9030BD00BFA0000100B0EC030050130020AF
S214013CA03FEC030088E40300EBEC0300B9EC0300EF
S214013CB09AE4030014E6030011E6030029E6030074
S214013CC0E1EC0300E5EC030010B5234C01F040FDE8
S214013CD001F06AFF236F23F0070343F00303236712
S214013CE01FF053F81D4B00209B6A9B075EBF012205
S214013CF01B4B9A62D4F8203123F0030343F00203EE
S214013D00C4F82031D4F8243123F0070343F002032A
S214013D10C4F82431D4F8403123F0030343F00203FE
S214013D20C4F84031D4F8603123F0030343F00203B2
S214013D30C4F86031D4F8403223F0030343F00203A1
S214013D40C4F84032D4F8003223F0070343F00203EC
S214013D50C4F8003210BD00BF0080005000C0005003
S214013D6000E0005008B502F06FFC01280ED1144B9C
S214013D7004205A6E4FF480231249520358BF124A48
S214013D804B6601F51041086258BF536604F090FA7D
S214013D901EF0A4FD04F01AFA04F074FA04F038FADE
S214013DA01FF07CFDFFF790FF04F020FA1EF08BFD5C
S214013DB000F0AAFD01F0F6F9BDE8084004F086BF60
S214013DC0008000500090005000A0005030B51F4DFC
S214013DD09DB009AC0FCD0FC495E80F0084E80F0025
S214013DE02822002112A829F06EF8194B4FF48014EE
S214013DF011933823139305231593062310220021CC
S214013E0005A8179329F05FF8124B09AACDE90343D9
S214013E103E238DF814303F238DF815300E4B03A941
S214013E2006932023079301238DF820300B4B0C4873
S214013E30009311AB04F0CEFA044600214FF416505D
S214013E401EF080FD20461DB030BD00BFF0EF030020
S214013E500000035A3400035ABC2A002064120020D2
S214013E60DC120020022905D8034B1B68186808B12C
S214013E70436A1847704700BFC80A002008B50449BE
S214013E80044804F0E7FFBDE80840FFF79FBF00BF06
S214013E90C00A0020D412002001481FF08ABD00BFCE
S214013EA0DC120020014B1A6A18681047DC12002049
S214013EB008B505481EF07AFD04481EF077FDBDE8FA
S214013EC0084003481EF072BD10F0030028F00300FE
S214013ED040F0030001481EF0FABD00BF58F0030091
S214013EE0184B37B583422AD1174B1B783BB3C8B260
S214013EF00EF0D8FB054610B3144C154920681FF088
S214013F0021FD144920681FF01DFD00F0EDF91EF09B
S214013F10C5FC114B114A12490093206885231FF0F6
S214013F2011FD10492B46104A20681FF00BFD28464C
S214013F3000F034FA0D4920681FF004FDFEE703B0D7
S214013F4030BD00BF00130020DC2A002050130020E3
S214013F503FEC030088E40300E8F0030070F0030080
S214013F609AE4030014E6030011E6030029E60300C1
S214013F7030B5002403685D4A23F47F4323F007032A
S214013F8085B0934205468DF808408DF809408DF8B6
S214013F900A408DF80B408DF80C408DF80D407ED010
S214013FA002F5802293420ED0A2F18272934240F033
S214013FB09A804F4B1B78002B00F0958005B0BDE82A
S214013FC030401FF020BFB0F80530222B40F08B8028
S214013FD0FF2304A91A4611E903001EF058FC012824
S214013FE014BF41F2FC14424B04F0FC0208BF1870E7
S214013FF0222128790EF0D4FB044610B33D4D3E49EC
S21401400028681FF09FFC3D4928681FF09BFC00F0C4
S2140140106BF91EF043FC3A4B3A4A00933A4959234E
S21401402028681FF08FFC39492346394A28681FF053
S21401403089FC204600F0B2F9364928681FF082FC58
S214014040FEE7354900902B79344A0968344800F078
S214014050FDF90546002846D0264C274920681FF062
S21401406071FC264920681FF06DFC00F03DF91EF03A
S21401407015FC234B234A00932349622320681FF033
S21401408061FC22492B46224A20681FF05BFC284629
S21401409000F084F91F4920681FF054FCFEE7B0F8D1
S2140140A00530B7EE047A07EE903AF8EE677AB0F884
S2140140B0073027EE877A013307EE903AF8EEE77A73
S2140140C067EE277AB1EE047A67EE877AFAFE677AA8
S2140140D0FCEEE77A17EE903AB3F57A7F38BF4FF4E5
S2140140E07A730D4A136005B030BD00BFA00006020A
S2140140F0DC2A0020501300203FEC030088E4030074
S214014100F7F0030070F003009AE4030014E60300DE
S21401411011E6030029E60300D80A0020E13E01006B
S2140141200013002004210022034B19711A60197331
S2140141309A6019751A617047381300202DE9F84303
S2140141401F4B06461B78ABB90325DFF87C901D4C48
S21401415059F8043BB34207D130461EF02CFC012827
S2140141600AD11FF00EFE2060013D15F0FF0504F197
S2140141700804EDD1BDE8F88330461EF01CFC8046ED
S2140141800028F1D11FF0FDFD2368C71AFA2005F0BB
S21401419063FBB84202D984F80480E5E74FF47A70ED
S2140141A005F05AFBB84202D901232371DCE741F23C
S2140141B0883005F051FBB8428CBF02230323F4E795
S2140141C0190D002038130020CC0A002070B50024F9
S2140141D00426074D2979E0B2042902D0FFF74CFCEA
S2140141E02E710134032C05F10805F3D170BD00BF13
S2140141F03813002070B50024094D0A4E55F8040BFB
S2140142001EF0D9FB012803D11FF0BBFD46F8340090
S2140142100134032CF2D10022034B1A7070BD00BF8B
S214014220CC0A002038130020190D0020064B1A78FE
S2140142304AB9012119700421044B19711A601973C6
S2140142409A6019751A617047190D002038130020FD
S214014250074B187850B9074B1A79042A06D11A7BEE
S214014260042A03D1187D031F58425841704700BFE6
S214014270190D002038130020094B1B785BB9094B38
S2140142801879042809D11A7B042A07D11B7D042B2F
S21401429008BF01207047012070470420704700BF07
S2140142A0190D0020381300200B4B02461B788BB1EA
S2140142B00A4B1B78834234BF00200120084B1B7831
S2140142C03BB1084B1B7843FA02F212F0010F08BF0C
S2140142D0002070470120F1E71A0D00201B0D002079
S2140142E0DD2A00201C0D002073B505F095FA4FF469
S2140142F07A740E46054605F0A9FA0246A5FB0401A6
S214014300002304FB06111BF0E9FB4EF66023B0FB0D
S214014310F4F23C21B0FBF3F304FB12040194B2FB6C
S214014320F1F4B3FBF1F501FB14220092054A01FBFF
S2140143301533B0FBF2F20448044900681FF002FB93
S21401434002B070BD80EE36005013002017F1030056
S214014350012208B5074B1A700022074B1A70042277
S214014360064B1A701F22064B1A7003F0CBFF054B43
S214014370186008BD1A0D0020DD2A00201B0D002044
S2140143801C0D002050130020024B034918681FF033
S214014390D9BA00BF501300202EF1030070B50C4CA3
S2140143A00C49064620681FF0CDFA03F0ABFF054620
S2140143B0206803F09BFF3046FFF7E6FF284603F030
S2140143C095FF20680449BDE870401FF0BBBA00BFE6
S2140143D05013002030F1030032F1030038B50546D2
S2140143E01EF0EFFC00230B4A14685CB1AC4206D108
S2140143F0A96A6BB199621EF0EAFC012007E0234628
S214014400A46AF2E7002DF3D01EF0E1FC204638BD89
S2140144101160F0E75413002010B5044690B105F082
S2140144206FF92046FFF7DAFF58B194F82C0040B137
S2140144301EF0C7FC044A1368013B13601EF0C7FC5C
S214014440002010BD2220FCE7581300202DE9F04F74
S21401445085B00546914698460E469DF8387009B9CE
S214014460002F66D12846FFF7D7FF0446002840D123
S21401447085F82C00686305F097FA86423DD905F069
S214014480E5F940F2E7318C462146E6FB00C14FF4E0
S2140144907A72604600231BF021FB4FF0FF320023A7
S2140144A083468A461BF01AFB4FF0FF32E88600234C
S2140144B0584651461BF012FB2B4611462846CDE9BD
S2140144C000441D4A1FF038FC044690B9C5E9089817
S2140144D085F82D702E631EF074FC184A136833B3EA
S2140144E01A469B6A002BFBD195620023AB621EF035
S2140144F06EFC204605B0BDE8F08F47B12B4631462D
S2140145002846CDE900440C4A05F0D6F9DCE73046EA
S21401451003A905F0B3F904460028EAD12B4628463C
S214014520CDE90077044A03991FF0E2FBCCE715605A
S214014530DBE72124DDE700BF4145010054130020DD
S21401454091F82C3013B50C4683B98B8ECA8E9342E4
S2140145500ED243B9CDE9003320460B46104A4FF040
S214014560FF311FF0A9FBA38E0133A38602B010BD55
S21401457052B191F82D307BB101230093D1E9082384
S2140145802046096BFFF762FF0123064A84F82C30A8
S214014590136801331360E9E7084605F0B1F8F3E75D
S2140145A041450100581300202DE9F041144E3368AF
S2140145B023B34FF00008134F1EF003FC05463C687A
S2140145C024B92846BDE8F0411EF001BC94F82C3011
S2140145D093B1336884F82C80013B336094F82D3016
S2140145E013B92046FFF7FAFE28461EF0F0FBD4E981
S2140145F0083120469847DFE7A46AE1E7BDE8F08185
S2140146005813002054130020034B1B68002B0CBFCB
S21401461001200420704700BF58130020024B186881
S214014620B0FA80F0400970475813002007B50820FB
S2140146301EF034FA02238DF80030054B68460193CC
S2140146401EF050F9082003B05DF804EB1EF032BAF4
S214014650006A18102DE9F047434D88B001AC0FCD24
S2140146600FC495E80700012584E8070001213A20D8
S21401467000F092FFDFF8FC800121282000F08CFF7B
S2140146803A4B404601A903938DF8125002F01CF8EC
S2140146902B4604220021022001F0E0FD2A4629468D
S2140146A00023022001F0DAFD02212B4608460422EF
S2140146B001F0D4FD042203212B46022001F0CEFD99
S2140146C04FF002132A4C0226C4F83036A3F5803385
S2140146D0C4F82C361C230827C4F8346604F5005A9F
S2140146E0C4F81C364FF4487005F0FAFA04F5805900
S2140146F01420CAF8707005F0F3FA2320C9F8707018
S21401470005F0EEFAB9214046CAF870701EF0E0FBDB
S214014710002330461A461946C9F8707001F09EFD0E
S214014720002329461A46304601F098FD2B463146AD
S2140147303046002201F092FD2B460022032130462E
S21401474001F08CFD404601F091FF00212820C4F8BD
S2140147503016C4F82C16C4F83416C4F81C1600F02B
S2140147601BFF08B0BDE8F08738F1030000127A009D
S21401477000C0035000C005500348044A0449121AF9
S21401478092101EF0EFB800BFF4400400F44004009D
S214014790F82B002008B500F02FF8FFF7EDFF124BBD
S2140147A012498B4212D30020114B12498B4218D367
S2140147B0FDF782FD186850F82240586840F82240FC
S2140147C0013298688242F5D30C33EAE70022F8E713
S2140147D01C6844F8220001325C68A242F8D3083310
S2140147E0E4E70022F8E700BF903C04009C3C04008C
S2140147F09C3C04009C3C04004FF400414FF0FF3009
S214014800124B134A10B59A60D3F8882042F470020E
S214014810C3F888200F4A916601F1884101F50052DC
S21401482010664FF6DF7050660220C3F8D000BFF363
S2140148304F8FBFF36F8F08244FF440330648C0F8FC
S2140148408041D36004600B6110BD00BF00ED00E045
S214014850002001000090005000E100E0014B1868C4
S214014860704700BFE00A0020084B1B6F03F00703E8
S214014870022B04D0032B05D0012B05D0FEE7044BF9
S21401488018687047034BFBE70348704700800050E9
S214014890E00A0020E40A0020002D310108B5FFF7E8
S2140148A0E3FF054B1B6FC3F303330133B0FBF3F098
S2140148B0024B186008BD00BF00800050DC0A0020D3
S2140148C00048704700B4C404014B1868704700BF25
S2140148D0E40A0020054B1860054B1B6F03F0070325
S2140148E0032B01D1FFF7DABF704700BFE40A0020AF
S2140148F00080005000487047002D3101014B1868B8
S214014900704700BFE80A00200020836A10B5B3F59F
S214014910903F0ED21968084A91420AD1074C227874
S21401492012F0FD0F04D1DB69984708B90123237003
S21401493010BD4FF48170FBE707B0CD5EDE2A002084
S2140149404FF00053074A1A60BFF34F8F0649074BD3
S214014950CA6802F4E0621343CB60BFF34F8F00BF17
S214014960FDE700BF02020FF000ED00E00400FA05CB
S21401497005490A681318054883428CBF4FF0FF3279
S2140149800B601046704700BFEC0A00200080002034
S214014990F7B50468012105463A2000F0FDFD002325
S2140149A001226179207901F059FC14233021227902
S2140149B011FB023101F1A04101F5703109686379FB
S2140149C0D940C943A37901F00101022B217017D107
S2140149D000F044FB164A2B466179207900F068FB0B
S2140149E0FF28024660790ED12A46114900F08AFB5B
S2140149F00123024661792079CDE9003301F0D6FB27
S214014A00002003B0F0BD0126277900230146009659
S214014A10384601F085FC2A460549607900F072FBAC
S214014A200023617902462079009301963346E5E733
S214014A30C129030008B501213A2000F0ADFD03218C
S214014A4001230422002001F009FC00201EF027FAB1
S214014A500122214B4FF46070C3F844241EF0CDF8B8
S214014A601E4B00F5D520D3F8F02000F2FC4042F0B2
S214014A700102C3F8F020D3F8FC2042F08072C3F89C
S214014A80FC20174AA3F55D431A60164B0222B0FBC1
S214014A90F3F0154B01381861C3F8F0204FF480721B
S214014AA0C3F804234FF06043104A0020C3F8B02F28
S214014AB00F4AC3F8802ED3F8002E42F48072C3F852
S214014AC0002EFF2283F82020D3F8002E22F48072D5
S214014AD0C3F8002E08BD00BF00D0035000ED00E073
S214014AE0FF030040F8590D00000004E055CEACC5A8
S214014AF0090001004FF06043D3F8802E30B5D2078D
S214014B0015D501240B4D8440D5F8FC2042F0807267
S214014B10C5F8FC20D3F8002E2243C3F8002E53F824
S214014B202020002AF0D003F82010002030BD1120EC
S214014B30FCE700BF00ED00E010B5012243780178E4
S214014B40847830209A40054B00FB01331CB942F2B1
S214014B5010015A5010BD41F21001FAE700C003508F
S214014B6010B5012243780178847830209A40054BAD
S214014B7000FB01331CB941F210015A5010BD42F23C
S214014B801001FAE700C003502DE9F04F9A46564B44
S214014B9085B01B7806460F461546DDF83C909DF815
S214014BA044B0DDF85080002B00F08D80072A00F21B
S214014BB08C800E9B002B00F08880B9F1000F00F06E
S214014BC08480129BB3F5006F7FDC012802D1109B15
S214014BD0002B7AD0454B03EB05131B7B002B76D0BD
S214014BE0434C10220021684628F06DF904EB451469
S214014BF01022002F59D13946204628F064F943F295
S214014C0010036380BBF1000F03D1E37843F0030385
S214014C10E370374A0E9B02EB451CCCE90193129BCD
S214014C206901013BC3F30A009DF84C30012E03F0E5
S214014C3003034FEA836343EA001E53582D48CDF819
S214014C4000A000EA03004EEA0003535041D11323AB
S214014C500CF1100ECCF80C309CE80F008EE80F001B
S214014C606FF00301DCF81C20109B61F39F02012FFB
S214014C70CCF81C20CCF8143003D1CCF81890CCF822
S214014C8004300027194A290102EB051342F8018076
S214014C90159A28465A60694622469F605E7301F05F
S214014CA0BBFB384605B0BDE8F08F0021204628F052
S214014CB00AF94FF444736380BBF1000FA9D1E3787E
S214014CC043F03003A4E70C48ECE70C48EAE70C484D
S214014CD0E8E7B8F1000FD4D19CF8023068F304136A
S214014CE08CF80230CDE700BFDF2A00205C130020DD
S214014CF0DC1300200F80FFF3028000F0018000F03B
S214014D00078000F038B5124B05461B78DBB1E0B1E1
S214014D101EF057F80F4A00231146147B54B92B6036
S214014D2001251A0101EB03131D738C501EF04FF879
S214014D30204638BD0133082B02F11002EDD11EF0DA
S214014D4046F80548F5E70548F3E70548F1E700BFEB
S214014D50DF2A00205C130020048000F0028000F0AF
S214014D60018000F013B51EF02CF800230B4A147BCB
S214014D707CB90133082B02F11002F8D1019001F041
S214014D80EDFA074B01981C701EF021F8204602B080
S214014D9010BD1EF01CF80348F9E700BF5C130020A5
S214014DA0DF2A0020058000F00D4B10B51B78044665
S214014DB093B1072812D81EF004F80A4B03EB04132C
S214014DC01A7B2AB100241C731EF001F8204610BD80
S214014DD01DF0FDFF0448FAE70448F8E70448F6E743
S214014DE0DF2A00205C130020068000F0028000F01D
S214014DF0018000F0154B13B51868002301908DF85B
S214014E0004301DF0DEFF124B1C7824B11DF0DFFFCD
S214014E10104802B010BD01221A701DF0D8FF0E4BCB
S214014E2001A81C731C7783F82C4083F83C4083F858
S214014E304C4083F85C4083F86C4083F87C40082340
S214014E408DF8073001F0B6FA2046E2E7A4F1030038
S214014E50DF2A0020038000F05C1300200A4A08B510
S214014E6012785AB107280BD8084A02EB00131B7BAD
S214014E7043B1002101F090FA002008BD0448FCE788
S214014E800448FAE70448F8E7DF2A00205C1300200C
S214014E90028000F0018000F0078000F00A4A08B5A1
S214014EA012785AB107280BD8084A02EB00131B7B6D
S214014EB043B1012101F070FA002008BD0448FCE767
S214014EC00448FAE70448F8E7DF2A00205C130020CC
S214014ED0028000F0018000F0078000F00A4A08B561
S214014EE0127852B107280AD8084A02EB00131B7B36
S214014EF03BB101F0DBFA002008BD0548FCE7054898
S214014F00FAE70548F8E700BFDF2A00205C13002017
S214014F10028000F0018000F0078000F00D4B1B7846
S214014F2093B1072812D889B10B4B03EB00131B7BF7
S214014F3073B10A4B1A6D012303FA00F010401ABF31
S214014F4000200B7008707047054870470548704789
S214014F5005487047DF2A00205C130020000004503B
S214014F60028000F0018000F0078000F00B4A10B5C7
S214014F7012780C4662B107280CD859B1084A02EBE0
S214014F8000131B7B43B101F0A3FA2070002010BD73
S214014F900448FCE70448FAE70448F8E7DF2A00205B
S214014FA05C130020028000F0018000F0078000F012
S214014FB02DE9F843174B1F6D5B6D1F4000D5FEE7CB
S214014FC001260025144CDFF85480DFF85490374250
S214014FD017D02368C8F850609BB1A16828460131F4
S214014FE06268A1609847637B012B0AD148B909EB37
S214014FF045131A7B60F341021A731A7F60F341026C
S2140150001A770135082D4FEA460604F11004DED161
S214015010BDE8F883000004505C1300200020045013
S214015020DC13002070B5044601250B4E04B970BD93
S21401503094FAA4F0B0FA80F005FA00F306EB001239
S21401504024EA03045368002BF0D0117B11B1916858
S2140150509847EBE79847E9E7DC14002008B51920E4
S21401506000F0CEFD28B14FF00072074BC3F8802147
S2140150701A601A2000F0C4FD28B14FF08062024B7E
S214015080C3F880211A6008BD00E100E038B5054686
S2140150900C461DF096FE0022044B03EB05135C60E4
S2140150A01A73BDE838401DF092BE00BFDC14002024
S2140150B0F8B504460D4617461E461DF082FE1CB97D
S2140150C0052D0DD0FF2414E0012C03D1012DF9D1BB
S2140150D0032405E0022CF5D17DB1052DF2D107247C
S2140150E00123074D04F1100105EB0111C1E9017619
S2140150F00B731DF06CFE2046F8BD0624F0E700BFDA
S214015100DC140020F8B505460F4616461DF059FE7C
S214015110104B05F0FC02D3F824140023EC1804F01D
S2140151200304144321FA04FC1CF0010F07D00133D9
S214015130042BF3D1FF241DF04AFE2046F8BDFF2CB8
S214015140F9D00122044B03EB0413C3E901761A7369
S214015150F1E700BF00C00350DC140020074BD3F872
S2140151602404D3F8202403F50053104000F05530F2
S21401517020F05020C3F82004FFF754BF00C00350AE
S214015180074BD3F82404D3F8202403F5005310402A
S21401519000F0AA3020F0A020C3F82004FFF742BF99
S2140151A000C00350024B1968024B186813F038BC54
S2140151B0F40A0020F00A002037B5920004460D4696
S2140151C0019229F021F9431C0BD060B929462046EB
S2140151D0019A27F041FE0028044808BF002003B0CA
S2140151E030BD0348FBE70348F9E700BF10E000F0D5
S2140151F021E000F024E000F010B5044629F0FCF8A8
S214015200431C10D088B901F027FA234620F003008A
S2140152102044984201D1002010BD53F8042B0132DE
S214015220F7D00348F8E70348F6E70348F4E700BF7A
S2140152300EE000F021E000F024E000F008B51DF0DB
S214015240B9FD014B186008BD1C1D0020014B1868F4
S2140152501DF0B4BD1C1D0020044BD3F88420D206DB
S214015260FBD4D3F88400C0F381107047004000508F
S21401527038B5104B0546D3F820310C4603F003032E
S214015280022B0BD0032B0DD0012B0FD1FFF7E6FA23
S214015290052305B1286004B1236038BDFFF714FB70
S2140152A00323F6E7FFF726FB0223F2E7012300209C
S2140152B0EFE700BF0080005073B50D4600210E4B8E
S2140152C00191D3F88041064604F00304012C09D06D
S2140152D0022C0CD00C460EB1019B336005B12C603C
S2140152E002B070BD01A8FFF7C3FF0F24F3E7FFF775
S2140152F001FB0190EFE700BF0080005038B5184B66
S2140153000546D3F824010C4600F00700062805D808
S214015310DFE800F0230B131B1F0F170000231846AE
S21401532005B1286004B1236038BDFFF797FA05235D
S214015330F6E7FFF793FA0623F2E7FFF7C5FA03232A
S214015340EEE7FFF7C1FA0423EAE7FFF7D3FA0223F1
S214015350E6E71DF012FB0723E2E70123E0E700BFC3
S2140153600080005038B5104B0546D3F840310C4646
S21401537003F00303022B0BD0032B0DD0012B0FD10F
S2140153801DF0FDFA092305B1286004B1236038BD7C
S214015390FFF7B4FA0823F6E71DF0F4FA0B23F2E759
S2140153A001230020EFE700BF0080005038B5144B02
S2140153B00546D3F800020C4600F00700042804D87E
S2140153C0DFE800F01B0A0E1216000023184605B18E
S2140153D0286004B1236038BD1DF0D1FA0923F6E731
S2140153E0FFF78CFA0823F2E71DF0CCFA0B23EEE761
S2140153F0FFF754FA0E23800AE9E70123E7E700BF27
S2140154000080005038B5104B0546D3F840320C46A4
S21401541003F00303022B0BD0032B0DD0012B0FD16E
S2140154201DF0ADFA092305B1286004B1236038BD2B
S214015430FFF764FA0823F6E71DF0A4FA0B23F2E758
S21401544000231846EFE700BF0080005038B5104B28
S2140154500546D3F860310C4603F00303022B0BD04C
S214015460032B0DD0012B0FD11DF089FA092305B1AD
S214015470286004B1236038BDFFF740FA0823F6E739
S2140154801DF080FA0B23F2E701230020EFE700BFAF
S2140154900080005010B40D4C0B46D4F8204204F0A6
S2140154A00304012C0AD0022C0CD008B100210160A3
S2140154B00BB100221A605DF8044B70475DF8044B8F
S2140154C0FFF7D6BE5DF8044BFFF74CBF00800050D7
S2140154D038B50C4605461DF06DFC064B9A6A82EA05
S2140154E0040101EA050454409C62BDE838401DF001
S2140154F065BC00BF00C00050B0F5207F1FD009D8A2
S214015500B0F5007F15D003D868B1B0F5C07F0AD0DA
S21401551000200CE0B0F5607FFAD10B4BD3F8800089
S214015520C0F3011003E0084B186FC0F303300130DD
S2140155307047054BD3F89000C0F30460F7E7024BC1
S214015540186FC0F38020F2E7008000504FF400325D
S2140155500E4B014610B500209A66FFF7CDFF41F6C7
S214015560713248430A490B4B88428CBF4FF4801076
S2140155700020DC69DA639A6822F4401202439A60DA
S214015580E20344BF0022DA6310BD00BF0090005062
S214015590005A620200000350420910B510D0012AD9
S2140155A010D00B4B0B4C022A18BF234600F01F00ED
S2140155B051B103F58053012202FA00F0186010BDC4
S2140155C01346F3E7044BF1E703F50053F3E700BF97
S2140155D068800050608200506480005008B58020CA
S2140155E01DF00BFB034B98429EBF4FF48032024BDB
S2140155F01A6708BD005A620200A000501FB50023BA
S214015600B0F5807F019377D028D8382800F09480B1
S2140156100BD82438092810D809280ED8DFE800F05E
S214015620676767670D0D620D377D52285FD008D812
S2140156303D283BD03E2800F08480019805B05DF8F7
S21401564004FB8028F9D1414B1B6F03F00703013B94
S214015650032BF2D8DFE803F044413F6CB0F5D06F7E
S2140156605BD019D8B0F5A06F66D00AD8B0F5806FB8
S2140156703DD0B0F5906FE0D1002001A9FFF73EFEC6
S214015680DBE7B0F5B06F2DD0B0F5C06FD5D10020F7
S21401569001A9FFF767FED0E7B0F5006FECD00AD896
S2140156A0B0F5E06F4DD0B0F5F06FC6D1002001A97E
S2140156B0FFF7CCFEC1E7B0F5086FBED1234BD3F898
S2140156C0003103F00303022B2CD0032B2ED0012B29
S2140156D030D1FFF7F9F8032300E005230193ACE787
S2140156E00223FBE7002001A9FFF7E6FDA5E700205E
S2140156F001A9FFF7BDFDA0E702934FF0E0231B6968
S2140157005B0705D5FFF7CAF80C230393039BE5E770
S21401571003A902A8FFF726FEF8E7002001A9FFF774
S21401572045FE8AE7FFF7EAF80823D7E71DF025F9D3
S2140157300723D3E70123D1E7002001A9FFF7AAFE3B
S2140157407BE7002001A9FFF75DFE76E700800050A9
S2140157504FF40022034B5A66012203F580439A62F6
S214015760704700BF0090005008B5FFF747FF0828B4
S21401577011D00938012811D84FF40012094B4FF601
S214015780FF705A6603F5D8335B6A13F0010F18BF32
S2140157904FF4FA7008BD044B1888FBE74FF6FF700C
S2140157A0F8E700BF00900050040D002070B50446D5
S2140157B08020FFF723FF032800F082804FF40022A9
S2140157C0444B02215A6645F60E03434AC2F880301E
S2140157D0424B9962012103F580539962936DD90377
S2140157E0FCD4D4E900131B0543EA0163E17B94F87A
S2140157F022500B43217B94F8236043EA0143617BEB
S21401580043EA0133A17B43EA811313619169D4E929
S21401581004031B0643EA806301F000410B43A17EAB
S214015820E07E0B43217E43EA0143617E43EA012386
S2140158309361E369126A002B0CBF0021082122F054
S2140158400D0242EA030242EA8002234B42EA0102C7
S2140158501A6294F820204FEA421232D1986A94F8DC
S214015860211020F0330042EA0112024342F0010205
S2140158709A621B4A996D32EA0101FBD1022217494D
S2140158808A621A659A6D5200FCD41869A26820F4DF
S214015890700040EA02504FF0004218610F4B9A61C7
S2140158A01DB9022203F580539A6216B901220D4BE7
S2140158B09A6294F824301BB1074B0B4AC3F8802038
S2140158C070BD996A21F0330131430A4342EA450229
S2140158D0EEE700BF0090005000C0005000D000501E
S2140158E00300014000E00050F1A7FFFF1F4BFF2817
S2140158F073B5996A37D89A6D12F4803F18BF0124A0
S2140159001B4A18BF9462022494629B6DDA0303D586
S214015910164A936D9B07FCD50222154B134E1A654A
S214015920B46D14F08044FBD1124B93F90050B36967
S214015930054423F47F0323F47F4343EA002385F3DE
S214015940080043EA0043B36102200191FFF7C0FD5E
S214015950B06D019910F4803003D00120FFF7B8FD37
S214015960204602B070BD2120FBE700BF00C00050FA
S21401597000D00050E02A0020014B93F90000704748
S214015980E02A002001221548154B816A9A62826D31
S21401599002F00302032AFAD102229A621A650F4B19
S2140159A09A6D5200FCD40F4A986D32EA0000FBD182
S2140159B001220B4B1A65A3F580539A6D9007FCD410
S2140159C09A6D9207FCD50222054B1A65034A936D20
S2140159D09B07FCD50320FFF77BBD00BF00C000502E
S2140159E000D0005003000100F0B5D0E901434FF4A8
S2140159F080061A4A4178057856664FF4D156022732
S214015A0002F5B8325662164E4F2977604FF00107FD
S214015A1028BF4F2106F5805677601669F603FCD439
S214015A2041EA052151611B01417B43EA04230B43F3
S214015A30017B43EA41039360C37B817B1B0143EAFD
S214015A404113417C0B43017C43EA41035360837C51
S214015A5013B16FF4D1535362F0BD00BF00900050F4
S214015A6000100250014B1880704700BF040D002043
S214015A70014B1880704700BF020D00204FF4001242
S214015A8008B5184B5A660223174A5360936813F4F5
S214015A908033FBD1012822D1FEF716FF134B984223
S214015AA015D003F5122303F5F863984213D0104B73
S214015AB000EB8002400AB3FBF0F0520A0A4BDA62AE
S214015AC0012218635A620022074B5A6008BD45F648
S214015AD07A10084AF2E745F61A00074AEEE75362DB
S214015AE0F1E700BF009000500040025000F049026C
S214015AF064666666D8B80500BBCF0500B0F5207FA2
S214015B0010B50C4642D008D8B0F5007F33D003D884
S214015B1088B1B0F5C07F0ED010BDB0F5607FFBD167
S214015B201F4B013CD3F8801021F0300141EA0414E8
S214015B30C3F88040F0E71DF058F81DF021F94FF446
S214015B408031184A164B1167196F013C21F47041D8
S214015B5041EA04341C67FEF7A1FE0446FFF77CFB0E
S214015B60C0F1020120461DF005F900F02DF8BDE850
S214015B701040FFF733BD0A4B013CD3F8901021F0DB
S214015B80F85141EA0464C3F89040C5E7044B013C70
S214015B90196F21F4806141EA84241C67BCE700BFC9
S214015BA0008000500090005008B50121022000F04E
S214015BB0F5F81DF01AF81DF0E3F84FF48032014BAA
S214015BC01A6708BD0090005008B54FF4C0701DF06C
S214015BD014F8BDE80840044988428CBF022101211F
S214015BE04FF42070FFF78ABF80F0FA02034B586823
S214015BF0C0F30800003818BF0120704700ED00E030
S214015C00054B420953F8223000F01F0023FA00F03A
S214015C10C04300F00100704700E100E0194B10B5E9
S214015C201B6873B3184A5268012A2AD0174A802083
S214015C30C2F80031FFF7E2FC05281FD14FF4C0700F
S214015C40FFF75AFC0128044604D102214FF4C07024
S214015C50FFF754FF07220E4B1A610122A3F580536A
S214015C605A60094A1369DB07FCD5012C09D1214684
S214015C70BDE810404FF4C070FFF740BF0122054B4E
S214015C805A6010BDD01D002000C001500080005099
S214015C9000E0015000D0015000224FF40031074BC4
S214015CA01A60074A516602F598325268012A02BF05
S214015CB0044AD2F800211A60704700BFD01D0020A8
S214015CC00090005000800050044A4178536F23F43E
S214015CD0407343EA01235367704700BF00400050FA
S214015CE010B5044608B1FFF7D7FF104A136943F011
S214015CF00403136103F0DEFA1DF06CF80C4B0D4A39
S214015D00C3F820241DF056F828F086FB1DF056F83F
S214015D101DF061F803F0F6FA1CB1BDE81040FFF77C
S214015D207DBFBDE81040FEF7B9BD00BF00ED00E045
S214015D3000E003500000FF0F10B5044608B1FFF75E
S214015D40ABFF0E4A136943F0040313610C4B0D4A73
S214015D50C3F8202403F0AEFA1DF02CF828F05CFB03
S214015D601DF02CF803F0CEFA1CB1BDE81040FFF789
S214015D7055BFBDE81040FEF791BD00BF00ED00E045
S214015D8000E003500000FF0F034A0179D36E23F0B1
S214015D9030030B43D366704700400050F8B5044605
S214015DA01C4BD3F88420D106FBD4D3F88430C3F33C
S214015DB081139C422CD0FEF757FD012C064602D1DA
S214015DC021461CF0D7FF1CF0F5FF4FF00072124B76
S214015DD007465A6620461DF003F84FF480630D4DC2
S214015DE0621E93402B676B6E9A0103D4D5F88430FC
S214015DF09B060AD538461CF0E1FF022C08D1304636
S214015E00BDE8F84000211CF0B5BFD5F88430EAE7BC
S214015E10F8BD00BF004000500060005007B518B93B
S214015E200191FEF721FD0199064B1B7843B1064B04
S214015E30984205D8012003B05DF804EBFFF7AEBF2A
S214015E400220F8E7E12A0020005A62020278034B9A
S214015E50012100201A70FFF7E1BF00BFE12A0020F0
S214015E604FF0004238B5264B26495A6601224A6051
S214015E704AF6CD3103F50B235D6C1964154030BB32
S214015E809968C9070BD4002401221F4B5A6015B12B
S214015E901E4B1F4A1A6426F0B5FB204638BD1A4928
S214015EA08A601C4AD96ACC0705D4904201D10724DE
S214015EB0EAE70130F6E79042E5D1F8E70132DC6A1D
S214015EC014F0080406D08A42F8D10724DFE700223E
S214015ED01049F4E78A42F8D020220B4B0B495A624C
S214015EE00122A3F580539A6023460A4A486A80062F
S214015EF003D49342E9D00133F8E79342C7D1E4E7EC
S214015F0000900050005009500060095000400950B0
S214015F103254FFFF40420F004FF0004238B5194B94
S214015F20194C5A66012203F50C235A604AF6CD3302
S214015F30656C23644378154093401343134AD36337
S214015F40A368827823F0740343EA0213C278002A16
S214015F5014BF042200221343A3600279837943EA23
S214015F60022323614279C37943EA022363610078FD
S214015F70FFF776FF0DB1064B236426F043FB0120A5
S214015F8038BD00BF0090005000400950004000504E
S214015F903254FFFF10B504461CF027FF002341F2E0
S214015FA002020849E360A360226104F50052E3613E
S214015FB06361A36123626362E362A3645164A362C3
S214015FC010BD00BF7F370C0138B50446154639B9F8
S214015FD0184B984214BF084638201CF00EFE0146A6
S214015FE06368A06800F0E00040281AD003D8D0B15A
S214015FF020281AD038BD602819D08028FAD101236C
S2140160006B434901B1FBF3F10B4A2039204602EA02
S214016010C10201211CF0E5FEA262BDE838401CF079
S214016020E0BE0623ECE71023EAE70823E8E70423AB
S214016030E6E700BF0000035AF8FF7F00436870B52B
S21401604004460D4616461BB140F2FF711CF0C9FE10
S2140160502046FFF79FFFE9896B7B22690B43298A5C
S21401606022F44C520B4322F0030213432361A2682D
S2140160702B7B297E22F0804222F0E2020B4313435F
S2140160806A691343A360AB681BB9A36843F0004376
S214016090A360EB69002B58D0A16898883F4A00F4AA
S2140160A0C0400A4010431A7A40EA82509A7A40EA7F
S2140160B042405A7840EA82005A7B40EAC2009A7B04
S2140160C040EA02109A7840EA8220A060E168D3E9AB
S2140160D0042021F4D81121F4C06102430A439979BE
S2140160E042EA8122D97942EA4122E2601A7802F034
S2140160F0FD01012908BFE168A2F1020204BF41F0D7
S2140161000401E160012A4FF0010294BF24492549A8
S214016110C1F8C0205A7A04F580510A621AB1E268C1
S21401612042F40062E260DA7A4AB1E2681E4942F459
S2140161300042E2601A7B02F00F02C1F88020E26999
S214016140DB7B22F003021343E36136B196F820307D
S21401615004F58051A3B101238B61052120461CF073
S21401616061FEAA6812B16968FFF72EFF20462978FA
S2140161701CF075FE236CDB4313F4405FFAD170BD4F
S214016180626996F8223096F8210022F0090203434C
S214016190134343F001034B61DFE700BFE39BBDFF01
S2140161A000D4035000E4035000900350072AF7B5CB
S2140161B001F0030614461F464FF003012CD8950044
S2140161C0A94000FA05F21C4801911CF057FE0199FE
S2140161D01A4806FA05F21CF051FE194B19499DF8AA
S2140161E02000002F08BF1946012303FA04F40C60AF
S2140161F0154B1649002808BF0B461C60144B9DF82A
S2140162002400C3F820441031A3F6DC33002808BF6D
S2140162100B461C6003B0F0BDA2F10805AD00A94015
S21401622000FA05F20B4801911CF028FE01990A4874
S21401623006FA05F2CFE700BF00C4035008C40350B6
S21401624010E4035010D4035014D4035014E4035044
S21401625000E0035004C403500CC40350F8B50446D0
S2140162600D461F4616464AB101238B403021194A76
S21401627001FB0022FFB141F21001535004EB44032D
S214016280072D4FF00F014FEA031317D8A80006FA9F
S21401629000F28140104818441CF0F0FD56B9012167
S2140162A030230C4801FA05F503FB040077B141F2EF
S2140162B01003C550F8BD42F21001DEE7A5F1080053
S2140162C0800006FA00F281400448E4E742F2100337
S2140162D0EFE700BF00C0035004C003500CC00350DA
S2140162E010B50C4B0C4C0D4A0140C4F83004C3F8F1
S2140162F03014C3F82C04D36E03F03003202B1FBFD9
S214016300D36E23F0300343F01003D366C4F82004A1
S21401631010BD00BF00D0035000E003500040005005
S21401632038B514461D46032283F00103FFF796FF96
S214016330012004F11001884005FA01F1FFF7D0FFB2
S2140163409DF81010034B044A002908BF1346186035
S21401635038BD00BF24D4035024E403504FF4001288
S2140163600B4B10B5C3F88020BFF34F8FBFF36F8F71
S2140163700024FF22074B21465C6520209A625C6060
S214016380FFF70AF92146BDE810402120FFF704B9BE
S21401639000E100E000000450044A054B002918BF44
S2140163A01346012202FA00F018607047402004509C
S2140163B04010045010B5012104462020FFF7ECF8E8
S2140163C001212120FFF7E8F80122114B5A602278BB
S2140163D012069A606178A27842EA01429A61FF2227
S2140163E09A6200229A631A644FF000425A654FF08F
S2140163F0FF324FF4001103F500531A65054AC2F83F
S2140164008011E3781B01DBB282F81533116010BDF1
S2140164100000045000E100E0F8B50125C3B2DFF842
S21401642088C0D1F800E09D408F7ACB7A0C46097B74
S214016430CCF850500CF5005C4CF820E04FF0300ED4
S214016440174E1B050EFB006094F80DC043EA074388
S21401645043EA415322F00302C0F860C0C3650267F5
S2140164601CF0AFFC736D227A2B4373650D4B02B1A2
S2140164701D64627A02B19D632279A37943EA0243DD
S214016480094A93616179E37943EA014305498B61DE
S214016490034B55639D64BDE8F8401CF098BC00BFF3
S2140164A000000450001004500020045010B50124D0
S2140164B0C0B284401CF085FC044B5A6D22EA0402EB
S2140164C05A659C62BDE810401CF081BC0000045077
S2140164D010B50124C0B284401CF073FC074BDA6A85
S2140164E0224209D15B6B34EA03030CBF012400246A
S2140164F01CF06DFC204610BD0024F9E70000045096
S2140165004FF40032054B9A6641F6713203F51C339F
S214016510DA63012203F50053DA60704700900050F9
S21401652041F671320121064BDA6303F50052D16060
S2140165300022DA634FF40032A3F518339A667047E7
S21401654000000350CB784A7810B55B010C7843EA1B
S21401655082030A79234343EA02130C22424302F1DF
S214016560B0421363012C02BF8A78024B43F8202005
S21401657010BD00BFE880035008B54FF0B0435A681D
S21401658002B960B15B680BB11CF08AFC4FF0B041F8
S21401659030B10120074B58601CF082FCC86008BD72
S2140165A01CF07EFC0223CB601CF07AFC0122024B1D
S2140165B05A60F4E700100058002000584FF0B0432E
S2140165C05B6870B50BB11CF06BFC0121104B457874
S2140165D0596083780679002BC37814BF02240024FF
S2140165E0002B14BF042200224379DB0043EA061382
S2140165F02B43234313434FF0B0429360054B59603E
S2140166000378002B14BF0B460223D36070BD00BF76
S21401661000200058001000584FF48032064B5A668E
S21401662003F5E6235B69C3F38512827003F03F022C
S2140166301B0B42700370704700900050014B986C22
S214016640D96C70470080E00F024B1868C0F3074012
S214016650704700BF0080E00F0120034B9B680A33A0
S21401666003F01F03984070470080E00F012200F5F9
S214016670805310B55A6040F6AA6341F205024361A1
S21401668000230E498360C365C26000F500520361B2
S214016690C361C36491640A498365884202D0094C88
S2140166A0A04207D18842036502D0064B984201D129
S2140166B0002343650123536010BD00BFFFFF0100A7
S2140166C000C005500000065038B50D46FFF7CEFF56
S2140166D0012300F580514B6083680446A87B2A8A13
S2140166E0002814BF4FF48060002042F001021343DB
S2140166F02A7D0343002A14BF4FF000520022A360F4
S214016700A3681343A360AB7C4BB11C4AEB7C944259
S2140167102BD1A2F51032C2F88C318023CB652B7BAE
S2140167202046D5E9011243F48053E3601CF0C0FB18
S2140167306B7B0BB1102363616B7D1BB1A36843F4C4
S2140167408033A360AB7D1BB1A36843F40043A36011
S214016750EB7D2A7E1B07120503F0E04302F4E002FC
S2140167601343A3652B78636138BD054A944204BF81
S214016770A2F52032C2F89C31CFE700BF00C0055019
S2140167800000065038B50446054D25F05FFF0FCCD6
S2140167900FC594E8030085E80300002038BD00BF5C
S2140167A0D41D002047F6FF739A42F0B56AD002293D
S2140167B06AD8364B5B5C012B66D8354DDF0005EB9E
S2140167C0C30015F833308478012B13D10025C37824
S2140167D01B1BAB4202D8E018C0B2F0BD591B46687D
S2140167E0A3EB510136F911609642D4BF0D4601F173
S2140167F0FF33EEE740680028EFD0B0F9003093424F
S21401680004DBB0F902309342B8BF134682883D4498
S214016810FF2A19BFC8214FF0280CB0F90610B0F9AD
S21401682008C0A1EB03020CBF0126002692FBFCF276
S2140168306D78324412B2954201DD002A01DA6A1EF1
S21401684012B24FF47A7700EBC206F188B6680132CD
S21401685013FB016112B221EAE1715C319542B1FB91
S214016860F7F104DD00EBC206B6888E42EBD200EBF0
S214016870C20232F8040C884228BF0846A04238BF3C
S2140168802046A9E7FF20A8E70020A6E7CCF10300F1
S214016890D41D00200229F0B557D82D4B585C01288D
S2140168A053D82C4C04EBC00114F830004B68012877
S2140168B00FD1C8788C78904294BFC4EB0001C4EB2A
S2140168C00201001BCAB28242C8BF002233F912007D
S2140168D0F0BD002B39D08878904202D3B3F902007C
S2140168E0F6E7CC78B3F900009442F1D94C78998850
S2140168F0013CA1F1FF06714203F10405E4B27141C6
S21401690003F10C071FFA82FCCEB2B44216D805EB8F
S214016910C1014FF47A756A43B1F902404968521AC7
S21401692004EBD47102EB610292FBF4F29042CFDBEE
S214016930B3F902009042CBDC10B2C9E737F831E078
S2140169404E1CE645E3D33146DEE70348C0E700BF09
S214016950CCF10300D41D00200080FFFF08B50448D9
S214016960FFF710FFBDE80840012025F073BE00BF09
S214016970D0F1030000487047060D00207FB50222C3
S214016980084B0949CDE901234FF00073CDE9031304
S214016990052301A94FF0FF30059325F090FE07B0BF
S2140169A05DF804FB006A1800000204001B0603F0F1
S2140169B0706300F00F000902034301F470611204D2
S2140169C002F470220B431343014A1360704700BF61
S2140169D00020025C60B5054619B10139B1F5806F3A
S2140169E010D2094EF06810F48030FBD143EA012141
S2140169F0120741EA050302F08052134343F00043B5
S214016A00736060BD0120FCE70020025C0122054B9B
S214016A109A60DA68D203FCD4D86820F00F0000042C
S214016A20000C70470020025C014B1868704700BFDD
S214016A300040025C014B5868704700BF0010025CC2
S214016A40014B186B704700BF0010025C014B1868C1
S214016A50704700BF0010025C014B9860704700BF92
S214016A600010025C014B1864704700BF0010025C06
S214016A70014B5864704700BF0010025C014B58631D
S214016A80704700BF0010025C0022014B1A6070477D
S214016A900010025C024A136843F00103136070475A
S214016AA00010025C024A136823F00103136070476A
S214016AB00010025C43F20402014B1A60704700BFEB
S214016AC00010025C024A136843F0300313607047FB
S214016AD00010025C044B1A6842F480721A601A684D
S214016AE022F480721A6070470010025C024A136832
S214016AF043F48063136070470010025C034A136816
S214016B0023F4702343EA0040106070470010025CD3
S214016B10044B1A6902605A6942609A698260DB69AD
S214016B20C36070470010025C0268044B1A61426839
S214016B305A6182689A61C268DA6170470010025C25
S214016B40024B1A6BD207FCD4186270470010025C25
S214016B5082B01FB507930A9B04AC8B4228BF0B4635
S214016B6004E907001048D100079948BF03330160C4
S214016B70099948BF23F0030323F0704301F0E04175
S214016B80194341F000518160002102F0E042019C6E
S214016B90134343F00053C16004618361416304B051
S214016BA0BDE8104002B070470000025C3F22034B74
S214016BB01A631022DA6103229A6370470000025CAE
S214016BC0024AD36B9B07FCD4704700BF0000025CEF
S214016BD0034B986A10F0240018BF0420704700BFCA
S214016BE00000025C08B5FFF7F3FF064BDB6B23F4EE
S214016BF07F4323F0EF0303431EBF0122024BC3F87A
S214016C00FC2F08BD0000025C00F0FF3F032208B520
S214016C10054B186019615A63FFF7C8FFFFF7D0FFED
S214016C20BDE80840FFF7DEBF0000025C426803468D
S214016C30182A10B50AD0202A1DD0102A2BD1174A9F
S214016C40D2F80424D4010AD4012013E0134AD2F85E
S214016C5004249001F8D50A6842F008020A60104838
S214016C601A6882424FF000000ED10A6842F04002D4
S214016C700A60586010BD094AD2F804245201E3D5CF
S214016C800A6842F00402E9E7064CA242F2D10A6819
S214016C9042F08002ECE70720ECE700BF0000025C50
S214016CA0E22A0020E32A00200B4607B50749D1F85F
S214016CB00414C90708D5002100920246084600F0D0
S214016CC05BF803B05DF804FB0120FAE70000025C04
S214016CD01346064AD2F80424D20504D50A460146CC
S214016CE000201CF0FFBA0120704700BF0000025CC4
S214016CF013B5084CD4F80444E40508D500931346AC
S214016D000A460146002000F061F802B010BD0120DD
S214016D10FBE700BF0000025C13B5084CD4F804443E
S214016D20E40508D5009313460A460146002000F004
S214016D3071F802B010BD0120FBE700BF0000025C45
S214016D4070B504460D4616468CB00A4A09AB07CA0A
S214016D5083E807001A462146CDE90563CDE90333EA
S214016D60CDE9013300954FF480301CF0DFF90CB00B
S214016D7070BD00BF54F20300F0B51C465B681546B3
S214016D808DB01A07129E1AD1CBB17268934216D1F2
S214016D900C4B0D4A53F8217009AB07CA83E807006C
S214016DA01A462946CDE90533CDE90333CDE901631A
S214016DB0009447F480701CF0B9F90DB0F0BD0720BF
S214016DC0FBE700BF60F2030054F20300F0B516467D
S214016DD05A688DB0102A0D46129F15D17A68102A6E
S214016DE012D10A4A09AC07CA84E807002246294696
S214016DF0CDE90547CDE90344CDE9014404480096B1
S214016E001CF094F90DB0F0BD0720FBE754F2030027
S214016E1030000100F0B516465A688DB0102A0D46AE
S214016E20129F15D17A68102A12D10A4A09AC07CAEC
S214016E3084E8070022462946CDE90574CDE90344D6
S214016E40CDE90144044800961CF070F90DB0F0BD80
S214016E500720FBE754F203001000010082B070B572
S214016E6086B0149D03AE202D86E807000B9359D8F3
S214016E7005EB85038B4203D006236B438B4253D12C
S214016E800C9BAB4250D10F9BB3EB450F4CD1129AE2
S214016E90934249D1012229462220159BFFF79AFDEC
S214016EA0044630BB034606220E210C20FFF77EFD6A
S214016EB00123CDE900332B4696E807001CF0D3F8F2
S214016EC00E230BAA009307CA2B461CF017F80C23B7
S214016ED0164C00930EAA2B4607CA1CF03FF86368AF
S214016EE023F07F0343F026036360FFF78FFD30B185
S214016EF00624204606B0BDE8704002B070476368BD
S214016F0023F07F0343F022036360FFF77FFD04460F
S214016F100028EDD1062311AA009307CA2B461CF0C0
S214016F2050F8E6E70124E4E70724E2E70020025CE4
S214016F3070B598B0002843D02C4C08AD0FCC0FC5C7
S214016F400FCC0FC50FCC0FC594E80F0085E80F00D6
S214016F506D4604AE04F1100320340FCB85E80F0014
S214016F6094E80F0086E80F00FFF7B4FD0420FFF752
S214016F70C5FDFFF79FFD3046FFF7D6FD002408AE9E
S214016F8056F8040B0134FFF7DBFD102CF8D1FFF7A0
S214016F9051FD0328FBD90024FFF776FD2646FFF7AF
S214016FA043FD55F8043B01365840042E44EA0004DC
S214016FB0F5D12CB1012206200D4B1A7018B070BD08
S214016FC0FFF788FD0820FFF747FD0020FFF74AFD81
S214016FD00720FFF74DFD4FF40070FFF74FFD082027
S214016FE0FFF78CFDFFF756FD0020E7E73CF30300B3
S214016FF0E52A002008B5FFF76DFD0122014B1A7046
S21401700008BD00BFE42A00201FB51CF0E6FA0446BE
S21401701030B1012206240D4B1A70204604B010BD73
S214017020FFF702FD0090FFF7FFFC0190FFF7FCFC65
S2140170300290FFF7F9FC03906846FFF775FDFFF72E
S214017040D9FFFFF73FFDFFF751FDE6E7E52A0020F0
S21401705006289ABF014B185C002070479CF303007A
S21401706030B5154B87B00293144B0390049346F644
S21401707011030D46059300F06DF91428044616D148
S21401708068461CF05AFB4FF0A843032202A95A6334
S21401709019601D619A63DA6B9207FCD1142C02D138
S2140170A068461CF058FB00F089F9044601E0002808
S2140170B0E9D0204607B030BDEC1D002004000020BA
S2140170C02DE9F04FB1B005468C46E9466E4F3B9E22
S2140170D0DDF8F8E0409C07F1100AC8463868796880
S2140170E00837A8E803005745C146F6D10EEB02085B
S2140170F0C8F1000909F00F09002E00F0AF807742B1
S21401710007F00F070121DDF8FCB0C4F1100ACDF835
S21401711010B0059144F0005106914FEA0A2101F49E
S214017120F85141F02101079106B96B460893002DED
S21401713040F09680002C00F0938004AB0993002E5B
S21401714000F0908046F000530A93002D40F08D80A9
S214017150002C14BF0123212343EA07230B9308A91C
S21401716042F00053CDF830C03D980D910E934FEA92
S214017170092343F041030F93109002B10CA9002A92
S21401718016BF00224FF00052412342EA0E0211912F
S214017190129213933C9B3D4A149310AB15933C4BB0
S2140171A00021169340F6110317933A4B002D08BFA2
S2140171B01346189314AB1993374B10221A931123C5
S2140171C01B931CAB184625F07EFE01221D924AF049
S2140171D080421E9200220346239205B9EB46102CEC
S2140171E008BF01230DF1900A102200215046CDF868
S2140171F080B02193229425F066FE002C37D020AB78
S214017200002125938F4218BF534647F080422692AD
S2140172103A9A2CA88A422892299313460CBF4FF01B
S21401722080430B46102233432B912A9325F04BFEC5
S214017230FEB95346C8442D932CA948F0804318A89C
S2140172402E93FFF70DFF30B92DB90346A34212D195
S214017250002818BF2C2031B0BDE8F08F102751E769
S21401726001236BE747F000536EE7212374E7012300
S214017270C6E728ABDEE703F1C0026A4412F8C02C69
S21401728001331043E2E700BFA3F30300B4F30300A6
S21401729010000020B8F3030004000020F0B5C02958
S2140172A09FB0249E4FD0B1F5807F04D0802941D075
S2140172B029201FB0F0BD40F2344440F21445002EA0
S2140172C008BF2C4621271025019401240296039419
S2140172D004950597259F069706B102AC07940124ED
S2140172E0089509940A9221220B940C950D92174A3F
S2140172F00AAC0E92164A0F94109242F6110211929F
S214017300129313941495159201AA1692CBB112AB4F
S2140173101793042318931123199316AB1A901B93F2
S21401732040F61103C9081C911AA806A91D93FFF778
S21401733097FEBEE7002E14BF4FF486644FF48264B6
S214017340C0E70EABE4E70F20B3E700BFBCF30300D2
S2140173501000001038B5164B5A6E42F004025A66F9
S214017360D3F8802242F00102C3F88022114B5B68F9
S214017370C3F3080343B14FF0A842D36B13F0430F96
S214017380FBD11424204638BD4FF0A843DC6B14F023
S2140173904304FBD1084D2B681BB90421284602F093
S2140173A08DFF2B68013343F000432B60EAE700BFF3
S2140173B00080005000ED00E0EC1D0020014B002095
S2140173C05B68704700ED00E04FF40052034B00206D
S2140173D09A660322C3F86022704700BF00900050EF
S2140173E04FF40052034B00209A660322C3F8602232
S2140173F0704700BF00A00050012300F01F02A0F557
S21401740006200949A0F550604009934051F8202014
S2140174101A4341F82020054951F8202022EA0303A7
S21401742041F82030704700BFF01D0020041E0020E8
S2140174300121A0F506230F4AA3F550635B0900F06E
S2140174401F0001FA00F052F8231008430A4942F8D7
S2140174502300D1E90030034488680344C8680969F9
S21401746003445B1802BFC2E90033C2E90233136169
S214017470704700BF041E0020F01D00202DE9F04FCC
S214017480A9B002921D46DDE9326704460822CDE91D
S2140174900301414021FA02F34B40980702F108022A
S2140174A018BF9B00202A1C44F4D18123B4FBF3F3BC
S2140174B003EBC313E41A7A4B04F506241B7804F590
S2140174C05064002B40D1FDF76DFE014620B16FF0F0
S2140174D0910029B0BDE8F08F4022059008A825F05C
S2140174E0F2FC4022059918A825F0EDFCDFF8C891BA
S2140174F0DFF8C8A14B4603F10F0B102208A9DAF8F2
S2140175000000CDF800B0059324F02FFE00220146BE
S214017510059B09F110090DF1200891424CD1CDF8D7
S21401752000B01022DAF8000018A924F027FE4FF068
S214017530000B03460DF160085B4549D1594B99454F
S214017540D8D10122564B1A704FF081084FF000092E
S214017550DFF868A1A4F506235349A3F55062520942
S21401756051F8221004F01F0C21FA0CF1C90744D47B
S2140175704E4951F8220020FA0CF010F0010030D0EC
S214017580B9F1000F08BFA146A3F6FF448123B4FB5F
S214017590F3F303EBC313E41A04F50624B8F1010868
S2140175A004F55064D6D1029BEBB1B9F1000F1AD0A5
S2140175B0349BC3F800906DE058F8040BCDE9062320
S2140175C00591FFF719FF069A079B05990132A4E773
S2140175D058F8040B05930BF1010BFFF729FF059BE8
S2140175E0AAE7029B13B96FF08B0072E7349BB9F1DF
S2140175F0000F4ED0C3F800906BE70EB10023336046
S2140176000FB100233B604FF0100B00232A462146A2
S214017610DAF80000CDF800B011F074FB08BB0EB12B
S214017620C6F800B02B68224A934224D166B15FB1F6
S2140176303B462146DAF8000018AA11F0B7FB80B9DC
S2140176403B6832689B1A3B60D5E90223DDE90310EB
S214017650834208BF8A4216D0A4F50624A4F6FF4446
S21401766094E7144B984206D01233984203D0133B4A
S2140176709842E9D02BE72146DAF8000011F0DAFB50
S2140176800028E1D0AFE7029B13B16B68012B03D052
S214017690349B1C6000201CE76FF0840019E700BFD4
S2140176A0E62A002000710800F01D0020041E0020BC
S2140176B0105D175EFFDF00F0006D0800F00A002085
S2140176C02DE9F04F87B08246894698461646DDF882
S2140176D040B02AB1002B4ED040F26C739A424DD87E
S2140176E0BBF1010F4DD8002406F1100739460120E1
S2140176F005941CF0A1FB0546002845D021463A46D4
S21401770025F0E1FB05ABCDE9014300942B460122B0
S21401771050464946FFF7B2FE044680B110F18C0F81
S21401772008BF6FF08D043A460021284625F0CBFBB2
S21401773028461CF092FB204607B0BDE8F08F144B9C
S214017740C5E902A92B60C5F804B02EB13246414600
S21401775005F1100025F090FB0E483B462A46059998
S214017760006811F037FA18B90598FFF745FEDAE711
S2140177706FF09104D7E76FF08604DCE76FF09104B1
S214017780D9E76FF08504D6E76FF08C04D3E700BF26
S214017790105D175EF00A00202DE9F0438DB081469A
S2140177A0DDE914780C4615461E469BB1B8F1000F6C
S2140177B005D16FF0860420460DB0BDE8F083002F9A
S2140177C0F7D0B7F1005FF4D3C3F1005303F50043DC
S2140177D09F42EED81022002108A825F074FB002253
S2140177E007AB029305AB019306AB214600934846CF
S2140177F008ABCDE90522FFF741FE04460028DAD1A1
S2140178000599DEB1A94203D80029D2D115B1D0E736
S2140178100029FBD0491BB14228BF3146069B0948C7
S214017820C8F8001000913A46079900682B4411F0F9
S21401783069FA002818BF6FF09104BCE7A942E9D2A3
S214017840B7E700BFF00A002030B58DB00C460546FC
S2140178501022002108A825F036FB002207AB029370
S21401786005AB019306AB21460093284608ABCDE94C
S2140178700522FFF703FE0446D0B9099B012B1AD057
S214017880104B0799186811F0D5FAB8B90122079874
S2140178900D49A0F50623A3F550635B0900F01F050B
S2140178A0AA4051F823506A4041F82320FFF7C0FD53
S2140178B020460DB030BD6FF08404F9E76FF09104F7
