:020000021000EC
:10200000C00A002005540100D5380300D53803006C
:10201000C34B0300D5380300D5380300D53803007F
:10202000D5380300D5380300D5380300D538030070
:10203000D53803000C08040089360300D5380300A6
:10204000D5380300D5380300D5380300D538030050
:10205000D5380300D5380300D5380300D538030040
:10206000D5380300D5380300D5380300D538030030
:10207000EDA80100D5380300D5380300D53803009A
:10208000D5380300D5380300D5380300D538030010
:10209000D5380300215C0100D5380300D538030092
:1020A000D5380300F15D0100CD5D0100D538030096
:1020B000D538030069FE0200D5380300B1080300DB
:1020C00039E1030035E10300A100030045E103000D
:1020D0003DE103008908030041E10300F10803002A
:1020E00081E2020045E4020061090300D5380300E3
:1020F000D5380300D5380300D5380300D5380300A0
:10210000D5380300D5380300D5380300D53803008F
:10211000D5380300D5380300D5380300D53803007F
:10212000D5380300D5380300D5380300D53803006F
:10213000D5380300D5380300094B01005B37030095
:10214000013800D0FCE77047002370B5404C0546CD
:102150008AB0E36318B1008823600DF0C7FF3D48E3
:102160002BF049FB3C4E3D4B304633603C4B73609B
:1021700026F02AF90021304618F006F832A3D3E9F8
:102180000023A062C4E9062326F029F9D4E9062336
:1021900019431043C4E90601CDE900014FF0FF33B4
:1021A0004FF0FF32A06A2BF0A1FB02224FF0FF316B
:1021B000A06A2BF0A0FB01200DF018FD4FF4007376
:1021C00000222849A06A2BF0E9FBB0F5007F38D146
:1021D00000239422CDE9073309933C23CDE9033250
:1021E00005939623A06A03A9069318F0EBF835B37C
:1021F000287C0EF029F90546F0B9A06A2BF0AFFC57
:102200000EF0D0F80DF0D4FC20B14FF48070002116
:102210000AF014FD0DF0DCFC20B14FF40060002149
:102220000AF00CFD26F07DF9012018F001F80E4AA5
:102230000E49A06A26F0C6F828460AB070BDFF20F5
:10224000D7E70725F8E700BF0DD5015520000000AE
:10225000880F0020690345EC1424002071FA010066
:1022600024240020142200206D830300AD8303008A
:1022700010B5054C237833B9044B13B1044800E082
:1022800000BF0123237010BDE811002000000000F2
:102290006053040008B5034B1BB10349034800E039
:1022A00000BF08BD00000000EC11002060530400D6
:1022B000A3F5803A704700BF174B002B08BF134BA4
:1022C0009D46FFF7F5FF00218B460F461348144A41
:1022D000121A2BF084FF0E4B002B00D098470D4BA9
:1022E000002B00D098470020002104000D000D486D
:1022F000002802D00C4800E000BF1EF061FD200065
:10230000290021F0B5F91EF047FD00BF00000800CC
:102310000000000000000000C00A0020180F00208C
:10232000042C0020000000000000000070B50446EE
:102330000D4621B94FF41671084800F0ABF80E466F
:10234000062056F8043F33B906288ABFA3682B68D5
:102350001B68636070BD20469847F2E780F7030072
:1023600038B5036804462BB183681BB145680B4A36
:10237000954203D0C8210A4800F08CF898470828F5
:1023800001D0D221F7E7A3681B6863602046A168EB
:10239000FFF7CCFF0728F9D838BD00BF88F7030046
:1023A00080F70300F0B504460F46456887B001B1D9
:1023B00025B94FF49671314800F06CF82E46394635
:1023C00020467368984701283FD83668002EF6D11A
:1023D00007B0F0BDEB681BB1204601919847019909
:1023E0002D6839E0906828B106A800EB830040F81A
:1023F000102C0133126837E05D1E6B1C13D13B6952
:102400006760C3B12046984765682E4600270628B6
:10241000DED9A168A760AE420FD12046FFF786FF44
:1024200065682E46F3E702AB53F8253020469B68DB
:102430009847013DE1E70620E6E7EB681BB120463F
:102440000191984701992D68E5E70628C0D9092828
:10245000DCD1A16867686560B542BBD12046FFF753
:1024600065FF3A46002361688A4201D0032BB9DD3B
:10247000042BC1DD40F22A319DE700BF80F7030045
:10248000024B0360024BC0E9013170479CF7030027
:1024900088F703000D4C07B50D49206822F00BFAB0
:1024A0000C49206822F007FA02F056FD21F0AFF93E
:1024B000094B0A4A0A49009320680E2322F0FBF9CF
:1024C000084A0949206822F0F6F9FEE75C1300206B
:1024D00014030400A8F70300E2F70300ADF70300BC
:1024E000BAF70300C6F70300CCF70300014B836083
:1024F0000820704730020400014B836008207047B9
:1025000004020400014B836008207047B8010400F6
:10251000044B0A689A4203BF034B836007200020E4
:10252000704700BFA00009063C01040037B50B68E6
:102530004E4A0446934257D002F54032934269D046
:1025400002F17D4202F57D02934240F08C80484BBF
:102550001B68DB7A032B07D8DFE803F00216263668
:10256000032002F0D9FC08B902207DE0414C424929
:10257000206822F0A0F902F0EFFC21F048F93F4971
:10258000206822F098F9EFE7032002F0C5FC00284C
:10259000EAD0384C3849206822F08DF902F0DCFC92
:1025A00021F035F93649EBE7032002F0B5FC0028AD
:1025B000DAD0304C3049206822F07DF902F0CCFCB2
:1025C00021F025F92F49DBE7032002F0A5FC0028C4
:1025D000CAD0284C2849206822F06DF902F0BCFCD2
:1025E00021F015F92849CBE7032002F095FC0028DB
:1025F000BAD0204C2049206822F05DF902F0ACFCF2
:1026000021F005F91A4B21491B6820685A7922F0FC
:1026100052F9A9E7164B1968838BB1F805209A4245
:1026200004D18A7A23300B312BF0B2FD032002F063
:1026300073FC002898D00F4D0F49286822F03BF911
:1026400002F08AFC21F0E3F894F826301049019357
:1026500094F825302868009394F8243094F82320C7
:1026600022F029F980E7002003B030BDA000060465
:102670006C1200205C130020ECF70300F1F703005C
:10268000FEF7030034F803006CF80300C1F8030000
:10269000CAF8030008B5024821F0D5F9052008BDA5
:1026A00010070400012230B585B00446018C03AB4D
:1026B00090F822008DF80C2010F0B0FFE06018B305
:1026C0001B4D1C49286822F0F6F81B49286822F0A7
:1026D000F2F802F041FC21F09AF8184B184A194917
:1026E0000093286840F2564322F0E5F81649E36863
:1026F000164A286822F0DFF8E06802F087FC1449E7
:10270000286822F0D8F8FEE7032002F005FC60B14B
:10271000074C1049206822F0CEF802F01DFC21F091
:1027200076F80D49206822F0C6F8042005B030BDC7
:102730005C13002014030400A8F703004AFE030002
:10274000F4F80300BAF703000BF9030004F90300DF
:1027500020F90300ECF7030031F9030008B5024843
:1027600021F074F9052008BD1007040010B50320FE
:1027700002F0D2FB60B1084C0849206822F09BF8B7
:1027800002F0EAFB21F043F80549206822F093F8B3
:1027900002F068FB042010BD5C130020ECF703007E
:1027A00050F9030037B50B68464A0446934206D0F9
:1027B00002F1806293422ED0002003B030BD424B24
:1027C000828B1B68B3F80530A2B1C383032002F0EB
:1027D000A3FB08B90220F0E73C4C3D49206822F0F9
:1027E0006AF802F0B9FB21F012F83A49206822F0A9
:1027F00062F8EFE78383032002F08EFB0028E9D024
:10280000324C3349206822F056F802F0A5FB20F044
:10281000FEFF3149EAE7C38B2BB1838B1BB12F4BF2
:1028200083600720C9E794F8220010F079FEE06089
:1028300018B3264D2A49286822F03DF8294928680E
:1028400022F039F802F088FB20F0E1FF264B274AFE
:1028500027490093286840F23D3322F02CF825499F
:10286000E368254A286822F026F8E06802F0CEFBEB
:102870002249286822F01FF8FEE7FF23022084F88F
:10288000333002F049FB60B1104C1D49206822F042
:1028900012F802F061FB20F0BAFF1A49206822F01A
:1028A0000AF8022002F038FB002893D0074C1449A4
:1028B000206822F000F802F04FFB20F0A8FF124938
:1028C00094E700BFA00009026C1200205C130020F6
:1028D000ECF703005DF9030074F9030098010400AC
:1028E00014030400A8F7030011FF0300F4F8030029
:1028F000BAF703000BF9030004F9030020F9030001
:102900008EF9030093F90300C9F9030037B50B688A
:102910003C4A044693425CD002F1806293426FD1FC
:10292000038C23B1384B8360072003B030BD90F88F
:10293000220010F0F5FDE06018B3344D34492868EA
:1029400021F0B9FF3349286821F0B5FF02F004FBFC
:1029500020F05DFF304B314A31490093286840F246
:102960002B4321F0A8FF2F49E3682F4A286821F064
:10297000A2FFE06802F04AFB2C49286821F09BFF87
:10298000FEE7FF23022084F8333002F0C5FA60B17D
:102990001E4C2749206821F08EFF02F0DDFA20F05E
:1029A00036FF2449206821F086FF022002F0B4FAA5
:1029B00008B90220B9E7154C1D49206821F07BFFBA
:1029C00002F0CAFA20F023FF1B49206821F073FFB0
:1029D000EFE71A4B1A685379927943EA022303848A
:1029E000032002F099FA0028E3D0084C144920682B
:1029F00021F061FF02F0B0FA20F009FF1149E4E78D
:102A0000002092E7A0000902580104005C13002096
:102A100014030400A8F7030062FE0300F4F80300A7
:102A2000BAF703000BF9030004F9030020F90300CF
:102A30008EF9030093F90300C9F903006C1200201A
:102A4000ECF70300DEF9030037B50B68B04A044623
:102A5000934200F0768207D8042B0BD0052B00F0B0
:102A60009E82002003B030BDAA4A9342F9D102F001
:102A7000F9F93CE14B7A032B00F23981DFE813F0DE
:102A800004007601160254020A7AA34B53F822304E
:102A9000A24A934240F08380532380F8273090F875
:102AA0002B30C18B80F828300123032280F8293095
:102AB00000F1270390F8220010F0B0FDE06018B399
:102AC000974D9849286821F0F6FE9749286821F02B
:102AD000F2FE02F041FA20F09AFE944B944A0093E1
:102AE000944940F25313286821F0E5FE9249E368C7
:102AF000924A286821F0DFFEE06802F087FA9049E8
:102B0000286821F0D8FEFEE7032002F005FA80B124
:102B1000834D8C49286821F0CEFE02F01DFA20F08A
:102B200076FE94F8293094F82B208749286821F004
:102B3000C2FE0122854B86481A7020F087FF0023D1
:102B40007821CDE90033834A834807F031FDE06006
:102B5000002800F0C880724D7249286821F0ABFE51
:102B60007149286821F0A7FE02F0F6F920F04FFE27
:102B70006E4B6F4A00936F4940F28F13286821F023
:102B80009AFE6D49E3686D4A286821F094FEE0687A
:102B900002F03CFA6A49286821F08DFEFEE76F4A90
:102BA00093424DD1502380F8273090F82B3080F895
:102BB00028302B2380F82930032002F0ADF980B1B2
:102BC000574D6049286821F076FE02F0C5F920F0E3
:102BD0001EFE94F8293094F82B206149286821F0D2
:102BE0006AFE0322E18B94F8220004F1270310F01F
:102BF00015FDE06000289CD0494D4A49286821F025
:102C00005AFE4949286821F056FE02F0A5F920F045
:102C1000FEFD464B464A009346494FF4B37328687D
:102C200021F049FE4449E368444A286821F043FE04
:102C3000E06802F0EBF94249286821F03CFEFEE72B
:102C4000484A93427FF475AF502380F8273090F8BC
:102C50002B3080F828302D2380F82930032002F013
:102C60005BF980B12E4D3749286821F024FE02F02F
:102C700073F920F0CCFD94F8293094F82B203849D2
:102C8000286821F018FE0322E18B94F8220004F159
:102C9000270310F0C3FCE06000283FF44AAF204D4A
:102CA0002049286821F007FE1F49286821F003FE0B
:102CB00002F052F920F0ABFD1C4B1D4A00931D4958
:102CC0004FF4BB73286821F0F6FD1B49E3681B4AEB
:102CD000286821F0F0FDE06802F098F918492868AA
:102CE00021F0E9FDFEE7032002F016F908B9022001
:102CF000B8E60B4C1349206821F0DDFD02F02CF9F9
:102D000020F085FD1849206821F0D5FDEFE700BFD0
:102D1000A0000601A0000906CC0A0020C806040095
:102D20005C13002014030400A8F70300B2FF0300A3
:102D3000F4F80300BAF703000BF9030004F90300E9
:102D400020F90300ECF703000AFA0300C32A00206D
:102D500010070400AD46010038120020E006040010
:102D60001CFA0300F806040030FA0300A14B0A7AAB
:102D700053F82220A04B9A427FF479AE90F82B3082
:102D80005322022B8EBF00230133DBB280F82B309D
:102D900080F8272080F8283080F82920C18B00F1A6
:102DA0002703032290F8220010F038FCE06018B3EB
:102DB000924D9349286821F07EFD9249286821F0C0
:102DC0007AFD02F0C9F820F022FD8F4B8F4A009364
:102DD0008F4940F2A513286821F06DFD8D49E36805
:102DE0008D4A286821F067FDE06802F00FF98B49F1
:102DF000286821F060FDFEE7032002F08DF880B125
:102E00007E4D8749286821F056FD02F0A5F820F094
:102E1000FEFC94F8293094F82B208249286821F090
:102E20004AFD0225804B81481D7020F00FFE0023D3
:102E30007821CDE900337E4A7E4807F0B9FBE06097
:102E400018B36E4D6E49286821F035FD6D4928682C
:102E500021F031FD02F080F820F0D9FC6A4B6B4A7A
:102E600000936B494FF4DC73286821F024FD694915
:102E7000E368694A286821F01EFDE06802F0C6F8A0
:102E80006649286821F017FDFEE7032002F044F8A8
:102E900000283FF42CAF594C6149206821F00BFD0C
:102EA00002F05AF820F0B3FC63492CE7514B0A7A40
:102EB00053F82220614B9A427FF4D9AD90F822005A
:102EC00010F02EFBE06018B34C4D4D49286821F0FE
:102ED000F2FC4C49286821F0EEFC02F03DF820F0AD
:102EE00096FC494B494A009349494FF4E4732868DA
:102EF00021F0E1FC4749E368474A286821F0DBFC00
:102F0000E06802F083F84549286821F0D4FCFEE728
:102F1000032002F001F800283FF4A9AD374B4849DF
:102F2000186821F0C8FCA2E5032001F0F5FF20B1EC
:102F3000324B4449186821F0BEFC002026F094F979
:102F4000D5E63C4807F014FAE06098B9032001F098
:102F5000E3FF60B1294D3249286821F0ACFC01F053
:102F6000FBFF20F054FC3849286821F0A4FC2F48CE
:102F700020F069FD032001F0CFFF60B11F4D28490B
:102F8000286821F098FC01F0E7FF20F040FC2F4971
:102F9000286821F090FC2E4B0720A36062E590F892
:102FA000220010F0BDFAE060002853D0134D144900
:102FB000286821F080FC1349286821F07CFC01F08E
:102FC000CBFF20F024FC104B104A009310494FF423
:102FD0000373286821F06FFC0E49E3680E4A2868E5
:102FE00021F069FCE06802F011F80C49286821F032
:102FF00062FCFEE7CC0A0020C80604005C13002037
:1030000014030400A8F70300B2FF0300F4F8030060
:10301000BAF703000BF9030004F9030020F90300D9
:10302000ECF703000AFA0300C32A0020100704008B
:10303000AD460100381200203DFA0300F8060400F6
:103040004AFA030061FA03006FFA03007FFA0300F3
:10305000F4010400032001F05FFF60B1074C084950
:10306000206821F028FC01F077FF20F0D0FB054913
:10307000206821F020FC01F011FF38E65C130020ED
:10308000ECF703004AFA03000B68594A73B5934200
:1030900004460CD002F1806202F58022934200F0D7
:1030A000A580052B00F08F80002002B070BD514E2E
:1030B00030680579032D01D00120F6E7817D1730B6
:1030C00001F04CFA0028F7D0284601F025FF60B146
:1030D000494D4A49286821F0EEFB01F03DFF20F000
:1030E00096FB4749286821F0E6FB464807F040F97F
:1030F000E06018B3404D4449286821F0DCFB4349A7
:10310000286821F0D8FB01F027FF20F080FB404B1E
:10311000404A0093404940F25523286821F0CBFBF8
:103120003E49E3683E4A286821F0C5FBE06801F0AB
:103130006DFF3C49286821F0BEFBFEE73568EA7A5E
:103140000090A97A6B7A43EA01230146D5F805007D
:1031500063F30F01012310F075F9E06018B3264DF9
:103160002949286821F0A7FB2849286821F0A3FBFA
:1031700001F0F2FE20F04BFB254B264A0093264936
:103180004FF41773286821F096FB2449E368244A1A
:10319000286821F090FBE06801F038FF2149286899
:1031A00021F089FBFEE73368D3F80520C4F82D2011
:1031B000B3F80920DB7AA4F8312084F833301A4BB5
:1031C0000720A36071E7032001F0A6FE60B10A4D5D
:1031D0000A49286821F06FFB01F0BEFE20F017FBC2
:1031E0001249286821F067FB114BE9E702205CE7F0
:1031F000A00005006C1200205C130020ECF7030017
:1032000093FA03003812002014030400A8F7030007
:1032100075FF0300F4F80300BAF703000BF903008D
:1032200004F9030020F90300E4010400B1FA0300EB
:10323000D4010400224B37B51B6804464169187954
:1032400010F092F9E06018B31E4D1F49286821F074
:1032500032FB1E49286821F02EFB01F07DFE20F094
:10326000D6FA1B4B1B4A1C490093286840F2F223F4
:1032700021F021FB1949E368194A286821F01BFB5A
:10328000E06801F0C3FE1749286821F014FBFEE74F
:10329000E061032001F040FE60B10A4C1249206851
:1032A00021F009FB01F058FE20F0B1FA0F49206827
:1032B00021F001FB0E4820F0C9FB042003B030BD13
:1032C0006C1200205C13002014030400A8F7030014
:1032D00034FF0300F4F80300BAF703000BF903000E
:1032E00004F9030020F90300ECF70300C2FA03001D
:1032F0001007040037B5044690F8220010F022F9B8
:10330000E06018B31D4D1E49286821F0D4FA1D490C
:10331000286821F0D0FA01F01FFE20F078FA1A4B4D
:103320001A4A1B49009328684FF46A7321F0C3FAC4
:103330001849E368184A286821F0BDFAE06801F0EE
:1033400065FE1649286821F0B6FAFEE7032001F071
:10335000E3FD60B1094C1249206821F0ACFA01F09C
:10336000FBFD20F054FA0F49206821F0A4FA0E4822
:1033700020F06CFB042003B030BD00BF5C130020C4
:1033800014030400A8F70300D9FE0300F4F80300B7
:10339000BAF703000BF9030004F9030020F9030056
:1033A000ECF70300E6FA0300100704000B68564A26
:1033B00073B59342044606D002F1A06293424CD00A
:1033C000002002B070BD514B10221D68504905F11C
:1033D0000A0630462AF0CCFEB0B9D5F805300320F5
:1033E000636101F099FD08B90220EAE7494C4A49B6
:1033F000206821F060FA01F0AFFD20F008FA47499B
:10340000206821F058FAEFE70222304644492AF0BA
:10341000AFFE90B9D5F805300320A36101F07CFD23
:103420000028E1D03B4C3C49206821F044FA01F0EF
:1034300093FD20F0ECF93B49E2E7022001F06CFD3E
:103440000028D1D0334C3849206821F034FA01F0FB
:1034500083FD20F0DCF93549D2E743692BB183695C
:103460001BB1334B83600720ABE794F8220010F0C8
:1034700057F8E06018B3274D2E49286821F01BFA51
:103480002D49286821F017FA01F066FD20F0BFF9F8
:103490002A4B2B4A00932B4940F2E733286821F04E
:1034A0000AFA2949E368294A286821F004FAE06801
:1034B00001F0ACFD2649286821F0FDF9FEE7FF2365
:1034C000022084F8333001F027FD60B1114C164919
:1034D000206821F0F0F901F03FFD20F098F91D4936
:1034E000206821F0E8F9022001F016FD00283FF4E1
:1034F0007BAF084C0C49206821F0DDF901F02CFD70
:1035000020F085F914497BE7A00009016C12002026
:103510004A0304005C130020ECF70300FDFA0300EB
:103520005C03040022FB03008EF9030048FB030048
:103530006401040014030400A8F70300A4FE0300C0
:10354000F4F80300BAF703000BF9030004F90300D1
:1035500020F9030061FB0300C9F9030037B5214BD3
:1035600004468169022290F8220010F013F8E0600E
:1035700018B31D4D1D49286821F09DF91C49286884
:1035800021F099F901F0E8FC20F041F9194B1A4AB1
:103590001A490093286840F20C4321F08CF918492D
:1035A000E368184A286821F086F9E06801F02EFDEA
:1035B0001549286821F07FF9FEE7032001F0ACFCF3
:1035C00060B1094C1149206821F075F901F0C4FC83
:1035D00020F01DF90E49206821F06DF9042003B098
:1035E00030BD00BF5A0304005C1300201403040024
:1035F000A8F7030082FE0300F4F80300BAF7030003
:103600000BF9030004F9030020F90300ECF70300B1
:1036100090FB030037B50446818B012290F822000D
:103620000FF0CEFFE06018B31D4D1E49286821F051
:1036300042F91D49286821F03EF901F08DFC20F087
:10364000E6F81A4B1A4A1B490093286840F2854352
:1036500021F031F91849E368184A286821F02BF95C
:10366000E06801F0D3FC1649286821F024F9FEE750
:10367000032001F051FC60B1094C1249206821F08F
:103680001AF901F069FC20F0C2F80F49206821F016
:1036900012F90E4820F0DAF9042003B030BD00BF63
:1036A0005C13002014030400A8F7030029FE0300A4
:1036B000F4F80300BAF703000BF9030004F9030060
:1036C00020F90300ECF70300BCFB03001007040023
:1036D0000B68794A73B59342044600F0E88009D834
:1036E000052B00F0A48002F17F42934220D00020FD
:1036F00002B070BD714A934200F0818002F1807285
:103700009342F4D1032001F007FC60B16C4D6D4988
:10371000286821F0D0F801F01FFC20F078F86A4901
:10372000286821F0C8F8FF2384F83330674B61E044
:10373000674D2B681B7B80F82230032001F0ECFBE7
:1037400060B15F4E5F49306821F0B5F801F004FCCC
:1037500020F05DF85F49306821F0ADF803220221C6
:1037600094F822000FF0C6FEE06018B3544D5A4999
:10377000286821F0A0F85949286821F09CF801F048
:10378000EBFB20F044F8564B564A0093564940F262
:10379000DD43286821F08FF85449E368544A2868CB
:1037A00021F089F8E06801F031FC5249286821F0E5
:1037B00082F8FEE72B685B7BFF2B7AD0E38BE3B1CB
:1037C000A38BD3B16369C3B1032001F0A5FB60B142
:1037D0003B4E3C49306821F06EF801F0BDFB20F013
:1037E00016F84549306821F066F82B685B7B84F851
:1037F0002C30424B0720A3607AE7414BFAE70320C5
:1038000001F08AFB60B12E4D2E49286821F053F853
:1038100001F0A2FB1FF0FBFF3A49286821F04BF8AA
:103820002B4B1B685B7984F82C30374BE2E7032085
:1038300001F072FB60B1224D2249286821F03BF86B
:1038400001F08AFB1FF0E3FF3049286821F033F8CC
:1038500094F822000FF064FEE06018B3184D1E4982
:10386000286821F028F81D49286821F024F801F083
:1038700073FB1FF0CCFF1A4B1A4A00931A4940F20F
:103880004353286821F017F81849E368184A286854
:1038900021F011F8E06801F0B9FB1649286821F021
:1038A0000AF8FEE7FF23022084F8333020E7184BA4
:1038B000A0E701201CE700BFA0000601A0000F0345
:1038C0005C130020ECF7030003FC03003802040043
:1038D0006C120020DEFB030014030400A8F70300B1
:1038E000EFFF0300F4F80300BAF703000BF903003D
:1038F00004F9030020F90300F2FB03005C0204005A
:103900004802040016FC03001C0204002CFC030007
:10391000C401040038B50A681C4B04469A4232D1EF
:103920001B4B1B68B3F8052041F212139A4214D1C5
:10393000022001F0F1FA60B1164D1749286820F015
:10394000BAFF01F009FB1FF062FF1449286820F05C
:10395000B2FF134B0720A36038BD032001F0DCFA4F
:1039600060B10C4D0F49286820F0A5FF01F0F4FA72
:103970001FF04DFF0C49286820F09DFF01220B4BE2
:103980001A700B4BE6E70020E6E700BFA00009062F
:103990006C1200205C1300208EF9030048FC030029
:1039A00088010400ECF703005FFC0300C52A002037
:1039B0007401040038B50A680D4B04469A4214D1CC
:1039C000032001F0A9FA60B10A4D0B49286820F0E4
:1039D00072FF01F0C1FA1FF01AFF0849286820F0B1
:1039E0006AFF0720064BA36038BD0020FCE700BF3C
:1039F000A00009065C130020ECF7030071FC030033
:103A00004C01040037B5494B0A6804469A4240F01D
:103A10008B80032001F080FAA0B1454D454928680C
:103A200020F049FF01F098FA1FF0F1FE424B1968AF
:103A30004889CB888A8801900989286800913F4984
:103A400020F039FF00F0FCFD032126200FF04AFE94
:103A50000246E06010B3364D3949286820F02BFF4C
:103A60003849286820F027FF01F076FA1FF0CFFED2
:103A7000354B364A364900932868812320F01BFFD6
:103A80003449E368344A286820F015FFE06801F003
:103A9000BDFA3249286820F00EFFFEE74FF6FF73AB
:103AA0004FF49671CDE900034FF4FA73C8200FF07C
:103AB000A5FCE06010B31E4D2149286820F0FBFEF4
:103AC0002049286820F0F7FE01F046FA1FF09FFE1B
:103AD0001D4B1E4A1E4900932868922320F0EBFEDE
:103AE0001C49E3681C4A286820F0E5FEE06801F004
:103AF0008DFA1A49286820F0DEFEFEE7032001F067
:103B00000BFA60B10A4D0B49286820F0D4FE01F091
:103B100023FA1FF07CFE1249286820F0CCFE072013
:103B2000104BA36003B030BD0020FBE7A0000100F4
:103B30005C130020ECF703006C1200208AFC0300E9
:103B400014030400A8F70300D8FF0300F4F80300EF
:103B5000BAF703000BF9030004F9030020F903008E
:103B6000B2FC03001002040037B590F8333004466D
:103B7000FF2B39D01E4806F0FBFBE06018B31D4D4B
:103B80001D49286820F097FE1C49286820F093FE04
:103B900001F0E2F91FF03BFE194B1A4A1A49009353
:103BA00028684FF4996320F086FE1849E368184AA4
:103BB000286820F080FEE06801F028FA154928689E
:103BC00020F079FEFEE7032001F0A6F960B1094C70
:103BD0001149206820F06FFE01F0BEF91FF017FEBA
:103BE0000E49206820F067FE052003B030BD00BFFD
:103BF000381200205C13002014030400A8F703000F
:103C000002000400F4F80300BAF703000BF9030004
:103C100004F9030020F90300ECF70300C6FC0300DD
:103C200037B505460FF03EFDE86018B3134C144954
:103C3000206820F040FE1349206820F03CFE01F08F
:103C40008BF91FF0E4FD104B104A114900932068D6
:103C500040F2412320F02FFE0E49EB680E4A206807
:103C600020F029FEE86801F0D1F90C49206820F025
:103C700022FEFEE7052003B030BD00BF5C1300202C
:103C800014030400A8F7030088FF0300F4F80300FE
:103C9000BAF703000BF9030004F9030020F903004D
:103CA0000B6837B5042B04464FD190F83320FF2A18
:103CB00049D000F12203009390F8311090F832506F
:103CC0000123D0F82D0041EA05210FF0BBFBE06095
:103CD00018B31F4D1F49286820F0EDFD1E492868C4
:103CE00020F0E9FD01F038F91FF091FD1B4B1C4A53
:103CF00000931C4940F28A53286820F0DCFD1A49E1
:103D0000E3681A4A286820F0D6FDE06801F07EF9E1
:103D10001749286820F0CFFDFEE7032001F0FCF8EA
:103D200060B10B4D1349286820F0C5FD01F014F96E
:103D30001FF06DFD1049286820F0BDFD0F4B0720D6
:103D4000A36003B030BD0E4BF9E70020F9E700BFD8
:103D50005C13002014030400A8F70300C0FE030056
:103D6000F4F80300BAF703000BF9030004F90300A9
:103D700020F90300ECF70300DDFC03002C01040034
:103D80001C01040037B5384B0A6804469A4268D1D2
:103D9000032001F0C1F860B1344D3549286820F0A6
:103DA0008AFD01F0D9F81FF032FD3249286820F071
:103DB00082FD314B1B689A8841F213039A424BD122
:103DC00094F82C000FF0A2FCE06018B3274D2B49AB
:103DD000286820F070FD2A49286820F06CFD01F069
:103DE000BBF81FF014FD274B274A28490093286889
:103DF00040F2C72320F05FFD2549E368254A286883
:103E000020F059FDE06801F001F92349286820F00D
:103E100052FDFEE7032001F07FF860B1134D144915
:103E2000286820F048FD01F097F81FF0F0FC1B49CE
:103E3000286820F040FD032001F06EF860B10B4DC2
:103E40000B49286820F037FD01F086F81FF0DFFCF1
:103E50001349286820F02FFD0720124BA36003B000
:103E600030BD0020FBE700BFA00006015C1300206E
:103E7000ECF70300FFFC03006C12002014030400A5
:103E8000A8F7030059FF0300F4F80300BAF7030092
:103E90000BF9030004F9030020F903001FFD0300E0
:103EA00042FD0300A801040037B50446818B90F859
:103EB00022000FF09DFBE06018B3154D15492868EE
:103EC00020F0F9FC1449286820F0F5FC01F044F8D2
:103ED0001FF09DFC114B124A12490093286840F2D2
:103EE0005F3320F0E8FC1049E368104A286820F0AE
:103EF000E2FCE06801F08AF80D49286820F0DBFC5C
:103F0000FEE70C481FF0A2FD042003B030BD00BF47
:103F10005C13002014030400A8F70300F7FE03005D
:103F2000F4F80300BAF703000BF9030004F90300E7
:103F300020F90300100704001FB503A906F0D6FA04
:103F400038B90346CDE90000034A0399034820F03D
:103F500050FE05B05DF804FB0D430100381200204F
:103F600037B50546032000F0D7FF60B11C4C1D4952
:103F7000206820F0A0FC00F0EFFF1FF048FC1A4979
:103F8000206820F098FC41F28830FFF7D5FFE86008
:103F900018B3134C1549206820F08DFC1449206893
:103FA00020F089FC00F0D8FF1FF031FC114B124AC1
:103FB00012490093206840F2C14320F07CFC104974
:103FC000EB68104A206820F076FCE86801F01EF8E3
:103FD0000D49206820F06FFCFEE7042003B030BDDF
:103FE0005C130020ECF7030060FD030014030400E1
:103FF000A8F7030014FE0300F4F80300BAF7030067
:104000000BF9030004F9030020F9030000234FF625
:10401000FF7230B585B0CDE901324FF4FA720092EB
:1040200004464FF49672C82190F822000FF038FA37
:10403000E06018B3414D4249286820F03CFC4149FA
:10404000286820F038FC00F087FF1FF0E0FB3E4BB3
:104050003E4A3F490093286840F21F1320F02BFC92
:104060003C49E3683C4A286820F025FCE06800F001
:10407000CDFF3A49286820F01EFCFEE7032000F03F
:104080004BFF60B12D4D3649286820F014FC00F03C
:1040900063FF1FF0BCFB3349286820F00CFC42F2A0
:1040A0001070FFF749FFE06018B3244D24492868D9
:1040B00020F001FC2349286820F0FDFB00F04CFFB4
:1040C0001FF0A5FB204B214A21490093286840F2AC
:1040D0002B1320F0F0FB1F49E3681F4A286820F0EB
:1040E000EAFBE06800F092FF1C49286820F0E3FB3F
:1040F000FEE7032000F010FF60B1104C1849206863
:1041000020F0D9FB00F028FF1FF081FB1649206842
:1041100020F0D1FB032000F0FFFE60B1074C1049F6
:10412000206820F0C8FB00F017FF1FF070FB0F495C
:10413000206820F0C0FB042005B030BD5C130020D7
:1041400014030400A8F70300C4FF0300F4F80300FD
:10415000BAF703000BF9030004F9030020F9030088
:10416000ECF7030079FD030095FD0300AFFD0300AC
:1041700008B502481FF06AFC052008BD10070400BE
:1041800008B502481FF062FC052008BD10070400B6
:1041900008B502481FF05AFC052008BD10070400AE
:1041A0000149FEF76DB900BFED240100002310B5F1
:1041B000FF224361C36180F8223080F82B30532303
:1041C00080F8332080F82730022000F0A5FE70B17F
:1041D000074C0849206820F06EFB00F0BDFE1FF080
:1041E00016FB20680449BDE8104020F064BB10BDF8
:1041F0005C1300208EF90300BBFD030037B50446B5
:1042000000F04CFE41F28830FFF796FEE06018B3F4
:10421000324D3349286820F04EFB3249286820F09F
:104220004AFB00F099FE1FF0F2FA2F4B2F4A30495B
:104230000093286840F22F2320F03DFB2D49E368CE
:104240002D4A286820F037FBE06800F0DFFE2B499C
:10425000286820F030FBFEE72046FFF7A7FF01218A
:1042600008460FF02BFAE06018B31C4D1C49286873
:1042700020F021FB1B49286820F01DFB00F06CFE9C
:104280001FF0C5FA184B194A1949009328684FF4D2
:104290000E7320F010FB1749E368174A286820F0D6
:1042A0000AFBE06800F0B2FE1549286820F003FB25
:1042B000FEE7032000F030FE60B1084C1149206891
:1042C00020F0F9FA00F048FE1FF0A1FA0E4920682C
:1042D00020F0F1FA042003B030BD00BF5C130020D1
:1042E00014030400A8F703009DFF0300F4F8030083
:1042F000BAF703000BF9030004F9030020F90300E7
:10430000D3FD0300ECF7030003FE03000122014B81
:104310001A707047C72A002004220A4B70B5002586
:104320001A60E0221D715A71074B1C682046FFF786
:1043300037FF23682A4629462046BDE870401B689F
:10434000184700BF6012002010FE030030B5614B1B
:1043500085B01A78002A7FD000225F481A7006F0D4
:1043600007F8054610B35D4C5D49206820F0A3FABC
:104370005C49206820F09FFA00F0EEFD1FF047FA3C
:10438000594B5A4A00935A498923206820F093FADE
:1043900058492B46584A206820F08DFA284600F0EC
:1043A00035FE5649206820F086FAFEE7032000F02B
:1043B000B3FD60B1494C5249206820F07CFA00F00E
:1043C000CBFD1FF024FA4F49206820F074FA42F226
:1043D000107003A906F08AF8044648B90346CDE9EF
:1043E0000000494A03993C4820F003FC044610B3FE
:1043F0003A4D3B49286820F05EFA3A49286820F097
:104400005AFA00F0A9FD1FF002FA374B374A009321
:1044100037499323286820F04EFA36492346364A16
:10442000286820F048FA204600F0F0FD334928685B
:1044300020F041FAFEE7032000F06EFD60B1274C4A
:104440002F49206820F037FA00F086FD1FF0DFF9D1
:104450002E49206820F02FFA2D4B1A78CAB100227D
:1044600003201A7000F058FD60B11C4C24492068EC
:1044700020F021FA00F070FD1FF0C9F925492068ED
:1044800020F019FA244B00221868244903685B685D
:104490009847234C2378DBB1032000F03DFD60B149
:1044A0000E4D1749286820F006FA00F055FD1FF060
:1044B000AEF91C49286820F0FEF90022164B1A4973
:1044C0001868227003685B6805B0BDE83040184783
:1044D00005B030BDC42A0020381200205C13002033
:1044E00014030400A8F7030037030400700204005B
:1044F000BAF703000BF9030008F9030020F90300E1
:10450000ECF70300790204000D4301008902040066
:10451000C52A0020A302040010FE03006012002040
:10452000C72A0020B402040060030400084B0949B4
:1045300018600368002223F47F4323F007030B6015
:10454000E0234B71044B0A71186803685B681847D5
:104550006C1200205812002010FE03002DE9F041DB
:1045600005460F460024DFF83480BC4202D3002009
:10457000BDE8F0812B195B782E5D063B012B06D838
:10458000A01C10224146284429F0F2FD18B1013642
:104590003444E4B2E9E70120EAE700BF4A0304003B
:1045A00073B51B4E044633785BBB1A491A480FF0AB
:1045B000BFF8054618B3194C1949206820F07BF95B
:1045C0001849206820F077F900F0C6FC1FF01FF9A9
:1045D000154B164A0093164940F22513206820F027
:1045E0006AF914492B46144A206820F064F92846D9
:1045F00000F00CFD1149206820F05DF9FEE7012371
:10460000337014B1034B1B782370034802B070BDA4
:10461000C62A0020C22A0020BC2A00205C130020E9
:1046200014030400A8F7030016030400700204003A
:10463000BAF703000BF9030008F9030020F903009F
:1046400030B589B00DF11F00FFF7AAFF0446032023
:1046500000F062FCF0B1104D1049286820F02BF9F1
:1046600000F07AFC1FF0D3F8227863790492627824
:104670009DF81F000392A27809490292E278019204
:1046800022790092074A002808BF0A46064928688E
:1046900020F011F909B030BD5C130020ECF70300E5
:1046A000D2020400C4020400E002040010B50B4C66
:1046B00023787BB10A481FF0CCF930B108481FF0CD
:1046C000C5F92378013B237010BD0548BDE81040B3
:1046D0001FF0BCB90122034B1A70F5E7C32A002072
:1046E00010070400C42A00200122034B1A70034B58
:1046F0005972187200F0D2BBC52A00206012002047
:1047000030B503687F4A23F47F4323F007039342C5
:1047100089B040F0F4800822002114207A4B0EF07A
:1047200093FF044610B3794D7949286820F0C3F807
:104730007849286820F0BFF800F00EFC1FF067F8F9
:10474000754B764A009376493D23286820F0B3F8EC
:1047500074492346744A286820F0ADF8204600F0DA
:1047600055FC7249286820F0A6F8FEE701460322AE
:1047700016206F4B0EF068FF044610B3634D64497A
:10478000286820F098F86349286820F094F800F031
:10479000E3FB1FF03CF8604B604A009360494B23F9
:1047A000286820F088F85F4923465F4A286820F08F
:1047B00082F8204600F02AFC5C49286820F07BF84B
:1047C000FEE70146052218205A4B0EF03DFF054634
:1047D00010B34E4C4E49206820F06DF84D492068CA
:1047E00020F069F800F0B8FB1FF011F84A4B4B4A73
:1047F00000934B495923206820F05DF849492B4626
:10480000494A206820F057F8284600F0FFFB474946
:10481000206820F050F8FEE70DF10F0104A80EF01B
:1048200087FF044610B3394D3949286820F043F812
:104830003849286820F03FF800F08EFB1EF0E7FFB3
:10484000354B364A009336496423286820F033F804
:1048500034492346344A286820F02DF8204600F0D9
:10486000D5FB3249286820F026F8FEE79DF8153080
:1048700001468DF818309DF8143008228DF8193053
:104880009DF813301A208DF81A30FF238DF81B3055
:10489000FE238DF81C309DF812308DF81D309DF8E8
:1048A00011308DF81E309DF810308DF81F3006AB9A
:1048B0000EF0CAFE054610B3144C154920681FF0CF
:1048C000FAFF144920681FF0F6FF00F045FB1EF0C8
:1048D0009EFF114B114A00931149742320681FF069
:1048E000EAFF10492B46104A20681FF0E4FF2846D3
:1048F00000F08CFB0D4920681FF0DDFFFEE709B0DA
:1049000030BD00BFA0000100680304005C1300205C
:1049100014030400A8F70300A303040071030400B8
:10492000BAF703000BF9030008F9030020F90300AC
:10493000990304009D03040010B5234C01F040FDD1
:1049400001F06AFF236F23F0070343F0030323679B
:104950001FF0D4F91D4B00209B6A9B075EBF01220C
:104960001B4B9A62D4F8203123F0030343F0020377
:10497000C4F82031D4F8243123F0070343F00203B4
:10498000C4F82431D4F8403123F0030343F0020388
:10499000C4F84031D4F8603123F0030343F002033C
:1049A000C4F86031D4F8403223F0030343F002032B
:1049B000C4F84032D4F8003223F0070343F0020376
:1049C000C4F8003210BD00BF0080005000C000508D
:1049D00000E0005008B502F06FFC01280ED1144B26
:1049E00004205A6E4FF480231249520358BF124AD2
:1049F0004B6601F51041086258BF536604F090FA07
:104A00001EF025FF04F01AFA04F074FA04F038FAE4
:104A10001FF0FDFEFFF790FF04F020FA1EF00CFFE0
:104A200000F0AAFD01F0F6F9BDE8084004F086BFE9
:104A3000008000500090005000A0005030B51F4D85
:104A40009DB009AC0FCD0FC495E80F0084E80F00AE
:104A50002822002112A829F0C2FB194B4FF4801420
:104A60001193382313930523159306231022002155
:104A700005A8179329F0B3FB124B09AACDE903430C
:104A80003E238DF814303F238DF815300E4B03A9CB
:104A900006932023079301238DF820300B4B0C48FD
:104AA000009311AB04F0CEFA044600214FF41650E7
:104AB0001EF001FF20461DB030BD00BFA806040057
:104AC0000000035A3400035AC82A00207012002044
:104AD000E8120020022905D8034B1B68186808B1AA
:104AE000436A1847704700BFC80A002008B5044948
:104AF000044804F0E7FFBDE80840FFF79FBF00BF90
:104B0000C00A0020E012002001481FF00BBF00BFC8
:104B1000E8120020014B1A6A18681047E8120020BA
:104B200008B505481EF0FBFE04481EF0F8FEBDE87F
:104B3000084003481EF0F3BEC8060400E006040067
:104B4000F806040001481EF07BBF00BF10070400F8
:104B5000184B37B583422AD1174B1B783BB3C8B2E9
:104B60000EF0DEFC054610B3144C154920681FF00A
:104B7000A2FE144920681FF09EFE00F0EDF91EF021
:104B800046FE114B114A12490093206885231FF0FD
:104B900092FE10492B46104A20681FF08CFE2846D2
:104BA00000F034FA0D4920681FF085FEFEE703B0DF
:104BB00030BD00BF0C130020E82A00205C13002049
:104BC00014030400A8F70300A0070400280704004A
:104BD000BAF703000BF9030008F9030020F90300FA
:104BE00030B5002403685D4A23F47F4323F00703B4
:104BF00085B0934205468DF808408DF809408DF840
:104C00000A408DF80B408DF80C408DF80D407ED099
:104C100002F5802293420ED0A2F18272934240F0BC
:104C20009A804F4B1B78002B00F0958005B0BDE8B3
:104C3000304020F0A1B8B0F80530222B40F08B8036
:104C4000FF2304A91A4611E903001EF0D9FD01282B
:104C500014BF41F2FC14424B04F0FC0208BF187070
:104C6000222128790EF006FD044610B33D4D3E4941
:104C700028681FF020FE3D4928681FF01CFE00F048
:104C80006BF91EF0C4FD3A4B3A4A00933A49592356
:104C900028681FF010FE39492346394A28681FF05A
:104CA0000AFE204600F0B2F9364928681FF003FEDC
:104CB000FEE7354900902B79344A0968344800F002
:104CC000FDF90546002846D0264C274920681FF0EC
:104CD000F2FD264920681FF0EEFD00F03DF91EF0C0
:104CE00096FD234B234A00932349622320681FF03B
:104CF000E2FD22492B46224A20681FF0DCFD2846AF
:104D000000F084F91F4920681FF0D5FDFEE7B0F8D8
:104D10000530B7EE047A07EE903AF8EE677AB0F80D
:104D2000073027EE877A013307EE903AF8EEE77AFC
:104D300067EE277AB1EE047A67EE877AFAFE677A31
:104D4000FCEEE77A17EE903AB3F57A7F38BF4FF46E
:104D50007A730D4A136005B030BD00BFA000060293
:104D6000E82A00205C13002014030400A8F70300C5
:104D7000AF07040028070400BAF703000BF903008B
:104D800008F9030020F90300D80A0020514B010064
:104D90000C13002004210022034B19711A601973AF
:104DA0009A6019751A617047441300202DE9F84381
:104DB0001F4B06461B78ABB90325DFF87C901D4CD2
:104DC00059F8043BB34207D130461EF0ADFD01282F
:104DD0000AD11FF08FFF2060013D15F0FF0504F19F
:104DE0000804EDD1BDE8F88330461EF09DFD8046F5
:104DF0000028F1D11FF07EFF2368C71AFA2005F0C2
:104E000063FBB84202D984F80480E5E74FF4FA6006
:104E100005F05AFBB84202D901232371DCE741F2C5
:104E2000883005F051FBB8428CBF02230323F4E71E
:104E3000190D002044130020CC0A002070B5002476
:104E40000426074D2979E0B2042902D0FFF74CFC73
:104E50002E710134032C05F10805F3D170BD00BF9C
:104E60004413002070B50024094D0A4E55F8040B78
:104E70001EF05AFD012803D11FF03CFF46F8340014
:104E80000134032CF2D10022034B1A7070BD00BF15
:104E9000CC0A002044130020190D0020064B1A787C
:104EA0004AB9012119700421044B19711A60197350
:104EB0009A6019751A617047190D0020441300207B
:104EC000074B187850B9074B1A79042A06D11A7B78
:104ED000042A03D1187D031F58425841704700BF70
:104EE000190D002044130020094B1B785BB9094BB6
:104EF0001879042809D11A7B042A07D11B7D042BB9
:104F000008BF01207047012070470420704700BF90
:104F1000190D0020441300200B4B02461B788BB167
:104F20000A4B1B78834234BF00200120084B1B78BA
:104F30003BB1084B1B7843FA02F212F0010F08BF95
:104F4000002070470120F1E71A0D00201B0D002002
:104F5000E92A00201C0D002073B505F095FA4FF4E6
:104F60007A740E46054605F0A9FA0246A5FB04012F
:104F7000002304FB06111BF077FD4EF66023B0FB07
:104F8000F4F23C21B0FBF3F304FB12040194B2FBF6
:104F9000F1F4B3FBF1F501FB14220092054A01FB89
:104FA0001533B0FBF2F20448044900681FF083FC9B
:104FB00002B070BD80EE36005C130020CF07040005
:104FC000012208B5074B1A700022074B1A70042201
:104FD000064B1A701F22064B1A7003F0CBFF054BCD
:104FE000186008BD1A0D0020E92A00201B0D0020C2
:104FF0001C0D00205C130020024B034918681FF0B1
:105000005ABC00BF5C130020E607040070B50C4CCE
:105010000C49064620681FF04EFC03F0ABFF054626
:10502000206803F09BFF3046FFF7E6FF284603F0B9
:1050300095FF20680449BDE870401FF03CBC00BFEC
:105040005C130020E8070400EA07040038B50546B1
:105050001EF070FE00230B4A14685CB1AC4206D10E
:10506000A96A6BB199621EF06BFE012007E023462E
:10507000A46AF2E7002DF3D01EF062FE204638BD90
:105080001160F0E76013002010B5044690B105F000
:105090006FF92046FFF7DAFF58B194F82C0040B1C1
:1050A0001EF048FE044A1368013B13601EF048FEE0
:1050B000002010BD2220FCE7641300202DE9F04FF2
:1050C00085B00546914698460E469DF8387009B958
:1050D000002F66D12846FFF7D7FF0446002840D1AD
:1050E00085F82C00686305F097FA86423DD905F0F3
:1050F000E5F940F2E7318C462146E6FB00C14FF46A
:105100007A72604600231BF0AFFC4FF0FF320023A1
:1051100083468A461BF0A8FC4FF0FF32E886002346
:10512000584651461BF0A0FC2B4611462846CDE9B7
:1051300000441D4A1FF0B9FD044690B9C5E908981E
:1051400085F82D702E631EF0F5FD184A136833B3F1
:105150001A469B6A002BFBD195620023AB621EF0BE
:10516000EFFD204605B0BDE8F08F47B12B46314634
:105170002846CDE900440C4A05F0D6F9DCE7304674
:1051800003A905F0B3F904460028EAD12B462846C6
:10519000CDE90077044A03991FF063FDCCE7156061
:1051A000DBE72124DDE700BFB151010060130020DF
:1051B00091F82C3013B50C4683B98B8ECA8E93426E
:1051C0000ED243B9CDE9003320460B46104A4FF0CA
:1051D000FF311FF02AFDA38E0133A38602B010BD5C
:1051E00052B191F82D307BB101230093D1E908230E
:1051F0002046096BFFF762FF0123064A84F82C3032
:10520000136801331360E9E7084605F0B1F8F3E7E6
:10521000B1510100641300202DE9F041144E3368B0
:1052200023B34FF00008134F1EF084FD05463C6881
:1052300024B92846BDE8F0411EF082BD94F82C3018
:1052400093B1336884F82C80013B336094F82D309F
:1052500013B92046FFF7FAFE28461EF071FDD4E987
:10526000083120469847DFE7A46AE1E7BDE8F0810E
:105270006413002060130020034B1B68002B0CBF3D
:1052800001200420704700BF64130020024B1868FF
:10529000B0FA80F0400970476413002007B5082079
:1052A0001EF0B5FB02238DF80030054B68460193D4
:1052B0001EF0D1FA082003B05DF804EB1EF0B3BB7A
:1052C000006A18102DE9F047434D88B001AC0FCDAE
:1052D0000FC495E80700012584E8070001213A2062
:1052E00000F092FFDFF8FC800121282000F08CFF05
:1052F0003A4B404601A903938DF8125002F01CF876
:105300002B4604220021022001F0E0FD2A46294616
:105310000023022001F0DAFD02212B460846042278
:1053200001F0D4FD042203212B46022001F0CEFD22
:105330004FF002132A4C0226C4F83036A3F580330E
:10534000C4F82C361C230827C4F8346604F5005A28
:10535000C4F81C364FF4487005F0FAFA04F5805989
:105360001420CAF8707005F0F3FA2320C9F87070A1
:1053700005F0EEFAB9214046CAF870701EF061FDE2
:10538000002330461A461946C9F8707001F09EFD98
:10539000002329461A46304601F098FD2B46314637
:1053A0003046002201F092FD2B46002203213046B8
:1053B00001F08CFD404601F091FF00212820C4F847
:1053C0003016C4F82C16C4F83416C4F81C1600F0B5
:1053D0001BFF08B0BDE8F087F007040000127A0058
:1053E00000C0035000C005500348044A0449121A83
:1053F00092101EF070BA00BFCC570400CC570400C6
:10540000042C002008B500F02FF8FFF7EDFF124B39
:1054100012498B4212D30020114B12498B4218D3F0
:10542000FCF74AFF186850F82240586840F82240BC
:10543000013298688242F5D30C33EAE70022F8E79C
:105440001C6844F8220001325C68A242F8D3083399
:10545000E4E70022F8E700BF685304007453040037
:1054600074530400745304004FF400414FF0FF30B4
:10547000124B134A10B59A60D3F8882042F4700298
:10548000C3F888200F4A916601F1884101F5005266
:1054900010664FF6DF7050660220C3F8D000BFF3ED
:1054A0004F8FBFF36F8F08244FF440330648C0F886
:1054B0008041D36004600B6110BD00BF00ED00E0CF
:1054C000002001000090005000E100E0014B18684E
:1054D000704700BFE00A0020084B1B6F03F0070372
:1054E000022B04D0032B05D0012B05D0FEE7044B83
:1054F00018687047034BFBE7034870470080005073
:10550000E00A0020E40A0020002D310108B5FFF771
:10551000E3FF054B1B6FC3F303330133B0FBF3F021
:10552000024B186008BD00BF00800050DC0A00205C
:105530000048704700B4C404014B1868704700BFAE
:10554000E40A0020054B1860054B1B6F03F00703AE
:10555000032B01D1FFF7DABF704700BFE40A002038
:105560000080005000487047002D3101014B186841
:10557000704700BFE80A00200020836A10B5B3F529
:10558000903F0ED21968084A91420AD1074C2278FE
:1055900012F0FD0F04D1DB69984708B9012323708D
:1055A00010BD4FF48170FBE707B0CD5EEA2A002002
:1055B0004FF00053074A1A60BFF34F8F0649074B5D
:1055C000CA6802F4E0621343CB60BFF34F8F00BFA1
:1055D000FDE700BF02020FF000ED00E00400FA0555
:1055E00005490A681318054883428CBF4FF0FF3203
:1055F0000B601046704700BFEC0A002000800020BE
:10560000F7B50468012105463A2000F0FDFD0023AE
:1056100001226179207901F059FC1423302122798B
:1056200011FB023101F1A04101F570310968637984
:10563000D940C943A37901F00101022B217017D190
:1056400000F044FB164A2B466179207900F068FB94
:10565000FF28024660790ED12A46114900F08AFBE4
:105660000123024661792079CDE9003301F0D6FBB0
:10567000002003B0F0BD01262779002301460096E3
:10568000384601F085FC2A460549607900F072FB36
:105690000023617902462079009301963346E5E7BD
:1056A0003339030008B501213A2000F0ADFD032194
:1056B00001230422002001F009FC00201EF0A8FBB9
:1056C0000122214B4FF46070C3F844241EF04EFABF
:1056D0001E4B00F5D520D3F8F02000F2FC4042F03C
:1056E0000102C3F8F020D3F8FC2042F08072C3F826
:1056F000FC20174AA3F55D431A60164B0222B0FB4B
:10570000F3F0154B01381861C3F8F0204FF48072A4
:10571000C3F804234FF06043104A0020C3F8B02FB1
:105720000F4AC3F8802ED3F8002E42F48072C3F8DB
:10573000002EFF2283F82020D3F8002E22F480725E
:10574000C3F8002E08BD00BF00D0035000ED00E0FC
:10575000FF030040F8590D00000004E055CEACC531
:10576000090001004FF06043D3F8802E30B5D20716
:1057700015D501240B4D8440D5F8FC2042F08072F1
:10578000C5F8FC20D3F8002E2243C3F8002E53F8AE
:105790002020002AF0D003F82010002030BD112076
:1057A000FCE700BF00ED00E010B50122437801786E
:1057B000847830209A40054B00FB01331CB942F23B
:1057C00010015A5010BD41F21001FAE700C0035019
:1057D00010B5012243780178847830209A40054B37
:1057E00000FB01331CB941F210015A5010BD42F2C6
:1057F0001001FAE700C003502DE9F04F9A46564BCE
:1058000085B01B7806460F461546DDF83C909DF89E
:1058100044B0DDF85080002B00F08D80072A00F2A4
:105820008C800E9B002B00F08880B9F1000F00F0F7
:105830008480129BB3F5006F7FDC012802D1109B9E
:10584000002B7AD0454B03EB05131B7B002B76D046
:10585000434C10220021684628F0C1FC04EB45149B
:105860001022002F59D13946204628F0B8FC43F2C7
:1058700010036380BBF1000F03D1E37843F003030F
:10588000E370374A0E9B02EB451CCCE90193129B57
:105890006901013BC3F30A009DF84C30012E03F06F
:1058A00003034FEA836343EA001E53582D48CDF8A3
:1058B00000A000EA03004EEA0003535041D1132335
:1058C0000CF1100ECCF80C309CE80F008EE80F00A5
:1058D0006FF00301DCF81C20109B61F39F02012F85
:1058E000CCF81C20CCF8143003D1CCF81890CCF8AC
:1058F00004300027194A290102EB051342F8018000
:10590000159A28465A60694622469F605E7301F0E8
:10591000BBFB384605B0BDE8F08F0021204628F0DB
:105920005EFC4FF444736380BBF1000FA9D1E378B0
:1059300043F03003A4E70C48ECE70C48EAE70C48D6
:10594000E8E7B8F1000FD4D19CF8023068F30413F3
:105950008CF80230CDE700BFEB2A0020681300204E
:10596000E81300200F80FFF3028000F0018000F0B8
:10597000078000F038B5124B05461B78DBB1E0B16B
:105980001EF0D8F90F4A00231146147B54B92B603E
:1059900001251A0101EB03131D738C501EF0D0F981
:1059A000204638BD0133082B02F11002EDD11EF064
:1059B000C7F90548F5E70548F3E70548F1E700BFF3
:1059C000EB2A002068130020048000F0028000F021
:1059D000018000F013B51EF0ADF900230B4A147BD3
:1059E0007CB90133082B02F11002F8D1019001F0CB
:1059F000EDFA074B01981C701EF0A2F9204602B088
:105A000010BD1EF09DF90348F9E700BF68130020A0
:105A1000EB2A0020058000F00D4B10B51B780446E2
:105A200093B1072812D81EF085F90A4B03EB041333
:105A30001A7B2AB100241C731EF082F9204610BD87
:105A40001EF07EF90448FAE70448F8E70448F6E750
:105A5000EB2A002068130020068000F0028000F08E
:105A6000018000F0154B13B51868002301908DF8E4
:105A700004301EF05FF9124B1C7824B11EF060F95F
:105A8000104802B010BD01221A701EF059F90E4BD9
:105A900001A81C731C7783F82C4083F83C4083F8E2
:105AA0004C4083F85C4083F86C4083F87C400823CA
:105AB0008DF8073001F0B6FA2046E2E75C080400F2
:105AC000EB2A0020038000F0681300200A4A08B582
:105AD00012785AB107280BD8084A02EB00131B7B37
:105AE00043B1002101F090FA002008BD0448FCE712
:105AF0000448FAE70448F8E7EB2A0020681300207E
:105B0000028000F0018000F0078000F00A4A08B52A
:105B100012785AB107280BD8084A02EB00131B7BF6
:105B200043B1012101F070FA002008BD0448FCE7F0
:105B30000448FAE70448F8E7EB2A0020681300203D
:105B4000028000F0018000F0078000F00A4A08B5EA
:105B5000127852B107280AD8084A02EB00131B7BBF
:105B60003BB101F0DBFA002008BD0548FCE7054821
:105B7000FAE70548F8E700BFEB2A00206813002089
:105B8000028000F0018000F0078000F00D4B1B78D0
:105B900093B1072812D889B10B4B03EB00131B7B81
:105BA00073B10A4B1A6D012303FA00F010401ABFBB
:105BB00000200B7008707047054870470548704713
:105BC00005487047EB2A00206813002000000450AD
:105BD000028000F0018000F0078000F00B4A10B551
:105BE00012780C4662B107280CD859B1084A02EB6A
:105BF00000131B7B43B101F0A3FA2070002010BDFD
:105C00000448FCE70448FAE70448F8E7EB2A0020D8
:105C100068130020028000F0018000F0078000F08F
:105C20002DE9F843174B1F6D5B6D1F4000D5FEE754
:105C300001260025144CDFF85480DFF854903742D9
:105C400017D02368C8F850609BB1A168284601317D
:105C50006268A1609847637B012B0AD148B909EBC0
:105C600045131A7B60F341021A731A7F60F34102F5
:105C70001A770135082D4FEA460604F11004DED1EB
:105C8000BDE8F88300000450681300200020045091
:105C9000E813002070B5044601250B4E04B970BD11
:105CA00094FAA4F0B0FA80F005FA00F306EB0012C3
:105CB00024EA03045368002BF0D0117B11B19168E2
:105CC0009847EBE79847E9E7E814002008B5192062
:105CD00000F0CEFD28B14FF00072074BC3F88021D1
:105CE0001A601A2000F0C4FD28B14FF08062024B08
:105CF000C3F880211A6008BD00E100E038B5054610
:105D00000C461EF017F80022044B03EB05135C60F1
:105D10001A73BDE838401EF013B800BFE814002025
:105D2000F8B504460D4617461E461EF003F81CB98A
:105D3000052D0DD0FF2414E0012C03D1012DF9D144
:105D4000032405E0022CF5D17DB1052DF2D1072405
:105D50000123074D04F1100105EB0111C1E90176A2
:105D60000B731DF0EDFF2046F8BD0624F0E700BFE1
:105D7000E8140020F8B505460F4616461DF0DAFF78
:105D8000104B05F0FC02D3F824140023EC1804F0A7
:105D90000304144321FA04FC1CF0010F07D0013363
:105DA000042BF3D1FF241DF0CBFF2046F8BDFF2CC0
:105DB000F9D00122044B03EB0413C3E901761A73F3
:105DC000F1E700BF00C00350E8140020074BD3F8F0
:105DD0002404D3F8202403F50053104000F055307C
:105DE00020F05020C3F82004FFF754BF00C0035038
:105DF000074BD3F82404D3F8202403F500531040B4
:105E000000F0AA3020F0A020C3F82004FFF742BF22
:105E100000C00350024B1968024B186813F0C6BD4E
:105E2000F40A0020F00A002037B5920004460D461F
:105E3000019229F071FC431C0BD060B92946204621
:105E4000019A28F095F90028044808BF002003B003
:105E500030BD0348FBE70348F9E700BF10E000F05E
:105E600021E000F024E000F010B5044629F064FCC5
:105E7000431C10D088B901F027FA234620F0030014
:105E80002044984201D1002010BD53F8042B013268
:105E9000F7D00348F8E70348F6E70348F4E700BF04
:105EA0000EE000F021E000F024E000F008B51DF065
:105EB0003AFF014B186008BD281D0020014B1868EF
:105EC0001DF035BF281D0020044BD3F88420D206D6
:105ED000FBD4D3F88400C0F3811070470040005019
:105EE00038B5104B0546D3F820310C4603F00303B8
:105EF000022B0BD0032B0DD0012B0FD1FFF7E6FAAD
:105F0000052305B1286004B1236038BDFFF714FBF9
:105F10000323F6E7FFF726FB0223F2E70123002025
:105F2000EFE700BF0080005073B50D4600210E4B17
:105F30000191D3F88041064604F00304012C09D0F6
:105F4000022C0CD00C460EB1019B336005B12C60C5
:105F500002B070BD01A8FFF7C3FF0F24F3E7FFF7FE
:105F600001FB0190EFE700BF0080005038B5184BEF
:105F70000546D3F824010C4600F00700062805D892
:105F8000DFE800F0230B131B1F0F17000023184638
:105F900005B1286004B1236038BDFFF797FA0523E7
:105FA000F6E7FFF793FA0623F2E7FFF7C5FA0323B4
:105FB000EEE7FFF7C1FA0423EAE7FFF7D3FA02237B
:105FC000E6E71DF093FC0723E2E70123E0E700BFCB
:105FD0000080005038B5104B0546D3F840310C46D0
:105FE00003F00303022B0BD0032B0DD0012B0FD199
:105FF0001DF07EFC092305B1286004B1236038BD83
:10600000FFF7B4FA0823F6E71DF075FC0B23F2E75F
:1060100001230020EFE700BF0080005038B5144B8B
:106020000546D3F800020C4600F00700042804D807
:10603000DFE800F01B0A0E1216000023184605B117
:10604000286004B1236038BD1DF052FC0923F6E737
:10605000FFF78CFA0823F2E71DF04DFC0B23EEE767
:10606000FFF754FA0E23800AE9E70123E7E700BFB0
:106070000080005038B5104B0546D3F840320C462E
:1060800003F00303022B0BD0032B0DD0012B0FD1F8
:106090001DF02EFC092305B1286004B1236038BD32
:1060A000FFF764FA0823F6E71DF025FC0B23F2E75F
:1060B00000231846EFE700BF0080005038B5104BB2
:1060C0000546D3F860310C4603F00303022B0BD0D6
:1060D000032B0DD0012B0FD11DF00AFC092305B1B4
:1060E000286004B1236038BDFFF740FA0823F6E7C3
:1060F0001DF001FC0B23F2E701230020EFE700BFB6
:106100000080005010B40D4C0B46D4F8204204F02F
:106110000304012C0AD0022C0CD008B1002101602C
:106120000BB100221A605DF8044B70475DF8044B18
:10613000FFF7D6BE5DF8044BFFF74CBF0080005060
:1061400038B50C4605461DF0EEFD064B9A6A82EA0C
:10615000040101EA050454409C62BDE838401DF08A
:10616000E6BD00BF00C00050B0F5207F1FD009D8A9
:10617000B0F5007F15D003D868B1B0F5C07F0AD064
:1061800000200CE0B0F5607FFAD10B4BD3F8800013
:10619000C0F3011003E0084B186FC0F30330013067
:1061A0007047054BD3F89000C0F30460F7E7024B4B
:1061B000186FC0F38020F2E7008000504FF40032E7
:1061C0000E4B014610B500209A66FFF7CDFF41F651
:1061D000713248430A490B4B88428CBF4FF4801000
:1061E0000020DC69DA639A6822F4401202439A6064
:1061F000E20344BF0022DA6310BD00BF00900050EC
:10620000005A620200000350420910B510D0012A62
:1062100010D00B4B0B4C022A18BF234600F01F0076
:1062200051B103F58053012202FA00F0186010BD4D
:106230001346F3E7044BF1E703F50053F3E700BF20
:1062400068800050608200506480005008B5802053
:106250001DF08CFC034B98429EBF4FF48032024BE2
:106260001A6708BD005A620200A000501FB5002343
:10627000B0F5807F019377D028D8382800F094803B
:106280000BD82438092810D809280ED8DFE800F0E8
:10629000676767670D0D620D377D52285FD008D89C
:1062A0003D283BD03E2800F08480019805B05DF881
:1062B00004FB8028F9D1414B1B6F03F00703013B1E
:1062C000032BF2D8DFE803F044413F6CB0F5D06F08
:1062D0005BD019D8B0F5A06F66D00AD8B0F5806F42
:1062E0003DD0B0F5906FE0D1002001A9FFF73EFE50
:1062F000DBE7B0F5B06F2DD0B0F5C06FD5D1002081
:1063000001A9FFF767FED0E7B0F5006FECD00AD81F
:10631000B0F5E06F4DD0B0F5F06FC6D1002001A907
:10632000FFF7CCFEC1E7B0F5086FBED1234BD3F821
:10633000003103F00303022B2CD0032B2ED0012BB2
:1063400030D1FFF7F9F8032300E005230193ACE710
:106350000223FBE7002001A9FFF7E6FDA5E70020E7
:1063600001A9FFF7BDFDA0E702934FF0E0231B69F1
:106370005B0705D5FFF7CAF80C230393039BE5E7FA
:1063800003A902A8FFF726FEF8E7002001A9FFF7FE
:1063900045FE8AE7FFF7EAF80823D7E71DF0A6FADB
:1063A0000723D3E70123D1E7002001A9FFF7AAFEC5
:1063B0007BE7002001A9FFF75DFE76E70080005033
:1063C0004FF40022034B5A66012203F580439A6280
:1063D000704700BF0090005008B5FFF747FF08283E
:1063E00011D00938012811D84FF40012094B4FF68B
:1063F000FF705A6603F5D8335B6A13F0010F18BFBC
:106400004FF4FA7008BD044B1888FBE74FF6FF7095
:10641000F8E700BF00900050040D002070B504465E
:106420008020FFF723FF032800F082804FF4002232
:10643000444B02215A6645F60E03434AC2F88030A7
:10644000424B9962012103F580539962936DD90300
:10645000FCD4D4E900131B0543EA0163E17B94F803
:1064600022500B43217B94F8236043EA0143617B74
:1064700043EA0133A17B43EA811313619169D4E9B3
:1064800004031B0643EA806301F000410B43A17E35
:10649000E07E0B43217E43EA0143617E43EA012310
:1064A0009361E369126A002B0CBF0021082122F0DE
:1064B0000D0242EA030242EA8002234B42EA010251
:1064C0001A6294F820204FEA421232D1986A94F866
:1064D000211020F0330042EA0112024342F001028F
:1064E0009A621B4A996D32EA0101FBD102221749D7
:1064F0008A621A659A6D5200FCD41869A26820F469
:10650000700040EA02504FF0004218610F4B9A6150
:106510001DB9022203F580539A6216B901220D4B70
:106520009A6294F824301BB1074B0B4AC3F88020C1
:1065300070BD996A21F0330131430A4342EA4502B2
:10654000EEE700BF0090005000C0005000D00050A7
:106550000300014000E00050F1A7FFFF1F4BFF28A0
:1065600073B5996A37D89A6D12F4803F18BF012429
:106570001B4A18BF9462022494629B6DDA0303D510
:10658000164A936D9B07FCD50222154B134E1A65D4
:10659000B46D14F08044FBD1124B93F90050B369F1
:1065A000054423F47F0323F47F4343EA002385F368
:1065B000080043EA0043B36102200191FFF7C0FDE8
:1065C000B06D019910F4803003D00120FFF7B8FDC1
:1065D000204602B070BD2120FBE700BF00C0005084
:1065E00000D00050EC2A0020014B93F900007047C6
:1065F000EC2A002001221548154B816A9A62826DAF
:1066000002F00302032AFAD102229A621A650F4BA2
:106610009A6D5200FCD40F4A986D32EA0000FBD10B
:1066200001220B4B1A65A3F580539A6D9007FCD499
:106630009A6D9207FCD50222054B1A65034A936DA9
:106640009B07FCD50320FFF77BBD00BF00C00050B7
:1066500000D0005003000100F0B5D0E901434FF431
:1066600080061A4A4178057856664FF4D1560227BB
:1066700002F5B8325662164E4F2977604FF0010787
:1066800028BF4F2106F5805677601669F603FCD4C3
:1066900041EA052151611B01417B43EA04230B437D
:1066A000017B43EA41039360C37B817B1B0143EA87
:1066B0004113417C0B43017C43EA41035360837CDB
:1066C00013B16FF4D1535362F0BD00BF009000507E
:1066D00000100250014B1880704700BF040D0020CD
:1066E000014B1880704700BF020D00204FF40012CC
:1066F00008B5184B5A660223174A5360936813F47F
:106700008033FBD1012822D1FEF716FF134B9842AC
:1067100015D003F5122303F5F863984213D0104BFC
:1067200000EB8002400AB3FBF0F0520A0A4BDA6237
:10673000012218635A620022074B5A6008BD45F6D1
:106740007A10084AF2E745F61A00074AEEE7536264
:10675000F1E700BF009000500040025000F04902F5
:1067600064666666D8B80500BBCF0500B0F5207F2B
:1067700010B50C4642D008D8B0F5007F33D003D80E
:1067800088B1B0F5C07F0ED010BDB0F5607FFBD1F1
:106790001F4B013CD3F8801021F0300141EA041472
:1067A000C3F88040F0E71DF0D9F91DF0A2FA4FF4CC
:1067B0008031184A164B1167196F013C21F4704162
:1067C00041EA04341C67FEF7A1FE0446FFF77CFB98
:1067D000C0F1020120461DF086FA00F02DF8BDE858
:1067E0001040FFF733BD0A4B013CD3F8901021F065
:1067F000F85141EA0464C3F89040C5E7044B013CFA
:10680000196F21F4806141EA84241C67BCE700BF52
:10681000008000500090005008B50121022000F0D7
:10682000F5F81DF09BF91DF064FA4FF48032014B2E
:106830001A6708BD0090005008B54FF4C0701DF0F5
:1068400095F9BDE80840044988428CBF0221012126
:106850004FF42070FFF78ABF80F0FA02034B5868AC
:10686000C0F30800003818BF0120704700ED00E0B9
:10687000054B420953F8223000F01F0023FA00F0C4
:10688000C04300F00100704700E100E0194B10B573
:106890001B6873B3184A5268012A2AD0174A80200D
:1068A000C2F80031FFF7E2FC05281FD14FF4C07099
:1068B000FFF75AFC0128044604D102214FF4C070AE
:1068C000FFF754FF07220E4B1A610122A3F58053F4
:1068D0005A60094A1369DB07FCD5012C09D121460E
:1068E000BDE810404FF4C070FFF740BF0122054BD8
:1068F0005A6010BDDC1D002000C001500080005017
:1069000000E0015000D0015000224FF40031074B4D
:106910001A60074A516602F598325268012A02BF8E
:10692000044AD2F800211A60704700BFDC1D002025
:106930000090005000800050044A4178536F23F4C7
:10694000407343EA01235367704700BF0040005083
:1069500010B5044608B1FFF7D7FF104A136943F09A
:106960000403136103F0DEFA1DF0EDF90C4B0D4A40
:10697000C3F820241DF0D7F928F0D6FE1DF0D7F972
:106980001DF0E2F903F0F6FA1CB1BDE81040FFF784
:106990007DBFBDE81040FEF7B9BD00BF00ED00E0CF
:1069A00000E003500000FF0F10B5044608B1FFF7E8
:1069B000ABFF0E4A136943F0040313610C4B0D4AFD
:1069C000C3F8202403F0AEFA1DF0ADF928F0ACFEB8
:1069D0001DF0ADF903F0CEFA1CB1BDE81040FFF791
:1069E00055BFBDE81040FEF791BD00BF00ED00E0CF
:1069F00000E003500000FF0F034A0179D36E23F03B
:106A000030030B43D366704700400050F8B504468E
:106A10001C4BD3F88420D106FBD4D3F88430C3F3C5
:106A200081139C422CD0FEF757FD012C064602D163
:106A300021461DF058F91DF076F94FF00072124B07
:106A400007465A6620461DF084F94FF480630D4DC9
:106A5000621E93402B676B6E9A0103D4D5F8843085
:106A60009B060AD538461DF062F9022C08D1304643
:106A7000BDE8F84000211DF036B9D5F88430EAE7CA
:106A8000F8BD00BF004000500060005007B518B9C5
:106A90000191FEF721FD0199064B1B7843B1064B8E
:106AA000984205D8012003B05DF804EBFFF7AEBFB4
:106AB0000220F8E7ED2A0020005A62020278034B18
:106AC000012100201A70FFF7E1BF00BFED2A00206E
:106AD0004FF0004238B5264B26495A6601224A60DB
:106AE0004AF6CD3103F50B235D6C1964154030BBBC
:106AF0009968C9070BD4002401221F4B5A6015B1B5
:106B00001E4B1F4A1A6426F009FF204638BD1A4959
:106B10008A601C4AD96ACC0705D4904201D1072467
:106B2000EAE70130F6E79042E5D1F8E70132DC6AA6
:106B300014F0080406D08A42F8D10724DFE70022C7
:106B40001049F4E78A42F8D020220B4B0B495A62D5
:106B50000122A3F580539A6023460A4A486A8006B8
:106B600003D49342E9D00133F8E79342C7D1E4E775
:106B7000009000500050095000600950004009503A
:106B80003254FFFF40420F004FF0004238B5194B1E
:106B9000194C5A66012203F50C235A604AF6CD338C
:106BA000656C23644378154093401343134AD363C1
:106BB000A368827823F0740343EA0213C278002AA0
:106BC00014BF042200221343A3600279837943EAAD
:106BD000022323614279C37943EA02236361007887
:106BE000FFF776FF0DB1064B236426F097FE0120D8
:106BF00038BD00BF009000500040095000400050D8
:106C00003254FFFF10B504461DF0A8F8002341F2EE
:106C100002020849E360A360226104F50052E361C7
:106C20006361A36123626362E362A3645164A3624C
:106C300010BD00BF7F370C0138B50446154639B981
:106C4000184B984214BF084638201CF08FFF0146AD
:106C50006368A06800F0E00040281AD003D8D0B1E3
:106C600020281AD038BD602819D08028FAD10123F5
:106C70006B434901B1FBF3F10B4A2039204602EA8C
:106C8000C10201211DF066F8A262BDE838401DF086
:106C900061B80623ECE71023EAE70823E8E70423BA
:106CA000E6E700BF0000035AF8FF7F00436870B5B5
:106CB00004460D4616461BB140F2FF711DF04AF81E
:106CC0002046FFF79FFFE9896B7B22690B43298AE6
:106CD00022F44C520B4322F0030213432361A268B7
:106CE0002B7B297E22F0804222F0E2020B431343E9
:106CF0006A691343A360AB681BB9A36843F0004300
:106D0000A360EB69002B58D0A16898883F4A00F433
:106D1000C0400A4010431A7A40EA82509A7A40EA08
:106D200042405A7840EA82005A7B40EAC2009A7B8D
:106D300040EA02109A7840EA8220A060E168D3E934
:106D4000042021F4D81121F4C06102430A43997947
:106D500042EA8122D97942EA4122E2601A7802F0BD
:106D6000FD01012908BFE168A2F1020204BF41F060
:106D70000401E160012A4FF0010294BF2449254932
:106D8000C1F8C0205A7A04F580510A621AB1E2684B
:106D900042F40062E260DA7A4AB1E2681E4942F4E3
:106DA0000042E2601A7B02F00F02C1F88020E26923
:106DB000DB7B22F003021343E36136B196F8203007
:106DC00004F58051A3B101238B61052120461CF0FD
:106DD000E2FFAA6812B16968FFF72EFF2046297802
:106DE0001CF0F6FF236CDB4313F4405FFAD170BD57
:106DF000626996F8223096F8210022F009020343D6
:106E0000134343F001034B61DFE700BFE39BBDFF8A
:106E100000D4035000E4035000900350072AF7B554
:106E200001F0030614461F464FF003012CD89500CD
:106E3000A94000FA05F21C4801911CF0D8FF019905
:106E40001A4806FA05F21CF0D2FF194B19499DF8B1
:106E50002000002F08BF1946012303FA04F40C6038
:106E6000154B1649002808BF0B461C60144B9DF8B3
:106E70002400C3F820441031A3F6DC33002808BFF7
:106E80000B461C6003B0F0BDA2F10805AD00A9409F
:106E900000FA05F20B4801911CF0A9FF01990A487C
:106EA00006FA05F2CFE700BF00C4035008C4035040
:106EB00010E4035010D4035014D4035014E40350CE
:106EC00000E0035004C403500CC40350F8B504465A
:106ED0000D461F4616464AB101238B403021194A00
:106EE00001FB0022FFB141F21001535004EB4403B7
:106EF000072D4FF00F014FEA031317D8A80006FA29
:106F000000F28140104818441CF071FF56B901216D
:106F100030230C4801FA05F503FB040077B141F278
:106F20001003C550F8BD42F21001DEE7A5F10800DC
:106F3000800006FA00F281400448E4E742F21003C0
:106F4000EFE700BF00C0035004C003500CC0035063
:106F500010B50C4B0C4C0D4A0140C4F83004C3F87A
:106F60003014C3F82C04D36E03F03003202B1FBF62
:106F7000D36E23F0300343F01003D366C4F820042B
:106F800010BD00BF00D0035000E00350004000508F
:106F900038B514461D46032283F00103FFF796FF20
:106FA000012004F11001884005FA01F1FFF7D0FF3C
:106FB0009DF81010034B044A002908BF13461860BF
:106FC00038BD00BF24D4035024E403504FF4001212
:106FD0000B4B10B5C3F88020BFF34F8FBFF36F8FFB
:106FE0000024FF22074B21465C6520209A625C60EA
:106FF000FFF70AF92146BDE810402120FFF704B948
:1070000000E100E000000450044A054B002918BFCD
:107010001346012202FA00F0186070474020045025
:107020004010045010B5012104462020FFF7ECF871
:1070300001212120FFF7E8F80122114B5A60227844
:1070400012069A606178A27842EA01429A61FF22B0
:107050009A6200229A631A644FF000425A654FF018
:10706000FF324FF4001103F500531A65054AC2F8C8
:107070008011E3781B01DBB282F81533116010BD7B
:107080000000045000E100E0F8B50125C3B2DFF8CC
:1070900088C0D1F800E09D408F7ACB7A0C46097BFE
:1070A000CCF850500CF5005C4CF820E04FF0300E5E
:1070B000174E1B050EFB006094F80DC043EA074312
:1070C00043EA415322F00302C0F860C0C36502677F
:1070D0001CF030FE736D227A2B4373650D4B02B1A9
:1070E0001D64627A02B19D632279A37943EA024367
:1070F000094A93616179E37943EA014305498B6168
:10710000034B55639D64BDE8F8401CF019BE00BFF9
:1071100000000450001004500020045010B5012459
:10712000C0B284401CF006FE044B5A6D22EA0402F1
:107130005A659C62BDE810401CF002BE000004507D
:1071400010B50124C0B284401CF0F4FD074BDA6A8C
:10715000224209D15B6B34EA03030CBF01240024F3
:107160001CF0EEFD204610BD0024F9E7000004509D
:107170004FF40032054B9A6641F6713203F51C3329
:10718000DA63012203F50053DA6070470090005083
:1071900041F671320121064BDA6303F50052D160EA
:1071A0000022DA634FF40032A3F518339A66704771
:1071B00000000350CB784A7810B55B010C7843EAA5
:1071C00082030A79234343EA02130C22424302F169
:1071D000B0421363012C02BF8A78024B43F820208F
:1071E00010BD00BFE880035008B54FF0B0435A68A7
:1071F00002B960B15B680BB11CF00BFE4FF0B041FF
:1072000030B10120074B58601CF003FEC86008BD78
:107210001CF0FFFD0223CB601CF0FBFD0122024BA2
:107220005A60F4E700100058002000584FF0B043B7
:107230005B6870B50BB11CF0ECFD0121104B45787B
:10724000596083780679002BC37814BF0224002488
:10725000002B14BF042200224379DB0043EA06130B
:107260002B43234313434FF0B0429360054B5960C7
:107270000378002B14BF0B460223D36070BD00BF00
:1072800000200058001000584FF48032064B5A6618
:1072900003F5E6235B69C3F38512827003F03F02B6
:1072A0001B0B42700370704700900050014B986CAC
:1072B000D96C70470080E00F024B1868C0F307409C
:1072C000704700BF0080E00F0120034B9B680A332A
:1072D00003F01F03984070470080E00F012200F583
:1072E000805310B55A6040F6AA6341F2050243612B
:1072F00000230E498360C365C26000F5005203613C
:10730000C361C36491640A498365884202D0094C11
:10731000A04207D18842036502D0064B984201D1B2
:10732000002343650123536010BD00BFFFFF010030
:1073300000C005500000065038B50D46FFF7CEFFDF
:10734000012300F580514B6083680446A87B2A8A9C
:10735000002814BF4FF48060002042F00102134364
:107360002A7D0343002A14BF4FF000520022A3607D
:10737000A3681343A360AB7C4BB11C4AEB7C9442E3
:107380002BD1A2F51032C2F88C318023CB652B7B38
:107390002046D5E9011243F48053E3601CF041FD1F
:1073A0006B7B0BB1102363616B7D1BB1A36843F44E
:1073B0008033A360AB7D1BB1A36843F40043A3609B
:1073C000EB7D2A7E1B07120503F0E04302F4E00286
:1073D0001343A3652B78636138BD054A944204BF0B
:1073E000A2F52032C2F89C31CFE700BF00C00550A3
:1073F0000000065038B50446054D26F0B3FA0FCC10
:107400000FC594E8030085E80300002038BD00BFE5
:10741000E01D002047F6FF739A42F0B56AD00229BA
:107420006AD8364B5B5C012B66D8354DDF0005EB27
:10743000C30015F833308478012B13D10025C378AD
:107440001B1BAB4202D8E018C0B2F0BD591B466806
:10745000A3EB510136F911609642D4BF0D4601F1FC
:10746000FF33EEE740680028EFD0B0F900309342D8
:1074700004DBB0F902309342B8BF134682883D4422
:10748000FF2A19BFC8214FF0280CB0F90610B0F937
:1074900008C0A1EB03020CBF0126002692FBFCF200
:1074A0006D78324412B2954201DD002A01DA6A1E7B
:1074B00012B24FF47A7700EBC206F188B668013257
:1074C00013FB016112B221EAE1715C319542B1FB1B
:1074D000F7F104DD00EBC206B6888E42EBD200EB7A
:1074E000C20232F8040C884228BF0846A04238BFC6
:1074F0002046A9E7FF20A8E70020A6E784080400AB
:10750000E01D00200229F0B557D82D4B585C01280A
:1075100053D82C4C04EBC00114F830004B68012800
:107520000FD1C8788C78904294BFC4EB0001C4EBB3
:107530000201001BCAB28242C8BF002233F9120006
:10754000F0BD002B39D08878904202D3B3F9020005
:10755000F6E7CC78B3F900009442F1D94C789988D9
:10756000013CA1F1FF06714203F10405E4B271414F
:1075700003F10C071FFA82FCCEB2B44216D805EB19
:10758000C1014FF47A756A43B1F902404968521A51
:1075900004EBD47102EB610292FBF4F29042CFDB78
:1075A000B3F902009042CBDC10B2C9E737F831E002
:1075B0004E1CE645E3D33146DEE70348C0E700BF93
:1075C00084080400E01D00200080FFFF08B5044887
:1075D000FFF710FFBDE80840012026F0C7B900BF43
:1075E0008808040000487047060D00207FB502227D
:1075F000084B0949CDE901234FF00073CDE903138E
:10760000052301A94FF0FF30059326F0E4F907B0F8
:107610005DF804FB006A1800000204001B0603F07A
:10762000706300F00F000902034301F4706112045B
:1076300002F470220B431343014A1360704700BFEA
:107640000020025C60B5054619B10139B1F5806FC3
:1076500010D2094EF06810F48030FBD143EA0121CA
:10766000120741EA050302F08052134343F000433E
:10767000736060BD0120FCE70020025C0122054B25
:107680009A60DA68D203FCD4D86820F00F000004B6
:10769000000C70470020025C014B1868704700BF67
:1076A0000040025C014B5868704700BF0010025C4C
:1076B000014B186B704700BF0010025C014B18684B
:1076C000704700BF0010025C014B9860704700BF1C
:1076D0000010025C014B1864704700BF0010025C90
:1076E000014B5864704700BF0010025C014B5863A7
:1076F000704700BF0010025C0022014B1A60704707
:107700000010025C024A136843F0010313607047E3
:107710000010025C024A136823F0010313607047F3
:107720000010025C43F20402014B1A60704700BF74
:107730000010025C024A136843F030031360704784
:107740000010025C044B1A6842F480721A601A68D6
:1077500022F480721A6070470010025C024A1368BB
:1077600043F48063136070470010025C034A13689F
:1077700023F4702343EA0040106070470010025C5D
:10778000044B1A6902605A6942609A698260DB6937
:10779000C36070470010025C0268044B1A614268C3
:1077A0005A6182689A61C268DA6170470010025CAF
:1077B000024B1A6BD207FCD4186270470010025CAF
:1077C00082B01FB507930A9B04AC8B4228BF0B46BF
:1077D00004E907001048D100079948BF033301604E
:1077E000099948BF23F0030323F0704301F0E041FF
:1077F000194341F000518160002102F0E042019CF8
:10780000134343F00053C16004618361416304B0DA
:10781000BDE8104002B070470000025C3F22034BFD
:107820001A631022DA6103229A6370470000025C37
:10783000024AD36B9B07FCD4704700BF0000025C78
:10784000034B986A10F0240018BF0420704700BF53
:107850000000025C08B5FFF7F3FF064BDB6B23F477
:107860007F4323F0EF0303431EBF0122024BC3F803
:10787000FC2F08BD0000025C00F0FF3F032208B5AA
:10788000054B186019615A63FFF7C8FFFFF7D0FF77
:10789000BDE80840FFF7DEBF0000025C4268034617
:1078A000182A10B50AD0202A1DD0102A2BD1174A29
:1078B000D2F80424D4010AD4012013E0134AD2F8E8
:1078C00004249001F8D50A6842F008020A601048C2
:1078D0001A6882424FF000000ED10A6842F040025E
:1078E0000A60586010BD094AD2F804245201E3D559
:1078F0000A6842F00402E9E7064CA242F2D10A68A3
:1079000042F08002ECE70720ECE700BF0000025CD9
:10791000EE2A0020EF2A00200B4607B50749D1F8D0
:107920000414C90708D5002100920246084600F059
:107930005BF803B05DF804FB0120FAE70000025C8D
:107940001346064AD2F80424D20504D50A46014655
:1079500000201CF080BC0120704700BF0000025CCA
:1079600013B5084CD4F80444E40508D50093134635
:107970000A460146002000F061F802B010BD012067
:10798000FBE700BF0000025C13B5084CD4F80444C8
:10799000E40508D5009313460A460146002000F08E
:1079A00071F802B010BD0120FBE700BF0000025CCF
:1079B00070B504460D4616468CB00A4A09AB07CA94
:1079C00083E807001A462146CDE90563CDE9033374
:1079D000CDE9013300954FF480301CF060FB0CB012
:1079E00070BD00BF0C090400F0B51C465B6815466D
:1079F0008DB01A07129E1AD1CBB17268934216D17C
:107A00000C4B0D4A53F8217009AB07CA83E80700F5
:107A10001A462946CDE90533CDE90333CDE90163A3
:107A2000009447F480701CF03AFB0DB0F0BD0720C5
:107A3000FBE700BF180904000C090400F0B5164666
:107A40005A688DB0102A0D46129F15D17A68102AF7
:107A500012D10A4A09AC07CA84E80700224629461F
:107A6000CDE90547CDE90344CDE90144044800963A
:107A70001CF015FB0DB0F0BD0720FBE70C0904005E
:107A800030000100F0B516465A688DB0102A0D4638
:107A9000129F15D17A68102A12D10A4A09AC07CA76
:107AA00084E8070022462946CDE90574CDE9034460
:107AB000CDE90144044800961CF0F1FA0DB0F0BD88
:107AC0000720FBE70C0904001000010082B070B52C
:107AD00086B0149D03AE202D86E807000B9359D87D
