:020000021000EC
:10200000C00A0020453F010051DF020051DF0200FD
:1020100049EF020051DF020051DF020051DF0200F0
:1020200051DF020051DF020051DF020051DF0200E8
:1020300051DF020094800300D5DD020051DF020071
:1020400051DF020051DF020051DF020051DF0200C8
:1020500051DF020051DF020051DF020051DF0200B8
:1020600051DF020051DF020051DF020051DF0200A8
:1020700029890100053801009BDE020051DF0200C2
:1020800051DF020051DF020051DF020051DF020088
:1020900051DF02001D47010051DF020051DF020045
:1020A00051DF0200ED480100C948010051DF020084
:1020B00051DF02004DB5020051DF020095BF020062
:1020C000F5690300F169030085B70200016A0300A6
:1020D000F96903006DBF0200FD690300D5BF02006E
:1020E00065990200299B020045C0020051DF0200F1
:1020F00051DF020051DF020051DF020051DF020018
:1021000051DF020051DF020051DF020051DF020007
:1021100051DF020051DF020051DF020051DF0200F7
:1021200051DF020051DF020051DF020051DF0200E7
:1021300051DF020051DF020051DF020051DF0200D7
:10214000002370B5404C05468AB0E36318B100889F
:1021500023600CF0F7FD3D4823F0ABFF3C4E3D4BB8
:10216000304633603C4B736020F02EFA002130463D
:1021700013F07CFB32A3D3E90023A062C4E9062359
:1021800020F02DFAD4E9062319431043C4E90601CF
:10219000CDE900014FF0FF334FF0FF32A06A24F089
:1021A00003F802224FF0FF31A06A24F002F8012068
:1021B0000CF048FB4FF4007300222849A06A24F079
:1021C0004BF8B0F5007F38D100239422CDE90733D6
:1021D00009933C23CDE9033205939623A06A03A912
:1021E000069313F061FC35B3287C0CF059FF0546CB
:1021F000F0B9A06A24F011F90CF000FF0CF004FB18
:1022000020B14FF48070002109F0A0F90CF00CFB14
:1022100020B14FF40060002109F098F920F0AAFAEB
:10222000012013F077FB0E4A0E49A06A20F0CAF98C
:1022300028460AB070BDFF20D7E70725F8E700BFA2
:102240000DD5015520000000680F0020690345EC02
:1022500080230020C9E60100902300208021002077
:102260006D250300AD25030010B5054C237833B967
:10227000044B13B1044800E000BF0123237010BDDC
:10228000C8110020000000004CCA030008B5034B31
:102290001BB10349034800E000BF08BD0000000077
:1022A000CC1100204CCA0300A3F5803A704700BF50
:1022B000174B002B08BF134B9D46FFF7F5FF00217E
:1022C0008B460F461348144A121A24F0E6FB0E4BB5
:1022D000002B00D098470D4B002B00D098470020D2
:1022E000002104000D000D48002802D00C4800E039
:1022F00000BF1AF0D7F8200029001BF05FFD1AF08C
:10230000BDF800BF00000800000000000000000051
:10231000C00A0020F80E0020102B00200000000052
:1023200000000000054B1B7833B1054B1B7883423E
:1023300014BFFF2000207047FF207047EC290020C9
:10234000E4110020012907D1044B53F82020044B4D
:102350009A4204BF034B1970704700BFD00A002097
:102360009C7F0300F429002010B501F0E7FB002357
:10237000114A03201370114AC2E90133137093818B
:102380001382937401F00EFC80B10D4C0D4920684E
:102390001CF029FC0C4920681CF025FC01F022FCF3
:1023A0001BF0D5FD094920681CF01DFCBDE810405C
:1023B000074B186804F0D6BEEC290020E411002079
:1023C000B8120020E0770300EC770300F1770300F8
:1023D000CC0A0020104B10B51A78DAB10022032085
:1023E0001A7001F0DFFB80B10C4C0D4920681CF025
:1023F000FAFB0C4920681CF0F6FB01F0F3FB1BF024
:10240000A6FD094920681CF0EEFBBDE81040002045
:1024100020F0F1BF10BD00BFF4290020B812002049
:10242000E0770300EC7703000A7803002DE9F0431E
:102430000368864A23F47F4323F00703934204464C
:1024400087B000F0288376D8814A934200F07A82E0
:102450000CD8A2F5A022934200F0A98002F58022B8
:10246000934200F0CF8107B0BDE8F083794A9342F0
:10247000F9D1032001F096FB80B1774D77492868A8
:102480001CF0B1FB764928681CF0ADFB01F0AAFBFB
:102490001BF05DFD734928681CF0A5FBA079FFF7D0
:1024A00041FFFF2813D0704E33780BB1013B3370DE
:1024B0001427DFF8B8C13378984240F2FB8633B96D
:1024C0006A4AC2E901331370938113829374684D91
:1024D0002B78002BC7D0012108460FF0FBF90446EA
:1024E000002800F0F6865C4D624928681CF07BFBF2
:1024F000614928681CF077FB604928681CF073FB71
:1025000001F070FB1BF023FD5D4B5E4A00935E49BA
:1025100040F2722328681CF066FB5C4923465C4A43
:1025200028681CF060FB204601F0B6FB594928687A
:102530001CF059FBFEE7584A934200F0E18602F195
:102540000072934200F0CA8302F17C4293428AD126
:102550000079FFF7E7FEFF28054600F0AA8304F1A3
:102560000906102230464D4924F060FA002840F058
:10257000E68214233D48A27903FB05056379032015
:1025800043EA02232B8101F00DFB00283FF46BAFDF
:10259000314C324920681CF026FB314920681CF080
:1025A00022FB01F01FFB1BF0D2FC3D4928E1032078
:1025B00001F0F8FAB0B1284D284928681CF013FB47
:1025C000274928681CF00FFB01F00CFB1BF0BFFC37
:1025D00063893449019323890093E388A28828689A
:1025E0001CF001FB304C2378002B69D12F49304877
:1025F0000FF084F90546002860D0174C1D4920686B
:102600001CF0F1FA1C4920681CF0EDFA1B49206807
:102610001CF0E9FA01F0E6FA1BF099FC254B194A87
:102620000093194940F2C63320681CF0DCFA1749C0
:102630002B46174A20681CF0D6FA284601F02CFBDE
:102640001D4920681CF0CFFAFEE700BFA000090179
:10265000A0000600A0000601B8120020E0770300E9
:10266000EC770300617B0300EC290020E4110020DB
:10267000F6290020087803005B7803006A780300DD
:10268000047C03006F7803007878030087780300E8
:1026900084780300707B0300A0000904137C03000E
:1026A000C479030034780300F5290020F3290020C1
:1026B000ED290020E37B03009C78030001232370B5
:1026C0008A4B03201D7801F06DFA08B3884C8949C4
:1026D00020681CF088FA884920681CF084FA01F010
:1026E00081FA1BF034FC854B85491A7804925A789C
:1026F00003929A780292DA7801921A790092814ACA
:102700005B79002D18BF0A4620687F491CF06BFAE0
:1027100000224FF6FF735021CDE9002308466423C1
:102720000EF0D0FF054638B3714C784920681CF094
:102730005AFA774920681CF056FA764920681CF04E
:1027400052FA01F04FFA1BF002FC734B734A0093EC
:1027500073494FF49B7320681CF045FA71492B466E
:10276000714A20681CF03FFA284601F095FA6F493B
:1027700020681CF038FAFEE7012108460FF0AAF89D
:10278000044638B35A4D614928681CF02CFA604958
:1027900028681CF028FA5F4928681CF024FA01F028
:1027A00021FA1BF0D4FB5C4B5C4A00935C494FF46C
:1027B0009D7328681CF017FA5A4923465A4A28681C
:1027C0001CF011FA204601F067FA584928681CF0FD
:1027D0000AFAFEE7564B1870032001F0E3F90028CF
:1027E0003FF441AE424C434920681CF0FCF9424999
:1027F00020681CF0F8F901F0F5F91BF0A8FB4D4931
:10280000206843E10379032B7FF42DAE002590F877
:102810001680DFF82C9100F11707A8457FF623AE4C
:102820007B195B787E5D063B012B08D8A81C102223
:102830004946384424F0FAF8002800F0C3850136F0
:102840003544EDB2E9E73A4E3B4A33781278134308
:102850007FF409AE0093A57A617A012341EA05214C
:10286000E27AD4F805000EF051FF054638B3204C4B
:10287000264920681CF0B7F9254920681CF0B3F9F7
:10288000244920681CF0AFF901F0ACF91BF05FFBA4
:10289000214B224A009322494FF4B07320681CF068
:1028A000A2F920492B46204A20681CF09CF92846B2
:1028B00001F0F2F91D4920681CF095F9FEE70123AB
:1028C0000320337001F06EF900283FF4CCAD084CC2
:1028D000084920681CF087F9074920681CF083F933
:1028E00001F080F91BF033FB144989E7F32900203C
:1028F000B8120020E0770300EC770300ED290020F8
:102900001878030026780300AD78030008780300E8
:102910005B7803006A780300047C03006F7803008F
:102920007878030087780300847803009C7803009C
:10293000F6290020E2780300EC290020EF7803005C
:10294000237C0300007B0EF04BFF2528054659D160
:10295000022001F027F980B1AF4CB04920681CF08B
:1029600042F9AF4920681CF03EF901F03BF91BF039
:10297000EEFAAC4920681CF036F9012108460EF049
:10298000A9FF044638B3A44DA74928681CF02BF9C9
:10299000A64928681CF027F9A54928681CF023F9E6
:1029A00001F020F91BF0D3FAA24BA34A0093A349EC
:1029B0004FF4BD7328681CF016F9A1492346A14ABB
:1029C00028681CF010F9204601F066F99E49286835
:1029D0001CF009F9FEE79D4B1870022001F0E2F8A7
:1029E00000283FF440AD8C4C8C4920681CF0FBF86B
:1029F0008B4920681CF0F7F801F0F4F81BF0A7FAF7
:102A00008849FDE638B3844C874920681CF0EBF810
:102A1000864920681CF0E7F8854920681CF0E3F837
:102A200001F0E0F81BF093FA824B834A009383494C
:102A30004FF4C07320681CF0D6F881492B46814AB8
:102A400020681CF0D0F8284601F026F97E4920685D
:102A50001CF0C9F8FEE7142263797D4821797D4D89
:102A600001EB03210378247B5A43AE18AC540222B5
:102A700001330370754B032071801A7001F092F8D6
:102A800000283FF4F0AC644B7349186807B0BDE808
:102A9000F0431CF0A8B80079FFF744FCFF28054676
:102AA00038D010226D4904F10A0023F0BFFF00283E
:102AB00030D11423674803FB0505D4F80530032003
:102AC0006B6001F06FF880B1534C654920681CF0D1
:102AD0008AF8644920681CF086F801F083F81BF03E
:102AE00036FA614920681CF07EF8032001F05AF89C
:102AF00000283FF4B8AC484C594920681CF073F8E2
:102B0000584920681CF06FF801F06CF81BF01FFAB0
:102B1000554975E6032001F045F800283FF4A3ACC1
:102B20003D4C4F4920681CF05EF84E4920681CF06F
:102B30005AF801F057F81BF00AFA4C4960E61022E7
:102B400030464B4923F072FFE8B914234148A2797B
:102B500003FB05056379032043EA02236B8101F03F
:102B600021F800283FF47FAC2B4C3D4920681CF035
:102B70003AF83C4920681CF036F801F033F81BF0B5
:102B8000E6F93C493CE6102230463B4923F04EFF33
:102B9000E8B914232F48A27903FB050563790320C4
:102BA00043EA0223AB8100F0FDFF00283FF45BAC59
:102BB000194C2B4920681CF016F82A4920681CF093
:102BC00012F801F00FF81BF0C2F92C4918E6102298
:102BD00030462B4923F02AFF002855D114231D48E5
:102BE000A27903FB05056379032043EA0223EB8105
:102BF00000F0D8FF00283FF436AC074C1849206895
:102C00001BF0F1FF174920681BF0EDFF00F0EAFF11
:102C10001BF09DF91B49F3E5B81200200879030069
:102C20001479030019790300087803005B78030026
:102C30006A780300047C03006F780300787803004F
:102C400087780300847803009C780300F62900202D
:102C5000EC290020E411002060790300237C0300AC
:102C6000E0770300EC77030090790300B479030068
:102C7000337C0300D4790300537C0300EB79030019
:102C8000437C0300FE790300032000F08BFF002843
:102C90003FF4E9AB994C9A4920681BF0A4FF99498D
:102CA00020681BF0A0FF00F09DFF1BF050F9964933
:102CB000A6E5032000F076FF00283FF4D4AB8F4C4C
:102CC0008F4920681BF08FFF8E4920681BF08BFF17
:102CD00000F088FF1BF03BF98C4991E590F80490D7
:102CE0004846FFF71FFBFF28064614D1032000F0DB
:102CF00059FF00283FF4B7AB804C814920681BF096
:102D000072FF804920681BF06EFF00F06BFF1BF024
:102D10001EF97F4974E5DFF8308298F80030022B05
:102D20004BD114237B4803FB06067168002900F091
:102D3000A58248460EF066FD054638B36F4C7649CD
:102D400020681BF050FF754920681BF04CFF744948
:102D500020681BF048FF00F045FF1BF0F8F8714BAE
:102D6000714A0093714940F2072320681BF03BFF32
:102D70006F492B466F4A20681BF035FF284600F04C
:102D80008BFF6D4920681BF02EFFFEE7032088F8BB
:102D9000000000F007FF00283FF465AB574C58498E
:102DA00020681BF020FF574920681BF01CFF00F033
:102DB00019FF1BF0CCF8614922E5032B40F05E823D
:102DC0001423544F03FB00735A89002A00F05682E3
:102DD0001989002900F052829B89002B00F04E8255
:102DE000142303FB0073DB89002B00F04782544D52
:102DF0002B78032B00F29781002B2FD1012248461C
:102E00000EF016FD0646002800F0EC803B4C4249CF
:102E100020681BF0E8FE414920681BF0E4FE4049B1
:102E200020681BF0E0FE00F0DDFE1BF090F83D4B4B
:102E30003D4A00933D4940F21B2320681BF0D3FE1E
:102E40003B4933463B4A20681BF0CDFE304600F03C
:102E500023FF394920681BF0C6FEFEE7012B4FF027
:102E6000030073D100F09EFEA0B1DFF890802449EA
:102E7000D8F800001BF0B7FE2249D8F800001BF07C
:102E8000B2FE00F0AFFE1BF062F82E49D8F8000049
:102E90001BF0A9FE142000FB06760122718920791F
:102EA0000EF0C6FC0646002800F09C80134C1A4920
:102EB00020681BF098FE194920681BF094FE184901
:102EC00020681BF090FE00F08DFE1BF040F8154BC3
:102ED000154A009315494FF4097320681BF083FECF
:102EE00013493346134A20681BF07DFE304600F03C
:102EF000D3FE114920681BF076FEFEE7B8120020D1
:102F0000E0770300EC770300117A0300257A0300D1
:102F1000397A0300E4110020087803005B7803008D
:102F20006A780300047C03006F780300787803005C
:102F300087780300847803009C7803004E7A0300AE
:102F4000F72900206E7A0300F6290020022B4ED1CB
:102F500000F028FEA0B1DFF8DC82B349D8F8000009
:102F60001BF041FEB149D8F800001BF03CFE00F018
:102F700039FE1AF0ECFFAE49D8F800001BF033FE22
:102F8000142000FB06760122B18920790EF050FC56
:102F9000064638B3A74CA84920681BF024FEA74971
:102FA00020681BF020FEA64920681BF01CFE00F0E4
:102FB00019FE1AF0CCFFA34BA34A0093A34940F299
:102FC0002F2320681BF00FFEA1493346A14A206839
:102FD0001BF009FE304600F05FFE9F4920681BF0A1
:102FE00002FEFEE72B7801332B70FFF73CBA00F0AE
:102FF000D9FDA0B1DFF83C828B49D8F800001BF066
:10300000F2FD8A49D8F800001BF0EDFD00F0EAFD62
:103010001AF09DFF9149D8F800001BF0E4FD142040
:1030200000FB06760122F18920790EF001FC0646AC
:1030300038B3804C804920681BF0D5FD7F4920685B
:103040001BF0D1FD7E4920681BF0CDFD00F0CAFDCC
:103050001AF07DFF7B4B7C4A00937C494FF40E7342
:1030600020681BF0C0FD7A4933467A4A20681BF07D
:10307000BAFD304600F010FE774920681BF0B3FD22
:10308000FEE72B78032001332B7000F08BFD80B11D
:10309000684D654928681BF0A6FD644928681BF047
:1030A000A2FD00F09FFD1AF052FF6D4928681BF049
:1030B0009AFD00234FF6FF72CDE901324FF4E17320
:1030C000A02200931146052320790EF04DFB054602
:1030D00000283FF4C8A9574C574920681BF083FDCE
:1030E000564920681BF07FFD554920681BF07BFD89
:1030F00000F078FD1AF02BFF524B534A00935349CE
:1031000040F2452320681BF06EFD51492B46514A81
:1031100020681BF068FD284600F0BEFD4E4920687F
:103120001BF061FDFEE700232B704E4D2B78012B29
:1031300002D14D481AF031FF2B78002B5BD10121D1
:1031400008460EF0C7FB044638B33A4D3A492868A2
:103150001BF049FD394928681BF045FD38492868AE
:103160001BF041FD00F03EFD1AF0F1FE354B364AF2
:10317000009336494FF4167328681BF034FD344928
:103180002346344A28681BF02EFD204600F084FDBB
:10319000364928681BF027FDFEE788F80000032069
:1031A00000F000FD88B1234C1F4920681BF01BFD77
:1031B0001E4920681BF017FD00F014FD1AF0C7FE31
:1031C0002A782B4920681BF00EFD032000F0EAFC52
:1031D00000283FF448A9174C134920681BF003FD51
:1031E000124920681BF0FFFC00F0FCFC1AF0AFFE57
:1031F0002049FFF705BB0523032088F8003000F0C5
:10320000D1FC00283FF42FA90A4C074920681BF085
:10321000EAFC064920681BF0E6FC00F0E3FC1AF02B
:1032200096FE1549FFF7ECBAE0770300EC77030050
:103230008A7A0300B8120020087803005B78030044
:103240006A780300047C03006F7803007878030039
:1032500087780300847803009C780300AD7A03002C
:10326000CC7A0300EC2900209C7F0300E97A03005C
:10327000197B0300307B0300407B0300032000F038
:1032800091FC00283FF4EFA8654C664920681BF0CC
:10329000AAFC654920681BF0A6FC00F0A3FC1AF00C
:1032A00056FE98F800206149206807B0BDE8F04359
:1032B0001BF099BC00FB077507FB00C4654400F1D7
:1032C000010E0FCD0FC42B685FFA8EF02360FFF75D
:1032D000F2B82870032000F065FC00283FF4C3A872
:1032E0004F4C504920681BF07EFC4F4920681BF072
:1032F0007AFC00F077FC1AF02AFE4D49FFF780BAFD
:103300000079FFF70FF8FF2815D1032000F04AFCE1
:1033100000283FF4A8A8424C424920681BF063FCF7
:10332000414920681BF05FFC00F05CFC1AF00FFEC6
:103330004049FFF765BA14213F4BB4F8052001FB63
:1033400000300389934206D10122E37A43743B4B58
:103350001A70FFF788B84389934204D1E37A0222B6
:103360000374364BF4E78389934204D1E37A032252
:103370008374324BECE7C38993420DD12F4B1B78FA
:10338000032B7FF470A8837C027C417C2C4807B01F
:10339000BDE8F04319F09AB9032000F003FC0028BF
:1033A0003FF461A81E4C1F4920681BF01CFC1E49FD
:1033B00020681BF018FC00F015FC1AF0C8FD21492C
:1033C000FFF71EBA0EF07AFA054600283FF43BAA32
:1033D000134C1D4920681BF006FC1C4920681BF09B
:1033E00002FC1B4920681BF0FEFB00F0FBFB1AF0FF
:1033F000AEFD184B184A0093184940F25913206843
:103400001BF0F1FB16492B46164A20681BF0EBFB1C
:10341000284600F041FC144920681BF0E4FBFEE75D
:10342000B8120020E0770300EC7703004C7B030028
:10343000337B0300A07B0300E4110020F729002068
:10344000BB7B0300CC7B0300087803005B780300A0
:103450006A780300047C03006F7803007878030027
:1034600087780300847803009C78030030B50368F4
:103470005A4A23F47F4323F00703934289B040F074
:10348000AA80052200211620554B0EF0E9F90546C9
:1034900030B3544C544920681BF0A5FB53492068B5
:1034A0001BF0A1FB524920681BF09DFB00F09AFB2A
:1034B0001AF04DFD4F4B504A009350495A23206853
:1034C0001BF091FB4E492B464E4A20681BF08BFBAC
:1034D000284600F0E1FB4C4920681BF084FBFEE726
:1034E0000DF10F0104A80EF009FA044630B33D4D6A
:1034F0003D4928681BF077FB3C4928681BF073FBAB
:103500003B4928681BF06FFB00F06CFB1AF01FFDB5
:10351000384B394A00933949652328681BF063FB0F
:1035200037492346374A28681BF05DFB204600F0E8
:10353000B3FB354928681BF056FBFEE79DF81530B4
:1035400001468DF818309DF8143008228DF8193096
:103550009DF8133018208DF81A30FF238DF81B309A
:10356000FE238DF81C309DF812308DF81D309DF82B
:1035700011308DF81E309DF810308DF81F3006ABDD
:103580000EF06EF9054630B3164C174920681BF053
:103590002AFB164920681BF026FB154920681BF002
:1035A00022FB00F01FFB1AF0D2FC124B124A0093D0
:1035B0001249752320681BF016FB11492B46114A4E
:1035C00020681BF010FB284600F066FB0E492068BF
:1035D0001BF009FBFEE709B030BD00BFA0000100F1
:1035E000637C0300B8120020087803005B780300B6
:1035F0006A780300917C0300697C030078780300FB
:1036000087780300847803009C78030010B5234C6E
:1036100001F054FC01F03AFE236F23F0070343F05E
:10362000030323671AF080FE1D4B00209B6A9B0753
:103630005EBF01221B4B9A62D4F8203123F00303B2
:1036400043F00203C4F82031D4F8243123F00703F7
:1036500043F00203C4F82431D4F8403123F00303CB
:1036600043F00103C4F84031D4F8603123F0030380
:1036700043F00103C4F86031D4F8403223F003036F
:1036800043F00103C4F84032D4F8003223F00703BA
:1036900043F00103C4F8003210BD00BF00800050A9
:1036A00000C0005000E0005008B502F033FA0128D5
:1036B0000ED1114B04205A6E4FF480230F49520350
:1036C00058BF0F4A4B6601F51041086258BF536658
:1036D00003F02AFD03F0CCFC03F0ECFC1BF02FFA06
:1036E000FFF794FF03F0D4FC00F0E6FC01F010F9C2
:1036F000BDE8084004F086B90080005000900050FA
:1037000000A0005030B51A4D95B00DAC0FCD0FC4D0
:1037100095E807004FF416530F93282384E8070019
:1037200014491022CDE902130021134B09A8CDE959
:103730000431069123F0B1F94FF480200F4B0DAA0C
:10374000CDE907030D238DF824300E238DF82530A5
:103750000B4B07A90A9320230B9301238DF83030DC
:10376000084B0948009302AB03F012FF15B030BDBF
:10377000807F030000C005500202020324C00550F0
:10378000F8290020F811002054120020831E012B7C
:1037900010B512D8012910D80221114B04221B6F39
:1037A0000846C3F3800301F0BFFF0E4B1B68186887
:1037B000A8B1BDE81040436A18478B1E012B0CD8F6
:1037C00001280CD8BDE810400221054B00221B6FD8
:1037D0000846C3F3800301F0A7BF0129E5D910BD56
:1037E00000C00350C80A002008B50449044804F08A
:1037F000CDF9BDE80840FFF785BF00BFC00A002033
:103800004C12002001481BF057BB00BF541200208F
:10381000014B1A6A186810475412002001481AF028
:10382000B2BB00BF9C7F030001481AF028BC00BF58
:10383000B47F03001A4B37B583422ED1194B1B7846
:103840005BB3C8B20DF0BAFF054630B3164C17494A
:1038500020681BF0C8F9164920681BF0C4F9154907
:1038600020681BF0C0F900F0BDF91AF070FB124B94
:10387000124A13490093206885231BF0B4F91149BB
:103880002B46114A20681BF0AEF9284600F004FAD6
:103890000E4920681BF0A7F9FEE703B030BD00BF5A
:1038A000781200201B2A0020B8120020087803009C
:1038B0005B7803006A78030044800300CC7F030038
:1038C0007878030087780300847803009C780300ED
:1038D00030B500240368614A23F47F4323F00703D3
:1038E00085B0934205468DF808408DF809408DF863
:1038F0000A408DF80B408DF80C408DF80D4000F01B
:10390000878002F5802293420ED0A2F18272934208
:1039100040F0A280524B1B78002B00F09D8005B038
:10392000BDE830401BF0EBBBB0F80530212B40F078
:103930009380FF2304A91A4611E903001AF000FB43
:10394000012814BF41F2FC14454B04F0FC0208BFEF
:103950001870212128790DF099FF044630B3414DAC
:10396000414928681BF03FF9404928681BF03BF9A2
:103970003F4928681BF037F900F034F91AF0E7FAEC
:103980003C4B3D4A00933D49592328681BF02BF9D5
:103990003B4923463B4A28681BF025F9204600F0A6
:1039A0007BF9394928681BF01EF9FEE7374900907A
:1039B0002B79374A0968374800F0C6F905460028D0
:1039C0004AD0284C284920681BF00DF92749206867
:1039D0001BF009F9264920681BF005F900F002F9EF
:1039E0001AF0B5FA234B244A009324496223206835
:1039F0001BF0F9F822492B46224A20681BF0F3F805
:103A0000284600F049F9204920681BF0ECF8FEE751
:103A1000B0F80530B7EE047A07EE903AF8EE677A20
:103A2000B0F8073027EE877A013307EE903AF8EEC8
:103A3000E77A67EE277AB1EE047A67EE877AFAFEC4
:103A4000677AFCEEE77A17EE903AB3F57A7F38BFE3
:103A50004FF47A730D4A136005B030BDA000060222
:103A60001B2A0020B8120020087803005B780300AE
:103A70006A78030053800300CC7F0300787803004A
:103A800087780300847803009C780300D40A002020
:103A900035380100781200200422024B1A710022EE
:103AA0001A607047B01200201A4A70B5127822B31B
:103AB00070BD20461AF06CFA06460028F8D11BF0BB
:103AC000DCFA154C2568451BFA2004F04FFDA8428E
:103AD00001D92671ECE74FF47A7004F047FDA84253
:103AE00002D901232371E3E741F2883004F03EFD5F
:103AF000A8428CBF02230323F4E7084A14688442D7
:103B0000D6D11AF045FA0128D3D11BF0B6FA024BF0
:103B10001860CDE7FA0C0020B0120020D00A002077
:103B200010B5054C2179042904D00020FEF70AFCC9
:103B30000423237110BD00BFB012002008B5074B4D
:103B400018681AF025FA012803D11BF096FA044BE5
:103B500018600022034B1A7008BD00BFD00A002075
:103B6000B0120020FA0C0020044B187820B9044B46
:103B70001879031F58425841704700BFFA0C0020C3
:103B8000B0120020054B1B7833B9054B1B79042B71
:103B90000CBF01200420704701207047FA0C002060
:103BA000B01200200B4B02461B788BB10A4B1B78DE
:103BB000834234BF00200120084B1B783BB1084BE7
:103BC0001B7843FA02F212F0010F08BF0020704781
:103BD0000120F1E7FB0C0020FC0C00201C2A002037
:103BE000FD0C002073B504F0A1FC4FF47A740E466E
:103BF000054604F0B5FC0246A5FB0401002304FBC6
:103C0000061118F0A3FA4EF66023B0FBF4F23C2143
:103C1000B0FBF3F304FB12040194B2FBF1F4B3FB29
:103C2000F1F501FB14220092054A01FB1533B0FBAC
:103C3000F2F20448044900681AF0D5FF02B070BDE2
:103C400080EE3600B812002073800300012208B510
:103C5000074B1A700022074B1A700422064B1A7089
:103C60001F22064B1A7003F089FA054B186008BD35
:103C7000FB0C00201C2A0020FC0C0020FD0C002066
:103C8000B8120020024B034918681AF0ACBF00BFFD
:103C9000B81200208A80030070B50C4C0C4906460F
:103CA00020681AF0A0FF03F069FA0546206803F0C7
:103CB00059FA3046FFF7E6FF284603F053FA20682A
:103CC0000449BDE870401AF08EBF00BFB812002052
:103CD0008C8003008E80030038B505461AF040FB47
:103CE00000230B4A14685CB1AC4206D1A96A6BB1DF
:103CF00099621AF03BFB012007E02346A46AF2E731
:103D0000002DF3D01AF032FB204638BD1160F0E7E9
:103D1000BC12002010B5044690B104F07BFB204695
:103D2000FFF7DAFF58B194F82C0040B11AF018FBF5
:103D3000044A1368013B13601AF018FB002010BD01
:103D40002220FCE7C01200202DE9F04F85B0054687
:103D5000914698460E469DF8387009B9002F66D1F5
:103D60002846FFF7D7FF0446002840D185F82C00ED
:103D7000686304F06FFC86423DD904F0F1FB40F229
:103D8000E7318C462146E6FB00C14FF47A7260466B
:103D9000002318F0DBF94FF0FF32002383468A46F8
:103DA00018F0D4F94FF0FF32E88600235846514608
:103DB00018F0CCF92B4611462846CDE900441D4A9F
:103DC0001BF036F9044690B9C5E9089885F82D70BE
:103DD0002E631AF0C5FA184A136833B31A469B6A61
:103DE000002BFBD195620023AB621AF0BFFA20468C
:103DF00005B0BDE8F08F47B12B4631462846CDE9E6
:103E000000440C4A04F0E2FBDCE7304603A904F06E
:103E1000BFFB04460028EAD12B462846CDE90077AF
:103E2000044A03991BF0E0F8CCE71560DBE7212496
:103E3000DDE700BF3D3E0100BC12002091F82C30B0
:103E400013B50C4683B98B8ECA8E93420ED243B9FA
:103E5000CDE9003320460B46104A4FF0FF311BF0EE
:103E6000A7F8A38E0133A38602B010BD52B191F81A
:103E70002D307BB101230093D1E908232046096B43
:103E8000FFF762FF0123064A84F82C3013680133E0
:103E90001360E9E7084604F0BDFAF3E73D3E010090
:103EA000C01200202DE9F041144E336823B34FF0C7
:103EB0000008134F1AF054FA05463C6824B9284606
:103EC000BDE8F0411AF052BA94F82C3093B133683F
:103ED00084F82C80013B336094F82D3013B92046D0
:103EE000FFF7FAFE28461AF041FAD4E908312046D5
:103EF0009847DFE7A46AE1E7BDE8F081C01200203F
:103F0000BC120020034B1B68002B0CBF01200420B7
:103F1000704700BFC0120020024B1868B0FA80F052
:103F200040097047C01200200348044A0449121A8D
:103F300092101AF00EB800BF98CE030098CE03007E
:103F4000102B002008B500F02FF8FFF7EDFF124B03
:103F500012498B4212D30020114B12498B4218D3C5
:103F6000FEF7A6F9186850F82240586840F8224039
:103F7000013298688242F5D30C33EAE70022F8E771
:103F80001C6844F8220001325C68A242F8D308336E
:103F9000E4E70022F8E700BF54CA030060CA030048
:103FA00060CA030060CA03004FF400414FF0FF30C5
:103FB000124B134A10B59A60D3F8882042F470026D
:103FC000C3F888200F4A916601F1884101F500523B
:103FD00010664FF6DF7050660220C3F8D000BFF3C2
:103FE0004F8FBFF36F8F08244FF440330648C0F85B
:103FF0008041D36004600B6110BD00BF00ED00E0A4
:10400000002001000090005000E100E0014B186822
:10401000704700BFDC0A0020084B1B6F03F007034A
:10402000022B04D0032B05D0012B05D0FEE7044B57
:1040300018687047034BFBE7034870470080005047
:10404000DC0A0020E00A0020002D310108B5FFF74E
:10405000E3FF054B1B6FC3F303330133B0FBF3F0F6
:10406000024B186008BD00BF00800050D80A002035
:104070000048704700B4C404014B1868704700BF83
:10408000E00A0020054B1860054B1B6F03F0070387
:10409000032B01D1FFF7DABF704700BFE00A002011
:1040A0000080005000487047002D3101014B186816
:1040B000704700BFE40A00200020836A10B5B3F502
:1040C000903F0ED21968084A91420AD1074C2278D3
:1040D00012F0FD0F04D1DB69984708B90123237062
:1040E00010BD4FF48170FBE707B0CD5E1D2A0020A4
:1040F0004FF00053074A1A60BFF34F8F0649074B32
:10410000CA6802F4E0621343CB60BFF34F8F00BF75
:10411000FDE700BF02020FF000ED00E00400FA0529
:1041200005490A681318054883428CBF4FF0FF32D7
:104130000B601046704700BFE80A00200080002096
:10414000F7B50468012105463A2000F0DBFD0023A5
:1041500001226179207901F0E7FA142330212279D4
:1041600011FB023101F1A04101F570310968637959
:10417000D940C943A37901F00101022B217017D165
:1041800000F022FB164A2B466179207900F046FBAD
:10419000FF28024660790ED12A46114900F068FBDB
:1041A0000123024661792079CDE9003301F064FAF8
:1041B000002003B0F0BD01262779002301460096B8
:1041C000384601F013FB2A460549607900F050FBA0
:1041D0000023617902462079009301963346E5E792
:1041E000A3DF020008B501213A2000F08BFD032176
:1041F00001230422002001F097FA00201AF0D1F8E0
:104200000122214B4FF46070C3F8442419F0C4FF1D
:104210001E4B00F5D520D3F8F02000F2FC4042F010
:104220000102C3F8F020D3F8FC2042F08072C3F8FA
:10423000FC20174AA3F55D431A60164B0222B0FB1F
:10424000F3F0154B01381861C3F8F0204FF4807279
:10425000C3F804234FF06043104A0020C3F8B02F86
:104260000F4AC3F8802ED3F8002E42F48072C3F8B0
:10427000002EFF2283F82020D3F8002E22F4807233
:10428000C3F8002E08BD00BF00D0035000ED00E0D1
:10429000FF030040F8590D00000004E055CEACC506
:1042A0000900010010B5012243780178847830209C
:1042B0009A40054B00FB01331CB942F210015A50E1
:1042C00010BD41F21001FAE700C0035010B5012201
:1042D00043780178847830209A40054B00FB013305
:1042E0001CB941F210015A5010BD42F21001FAE718
:1042F00000C003502DE9F04F9A46564B85B01B780D
:1043000006460F461546DDF83C909DF844B0DDF8B2
:104310005080002B00F08D80072A00F28C800E9BCD
:10432000002B00F08880B9F1000F00F08480129B10
:10433000B3F5006F7FDC012802D1109B002B7AD0EF
:10434000454B03EB05131B7B002B76D0434C10220F
:104350000021684622F0A1FB04EB45141022002F37
:1043600059D13946204622F098FB43F2100363806E
:10437000BBF1000F03D1E37843F00303E370374A46
:104380000E9B02EB451CCCE90193129B6901013B9A
:10439000C3F30A009DF84C30012E03F003034FEAEB
:1043A000836343EA001E53582D48CDF800A000EA6D
:1043B00003004EEA0003535041D113230CF1100EB9
:1043C000CCF80C309CE80F008EE80F006FF0030172
:1043D000DCF81C20109B61F39F02012FCCF81C20FD
:1043E000CCF8143003D1CCF81890CCF80430002766
:1043F000194A290102EB051342F80180159A284653
:104400005A60694622469F605E7301F06BFA384637
:1044100005B0BDE8F08F0021204622F03EFB4FF4AE
:1044200044736380BBF1000FA9D1E37843F03003FC
:10443000A4E70C48ECE70C48EAE70C48E8E7B8F1D9
:10444000000FD4D19CF8023068F304138CF80230CA
:10445000CDE700BF1E2A0020C41200204413002014
:104460000F80FFF3028000F0018000F0078000F071
:1044700038B5124B05461B78DBB1E0B119F070FF7F
:104480000F4A00231146147B54B92B6001251A01F1
:1044900001EB03131D738C5019F068FF204638BDE3
:1044A0000133082B02F11002EDD119F05FFF05482E
:1044B000F5E70548F3E70548F1E700BF1E2A0020AD
:1044C000C4120020048000F0028000F0018000F09F
:1044D00013B519F045FF00230B4A147B7CB9013357
:1044E000082B02F11002F8D1019001F09DF9074B61
:1044F00001981C7019F03AFF204602B010BD19F067
:1045000035FF0348F9E700BFC41200201E2A00202F
:10451000058000F00D4B10B51B78044693B10728B9
:1045200012D819F01DFF0A4B03EB04131A7B2AB1B2
:1045300000241C7319F01AFF204610BD19F016FF55
:104540000448FAE70448F8E70448F6E71E2A002082
:10455000C4120020068000F0028000F0018000F00C
:10456000154B13B51868002301908DF8043019F02D
:10457000F7FE124B1C7824B119F0F8FE104802B077
:1045800010BD01221A7019F0F1FE0E4B01A81C7328
:104590001C7783F82C4083F83C4083F84C4083F828
:1045A0005C4083F86C4083F87C4008238DF807302A
:1045B00001F066F92046E2E7E48003001E2A0020AD
:1045C000038000F0C41200200A4A08B512785AB1DC
:1045D00007280BD8084A02EB00131B7B43B10021CC
:1045E00001F040F9002008BD0448FCE70448FAE760
:1045F0000448F8E71E2A0020C4120020028000F0C0
:10460000018000F0078000F00A4A08B512785AB11C
:1046100007280BD8084A02EB00131B7B43B101218A
:1046200001F020F9002008BD0448FCE70448FAE73F
:104630000448F8E71E2A0020C4120020028000F07F
:10464000018000F0078000F00A4A08B5127852B1E4
:1046500007280AD8084A02EB00131B7B3BB101F084
:104660008BF9002008BD0548FCE70548FAE7054836
:10467000F8E700BF1E2A0020C4120020028000F0CC
:10468000018000F0078000F00D4B1B7893B10728E4
:1046900012D889B10B4B03EB00131B7B73B10A4B90
:1046A0001A6D012303FA00F010401ABF00200B70AE
:1046B00008707047054870470548704705487047BF
:1046C0001E2A0020C412002000000450028000F0C6
:1046D000018000F0078000F00B4A10B512780C46FC
:1046E00062B107280CD859B1084A02EB00131B7BB2
:1046F00043B101F053F92070002010BD0448FCE7DD
:104700000448FAE70448F8E71E2A0020C4120020F3
:10471000028000F0018000F0078000F02DE9F843EE
:10472000174B1F6D5B6D1F4000D5FEE7012600256E
:10473000144CDFF85480DFF85490374217D02368C8
:10474000C8F850609BB1A168284601316268A16039
:104750009847637B012B0AD148B909EB45131A7BB3
:1047600060F341021A731A7F60F341021A77013530
:10477000082D4FEA460604F11004DED1BDE8F883A7
:1047800000000450C41200200020045044130020F4
:1047900070B5044601250B4E04B970BD94FAA4F01F
:1047A000B0FA80F005FA00F306EB001224EA0304E5
:1047B0005368002BF0D0117B11B191689847EBE75B
:1047C0009847E9E74414002008B5192000F08AFD55
:1047D00028B14FF00072074BC3F880211A601A20ED
:1047E00000F080FD28B14FF08062024BC3F88021B9
:1047F0001A6008BD00E100E038B505460C4619F026
:10480000AFFD0022044B03EB05135C601A73BDE897
:10481000384019F0ABBD00BF44140020F8B5044681
:104820000D4617461E4619F09BFD1CB9052D0DD0EF
:10483000FF2414E0012C03D1012DF9D1032405E05C
:10484000022CF5D17DB1052DF2D107240123074DAE
:1048500004F1100105EB0111C1E901760B7319F0A8
:1048600085FD2046F8BD0624F0E700BF4414002073
:10487000F8B505460F46164619F072FD104B05F0C7
:10488000FC02D3F824140023EC1804F003041443AE
:1048900021FA04FC1CF0010F07D00133042BF3D1E3
:1048A000FF2419F063FD2046F8BDFF2CF9D001224A
:1048B000044B03EB0413C3E901761A73F1E700BF5D
:1048C00000C0035044140020074BD3F82404D3F84D
:1048D000202403F50053104000F0553020F0502004
:1048E000C3F82004FFF754BF00C00350074BD3F8B0
:1048F0002404D3F8202403F50053104000F0AA301C
:1049000020F0A020C3F82004FFF742BF00C00350EE
:10491000024B1968024B186810F0BABBF00A00206D
:10492000EC0A002037B5920004460D46019222F0B1
:1049300023FF431C0BD060B929462046019A22F080
:1049400075F80028044808BF002003B030BD0348B4
:10495000FBE70348F9E700BF10E000F021E000F0BA
:1049600024E000F010B5044622F016FF431C10D0DE
:1049700088B901F0D7F8234620F00300204498427C
:1049800001D1002010BD53F8042B0132F7D00348A9
:10499000F8E70348F6E70348F4E700BF0EE000F04D
:1049A00021E000F024E000F008B519F0D2FC014B42
:1049B000186008BD841C0020014B186819F0CDBC9C
:1049C000841C0020044BD3F88420D206FBD4D3F8F7
:1049D0008400C0F3811070470040005038B5104B80
:1049E0000546D3F820310C4603F00303022B0BD00D
:1049F000032B0DD0012B0FD1FFF708FB052305B1C9
:104A0000286004B1236038BDFFF736FB0323F6E7C7
:104A1000FFF748FB0223F2E701230020EFE700BF86
:104A20000080005073B50D4600210E4B0191D3F864
:104A30008041064604F00304012C09D0022C0CD05E
:104A40000C460EB1019B336005B12C6002B070BD05
:104A500001A8FFF7C3FF0F24F3E7FFF723FB019043
:104A6000EFE700BF0080005038B5184B0546D3F87B
:104A700024010C4600F00700062805D8DFE800F006
:104A8000230B131B1F0F17000023184605B12860C6
:104A900004B1236038BDFFF7B9FA0523F6E7FFF745
:104AA000B5FA0623F2E7FFF7E7FA0323EEE7FFF78D
:104AB000E3FA0423EAE7FFF7F5FA0223E6E719F041
:104AC00053FA0723E2E70123E0E700BF008000502C
:104AD00038B5104B0546D3F840310C4603F00303BC
:104AE000022B0BD0032B0DD0012B0FD119F03EFA66
:104AF000092305B1286004B1236038BDFFF7D6FA59
:104B00000823F6E719F035FA0B23F2E7012300201A
:104B1000EFE700BF0080005038B5144B0546D3F8CE
:104B200000020C4600F00700042804D8DFE800F07B
:104B30001B0A0E1216000023184605B1286004B1A6
:104B4000236038BD19F012FA0923F6E7FFF7AEFA31
:104B50000823F2E719F00DFA0B23EEE7FFF776FAD8
:104B60000E23800AE9E70123E7E700BF0080005039
:104B700038B5104B0546D3F840320C4603F003031A
:104B8000022B0BD0032B0DD0012B0FD119F0EEF916
:104B9000092305B1286004B1236038BDFFF786FA08
:104BA0000823F6E719F0E5F90B23F2E7002318468E
:104BB000EFE700BF0080005038B5104B0546D3F832
:104BC00060310C4603F00303022B0BD0032B0DD0F6
:104BD000012B0FD119F0CAF9092305B1286004B1DE
:104BE000236038BDFFF762FA0823F6E719F0C1F930
:104BF0000B23F2E701230020EFE700BF0080005005
:104C000010B40D4C0B46D4F8204204F00304012CE0
:104C10000AD0022C0CD008B1002101600BB1002297
:104C20001A605DF8044B70475DF8044BFFF7D6BE81
:104C30005DF8044BFFF74CBF0080005038B50C46C0
:104C4000054619F086FB064B9A6A82EA040101EADE
:104C5000050454409C62BDE8384019F07EBB00BF9B
:104C600000C00050B0F5207F1FD009D8B0F5007FFC
:104C700015D003D868B1B0F5C07F0AD000200CE091
:104C8000B0F5607FFAD10B4BD3F88000C0F3011070
:104C900003E0084B186FC0F3033001307047054B39
:104CA000D3F89000C0F30460F7E7024B186FC0F32D
:104CB0008020F2E7008000504FF400320E4B014696
:104CC00010B500209A66FFF7CDFF41F671324843D8
:104CD0000A490B4B88428CBF4FF480100020DC69DE
:104CE000DA639A6822F4401202439A60E20344BFF6
:104CF0000022DA6310BD00BF00900050005A62022B
:104D000000000350420910B510D0012A10D00B4BFF
:104D10000B4C022A18BF234600F01F0051B103F5C7
:104D20008053012202FA00F0186010BD1346F3E729
:104D3000044BF1E703F50053F3E700BF6880005030
:104D4000608200506480005008B5802019F024FA79
:104D5000034B98429EBF4FF48032024B1A6708BD46
:104D6000005A620200A000501FB50023B0F5807FFA
:104D7000019377D028D8382800F094800BD82438B5
:104D8000092810D809280ED8DFE800F067676767A0
:104D90000D0D620D377D52285FD008D83D283BD0DD
:104DA0003E2800F08480019805B05DF804FB80285F
:104DB000F9D1414B1B6F03F00703013B032BF2D8E2
:104DC000DFE803F044413F6CB0F5D06F5BD019D8F9
:104DD000B0F5A06F66D00AD8B0F5806F3DD0B0F5C1
:104DE000906FE0D1002001A9FFF73EFEDBE7B0F5B0
:104DF000B06F2DD0B0F5C06FD5D1002001A9FFF75D
:104E000067FED0E7B0F5006FECD00AD8B0F5E06FE0
:104E10004DD0B0F5F06FC6D1002001A9FFF7CCFE50
:104E2000C1E7B0F5086FBED1234BD3F8003103F0D2
:104E30000303022B2CD0032B2ED0012B30D1FFF7F4
:104E40001BF9032300E005230193ACE70223FBE7F2
:104E5000002001A9FFF7E6FDA5E7002001A9FFF763
:104E6000BDFDA0E702934FF0E0231B695B0705D56A
:104E7000FFF7ECF80C230393039BE5E703A902A8D3
:104E8000FFF726FEF8E7002001A9FFF745FE8AE7B5
:104E9000FFF70CF90823D7E719F066F80723D3E7E3
:104EA0000123D1E7002001A9FFF7AAFE7BE700203C
:104EB00001A9FFF75DFE76E7008000504FF4002265
:104EC000034B5A66012203F580439A62704700BF84
:104ED0000090005008B5FFF747FF082811D00938A7
:104EE000012811D84FF40012094B4FF6FF705A6693
:104EF00003F5D8335B6A13F0010F18BF4FF4FA7053
:104F000008BD044B1888FBE74FF6FF70F8E700BFB9
:104F100000900050E80C002070B504468020FFF798
:104F200023FF032800F082804FF40022444B02212B
:104F30005A6645F60E03434AC2F88030424B9962E6
:104F4000012103F580539962936DD903FCD4D4E910
:104F500000131B0543EA0163E17B94F822500B43E5
:104F6000217B94F8236043EA0143617B43EA0133E8
:104F7000A17B43EA811313619169D4E904031B0601
:104F800043EA806301F000410B43A17EE07E0B43C6
:104F9000217E43EA0143617E43EA01239361E36991
:104FA000126A002B0CBF0021082122F00D0242EAF8
:104FB000030242EA8002234B42EA01021A6294F899
:104FC00020204FEA421232D1986A94F8211020F042
:104FD000330042EA0112024342F001029A621B4A84
:104FE000996D32EA0101FBD1022217498A621A65E2
:104FF0009A6D5200FCD41869A26820F4700040EA4F
:1050000002504FF0004218610F4B9A611DB9022205
:1050100003F580539A6216B901220D4B9A6294F8F7
:1050200024301BB1074B0B4AC3F8802070BD996A2E
:1050300021F0330131430A4342EA4502EEE700BF63
:105040000090005000C0005000D00050030001400C
:1050500000E00050F1A7FFFF1F4BFF2873B5996ACE
:1050600037D89A6D12F4803F18BF01241B4A18BF2D
:105070009462022494629B6DDA0303D5164A936D01
:105080009B07FCD50222154B134E1A65B46D14F024
:105090008044FBD1124B93F90050B369054423F4CB
:1050A0007F0323F47F4343EA002385F3080043EAA8
:1050B0000043B36102200191FFF7C0FDB06D01997B
:1050C00010F4803003D00120FFF7B8FD204602B075
:1050D00070BD2120FBE700BF00C0005000D0005091
:1050E0001F2A0020014B93F9000070471F2A00205F
:1050F00001221548154B816A9A62826D02F0030203
:10510000032AFAD102229A621A650F4B9A6D520055
:10511000FCD40F4A986D32EA0000FBD101220B4B00
:105120001A65A3F580539A6D9007FCD49A6D920787
:10513000FCD50222054B1A65034A936D9B07FCD5EB
:105140000320FFF77BBD00BF00C0005000D000501F
:1051500003000100014B1880704700BFE60C0020DF
:105160004FF4001208B5184B5A660223174A5360D1
:10517000936813F48033FBD1012822D1FEF77CFF22
:10518000134B984215D003F5122303F5F8639842A8
:1051900013D0104B00EB8002400AB3FBF0F0520A30
:1051A0000A4BDA62012218635A620022074B5A60E6
:1051B00008BD45F67A10084AF2E745F61A00074A94
:1051C000EEE75362F1E700BF00900050004002504C
:1051D00000F0490264666666D8B80500BBCF0500DA
:1051E000B0F5207F10B50C4642D008D8B0F5007F4E
:1051F00033D003D888B1B0F5C07F0ED010BDB0F564
:10520000607FFBD11F4B013CD3F8801021F03001AF
:1052100041EA0414C3F88040F0E718F0B5FF19F034
:105220007EF84FF48031184A164B1167196F013C14
:1052300021F4704141EA04341C67FEF707FF04467D
:10524000FFF7C0FBC0F10201204619F062F800F040
:105250002DF8BDE81040FFF777BD0A4B013CD3F8AD
:10526000901021F0F85141EA0464C3F89040C5E77A
:10527000044B013C196F21F4806141EA84241C67CE
:10528000BCE700BF008000500090005008B501212D
:10529000022000F0F5F818F077FF19F040F84FF40D
:1052A0008032014B1A6708BD0090005008B54FF4DA
:1052B000C07018F071FFBDE80840044988428CBFF7
:1052C000022101214FF42070FFF78ABF80F0FA021B
:1052D000034B5868C0F30800003818BF012070471E
:1052E00000ED00E0054B420953F8223000F01F00AA
:1052F00023FA00F0C04300F00100704700E100E035
:10530000194B10B51B6873B3184A5268012A2AD08A
:10531000174A8020C2F80031FFF726FD05281FD16B
:105320004FF4C070FFF79EFC0128044604D102210F
:105330004FF4C070FFF754FF07220E4B1A61012291
:10534000A3F580535A60094A1369DB07FCD5012C89
:1053500009D12146BDE810404FF4C070FFF740BFAF
:105360000122054B5A6010BD381D002000C00150BD
:105370000080005000E0015000D0015000224FF4A6
:105380000031074B1A60074A516602F5983252689D
:10539000012A02BF044AD2F800211A60704700BFF8
:1053A000381D00200090005000800050044A4178D1
:1053B000536F23F4407343EA01235367704700BFE0
:1053C0000040005010B5044608B1FFF7D7FF104A5F
:1053D000136943F00403136102F0F6FD18F0C9FFEE
:1053E0000C4B0D4AC3F8202418F0B3FF22F0CCF97F
:1053F00018F0B3FF18F0BEFF02F00EFE1CB1BDE8BE
:105400001040FFF77DBFBDE81040FEF71FBE00BF94
:1054100000ED00E000E003500000FF0F10B504466F
:1054200008B1FFF7ABFF0E4A136943F004031361A1
:105430000C4B0D4AC3F8202402F0C6FD18F089FF7A
:1054400022F0A2F918F089FF02F0E6FD1CB1BDE8D8
:105450001040FFF755BFBDE81040FEF7F7BD00BF95
:1054600000ED00E000E003500000FF0F034A017967
:10547000D36E23F030030B43D366704700400050D7
:10548000F8B504461C4BD3F88420D106FBD4D3F8DE
:105490008430C3F381139C422CD0FEF7BDFD012C58
:1054A000064602D1214618F034FF18F052FF4FF0A3
:1054B0000072124B07465A66204618F060FF4FF400
:1054C00080630D4D621E93402B676B6E9A0103D46F
:1054D000D5F884309B060AD5384618F03EFF022CDA
:1054E00008D13046BDE8F840002118F012BFD5F8C9
:1054F0008430EAE7F8BD00BF004000500060005073
:1055000007B518B90191FEF787FD0199064B1B7885
:1055100043B1064B984205D8012003B05DF804EB77
:10552000FFF7AEBF0220F8E7202A0020005A6202EF
:105530000278034B012100201A70FFF7E1BF00BF82
:10554000202A00204FF0004238B5264B26495A66E3
:1055500001224A604AF6CD3103F50B235D6C1964D4
:10556000154030BB9968C9070BD4002401221F4B9A
:105570005A6015B11E4B1F4A1A6420F02DFE2046BA
:1055800038BD1A498A601C4AD96ACC0705D49042B2
:1055900001D10724EAE70130F6E79042E5D1F8E7C8
:1055A0000132DC6A14F0080406D08A42F8D10724DC
:1055B000DFE700221049F4E78A42F8D020220B4BA3
:1055C0000B495A620122A3F580539A6023460A4A86
:1055D000486A800603D49342E9D00133F8E7934246
:1055E000C7D1E4E700900050005009500060095016
:1055F000004009503254FFFF40420F004FF000427C
:1056000038B5194B194C5A66012203F50C235A6020
:105610004AF6CD33656C23644378154093401343B9
:10562000134AD363A368827823F0740343EA021316
:10563000C278002A14BF042200221343A360027917
:10564000837943EA022323614279C37943EA02233F
:1056500063610078FFF776FF0DB1064B236420F0FD
:10566000BBFD012038BD00BF009000500040095034
:10567000004000503254FFFF072AF7B501F003063F
:1056800014461F464FF003012CD89500A94000FA9C
:1056900005F21C48019118F073FE01991A4806FAA8
:1056A00005F218F06DFE194B19499DF82000002FE6
:1056B00008BF1946012303FA04F40C60154B164980
:1056C000002808BF0B461C60144B9DF82400C3F84B
:1056D00020441031A3F6DC33002808BF0B461C60C1
:1056E00003B0F0BDA2F10805AD00A94000FA05F233
:1056F0000B48019118F044FE01990A4806FA05F298
:10570000CFE700BF00C4035008C4035010E40350A7
:1057100010D4035014D4035014E4035000E0035099
:1057200004C403500CC40350F8B504460D461F468C
:1057300016464AB101238B403021194A01FB002251
:10574000FFB141F21001535004EB4403072D4FF019
:105750000F014FEA031317D8A80006FA00F28140A0
:105760001048184418F00CFE56B9012130230C489B
:1057700001FA05F503FB040077B141F21003C550AF
:10578000F8BD42F21001DEE7A5F10800800006FA3C
:1057900000F281400448E4E742F21003EFE700BF63
:1057A00000C0035004C003500CC0035010B50C4B94
:1057B0000C4C0D4A0140C4F83004C3F83014C3F84F
:1057C0002C04D36E03F03003202B1FBFD36E23F0C5
:1057D000300343F01003D366C4F8200410BD00BFAB
:1057E00000D0035000E003500040005038B514468C
:1057F0001D46032283F00103FFF796FF012004F109
:105800001001884005FA01F1FFF7D0FF9DF8101054
:10581000034B044A002908BF1346186038BD00BF77
:1058200024D4035024E403504FF400120B4B10B562
:10583000C3F88020BFF34F8FBFF36F8F0024FF2288
:10584000074B21465C6520209A625C60FFF75AFA9C
:105850002146BDE810402120FFF754BA00E100E0E6
:1058600000000450044A054B002918BF13460122CA
:1058700002FA00F0186070474020045040100450B5
:1058800010B5012104462020FFF73CFA0121212018
:10589000FFF738FA0122114B5A60227812069A60FB
:1058A0006178A27842EA01429A61FF229A6200225C
:1058B0009A631A644FF000425A654FF0FF324FF47A
:1058C000001103F500531A65054AC2F88011E37808
:1058D0001B01DBB282F81533116010BD00000450CB
:1058E00000E100E0F8B50125C3B2DFF888C0D1F8C7
:1058F00000E09D408F7ACB7A0C46097BCCF8505063
:105900000CF5005C4CF820E04FF0300E174E1B05F4
:105910000EFB006094F80DC043EA074343EA41538D
:1059200022F00302C0F860C0C365026718F018FDDA
:10593000736D227A2B4373650D4B02B11D64627A3D
:1059400002B19D632279A37943EA0243094A936134
:105950006179E37943EA014305498B61034B556360
:105960009D64BDE8F84018F001BD00BF0000045080
:10597000001004500020045010B50124C0B284402F
:1059800018F0EEFC044B5A6D22EA04025A659C6240
:10599000BDE8104018F0EABC0000045010B5012426
:1059A000C0B2844018F0DCFC074BDA6A224209D10D
:1059B0005B6B34EA03030CBF0124002418F0D6FC0F
:1059C000204610BD0024F9E7000004504FF40032D7
:1059D000054B9A6641F6713203F51C33DA630122F6
:1059E00003F50053DA6070470090005041F67132C1
:1059F0000121064BDA6303F50052D1600022DA631D
:105A00004FF40032A3F518339A6670470000035034
:105A1000CB784A7810B55B010C7843EA82030A79A7
:105A2000234343EA02130C22424302F1B0421363C0
:105A3000012C02BF8A78024B43F8202010BD00BF22
:105A4000E880035008B54FF0B0435A6802B960B11E
:105A50005B680BB118F0A6FC4FF0B04130B10120EB
:105A6000074B586018F09EFCC86008BD18F09AFCFF
:105A70000223CB6018F096FC0122024B5A60F4E737
:105A800000100058002000584FF0B0435B6870B51C
:105A90000BB118F087FC0121104B457859608378D1
:105AA0000679002BC37814BF02240024002B14BFF6
:105AB000042200224379DB0043EA06132B432343ED
:105AC00013434FF0B0429360054B59600378002BAD
:105AD00014BF0B460223D36070BD00BF00200058E6
:105AE000001000584FF48032064B5A6603F5E62347
:105AF0005B69C3F38512827003F03F021B0B427097
:105B00000370704700900050014B986CD96C70473F
:105B10000080E00F024B1868C0F30740704700BFD9
:105B20000080E00F0120034B9B680A3303F01F0342
:105B3000984070470080E00F70B5064615461C4639
:105B400021B94FF4207018F027FB0146402C1BD0E0
:105B500003D8DCB1202C1BD070BD602CFCD10423F9
:105B600003FB05F2550805EB4113B3FBF2F360218B
:105B7000084A203B02EAC30306F50052916006F58D
:105B800080529460F361E7E70623E9E71023E7E733
:105B90000823E5E7F8FF7F00012200F5805310B5E8
:105BA0005A6040F6AA6341F20502436100230E49A0
:105BB0008360C365C26000F500520361C361C364C2
:105BC00091640A498365884202D0094CA04207D1FA
:105BD0008842036502D0064B984201D100234365F9
:105BE0000123536010BD00BFFFFF010000C005503E
:105BF0000000065070B50D46FFF7CEFF012300F5FB
:105C000080567360AB7C04461BB1836843F08043CD
:105C10008360EB7C4BB1344A2B7D944243D1A2F597
:105C20001032C2F88C318023F3652A8A6B7B2046C0
:105C30001343EA891343E3602B7BD5E90112FFF795
:105C40007BFF6B7D1BB1A36843F48033A360AB7D06
:105C50001BB1A36843F40043A360EB7D2A7E1B07BE
:105C6000120502F4E00203F0E0431343A365697EEA
:105C70001D4A8B1E012B1D4B1FD894421BD002F5D1
:105C8000804294420CBF01224FF0FF3203EB4213DB
:105C9000022041F21C620329985020D10423F365AD
:105CA0002B78636170BD124A944204BFA2F5203282
:105CB000C2F89C31B7E70022E8E794420DD00C4AC5
:105CC00094420CBF01224FF0FF3203EB421302203B
:105CD00042F21C6201299850DFE70022F5E7042216
:105CE00004F50053DA65DBE700C0055000C003503F
:105CF0000000065038B50446054D20F091FA0FCC4F
:105D00000FC594E8030085E80300002038BD00BFFC
:105D10003C1D002047F6FF739A42F0B56AD0022975
:105D20006AD8364B5B5C012B66D8354DDF0005EB3E
:105D3000C30015F833308478012B13D10025C378C4
:105D40001B1BAB4202D8E018C0B2F0BD591B46681D
:105D5000A3EB510136F911609642D4BF0D4601F113
:105D6000FF33EEE740680028EFD0B0F900309342EF
:105D700004DBB0F902309342B8BF134682883D4439
:105D8000FF2A19BFC8214FF0280CB0F90610B0F94E
:105D900008C0A1EB03020CBF0126002692FBFCF217
:105DA0006D78324412B2954201DD002A01DA6A1E92
:105DB00012B24FF47A7700EBC206F188B66801326E
:105DC00013FB016112B221EAE1715C319542B1FB32
:105DD000F7F104DD00EBC206B6888E42EBD200EB91
:105DE000C20232F8040C884228BF0846A04238BFDD
:105DF0002046A9E7FF20A8E70020A6E70C810300C2
:105E00003C1D00200229F0B557D82D4B585C0128C5
:105E100053D82C4C04EBC00114F830004B68012817
:105E20000FD1C8788C78904294BFC4EB0001C4EBCA
:105E30000201001BCAB28242C8BF002233F912001D
:105E4000F0BD002B39D08878904202D3B3F902001C
:105E5000F6E7CC78B3F900009442F1D94C789988F0
:105E6000013CA1F1FF06714203F10405E4B2714166
:105E700003F10C071FFA82FCCEB2B44216D805EB30
:105E8000C1014FF47A756A43B1F902404968521A68
:105E900004EBD47102EB610292FBF4F29042CFDB8F
:105EA000B3F902009042CBDC10B2C9E737F831E019
:105EB0004E1CE645E3D33146DEE70348C0E700BFAA
:105EC0000C8103003C1D00200080FFFF08B5044842
:105ED000FFF710FFBDE80840012020F0A5B900BF82
:105EE0001081030000487047EA0C00207FB514229F
:105EF000002101A820F0D1FD044B01A94FF0FF3093
:105F0000029320F0C6F907B05DF804FB006A1800A0
:105F10001B0603F0706300F00F000902034301F455
:105F20007061120402F470220B431343014A1360A0
:105F3000704700BF0020025C60B5054619B1013909
:105F4000B1F5806F10D2094EF06810F48030FBD1AB
:105F500043EA0121120741EA050302F0805213438C
:105F600043F00043736060BD0120FCE70020025C49
:105F70000122054B9A60DA68D203FCD4D86820F07D
:105F80000F000004000C70470020025C014B1868F1
:105F9000704700BF0040025C014B5868704700BF6B
:105FA0000010025C014B186B704700BF0010025CD0
:105FB000014B1868704700BF0010025C014B9860ED
:105FC000704700BF0010025C014B1864704700BFAF
:105FD0000010025C014B5864704700BF0010025C67
:105FE000014B5863704700BF0010025C0022014B58
:105FF0001A6070470010025C024A136843F0010304
:10600000136070470010025C024A136823F001031A
:10601000136070470010025C43F20402014B1A60E7
:10602000704700BF0010025C024A136843F030035F
:10603000136070470010025C044B1A6842F48072CF
:106040001A601A6822F480721A6070470010025CAD
:10605000024A136843F48063136070470010025CC7
:10606000034A136823F4702343EA0040106070472A
:106070000010025C044B1A6902605A6942609A6916
:106080008260DB69C36070470010025C0268044BE9
:106090001A6142685A6182689A61C268DA6170471F
:1060A0000010025C024B1A6BD207FCD418627047D6
:1060B0000010025C82B01FB507930A9B04AC8B42B0
:1060C00028BF0B4604E907001048D100079948BFD4
:1060D00003330160099948BF23F0030323F07043A1
:1060E00001F0E041194341F000518160002102F0CC
:1060F000E042019C134343F00053C160046183619B
:10610000416304B0BDE8104002B070470000025C7B
:106110003F22034B1A631022DA6103229A6370470D
:106120000000025C024AD36B9B07FCD4704700BF9F
:106130000000025C034B986A10F0240018BF042092
:10614000704700BF0000025C08B5FFF7F3FF064B85
:10615000DB6B23F47F4323F0EF0303431EBF0122D5
:10616000024BC3F8FC2F08BD0000025C00F0FF3FAB
:10617000032208B5054B186019615A63FFF7C8FF81
:10618000FFF7D0FFBDE80840FFF7DEBF0000025C6C
:1061900042680346182A10B50AD0202A1DD0102ABA
:1061A0002BD1174AD2F80424D4010AD4012013E0D9
:1061B000134AD2F804249001F8D50A6842F0080284
:1061C0000A6010481A6882424FF000000ED10A6837
:1061D00042F040020A60586010BD094AD2F8042417
:1061E0005201E3D50A6842F00402E9E7064CA242F4
:1061F000F2D10A6842F08002ECE70720ECE700BF2A
:106200000000025C212A0020222A002013B5084C3D
:10621000D4F80444E40508D5009313460A46014621
:10622000002000F01BF802B010BD0120FBE700BF0A
:106230000000025C13B5084CD4F80444E40508D50A
:10624000009313460A460146002000F02BF802B0E6
:1062500010BD0120FBE700BF0000025CF0B5164650
:106260005A688DB0102A0D46129F15D17A68102AEF
:1062700012D10A4A09AC07CA84E807002246294617
:10628000CDE90547CDE90344CDE901440448009632
:1062900018F092F90DB0F0BD0720FBE794810300E0
:1062A00030000100F0B516465A688DB0102A0D4630
:1062B000129F15D17A68102A12D10A4A09AC07CA6E
:1062C00084E8070022462946CDE90574CDE9034458
:1062D000CDE901440448009618F06EF90DB0F0BD08
:1062E0000720FBE7948103001000010070B598B00F
:1062F000002843D02C4C08AD0FCC0FC50FCC0FC5D8
:106300000FCC0FC594E80F0085E80F006D4604AE72
:1063100004F1100320340FCB85E80F0094E80F0040
:1063200086E80F00FFF788FE0420FFF799FEFFF7CD
:1063300073FE3046FFF7AAFE002408AE56F8040BA1
:106340000134FFF7AFFE102CF8D1FFF725FE03282C
:10635000FBD90024FFF74AFE2646FFF717FE55F843
:10636000043B01365840042E44EA0004F5D12CB118
:10637000012206200D4B1A7018B070BDFFF75CFEAD
:106380000820FFF71BFE0020FFF71EFE0720FFF787
:1063900021FE4FF40070FFF723FE0820FFF760FE98
:1063A000FFF72AFE0020E7E774820300242A00207A
:1063B00008B5FFF741FE0122014B1A7008BD00BF6E
:1063C000232A00201FB518F059FA044630B10122E3
:1063D00006240D4B1A70204604B010BDFFF7D6FD01
:1063E0000090FFF7D3FD0190FFF7D0FD0290FFF77B
:1063F000CDFD03906846FFF749FEFFF7D9FFFFF791
:1064000013FEFFF725FEE6E7242A002006289ABFA0
:10641000014B185C00207047D482030030B5154B47
:1064200087B00293144B0390049346F611030D4674
:10643000059300F06DF91428044616D1684618F04B
:10644000CDFA4FF0A843032202A95A6319601D61D7
:106450009A63DA6B9207FCD1142C02D1684618F0CB
:10646000CBFA00F089F9044601E00028E9D0204683
:1064700007B030BD541D0020040000202DE9F04F6E
:10648000B1B005468C46E9466E4F3B9EDDF8F8E01C
:10649000409C07F1100AC846386879680837A8E8B0
:1064A00003005745C146F6D10EEB0208C8F10009BA
:1064B00009F00F09002E00F0AF80774207F00F07B8
:1064C0000121DDF8FCB0C4F1100ACDF810B005913F
:1064D00044F0005106914FEA0A2101F4F85141F0CD
:1064E0002101079106B96B460893002D40F0968074
:1064F000002C00F0938004AB0993002E00F09080F4
:1065000046F000530A93002D40F08D80002C14BFFC
:106510000123212343EA07230B9308A942F00053E8
:10652000CDF830C03D980D910E934FEA092343F00A
:1065300041030F93109002B10CA9002A16BF00224C
:106540004FF00052412342EA0E021191129213932E
:106550003C9B3D4A149310AB15933C4B0021169382
:1065600040F6110317933A4B002D08BF13461893BA
:1065700014AB1993374B10221A9311231B931CABA6
:10658000184620F08AFA01221D924AF080421E929B
:1065900000220346239205B9EB46102C08BF0123C5
:1065A0000DF1900A102200215046CDF880B02193C1
:1065B000229420F072FA002C37D020AB00212593D2
:1065C0008F4218BF534647F0804226923A9A2CA831
:1065D0008A422892299313460CBF4FF080430B4602
:1065E000102233432B912A9320F057FAFEB95346D9
:1065F000C8442D932CA948F0804318A82E93FFF788
:106600000DFF30B92DB90346A34212D1002818BF9F
:106610002C2031B0BDE8F08F102751E701236BE744
:1066200047F000536EE7212374E70123C6E728AB48
:10663000DEE703F1C0026A4412F8C02C01331043B4
:10664000E2E700BFDB820300EC82030010000020C1
:10665000F082030004000020F0B5C0299FB0249E02
:106660004FD0B1F5807F04D0802941D029201FB0C0
:10667000F0BD40F2344440F21445002E08BF2C46D1
:10668000212710250194012402960394049505976F
:10669000259F069706B102AC07940124089509943A
:1066A0000A9221220B940C950D92174A0AAC0E9275
:1066B000164A0F94109242F61102119212931394FB
:1066C0001495159201AA1692CBB112AB179304231D
:1066D00018931123199316AB1A901B9340F61103CC
:1066E000C9081C911AA806A91D93FFF797FEBEE7DB
:1066F000002E14BF4FF486644FF48264C0E70EABE3
:10670000E4E70F20B3E700BFF4820300100000109D
:1067100038B5164B5A6E42F004025A66D3F88022FE
:1067200042F00102C3F88022114B5B68C3F30803F7
:1067300043B14FF0A842D36B13F0430FFBD11424A5
:10674000204638BD4FF0A843DC6B14F04304FBD166
:10675000084D2B681BB90421284602F0E3FB2B6887
:10676000013343F000432B60EAE700BF0080005094
:1067700000ED00E0541D0020014B00205B687047D5
:1067800000ED00E04FF40052034B00209A66032214
:10679000C3F86022704700BF009000504FF40052D1
:1067A000034B00209A660322C3F86022704700BFA3
:1067B00000A00050012300F01F02A0F506200949A7
:1067C000A0F550604009934051F820201A4341F849
:1067D0002020054951F8202022EA030341F8203007
:1067E000704700BF581D00206C1D00200121A0F53E
:1067F00006230F4AA3F550635B0900F01F0001FA5E
:1068000000F052F8231008430A4942F82300D1E966
:106810000030034488680344C868096903445B186E
:1068200002BFC2E90033C2E902331361704700BFFF
:106830006C1D0020581D00202DE9F04FA9B00292D8
:106840001D46DDE9326704460822CDE903014140D7
:1068500021FA02F34B40980702F1080218BF9B008F
:10686000202A1C44F4D18123B4FBF3F303EBC313BC
:10687000E41A7A4B04F506241B7804F55064002BC7
:1068800040D1FEF745F8014620B16FF0910029B0E4
:10689000BDE8F08F4022059008A820F0FEF84022C5
:1068A000059918A820F0F9F8DFF8C891DFF8C8A119
:1068B0004B4603F10F0B102208A9DAF80000CDF8BF
:1068C00000B005931FF03BFA00220146059B09F139
:1068D00010090DF1200891424CD1CDF800B01022E2
:1068E000DAF8000018A91FF033FA4FF0000B034646
:1068F0000DF160085B4549D1594B9945D8D101222A
:10690000564B1A704FF081084FF00009DFF868A16C
:10691000A4F506235349A3F55062520951F82210F9
:1069200004F01F0C21FA0CF1C90744D44E4951F868
:10693000220020FA0CF010F0010030D0B9F1000F65
:1069400008BFA146A3F6FF448123B4FBF3F303EB96
:10695000C313E41A04F50624B8F1010804F55064E1
:10696000D6D1029BEBB1B9F1000F1AD0349BC3F81A
:1069700000906DE058F8040BCDE906230591FFF770
:1069800019FF069A079B05990132A4E758F8040BF2
:1069900005930BF1010BFFF729FF059BAAE7029B6B
:1069A00013B96FF08B0072E7349BB9F1000F4ED032
:1069B000C3F800906BE70EB1002333600FB10023E2
:1069C0003B604FF0100B00232A462146DAF8000006
:1069D000CDF800B00EF0CEFC08BB0EB1C6F800B08A
:1069E0002B68224A934224D166B15FB13B462146CF
:1069F000DAF8000018AA0EF011FD80B93B68326881
:106A00009B1A3B60D5E90223DDE90310834208BFEE
:106A10008A4216D0A4F50624A4F6FF4494E7144B4A
:106A2000984206D01233984203D0133B9842E9D0E3
:106A30002BE72146DAF800000EF034FD0028E1D003
:106A4000AFE7029B13B16B68012B03D0349B1C6032
:106A500000201CE76FF0840019E700BF252A002002
:106A600000710800581D00206C1D0020105D175E8D
:106A7000FFDF00F0006D0800EC0A00202DE9F04F68
:106A800087B08246894698461646DDF840B02AB15E
:106A9000002B4ED040F26C739A424DD8BBF1010FDF
:106AA0004DD8002406F1100739460120059418F04E
:106AB00041FB0546002845D021463A461FF0EDFF30
:106AC00005ABCDE9014300942B46012250464946CF
:106AD000FFF7B2FE044680B110F18C0F08BF6FF0D3
:106AE0008D043A46002128461FF0D7FF284618F0AB
:106AF00032FB204607B0BDE8F08F144BC5E902A970
:106B00002B60C5F804B02EB13246414605F11000A5
:106B10001FF09CFF0E483B462A46059900680EF080
:106B200091FB18B90598FFF745FEDAE76FF091047D
:106B3000D7E76FF08604DCE76FF09104D9E76FF0D8
:106B40008504D6E76FF08C04D3E700BF105D175EB5
:106B5000EC0A00202DE9F0438DB08146DDE9147880
:106B60000C4615461E469BB1B8F1000F05D16FF0DB
:106B7000860420460DB0BDE8F083002FF7D0B7F1B2
:106B8000005FF4D3C3F1005303F500439F42EED8F6
:106B90001022002108A81FF080FF002207AB0293FB
:106BA00005AB019306AB21460093484608ABCDE9FF
:106BB0000522FFF741FE04460028DAD10599DEB12F
:106BC000A94203D80029D2D115B1D0E70029FBD0C2
:106BD000491BB14228BF3146069B0948C8F800103E
:106BE00000913A46079900682B440EF0C3FB002839
:106BF00018BF6FF09104BCE7A942E9D2B7E700BF24
:106C0000EC0A002030B58DB00C460546102200215C
:106C100008A81FF042FF002207AB029305AB0193C7
:106C200006AB21460093284608ABCDE90522FFF7C5
:106C300003FE0446D0B9099B012B1AD0104B0799CB
:106C400018680EF02FFCB8B9012207980D49A0F57D
:106C50000623A3F550635B0900F01F05AA4051F815
:106C600023506A4041F82320FFF7C0FD20460DB0B5
:106C700030BD6FF08404F9E76FF09104F6E700BFD0
:106C8000EC0A0020581D00202DE9F04F89B007467E
:106C90000E46FFF78DF9C20705D40524013C2ED11D
:106CA0006FF0920028E0102200210DEB02001FF08F
:106CB000F4FE04A8FFF7DEF9049B002BEDD0059B42
:106CC000002BEAD0069B002BE7D0079B002BE4D0DB
:106CD0000025DFF8908008F10409B5421ED3012495
:106CE000FFF760F900F00E03062B33D110F480702B
:106CF00002D0FFF789F9002009B0BDE8F08F01202C
:106D000017F0C9FD0028C9D1FFF74CF910F00E03A8
:106D1000FAD0022BF8D04305DAD5BFE7FFF73CF9EC
:106D2000A6EB050A8400544528BF544699E80300A1
:106D300000238DE80300CDE9054307EB050BCDF8F3
:106D400010B0029404AAD8F8003007CA17F012FD58
:106D50002544C2E7082BA3D804FA03F313F48A7F6F
:106D60009ED0BDE7F88203002DE9F04389B00D46BF
:106D700014461F46DDF8488020B96FF0860009B040
:106D8000BDE8F0830029F8D0002AF6D0B8F1000F52
:106D9000F3D0028802F44F43B3F5824F0CBF134681
:106DA0000023DBB202D06FF08500E8E7122B01D0A0
:106DB000172BF8D122F0FF02B2F5E24F40D1428802
:106DC000C8F80020002A36D1E200C8F80020D8F820
:106DD0000020B2F5807FE6D1122B09BF384B00228C
:106DE0001A681B6905EB040608BFD2180023184671
:106DF000224412F801CD16F8011D0843B1EB0C0135
:106E00000CBF4FF0FF3C4FF0000CB5420CEA0303FF
:106E100043EA0103EDD10028AFD0002BADDA109B7F
:106E20009C4249D82246294638461FF00FFE119B46
:106E300000201C60A3E70732B4EBD20FC7D09CE759
:106E40002A78042A99D1621ED2005208B2F5807FB6
:106E5000C8F80020A7D1122B05F1010318BF4FF08D
:106E600000094FF0400205934FF000030ABF144E93
:106E70004E46D6F80C90CDE90623FFF783FC002898
:106E80007FF47DAFCDF80C90D8F800300733DB08E5
:106E9000029308AB13E903008DE80300059B96E815
:106EA000070017F0B5FC0646FFF778FC00287FF4D2
:106EB00066AF002EB3D060E76FF089005FE700BFD8
:106EC000608203002DE9F041069F0C4616460546F8
:106ED00010B309B302B9FBB96288B3EBD20F4FEA22
:106EE000D20819D34C22002128461FF0D6FD0D4BA5
:106EF00027F47E129A4212D1204617F0C7FD0446AD
:106F000038B942463146281D1FF0A0FDC5F824803F
:106F10002F602046BDE8F0816FF08604F9E76FF03E
:106F20008504F6E70002C0032DE9F0410E46144641
:106F30000546002840D000293ED012B90020BDE807
:106F4000F08103681F4823F47E13834237D1AF6B6F
:106F5000E7B1C7F1100807F128004245284404D2E0
:106F60001FF074FD3C44AC63E8E742461FF06EFD41
:106F70001022103C3C19AA63E0D0284605F12801F4
:106F800017F0A0FD0028DAD14644A863102C0CD9D4
:106F9000671E27F00F073A463146284617F092FD44
:106FA0000028CCD1E41BC9D03E442246314605F12D
:106FB00028001FF04BFDD6E76FF08600BFE76FF0AB
:106FC0008800BCE70002C0032DE9F04388461F4655
:106FD00005468BB070B169B163B10368234923F4EE
:106FE0007E1088423ED113F47C1FC3F3054604D0C3
:106FF000102E03D96FF086042AE0102696422BD873
:10700000FFF7C0FB044618BBAB6B05F12802CDE9C6
:1070100001236B6A2A1DCDE904231023CDE9083032
:1070200007AB1A460390069005F13C0901A904A894
:10703000CDF81C90FFF7FEF80546FFF7AFFB0446BE
:107040006DB928B93246494640461FF0FFFC3E6004
:1070500020460BB0BDE8F0836FF08904F8E76FF0CD
:107060009204F5E76FF08504F2E700BF0002C00369
:1070700007B56B46054A1068516803C36846FEF7BA
:10708000BDFA002003B05DF804FB00BF04830300D9
:1070900013B50024064A6846536F43F00103536753
:1070A00000948DF80440FEF7E1F9204602B010BDCF
:1070B0000040005030B58BB06C46174D0FCD0FC45B
:1070C0000FCD0FC495E8030084E80300134BD3F8F9
:1070D0004C21120317D4D3F85041E4B28DF8194073
:1070E000FEF700F8204480F308008DF818000C48E3
:1070F000FCF7C8FF6846FDF70FFF3220FEF72AF8BD
:1071000000200BB030BD074B1C884FF6FF739C422C
:1071100008BF8C24E2E700BF0C8303000080E00F6F
:1071200000F049020001E00F6FF00402502110B599
:107130000A480B4C12F0800FD3B21BBF03F00F03B1
:10714000043BA3181B1802F101020CBF83F80013C3
:107150001976402AEED1002010BD00BF00ED00E0FE
:1071600000E100E010B5044617F0F3F8024B1C6094
:1071700017F0F3F8002010BD801D002010B517F0A7
:10718000E8F8034B1C6817F0E8F8204610BD00BF74
:10719000801D0020034B02221868002380681946D6
:1071A00015F0BCBAFC0B002030B51446054687B07C
:1071B000104617F064FD6369024683423CBFD4E980
:1071C00003315B181B1A7BB10F492846039100213C
:1071D000CDE90131012304940093D4E9001316F0A2
:1071E00084FF002007B030BD0122627694F82D2084
:1071F000002AF6D084F835301321E36920469847F9
:107200002046636A9847ECE7A97101002DE9F04731
:1072100088B0044688461746994617F0A1F882467A
:10722000002F7AD0237E03F0FF02002B00F0A28013
:10723000204617F024FD6669B04205D1637ED4E98B
:1072400003521544AD1B01E0F9D9851BBD4228BF8F
:107250003D4617F085F894F82D300646002B6DD189
:107260002A46404661691FF0F1FB63692F462B44B3
:10727000636121E0037803F0FD0111295BD1216BEB
:10728000814205D1A3F111014B424B4184F83430C6
:10729000013F6369216B01328B4203F1010308BF97
:1072A0002363636195426069E4D1D4E90323216BD0
:1072B0001344994200D122630025D4E90323616974
:1072C0001344994208BF6261207A6576FDF77CF924
:1072D000204617F0D4FC6369834232D1257694F8B6
:1072E0002D30E568656103B125632046636A9847E0
:1072F000214B2A46039300230293236921680193BB
:107300000123207A00930494636816F0EEFE207A3D
:10731000FDF77AF9304617F029F85046C9F80070A1
:1073200017F024F8D9F80030002B0CBF1B200020E8
:1073300008B0BDE8F08708F8013BAAE72F46002215
:10734000B0E70123207A23760DF11E01FDF7C4F981
:107350009DF81E30002BDAD00DF11F01207AFDF7C9
:1073600093F99DF81F100029D1D12246207AFFF70A
:107370001BFFCCE71746D0E7A9710100002808DB06
:107380000123420900F01F0003FA00F0014B43F80B
:107390002200704700E100E0002809DB01224309D8
:1073A00000F01F0002FA00F0024A603342F82300A6
:1073B000704700BF00E100E070B504460568FFF7C4
:1073C000DDFE844202D10020FFF7CCFE95F93600A5
:1073D000FFF7E2FF95F93630002B0DDB01215A094A
:1073E00003F01F0301FA03F31849203241F8223059
:1073F000BFF34F8FBFF36F8F95F93700FFF7CCFFC7
:1074000095F93730002B0DDB01215A0903F01F03DA
:1074100001FA03F30D49203241F82230BFF34F8FB8
:10742000BFF36F8F287AFDF70FF9287AFDF772F80E
:10743000FDF74EF800232846C4E90033C4E90433BD
:10744000A360AB6ABDE87040184700BF00E100E0F0
:107450002DE9F0410C461546064686B04022002133
:1074600020461F461FF019FB95E8030000232A69F8
:107470002376EB6884E80300C4E904232A7DE360F3
:1074800084F82C20AA7D2363012384F8343084F807
:1074900035300C9B84F82D2023620D9BE7616362DD
:1074A0000E9BA3622B7A84F836306B7A84F83730DF
:1074B0002D4B346073602D4BB3602D4B33612D4BDE
:1074C00073612D4BF360FDF74BF838B12B4B9842AD
:1074D00004D01024204606B0BDE8F081002104F15C
:1074E0000800FCF7C5FF07460028F2D14FF001085D
:1074F000234B3362234B84F83C80B361224BF3610E
:107500009DF8403084F8390084F83B309DF83C30D9
:10751000204684F83A30697D84F8388017F0BFFB44
:1075200095F90900FFF738FF95F90900FFF726FFE5
:10753000164B0494CDE902732369CDE90083636897
:10754000E2682168207A16F0D0FD04460028C0D1F8
:1075500095F90800FFF720FF95F90800FFF70EFFE7
:107560003046FFF7FFFDB5E7EFEC02000D720100BA
:107570006DEC020073EC0200B9730100038000F0AF
:1075800043EC02009FEC020079EC0200A9710100BB
:107590002DE9F04101271C46594B86B00293594B07
:1075A0000C9D0193584B904600930A46CDE9037712
:1075B0002946564BFFF74CFF064600287BD123682F
:1075C00039462B6463683A206B64637A85F84930E6
:1075D000237A85F84830E37A85F84B30A37A85F82A
:1075E0004A30637B85F84D30237B85F84C30E37B54
:1075F00085F84F30A37B85F84E30FDF783FB3B4683
:107600000422617A207AFEF78FF83B460222E17A63
:10761000A07AFEF789F839466068FDF773FB88F8B1
:10762000006041462068FEF7E5FA1422637C5B01A6
:1076300003F1A04303F57033C3F81C26617A227A64
:1076400042EA0142C3F83426E17AA27A42EA0142D0
:10765000C3F82C2685F8506098F81930032B4DD8C4
:10766000DFE803F01A022D470123002785F8503088
:1076700000230222617B207BFEF756F8637B227B8E
:10768000617C42EA0342224B49015A50042223689A
:1076900003F58053DA65AFB90422237A052185F812
:1076A0004830637A85F849302B6C206803F58053A5
:1076B000DA6416F07FFE304606B0BDE8F0810223A2
:1076C00085F8503000230422E17BA07BFEF72CF8E4
:1076D000022741F21C61627C0E4B03EB42104750C3
:1076E000E07BA17BB13241EA004103EB4213996098
:1076F000D2E70323012785F85030B9E72326DAE7DC
:1077000031EE02000DEE020019EE0200ADEE0200B5
:1077100024D6035000C00350BFF35F8F074B5A6A53
:1077200022F480325A62D3F8942022F00102C3F886
:107730009420BFF34F8FBFF36F8F704700ED00E0D1
:1077400070B52648264CFFF7E7FF844208BF4FF08C
:107750008043244A18BF20F01F03D2F8C01018BF7E
:10776000203B21F0FF0141F0A001B3F1005FC2F81E
:10777000C0100CD31C4D1D4E296843F00103C2F804
:1077800098100131C2F89C60C2F8A0302960844290
:1077900010D01548164B0268124923F01F0343F01E
:1077A0000303C1F89820C1F89C30124B0132C1F894
:1077B000A0300260BFF35F8F05220A4BC3F894200C
:1077C0005A6A42F480325A62BFF34F8FBFF36F8F11
:1077D000BFF34F8FBFF36F8F70BD00BF180D002038
:1077E000F00E002000ED00E0841D002003000020CA
:1077F0000F0F0020E1FFFF3FF8B51446FFF78CFFA5
:107800001F2C27D90027C2062A4D1CBF20F01F00BD
:1078100020302A68CB06284B18BF21F01F01FCB28C
:10782000A24219D8D3F8C04020F01F0024F47F44AE
:1078300044F4807421F01F01C3F8C04040F00300FD
:10784000C3F8982041F003010132C3F89C00C3F84B
:10785000A0102A6000201AE0C3F89840D3F89C409A
:10786000D3F8A06024F01F04A04226F01F0601D127
:10787000B142EFD0B04201D8A14207D2D3F898402C
:10788000013724F0FF04C3F89840C8E72820BFF36D
:107890005F8F0522084BC3F894205A6A42F4803265
:1078A0005A62BFF34F8FBFF36F8FBFF34F8FBFF39A
:1078B0006F8FF8BD841D002000ED00E0BFF34F8FF7
:1078C0000549064BCA6802F4E0621343CB60BFF37C
:1078D0004F8F00BFFDE700BF00ED00E00400FA0598
:1078E000054B1A782AB95B78002B14BF02200320BD
:1078F00070470120704700BF2E2A00200329F8B5E9
:1079000098BF124B05460E468CBF00245C5C0328D2
:1079100005D8DFE800F002080B0E44F002040C4B1F
:107920001F684FB9F8BD44F00804F8E744F020049C
:10793000F5E744F08004F2E77B681A68144203D04C
:10794000314628465B6898473F68EAE7348303007E
:10795000AC1D002038B5104D2B78ABB10F4C2378FF
:107960001BB100F097FB00232370002017F0FDFAF5
:107970000B4C50B100F0E0FB0023012120782B706C
:10798000FFF7BCFF0123237038BD0122054B1A709D
:107990002278054B1A70F7E72D2A0020282A0020AC
:1079A000262A00202C2A0020332A002010B516F0A9
:1079B000D0FC064B04461B781BB1BDE8104016F006
:1079C000CCBCFFF7C7FF2046F7E700BF272A0020FF
:1079D000002814BF0121FF21074A13780B441370BC
:1079E00008D0064B1B78012B04D9054B1B780BB92B
:1079F000FFF7B0BF704700BF2E2A0020262A0020C4
:107A00002C2A002070B516F0A4FC124E05463378DF
:107A10009BB900F0C5FC044620B1284616F09DFC39
:107A2000204670BD0C4816F0A7FA00F097FF0B4BEC
:107A30001C6000F095FD0A4B186000F009FA17F081
:107A400096FA084B0024186001232846337016F07C
:107A500084FCE5E7292A0020AC1D0020B41D00208D
:107A6000B01D0020A81D002000292DE9F34114BFFE
:107A70000121FF21254A00F1FF30135C0B44135410
:107A80003AD0234E3178012936D9FFF729FF012852
:107A9000044634D81F4F16F05CFC3B781BB31E4DD8
:107AA0002B781BB901222A701C4A1370DFF87080F2
:107AB00098F8003033B1019000F0ECFA00230198FF
:107AC00088F8003016F049FC012017F04EFA16F045
:107AD00040FC2B782BB1019000F02EFB0023019885
