S019000062742D72656D6F74652D726564657369676E2E733337CE
S214012000C00A0020053601002B0A03002B0A030034
S2140120100F1C03002B0A03002B0A03002B0A0300E4
S2140120202B0A03002B0A03002B0A03002B0A0300CA
S2140120302B0A0300C8C90300BB0803002B0A0300D0
S2140120402B0A03002B0A03002B0A03002B0A0300AA
S2140120502B0A03002B0A03002B0A03002B0A03009A
S2140120602B0A03002B0A03002B0A03002B0A03008A
S214012070098801002B0A03002B0A03002B0A030020
S2140120802B0A03002B0A03002B0A03002B0A03006A
S2140120902B0A0300253D01002B0A03002B0A03002F
S2140120A02B0A0300013F0100DD3E01002B0A03005D
S2140120B02B0A0300C9D802002B0A030011E3020011
S2140120C0E5AD0300E1AD030001DB0200F1AD030065
S2140120D0E9AD0300E9E20200EDAD030051E30200C1
S2140120E0E1BC0200A5BE0200C1E302002B0A030008
S2140120F02B0A03002B0A03002B0A03002B0A0300FA
S2140121002B0A03002B0A03002B0A03002B0A0300E9
S2140121102B0A03002B0A03002B0A03002B0A0300D9
S2140121202B0A03002B0A03002B0A03002B0A0300C9
S2140121302B0A03002B0A0300953001007D090300DA
S214012140002370B5404C05468AB0E36318B1008899
S21401215023600BF027FE3D4828F0A3F93C4E3D4B8B
S214012160304633603C4B736023F07CF800213046E8
S21401217015F03AFD32A3D3E90023A062C4E9062391
S21401218023F07BF8D4E9062319431043C4E906017A
S214012190CDE900014FF0FF334FF0FF32A06A28F07F
S2140121A0FBF902224FF0FF31A06A28F0FAF901206C
S2140121B00BF078FB4FF4007300222849A06A28F040
S2140121C043FAB0F5007F38D100239422CDE90733D6
S2140121D009933C23CDE9033205939623A06A03A90C
S2140121E0069315F01FFE35B3287C0BF089FF0546D4
S2140121F0F0B9A06A28F009FB0BF030FF0BF034FBB6
S21401220020B14FF48070002108F0E0FB0BF03CFB9E
S21401221020B14FF40060002108F0D8FB23F0CFF87E
S214012220012015F035FD0E4A0E49A06A23F018F874
S21401223028460AB070BDFF20D7E70725F8E700BF9C
S2140122400DD5015520000000880F0020690345ECDC
S2140122501024002029D7010020240020102200206D
S21401226009520300495203000348044B834202D03B
S214012270034B03B118477047180F0020180F0020B2
S21401228000000000064B0749C91A891048BF0131F2
S214012290491003D0044B0BB101481847704700BFE3
S2140122A0180F0020180F00200000000010B5064C83
S2140122B0237843B9FFF7D8FF044B13B10448AFF3B3
S2140122C000800123237010BDF42B002000000000C5
S2140122D05414040008B5054B1BB105490548AFF376
S2140122E00080BDE80840FFF7CDBF00BF000000003A
S2140122F0E811002054140400A3F5803A704700BF8B
S214012300174B002B08BF134B9D46FFF7F5FF002127
S2140123108B460F461348144A121A28F01EFE0E4B1F
S214012320002B00D098470D4B002B00D0984700207B
S214012330002104000D000D48002802D00C48AFF320
S21401234000801CF0CFFC200029001EF0AAFA1CF029
S21401235053FA00BF00000800000000000000000063
S214012360C00A0020180F00203C2D002000000000AD
S2140123700000000070B504460D4621B94FF41671F1
S21401238008481EF037FA0E46062056F8043F33B9C1
S21401239006288ABFA3682B681B68636070BD204649
S2140123A09847F2E700C4030038B5036804462BB12A
S2140123B083681BB145680B4A954203D0C8210A4879
S2140123C01EF018FA9847082801D0D221F7E7A3682B
S2140123D01B6863602046A168FFF7CCFF0728F9D881
S2140123E038BD00BFECC3030000C403002DE9FF4164
S2140123F004460F46456801B125B94FF496712F483A
S2140124001EF0F8F92E46394620467368984701288B
S21401241024D83668002EF6D104B0BDE8F081EB680A
S2140124200BB1204698472D6820E0906828B104A893
S21401243000EB830040F8102C013312681FE05DF8B2
S214012440253020469B689847013D1DE0062023E085
S214012450EB680BB1204698472D6825E00628DBD9A6
S21401246009281BD1D4F8088067686560B542D6D1C3
S21401247041462046FFF77EFF3A46002361688A42BE
S21401248001D0042BD1D15D1E6B1CD8D13B6967608E
S214012490002BDBD02046984765682E460027062885
S2140124A0BAD9D4F80880A760AE42D1D141462046B9
S2140124B0FFF760FF65682E46F1E700BF00C4030022
S2140124C0024B0360024BC0E901317047E0C30300D1
S2140124D0ECC30300014B83600820704734C503003A
S2140124E0014B8360082070471CC50300014B8360C5
S2140124F008207047D0C40300044B0A689A4203BF01
S214012500034B836007200020704700BFA000090628
S21401251090C4030010B50446024805F0D3FEE060FF
S214012520052010BD3412002008B502481EF01DFB20
S214012530052008BDB0C9030008B502481EF018FB07
S214012540052008BDB0C903000B68124A10B59342B6
S214012550044615D002F18062934219D1038C1BB157
S2140125600D4B8360072010BD90F822000EF0A8FDE9
S214012570E06000B1FEE7FF2384F833300220F2E783
S214012580064B1A685379927943EA02230384F5E7E6
S2140125900020E8E7A0000902A4C403006812002096
S2140125A00B68244A10B5934204463ED007D8052B43
S2140125B032D002F17F4293420DD0002010BD1E4A58
S2140125C0934222D002F180729342F6D1FF2380F823
S2140125D033301A4B14E01A4B1B681A7B80F8222002
S2140125E001205B7B2083FF2BE8D0628B5AB16269A6
S2140125F04AB1E2693AB1228C2AB184F82C30114BE7
S2140126000720A360DAE7104BFAE70D4B1B685B79EE
S21401261080F82C300D4BF3E790F822000EF050FDB9
S21401262010B9E0600220C9E7FEE7FF2380F83330E7
S214012630074BE5E7A0000601A0000F035CC40300FA
S2140126406812002080C403006CC4030048C4030061
S21401265038C4030030B50B687C4A0446934285B003
S21401266000F0D68007D8042B1AD0052B00F0B980CD
S214012670002005B030BD764A934200F0BC8002F1DE
S21401268000729342F4D1734B1B68B3F8052041F2F4
S21401269012139A4240F09D806F4B83600720E8E753
S2140126A04B7A032B00F29780DFE803F0025F9397E3
S2140126B00A7A6A4B53F82230694A934213D153235C
S2140126C080F8273090F82B30418B80F82830012392
S2140126D0032280F8293000F1270390F822000EF03B
S2140126E029FDB0B1FEE75F4A934225D1502380F819
S2140126F0273090F82B30418B80F828302B2303228B
S21401270080F8293000F1270390F822000EF012FD20
S21401271088B9E0600122544B54481A701EF028FA1A
S21401272000235021CDE90033514A524805F0D4FE2A
S214012730D0B9E0604FE0FEE74F4A9342EAD150231A
S21401274080F8273090F82B30418B80F828302D23E5
S214012750032280F8293000F1270390F822000EF0BA
S214012760E9FC0028D5D0FEE7FEE73C4B0A7A53F891
S21401277022203B4B9A422CD190F82B305322022B2D
S2140127808EBF00230133DBB280F82B3080F8272080
S21401279080F8283080F82920418B00F12703032296
S2140127A090F822000EF0C6FC0546E06000B1FEE798
S2140127B002222D4B2D481A701EF0DAF92B465021B5
S2140127C0CDE900552A4A2B4805F086FE0028B0D0F0
S2140127D0FEE700F073FD02204BE7002023F084FCA7
S2140127E0F9E790F822000EF06BFCE06000B1FEE71E
S2140127F000F080FDEFE7174B1968038BB1F8052051
S2140128009A42E8D18A7A23300B3128F0B1FBE2E70D
S214012810104B1B68DB7A012BDDD1028B002ADAD044
S214012820164AC821137000234FF6FF720383CDE9C1
S21401283001324FF4FA72009290F822004FF4967229
S2140128400EF014FC00283FF474AFFEE7A000060269
S214012850A000090468120020FCC40300CC0A002072
S21401286098C9030080C90300FD2B0020B0C90300EE
S214012870FD2D01003412002068C90300FE2B002044
S2140128801FB50B681B4A0446934206D002F18062CC
S21401289093420BD0002004B010BD174B1A68537931
S2140128A0927943EA022343830220F4E7638B90F88C
S2140128B02200B3B10122114BC8211A7000234FF632
S2140128C0FF72CDE901324FF4FA7200924FF496721C
S2140128D00EF0CCFBE06000B1FEE7094B0720A360D9
S2140128E0D9E70EF0EDFBE06000B1FEE7FF2384F8C8
S2140128F03330D9E7A000090268120020FE2B002021
S214012900B0C403000B68244A73B5934204460AD048
S21401291002F1806202F5802293423BD0052B37D02C
S214012920002002B070BD1D4D28680379032B01D02D
S2140129300120F6E7817D173000F012FA0028F7D063
S214012940174805F0BFFC0146E06000B1FEE72868C5
S214012950C27A0091437A867AD0F8050043EA0623C4
S21401296063F30F0101230EF053FBE06000B1FEE7B5
S2140129702B68D3F80520C4F82D20B3F80920DB7A9C
S214012980A4F8312084F83330064B0720A360C8E74B
S214012990054BFAE70220C4E7A000050068120020F4
S2140129A034120020ECC40300DCC403000B6837B506
S2140129B0042B044605D0154A93421BD0002003B0D1
S2140129C030BD90F83320FF2A1ED000F12203009379
S2140129D090F8311090F832500123D0F82D0041EADA
S2140129E005210EF015FB00B1FEE7094BE06007205C
S2140129F0A360E4E7074805F065FCE06010B9064807
S214012A001EF0B3F8054BF2E7054BF0E7A000060110
S214012A1028C4030034120020B0C9030008C4030010
S214012A2018C403000B681F4A70B59342044605D0CC
S214012A3002F1A06293421BD0002070BD1A4B1022F7
S214012A401D681A4905F10A06304628F05CFA20B9D5
S214012A50D5F8053063610220EFE7022230461449BB
S214012A6028F051FA0028F6D1D5F80530E361F2E7EF
S214012A7043692BB1C3691BB10E4B83600720DCE7AA
S214012A8094F822000EF01CFBE06000B1FEE794F81B
S214012A9022000EF027FBE06000B1FEE7FF2384F87A
S214012AA03330D8E7A00009016812002038C60300B9
S214012AB026C60300C0C403000A680A4B10B59A4232
S214012AC004460CD11DF0E5FE032122200EF096FBF4
S214012AD0E06000B1FEE70720034BA36010BD0020B5
S214012AE0FCE700BFA000010028C503000B68154ADB
S214012AF010B59342044621D002F1007293421DD0D4
S214012B0002F17D4293421BD10F4805F0DBFBE060EA
S214012B1010B90E481EF029F80D4B1B689A8841F231
S214012B2013039A4205D194F82C000EF07BFB20B9D2
S214012B30E0600720074BA36010BDFEE70220FBE71D
S214012B400020F9E7A000060234120020B0C90300F5
S214012B506812002010C50300012213B50446018C3B
S214012B6001AB90F822008DF804200EF0E3FAE06045
S214012B7000B1FEE702481DF0FBFF042002B010BDC5
S214012B80B0C9030010B5416904461022064B90F8FF
S214012B9022000EF0B9FAE06000B1FEE703481DF02E
S214012BA0E7FF042010BD00BF28C60300B0C903001C
S214012BB010B5C16904460222064B90F822000EF0B9
S214012BC0A3FAE06000B1FEE7208403481DF0D0FFC1
S214012BD0042010BD24C60300B0C903001FB503A915
S214012BE005F01AFC38B90346CDE90000034A0399FB
S214012BF003481FF023F805B05DF804FB612C0100C3
S214012C003412002008B502481DF0B2FF052008BDA9
S214012C10B0C9030008B502481DF0AAFF052008BD8B
S214012C20B0C9030008B502481DF0A2FF052008BD83
S214012C30B0C9030010B5044690F822000EF052FA0F
S214012C40E06000B1FEE702481DF092FF042010BDCF
S214012C50B0C903000149FFF733BC00BFD52401000A
S214012C600122014B1A707047FF2B002004220A4BE9
S214012C7070B500251A60E0221D715A71074B1C6859
S214012C802046FFF7E7FF23682A4629462046BDE887
S214012C9070401B68184700BF5C1200203CC503004B
S214012CA01FB51B4B1A78B2B100221A481A7005F0EC
S214012CB009FB00B1FEE742F2107003A905F0ACFB78
S214012CC0034638B9CDE90000134A039911481EF0AE
S214012CD0B5FF00B1FEE7114B1A783AB100221A701F
S214012CE00F4B1049186803685B6898470E4B1A78B3
S214012CF052B100221A700A4B0C49186803685B68C7
S214012D0005B05DF804EB184705B05DF804FB00BF9D
S214012D10002C002034120020612C0100FE2B002024
S214012D203CC503005C120020FF2B00201CC60300DC
S214012D30084B094918600368002223F47F4323F0F7
S214012D4007030B60E0234B71044B0A711868036894
S214012D505B68184768120020541200203CC5030027
S214012D602DE9F04105460F460024DFF83480BC42C9
S214012D7002D30020BDE8F0812B195B782E5D063B5F
S214012D80012B06D8A01C10224146284428F0BBF887
S214012D9018B101362644F4B2E9E70120EAE700BF9C
S214012DA038C60300054B1878054B1B781843054BAE
S214012DB01B78184380F00100704700BFFF2B0020EE
S214012DC0FE2B0020002C002038B5094D04462B7838
S214012DD03BB9084908480EF037FA00B1FEE701236F
S214012DE02B7014B1034B1B782370034838BD00BF0A
S214012DF0FC2B0020F52B0020F62B002010B50B4CE9
S214012E0023787BB10A481DF0B6FE30B108481DF0A4
S214012E10AFFE2378013B237010BD0548BDE8104086
S214012E201DF0A6BE0122034B1A70F5E7FD2B00200C
S214012E30B0C90300002C00200122034B1A70034B7B
S214012E405972187200F056BAFE2B00205C12002050
S214012E507FB503681C4A23F47F4323F0070393429C
S214012E602ED1052200211720184B0EF079F900B15A
S214012E70FEE70DF1070102A80EF0E6F9014600B1E2
S214012E80FEE7BDF80C3008225BBAADF810309DF8AD
S214012E900B3019208DF81230FF238DF81330FE23E6
S214012EA08DF814309DF80A308DF81530BDF80830CD
S214012EB05BBAADF8163004AB0EF052F900B1FEE77E
S214012EC007B05DF804FB00BFA000010048C6030080
S214012ED010B5234C01F0F6FA01F0D2FC236F23F073
S214012EE0070343F0030323671DF09BFF1D4B0020E0
S214012EF09B6A9B075EBF01221B4B9A62D4F8203166
S214012F0023F0030343F00203C4F82031D4F824313C
S214012F1023F0070343F00203C4F82431D4F8403108
S214012F2023F0030343F00103C4F84031D4F86031C1
S214012F3023F0030343F00103C4F86031D4F84032B0
S214012F4023F0030343F00103C4F84032D4F80032FF
S214012F5023F0070343F00103C4F8003210BD00BF9D
S214012F600080005000C0005000E0005008B502F09C
S214012F70D3F901280ED1114B04205A6E4FF4802349
S214012F800F49520358BF0F4A4B6601F510410862BC
S214012F9058BF536603F04AFF03F0EEFE03F00EFF40
S214012FA01EF08FFCFFF794FF03F0F6FE00F0E4FB43
S214012FB000F0B8FFBDE8084004F044BC00800050B3
S214012FC00090005000A0005030B51F4D9DB009ACD8
S214012FD00FCD0FC495E80F0084E80F004FF4E133DE
S214012FE02822002112A80B9327F0B7FF174B0E22B9
S214012FF011933823139302238DF8503015938DF8CF
S2140130005830032300210DF11600179327F0A5FF72
S2140130104FF480110E4B09AACDE903133E238DF818
S21401302014303F238DF815300A4B03A9069320234D
S214013030079301238DF82030074B0848009311AB06
S21401304003F086FF1DB030BD48C903000000035AD7
S2140130503400035A012C00206C120020DC120020E0
S214013060022905D8034B1B68186808B1436A18473C
S214013070704700BFC00A002008B50449044804F0A0
S214013080A7FCBDE80840FFF79FBF00BFC40A0020A9
S2140130900013002001481EF06DBC00BFDC120020AA
S2140130A0014B1A6A18681047DC12002008B505485B
S2140130B01DF0E0FC04481DF0DDFCBDE808400348B7
S2140130C01DF0D8BC98C9030080C9030068C9030075
S2140130D001481DF047BD00BFB0C9030008B5064B47
S2140130E0834207D1054B1B7823B1C8B20DF0E8FF28
S2140130F000B1FEE708BD00BF08130020212C002008
S21401310030B500250368344A23F47F4323F00703D0
S21401311085B0934204460295ADF80C5035D002F5C1
S214013120802293420CD0A2F18272934251D12B4B52
S2140131301B78002B4DD005B0BDE830401EF044BED4
S214013140B0F80530232B44D1FF2304A91A4611E910
S21401315003001DF063FC012814BF41F2FC151F4B50
S2140131604FF0230108BF187005F0FC0220790EF01D
S2140131700DF800B1FEE71A4900902379194A09684B
S214013180194800F04BF920B3FEE7B0F80530B7EE6A
S214013190047A07EE903AF8EE677AB0F8073067EEF1
S2140131A0877A013307EE103AB8EEC77A67EE877A68
S2140131B0B1EE047A67EE877AFAFE677AFCEEE77A72
S2140131C017EE903AB3F57A7F38BF4FF47A73044A14
S2140131D0136005B030BD00BFA0000602212C002000
S2140131E0D80A0020DD300100081300200421002247
S2140131F0034B19711A6019739A6019751A61704731
S214013200401300202DE9F8431F4B06461B78ABB947
S2140132100325DFF87C901D4C59F8043BB34207D1D7
S21401322030461DF02CFC01280AD11EF08BFD2060D3
S214013230013D15F0FF0504F10804EDD1BDE8F88362
S21401324030461DF01CFC80460028F1D11EF07AFDA8
S2140132502368C71AFA2005F0CDF8B84202D984F8D7
S2140132600480E5E74FF47A7005F0C4F8B84202D955
S21401327001232371DCE741F2883005F0BBF8B84240
S2140132808CBF02230323F4E7190D0020401300200E
S214013290CC0A002070B500240426074D297904299C
S2140132A003D0E0B2FFF7C8FD2E710134032C05F1FF
S2140132B00805F3D170BD00BF4013002038B50024C7
S2140132C0094D55F8040B1DF0DAFB012804D11EF058
S2140132D039FD064B43F834000134032CF1D10022AA
S2140132E0034B1A7038BD00BFCC0A002040130020E3
S2140132F0190D0020064B1A784AB9012119700421CC
S214013300044B19711A6019739A6019751A6170471E
S214013310190D002040130020074B187850B9074BB1
S2140133201A79042A06D11A7B042A03D1187D031FB1
S21401333058425841704700BF190D00204013002025
S214013340094B1B785BB9094B1879042809D11A7BFC
S214013350042A07D11B7D042B08BF012070470120DA
S21401336070470420704700BF190D0020401300204D
S214013370012208B5074B1A700022074B1A70042267
S214013380064B1A701F22064B1A7003F079FD054B87
S214013390186008BD1C0D0020222C00201B0D0020EB
S2140133A01A0D00205813002038B505461DF055FDAE
S2140133B000230B4A14685CB1AC4206D1A96A6BB112
S2140133C099621DF050FD012007E02346A46AF2E74A
S2140133D0002DF3D01DF047FD204638BD1160F0E703
S2140133E05C13002010B5044698B104F06BFF20462C
S2140133F0FFF7DAFF10B194F82C300BB9002010BD9E
S2140134001DF02BFD044A1368013B13601DF02BFDD4
S214013410F4E72220F3E700BF601300202DE9F04314
S21401342085B00546914698460E469DF8307009B916
S214013430002F5CD12846FFF7D5FF0446002836D179
S21401344085F82C00686305F079F8864233D904F0D4
S214013450CBFF2146844640F2E7304FF47A720023D0
S214013460E6FB0C011BF030F84FF0FF3200231BF097
S2140134702BF82B46E88611462846CDE900441D4A1E
S2140134801EF03BFC044690B9C5E9089885F82D70F6
S2140134902E631DF0E2FC184A136833B31A469B6A82
S2140134A0002BFBD195620023AB621DF0DCFC2046AD
S2140134B005B0BDE8F08347B12B4631462846CDE935
S2140134C000440C4A04F0C6FFDCE7304603A904F0CA
S2140134D0A3FF04460028EAD12B462846CDE900770B
S2140134E0044A03991EF0E5FBCCE71560DBE72124CF
S2140134F0DDE700BFFD3401005C13002091F82C309D
S21401350013B50C4683B98B8ECA8E93420ED243B93D
S214013510CDE9003320460B46104A4FF0FF311EF02E
S214013520ACFBA38E0133A38602B010BD52B191F855
S2140135302D307BB101230093D1E908232046096B86
S214013540FFF76CFF0123064A84F82C301368013319
S2140135501360E9E7084604F0B5FEF3E7FD34010021
S214013560601300202DE9F041144E336823B34FF069
S2140135700008134F1DF071FC05463C6824B9284627
S214013580BDE8F0411DF06FBC94F82C3093B1336860
S21401359084F82C80013B336094F82D3013B9204613
S2140135A0FFF702FF28461DF05EFCD4E908312046ED
S2140135B09847DFE7A46AE1E7BDE8F08160130020E1
S2140135C05C130020034B1B68002B14BF0420012052
S2140135D0704700BF60130020024B1868B0FA80F0F5
S2140135E040097047601300200348044A0449121A30
S2140135F092101DF01BBA00BFC0180400C0180400CA
S2140136003C2D002008B500F02FF8FFF7EDFF124B18
S21401361012498B4212D30020114B12498B4218D308
S214013620FEF76EFE186850F82240586840F82240AF
S214013630013298688242F5D30C33EAE70022F8E7B4
S2140136401C6844F8220001325C68A242F8D30833B1
S214013650E4E70022F8E700BF5C14040068140400E5
S21401366068140400681404004FF400414FF0FF3062
S214013670124B134A10B59A60D3F8882042F47002B0
S214013680C3F888200F4A916601F1884101F500527E
S21401369010664FF6DF7050660220C3F8D000BFF305
S2140136A04F8FBFF36F8F08244FF440330648C0F89E
S2140136B08041D36004600B6110BD00BF00ED00E0E7
S2140136C0002001000090005000E100E0014B186866
S2140136D0704700BFE00A0020084B1B6F03F007038A
S2140136E0022B04D0032B05D0012B05D0FEE7044B9B
S2140136F018687047034BFBE703487047008000508B
S214013700E00A0020E80A0020002D310108B5FFF785
S214013710E3FF054B1B6FC3F303330133B0FBF3F039
S214013720024B186008BD00BF00800050DC0A002074
S2140137300048704700B4C404014B1868704700BFC6
S214013740E80A0020054B1860054B1B6F03F00703C2
S214013750032B01D1FFF7DABF704700BFE80A00204C
S2140137600080005000487047002D3101014B186859
S214013770704700BFE40A002000239B6A10B5B3F52A
S214013780903F11D219680A4A91420DD1094C22780C
S21401379012F0FD0F01D0002010BDDB69984700280C
S2140137A0FAD101232370F6E74FF48170F4E700BFE6
S2140137B007B0CD5E232C00204FF00053074A1A6055
S2140137C0BFF34F8F0649074BCA6802F4E062134302
S2140137D0CB60BFF34F8F00BFFDE700BF02020FF0C3
S2140137E000ED00E00400FA050346054A05491068A5
S2140137F003448B428CBF4FF0FF301360704700BF0D
S214013800EC0A002000800020F7B504680121054677
S2140138103A2000F07DFD002301226179207901F034
S21401382089FB14233021227911FB023101F1A041D9
S21401383001F5703109686379D940C943A37901F06C
S2140138400101022B217017D100F0C2FA164A2B464D
S2140138506179207900F0E6FAFF28024660790ED1F8
S2140138602A46114900F008FB0123024661792079B6
S214013870CDE9003301F004FB002003B0F0BD0126C2
S2140138802779002301460096384601F0B3FB2A4605
S2140138900549607900F0F0FA002361790246207943
S2140138A0009301963346E5E7890A030010B5012225
S2140138B043780178847830209A40054B00FB013329
S2140138C01CB942F210015A5010BD41F21001FAE73C
S2140138D000C0035010B50122437801788478302067
S2140138E09A40054B00FB01331CB941F210015A50B6
S2140138F010BD42F21001FAE700C003502DE9F04F67
S2140139009A46564B85B01B7806460F461546DDF897
S2140139103C909DF844B0DDF85080002B00F0978075
S214013920072A00F296800E9B002B00F09280B9F1D8
S214013930000F00F08E80129BB3F5006F00F38980B4
S214013940012803D1109B002B00F08380444B03EB2E
S21401395005131B7B002B7ED0424C102200216846AB
S21401396027F0FBFA04EB45141022A7BB3946204684
S21401397027F0F3FA43F210036380BBF1000F03D183
S214013980E37843F00303E370364A0E9B02EB451CD3
S214013990CCE90193129B6901581E9DF84C30C0F387
S2140139A00A0003F003039B0643EA001E53582E4801
S2140139B0012E00EA03004EEA0003CDF800A05350A2
S2140139C017D0B8F1000F2ED19CF8023068F304131B
S2140139D08CF8023027E00021204627F0BEFA4FF48B
S2140139E044736380BBF1000FCED1E37843F030031C
S2140139F0C9E713230CF1100ECCF80C309CE80F002D
S214013A008EE80F006FF00301DCF81C20109B61F3B9
S214013A109F02012FCCF81C20CCF8143003D1CCF82F
S214013A201890CCF8043000270D4A290102EB051343
S214013A3042F80180159A28465A60694622469F60D8
S214013A405E7301F053FB384605B0BDE8F08F0748BA
S214013A50FAE70748F8E70748F6E700BF242C0020F6
S214013A6064140020641300200F80FFF3028000F02E
S214013A70018000F0078000F038B5124B05461B7830
S214013A80DBB1E0B11DF0E9F90F4A00231146147BC2
S214013A9054B92B6001251A0101EB03131D738C50D9
S214013AA01DF0E1F9204638BD0133082B02F1100262
S214013AB0EDD11DF0D8F90548F5E70548F3E70548C7
S214013AC0F1E700BF242C002064140020048000F0DD
S214013AD0028000F0018000F038B51DF0BEF9002329
S214013AE005460B4A147B6CB90133082B02F1100210
S214013AF0F8D101F09DFA074B28461C701DF0B3F96A
S214013B00204603E028461DF0AEF9034838BD00BF45
S214013B1064140020242C0020058000F00D4B10B505
S214013B201B78044693B1072812D81DF096F90A4B64
S214013B3003EB04131A7B2AB100241C731DF093F9BE
S214013B40204610BD1DF08FF90448FAE70448F8E74F
S214013B500448F6E7242C002064140020068000F0B8
S214013B60028000F0018000F0154B13B518680023A1
S214013B7001908DF804301DF070F9124B1C7824B1B9
S214013B801DF071F9104802B010BD01221A701DF027
S214013B906AF90E4B01A81C731C7783F82C4083F836
S214013BA03C4083F84C4083F85C4083F86C4083F8D3
S214013BB07C4008238DF8073001F066FA2046E2E7DC
S214013BC018CA0300242C0020038000F0641400208F
S214013BD00A4A08B512785AB107280BD8084A02EBE8
S214013BE000131B7B43B1002101F040FA002008BD01
S214013BF00448FCE70448FAE70448F8E7242C0020C8
S214013C0064140020028000F0018000F0078000F0BC
S214013C100A4A08B512785AB107280BD8084A02EBA7
S214013C2000131B7B43B1012101F020FA002008BDDF
S214013C300448FCE70448FAE70448F8E7242C002087
S214013C4064140020028000F0018000F0078000F07C
S214013C500A4A08B5127852B107280AD8084A02EB70
S214013C6000131B7B3BB101F08BFA002008BD054811
S214013C70FCE70548FAE70548F8E700BF242C0020D2
S214013C8064140020028000F0018000F0078000F03C
S214013C900D4B1B7893B1072812D889B10B4B03EB58
S214013CA000131B7B73B10A4B1A6D01238340134229
S214013CB014BF0123002300200B707047054870478E
S214013CC00548704705487047242C002064140020DE
S214013CD000000450028000F0018000F0078000F030
S214013CE00B4A10B512780C4662B107280CD859B1A8
S214013CF0084A02EB00131B7B43B101F053FA207014
S214013D00002010BD0448FCE70448FAE70448F8E739
S214013D10242C002064140020028000F0018000F0B2
S214013D20078000F0184B2DE9F0411F6D5B6D1F40B9
S214013D3000D5FEE701260025144CDFF858803742EF
S214013D4018D02368C8F85060A3B1A168284601318D
S214013D506268A1609847637B012B0BD150B90C4B6D
S214013D6003EB45131A7B60F341021A731A7F60F363
S214013D7041021A770135082D4FEA460604F1100470
S214013D80DDD1BDE8F08100BF0000045064140020BE
S214013D90641300200020045070B5044601250B4E24
S214013DA004B970BD94FAA4F0B0FA80F005FA00F3F5
S214013DB006EB001224EA03045368002BF0D0117BB3
S214013DC011B191689847EBE79847E9E7E4140020BA
S214013DD008B5192000F080FD28B14FF00072074B9E
S214013DE0C3F880211A601A2000F076FD28B14FF042
S214013DF08062024BC3F880211A6008BD00E100E032
S214013E0038B505460C461DF028F80022044B03EB96
S214013E1005135C601A73BDE838401DF024B800BF76
S214013E20E4140020F8B504460D4617461E461DF05C
S214013E3014F81CB9052D0DD0FF2414E0012C03D174
S214013E40012DF9D1032405E0022CF5D17DB1052D14
S214013E50F2D10724074904F1100301EB03110123F2
S214013E60C1E901760B731CF0FEFF2046F8BD06245F
S214013E70F0E700BFE4140020F8B505460E461746E5
S214013E801CF0EBFF134B2C46D3F8242405F0FC0161
S214013E9022FA05F3DB0712D500230133DBB2042B2C
S214013EA004D1FF241CF0DFFF2046F8BDEC1804F017
S214013EB003040C4422FA04FC1CF0010FEDD1FF2C84
S214013EC0F0D00122044B03EB0413C3E901671A7314
S214013ED0E8E700BF00C00350E4140020074BD3F806
S214013EE02404D3F8202403F50053104000F0553085
S214013EF020F05020C3F82004FFF74EBF00C0035047
S214013F00074BD3F82404D3F8202403F500531040BC
S214013F1000F0AA3020F0A020C3F82004FFF73CBF31
S214013F2000C00350024B1968024B186813F06EBAB2
S214013F30F00A0020100B002070B5940022460546BA
S214013F400E4628F02DFA431C0AD058B922463146AF
S214013F50284626F0D8FF0028034808BF002070BD79
S214013F600248FCE70248FAE710E000F021E000F022
S214013F7024E000F010B5044628F016FA431C10D0D1
S214013F8088B901F0D1F9234620F003002044984275
S214013F9001D1002010BD53F8042B0132F7D003489D
S214013FA0F8E70348F6E70348F4E700BF0EE000F041
S214013FB021E000F024E000F008B51CF047FF014BBB
S214013FC0186008BDD41D0020014B18681CF042BFC4
S214013FD0D41D0020044BD3F88420D206FBD4D3F89A
S214013FE08400C0F3811070470040005038B5104B74
S214013FF00546D3F820310C4603F00303022B0BD001
S214014000032B0DD0012B0FD1FFF760FB052305B164
S214014010286004B1236038BDFFF78EFB0323F6E763
S214014020FFF7A0FB0223F2E701230020EFE700BF22
S2140140300080005073B50D4600210E4B0191D3F858
S2140140408041064604F00304012C09D0022C0CD052
S2140140500C460EB1019B336005B12C6002B070BDF9
S21401406001A8FFF7C3FF0F24F3E7FFF77BFB0190DF
S214014070EFE700BF0080005038B5184B0546D3F86F
S21401408024010C4600F00700062823D8DFE800F0DC
S214014090040A121A1E0E1600012305B1286004B187
S2140140A0236038BDFFF712FB0523F6E7FFF70EFB8B
S2140140B00623F2E7FFF740FB0323EEE7FFF73CFB9F
S2140140C00423EAE7FFF74EFB0223E6E71CF0B9FC00
S2140140D00723E2E700231846DFE700BF0080005011
S2140140E038B5104B0546D3F840310C4603F00303B0
S2140140F0022B0BD0032B0DD0012B0FD11CF0A3FCF0
S214014100092305B1286004B1236038BDFFF72EFBF3
S2140141100823F6E71CF09AFC0B23F2E701230020A4
S214014120EFE700BF0080005038B5144B0546D3F8C2
S21401413000020C4600F0070004281BD8DFE800F058
S21401414003090D111500012305B1286004B1236090
S21401415038BD1CF078FC0923F6E7FFF707FB0823B8
S214014160F2E71CF073FC0B23EEE7FFF7CFFA0E2302
S214014170800AE9E700231846E6E700BF0080005002
S21401418038B5104B0546D3F840320C4603F003030E
S214014190022B0BD0032B0DD0012B0FD11CF053FC9F
S2140141A0092305B1286004B1236038BDFFF7DEFAA4
S2140141B00823F6E71CF04AFC0B23F2E70023184617
S2140141C0EFE700BF0080005038B5104B0546D3F826
S2140141D060310C4603F00303022B0BD0032B0DD0EA
S2140141E0012B0FD11CF02FFC092305B1286004B167
S2140141F0236038BDFFF7BAFA0823F6E71CF026FC61
S2140142000B23F2E701230020EFE700BF00800050F8
S21401421010B40D4C0B46D4F8204204F00304012CD4
S2140142200AD0022C0CD008B1002101600BB100228B
S2140142301A605DF8044B70475DF8044BFFF7D6BE75
S2140142405DF8044BFFF74CBF0080005038B50C46B4
S21401425005461CF0FBFD054B9A6A54402C40544021
S2140142609C62BDE838401CF0F5BD00BF00C00050A0
S214014270B0F5207F1FD009D8B0F5007F15D003D840
S21401428068B1B0F5C07F0AD000200CE0B0F5607FC1
S214014290FAD10B4BD3F88000C0F3011003E0084BB2
S2140142A0186FC0F3033001307047054BD3F8900008
S2140142B0C0F30460F7E7024B186FC0F38020F2E703
S2140142C0008000504FF400320E4B014610B500201E
S2140142D09A66FFF7CDFF484341F671320A490B4B08
S2140142E0884294BF00200120DC69DA639A6822F4D0
S2140142F0401242EA00529A60E20344BF0022DA63A7
S21401430010BD00BF00900050005A6202000003502A
S214014310420910B50FD0012A0FD00A4B0A4C022AC7
S21401432018BF234600F01F0049B103F58053012250
S21401433082401A6010BD1346F4E7044BF2E703F51A
S2140143400053F4E76880005060820050648000509B
S21401435008B580201CF09CFC034B98429EBF4FF48E
S2140143608032024B1A6708BD005A620200A0005054
S2140143701FB50023B0F5807F019377D028D8382861
S21401438000F094800BD82438092810D809280ED8B4
S214014390DFE800F0676767670D0D620D377D52280D
S2140143A05FD008D83D283BD03E2800F08480019895
S2140143B005B05DF804FB8028F9D1414B1B6F03F073
S2140143C00703013B032BF2D8DFE803F044413F6CBF
S2140143D0B0F5D06F5BD019D8B0F5A06F66D00AD80B
S2140143E0B0F5806F3DD0B0F5906FE0D1002001A907
S2140143F0FFF742FEDBE7B0F5B06F2DD0B0F5C06F2A
S214014400D5D1002001A9FFF76BFED0E7B0F5006F0C
S214014410ECD00AD8B0F5E06F4DD0B0F5F06FC6D14C
S214014420002001A9FFF7D0FEC1E7B0F5086FBED1A5
S214014430234BD3F8003103F00303022B2CD0032BBC
S2140144402ED0012B30D1FFF777F9032300E00523A7
S2140144500193ACE70223FBE7002001A9FFF7EAFD81
S214014460A5E7002001A9FFF7C1FDA0E702934FF0E1
S214014470E0231B695B0705D5FFF748F90C23039377
S214014480039BE5E703A902A8FFF72AFEF8E7002049
S21401449001A9FFF749FE8AE7FFF768F90823D7E77E
S2140144A01CF0CFFA0723D3E70123D1E7002001A9A7
S2140144B0FFF7AEFE7BE7002001A9FFF761FE76E776
S2140144C0008000504FF40022034B5A66012203F588
S2140144D080439A62704700BF0090005008B5FFF70E
S2140144E047FF082811D00938012802D94FF6FF7076
S2140144F008BD4FF40012064B5A6603F5D8335B6AC3
S214014500DB07F3D54FF4FA70F2E7024B1888EFE7B2
S21401451000900050040D0020F8B504468020FFF7F7
S21401452027FF032800F087804FF40022424B022128
S2140145305A6645F60E03414AC2F88030404B9962EE
S214014540012103F580539962936DD903FCD4D4E914
S21401455000131B0543EA0163E17B94F820500B43EB
S214014560217BE77E43EA0143617B6D0143EA013328
S214014570A17B43EA811313619169D4E904031B0605
S21401458043EA806301F000410B43A17E94F82300C7
S2140145900B43217E43EA0143617E43EA0123936193
S2140145A0136AE66923F00D0394F8221043EA8703A1
S2140145B0002E2DD11362966A94F8213045EA031332
S2140145C026F033052B4343F0010393621D4D1B4B2D
S2140145D09A6D35EA0202FBD10222194DAA621A65CA
S2140145E09A6D5200FCD41A69A56822F4700242EA58
S2140145F005521A614FF00042114B9A6119B9022215
S21401460003F580539A6278B901220F4B9A620BE048
S214014610334343F008031362936A23F033030343DF
S2140146202B4343EA4103936294F824301BB1034BB6
S214014630064AC3F88020F8BD0090005000C0005024
S21401464000D000500300014000E00050F1A7FFFF3A
S2140146501E4BFF2870B59E6A35D89A6D12F4803FBE
S21401466018BF01211A4A18BF9162022191629B6DFF
S214014670DC0303D5154A936D9907FCD50222144B2A
S214014680124D1A65AC6D14F08044FBD1114AAB692A
S21401469092F9002023F47F03024423F47F4382F33C
S2140146A0080243EA002343EA0243AB613146022093
S2140146B0FFF7CCFDAB6DDB0303D531460120FFF7D9
S2140146C0C5FD204670BD2124FBE700BF00C0005099
S2140146D000D00050252C0020014B93F900007047B4
S2140146E0252C002001221548154B816A9A62826D9D
S2140146F002F00302032AFAD102229A621A650F4ACD
S214014700936D5B00FCD40F48936D30EA0303FBD135
S21401471001220B4B1A65A3F580539A6D9007FCD4C2
S2140147209A6D9207FCD50222054B1A65034A936DD2
S2140147309B07FCD50320FFF789BD00BF00C00050D2
S21401474000D0005003000100014B1880704700BFE5
S214014750020D00204FF4001208B5184B5A660223CA
S214014760174A5360936813F48033FBD1012822D192
S214014770FEF7E2FF134B984215D003F5122303F51B
S214014780F863984213D0104B00EB8002400AB3FB4B
S214014790F0F3520A0A49CA620B6301234B620022F4
S2140147A0074B5A6008BD45F67A13084AF2E745F604
S2140147B01A03074AEEE75362F1E700BF0090005084
S2140147C00040025000F0490264666666D8B80500EB
S2140147D0BBCF0500B0F5207F10B50C4642D008D8F7
S2140147E0B0F5007F33D003D888B1B0F5C07F0ED0C6
S2140147F010BDB0F5607FFBD11F4A4C1ED2F8803049
S21401480023F0300343EA0413C2F88030F0E71CF0CB
S21401481037FA1CF001FB4FF48031184B164A196722
S214014820136F013C23F4704343EA04331367FEF726
S2140148306DFF0446FFF7CEFBC0F1020120461CF0D7
S214014840E5FA00F02DF8BDE81040FFF781BD0A4AF1
S2140148504C1ED2F8903023F0F85343EA0463C2F8B2
S2140148609030C5E7044A4C1E136F23F4806343EA75
S21401487084231367BCE700BF0080005000900050FF
S21401488008B50121022000F0F5F81CF0F9F91CF03A
S214014890C3FA4FF48032014B1A6708BD00900050EE
S2140148A008B54FF4C0701CF0F3F9BDE808400449A0
S2140148B0884294BF012102214FF42070FFF78ABF7E
S2140148C080F0FA02034B5868C0F30800003818BF9E
S2140148D00120704700ED00E0054B420953F82230F5
S2140148E000F01F0023FA00F0C04300F001007047FB
S2140148F000E100E010B5224B70B94FF40031214AB7
S2140149001860516602F598325268012A03D11E4A90
S214014910D2F800211A6010BD1B68002BFBD01B4A81
S2140149205268012AF7D0184A8020C2F80031FFF7F2
S2140149301FFD05281FD14FF4C070FFF799FC012811
S214014940044604D102214FF4C070FFF743FF07224B
S2140149500F4B1A610122A3F580535A600B4A136963
S214014960DB07FCD5012CD6D12146BDE810404FF41B
S214014970C070FFF72FBF0122064B5A60CBE700BF7E
S214014980D81D0020009000500080005000C001504B
S21401499000E0015000D00150044A4178536F23F4DF
S2140149A0407343EA01235367704700BF004000503D
S2140149B010B5044610B10020FFF79CFF104A13699A
S2140149C043F00403136103F04FFA1CF04FFA0D4B4A
S2140149D00D4AC3F820241CF039FA27F0DDFC1CF040
S2140149E039FA1CF044FA03F067FA1CB9BDE8104026
S2140149F0FEF78CBE0120BDE81040FFF77BBF00BF6D
S214014A0000ED00E000E003500000FF0F10B5044683
S214014A1010B10020FFF76EFF0E4A136943F004033E
S214014A2013610D4B0D4AC3F8202403F01DFA1CF048
S214014A300DFA27F0B1FC1CF00DFA03F03DFA1CB993
S214014A40BDE81040FEF762BE0120BDE81040FFF74A
S214014A5051BF00BF00ED00E000E003500000FF0F73
S214014A60034A0179D36E23F030030B43D3667047B4
S214014A7000400050F8B504461C4BD3F88420D106FC
S214014A80FBD4D3F88430C3F381139C422CD0FEF7B9
S214014A9023FE012C064602D121461CF0B7F91CF074
S214014AA0D5F94FF00072124B07465A6620461CF0A5
S214014AB0E5F94FF480630D4D621E93402B676B6ED4
S214014AC09A0103D4D5F884309B060AD538461CF0E3
S214014AD0C1F9022C08D13046BDE8F84000211CF08F
S214014AE095B9D5F88430EAE7F8BD00BF004000501C
S214014AF00060005010B50C4608B9FEF7EDFD074BF7
S214014B0021461B783BB1064B984204D80120BDE8EC
S214014B101040FFF7AFBF0220F9E700BF262C0020A8
S214014B20005A62020278034B012100201A70FFF737
S214014B30E1BF00BF262C00204FF0004238B5264BBF
S214014B4026495A6601224A604AF6CD3103F50B23FF
S214014B505D6C1964154030BB9968C9070BD40024F5
S214014B6001221F4B5A6015B11E4B1F4A1A6425F0CD
S214014B702BFD204638BD1A498A601C4AD96ACC07E3
S214014B8005D4904201D10724EAE70130F6E79042C6
S214014B90E5D1F8E70132DC6A14F0080406D08A424F
S214014BA0F8D10724DFE700221049F4E78A42F8D05B
S214014BB020220B4B0B495A620122A3F580539A60BF
S214014BC023460A4A486A800603D49342E9D0013351
S214014BD0F8E79342C7D1E4E700900050005009502F
S214014BE000600950004009503254FFFF40420F0058
S214014BF04FF0004238B5174B174C5A66012203F5A1
S214014C000C235A604AF6CD33656C2364437893408F
S214014C101343124AD363C3788178A2689B0043EAA0
S214014C20011322F074021343A3600279837943EAE5
S214014C30022323614279C37943EA02236361007840
S214014C40FFF77AFFEB0744BF054B236425F0BCFC56
S214014C50012038BD0090005000400950004000502F
S214014C603254FFFF10B504461CF00DF9002341F243
S214014C7002020849E360A360226104F50052E36181
S214014C806361A36123626362E362A3645164A36206
S214014C9010BD00BF7F370C0138B50446154639B93B
S214014CA01848844214BF084638201BF0F1FF01461D
S214014CB06368A36803F0E003402B1AD003D8D3B18E
S214014CC0202B1AD038BD602B19D0802BFAD10123A6
S214014CD06B434901B1FBF3F10B4A2039204602EA46
S214014CE0C10201211CF0CBF8A262BDE838401CF0DD
S214014CF0C6B80623ECE71023EAE70823E8E704230F
S214014D00E6E700BF0000035AF8FF7F00F8B54368E6
S214014D1004460D4616461BB140F2FF711CF0AFF873
S214014D202046FFF79FFFE9896B7B22690B43298A9F
S214014D3022F44C520B4322F0030213432361A26870
S214014D402B7B297E22F0804222F0E2020B431343A2
S214014D506A69AF681343A3601FB9A36843F00043B1
S214014D60A360EB69002B57D0987A1A7A4004A168A1
S214014D7040EA82503E4A0A4010439A8802F4C042F2
S214014D8010435A7840EA82005A7B40EAC2009A7B76
S214014D9040EA02109A7840EA8220A060E168D3E9EE
S214014DA0042021F4D81121F4C06102430A43997901
S214014DB042EA8122D97942EA4122E2601A78012A3E
S214014DC005D1E26842F00402E2602A4A06E0032ABC
S214014DD03DD1E26842F00402E260274A0121C2F8AE
S214014DE0C0105A7A04F580510A621AB1E26842F498
S214014DF00062E260DA7A4AB1E268204942F400428F
S214014E00E2601A7B02F00F02C1F88020E269DB7BC8
S214014E1022F003021343E36136B196F8203004F51D
S214014E208051C3B101238B61052120461CF048F84F
S214014E301FB13A466968FFF72FFF204629781CF014
S214014E405CF8236CDB4313F4405FFAD1F8BD023AF9
S214014E50012AC2D9B9E7626996F8223096F821008C
S214014E6022F009020343134343F001034B61DBE7DE
S214014E70E39BBDFF00E4035000D4035000900350B1
S214014E80072A2DE9F041154698464FF0030401F034
S214014E9003072DD89600B44000FA06F221461C48B6
S214014EA01CF03AF821461B4807FA06F21CF034F8C3
S214014EB0194B1A499DF81800B8F1000F18BF19468A
S214014EC0012303FA05F50D60154B1649002818BF96
S214014ED00B461D60144B9DF81C00C3F8205410317E
S214014EE003F22443002818BF0B461D60BDE8F0817D
S214014EF0A2F10806B600B44000FA06F221460B48B5
S214014F001CF00AF821460A4807FA06F2CEE700BF67
S214014F1000C4035008C4035010D4035010E40350D7
S214014F2014E4035014D4035000E0035004C40350A7
S214014F300CC40350F8B504460D461F4616464AB142
S214014F4001238B403021184A01FB0022F7B141F2C0
S214014F501001535004EB4403072D4FF00F014FEAA5
S214014F60031316D8A80006FA00F281400F48184429
S214014F701BF0D2FF4EB9012330210B4AAB4001FB97
S214014F80042277B141F210015350F8BD42F21001EC
S214014F90DFE7A5F10800800006FA00F28140044828
S214014FA0E5E742F21001EFE700C0035004C00350EA
S214014FB00CC0035010B50C4B0C4C0D4A0140C4F804
S214014FC03004C3F83014C3F82C04D36E03F0300356
S214014FD0202B1FBFD36E23F0300343F01003D3669C
S214014FE0C4F8200410BD00BF00D0035000E00350F9
S214014FF00040005038B514461D46032283F00103D5
S214015000FFF798FF012004F11001884005FA01F12D
S214015010FFF7D0FF9DF81010034B044A002918BF74
S2140150201346186038BD00BF24E4035024D403504F
S2140150304FF400120B4B10B5C3F88020BFF34F8F0F
S214015040BFF36F8F0024FF22074B21465C652020AB
S2140150509A625C60FFF75CF92146BDE810402120AA
S214015060FFF756B900E100E000000450044A054B82
S214015070002908BF1346012282401A60704700BF0C
S214015080401004504020045010B501210446202051
S214015090FFF73EF901212120FFF73AF90122114BD2
S2140150A05A60227812069A606178A27842EA014232
S2140150B09A61FF229A6200229A631A644FF00042B4
S2140150C05A654FF0FF324FF4001103F500531A658D
S2140150D0054AC2F88011E3781B01DBB282F815336A
S2140150E0116010BD0000045000E100E0F8B5012594
S2140150F0C3B2DFF888C0D1F800E09D408F7ACB7A42
S2140151000C46097BCCF850500CF5005C4CF820E0BE
S2140151104FF0300E174E1B050EFB006094F80DC0C5
S21401512043EA074343EA415322F00302C0F860C052
S214015130C36502671BF091FE736D227A2B4373657C
S2140151400D4B02B11D64627A02B19D632279A37987
S21401515043EA0243094A93616179E37943EA0143E9
S21401516005498B61034B55639D64BDE8F8401BF010
S2140151707ABE00BF00000450001004500020045006
S21401518010B50124C0B284401BF067FE044B5A6D73
S21401519022EA04025A659C62BDE810401BF063BE19
S2140151A00000045010B50124C0B284401BF055FE27
S2140151B0074BDA6A224208D15B6B9C430CBF012481
S2140151C000241BF050FE204610BD0024F9E700BF66
S2140151D0000004504FF40032054B9A6641F67132D6
S2140151E003F51C33DA63012203F50053DA607047D6
S2140151F00090005041F671320121064BDA6303F547
S2140152000052D1600022DA634FF40032A3F518335E
S2140152109A66704700000350CB784A7810B55B0158
S2140152200C7843EA82030A79234343EA02130C22E9
S214015230424302F1B0421363012C02BF8A78024B4B
S21401524043F8202010BD00BFE880035008B54FF09A
S214015250B0435A686AB958B15B680BB11BF06BFE74
S21401526001210D4B59601BF066FE4FF0B043D9602B
S21401527008BD5B680BB11BF05EFE0028F0D11BF089
S2140152805AFE4FF0B0430222DA601BF054FE0122B0
S214015290024B5A60ECE700BF00100058002000588F
S2140152A04FF0B0414B6810B50BB11BF044FE012224
S2140152B00B4BC4785A608378934043EA840344785E
S2140152C02343047943EA0413447943EAC4038B6015
S2140152D0044B5A600378C3F10203CB6010BD00BFD4
S2140152E000200058001000584FF48032064B5A66D2
S2140152F003F5E6235B69C3F38512827003F03F0270
S2140153001B0B42700370704700900050014B986C65
S214015310D96C70470080E00F024B1868C0F3074055
S214015320704700BF0080E00F0120034B9B680A33E3
S21401533003F01F03984070470080E00F38B504461D
S214015340054D25F065F90FCC0FC594E8030085E8F7
S2140153500300002038BD00BFDC1D002047F6FF73A8
S2140153609A42F0B56FD002296FD8394B5B5C012B9E
S2140153706BD8384DDF0005EBC30415F83330A17840
S214015380012B13D10025E078401AA84202D8084420
S214015390C0B2F0BD431B6668A0EB530336F9136039
S2140153A09642D4BF1D4603F1FF30EEE76068002841
S2140153B0EFD0B0F90040944204DBB0F902409442C9
S2140153C0B8BF144683883D44FF2B19BFC8224FF04F
S2140153D0280CB0F90620B0F908C0A2EB04030CBFF4
S2140153E00126002693FBFCF333446E781BB29E42E3
S2140153F001DD002B01DA731E1BB24FF47A7C0133F8
S2140154009BB2071D5D1E2DB24FEAC50E00EBC5050A
S214015410EA88AD689E4214FB025222EAE27202F169
S2140154205C02B2FBFCF204DD37F8335001339542DF
S214015430E8D200EB0E039888904228BF10468842B7
S21401544038BF0846A4E7FF20A3E70020A1E700BF76
S2140154503DCA0300DC1D00200229F0B555D82C4BAF
S214015460585C012851D82B4C04EBC00114F83000CD
S2140154704B6801280FD1C8788C78904294BFC4EB52
S2140154800001C4EB0201001BCAB28242C8BF00225F
S21401549033F91200F0BD002B37D08878904202D342
S2140154A0B3F90200F6E7CC78B3F900009442F1D9DB
S2140154B04C789988013CA1F1FF06714203F104057D
S2140154C0E4B2714103F10C07CEB2B44216D805EB33
S2140154D0C1014FF47A756A43B1F902404968521A1C
S2140154E004EBD47102EB610292FBF4F29042D1DB41
S2140154F0B3F902009042CDDC10B2CBE737F831C0E9
S2140155004E1C9445E3D33146DEE70348C2E700BFAD
S2140155103DCA0300DC1D00200080FFFF08B50448DB
S214015520FFF70CFFBDE80840012025F075B800BF65
S21401553040CA030000487047060D00207FB51422BC
S214015540002101A825F009FD044B01A94FF0FF3009
S214015550029325F096F807B05DF804FB006A180080
S2140155601B0603F0706300F00F000902034301F409
S2140155707061120402F470220B431343014A136054
S214015580704700BF0020025C60B5054619B10139BD
S214015590B1F5806F0FD2094EF06810F48030FBD160
S2140155A043EA012312072B4302F08052134343F0D0
S2140155B00043736060BD0120FCE700BF0020025C71
S2140155C00122054B9A60DA68D203FCD4D86820F031
S2140155D00F000004000C70470020025C014B1868A5
S2140155E0704700BF0040025C014B5868704700BF1F
S2140155F00010025C014B186B704700BF0010025C84
S214015600014B1868704700BF0010025C014B9860A0
S214015610704700BF0010025C014B1864704700BF62
S2140156200010025C014B5864704700BF0010025C1A
S214015630014B5863704700BF0010025C0022014B0B
S2140156401A6070470010025C024A136843F00103B7
S214015650136070470010025C024A136823F00103CE
S214015660136070470010025C43F20402014B1A609B
S214015670704700BF0010025C024A136843F0300313
S214015680136070470010025C044B1A6842F4807283
S2140156901A601A6822F480721A6070470010025C61
S2140156A0024A136843F48063136070470010025C7B
S2140156B0034A136823F4702343EA004313607047D8
S2140156C00010025C044B1A6902605A6942609A69CA
S2140156D08260DB69C36070470010025C0268044B9D
S2140156E01A6142685A6182689A61C268DA617047D3
S2140156F00010025C024B1A6BD207FCD4186270478A
S2140157000010025C0322024B186019615A6370474D
S2140157100000025C82B01FB507930A9B04AC8B4263
S21401572028BF0B4604E907001048D100079948BF77
S21401573003330160099948BF23F0030323F0704344
S21401574001F0E041194341F000518160002102F06F
S214015750E042019C1A4342F00052C160046182613A
S214015760416304B0BDE8104002B070470000025C1F
S2140157703F22034B1A631022DA6103229A637047B1
S2140157800000025C024AD36B9B07FCD4704700BF43
S2140157900000025C044B9B6A13F0240F14BF012027
S2140157A000208000704700BF0000025C08B5FFF7CC
S2140157B0F1FF064BDB6B23F47F4323F0EF03034338
S2140157C01EBF0122024BC3F8FC2F08BD0000025C7D
S2140157D000F0FF3F4368182B0AD0202B1DD0102B5A
S2140157E02BD1174BD3F80434DB010AD401207047C0
S2140157F0134BD3F804349A01F8D50B6843F0080329
S2140158000B6003680F4A934210D10B6843F04003C4
S2140158100B600023436000207047094BD3F8043423
S2140158205B01E3D50B6843F00403E9E7064A9342BC
S214015830F1D10B6843F08003EAE70720704700BF09
S2140158400000025C282C0020272C00200B4607B500
S2140158500749D1F80414C90708D500210092024669
S214015860084600F05BF803B05DF804FB0120FAE798
S2140158700000025C1346064AD2F80424D20504D579
S2140158800A46014600201BF060BD0120704700BF9C
S2140158900000025C13B5084CD4F80444E40508D5AE
S2140158A0009313460A460146002000F061F802B054
S2140158B010BD0120FBE700BF0000025C13B5084CD9
S2140158C0D4F80444E40508D5009313460A46014675
S2140158D0002000F071F802B010BD0120FBE700BF08
S2140158E00000025C70B504460D4616468CB00A4AA6
S2140158F009AB07CA83E807001A462146CDE90563C6
S214015900CDE90333CDE9013300954FF480301BF028
S21401591048FC0CB070BD00BFC4CA0300F0B51C46FD
S2140159205B6815468DB01A07129E1AD1CBB1726804
S214015930934216D10C4B0D4A53F8217009AB07CA96
S21401594083E807001A462946CDE90533CDE9033336
S214015950CDE90163009447F480701BF022FC0DB082
S214015960F0BD0720FBE700BFD0CA0300C4CA03008E
S214015970F0B516465A688DB0102A0D46129F15D1FD
S2140159807A68102A12D10A4A09AC07CA84E80700C5
S21401599022462946CDE90547CDE90344CDE9014430
S2140159A0044800961BF0FDFB0DB0F0BD0720FBE799
S2140159B0C4CA030030000100F0B516465A688DB01F
S2140159C0102A0D46129F15D17A68102A12D10A4A5A
S2140159D009AC07CA84E8070022462946CDE90574C2
S2140159E0CDE90344CDE90144044800961BF0D9FBF8
S2140159F00DB0F0BD0720FBE7C4CA0300100001008C
S214015A0082B070B586B0149D03AE202D86E80700DF
S214015A100B9359D805EB85038B4203D006236B43C2
S214015A208B4253D10C9BAB4250D10F9BB3EB450F2E
S214015A304CD1129A934249D1012229462220159B24
S214015A40FFF7A2FD044630BB034606220E210C20BA
S214015A50FFF786FD0123CDE900332B4696E80700C4
S214015A601BF032FB0E230BAA009307CA2B461BF032
S214015A7076FA0C23164C00930EAA2B4607CA1BF087
S214015A809EFA636823F07F0343F026036360FFF703
S214015A9097FD30B10624204606B0BDE8704002B03E
S214015AA07047636823F07F0343F022036360FFF7C8
S214015AB087FD04460028EDD1062311AA009307CAE4
S214015AC02B461BF0AFFAE6E70124E4E70724E2E7FA
S214015AD00020025C70B598B0002843D02C4C08AD6D
S214015AE00FCC0FC50FCC0FC50FCC0FC594E80F0018
S214015AF085E80F006D4604AE04F1100320340FCB89
S214015B0085E80F0094E80F0086E80F00FFF7BCFD5C
S214015B100420FFF7CDFDFFF7A7FD3046FFF7DEFDBA
S214015B20002408AE56F8040B0134FFF7E3FD102CF1
S214015B30F8D1FFF759FD0328FBD90024FFF77EFDB6
S214015B402646FFF74BFD55F8043B01365840042E18
S214015B5044EA0004F5D12CB1012206200D4B1A703F
S214015B6018B070BDFFF790FD0820FFF74FFD00202D
S214015B70FFF752FD0720FFF755FD4FF40070FFF7C2
S214015B8057FD0820FFF794FDFFF75EFD0020E7E7CD
S214015B90ACCB03002A2C002008B5FFF775FD0122C7
S214015BA0014B1A7008BD00BF292C00201FB51BF041
S214015BB04BFD044630B1012206240D4B1A702046D7
S214015BC004B010BDFFF70AFD0090FFF707FD019036
S214015BD0FFF704FD0290FFF701FD03906846FFF70B
S214015BE07DFDFFF7D9FFFFF747FDFFF759FDE6E714
S214015BF02A2C002006289ABF014B185C002070470B
S214015C000CCC030030B5154B87B00293144B0390B0
S214015C10049346F611030D46059300F077F9142810
S214015C20044616D168461BF0B9FD4FF0A84303227F
S214015C3002A95A6319601D619A63DA6B9207FCD157
S214015C40142C02D168461BF0B7FD00F093F9044608
S214015C5001E00028E9D0204607B030BDF41D002041
S214015C60040000202DE9F04FB1B005468C469E4653
S214015C70E8466F4EDDF8EC90409C06F1100A474668
S214015C8030687168083603C75645B846F7D13E9B5B
S214015C9003EB0208C8F1000A0AF00F0AB9F1000F77
S214015CA000F09D80C9F1000707F00F070121DDF81C
S214015CB0FCB044F00050C4F11006CDF810B00591C8
S214015CC00690300200F4F85040F021000790B9F138
S214015CD0000F40F08680CDF820D047F00050002D10
S214015CE000F08480099121210A9041EA07210B9155
S214015CF042F00050CDF830C03D9B08A94FEA0A2C6F
S214015D000D910E904CF041000F901093002A75D122
S214015D103E9B119143F0005312933C9B13901493B6
S214015D2010AB1593434B444A169340F61103179351
S214015D30424B0021002D08BF1346189314AB19934C
S214015D403F4B10221A9311231B931CAB184625F0C8
S214015D5004F901221D92002246F0804603461E9653
S214015D60239205B9EB46102CCDF880B024AE4BD16A
S214015D7001232246002130462193229425F0EDF896
S214015D8020AB002125938F4218BF334647F080424F
S214015D9026923A9A2CA828922993B2FA82F35B09A2
S214015DA049EA837310222B912A9325F0D6F8B9F18C
S214015DB0000F00D028AED04448F080432CA918A884
S214015DC02D962E93FFF71EFF30B92DB90346A34239
S214015DD025D1002818BF2C2031B0BDE8F08F102740
S214015DE064E7CDF820E049F0005078E7002C3FF456
S214015DF079AF04A9099101210A9076E73E9B0CAA86
S214015E0011924120129388E71022002130462193F7
S214015E10229425F0A2F8002CB2D10123B1E703F1B8
S214015E20C0026A4412F8C02C01331043CFE700BF0A
S214015E3013CC03001000002028CC03002CCC030058
S214015E4004000020F0B5C0299FB0DDE9244557D0F5
S214015E50B1F5807F04D0802948D029201FB0F0BD3D
S214015E6001265CB140F23447029410240396049450
S214015E70212401970594069502AC0AE040F21447E6
S214015E800294102403960494212405940124019776
S214015E900695079401251024089409950A92212253
S214015EA00B950C940D92174A0AAD0E92164A0F9551
S214015EB0109242F6110211921293139514941592B0
S214015EC001AA1692D3B112AB179304231893112388
S214015ED0199316AB1A901B9340F61103C9081C912F
S214015EE01AA806A91D93FFF78DFEB7E7012614B978
S214015EF04FF48267C4E74FF48667B5E70EABE3E776
S214015F000F20ABE724CC03001000001038B5164B69
S214015F105A6E42F004025A66D3F8802242F0010219
S214015F20C3F88022114B5B68C3F3080343B14FF0FB
S214015F30A842D36B13F0430FFBD11424204638BD7F
S214015F404FF0A843DC6B14F04304FBD1084D2B68DB
S214015F501BB90421284602F09DFE2B68013343F04D
S214015F6000432B60EAE700BF0080005000ED00E030
S214015F70F41D0020014B00205B68704700ED00E037
S214015F804FF40052034B00209A660322C3F86022A6
S214015F90704700BF009000504FF40052034B0020A2
S214015FA09A660322C3F86022704700BF00A0005023
S214015FB0012300F01F02A0F506200949A0F5506054
S214015FC04009934051F820201A4341F82020054902
S214015FD051F8202022EA030241F82020704700BF32
S214015FE00C1E0020F81D00200121A0F506230E4AF4
S214015FF0A3F550635B0900F01F00814052F82300AF
S214016000014342F823100949D1E900300344886866
S2140160100344C868096903445B1802BFC2E9003338
S214016020C2E9023313617047F81D00200C1E0020E0
S2140160302DE9F04FA9B003921D4604460822339E6F
S214016040CDE90401414021FA02F34B40980702F1E1
S214016050080218BF9B00202A1C44F4D18123B4FBFC
S214016060F3F303EBC313E41A734B04F506241B780E
S21401607004F55064002B3ED1FDF754FF074620B1CE
S2140160806FF0910029B0BDE8F08F0146402208A8C4
S21401609024F063FF4022394618A824F05EFFDFF89B
S2140160A0B481DFF8B491C3460BF10F0ACDF800A016
S2140160B0102208A95B46D9F8000024F038F800221F
S2140160C0014608F1100808AF914246D1CDF800A06C
S2140160D05B461022D9F8000018A924F031F84FF0D9
S2140160E0000A834618AFD34541D1544B9845DAD1BF
S2140160F00122514B1A704FF0810A4FF00008DFF869
S2140161005CB1A4F50627A7F550635B095BF823206D
S21401611004F01F01CA40D2073DD4494A52F8233041
S214016120CB40DB072AD5B8F1000F08BFA046812374
S214016130A7F6FF47B7FBF3F303EBC313FF1A07F505
S2140161400624BAF1010A04F55064DAD1039BBBB107
S214016150B8F1000F14D0444619E057F8040BCDE906
S2140161600612FFF725FF079A06990132ACE757F8A2
S214016170040BFFF739FF0AF1010AB4E7039B13B9D1
S2140161806FF08B007EE7B8F1000F18BF4446349BD2
S21401619000201C6076E7329B13B10023329A13600D
S2140161A00EB1002333601023DFF8AC9000932A462B
S2140161B000232146D9F8000011F09AFA60BB329903
S2140161C02A68204BC9B99A4206D02146D9F8000060
S2140161D011F026FB0028D3D1D5E90223DDE904100E
S2140161E0834208BF8A42A2D1039B002BCFD06B68A3
S2140161F0012BCCD16FF0840044E7102032999A42EB
S2140162000860E2D1002EE7D033462146D9F80000D7
S21401621018AA11F0C1FA48B10B4B9842D5D00B4BD6
S2140162209842D2D00A4B9842D6D029E7329A3368A0
S21401623012689B1A3360CFE72B2C002000710800F0
S214016240F81D0020105D175EFFDF00F011E000F082
S214016250FEDF00F0006D0800100B00200C1E002071
S2140162602DE9F04F87B08246894698461646DDF8F6
S21401627040B02AB1002B4FD040F26C739A424ED8F0
S214016280BBF1010F4ED8002406F110073946012054
S21401629005941BF0B2FD0546002846D021463A4635
S2140162A024F05BFE05ABCDE9014300942B460122A9
S2140162B050464946FFF7BCFE044680B110F18C0FEC
S2140162C008BF6FF08D043A460021284624F045FEAB
S2140162D028461BF0A2FD204607B0BDE8F08F144B00
S2140162E0C5E902A92B60C5F804B02EB13246414675
S2140162F005F1100024F03CFE059E0E483B462A465A
S2140163003146006811F05CF918B93046FFF750FEC7
S214016310D9E76FF09104D6E76FF08604DBE76FF0FC
S2140163209104D8E76FF08504D5E76FF08C04D2E7C7
S214016330105D175E100B00202DE9F0438DB08146ED
S214016340DDE914780E4615461C469BB1B8F1000FE0
S21401635005D16FF0860630460DB0BDE8F083002FFC
S214016360F7D0B7F1005FF4D3C3F1005303F5004350
S2140163709F42EED81022002108A824F0EEFD00224C
S21401638007AB029305AB019306AB31460093484633
S21401639008ABCDE90522FFF74BFE06460028DAD109
S2140163A0059BA4B1AB4215D853EA0504D1D1069B8F
S2140163B00B48C8F8004000943A46079900682B44F9
S2140163C011F096F9002818BF6FF09106C3E7AB42AB
S2140163D0EDD2BEE75B1B9C4228BF1C46E7E700BF29
S2140163E0100B002030B58DB00C460546102200215A
S2140163F008A824F0B2FD002207AB029305AB019377
S21401640006AB21460093284608ABCDE90522FFF7E7
S2140164100FFE0446D8B9099B012B1BD0079D104BD4
S2140164202946186811F0FCF9B8B90122A5F506232A
S2140164300C49A3F550635B0905F01F00824051F833
S21401644023004240284641F82320FFF7CDFD204691
S2140164500DB030BD6FF08404F9E76FF09104F6E7F4
S214016460100B00200C1E00202DE9F04F89B00746C6
S2140164700E46FFF7C5F8C00709D4042401201BF017
S214016480F0F880B3013CF9D16FF0920028E01022B9
S21401649000210DEB020024F060FD04A8FFF712F9BD
S2140164A0049B002BE9D0059B002BE6D0069B002B16
S2140164B0E3D0079B002BE0D00025DFF8808008F1B1
S2140164C00409B54219D34FF48A74FFF793F800F024
S2140164D00E03062B2DD1C30501D5FFF7BDF800200D
S2140164E009B0BDE8F08FFFF785F810F00E03FAD07B
S2140164F0022BF8D04105DFD5C4E7FFF775F8A6EB08
S214016500050A8400544528BF544699E80300002331
S2140165108DE80300CDE9054307EB050BCDF810B078
S214016520029404AAD8F8003007CA1AF093FF25444B
S214016530C7E724FA03F3DA07A6D5C6E738CC030083
S2140165401FB504A800E90E0011460198FFF78CFF5D
S21401655070B1FFF721FBBFF34F8F0749074BCA689E
S21401656002F4E0621343CB60BFF34F8F00BFFDE739
S21401657005B05DF804FB00BF00ED00E00400FA057D
S2140165802DE9F0438BB01746DDE91545DDE9132605
S2140165909C46DDE91738894621B96FF086000BB0B5
S2140165A0BDE8F083002FF8D00EB9002CF5D1129972
S2140165B009B9002AF1D10DB9002BEED1B8F1000FBF
S2140165C0EBD0244A944541D10288B2F5105F3DD103
S2140165D04288B7EBD20FE0D322F04001802902D0E7
S2140165E0B2F5807FD9D16CB3AE421CD23219954236
S2140165F019D29C42D1D831462246284624F093FC33
S2140166002E4614F00F03C8D1CDE90197CDE9033624
S214016610CDE90543CDE907540993FFF7B1FC38B13D
S2140166206FF09200BBE79C42EBD96FF08900B6E7AA
S21401663007AA04A901A8FFF709F90546FFF7ACFC6C
S2140166400543EDD10020C8F80040A8E76FF08500AB
S214016650A5E700BF004440042DE9F04FA9B08346EA
S21401666017469A460E46DDF8C890DDF8D88029B957
S2140166706FF08603184629B0BDE8F08F002AF7D0E0
S214016680B9F1000FF4D0349B002BF1D0B8F1000F14
S214016690EED00024424B0CAD93E8070085E80700D6
S2140166A03C22214619A8189424F057FC3388728896
S2140166B003F4E040B0F5804FDAD03A4E3A480BEAA0
S2140166C0060646F01066864263D1B2F5807F60D139
S2140166D047F2121293425CD10620344ABAF11F0FD8
S2140166E0D3680E940B931369126800FB03F3CDE98C
S2140166F00C23BDD9339B402BBAD9359B1F2B4BD9C5
S21401670009F1010220261292402299F800300F97D3
S214016710042B18AFCDE91324CDE915721096119408
S2140167201794A5D1FFF72CFC03460028A2D10B9B9A
S21401673015AACDE9086305AB07CA83E8070002ABD3
S21401674012AA07CA83E80700DDE910018DE80300F5
S2140167500F9B95E80700FFF753F90546FFF71CFC6A
S21401676055EA000384D13D46349A20AE2C4603CC2C
S214016770B44210605160254602F10802F6D10022AB
S2140167801146B9540132402AFBD12022C8F8002014
S21401679070E76FF085036DE76FF089036AE700BF66
S2140167A0C4CA03000000FFF600000209D8CA0300AD
S2140167B0F0B50E461D468BB0002853D0002951D0A7
S2140167C0002A4FD0002B4DD0048804F44F43B3F574
S2140167D0824F03D06FF085000BB0F0BDE3B224F01A
S2140167E0FF04B4F5E24FB0F802C0F3D1122B01D08A
S2140167F0172BEFD10CF10701B2EBD10F4FEAD107FE
S21401680033D31D4A04ACBCF5807F07CA84E8070071
S214016810E0D1122B07D1194B1A691B681344CDE935
S2140168200432002306930023CDE907670993FFF797
S214016830A7FB0028D0D1124A02AB92E8030083E8F6
S21401684003000AAB13E903008DE80300079B94E8F5
S21401685007001AF084FD0446FFF79EFB204307D18C
S2140168602F60B9E76FF08600B6E76FF08900B3E7EF
S2140168706FF09200B0E700BFC4CA0300D8CA030095
S21401688030CC03002DE9F0438FB01D46DDE916C676
S21401689000285CD000295AD0002A58D0002B56D0A8
S2140168A0BCF1000F53D0002E51D0038803F44F449F
S2140168B0B4F5824F51D1DCB223F0FF03B3F5824F1A
S2140168C040884AD0122C01D0172C46D1C31DB2EBFA
S2140168D0D30F4FEAD3083AD34FEA4802571C67450D
S2140168E038D8B0F5807F38D1122C18BF4FF0000988
S2140168F04FF0000308BF1C4CCDE9081805F1010153
S21401690014BF4C46D4F80C90CDE90B120A930D93A4
S214016910FFF736FBC0B9CDE9058902AB08AA07CA5D
S21401692083E807000EAB13E903008DE803000B9B19
S21401693094E807001AF032FD0446FFF72DFB2043CA
S2140169400ED104232B7037600FB0BDE8F0836FF0D3
S2140169508600F9E76FF08900F6E76FF08500F3E748
S2140169606FF09200F0E700BFD8CA03002DE9F043AC
S21401697089B00E4615461F46DDF8488020B96FF0EF
S214016980860009B0BDE8F0830029F8D0002AF6D0C9
S214016990B8F1000FF3D0038803F44F42B2F5824FEB
S2140169A002D06FF08500ECE7DAB2122A01D0172A7E
S2140169B0F7D123F0FF03B3F5E24F41D14488C8F87D
S2140169C0004044B9EB00B3F5807FC8F80030E8D149
S2140169D0122A0DD108E0E31DB5EBD30FCFD1B4F5E4
S2140169E0807FDED1122A29D1354B1C681B691C44D5
S2140169F00023194670192C4414F801CD10F8012D06
S214016A001143B2EB0C020CBF4FF0FF3C4FF0000CF1
S214016A1086420CEA030343EA0203EDD10029AED015
S214016A20002BACDA109B9D4246D82A4631463846A2
S214016A3024F09EFA119B00201D60A2E70024D7E7F0
S214016A403378042B9BD16B1EDB005B08B3F5807F8C
S214016A50C8F80030A5D1122A06F1010318BF4FF07D
S214016A6000094FF0400205934FF000030ABF144C93
S214016A704C46D4F80C90CDE90623FFF781FA00289E
S214016A807FF47FAFCDF80C90D8F800300733DB08E1
S214016A90029308AB13E903008DE80300059B94E815
S214016AA007001AF028FD0446FFF776FA00287FF45F
S214016AB068AF002CB6D062E76FF0890061E700BFCF
S214016AC0D8CA03000388B3F5105F0ED14388DB08EC
S214016AD0103B102B0CD8084A22FA03F313F0010FCF
S214016AE014BF00206FF0860070476FF08500704776
S214016AF06FF08600704700BF010101002DE9F04FDD
S214016B008FB01546DDE918A91E46DDF868801C9F82
S214016B1009B300B3B8F1000F1DD0E7B1BAF1000F09
S214016B2002D1B9F1000F16D1274B26F47E129A42F4
S214016B30B0F802B044D1FFF7C5FF0446A8BBB5EBD9
S214016B40DB0F4FEADB0306D316F47C1FC6F30545BD
S214016B5004D0102D03D96FF0860426E010251B9A69
S214016B6095422AD8CDE9011300231022CDE90593D9
S214016B700DF12809CDE9033ACDE90823CDF81C909B
S214016B80FFF7FEF9044680B907AA04A901A8FEF793
S214016B9071FE0646FFF700FA044656B958B92A466A
S214016BA04946404624F0E4F93D6020460FB0BDE872
S214016BB0F08F6FF092040025F6E76FF08904F4E792
S214016BC06FF08504F1E700BF0002C0032DE9F04134
S214016BD0069F0C461646054610B309B302B9FBB923
S214016BE06288B3EBD20F4FEAD20819D34C220021A8
S214016BF0284624F0B2F90D4B27F47E129A4212D1A0
S214016C002046FFF75FFF044638B942463146281D45
S214016C1024F0AEF9C5F824802F602046BDE8F08147
S214016C206FF08604F9E76FF08504F6E70002C0030B
S214016C302DE9F0410E4614460546002840D00029AD
S214016C403ED092B10368214823F47E1383423AD1A1
S214016C50AF6BF7B1C7F1100807F128004245284489
S214016C6006D2274424F084F9AF630020BDE8F08102
S214016C70424624F07DF91022103C3C19AA63F4D058
S214016C80284605F128011AF0DFFD0028EED146441A
S214016C90A863102C0CD9671E27F00F073A46314619
S214016CA028461AF0D1FD0028E0D1E41BDDD03E4491
S214016CB02246314605F1280024F05AF9AC63D4E7A0
S214016CC06FF08600D2E76FF08800CFE70002C003BE
S214016CD02DE9F04388461F4605468BB070B169B171
S214016CE063B10368234923F47E1088423ED113F42E
S214016CF07C1FC3F3054604D0102E03D96FF086041B
S214016D002AE0102696422BD8FFF73AF9044618BB1C
S214016D10AB6B05F12802CDE901236B6A2A1DCDE98B
S214016D2004231023CDE9083007AB1A4603900690DA
S214016D3005F13C0901A904A8CDF81C90FEF7BEFD9B
S214016D400546FFF729F904466DB928B93246494682
S214016D50404624F00DF93E6020460BB0BDE8F083B6
S214016D606FF08904F8E76FF09204F5E76FF0850499
S214016D70F2E700BF0002C00307B56B46054A10687C
S214016D80516803C36846FDF733FF002003B05DF882
S214016D9004FB00BF44CC030013B50024064A684632
S214016DA0536F43F00103536700948DF80440FDF7D9
S214016DB057FE204602B010BD0040005030B58BB0E3
S214016DC06C46174D0FCD0FC40FCD0FC495E80300C9
S214016DD084E80300134BD3F84C2112031CD5A3F50A
S214016DE0FE431C884FF6FF739C4208BF8C248DF827
S214016DF01940FDF771FC204480F308008DF8180057
S214016E000948FCF79FFC6846FDF786FB3220FDF734
S214016E109BFC00200BB030BDD3F85041E4B2E6E74E
S214016E204CCC03000080E00F00F049026FF0040331
S214016E30502110B50A480B4C13F0800F03F10102E4
S214016E4007D12344402A83F800131346F4D10020C7
S214016E5010BD03F00F03043B034419761346EBE71A
S214016E6000ED00E000E100E010B5044619F0EEFF89
S214016E70024B1C6019F0EEFF002010BD201E002002
S214016E8010B519F0E3FF034B1C6819F0E3FF204629
S214016E9010BD00BF201E002038B50446026C136CDE
S214016EA05906FCD50023E16C1A4694F84800FEF713
S214016EB041F80023616D1A4694F85000FEF73AF83F
S214016EC094F86830DA0706D50023E16D1A4694F87F
S214016ED05800FEF72FF894F868309B0706D5002374
S214016EE0616E1A4694F86000FEF724F80122206CC1
S214016EF0002100F500539A6404220A4D9A6419F0A1
S214016F00FCFF0021606CFDF703FA284604F16C01D2
S214016F1019F0A6FD2B6813B9034800F06BFD00209D
S214016F2038BD00BF241E0020281E0020012910B5F0
S214016F3005D8064B1C686C3C14F16C0F00D110BDD3
S214016F40206C052119F0D9FFE46EF4E7241E002019
S214016F502DE9F0438DB01C4606AB06468946184619
S214016F60904600211822149D23F0F7FF227903464C
S214016F700AB18DF818200127C8F81C30637930460D
S214016F80C3F10203DBB2CDE903336A4B4A460293EF
S214016F90694B29460193694B8DF81E700093684B27
S214016FA000F034FA0646002840F09E80A368394671
S214016FB06B64A3693A206B65237DDFF89C9185F8A5
S214016FC050302369EB64237B85F84830236AEB65F0
S214016FD0237F85F85830A36A6B6694F8243085F8C9
S214016FE0603023682B64FDF793F93B460422216940
S214016FF0207BFDF79FFF3B460222A169207DFDF71E
S21401700099FF88F8006085F868603946A068FDF742
S2140170107FF96379394633BB4FF4C060FDF778F9E1
S214017020D9F82032414623F0030343F002032068D7
S214017030C9F8203219F06EFF0222424B2169C3F8CB
S214017040C020227B42EA0142C3F8D020A169227DFA
S21401705042EA0142C3F8CC202379032B67D8DFE844
S21401706003F02E1947604FF48060FDF751F9D9F807
S2140170702032414623F0030343F00103C9F82032CE
S214017080206819F044FF95F8683043F0040385F84A
S2140170906830D1E7002795F8683043F0010385F89A
S2140170A0683002220023216A207FFDF743FF226A0F
S2140170B0237F43EA0243244AC2F8C430F7B90422C4
S2140170C02B6C052103F580539A64206819F015FF8F
S2140170D01E4B1B681BB91E491E4800F079FC1B4855
S2140170E005F16C0119F0B8FC30460DB0BDE8F0832F
S2140170F095F8683043F0020385F8683000230422CF
S214017100A16A94F82400FDF715FF01230E4AA16A2F
S214017110C2F8C03094F8243043EA0143C2F8C830BC
S214017120CDE795F86830012743F00303B7E7232638
S214017130DAE700BF996E0100211903005D1903000B
S2140171405119030000C4035000D40350241E00202C
S214017150140B0020281E002000800050034B022242
S214017160186800238068194617F0B2BC240C00206A
S21401717030B51446054687B010461AF07FFC6369A1
S214017180024683423CBFD4E903315B181B1A7BB12C
S2140171900F49049403910021CDE9013101230093A5
S2140171A02846D4E9001319F01CFD002007B030BDB5
S2140171B00122627694F82D20002AF6D084F8353024
S2140171C01321E369204698472046636A9847ECE70F
S2140171D0717101002DE9F04788B004460F46164646
S2140171E0984619F03AFE8146002E7AD0237E03F0A7
S2140171F0FF02002B00F0A28020461AF03FFC6569D2
S214017200A84205D1637ED4E9033213445D1B01E035
S214017210F9D9451BB54228BF354619F01EFE94F82C
S2140172202D308246002B6DD12A463846616923F0FF
S2140172309FFE63692E462B44636121E0037803F0C9
S214017240FD0111295BD1216B814205D1A3F1110109
S2140172504B424B4184F83430013E6369216B013265
S2140172608B4203F1010308BF2363636195426069A2
S214017270E4D1D4E90323216B1344994200D122635C
S2140172800025D4E9032361691344994208BF62616A
S214017290207A6576FCF79CFC20461AF0EFFB6369C2
S2140172A0834232D1257694F82D30E568656103B1C5
S2140172B025632046636A9847214B04940393002371
S2140172C0029323692A460193012300936368216888
S2140172D0207A19F086FC207AFCF79AFC504619F0C1
S2140172E0C2FD4846C8F8006019F0BDFDD8F8003068
S2140172F0002B0CBF1B20002008B0BDE8F08707F864
S214017300013BAAE72E460022B0E70123207A237626
S2140173100DF11E01FCF7E4FC9DF81E30002BDAD0BF
S2140173200DF11F01207AFCF7B3FC9DF81F10002910
S214017330D1D12246207AFFF71BFFCCE71646D0E7CD
S21401734071710100002807DB01234109034A00F09F
S2140173501F00834042F82130704700BF00E100E083
S214017360002808DB01224309034900F01F00824080
S214017370603341F82320704700E100E070B5044611
S2140173800568FFF77DFD844202D10020FFF76CFD02
S21401739095F936603046FFF7E3FF002E0CDB01223D
S2140173A01949730906F01F06B240203341F823201D
S2140173B0BFF34F8FBFF36F8F95F937603046FFF7F6
S2140173C0CFFF002E0CDB01220F49730906F01F06C2
S2140173D0B240203341F82320BFF34F8FBFF36F8FA6
S2140173E0287AFCF735FC287AFCF798FBFCF774FB47
S2140173F000232846C4E90033C4E90433A360AB6A1A
S214017400BDE87040184700BF00E100E02DE9F043F9
S2140174100C461546064687B04022002120461F46E8
S21401742023F09BFD95E8030000232A692376EB6889
S21401743084E80300C4E904232A7DE36084F82C2051
S214017440AA7D2363012384F8343084F835300E9BFB
S21401745084F82D2023620F9BE7616362109BA36271
S2140174602B7A84F836306B7A84F837302D4B3460BB
S21401747073602D4BB3602D4B33612D4B73612D4BD8
S214017480F360FCF771FB38B12B4B984204D0102403
S214017490204607B0BDE8F083002104F10800FCF7A0
S2140174A0EBFA07460028F2D14FF00108234B33626E
S2140174B0234B84F83C80B361224BF3619DF848303E
S2140174C084F8390084F83B309DF84430204684F82F
S2140174D03A30697D84F838801AF0E0FA95F9099017
S2140174E04846FFF73DFF4846FFF72CFF164B04942E
S2140174F0CDE902732369CDE900836368E2682168F8
S214017500207A19F06EFB04460028C0D195F9085080
S2140175102846FFF725FF2846FFF714FF3046FFF7FA
S214017520A3FCB5E7ED1A0300D57101006B1A030041
S214017530711A03007D730100038000F0451A0300F1
S2140175409D1A0300771A030071710100BFF35F8F64
S214017550074B5A6A22F480325A62D3F8942022F0FA
S2140175600102C3F89420BFF34F8FBFF36F8F7047AC
S21401757000ED00E070B52948294CFFF7E7FF84428B
S214017580284D294919D1D5F8C03023F0FF0343F01F
S214017590A003C5F8C0304FF080430A68214D234E42
S2140175A0C5F8982043F0010301328442C5F89C6077
S2140175B0C5F8A0300A601ED00DE0D5F8C02020F036
S2140175C01F03203B22F0FF0242F0A002B3F1005F4E
S2140175D0C5F8C020E1D2164B0A68124823F01F03F3
S2140175E043F00303C0F89820C0F89C30114B0132D9
S2140175F0C0F8A0300A60BFF35F8F0522094BC3F8BD
S21401760094205A6A42F480325A62BFF34F8FBFF316
S2140176106F8FBFF34F8FBFF36F8F70BD380D002094
S214017620100F002000ED00E0301E002003000020B7
S2140176302F0F0020E1FFFF3FF8B51446FFF786FF46
S2140176401F2C27D90027C2062A4D1CBF20F01F0079
S21401765020302A68CB06284B18BF21F01F01FCB248
S214017660A2422BD8D3F8C04020F01F0024F47F4458
S21401767044F4807421F01F01C3F8C04040F00300B9
S214017680C3F8982041F003010132C3F89C00C3F807
S214017690A0102A600020BFF35F8F0522164BC3F8A7
S2140176A094205A6A42F480325A62BFF34F8FBFF376
S2140176B06F8FBFF34F8FBFF36F8FF8BDC3F898403E
S2140176C0D3F89C40D3F8A06024F01F04A04226F013
S2140176D01F0601D1B142DDD0B04201D8A14207D286
S2140176E0D3F89840013724F0FF04C3F89840B6E772
S2140176F02820D0E7301E002000ED00E0BFF34F8FBA
S2140177000549064BCA6802F4E0621343CB60BFF337
S2140177104F8F00BFFDE700BF00ED00E00400FA0553
S214017720054B1A782AB95B78002B0CBF0320022080
S21401773070470120704700BF362C00200329F8B59A
S21401774098BF124B05460E468CBF00245C5C03288E
S21401775005D8DFE800F002080B0E44F002040C4BDB
S2140177601F684FB9F8BD44F00804F8E744F0200458
S214017770F5E744F08004F2E77B681A68144203D008
S214017780314628465B6898473F68EAE774CC0300B1
S214017790601E002038B5104D2B78ABB10F4C237806
S2140177A01BB100F0C7FB0023237000201AF03FFA3C
S2140177B00B4C50B100F010FC0023012120782B70F7
S2140177C0FFF7BCFF0123237038BD0122054B1A7059
S2140177D02278054B1A70F7E7312C00202F2C002059
S2140177E0382C0020322C0020332C002010B519F044
S2140177F02DFB064B04461B781BB1BDE8104019F063
S21401780029BBFFF7C7FF2046F7E700BF2E2C002055
S214017810094A137830B101331370084B1B78012BDA
S21401782003D87047013B13707047054B1B780BB9A3
S214017830FFF7B0BF704700BF362C0020382C002061
S214017840322C002070B519F001FB124E0546337834
S2140178509BB900F0FDFC044620B1284619F0FAFA5F
S214017860204670BD0C4819F0F4F800F0E7FF0B4B0A
S2140178701C6000F0B9FD0A4B186000F03BFA1AF0E4
S214017880D8F9084B0024186001232846337019F0F4
S214017890E1FAE5E7392C0020601E0020341E0020A6
S2140178A05C1E0020381E00202DE9F843284A0138C6
S2140178B0135C39B1274F013339781354012904D8A1
S2140178C0BDE8F883013B1354FAE7FFF729FF0128C7
