S01B0000313632315F52465F4C696768742D5365727665722E7333371D
S214012000C00A00208D350100D3C00200D3C00200F3
S214012010E7D00200D3C00200D3C00200D3C0020042
S214012020D3C00200D3C00200D3C00200D3C0020056
S214012030D3C002008C4F030089BF0200D3C0020048
S214012040D3C00200D3C00200D3C00200D3C0020036
S214012050D3C00200D3C00200D3C00200D3C0020026
S214012060D3C00200D3C00200D3C00200D3C0020016
S214012070F57E01000930010037C00200D3C002001E
S214012080D3C00200D3C00200D3C00200D3C00200F6
S214012090D3C00200653D0100D3C00200D3C00200D8
S2140120A0D3C00200353F0100113F0100D3C002003A
S2140120B0D3C002002D8E0200D3C002007598020024
S2140120C0453A0300413A030065900200513A030085
S2140120D0493A03004D9802004D3A0300B5980200B4
S2140120E0457202000974020025990200D3C002005D
S2140120F0D3C00200D3C00200D3C00200D3C0020086
S214012100D3C00200D3C00200D3C00200D3C0020075
S214012110D3C00200D3C00200D3C00200D3C0020065
S214012120D3C00200D3C00200D3C00200D3C0020055
S214012130D3C00200D3C00200D3C00200D3C0020045
S214012140002370B5404C05468AB0E36318B1008899
S21401215023600AF0ABFE3D4820F0D6FF3C4E3D4BD7
S214012160304633603C4B73601EF062F90021304606
S21401217011F036F832A3D3E90023A062C4E906239E
S2140121801EF061F9D4E9062319431043C4E9060198
S214012190CDE900014FF0FF334FF0FF32A06A21F086
S2140121A02EF802224FF0FF31A06A21F02DF801200F
S2140121B00AF0FCFB4FF4007300222849A06A21F0C4
S2140121C076F8B0F5007F38D100239422CDE90733A5
S2140121D009933C23CDE9033205939623A06A03A90C
S2140121E0069311F01BF935B3287C0AF0CFFF05469C
S2140121F0F0B9A06A21F039F90AF076FF0AF0B8FBC7
S21401220020B14FF48070002108F028FC0AF0C0FBD2
S21401221020B14FF40060002108F020FC1EF0DDF92B
S214012220012011F031F80E4A0E49A06A1EF0FEF8A0
S21401223028460AB070BDFF20D7E70725F8E700BF9C
S2140122400DD5015520000000780F0020690345ECEC
S214012250B822002031C80100C8220020B820002082
S214012260D50303001504030010B5054C237833B9D4
S214012270044B13B1044800E000BF0123237010BDD6
S214012280D811002000000000DC99030008B5034BBC
S2140122901BB10349034800E000BF08BD0000000071
S2140122A0DC110020DC990300A3F5803A704700BFDB
S2140122B0174B002B08BF134B9D46FFF7F5FF002178
S2140122C08B460F461348144A121A21F00EFC0E4B89
S2140122D0002B00D098470D4B002B00D098470020CC
S2140122E0002104000D000D48002802D00C4800E033
S2140122F000BF17F047FD2000290019F039FE17F03E
S2140123002DFD00BF000008000000000000000000D6
S214012310C00A0020040F0020342A0020000000001C
S21401232000000000F8B505461AF076FF0646284676
S21401233019F0EFFE012804461CD1194F3868301AEF
S21401234005F074FC962815D9164B17491878174BC3
S2140123503E609D420C70164B4FEA40020BD1024480
S21401236013445A780132D2B2642A88BF64225A7062
S21401237002234B70F8BD0F4E0244B542134408D1F8
S2140123805A78013AD2B2642A88BF00225A700323CF
S214012390EFE79A784C7082F001029A70EAE700BF84
S2140123A0F4110020002900200E2900207C4E030095
S2140123B002290020944E03000F282DE9F743044616
S2140123C000F0C780132860D00B2840F02481934F7B
S2140123D0934E3B78012203EB4303002133440DF077
S2140123E023F9054610B38F4C8F4920681AF0CAFCB2
S2140123F08E4920681AF0C6FC19F069FE19F068FECD
S2140124008B4B8C4A00938C49972320681AF0BAFCB0
S2140124108A492B468A4A20681AF0B4FC284600F0FE
S2140124205FFF884920681AF0ADFCFEE73A78012183
S21401243002EB4202204632440DF024F905460028FC
S21401244000F0E980774C784920681AF09BFC7749C0
S21401245020681AF097FC19F03AFE19F039FE744B11
S214012460744A009374499D2320681AF08BFC7349C3
S2140124702B46734A20681AF085FC284600F030FF88
S214012480704920681AF07EFCFEE703264FF002082A
S214012490DFF88891624F99F80030012216FB03831A
S2140124A000213B440DF0C0F8054610B35D4C5E4973
S2140124B020681AF067FC5D4920681AF063FC19F081
S2140124C006FE19F005FE5A4B5A4A00935A49A623AE
S2140124D020681AF057FC59492B46594A20681AF0C9
S2140124E051FC284600F0FCFE564920681AF04AFCCA
S2140124F0FEE799F80020012116FB028220463A44A5
S2140125000DF0C0F80546002800F08580454C464988
S21401251020681AF037FC454920681AF033FC19F098
S214012520D6FD19F0D5FD424B424A00934249AC23F1
S21401253020681AF027FC41492B46414A20681AF0C8
S21401254021FC284600F0CCFE3E4920681AF01AFC11
S214012550FEE701260327DFF8C490DFF8C48099F868
S2140125600030324617FB0363002143440DF05CF84C
S214012570054610B32B4C2C4920681AF003FC2B4956
S21401258020681AF0FFFB19F0A2FD19F0A1FD284BF7
S214012590284A00932849B52320681AF0F3FB2749F7
S2140125A02B46274A20681AF0EDFB284600F098FED5
S2140125B0244920681AF0E6FBFEE799F80020314628
S2140125C017FB0262204642440DF05CF8054610B344
S2140125D0144C154920681AF0D5FB144920681AF0E6
S2140125E0D1FB19F074FD19F073FD114B114A0093DC
S2140125F01149BB2320681AF0C5FB10492B46104A27
S21401260020681AF0BFFB284600F06AFE0D492068D4
S2140126101AF0B8FBFEE703B0BDE8F08300290020FE
S21401262002290020B0120020074A03004049030097
S21401263092490300454903004E4903005D490300E2
S2140126405A49030072490300014B186804F09CB80C
S214012650CC0A002003688C4A23F47F4323F0070347
S214012660934273B505D0894A934200F0B68002B012
S21401267070BD0122864E874B30461A700CF060FF03
S214012680054618B3844C854920681AF07BFB8449BB
S21401269020681AF077FB19F01AFD19F019FD814B25
S2140126A0814A009381494FF4C07320681AF06AFB8F
S2140126B07F492B467F4A20681AF064FB284600F0C3
S2140126C00FFE7D4920681AF05DFBFEE70221307897
S2140126D00CF070FF044618B36F4D704928681AF065
S2140126E051FB6F4928681AF04DFB19F0F0FC19F000
S2140126F0EFFC6C4B6C4A00936C494FF4C37328682B
S2140127001AF040FB6A4923466A4A28681AF03AFBDF
S214012710204600F0E5FD684928681AF033FBFEE71D
S214012720A02203460090114630780CF021FF0546A2
S21401273018B3594C594920681AF024FB58492068A7
S2140127401AF020FB19F0C3FC19F0C2FC554B564A8F
S2140127500093564940F2911320681AF013FB54492E
S2140127602B46544A20681AF00DFB284600F0B8FDA7
S214012770514920681AF006FBFEE7022130780CF07A
S2140127802DFF054618B3444C444920681AF0FAFA5E
S214012790434920681AF0F6FA19F099FC19F098FCEA
S2140127A0404B414A009341494FF4CB7320681AF0DD
S2140127B0E9FA3F492B463F4A20681AF0E3FA2846D1
S2140127C000F08EFD3C4920681AF0DCFAFEE73B4833
S2140127D002B0BDE8704019F0A1BC2D4C0221207852
S2140127E00CF0E8FE054618B32B4C2C4920681AF06D
S2140127F0C9FA2B4920681AF0C5FA19F068FC19F0D5
S21401280067FC284B284A009328494FF4E273206856
S2140128101AF0B8FA26492B46264A20681AF0B2FA68
S214012820284600F05DFD244920681AF0ABFAFEE761
S214012830022120780CF0D2FE054600283FF417AF9F
S214012840154C164920681AF09DFA154920681AF0A9
S21401285099FA19F03CFC19F03BFC124B124A009312
S21401286012494FF4E77320681AF08CFA10492B4688
S214012870104A20681AF086FA284600F031FD0E4903
S21401288020681AF07FFAFEE7A0000100A00006010A
S214012890020D002001290020B0120020074A030083
S2140128A04049030083490300454903004E4903009C
S2140128B05D4903005A490300724903007C4E030038
S2140128C008B5FFF7C1FE054819F02CFC044819F0BD
S2140128D029FCBDE80840034819F024BC7C4E0300DF
S2140128E0944E0300AC4E030070B5894B05461B7829
S2140128F086B08BB105AC8749009404AB03AA17F0E8
S214012900B7FC032858D1039B042B02DC0598012849
S21401291004DD814817F0D0FB06B070BD049A642A26
S21401292036DD642204927D4DDAB203EB4303E918E7
S214012930EA54049B88704B70794B01211A700B2066
S21401294003AA0CF09FFE054630B3764C7649206804
S2140129501AF018FA754920681AF014FA19F0B7FB3C
S21401296019F0B6FB724B734A00937349A42320688F
S2140129701AF008FA71492B46714A20681AF002FAD1
S214012980284600F0ADFC6F4920681AF0FBF9FEE717
S214012990002AC8DA0022C5E7012104AA0F200CF09C
S2140129A071FE2246012113200CF06CFE03AA0121C0
S2140129B017200CF067FEAFE72846634904AB03AA6D
S2140129C017F056FC02284FD1039B042BA1DC049A76
S2140129D0642A35DD64220492504CDAB203EB4303D9
S2140129E0E118E254049B0B204B704D4B01211A70E9
S2140129F003AA0CF047FE054630B34A4C4A49206804
S214012A001AF0C0F9494920681AF0BCF919F05FFBC1
S214012A1019F05EFB464B474A00934749C523206899
S214012A201AF0B0F945492B46454A20681AF0AAF92A
S214012A30284600F055FC434920681AF0A3F9FEE742
S214012A40002AC9DA0022C6E7012104AA0F200CF0E9
S214012A5019FE039A012102EB42020232224413209C
S214012A600CF010FE04AAA2E723462846374903AA1B
S214012A7017F0FEFB02287FF44FAF039B042B3FF7B2
S214012A8048AF059901293FF744AF244EDAB203EB6C
S214012A904303F018F254224B81701A7001210B2067
S214012AA003AA0CF0EFFD054610B31E4C1E49206824
S214012AB01AF068F91D4920681AF064F919F007FB45
S214012AC019F006FB1A4B1B4A00931B49DF232068AB
S214012AD01AF058F919492B46194A20681AF052F982
S214012AE0284600F0FDFB174920681AF04BF9FEE76F
S214012AF0039A012102EB4202013232440F200CF00C
S214012B00C1FD2246012113200CF0BCFD22464EE7F2
S214012B1001290020A4490300B3490300022900202B
S214012B2000290020B0120020074A03004049030094
S214012B30094A0300BC4903004E4903005D490300EE
S214012B405A49030072490300CA490300D4490300E5
S214012B507FB53B4B1A78002A4DD00022394E3A4CAD
S214012B6031781A7001EB410162189378615C5278F2
S214012B70364817F01BFA0B20FFF71EFC0F20FFF755
S214012B801BFC1320FFF718FC03233278012103FBFB
S214012B900242172002320CF075FD054610B32C4C8C
S214012BA02C4920681AF0EEF82B4920681AF0EAF84A
S214012BB019F08DFA19F08CFA284B294A0093294905
S214012BC05E2320681AF0DEF827492B46274A20683C
S214012BD01AF0D8F8284600F083FB254920681AF039
S214012BE0D1F8FEE73378234803EB43031C44A3786C
S214012BF0E3B119F00CFB204B1A78AAB100221F4D45
S214012C001F4C1A7028680DF10F011AF096F858B982
S214012C109DF80F2023780A2A01D00D2A09D1002217
S214012C201848C254FFF760FE04B070BD19F0F2FAFE
S214012C30E1E70D2B9FBF1349CA5401332370E1E727
S214012C400E2900200029002002290020DE49030069
S214012C50B0120020074A030040490300174A030048
S214012C60BC4903004E4903005D4903005A4903006D
S214012C7072490300C44E030021290020CC0A00201B
S214012C80102900201129002030B50368544A23F486
S214012C907F4323F00703934289B040F09E800522CC
S214012CA0002122204F4B0CF0BFFC054610B34E4CC2
S214012CB04E4920681AF066F84D4920681AF062F805
S214012CC019F005FA19F004FA4A4B4B4A00934B499E
S214012CD0592320681AF056F849492B46494A206874
S214012CE01AF050F8284600F0FBFA474920681AF017
S214012CF049F8FEE70DF10F0104A80CF0D9FC0446D3
S214012D0010B3394D394928681AF03CF83849286813
S214012D101AF038F819F0DBF919F0DAF9354B364ABA
S214012D2000933649642328681AF02CF83449234660
S214012D30344A28681AF026F8204600F0D1FA3249BB
S214012D4028681AF01FF8FEE79DF8153001468DF841
S214012D5018309DF8143008228DF819309DF813307C
S214012D6024208DF81A30FF238DF81B30FE238DF8B2
S214012D701C309DF812308DF81D309DF811308DF8FD
S214012D801E309DF810308DF81F3006AB0CF04CFC51
S214012D90054610B3144C1549206819F0F3FF144981
S214012DA0206819F0EFFF19F092F919F091F9114B1B
S214012DB0114A009311497423206819F0E3FF104962
S214012DC02B46104A206819F0DDFF284600F088FAE5
S214012DD00D49206819F0D6FFFEE709B030BD00BFE7
S214012DE0A00001002A4A0300B0120020074A03008F
S214012DF040490300584A0300304A03004E49030085
S214012E005D4903005A4903007249030010B5234C7B
S214012E1001F078FB01F05EFD236F23F0070343F01A
S214012E200303236719F04BFB1D4B00209B6A9B078E
S214012E305EBF01221B4B9A62D4F8203123F00303B4
S214012E4043F00203C4F82031D4F8243123F00703F9
S214012E5043F00203C4F82431D4F8403123F00303CD
S214012E6043F00103C4F84031D4F8603123F0030382
S214012E7043F00103C4F86031D4F8403223F0030371
S214012E8043F00103C4F84032D4F8003223F00703BC
S214012E9043F00103C4F8003210BD00BF00800050AB
S214012EA000C0005000E0005008B502F057F90128B4
S214012EB00ED1114B04205A6E4FF480230F49520352
S214012EC058BF0F4A4B6601F51041086258BF53665A
S214012ED003F03CFC03F0DEFB03F0FEFB19F0FAFE08
S214012EE0FFF794FF03F0E6FB00F00AFC01F034F86C
S214012EF0BDE8084004F098B80080005000900050EB
S214012F0000A0005030B51B4D95B00DAC0FCD0FC4D1
S214012F1095E807004FF416530F93282384E807001B
S214012F2015491022CDE902130021144B09A8CDE959
S214012F300431069120F0D9FD4FF48020104B0DAAE4
S214012F40CDE907030D238DF824300E238DF82530A7
S214012F500C4B07A90A9320230B9340F20113ADF8FB
S214012F603030094B0948009302AB03F023FE15B03D
S214012F7030BD00BF604E030000C0055002020203D0
S214012F8024C0055022290020F811002054120020E8
S214012F90831E012B10B512D8012910D80221114B1E
S214012FA004221B6F0846C3F3800301F0E1FE0E4BBB
S214012FB01B681868A8B1BDE81040436A18478B1E05
S214012FC0012B0CD801280CD8BDE810400221054B76
S214012FD000221B6F0846C3F3800301F0C9BE012916
S214012FE0E5D910BD00C00350C80A002008B5044941
S214012FF0044804F0DDF8BDE80840FFF783BF00BFD2
S214013000C00A00204C12002001481AF024B800BF64
S21401301054120020014B1A6A1868104754120020F7
S21401302008B5054819F070F8044819F06DF8BDE8C0
S2140130300840034819F068B87C4E0300944E03001C
S214013040AC4E0300014819F0DFB800BFC44E0300C0
S214013050184B37B583422AD1174B1B783BB3C8B2FE
S2140130600CF0D0FA054610B3144C1549206819F037
S21401307089FE1449206819F085FE19F028F819F020
S21401308027F8114B114A124900932068852319F03D
S21401309079FE10492B46104A206819F073FE28461F
S2140130A000F01EF90D49206819F06CFEFEE703B02A
S2140130B030BD00BF7812002042290020B012002047
S2140130C0074A030040490300544F0300DC4E030047
S2140130D04E4903005D4903005A4903007249030043
S2140130E030B5002403685D4A23F47F4323F00703C9
S2140130F085B0934205468DF808408DF809408DF855
S2140131000A408DF80B408DF80C408DF80D407ED0AE
S21401311002F5802293420ED0A2F18272934240F0D1
S2140131209A804F4B1B78002B00F0958005B0BDE8C8
S21401313030401AF0B3B8B0F805302C2B40F08B8035
S214013140FF2304A91A4611E9030018F0B9FF012864
S21401315014BF41F2FC14424B04F0FC0208BF187085
S2140131602C2128790CF076FA044610B33D4D3E49E1
S214013170286819F007FE3D49286819F003FE18F083
S214013180A6FF18F0A5FF3A4B3A4A00933A4959234D
S214013190286819F0F7FD39492346394A286819F095
S2140131A0F1FD204600F09CF83649286819F0EAFD42
S2140131B0FEE7354900902B79344A0968344800F017
S2140131C0E7F80546002846D0264C2749206819F01E
S2140131D0D9FD2649206819F0D5FD18F078FF18F0BA
S2140131E077FF234B234A009323496223206819F073
S2140131F0C9FD22492B46224A206819F0C3FD2846FC
S21401320000F06EF81F49206819F0BCFDFEE7B0F823
S2140132100530B7EE047A07EE903AF8EE677AB0F822
S214013220073027EE877A013307EE903AF8EEE77A11
S21401323067EE277AB1EE047A67EE877AFAFE677A46
S214013240FCEEE77A17EE903AB3F57A7F38BF4FF483
S2140132507A730D4A136005B030BD00BFA0000602A8
S21401326042290020B0120020074A0300404903000B
S214013270634F0300DC4E03004E4903005D49030023
S2140132805A49030072490300D00A00205130010058
S2140132907812002008B501230021074A1370074A57
S2140132A01170074A13701F22064B1A7003F078FA42
S2140132B0054B186008BD00BF060D002043290020FD
S2140132C0070D0020080D0020B0120020024B034914
S2140132D0186819F057BD00BFB0120020834F0300D5
S2140132E070B50C4C0C490646206819F04BFD03F0EE
S2140132F057FA0546206803F047FA3046FFF7E6FF1F
S214013300284603F041FA20680449BDE8704019F0E8
S21401331039BD00BFB0120020854F0300874F030060
S21401332038B5054619F0E7F800230B4A14685CB176
S214013330AC4206D1A96A6BB1996219F0E2F8012094
S21401334007E02346A46AF2E7002DF3D019F0D9F876
S214013350204638BD1160F0E7B412002010B50446CF
S21401336090B104F069FB2046FFF7DAFF58B194F8F4
S2140133702C0040B119F0BFF8044A1368013B1360F2
S21401338019F0BFF8002010BD2220FCE7B81200207B
S2140133902DE9F04F85B00546914698460E469DF8B4
S2140133A0387009B9002F66D12846FFF7D7FF0446C3
S2140133B0002840D185F82C00686304F031FC864271
S2140133C03DD904F0C5FB40F2E7318C462146E6FBC9
S2140133D000C14FF47A726046002316F027FB4FF0C7
S2140133E0FF32002383468A4616F020FB4FF0FF3259
S2140133F0E88600235846514616F018FB2B46114620
S2140134002846CDE900441D4A19F0E1FE044690B96C
S214013410C5E9089885F82D702E6319F06CF8184ADE
S214013420136833B31A469B6A002BFBD195620023BF
S214013430AB6219F066F8204605B0BDE8F08F47B1DB
S2140134402B4631462846CDE900440C4A04F0A4FB3D
S214013450DCE7304603A904F081FB04460028EAD1E4
S2140134602B462846CDE90077044A039919F08BFECE
S214013470CCE71560DBE72124DDE700BF85340100DA
S214013480B412002091F82C3013B50C4683B98B8EFC
S214013490CA8E93420ED243B9CDE9003320460B467D
S2140134A0104A4FF0FF3119F052FEA38E0133A38666
S2140134B002B010BD52B191F82D307BB101230093BB
S2140134C0D1E908232046096BFFF762FF0123064A6C
S2140134D084F82C30136801331360E9E7084604F0DA
S2140134E0ABFAF3E785340100B81200202DE9F0416C
S2140134F0144E336823B34FF00008134F18F0FBFF48
S21401350005463C6824B92846BDE8F04118F0F9BFE5
S21401351094F82C3093B1336884F82C80013B3360E7
S21401352094F82D3013B92046FFF7FAFE284618F016
S214013530E8FFD4E9083120469847DFE7A46AE1E7C7
S214013540BDE8F081B8120020B4120020034B1B68BE
S214013550002B0CBF01200420704700BFB8120020CA
S214013560024B1868B0FA80F040097047B812002084
S2140135700348044A0449121A921018F0ABBD00BF62
S214013580349E0300349E0300342A002008B500F060
S2140135902FF8FFF7EDFF124B12498B4212D3002092
S2140135A0114B12498B4218D3FEF782FE186850F869
S2140135B02240586840F82240013298688242F5D38A
S2140135C00C33EAE70022F8E71C6844F822000132CF
S2140135D05C68A242F8D30833E4E70022F8E700BFAC
S2140135E0E4990300F0990300F0990300F0990300B1
S2140135F04FF400414FF0FF30124B134A10B59A605A
S214013600D3F8882042F47002C3F888200F4A9166E6
S21401361001F1884101F5005210664FF6DF705066E1
S2140136200220C3F8D000BFF34F8FBFF36F8F08247B
S2140136304FF440330648C0F88041D36004600B6104
S21401364010BD00BF00ED00E000200100009000501A
S21401365000E100E0014B1868704700BFD80A00205F
S214013660084B1B6F03F00703022B04D0032B05D076
S214013670012B05D0FEE7044B18687047034BFBE7A8
S2140136800348704700800050D80A0020DC0A00205A
S214013690002D310108B5FFF7E3FF054B1B6FC3F3A0
S2140136A003330133B0FBF3F0024B186008BD00BFD3
S2140136B000800050D40A00200048704700B4C404BB
S2140136C0014B1868704700BFDC0A0020054B1860E4
S2140136D0054B1B6F03F00703032B01D1FFF7DABF7E
S2140136E0704700BFDC0A0020008000500048704789
S2140136F0002D3101014B1868704700BFE00A002019
S2140137000020836A10B5B3F5903F0ED21968084AB7
S21401371091420AD1074C227812F0FD0F04D1DB69E1
S214013720984708B90123237010BD4FF48170FBE759
S21401373007B0CD5E442900204FF00053074A1A60B7
S214013740BFF34F8F0649074BCA6802F4E062134382
S214013750CB60BFF34F8F00BFFDE700BF02020FF043
S21401376000ED00E00400FA0505490A68131805484B
S21401377083428CBF4FF0FF320B601046704700BF8C
S214013780E40A002000800020F7B504680121054600
S2140137903A2000F0DBFD002301226179207901F057
S2140137A0E7FA14233021227911FB023101F1A041FD
S2140137B001F5703109686379D940C943A37901F0ED
S2140137C00101022B217017D100F022FB164A2B466D
S2140137D06179207900F046FBFF28024660790ED118
S2140137E02A46114900F068FB0123024661792079D7
S2140137F0CDE9003301F064FA002003B0F0BD0126E4
S2140138002779002301460096384601F013FB2A4625
S2140138100549607900F050FB002361790246207962
S214013820009301963346E5E72DC1020008B5012154
S2140138303A2000F08BFD032101230422002001F031
S21401384097FA002018F078FE0122214B4FF46070A1
S214013850C3F8442418F06BFD1E4B00F5D520D3F8B1
S214013860F02000F2FC4042F00102C3F8F020D3F849
S214013870FC2042F08072C3F8FC20174AA3F55D4392
S2140138801A60164B0222B0FBF3F0154B0138186193
S214013890C3F8F0204FF48072C3F804234FF060435E
S2140138A0104A0020C3F8B02F0F4AC3F8802ED3F871
S2140138B0002E42F48072C3F8002EFF2283F82020E7
S2140138C0D3F8002E22F48072C3F8002E08BD00BF84
S2140138D000D0035000ED00E0FF030040F8590D0052
S2140138E0000004E055CEACC50900010010B5012268
S2140138F043780178847830209A40054B00FB0133E9
S2140139001CB942F210015A5010BD41F21001FAE7FB
S21401391000C0035010B50122437801788478302026
S2140139209A40054B00FB01331CB941F210015A5075
S21401393010BD42F21001FAE700C003502DE9F04F26
S2140139409A46564B85B01B7806460F461546DDF857
S2140139503C909DF844B0DDF85080002B00F08D803F
S214013960072A00F28C800E9B002B00F08880B9F1AC
S214013970000F00F08480129BB3F5006F7FDC0128F6
S21401398002D1109B002B7AD0454B03EB05131B7B12
S214013990002B76D0434C10220021684620F0A5F873
S2140139A004EB45141022002F59D13946204620F049
S2140139B09CF843F210036380BBF1000F03D1E37858
S2140139C043F00303E370374A0E9B02EB451CCCE938
S2140139D00193129B6901013BC3F30A009DF84C3029
S2140139E0012E03F003034FEA836343EA001E535894
S2140139F02D48CDF800A000EA03004EEA000353501C
S214013A0041D113230CF1100ECCF80C309CE80F00BA
S214013A108EE80F006FF00301DCF81C20109B61F3A9
S214013A209F02012FCCF81C20CCF8143003D1CCF81F
S214013A301890CCF804300027194A290102EB051327
S214013A4042F80180159A28465A60694622469F60C8
S214013A505E7301F06BFA384605B0BDE8F08F0021C1
S214013A60204620F042F84FF444736380BBF1000F08
S214013A70A9D1E37843F03003A4E70C48ECE70C48FF
S214013A80EAE70C48E8E7B8F1000FD4D19CF8023019
S214013A9068F304138CF80230CDE700BF45290020F7
S214013AA0BC1200203C1300200F80FFF3028000F0C0
S214013AB0018000F0078000F038B5124B05461B78F0
S214013AC0DBB1E0B118F017FD0F4A00231146147B55
S214013AD054B92B6001251A0101EB03131D738C5099
S214013AE018F00FFD204638BD0133082B02F11002F5
S214013AF0EDD118F006FD0548F5E70548F3E705485A
S214013B00F1E700BF45290020BC120020048000F028
S214013B10028000F0018000F013B518F0ECFC0023E1
S214013B200B4A147B7CB90133082B02F11002F8D141
S214013B30019001F09DF9074B01981C7018F0E1FC0B
S214013B40204602B010BD18F0DCFC0348F9E700BFC0
S214013B50BC12002045290020058000F00D4B10B551
S214013B601B78044693B1072812D818F0C4FC0A4BF8
S214013B7003EB04131A7B2AB100241C7318F0C1FC52
S214013B80204610BD18F0BDFC0448FAE70448F8E7E3
S214013B900448F6E745290020BC120020068000F004
S214013BA0028000F0018000F0154B13B51868002361
S214013BB001908DF8043018F09EFC124B1C7824B14D
S214013BC018F09FFC104802B010BD01221A7018F0C0
S214013BD098FC0E4B01A81C731C7783F82C4083F8C5
S214013BE03C4083F84C4083F85C4083F86C4083F893
S214013BF07C4008238DF8073001F066F92046E2E79D
S214013C00DC4F030045290020038000F0BC12002091
S214013C100A4A08B512785AB107280BD8084A02EBA7
S214013C2000131B7B43B1002101F040F9002008BDC1
S214013C300448FCE70448FAE70448F8E74529002069
S214013C40BC120020028000F0018000F0078000F026
S214013C500A4A08B512785AB107280BD8084A02EB67
S214013C6000131B7B43B1012101F020F9002008BDA0
S214013C700448FCE70448FAE70448F8E74529002029
S214013C80BC120020028000F0018000F0078000F0E6
S214013C900A4A08B5127852B107280AD8084A02EB30
S214013CA000131B7B3BB101F08BF9002008BD0548D2
S214013CB0FCE70548FAE70548F8E700BF4529002074
S214013CC0BC120020028000F0018000F0078000F0A6
S214013CD00D4B1B7893B1072812D889B10B4B03EB18
S214013CE000131B7B73B10A4B1A6D012303FA00F014
S214013CF010401ABF00200B700870704705487047C7
S214013D00054870470548704745290020BC12002029
S214013D1000000450028000F0018000F0078000F0EF
S214013D200B4A10B512780C4662B107280CD859B167
S214013D30084A02EB00131B7B43B101F053F92070D4
S214013D40002010BD0448FCE70448FAE70448F8E7F9
S214013D5045290020BC120020028000F0018000F0FE
S214013D60078000F02DE9F843174B1F6D5B6D1F4070
S214013D7000D5FEE701260025144CDFF85480DFF855
S214013D805490374217D02368C8F850609BB1A16899
S214013D90284601316268A1609847637B012B0AD1EE
S214013DA048B909EB45131A7B60F341021A731A7F6F
S214013DB060F341021A770135082D4FEA460604F1F1
S214013DC01004DED1BDE8F88300000450BC120020C8
S214013DD0002004503C13002070B5044601250B4E0C
S214013DE004B970BD94FAA4F0B0FA80F005FA00F3B5
S214013DF006EB001224EA03045368002BF0D0117B73
S214013E0011B191689847EBE79847E9E73C14002021
S214013E1008B5192000F08AFD28B14FF00072074B53
S214013E20C3F880211A601A2000F080FD28B14FF0F7
S214013E308062024BC3F880211A6008BD00E100E0F1
S214013E4038B505460C4618F056FB0022044B03EB2A
S214013E5005135C601A73BDE8384018F052BB00BF0A
S214013E603C140020F8B504460D4617461E4618F0C9
S214013E7042FB1CB9052D0DD0FF2414E0012C03D103
S214013E80012DF9D1032405E0022CF5D17DB1052DD4
S214013E90F2D107240123074D04F1100105EB0111AE
S214013EA0C1E901760B7318F02CFB2046F8BD0624F9
S214013EB0F0E700BF3C140020F8B505460F4616464D
S214013EC018F019FB104B05F0FC02D3F8241400235C
S214013ED0EC1804F00304144321FA04FC1CF0010F4F
S214013EE007D00133042BF3D1FF2418F00AFB204638
S214013EF0F8BDFF2CF9D00122044B03EB0413C3E9F0
S214013F0001761A73F1E700BF00C003503C1400208D
S214013F10074BD3F82404D3F8202403F500531040AC
S214013F2000F0553020F05020C3F82004FFF754BFAE
S214013F3000C00350074BD3F82404D3F8202403F51C
S214013F400053104000F0AA3020F0A020C3F820044F
S214013F50FFF742BF00C00350024B1968024B1868B6
S214013F600EF050BDEC0A0020E80A002037B592009A
S214013F7004460D46019220F0AFFC431C0BD060B9FD
S214013F8029462046019A1FF079FD0028044808BFFB
S214013F90002003B030BD0348FBE70348F9E700BF44
S214013FA010E000F021E000F024E000F010B5044637
S214013FB020F09AFC431C10D088B901F0D7F82346AC
S214013FC020F003002044984201D1002010BD53F890
S214013FD0042B0132F7D00348F8E70348F6E7034815
S214013FE0F4E700BF0EE000F021E000F024E000F06E
S214013FF008B518F079FA014B186008BD7C1C002042
S214014000014B186818F074BA7C1C0020044BD3F8D6
S2140140108420D206FBD4D3F88400C0F38110704705
S2140140200040005038B5104B0546D3F820310C46F9
S21401403003F00303022B0BD0032B0DD0012B0FD162
S214014040FFF708FB052305B1286004B1236038BDDE
S214014050FFF736FB0323F6E7FFF748FB0223F2E7F9
S21401406001230020EFE700BF0080005073B50D4626
S21401407000210E4B0191D3F88041064604F003045B
S214014080012C09D0022C0CD00C460EB1019B3360DA
S21401409005B12C6002B070BD01A8FFF7C3FF0F2465
S2140140A0F3E7FFF723FB0190EFE700BF0080005026
S2140140B038B5184B0546D3F824010C4600F0070026
S2140140C0062805D8DFE800F0230B131B1F0F170087
S2140140D00023184605B1286004B1236038BDFFF7F8
S2140140E0B9FA0523F6E7FFF7B5FA0623F2E7FFF775
S2140140F0E7FA0323EEE7FFF7E3FA0423EAE7FFF71D
S214014100F5FA0223E6E717F0F0FF0723E2E70123BB
S214014110E0E700BF0080005038B5104B0546D3F8E5
S21401412040310C4603F00303022B0BD0032B0DD0BA
S214014130012B0FD117F0DBFF092305B1286004B16D
S214014140236038BDFFF7D6FA0823F6E717F0D2FF4B
S2140141500B23F2E701230020EFE700BF00800050A9
S21401416038B5144B0546D3F800020C4600F007009C
S214014170042804D8DFE800F01B0A0E1216000023FC
S214014180184605B1286004B1236038BD17F0AFFFAB
S2140141900923F6E7FFF7AEFA0823F2E717F0AAFFBE
S2140141A00B23EEE7FFF776FA0E23800AE9E70123F1
S2140141B0E7E700BF0080005038B5104B0546D3F83E
S2140141C040320C4603F00303022B0BD0032B0DD019
S2140141D0012B0FD117F08BFF092305B1286004B11D
S2140141E0236038BDFFF786FA0823F6E717F082FF4B
S2140141F00B23F2E700231846EFE700BF00800050CC
S21401420038B5104B0546D3F860310C4603F003036E
S214014210022B0BD0032B0DD0012B0FD117F067FF0C
S214014220092305B1286004B1236038BDFFF762FA9F
S2140142300823F6E717F05EFF0B23F2E701230020C1
S214014240EFE700BF0080005010B40D4C0B46D4F8C9
S214014250204204F00304012C0AD0022C0CD008B131
S214014260002101600BB100221A605DF8044B704713
S2140142705DF8044BFFF7D6BE5DF8044BFFF74CBF65
S2140142800080005038B50C46054618F02DF9064B4F
S2140142909A6A82EA040101EA050454409C62BDE878
S2140142A0384018F025B900BF00C00050B0F5207F97
S2140142B01FD009D8B0F5007F15D003D868B1B0F586
S2140142C0C07F0AD000200CE0B0F5607FFAD10B4B1E
S2140142D0D3F88000C0F3011003E0084B186FC0F359
S2140142E0033001307047054BD3F89000C0F30460EB
S2140142F0F7E7024B186FC0F38020F2E7008000500A
S2140143004FF400320E4B014610B500209A66FFF7B7
S214014310CDFF41F6713248430A490B4B88428CBFA8
S2140143204FF480100020DC69DA639A6822F44012A8
S21401433002439A60E20344BF0022DA6310BD00BF65
S21401434000900050005A620200000350420910B566
S21401435010D0012A10D00B4B0B4C022A18BF234653
S21401436000F01F0051B103F58053012202FA00F05C
S214014370186010BD1346F3E7044BF1E703F500534D
S214014380F3E700BF688000506082005064800050F0
S21401439008B5802017F0CBFF034B98429EBF4FF421
S2140143A08032024B1A6708BD005A620200A0005014
S2140143B01FB50023B0F5807F019377D028D8382821
S2140143C000F094800BD82438092810D809280ED874
S2140143D0DFE800F0676767670D0D620D377D5228CD
S2140143E05FD008D83D283BD03E2800F08480019855
S2140143F005B05DF804FB8028F9D1414B1B6F03F033
S2140144000703013B032BF2D8DFE803F044413F6C7E
S214014410B0F5D06F5BD019D8B0F5A06F66D00AD8CA
S214014420B0F5806F3DD0B0F5906FE0D1002001A9C6
S214014430FFF73EFEDBE7B0F5B06F2DD0B0F5C06FED
S214014440D5D1002001A9FFF767FED0E7B0F5006FD0
S214014450ECD00AD8B0F5E06F4DD0B0F5F06FC6D10C
S214014460002001A9FFF7CCFEC1E7B0F5086FBED169
S214014470234BD3F8003103F00303022B2CD0032B7C
S2140144802ED0012B30D1FFF71BF9032300E00523C3
S2140144900193ACE70223FBE7002001A9FFF7E6FD45
S2140144A0A5E7002001A9FFF7BDFDA0E702934FF0A5
S2140144B0E0231B695B0705D5FFF7ECF80C23039394
S2140144C0039BE5E703A902A8FFF726FEF8E700200D
S2140144D001A9FFF745FE8AE7FFF70CF90823D7E79E
S2140144E017F003FE0723D3E70123D1E7002001A934
S2140144F0FFF7AAFE7BE7002001A9FFF75DFE76E73E
S214014500008000504FF40022034B5A66012203F547
S21401451080439A62704700BF0090005008B5FFF7CD
S21401452047FF082811D00938012811D84FF4001286
S214014530094B4FF6FF705A6603F5D8335B6A13F0E2
S214014540010F18BF4FF4FA7008BD044B1888FBE73B
S2140145504FF6FF70F8E700BF00900050F00C002007
S21401456070B504468020FFF723FF032800F0828001
S2140145704FF40022444B02215A6645F60E03434A85
S214014580C2F88030424B9962012103F5805399624B
S214014590936DD903FCD4D4E900131B0543EA0163E8
S2140145A0E17B94F822500B43217B94F8236043EA85
S2140145B00143617B43EA0133A17B43EA8113136123
S2140145C09169D4E904031B0643EA806301F00041C4
S2140145D00B43A17EE07E0B43217E43EA0143617ECD
S2140145E043EA01239361E369126A002B0CBF0021A1
S2140145F0082122F00D0242EA030242EA8002234B1E
S21401460042EA01021A6294F820204FEA421232D19D
S214014610986A94F8211020F0330042EA011202430E
S21401462042F001029A621B4A996D32EA0101FBD1FE
S214014630022217498A621A659A6D5200FCD41869DB
S214014640A26820F4700040EA02504FF00042186160
S2140146500F4B9A611DB9022203F580539A6216B96F
S21401466001220D4B9A6294F824301BB1074B0B4A7A
S214014670C3F8802070BD996A21F0330131430A43A3
S21401468042EA4502EEE700BF0090005000C000502D
S21401469000D000500300014000E00050F1A7FFFFEA
S2140146A01F4BFF2873B5996A37D89A6D12F4803F6D
S2140146B018BF01241B4A18BF9462022494629B6DA2
S2140146C0DA0303D5164A936D9B07FCD50222154BD8
S2140146D0134E1A65B46D14F08044FBD1124B93F956
S2140146E00050B369054423F47F0323F47F4343EA70
S2140146F0002385F3080043EA0043B36102200191D9
S214014700FFF7C0FDB06D019910F4803003D0012091
S214014710FFF7B8FD204602B070BD2120FBE700BFC1
S21401472000C0005000D0005046290020014B93F9EC
S214014730000070474629002001221548154B816A62
S2140147409A62826D02F00302032AFAD102229A6269
S2140147501A650F4B9A6D5200FCD40F4A986D32EAD7
S2140147600000FBD101220B4B1A65A3F580539A6D0D
S2140147709007FCD49A6D9207FCD50222054B1A6568
S214014780034A936D9B07FCD50320FFF77BBD00BF53
S21401479000C0005000D0005003000100014B1880FB
S2140147A0704700BFEE0C00204FF4001208B5184BFE
S2140147B05A660223174A5360936813F48033FBD179
S2140147C0012822D1FEF77CFF134B984215D003F542
S2140147D0122303F5F863984213D0104B00EB8002C6
S2140147E0400AB3FBF0F0520A0A4BDA620122186360
S2140147F05A620022074B5A6008BD45F67A10084AED
S214014800F2E745F61A00074AEEE75362F1E700BF02
S214014810009000500040025000F04902646666664F
S214014820D8B80500BBCF0500B0F5207F10B50C4603
S21401483042D008D8B0F5007F33D003D888B1B0F5A0
S214014840C07F0ED010BDB0F5607FFBD11F4B013C81
S214014850D3F8801021F0300141EA0414C3F88040F7
S214014860F0E717F05CFD17F025FE4FF48031184A8B
S214014870164B1167196F013C21F4704141EA04346B
S2140148801C67FEF707FF0446FFF7C0FBC0F10201F5
S214014890204617F009FE00F02DF8BDE81040FFF79E
S2140148A077BD0A4B013CD3F8901021F0F85141EA4C
S2140148B00464C3F89040C5E7044B013C196F21F42A
S2140148C0806141EA84241C67BCE700BF0080005079
S2140148D00090005008B50121022000F0F5F817F00D
S2140148E01EFD17F0E7FD4FF48032014B1A6708BD35
S2140148F00090005008B54FF4C07017F018FDBDE8E1
S2140149000840044988428CBF022101214FF42070DF
S214014910FFF78ABF80F0FA02034B5868C0F308001D
S214014920003818BF0120704700ED00E0054B420932
S21401493053F8223000F01F0023FA00F0C04300F0C5
S2140149400100704700E100E0194B10B51B6873B316
S214014950184A5268012A2AD0174A8020C2F8003124
S214014960FFF726FD05281FD14FF4C070FFF79EFC08
S2140149700128044604D102214FF4C070FFF754FF0A
S21401498007220E4B1A610122A3F580535A60094A89
S2140149901369DB07FCD5012C09D12146BDE810407F
S2140149A04FF4C070FFF740BF0122054B5A6010BD9F
S2140149B0301D002000C001500080005000E0015072
S2140149C000D0015000224FF40031074B1A60074A0D
S2140149D0516602F598325268012A02BF044AD2F89B
S2140149E000211A60704700BF301D00200090005063
S2140149F000800050044A4178536F23F4407343EA21
S214014A0001235367704700BF0040005010B50446AD
S214014A1008B1FFF7D7FF104A136943F00403136187
S214014A2002F0E4FD17F070FD0C4B0D4AC3F820248C
S214014A3017F05AFD1FF060FF17F05AFD17F065FDDD
S214014A4002F0FCFD1CB1BDE81040FFF77DBFBDE8DC
S214014A501040FEF71FBE00BF00ED00E000E003506F
S214014A600000FF0F10B5044608B1FFF7ABFF0E4A72
S214014A70136943F0040313610C4B0D4AC3F8202459
S214014A8002F0B4FD17F030FD1FF036FF17F030FDD1
S214014A9002F0D4FD1CB1BDE81040FFF755BFBDE8DC
S214014AA01040FEF7F7BD00BF00ED00E000E0035048
S214014AB00000FF0F034A0179D36E23F030030B4346
S214014AC0D366704700400050F8B504461C4BD3F837
S214014AD08420D106FBD4D3F88430C3F381139C42DF
S214014AE02CD0FEF7BDFD012C064602D1214617F05B
S214014AF0DBFC17F0F9FC4FF00072124B07465A66C2
S214014B00204617F007FD4FF480630D4D621E93405B
S214014B102B676B6E9A0103D4D5F884309B060AD5B1
S214014B20384617F0E5FC022C08D13046BDE8F840BF
S214014B30002117F0B9BCD5F88430EAE7F8BD00BF0C
S214014B40004000500060005007B518B90191FEF70B
S214014B5087FD0199064B1B7843B1064B984205D851
S214014B60012003B05DF804EBFFF7AEBF0220F8E7C3
S214014B7047290020005A62020278034B01210020D7
S214014B801A70FFF7E1BF00BF472900204FF000422F
S214014B9038B5264B26495A6601224A604AF6CD3177
S214014BA003F50B235D6C1964154030BB9968C90782
S214014BB00BD4002401221F4B5A6015B11E4B1F4A0D
S214014BC01A641EF034FB204638BD1A498A601C4A16
S214014BD0D96ACC0705D4904201D10724EAE701300F
S214014BE0F6E79042E5D1F8E70132DC6A14F00804F2
S214014BF006D08A42F8D10724DFE700221049F4E7FD
S214014C008A42F8D020220B4B0B495A620122A3F5A7
S214014C1080539A6023460A4A486A800603D4934220
S214014C20E9D00133F8E79342C7D1E4E7009000509A
S214014C300050095000600950004009503254FFFFEF
S214014C4040420F004FF0004238B5194B194C5A66D6
S214014C50012203F50C235A604AF6CD33656C2364B2
S214014C604378154093401343134AD363A36882786D
S214014C7023F0740343EA0213C278002A14BF042205
S214014C8000221343A3600279837943EA0223236156
S214014C904279C37943EA022363610078FFF776FF1E
S214014CA00DB1064B23641EF0C2FA012038BD00BFC9
S214014CB00090005000400950004000503254FFFF61
S214014CC0072AF7B501F0030614461F464FF0030105
S214014CD02CD89500A94000FA05F21C48019117F05E
S214014CE01AFC01991A4806FA05F217F014FC194B3A
S214014CF019499DF82000002F08BF1946012303FA21
S214014D0004F40C60154B1649002808BF0B461C60BE
S214014D10144B9DF82400C3F820441031A3F6DC336D
S214014D20002808BF0B461C6003B0F0BDA2F10805C1
S214014D30AD00A94000FA05F20B48019117F0EBFB14
S214014D4001990A4806FA05F2CFE700BF00C40350EE
S214014D5008C4035010E4035010D4035014D4035075
S214014D6014E4035000E0035004C403500CC4035081
S214014D70F8B504460D461F4616464AB101238B4038
S214014D803021194A01FB0022FFB141F210015350B4
S214014D9004EB4403072D4FF00F014FEA031317D816
S214014DA0A80006FA00F281401048184417F0B3FB39
S214014DB056B9012130230C4801FA05F503FB04001E
S214014DC077B141F21003C550F8BD42F21001DEE79B
S214014DD0A5F10800800006FA00F281400448E4E7E5
S214014DE042F21003EFE700BF00C0035004C00350B7
S214014DF00CC0035010B50C4B0C4C0D4A0140C4F8C6
S214014E003004C3F83014C3F82C04D36E03F0300317
S214014E10202B1FBFD36E23F0300343F01003D3665D
S214014E20C4F8200410BD00BF00D0035000E00350BA
S214014E300040005038B514461D46032283F0010396
S214014E40FFF796FF012004F11001884005FA01F1F1
S214014E50FFF7D0FF9DF81010034B044A002908BF46
S214014E601346186038BD00BF24D4035024E4035011
S214014E704FF400120B4B10B5C3F88020BFF34F8FD1
S214014E80BFF36F8F0024FF22074B21465C6520206D
S214014E909A625C60FFF75AFA2146BDE8104021206D
S214014EA0FFF754BA00E100E000000450044A054B45
S214014EB0002918BF1346012202FA00F01860704755
S214014EC0402004504010045010B501210446202013
S214014ED0FFF73CFA01212120FFF738FA0122114B96
S214014EE05A60227812069A606178A27842EA0142F4
S214014EF09A61FF229A6200229A631A644FF0004276
S214014F005A654FF0FF324FF4001103F500531A654E
S214014F10054AC2F88011E3781B01DBB282F815332B
S214014F20116010BD0000045000E100E0F8B5012555
S214014F30C3B2DFF888C0D1F800E09D408F7ACB7A03
S214014F400C46097BCCF850500CF5005C4CF820E080
S214014F504FF0300E174E1B050EFB006094F80DC087
S214014F6043EA074343EA415322F00302C0F860C014
S214014F70C365026717F0BFFA736D227A2B43736518
S214014F800D4B02B11D64627A02B19D632279A37949
S214014F9043EA0243094A93616179E37943EA0143AB
S214014FA005498B61034B55639D64BDE8F84017F0D6
S214014FB0A8BA00BF0000045000100450002004509E
S214014FC010B50124C0B2844017F095FA044B5A6D0F
S214014FD022EA04025A659C62BDE8104017F091BAB5
S214014FE00000045010B50124C0B2844017F083FAC3
S214014FF0074BDA6A224209D15B6B34EA03030CBF22
S2140150000124002417F07DFA204610BD0024F9E79C
S214015010000004504FF40032054B9A6641F6713297
S21401502003F51C33DA63012203F50053DA60704797
S2140150300090005041F671320121064BDA6303F508
S2140150400052D1600022DA634FF40032A3F5183320
S2140150509A66704700000350CB784A7810B55B011A
S2140150600C7843EA82030A79234343EA02130C22AB
S214015070424302F1B0421363012C02BF8A78024B0D
S21401508043F8202010BD00BFE880035008B54FF05C
S214015090B0435A6802B960B15B680BB117F04DFABC
S2140150A04FF0B04130B10120074B586017F045FA78
S2140150B0C86008BD17F041FA0223CB6017F03DFA2D
S2140150C00122024B5A60F4E70010005800200058F5
S2140150D04FF0B0435B6870B50BB117F02EFA0121A3
S2140150E0104B4578596083780679002BC37814BF36
S2140150F002240024002B14BF042200224379DB0083
S21401510043EA06132B43234313434FF0B042936005
S214015110054B59600378002B14BF0B460223D3605E
S21401512070BD00BF00200058001000584FF48032B8
S214015130064B5A6603F5E6235B69C3F38512827054
S21401514003F03F021B0B4270037070470090005043
S214015150014B986CD96C70470080E00F024B1868C1
S214015160C0F30740704700BF0080E00F0120034BEB
S2140151709B680A3303F01F03984070470080E00FD6
S21401518070B5064615461C4621B94FF4207017F037
S214015190CEF80146402C1BD003D8DCB1202C1BD006
S2140151A070BD602CFCD1042303FB05F2550805EB0A
S2140151B04113B3FBF2F36021084A203B02EAC30322
S2140151C006F50052916006F580529460F361E7E7B8
S2140151D00623E9E71023E7E70823E5E7F8FF7F0062
S2140151E0012200F5805310B55A6040F6AA6341F2D9
S2140151F00502436100230E498360C365C26000F562
S21401520000520361C361C36491640A49836588429D
S21401521002D0094CA04207D18842036502D0064B52
S214015220984201D1002343650123536010BD00BF9E
S214015230FFFF010000C005500000065070B50D4686
S214015240FFF7CEFF012300F580567360AB7C044662
S2140152501BB1836843F080438360EB7C4BB1344AD7
S2140152602B7D944243D1A2F51032C2F88C318023B3
S214015270F3652A8A6B7B20461343EA891343E3606E
S2140152802B7BD5E90112FFF77BFF6B7D1BB1A36872
S21401529043F48033A360AB7D1BB1A36843F40043A2
S2140152A0A360EB7D2A7E1B07120502F4E00203F0E1
S2140152B0E0431343A365697E1D4A8B1E012B1D4BDC
S2140152C01FD894421BD002F5804294420CBF0122A3
S2140152D04FF0FF3203EB4213022041F21C62032916
S2140152E0985020D10423F3652B78636170BD124A70
S2140152F0944204BFA2F52032C2F89C31B7E70022DF
S214015300E8E794420DD00C4A94420CBF01224FF0BC
S214015310FF3203EB4213022042F21C62012998502D
S214015320DFE70022F5E7042204F50053DA65DBE740
S21401533000C0055000C003500000065038B50446B2
S214015340054D1DF098FF0FCC0FC594E8030085E8C6
S2140153500300002038BD00BF341D002047F6FF7350
S2140153609A42F0B56AD002296AD8364B5B5C012BAB
S21401537066D8354DDF0005EBC30015F83330847869
S214015380012B13D10025C3781B1BAB4202D8E018B2
S214015390C0B2F0BD591B4668A3EB510136F9116046
S2140153A09642D4BF0D4601F1FF33EEE74068002870
S2140153B0EFD0B0F90030934204DBB0F902309342EB
S2140153C0B8BF134682883D44FF2A19BFC8214FF053
S2140153D0280CB0F90610B0F908C0A1EB03020CBF07
S2140153E00126002692FBFCF26D78324412B29542F9
S2140153F001DD002A01DA6A1E12B24FF47A7700EB59
S214015400C206F188B668013213FB016112B221EAC5
S214015410E1715C319542B1FBF7F104DD00EBC206A8
S214015420B6888E42EBD200EBC20232F8040C8842F8
S21401543028BF0846A04238BF2046A9E7FF20A8E7B4
S2140154400020A6E704500300341D00200229F0B511
S21401545057D82D4B585C012853D82C4C04EBC0016F
S21401546014F830004B6801280FD1C8788C78904228
S21401547094BFC4EB0001C4EB0201001BCAB2824216
S214015480C8BF002233F91200F0BD002B39D088784E
S214015490904202D3B3F90200F6E7CC78B3F90000E4
S2140154A09442F1D94C789988013CA1F1FF067142EA
S2140154B003F10405E4B2714103F10C071FFA82FC03
S2140154C0CEB2B44216D805EBC1014FF47A756A43E1
S2140154D0B1F902404968521A04EBD47102EB610239
S2140154E092FBF4F29042CFDBB3F902009042CBDCA0
S2140154F010B2C9E737F831E04E1CE645E3D3314632
S214015500DEE70348C0E700BF04500300341D002057
S2140155100080FFFF08B50448FFF710FFBDE808400C
S21401552001201DF0ACBE00BF0850030000487047C4
S214015530F20C00201B0603F0706300F00F00090256
S214015540034301F47061120402F470220B43134307
S214015550014A1360704700BF0020025C60B5054633
S21401556019B10139B1F5806F10D2094EF06810F407
S2140155708030FBD143EA0121120741EA050302F01C
S2140155808052134343F00043736060BD0120FCE783
S2140155900020025C0122054B9A60DA68D203FCD433
S2140155A0D86820F00F000004000C70470020025C51
S2140155B0014B1868704700BF0040025C014B5868F9
S2140155C0704700BF0010025C014B186B704700BFAC
S2140155D00010025C014B1868704700BF0010025CA7
S2140155E0014B9860704700BF0010025C014B1864C5
S2140155F0704700BF0010025C014B5864704700BF43
S2140156000010025C014B5863704700BF0010025C3B
S2140156100022014B1A6070470010025C024A1368B0
S21401562043F00103136070470010025C024A1368DE
S21401563023F00103136070470010025C43F204027A
S214015640014B1A60704700BF0010025C024A1368E3
S21401565043F03003136070470010025C044B1A6875
S21401566042F480721A601A6822F480721A607047D7
S2140156700010025C024A136843F4806313607047AB
S2140156800010025C034A136823F4702343EA0040C7
S214015690106070470010025C044B1A6902605A6978
S2140156A042609A698260DB69C36070470010025CE1
S2140156B00268044B1A6142685A6182689A61C2683C
S2140156C0DA6170470010025C024B1A6BD207FCD4F9
S2140156D0186270470010025C82B01FB507930A9BE0
S2140156E004AC8B4228BF0B4604E907001048D100E2
S2140156F0079948BF03330160099948BF23F00303A4
S21401570023F0704301F0E041194341F000518160FC
S214015710002102F0E042019C134343F00053C160B4
S21401572004618361416304B0BDE8104002B0704774
S2140157300000025C3F22034B1A631022DA61032247
S2140157409A6370470000025C024AD36B9B07FCD445
S214015750704700BF0000025C034B986A10F02400FB
S21401576018BF0420704700BF0000025C08B5FFF7B1
S214015770F3FF064BDB6B23F47F4323F0EF03034376
S2140157801EBF0122024BC3F8FC2F08BD0000025CBD
S21401579000F0FF3F032208B5054B186019615A63F4
S2140157A0FFF7C8FFFFF7D0FFBDE80840FFF7DEBFF1
S2140157B00000025C42680346182A10B50AD0202A67
S2140157C01DD0102A2BD1174AD2F80424D4010AD4AA
S2140157D0012013E0134AD2F804249001F8D50A6890
S2140157E042F008020A6010481A6882424FF0000030
S2140157F00ED10A6842F040020A60586010BD094A9C
S214015800D2F804245201E3D50A6842F00402E9E71B
S214015810064CA242F2D10A6842F08002ECE7072069
S214015820ECE700BF0000025C48290020492900205F
S21401583013B5084CD4F80444E40508D50093134680
S2140158400A460146002000F01BF802B010BD0120F8
S214015850FBE700BF0000025C13B5084CD4F8044413
S214015860E40508D5009313460A460146002000F0D9
S2140158702BF802B010BD0120FBE700BF0000025C60
S214015880F0B516465A688DB0102A0D46129F15D1EE
S2140158907A68102A12D10A4A09AC07CA84E80700B6
S2140158A022462946CDE90547CDE90344CDE9014421
S2140158B00448009616F04BFF0DB0F0BD0720FBE73D
S2140158C08C50030030000100F0B516465A688DB0C2
S2140158D0102A0D46129F15D17A68102A12D10A4A4B
S2140158E009AC07CA84E8070022462946CDE90574B3
S2140158F0CDE90344CDE901440448009616F027FF9C
S2140159000DB0F0BD0720FBE78C500300100001002E
S21401591070B598B0002843D02C4C08AD0FCC0FC5FD
S2140159200FCC0FC50FCC0FC594E80F0085E80F000C
S2140159306D4604AE04F1100320340FCB85E80F004A
S21401594094E80F0086E80F00FFF788FE0420FFF7B3
S21401595099FEFFF773FE3046FFF7AAFE002408AE55
S21401596056F8040B0134FFF7AFFE102CF8D1FFF701
S21401597025FE0328FBD90024FFF74AFE2646FFF73B
S21401598017FE55F8043B01365840042E44EA00043D
S214015990F5D12CB1012206200D4B1A7018B070BD3E
S2140159A0FFF75CFE0820FFF71BFE0020FFF71EFE38
S2140159B00720FFF721FE4FF40070FFF723FE0820B3
S2140159C0FFF760FEFFF72AFE0020E7E76C510300B1
S2140159D04B29002008B5FFF741FE0122014B1A7042
S2140159E008BD00BF4A2900201FB517F012F804466B
S2140159F030B1012206240D4B1A70204604B010BDAA
S214015A00FFF7D6FD0090FFF7D3FD0190FFF7D0FD1D
S214015A100290FFF7CDFD03906846FFF749FEFFF7BA
S214015A20D9FFFFF713FEFFF725FEE6E74B29002017
S214015A3006289ABF014B185C00207047CC51030022
S214015A4030B5154B87B00293144B0390049346F67A
S214015A5011030D46059300F06DF91428044616D17E
S214015A60684617F086F84FF0A843032202A95A6346
S214015A7019601D619A63DA6B9207FCD1142C02D16E
S214015A80684617F084F800F089F9044601E000281A
S214015A90E9D0204607B030BD4C1D00200400002090
S214015AA02DE9F04FB1B005468C46E9466E4F3B9E58
S214015AB0DDF8F8E0409C07F1100AC84638687968B6
S214015AC00837A8E803005745C146F6D10EEB020891
S214015AD0C8F1000909F00F09002E00F0AF807742E7
S214015AE007F00F070121DDF8FCB0C4F1100ACDF86C
S214015AF010B0059144F0005106914FEA0A2101F4D5
S214015B00F85141F02101079106B96B460893002D23
S214015B1040F09680002C00F0938004AB0993002E91
S214015B2000F0908046F000530A93002D40F08D80DF
S214015B30002C14BF0123212343EA07230B9308A952
S214015B4042F00053CDF830C03D980D910E934FEAC8
S214015B50092343F041030F93109002B10CA9002AC8
S214015B6016BF00224FF00052412342EA0E02119165
S214015B70129213933C9B3D4A149310AB15933C4BE6
S214015B800021169340F6110317933A4B002D08BFD8
S214015B901346189314AB1993374B10221A931123FB
S214015BA01B931CAB18461DF0A0FF01221D924AF064
S214015BB080421E9200220346239205B9EB46102C22
S214015BC008BF01230DF1900A102200215046CDF89E
S214015BD080B0219322941DF088FF002C37D020AB93
S214015BE0002125938F4218BF534647F080422692E4
S214015BF03A9A2CA88A422892299313460CBF4FF052
S214015C0080430B46102233432B912A931DF06DFFE0
S214015C10FEB95346C8442D932CA948F0804318A8D2
S214015C202E93FFF70DFF30B92DB90346A34212D1CB
S214015C30002818BF2C2031B0BDE8F08F102751E79F
S214015C4001236BE747F000536EE7212374E7012336
S214015C50C6E728ABDEE703F1C0026A4412F8C02C9F
S214015C6001331043E2E700BFD3510300E4510300C0
S214015C7010000020E851030004000020F0B5C02900
S214015C809FB0249E4FD0B1F5807F04D0802941D0AB
S214015C9029201FB0F0BD40F2344440F21445002ED6
S214015CA008BF2C462127102501940124029603944F
S214015CB004950597259F069706B102AC0794012423
S214015CC0089509940A9221220B940C950D92174A75
S214015CD00AAC0E92164A0F94109242F611021192D5
S214015CE0129313941495159201AA1692CBB112AB86
S214015CF01793042318931123199316AB1A901B9329
S214015D0040F61103C9081C911AA806A91D93FFF7AE
S214015D1097FEBEE7002E14BF4FF486644FF48264EC
S214015D20C0E70EABE4E70F20B3E700BFEC5103007A
S214015D301000001038B5164B5A6E42F004025A662F
S214015D40D3F8802242F00102C3F88022114B5B682F
S214015D50C3F3080343B14FF0A842D36B13F0430FCC
S214015D60FBD11424204638BD4FF0A843DC6B14F059
S214015D704304FBD1084D2B681BB90421284602F0C9
S214015D80B7FB2B68013343F000432B60EAE700BF03
S214015D900080005000ED00E04C1D0020014B00206B
S214015DA05B68704700ED00E04FF40052034B0020A3
S214015DB09A660322C3F86022704700BF0090005025
S214015DC04FF40052034B00209A660322C3F8602268
S214015DD0704700BF00A00050012300F01F02A0F58D
S214015DE006200949A0F550604009934051F820204B
S214015DF01A4341F82020054951F8202022EA0303DE
S214015E0041F82030704700BF501D0020641D00205F
S214015E100121A0F506230F4AA3F550635B0900F0A4
S214015E201F0001FA00F052F8231008430A4942F80D
S214015E302300D1E90030034488680344C86809692F
S214015E4003445B1802BFC2E90033C2E9023313619F
S214015E50704700BF641D0020501D00202DE9F04F43
S214015E60A9B002921D46DDE9326704460822CDE953
S214015E700301414021FA02F34B40980702F1080260
S214015E8018BF9B00202A1C44F4D18123B4FBF3F3F2
S214015E9003EBC313E41A7A4B04F506241B7804F5C6
S214015EA05064002B40D1FEF757F8014620B16FF041
S214015EB0910029B0BDE8F08F4022059008A81DF09A
S214015EC014FE4022059918A81DF00FFEDFF8C891B0
S214015ED0DFF8C8A14B4603F10F0B102208A9DAF828
S214015EE00000CDF800B005931CF054FF00220146D7
S214015EF0059B09F110090DF1200891424CD1CDF80E
S214015F0000B01022DAF8000018A91CF04CFF4FF080
S214015F10000B03460DF160085B4549D1594B994585
S214015F20D8D10122564B1A704FF081084FF0000964
S214015F30DFF868A1A4F506235349A3F55062520978
S214015F4051F8221004F01F0C21FA0CF1C90744D4B1
S214015F504E4951F8220020FA0CF010F0010030D022
S214015F60B9F1000F08BFA146A3F6FF448123B4FB95
S214015F70F3F303EBC313E41A04F50624B8F101089E
S214015F8004F55064D6D1029BEBB1B9F1000F1AD0DB
S214015F90349BC3F800906DE058F8040BCDE9062356
S214015FA00591FFF719FF069A079B05990132A4E7A9
S214015FB058F8040B05930BF1010BFFF729FF059B1E
S214015FC0AAE7029B13B96FF08B0072E7349BB9F115
S214015FD0000F4ED0C3F800906BE70EB1002333607C
S214015FE00FB100233B604FF0100B00232A462146D9
S214015FF0DAF80000CDF800B00CF076FE08BB0EB162
S214016000C6F800B02B68224A934224D166B15FB12C
S2140160103B462146DAF8000018AA0CF0B9FE80B912
S2140160203B6832689B1A3B60D5E90223DDE9031021
S214016030834208BF8A4216D0A4F50624A4F6FF447C
S21401604094E7144B984206D01233984203D0133B80
S2140160509842E9D02BE72146DAF800000CF0DCFE86
S2140160600028E1D0AFE7029B13B16B68012B03D088
S214016070349B1C6000201CE76FF0840019E700BF0A
S2140160804C29002000710800501D0020641D0020CE
S214016090105D175EFFDF00F0006D0800E80A0020C3
S2140160A02DE9F04F87B08246894698461646DDF8B8
S2140160B040B02AB1002B4ED040F26C739A424DD8B4
S2140160C0BBF1010F4DD8002406F110073946012017
S2140160D0059417F0FCF80546002845D021463A46B7
S2140160E01DF003FD05ABCDE9014300942B460122CB
S2140160F050464946FFF7B2FE044680B110F18C0FB8
S21401610008BF6FF08D043A46002128461DF0EDFCCD
S214016110284617F0EDF8204607B0BDE8F08F144B7F
S214016120C5E902A92B60C5F804B02EB13246414636
S21401613005F110001DF0B2FC0E483B462A460599B3
S21401614000680CF039FD18B90598FFF745FEDAE747
S2140161506FF09104D7E76FF08604DCE76FF09104E7
S214016160D9E76FF08504D6E76FF08C04D3E700BF5C
S214016170105D175EE80A00202DE9F0438DB08146D8
S214016180DDE914780C4615461E469BB1B8F1000FA2
S21401619005D16FF0860420460DB0BDE8F083002FD0
S2140161A0F7D0B7F1005FF4D3C3F1005303F5004312
S2140161B09F42EED81022002108A81DF096FC00226E
S2140161C007AB029305AB019306AB21460093484605
S2140161D008ABCDE90522FFF741FE04460028DAD1D7
S2140161E00599DEB1A94203D80029D2D115B1D0E76D
S2140161F00029FBD0491BB14228BF3146069B0948FE
S214016200C8F8001000913A46079900682B440CF034
S2140162106BFD002818BF6FF09104BCE7A942E9D2D4
S214016220B7E700BFE80A002030B58DB00C4605463A
S2140162301022002108A81DF058FC002207AB02938B
S21401624005AB019306AB21460093284608ABCDE982
S2140162500522FFF703FE0446D0B9099B012B1AD08D
S214016260104B079918680CF0D7FDB8B901220798AA
S2140162700D49A0F50623A3F550635B0900F01F0541
S214016280AA4051F823506A4041F82320FFF7C0FD89
S21401629020460DB030BD6FF08404F9E76FF091042D
S2140162A0F6E700BFE80A0020501D00202DE9F04F58
S2140162B089B007460E46FFF78DF9C20705D40524B7
S2140162C0013C2ED16FF0920028E0102200210DEB48
S2140162D002001DF00AFC04A8FFF7DEF9049B002B60
S2140162E0EDD0059B002BEAD0069B002BE7D0079B41
S2140162F0002BE4D00025DFF8908008F10409B542B0
S2140163001ED30124FFF760F900F00E03062B33D1EC
S21401631010F4807002D0FFF789F9002009B0BDE8BB
S214016320F08F012016F082FB0028C9D1FFF74CF947
S21401633010F00E03FAD0022BF8D04305DAD5BFE7EA
S214016340FFF73CF9A6EB050A8400544528BF5446DE
S21401635099E8030000238DE80300CDE9054307EB28
S214016360050BCDF810B0029404AAD8F8003007CA7D
S21401637016F0CBFA2544C2E7082BA3D804FA03F398
S21401638013F48A7F9ED0BDE7F05103002DE9F04358
S21401639089B00D4614461F46DDF8488020B96FF0D7
S2140163A0860009B0BDE8F0830029F8D0002AF6D0AF
S2140163B0B8F1000FF3D0028802F44F43B3F5824FD1
S2140163C00CBF13460023DBB202D06FF08500E8E76E
S2140163D0122B01D0172BF8D122F0FF02B2F5E24FB3
S2140163E040D14288C8F80020002A36D1E200C8F819
S2140163F00020D8F80020B2F5807FE6D1122B09BF25
S214016400384B00221A681B6905EB040608BFD21830
S21401641000231846224412F801CD16F8011D084340
S214016420B1EB0C010CBF4FF0FF3C4FF0000CB54236
S2140164300CEA030343EA0103EDD10028AFD0002B99
S214016440ADDA109B9C4249D82246294638461DF0B3
S21401645025FB119B00201C60A3E70732B4EBD20F8B
S214016460C7D09CE72A78042A99D1621ED200520826
S214016470B2F5807FC8F80020A7D1122B05F10103E1
S21401648018BF4FF000094FF0400205934FF000038C
S2140164900ABF144E4E46D6F80C90CDE90623FFF7F8
S2140164A083FC00287FF47DAFCDF80C90D8F800303F
S2140164B00733DB08029308AB13E903008DE80300FA
S2140164C0059B96E8070016F06EFA0646FFF778FC7D
S2140164D000287FF466AF002EB3D060E76FF0890026
S2140164E05FE700BF585103002DE9F041069F0C46B7
S2140164F01646054610B309B302B9FBB96288B3EB79
S214016500D20F4FEAD20819D34C22002128461DF09B
S214016510ECFA0D4B27F47E129A4212D1204616F061
S21401652080FB044638B942463146281D1DF0B6FAAE
S214016530C5F824802F602046BDE8F0816FF0860400
S214016540F9E76FF08504F6E70002C0032DE9F04194
S2140165500E4614460546002840D000293ED012B902
S2140165600020BDE8F08103681F4823F47E138342B0
S21401657037D1AF6BE7B1C7F1100807F128004245E4
S214016580284404D21DF08AFA3C44AC63E8E742464C
S2140165901DF084FA1022103C3C19AA63E0D028466C
S2140165A005F1280116F059FB0028DAD14644A86304
S2140165B0102C0CD9671E27F00F073A46314628469D
S2140165C016F04BFB0028CCD1E41BC9D03E44224632
S2140165D0314605F128001DF061FAD6E76FF0860016
S2140165E0BFE76FF08800BCE70002C0032DE9F04367
S2140165F088461F4605468BB070B169B163B1036822
S214016600234923F47E1088423ED113F47C1FC3F342
S214016610054604D0102E03D96FF086042AE0102612
S21401662096422BD8FFF7C0FB044618BBAB6B05F1AF
S2140166302802CDE901236B6A2A1DCDE90423102324
S214016640CDE9083007AB1A460390069005F13C09E0
S21401665001A904A8CDF81C90FFF7FEF80546FFF740
S214016660AFFB04466DB928B93246494640461DF08F
S21401667015FA3E6020460BB0BDE8F0836FF0890442
S214016680F8E76FF09204F5E76FF08504F2E700BFD4
S2140166900002C00307B56B46054A1068516803C37C
S2140166A06846FEF7CFFA002003B05DF804FB00BF92
S2140166B0FC51030013B50024064A6846536F43F0A5
S2140166C00103536700948DF80440FEF7F3F9204662
S2140166D002B010BD0040005030B58BB06C46174D6F
S2140166E00FCD0FC40FCD0FC495E8030084E8030057
S2140166F0134BD3F84C21120317D4D3F85041E4B20C
S2140167008DF81940FEF712F8204480F308008DF842
S21401671018000C48FCF7DAFF6846FDF721FF322027
S214016720FEF73CF800200BB030BD074B1C884FF637
S214016730FF739C4208BF8C24E2E700BF04520300AB
S2140167400080E00F00F049020001E00F6FF0040244
S214016750502110B50A480B4C12F0800FD3B21BBF64
S21401676003F00F03043BA3181B1802F101020CBF30
S21401677083F800131976402AEED1002010BD00BF21
S21401678000ED00E000E100E010B5044615F0ACFEB7
S214016790024B1C6015F0ACFE002010BD781D0020D9
S2140167A010B515F0A1FE034B1C6815F0A1FE20469E
S2140167B010BD00BF781D0020034B0222186800237D
S2140167C08068194613F090BCF80B002030B51446CB
S2140167D0054687B0104616F021FB636902468342E0
S2140167E03CBFD4E903315B181B1A7BB10F4928461D
S2140167F003910021CDE90131012304940093D4E9EA
S214016800001315F03DFD002007B030BD0122627671
S21401681094F82D20002AF6D084F835301321E36948
S214016820204698472046636A9847ECE7CD67010003
S2140168302DE9F04788B0044688461746994615F074
S2140168405AFE8246002F7AD0237E03F0FF02002BE9
S21401685000F0A280204616F0E1FA6669B04205D142
S214016860637ED4E903521544AD1B01E0F9D9851BBB
S214016870BD4228BF3D4615F03EFE94F82D30064633
S214016880002B6DD12A46404661691DF007F9636900
S2140168902F462B44636121E0037803F0FD011129A3
S2140168A05BD1216B814205D1A3F111014B424B41D2
S2140168B084F83430013F6369216B01328B4203F166
S2140168C0010308BF2363636195426069E4D1D4E99B
S2140168D00323216B1344994200D122630025D4E996
S2140168E0032361691344994208BF6261207A657681
S2140168F0FDF78EF9204616F091FA6369834232D18C
S214016900257694F82D30E568656103B12563204648
S214016910636A9847214B2A4603930023029323690F
S214016920216801930123207A00930494636815F08B
S214016930A7FC207AFDF78CF9304615F0E2FD5046AB
S214016940C9F8007015F0DDFDD9F80030002B0CBF3A
S2140169501B20002008B0BDE8F08708F8013BAAE735
S2140169602F460022B0E70123207A23760DF11E017F
S214016970FDF7D6F99DF81E30002BDAD00DF11F0178
S214016980207AFDF7A5F99DF81F100029D1D12246DE
S214016990207AFFF71BFFCCE71746D0E7CD6701004B
S2140169A0002808DB0123420900F01F0003FA00F06B
S2140169B0014B43F82200704700E100E0002809DBA4
S2140169C00122430900F01F0002FA00F0024A603378
S2140169D042F82300704700BF00E100E070B50446AE
S2140169E00568FFF7DDFE844202D10020FFF7CCFEEA
S2140169F095F93600FFF7E2FF95F93630002B0DDBEF
S214016A0001215A0903F01F0301FA03F31849203242
S214016A1041F82230BFF34F8FBFF36F8F95F93700E0
S214016A20FFF7CCFF95F93730002B0DDB01215A0912
S214016A3003F01F0301FA03F30D49203241F8223017
S214016A40BFF34F8FBFF36F8F287AFDF721F9287AAE
S214016A50FDF784F8FDF760F800232846C4E9003303
S214016A60C4E90433A360AB6ABDE87040184700BFB1
S214016A7000E100E02DE9F0410C461546064686B0D9
S214016A804022002120461F461DF02FF895E80300FE
S214016A9000232A692376EB6884E80300C4E904230B
S214016AA02A7DE36084F82C20AA7D2363012384F8E1
S214016AB0343084F835300C9B84F82D2023620D9BEE
S214016AC0E76163620E9BA3622B7A84F836306B7A99
S214016AD084F837302D4B346073602D4BB3602D4BEB
S214016AE033612D4B73612D4BF360FDF75DF838B1C3
S214016AF02B4B984204D01024204606B0BDE8F08106
S214016B00002104F10800FCF7D7FF07460028F2D160
S214016B104FF00108234B3362234B84F83C80B3616A
S214016B20224BF3619DF8403084F8390084F83B30FD
S214016B309DF83C30204684F83A30697D84F83880E8
S214016B4016F07CF995F90900FFF738FF95F9090069
S214016B50FFF726FF164B0494CDE902732369CDE9AE
S214016B6000836368E2682168207A15F089FB044691
S214016B700028C0D195F90800FFF720FF95F9080015
S214016B80FFF70EFF3046FFF7FFFDB5E78DCE02009B
S214016B90316801000BCE020011CE0200DD69010052
S214016BA0038000F0E1CD02003DCE020017CE0200C8
S214016BB0CD6701002DE9F04101271C46594B86B0EF
S214016BC00293594B0C9D0193584B904600930A46ED
S214016BD0CDE903772946564BFFF74CFF06460028BA
S214016BE07BD1236839462B6463683A206B64637AE9
S214016BF085F84930237A85F84830E37A85F84B30B2
S214016C00A37A85F84A30637B85F84D30237B85F877
S214016C104C30E37B85F84F30A37B85F84E30FDF78B
S214016C2095FB3B460422617A207AFEF7A1F83B46A3
S214016C300222E17AA07AFEF79BF839466068FDF7F2
S214016C4085FB88F8006041462068FEF7F7FA1422B3
S214016C50637C5B0103F1A04303F57033C3F81C2684
S214016C60617A227A42EA0142C3F83426E17AA27AAC
S214016C7042EA0142C3F82C2685F8506098F819308C
S214016C80032B4DD8DFE803F01A022D470123002716
S214016C9085F8503000230222617B207BFEF768F8DE
S214016CA0637B227B617C42EA0342224B49015A50B4
S214016CB00422236803F58053DA65AFB90422237AE8
S214016CC0052185F84830637A85F849302B6C2068B1
S214016CD003F58053DA6415F038FC304606B0BDE89B
S214016CE0F081022385F8503000230422E17BA07B4B
S214016CF0FEF73EF8022741F21C61627C0E4B03EB65
S214016D0042104750E07BA17BB13241EA004103EBE0
S214016D1042139960D2E70323012785F85030B9E77B
S214016D202326DAE7CFCF0200ABCF0200B7CF0200AF
S214016D304BD0020024D6035000C00350BFF35F8F30
S214016D40074B5A6A22F480325A62D3F8942022F012
S214016D500102C3F89420BFF34F8FBFF36F8F7047C4
S214016D6000ED00E070B52648264CFFF7E7FF8442A9
S214016D7008BF4FF08043244A18BF20F01F03D2F803
S214016D80C01018BF203B21F0FF0141F0A001B3F174
S214016D90005FC2F8C0100CD31C4D1D4E296843F08D
S214016DA00103C2F898100131C2F89C60C2F8A03005
S214016DB02960844210D01548164B0268124923F008
S214016DC01F0343F00303C1F89820C1F89C30124B0F
S214016DD00132C1F8A0300260BFF35F8F05220A4B73
S214016DE0C3F894205A6A42F480325A62BFF34F8F36
S214016DF0BFF36F8FBFF34F8FBFF36F8F70BD00BFB1
S214016E00240D0020FC0E002000ED00E07C1D00207B
S214016E10030000201B0F0020E1FFFF3FF8B51446DA
S214016E20FFF78CFF1F2C27D90027C2062A4D1CBF4F
S214016E3020F01F0020302A68CB06284B18BF21F00F
S214016E401F01FCB2A24219D8D3F8C04020F01F009F
S214016E5024F47F4444F4807421F01F01C3F8C04039
S214016E6040F00300C3F8982041F003010132C3F853
S214016E709C00C3F8A0102A6000201AE0C3F89840CE
S214016E80D3F89C40D3F8A06024F01F04A04226F05B
S214016E901F0601D1B142EFD0B04201D8A14207D2BC
S214016EA0D3F89840013724F0FF04C3F89840C8E7A8
S214016EB02820BFF35F8F0522084BC3F894205A6A37
S214016EC042F480325A62BFF34F8FBFF36F8FBFF326
S214016ED04F8FBFF36F8FF8BD7C1D002000ED00E0E3
S214016EE0BFF34F8F0549064BCA6802F4E0621343AD
S214016EF0CB60BFF34F8F00BFFDE700BF00ED00E0A2
S214016F000400FA05054B1A782AB95B78002B14BFE2
S214016F100220032070470120704700BF552900203A
S214016F200329F8B598BF124B05460E468CBF0024C0
S214016F305C5C032805D8DFE800F002080B0E44F07D
S214016F4002040C4B1F684FB9F8BD44F00804F8E77B
S214016F5044F02004F5E744F08004F2E77B681A6801
S214016F60144203D0314628465B6898473F68EAE7F3
S214016F702C520300A41D002038B5104D2B78ABB160
S214016F800F4C23781BB100F097FB002323700020E1
S214016F9016F0BAF80B4C50B100F0E0FB00230121CB
S214016FA020782B70FFF7BCFF0123237038BD012228
S214016FB0054B1A702278054B1A70F7E75429002002
S214016FC04F2900204D290020532900205A2900204E
S214016FD010B515F089FA064B04461B781BB1BDE8BF
S214016FE0104015F085BAFFF7C7FF2046F7E700BF48
S214016FF04E290020002814BF0121FF21074A1378DB
S2140170000B44137008D0064B1B78012B04D9054B93
S2140170101B780BB9FFF7B0BF704700BF552900209A
S2140170204D2900205329002070B515F05DFA124E47
S214017030054633789BB900F0C5FC044620B12846C6
S21401704015F056FA204670BD0C4815F056F800F0BB
S2140170506BFF0B4B1C6000F07BFD0A4B186000F0C9
S21401706009FA16F053F8084B002418600123284645
S214017070337015F03DFAE5E750290020A41D0020E5
S214017080AC1D0020A81D0020A01D002000292DE910
S214017090F34114BF0121FF21254A00F1FF30135CA3
S2140170A00B4413543AD0234E3178012936D9FFF7D1
S2140170B029FF0128044634D81F4F15F015FA3B78EE
S2140170C01BB31E4D2B781BB901222A701C4A137064
S2140170D0DFF8708098F8003033B1019000F0ECFAD8
S2140170E00023019888F8003015F002FA012016F006
S2140170F00BF815F0F9F92B782BB1019000F02EFB67
S214017100002301982B7000233B7015F0F1F93078BD
S214017110A04203D02146FFF703FF347002B0BDE85A
S214017120F0810329F3D10228F1D115F0F3FFEEE740
S214017130552900204D290020542900204E290020E1
S214017140532900204F29002010B5044615F0CCF92C
S214017150002C14BF0121FF21064A13780B44DBB231
S2140171601370B3FA83F3BDE81040034A5B0913704A
S21401717015F0BEB9582900205729002068B515F02A
S214017180B3F9094B06461B78012B04D815F0B0F964
S2140171900025284668BD054B1D6800F029FB0544FF
S2140171A0304615F0A5F9F4E74D290020AC1D002066
S2140171B038B54160044615F097F90546214604485E
S2140171C014F09EFF2846BDE8384015F091B900BF7F
S2140171D0A41D0020054B1B685843054B00F5742081
S2140171E000F23F20B0FBF3F0704700BFA81D00205F
S2140171F040420F002DE9FF47EFF3108672B600E01C
S21401720000BF14F01EFF002800F09B80704D714FE8
S2140172102B7823B10020FFF7EDFE00232B70FFF73C
S21401722071FE0446002800F09380841EE4B2012C0F
S21401723040F29680FFF766FE0128804604D9664B29
S2140172401B780BB900F0BCF9644CDFF8B0912078DC
S214017250DFF8ACA140450AD0002389F800309AF83F
S214017260003013B94146FFF75BFE84F8008099F8B9
S21401727000303BB12378022B04D1002389F800307B
S2140172801CF032F9B8F1010F0FD9DFF84C8198F8EC
S214017290003053B9524B1B7823B900F007FA01228C
S2140172A0504B1A70012388F80030207800F08AFAD3
S2140172B09AF8003013B14C4B1B78237000E000BFE6
S2140172C006B962B6EFF3108672B6484B1A7852B119
S2140172D000221A70444B20781B78984203D1012172
S2140172E02170FFF71DFE384600F0A6FB14F0B9FE2C
S2140172F0804600288CD1384F89F800003B789BB136
S214017300DFF8E0908AF8000099F800301BB100F031
S214017310D3F989F80080002015F0F6FE00284ED03B
S21401732000F01CFA00233B702B7823B10020FFF7F6
S21401733061FE00232B7000212078FFF7F1FD00236A
S214017340237000E000BF06B962B604B0BDE8F0875E
S2140173502B78002B3FF46EAFFFF74CFE2C7069E7DD
S214017360002003A900F0ACFB044600287FF462AFBE
S2140173701F4B039A1B689A4205D80120FFF73AFE75
S21401738001232B7056E71B4BD3F8008000F030FA30
S214017390039B80449845F0D200F042FA00280CBFC7
S2140173A000230423039943F00203CDE90043384642
S2140173B02346114AA1EB080115F0ADFE3AE701207C
S2140173C000F000FA06B962B6EFF3108672B6A2E7CD
S2140173D059290020801D0020542900204D29002015
S2140173E0582900204F2900205A2900205229002020
S2140173F0A01D0020AC1D0020D16F010057290020E0
S2140174005329002010B515F06FF80022044B1C78A4
S2140174101A7015F06DF800F0C9FC2043C0B210BD1B
S2140174205129002073B5114E04463378834212D099
S21401743000238DF8043080B102238DF8053001A8B1
S214017440FDF7D8FA0A4D402054B1FFF7C3FE2B686A
S214017450181A2860347002B070BD8DF80500EEE78A
S214017460FFF7B8FE2B681844F3E700BF090D0020AC
S214017470F41D002073B5002401A88DF80440FDF723
S2140174807BFB2046FFF7CEFF414A4249136F424835
S21401749003F007030B60D2F80011404D01F0030121
S2140174A001604FF400203E49032B48664FF400303C
S2140174B0486601F598318969C1F3400129705ED0AB
S2140174C0D2F8203103F00303981E43424341D2F819
S2140174D02421344C02F00702022A08BF43F00103BC
S2140174E04FF4C8702370FFF775FE2F4B2F4A1860B4
S2140174F00A2316682E49013B13F0FF0341F8040BDB
S214017500F9D100EBC003304418442B781060294DA4
S2140175106BB323781E4A3BB9D2F8003103F003035C
S214017520591E4B424B412370D2F8003103F003033E
S214017530022B26D0032B27D0012B18D1FCF7C0F83D
S214017540A8B11D4B411EDC680023024608461946B9
S214017550C4F30B04194E013404EB8404E4FB060166
S21401756012F064FAFFF736FE2B68184428601F20D5
S214017570FFF730FE2B681844286002B070BD012367
S214017580A5E7FCF7B7F8DBE714F0AFFDD8E700BFD7
S21401759000800050BC1D0020B01D00205C2900208A
S2140175A0009000505F290020F01D0020C41D00201F
S2140175B0C81D0020F41D002000C0015040420F00ED
S2140175C0074A0849D2F8203103F003030B60D2F8CA
S2140175D02431054A03F00703136014F097BF00BF78
S2140175E000800050B41D0020B81D002008B5104BC7
S2140175F01A78C2B100221A700E4B1A6F22F00702D7
S21401760042F001021A67D3F8202142F00302C3F8C0
S2140176102021D3F8242122F0070242F00302C3F806
S2140176202421FCF737F80122034B5A6708BD00BF37
S2140176305D2900200080005000E000500122154B1B
S21401764010B55A67144B154C1B7813B3022015F06E
S214017650F8FDF0B100F068FAD8B1A36DD90302D5F0
S214017660E36D9A0715D40D4B9B6DDB0711D40122F0
S2140176700B4B1A7015F0D0FDBDE81040094B0A4AB5
S2140176801860136F23F0070343F003031367FCF737
S21401769001B810BD00D000505F29002000C0005086
S2140176A05E290020C01D0020008000500122014BF1
S2140176B01A7070475D290020F8B51F4B1B78002B08
S2140176C039D01E4C2378B3B91D4B9A6DD10302D520
S2140176D0DA6D92072FD49B6DDB072CD415F09CFD39
S2140176E0184B194A1860136F23F0070343F003037E
S2140176F01367FBF7CFFF15F08FFD124B134D1B6879
S214017700134EC01A2B78134F56F8232046F8230041
S214017710111A3A681048521A0A213A600932B2FB25
S214017720F1F20133DBB20260B3FBF1F201FB12337B
S2140177302B7000232370F8BD5F2900205E290020EE
S21401774000C00050C01D0020008000505B290020B2
S214017750C81D0020C41D0020F01D002008B514F02F
S214017760D7FE124B12491A6F096822F007020A4324
S2140177701A671049D3F82021096822F003020A4348
S214017780C3F820210C49D3F82421096822F0070206
S2140177900A43C3F82421094B1B7813B10122084B75
S2140177A09A62BDE80840FBF775BF00BF0080005035
S2140177B0BC1D0020B41D0020B81D00205F2900203C
S2140177C000E0005002280AD003280BD001280CD173
S2140177D0064A136923F00403136130BF7047002083
S2140177E0FDF714B90020FDF73DB9704700ED00E044
S2140177F0054B1B781BB1054B1B6803EBD303044AEF
S21401780010681844704700BF5F290020F01D002053
S214017810F41D00200122014B1A7070475F290020D9
S214017820014B1878704700BF5F29002010B515F08E
S21401783001FD0A4C0A4B19682368C31A01B10BB93A
S214017840206010BD4A699A423ABF9B1A0022D21A9A
S2140178504A6128BF00238968F0E700BFF81D0020B1
S214017860041E0020C38870B504460D463BB9FFF7D9
S21401787085FC8542064602D215F039FC35460F498D
S21401788065610B68ABB90C60A36011E0AD1A9A682C
S214017890184665612AB113465A69AA42F6D950B10B
S2140178A01A4613468460A36013B15969491B59618E
S2140178B070BD0020F0E70C60F5E700BF041E002055
