:020000021000EC
:10200000C00A0020093901004B0303004B03030001
:102010002F1503004B0303004B0303004B03030086
:102020004B0303004B0303004B0303004B0303006C
:102030004B0303000CD40300DB0103004B0303003C
:102040004B0303004B0303004B0303004B0303004C
:102050004B0303004B0303004B0303004B0303003C
:102060004B0303004B0303004B0303004B0303002C
:10207000A98B01004B0303004B0303004B03030038
:102080004B0303004B0303004B0303004B0303000C
:102090004B030300E94001004B0303004B03030023
:1020A0004B030300C5420100A14201004B030300A2
:1020B0004B0303008DDC02004B030300D5E6020056
:1020C000E5B70300E1B70300C5DE0200F1B7030086
:1020D000E9B70300ADE60200EDB7030015E7020023
:1020E000A5C0020069C2020085E702004B0303009D
:1020F0004B0303004B0303004B0303004B0303009C
:102100004B0303004B0303004B0303004B0303008B
:102110004B0303004B0303004B0303004B0303007B
:102120004B0303004B0303004B0303004B0303006B
:102130004B0303004B030300993301009D0203008E
:10214000002370B5404C05468AB0E36318B100889F
:1021500023600CF061F93D4828F0A6FE3C4E3D4B53
:10216000304633603C4B736023F03CFD0021304629
:1021700015F066FF32A3D3E90023A062C4E9062369
:1021800023F03BFDD4E9062319431043C4E90601BB
:10219000CDE900014FF0FF334FF0FF32A06A28F085
:1021A000FEFE02224FF0FF31A06A28F0FDFE012062
:1021B0000BF0B2FE4FF4007300222849A06A28F009
:1021C00046FFB0F5007F38D100239422CDE90733D4
:1021D00009933C23CDE9033205939623A06A03A912
:1021E000069316F04BF835B3287C0CF085FA0546BB
:1021F000F0B9A06A29F009F80CF02CFA0BF06EFE89
:1022000020B14FF48070002109F0D8FD0BF076FE6C
:1022100020B14FF40060002109F0D0FD23F0B7FD9C
:10222000012015F061FF0E4A0E49A06A23F0D8FC88
:1022300028460AB070BDFF20D7E70725F8E700BFA2
:102240000DD5015520000000A80F0020690345ECC2
:10225000E82300209DDD0100F8230020E821002074
:10226000895B0300C95B03000348044B834202D02F
:10227000034B03B118477047340F0020340F002080
:1022800000000000064B0749C91A891048BF0131F8
:10229000491003D0044B0BB101481847704700BFE9
:1022A000340F0020340F00200000000010B5064C51
:1022B000237843B9FFF7D8FF044B13B10448AFF3B9
:1022C00000800123237010BD9A2B00200000000025
:1022D000E41E040008B5054B1BB105490548AFF3E2
:1022E0000080BDE80840FFF7CDBF00BF0000000040
:1022F00008120020E41E0400A3F5803A704700BFD6
:10230000174B002B08BF134B9D46FFF7F5FF00212D
:102310008B460F461348144A121A29F01EFB0E4B27
:10232000002B00D098470D4B002B00D09847002081
:10233000002104000D000D48002802D00C48AFF326
:1023400000801CF0CBFE200029001DF03AFF1CF09D
:1023500035FC00BF00000800000000000000000085
:10236000C00A0020340F0020A42E0020000000002E
:102370000000000070B504460D4621B94FF41671F7
:1023800008481DF00CFF0E46062056F8043F33B9EE
:1023900006288ABFA3682B681B68636070BD20464F
:1023A0009847F2E7A0C8030038B5036804462BB18C
:1023B00083681BB145680B4A954203D0C8210A487F
:1023C0001DF0EDFE9847082801D0D221F7E7A36859
:1023D0001B6863602046A168FFF7CCFF0728F9D887
:1023E00038BD00BF8CC80300A0C803002DE9FF4121
:1023F00004460F46456801B125B94FF496712F4840
:102400001DF0CDFE2E4639462046736898470128B8
:1024100024D83668002EF6D104B0BDE8F081EB6810
:102420000BB1204698472D6820E0906828B104A899
:1024300000EB830040F8102C013312681FE05DF8B8
:10244000253020469B689847013D1DE0062023E08B
:10245000EB680BB1204698472D6825E00628DBD9AC
:1024600009281BD1D4F8088067686560B542D6D1C9
:1024700041462046FFF77EFF3A46002361688A42C4
:1024800001D0042BD1D15D1E6B1CD8D13B69676094
:10249000002BDBD02046984765682E46002706288B
:1024A000BAD9D4F80880A760AE42D1D141462046BF
:1024B000FFF760FF65682E46F1E700BFA0C8030084
:1024C000024B0360024BC0E90131704780C8030032
:1024D0008CC803000122014B1A7070479C2B00200E
:1024E000024600234FF0FF3070B5084E994200D8E5
:1024F00070BDD45C6040082440F300053540013CC9
:1025000085EA5000F8D10133F0E700BF2083B8ED31
:10251000802370B50C4C0125204623701223002621
:1025200000F8033F29466570A670FFF7D9FF08221F
:102530006060214630461EF058FE044B186000B122
:10254000FEE7034B1D7070BD2B2C002020120020D5
:102550009B2B0020802370B50C4C01252046237056
:102560001923002600F8033F29466570A670FFF77F
:10257000B7FF08226060214630461EF036FE044B4D
:10258000186000B1FEE7034B1D7070BD2B2C0020BE
:10259000201200209B2B0020802310B5104C00221D
:1025A00023702123A2706370E37000F12002231DC9
:1025B00050F8041B904243F8041BF9D1212109482B
:1025C000FFF78EFF28226062054900201EF00DFEF5
:1025D000054B186000B1FEE70122044B1A7010BDD4
:1025E0002B2C00202E2C0020201200209B2B0020C2
:1025F000802370B50C4C012520462370152300263E
:1026000000F8033F29466570A670FFF769FF0822AE
:102610006060214630461EF0E8FD044B186000B1B2
:10262000FEE7034B1D7070BD2B2C002020120020F4
:102630009B2B0020802370B50C4C01252046237075
:102640004023002600F8033F29466570A670FFF777
:1026500047FF08226060214630461EF0C6FD044B4D
:10266000186000B1FEE7034B1D7070BD2B2C0020DD
:10267000201200209B2B0020FF230374014B83605A
:1026800008207047ACC90300014B836008207047E5
:1026900090C903000022024B05201A70704700BF4A
:1026A0009B2B0020014B83600820704748C9030022
:1026B000014B8360082070470CC9030008B502482D
:1026C0001DF0E6FE052008BDF4D3030010B5044656
:1026D00000F092FF044B1B68187B0FF00DF8E060D0
:1026E00000B1FEE7042010BDD01200200B681A4A8A
:1026F00010B5934204461FD009D802F17C429342A0
:1027000011D002F14072934223D0002010BD134A31
:102710009342FAD1124B01211B6818790EF0FEFF8B
:10272000B0B9E06006E00E4B0E481B68D3F8051008
:102730001CF0B0FB0220E9E7094B1B6818790EF08A
:102740003FFF00B1FEE7084BE0600720A360DDE734
:10275000FEE7064BF9E700BFA0000F04A0000F0939
:10276000D0120020A8C8030060C9030054C90300A8
:1027700008B5FFF7CDFE02481DF08AFE042008BD13
:10278000F4D3030008B5FFF7E5FE02481DF080FE14
:10279000042008BDF4D3030008B53030FFF7FCFE79
:1027A00002481DF075FE042008BD00BFF4D30300ED
:1027B00008B5FFF71DFF02481DF06AFE042008BDA2
:1027C000F4D3030008B5FFF735FF02481DF060FEA3
:1027D000042008BDF4D303000B68052B0AD0062B98
:1027E00013D10B4B1B7803B1FEE70322094B0220E8
:1027F0001A707047064B084ADB898B2B138000D870
:10280000FEE7064B8360072070470020704700BF3B
:102810009D2B00209B2B0020402B002028C903006B
:102820000B68052B0AD0062B10D1094B1B7803B17E
:10283000FEE70422074B02201A707047044B1B79F5
:1028400003B1FEE7044B8360072070470020704708
:102850009D2B00209B2B002018C903000B68052B23
:102860000AD0062B12D10A4B1B7803B1FEE70522D2
:10287000084B02201A707047054B1B7903B1FEE725
:1028800080F82030044B8360072070470020704799
:102890009D2B00209B2B0020FCC803000B68062BFF
:1028A00007D1054B1B7803B1FEE7044B836007207B
:1028B00070470020704700BF9D2B0020C4C8030054
:1028C000BB23094910B50122044600200B701EF0FD
:1028D0008CFCE06000B1FEE70222044B04481A7051
:1028E0001DF0D6FD042010BD2B2C00209B2B0020BA
:1028F000F4D303000A68234B13B59A4204463ED131
:10290000837D00210376437D08224376037D837611
:10291000FF23C376FE230377C37C4377837C8377CF
:10292000437CC37700F1180319200EF08DFE014699
:10293000E06000B1FEE72A200EF0CAFEE06000B1C0
:10294000FEE704F110000EF0C7FDE06000B1FEE705
:102950000221207C0EF00CFE0346E06000B1FEE791
:102960004FF4487200901146207C0EF0CDFDE060DF
:1029700000B1FEE70720044BA36002B010BD0020A9
:10298000FBE700BFA00001009CC9030037B50B683E
:10299000104A0446934219D00ED8052B13D10E4D80
:1029A0008E222946002001AB1EF030FC0028F7D013
:1029B0000A4B0720A36007E0094A934208D002F1BE
:1029C0008072934204D0002003B030BD00F074FB4D
:1029D0000220F9E7A0000A009D2B002084C9030013
:1029E000A000060110B50021044601200EF070FE83
:1029F000E06000B1FEE70221207C0EF0CDFDE0603A
:102A000000B1FEE703481DF01CFD00F0D9FD0420D5
:102A100010BD00BFDCD303001FB5044603A94FF46B
:102A20007A7005F0C9FE034608B1E060FEE7CDE923
:102A30000000054A039905481EF090FDE06000285B
:102A4000F4D1022004B010BDD524010024120020CE
:102A50000A68052A08D0062A0AD1064B1B78512B92
:102A600000D0FEE7FFF7D8BF034A82600720704717
:102A7000002070479D2B0020B4C803000A68052A77
:102A800007D0062A09D1064B1B7803B1FEE7FFF7F2
:102A9000C3BF044A8260072070470020704700BF10
:102AA0009D2B002038C90300002108B5044B197084
:102AB000044B1B6818689A699047042008BD00BF42
:102AC0009B2B0020D80A00207FB50A680B464B4993
:102AD00004468A4208D001F141718A4220D0042A7A
:102AE0002AD0002004B070BD454805F0BBFD054666
:102AF000E06020B943481DF0C8FC434B1D70434BB8
:102B00001B685A7BFF2A03D1414B0720A360E9E7EA
:102B1000187B0EF0F1FD00B1FEE73E4BE060F4E7FC
:102B20003A4B1B68DA79012A04D11B89012B01D1A8
:102B30001DF046FB0220D5E7597A012947D002292A
:102B400051D00029F6D11A7A334B53F82260334B17
:102B50009E4216D12A200EF0BBFD0546E06000B172
:102B6000FEE730461DF076FC2B464FF4FA71CDE9B6
:102B700000552B4A224805F07FFE08B9E060D9E7EE
:102B8000FEE7284B9E42D5D1007C0EF0DFFCE060D2
:102B900000B1FEE7244B01211B6818689A69904731
:102BA0001DF0FAFA00F028FD4FF47A7003A905F041
:102BB00003FE08B1E060FEE700231C4ACDE90033C4
:102BC00003991B481EF0CAFC0028D7D0F3E71A7AF5
:102BD000114B53F82220114B9A42ABD10EF0B2FDAB
:102BE0000028CBD0FEE71A7A0B4B53F822200B4B70
:102BF0009A429FD1002023F0A8FF9BE7A000060087
:102C000094120020F4D30300B92C0020D01200202D
:102C100078C903006CC90300E80A0020DCD3030074
:102C2000E9300100C4D30300D80A0020D5240100F4
:102C300024120020F0B5104989B00446FFF740FC8B
:102C40006A4615460D4B03F1200716461868596869
:102C5000083303C6BB423246F7D104F1300308AC57
:102C60002A4603CAA24218605960154603F10803B8
:102C7000F6D109B0F0BD00BF7926010054D00300A1
:102C80002DE9F04104461D481DF002FC238D1C4D2A
:102C9000802B1E4628BF80269B1B238580232B70FC
:102CA00020234FF00008EB70636A771D6B6033449C
:102CB0003246E16AFFB2636205F108006F7085F881
:102CC000028028F055FEE36A39463344E362E81C8B
:102CD000FFF706FC06F108039BB206F10C02E85070
:102CE0002946404692B21EF080FAE06000B1FEE74D
:102CF0000122044B1A70BDE8F08100BFF4D3030039
:102D00002B2C00209B2B002008B5094990F820208F
:102D100051F822104162074951F8221001850649F5
:102D200051F82220C262FFF7ABFF042008BD00BFAC
:102D30004CD0030044D00300C00A002037B50D6812
:102D40000446052D0FD0062D28D185211448FFF704
:102D5000C7FB144B01901B7803B1FEE7124B1D70AB
:102D6000022003B030BD0F4B1B7903B1FEE7038D8A
:102D700013B1FFF785FFF3E790F82030022B0BD05B
:102D80000A481DF085FB94F82030013384F8203088
:102D9000074B0720A360E4E7064BFAE70020E0E7D3
:102DA0002E2C00209D2B00209B2B0020F4D3030011
:102DB000DCC80300ECC803000D4B70B5186804F0C4
:102DC00023FA044600B1FEE704220A4B1A60E0220F
:102DD00018715A71084B1D682846FFF72BFF2B68A6
:102DE000224621462846BDE870401B68184700BFB0
:102DF000DC0A0020C4120020B8CA030030B55A4BC8
:102E000085B01A788AB10021012019700EF060FC9B
:102E100000B1FEE7554805F025FC044600B1FEE789
:102E200053481DF00EFB534B1C70534B1A783AB1AC
:102E300000221A70514B5249186803685B68984722
:102E4000504B1A783AB100221A704C4B4E49186810
:102E500003685B6898474D4D2B78002B3FD04C4C56
:102E60004C4821688E2201444B4B00201EF0CEF9C5
:102E7000002834D12B78013B052B30D8DFE803F054
:102E8000030818323B57444B1B68012B05D0FEE763
:102E9000414B1B68012B00D0FEE70022374B3F4916
:102EA0001868226003685B6805B0BDE830401847C9
:102EB000394A2368126813441F2B01D823600EE09F
:102EC000202B0ED10022364902AB03C983E8030050
:102ED0002A492260086801684C681946A04705B075
:102EE00030BDFEE72C4A236812681344082BE5D94D
:102EF000092BE7D0FEE7284A236812681344082B01
:102F0000DCD9092B12D100234FF47A7002A9236077
:102F100005F052FC034640B9CDE90000214A029970
:102F200021481EF01BFB0028D9D0FEE7FEE71A4A15
:102F3000236812681344082BC0D9092B12D100232F
:102F40004FF47A7002A9236005F036FC034640B9BD
:102F5000CDE90000134A029913481EF0FFFA002839
:102F6000BDD0FEE7FEE700BFBA2C0020941200207F
:102F7000DCD30300B92C0020BB2C0020B8CA03000E
:102F8000C41200209C2B0020D00A00209B2B002084
:102F9000BC1200209D2B0020C0120020C80A002077
:102FA00084D00300D524010024120020084B0949D5
:102FB00018600368002223F47F4323F007030B60AB
:102FC000E0234B71044B0A71186803685B6818476B
:102FD000D0120020B4120020B8CA0300F0B5334F5D
:102FE00087B03B6804AD1C7B5E7B072200210B2071
:102FF000009503AB0EF0F6FA00B1FEE73B68DB7A12
:10300000502B03D0532B37D007B0F0BD04F1180379
:103010000DEB03012B2E11F8082C05D02D2E21D0FD
:1030200022F07F0232430CE002F07F03632BEBD8E7
:103030000733632B02F0800201D81A4301E042F00B
:10304000640201F8082CD309214602F07F021848D7
:103050001BF020FF2B4600210B20039A0EF0F4FA00
:10306000D8B1FEE712F07F03CED0073BDBB2632B73
:1030700002F08002E5D8E0E7532E04D121460D4846
:103080001BF008FFC0E704F118036B4413F8082C89
:1030900082F0800203F8082CD5E72A460B2003991A
:1030A0000EF000FB0028AFD0FEE700BFD0120020DA
:1030B00074D003007FD0030008B50A4B1B68B3F837
:1030C00005000B2805D00E280AD1BDE80840FFF7FF
:1030D00085BF997A03F10B020EF0E4FA00B1FEE726
:1030E00008BD00BFD012002010B5074C2378772B05
:1030F00006D806481DF0CCF923780133237010BDA3
:103100000122034B1A70FAE7B92C0020F4D3030014
:10311000BA2C00200122034B1A70034B597218720B
:10312000704700BFBB2C0020C4120020054B18784C
:10313000054B1B781843054B1B78184380F00100A2
:10314000704700BFBA2C00209C2B0020BB2C002015
:103150007FB503681C4A23F47F4323F0070393429F
:103160002ED1052200211720184B0EF06DFA00B168
:10317000FEE70DF1070102A80EF0F0FA014600B1DA
:10318000FEE7BDF80C3008225BBAADF810309DF8B0
:103190000B3019208DF81230FF238DF81330FE23E9
:1031A0008DF814309DF80A308DF81530BDF80830D0
:1031B0005BBAADF8163004AB0EF046FA00B1FEE78C
:1031C00007B05DF804FB00BFA00001008CD0030035
:1031D00010B5234C01F058FB01F034FD236F23F0B0
:1031E000070343F0030323671DF0A8FA1D4B0020DB
:1031F0009B6A9B075EBF01221B4B9A62D4F8203169
:1032000023F0030343F00203C4F82031D4F824313F
:1032100023F0070343F00203C4F82431D4F840310B
:1032200023F0030343F00103C4F84031D4F86031C4
:1032300023F0030343F00103C4F86031D4F84032B3
:1032400023F0030343F00103C4F84032D4F8003202
:1032500023F0070343F00103C4F8003210BD00BFA0
:103260000080005000C0005000E0005008B502F09F
:1032700035FA01280ED1114B04205A6E4FF48023E9
:103280000F49520358BF0F4A4B6601F510410862BF
:1032900058BF536603F09AFF03F03EFF03F05EFF52
:1032A0001DF09DFFFFF794FF03F046FF00F0E6FBE3
:1032B00001F01AF8BDE8084004F094BC008000500A
:1032C0000090005000A0005030B5204D9DB009ACDA
:1032D0000FCD0FC495E80F0084E80F004FF416538C
:1032E0002822002112A80B9328F037FB184B012449
:1032F00011933823139302238DF8503015938DF8D2
:10330000583003230E2200210DF1160017938DF87B
:10331000494028F022FB4FF480120E4B03A9CDE95F
:1033200003233E238DF814303F238DF815300A4BCC
:1033300009AA0693C0230793084B0948009311ABD1
:103340008DF8204003F0D4FF1DB030BD8CD30300B6
:103350000000035A3400035ABC2C0020D412002071
:1033600044130020022905D8034B1B68186808B1D4
:10337000436A1847704700BFD80A002008B50449BF
:10338000044804F0F5FCBDE80840FFF79DBF00BF0E
:10339000E00A00206813002001481DF079BF00BF3B
:1033A00044130020014B1A6A186810474413002088
:1033B00008B505481CF0EEFF04481CF0EBFFBDE823
:1033C000084003481CF0E6BFDCD30300C4D303006D
:1033D000ACD3030001481DF055B800BFF4D303007F
:1033E00008B5064B834207D1054B1B7823B1C8B201
:1033F0000EF0E6F800B1FEE708BD00BF7013002034
:103400007C2D002030B500250368344A23F47F4327
:1034100023F0070385B0934204460295ADF80C50A3
:1034200035D002F5802293420CD0A2F182729342F1
:1034300051D12B4B1B78002B4DD005B0BDE830404F
:103440001EF052B9B0F80530232B44D1FF2304A954
:103450001A4611E903001CF071FF012814BF41F264
:10346000FC151F4B4FF0230108BF187005F0FC023C
:1034700020790EF0FFF800B1FEE71A490090237999
:10348000194A0968194800F04BF920B3FEE7B0F873
:103490000530B7EE047A07EE903AF8EE677AB0F8A6
:1034A000073067EE877A013307EE103AB8EEC77A35
:1034B00067EE877AB1EE047A67EE877AFAFE677A6A
:1034C000FCEEE77A17EE903AB3F57A7F38BF4FF407
:1034D0007A73044A136005B030BD00BFA000060235
:1034E0007C2D0020F40A0020E1330100701300203D
:1034F00004210022034B19711A6019739A6019751F
:103500001A617047A81300202DE9F8431F4B0646A7
:103510001B78ABB90325DFF87C901D4C59F8043BB0
:10352000B34207D130461CF03AFF01280AD11EF001
:1035300099F82060013D15F0FF0504F10804EDD174
:10354000BDE8F88330461CF02AFF80460028F1D100
:103550001EF088F82368C71AFA2005F01BF9B84254
:1035600002D984F80480E5E74FF47A7005F012F987
:10357000B84202D901232371DCE741F2883005F01B
:1035800009F9B8428CBF02230323F4E7350D00206C
:10359000A8130020E80A002070B500240426074D77
:1035A0002979042903D0E0B2FFF7B4FD2E7101346C
:1035B000032C05F10805F3D170BD00BFA81300204E
:1035C00038B50024094D55F8040B1CF0E8FE01281D
:1035D00004D11EF047F8064B43F834000134032CA5
:1035E000F1D10022034B1A7038BD00BFE80A002059
:1035F000A8130020350D0020064B1A784AB9012186
:1036000019700421044B19711A6019739A601975A5
:103610001A617047350D0020A8130020074B187859
:1036200050B9074B1A79042A06D11A7B042A03D110
:10363000187D031F58425841704700BF350D0020C8
:10364000A8130020094B1B785BB9094B1879042893
:1036500009D11A7B042A07D11B7D042B08BF012046
:103660007047012070470420704700BF350D0020CF
:10367000A8130020012208B5074B1A700022074B3F
:103680001A700422064B1A701F22064B1A7003F0A0
:10369000C7FD054B186008BD380D00207D2D0020AA
:1036A000370D0020360D0020C013002038B5054628
:1036B0001DF060F800230B4A14685CB1AC4206D1DF
:1036C000A96A6BB199621DF05BF8012007E02346FF
:1036D000A46AF2E7002DF3D01DF052F8204638BD61
:1036E0001160F0E7C413002010B5044698B104F04F
:1036F000B9FF2046FFF7DAFF10B194F82C300BB970
:10370000002010BD1DF036F8044A1368013B136019
:103710001DF036F8F4E72220F3E700BFC8130020BD
:103720002DE9F04385B00546914698460E469DF832
:10373000307009B9002F5CD12846FFF7D5FF044649
:10374000002836D185F82C00686305F0C7F886425A
:1037500033D905F019F82146844640F2E7304FF49A
:103760007A720023E6FB0C011BF090F84FF0FF3259
:1037700000231BF08BF82B46E88611462846CDE93E
:1037800000441D4A1DF049FF044690B9C5E9089858
:1037900085F82D702E631CF0EDFF184A136833B3C3
:1037A0001A469B6A002BFBD195620023AB621CF08A
:1037B000E7FF204605B0BDE8F08347B12B46314610
:1037C0002846CDE900440C4A05F014F8DCE7304601
:1037D00003A904F0F1FF04460028EAD12B4628464D
:1037E000CDE90077044A03991DF0F3FECCE715609C
:1037F000DBE72124DDE700BF01380100C41300200E
:1038000091F82C3013B50C4683B98B8ECA8E934237
:103810000ED243B9CDE9003320460B46104A4FF093
:10382000FF311DF0BAFEA38E0133A38602B010BD96
:1038300052B191F82D307BB101230093D1E90823D7
:103840002046096BFFF76CFF0123064A84F82C30F1
:10385000136801331360E9E7084604F003FFF3E758
:1038600001380100C81300202DE9F041144E3368DF
:1038700023B34FF00008134F1CF07CFF05463C6853
:1038800024B92846BDE8F0411CF07ABF94F82C30EA
:1038900093B1336884F82C80013B336094F82D3069
:1038A00013B92046FFF702FF28461CF069FFD4E950
:1038B000083120469847DFE7A46AE1E7BDE8F081D8
:1038C000C8130020C4130020034B1B68002B14BF37
:1038D00004200120704700BFC8130020024B186865
:1038E000B0FA80F040097047C81300200348044A2A
:1038F0000449121A92101CF029BD00BF6C23040069
:103900006C230400A42E002008B500F02FF8FFF768
:10391000EDFF124B12498B4212D30020114B12497A
:103920008B4218D3FEF7ECFC186850F82240586818
:1039300040F82240013298688242F5D30C33EAE71E
:103940000022F8E71C6844F8220001325C68A242B9
:10395000F8D30833E4E70022F8E700BFEC1E0400C8
:10396000F81E0400F81E0400F81E04004FF4004185
:103970004FF0FF30124B134A10B59A60D3F88820ED
:1039800042F47002C3F888200F4A916601F1884121
:1039900001F5005210664FF6DF7050660220C3F842
:1039A000D000BFF34F8FBFF36F8F08244FF4403325
:1039B0000648C0F88041D36004600B6110BD00BFB1
:1039C00000ED00E0002001000090005000E100E068
:1039D000014B1868704700BFFC0A0020084B1B6FA2
:1039E00003F00703022B04D0032B05D0012B05D0D5
:1039F000FEE7044B18687047034BFBE7034870472A
:103A000000800050FC0A0020040B0020002D310132
:103A100008B5FFF7E3FF054B1B6FC3F30333013317
:103A2000B0FBF3F0024B186008BD00BF00800050EF
:103A3000F80A00200048704700B4C404014B18681D
:103A4000704700BF040B0020054B1860054B1B6F2F
:103A500003F00703032B01D1FFF7DABF704700BF64
:103A6000040B00200080005000487047002D3101F9
:103A7000014B1868704700BF000B002000239B6AB1
:103A800010B5B3F5903F11D219680A4A91420DD191
:103A9000094C227812F0FD0F01D0002010BDDB6927
:103AA00098470028FAD101232370F6E74FF481707C
:103AB000F4E700BF07B0CD5E7E2D00204FF000532D
:103AC000074A1A60BFF34F8F0649074BCA6802F4D2
:103AD000E0621343CB60BFF34F8F00BFFDE700BF31
:103AE00002020FF000ED00E00400FA050346054A6B
:103AF0000549106803448B428CBF4FF0FF301360C0
:103B0000704700BF080B002000800020F7B5046854
:103B1000012105463A2000F0DDFD002301226179F4
:103B2000207901F0E9FB14233021227911FB0231C5
:103B300001F1A04101F5703109686379D940C943A9
:103B4000A37901F00101022B217017D100F022FBB3
:103B5000164A2B466179207900F046FBFF28024681
:103B600060790ED12A46114900F068FB0123024614
:103B700061792079CDE9003301F064FB002003B0C6
:103B8000F0BD01262779002301460096384601F052
:103B900013FC2A460549607900F050FB0023617947
:103BA00002462079009301963346E5E7A903030016
:103BB00008B501213A2000F08DFD032101230422E4
:103BC000002001F099FB00201CF042FE0122214B55
:103BD0004FF46070C3F844241CF0E7FC1E4B00F562
:103BE000D520D3F8F02000F2FC4042F00102C3F8E7
:103BF000F020D3F8FC2042F08072C3F8FC20174A72
:103C0000A3F55D431A60164B0222B0FBF3F0154B8F
:103C100001381861C3F8F0204FF48072C3F8042310
:103C20004FF06043104A0020C3F8B02F0F4AC3F88A
:103C3000802ED3F8002E42F48072C3F8002EFF22AB
:103C400083F82020D3F8002E22F48072C3F8002ECF
:103C500008BD00BF00D0035000ED00E0FF030040AE
:103C6000F8590D00000004E055CEACC50900010074
:103C700010B5012243780178847830209A40054BB2
:103C800000FB01331CB942F210015A5010BD41F241
:103C90001001FAE700C0035010B501224378017803
:103CA000847830209A40054B00FB01331CB941F267
:103CB00010015A5010BD42F21001FAE700C0035043
:103CC0002DE9F04F9A46564B85B01B7806460F46B5
:103CD0001546DDF83C909DF844B0DDF85080002B8F
:103CE00000F09780072A00F296800E9B002B00F0D0
:103CF0009280B9F1000F00F08E80129BB3F5006F37
:103D000000F38980012803D1109B002B00F08380F1
:103D1000444B03EB05131B7B002B7ED0424C10223F
:103D20000021684627F019FE04EB45141022A7BBBA
:103D30003946204627F011FE43F210036380BBF1A1
:103D4000000F03D1E37843F00303E370364A0E9B80
:103D500002EB451CCCE90193129B6901581E9DF8AA
:103D60004C30C0F30A0003F003039B0643EA001E35
:103D700053582E48012E00EA03004EEA0003CDF806
:103D800000A0535017D0B8F1000F2ED19CF802308C
:103D900068F304138CF8023027E00021204627F056
:103DA000DCFD4FF444736380BBF1000FCED1E378A8
:103DB00043F03003C9E713230CF1100ECCF80C309C
:103DC0009CE80F008EE80F006FF00301DCF81C2068
:103DD000109B61F39F02012FCCF81C20CCF814300B
:103DE00003D1CCF81890CCF8043000270D4A2901F3
:103DF00002EB051342F80180159A28465A6069467D
:103E000022469F605E7301F053FB384605B0BDE863
:103E1000F08F0748FAE70748F8E70748F6E700BFDA
:103E20007F2D0020CC140020CC1300200F80FFF346
:103E3000028000F0018000F0078000F038B5124BDE
:103E400005461B78DBB1E0B11CF094FC0F4A00235F
:103E50001146147B54B92B6001251A0101EB0313A1
:103E60001D738C501CF08CFC204638BD0133082B90
:103E700002F11002EDD11CF083FC0548F5E705487E
:103E8000F3E70548F1E700BF7F2D0020CC140020A8
:103E9000048000F0028000F0018000F038B51CF0D2
:103EA00069FC002305460B4A147B6CB90133082BCF
:103EB00002F11002F8D101F09DFA074B28461C7060
:103EC0001CF05EFC204603E028461CF059FC034829
:103ED00038BD00BFCC1400207F2D0020058000F0ED
:103EE0000D4B10B51B78044693B1072812D81CF06F
:103EF00041FC0A4B03EB04131A7B2AB100241C7308
:103F00001CF03EFC204610BD1CF03AFC0448FAE7C9
:103F10000448F8E70448F6E77F2D0020CC14002081
:103F2000068000F0028000F0018000F0154B13B510
:103F30001868002301908DF804301CF01BFC124B14
:103F40001C7824B11CF01CFC104802B010BD0122EA
:103F50001A701CF015FC0E4B01A81C731C7783F81B
:103F60002C4083F83C4083F84C4083F85C4083F855
:103F70006C4083F87C4008238DF8073001F066FA26
:103F80002046E2E75CD403007F2D0020038000F090
:103F9000CC1400200A4A08B512785AB107280BD869
:103FA000084A02EB00131B7B43B1002101F040FAE9
:103FB000002008BD0448FCE70448FAE70448F8E795
:103FC0007F2D0020CC140020028000F0018000F042
:103FD000078000F00A4A08B512785AB107280BD8B2
:103FE000084A02EB00131B7B43B1012101F020FAC8
:103FF000002008BD0448FCE70448FAE70448F8E755
:104000007F2D0020CC140020028000F0018000F001
:10401000078000F00A4A08B5127852B107280AD87A
:10402000084A02EB00131B7B3BB101F08BFA002026
:1040300008BD0548FCE70548FAE70548F8E700BF72
:104040007F2D0020CC140020028000F0018000F0C1
:10405000078000F00D4B1B7893B1072812D889B167
:104060000B4B03EB00131B7B73B10A4B1A6D01233F
:104070008340134214BF0123002300200B707047BC
:104080000548704705487047054870477F2D002058
:10409000CC14002000000450028000F0018000F0E9
:1040A000078000F00B4A10B512780C4662B1072861
:1040B0000CD859B1084A02EB00131B7B43B101F045
:1040C00053FA2070002010BD0448FCE70448FAE7CA
:1040D0000448F8E77F2D0020CC140020028000F077
:1040E000018000F0078000F0184B2DE9F0411F6DB2
:1040F0005B6D1F4000D5FEE701260025144CDFF85C
:104100005880374218D02368C8F85060A3B1A1681E
:10411000284601316268A1609847637B012B0BD16F
:1041200050B90C4B03EB45131A7B60F341021A7331
:104130001A7F60F341021A770135082D4FEA4606CF
:1041400004F11004DDD1BDE8F08100BF000004508F
:10415000CC140020CC1300200020045070B504467D
:1041600001250B4E04B970BD94FAA4F0B0FA80F0AA
:1041700005FA00F306EB001224EA03045368002B4F
:10418000F0D0117B11B191689847EBE79847E9E7C8
:104190004C15002008B5192000F080FD28B14FF023
:1041A0000072074BC3F880211A601A2000F076FDD8
:1041B00028B14FF08062024BC3F880211A6008BD1D
:1041C00000E100E038B505460C461CF0D3FA0022A9
:1041D000044B03EB05135C601A73BDE838401CF018
:1041E000CFBA00BF4C150020F8B504460D4617465F
:1041F0001E461CF0BFFA1CB9052D0DD0FF2414E09B
:10420000012C03D1012DF9D1032405E0022CF5D1B5
:104210007DB1052DF2D10724074904F1100301EB0C
:1042200003110123C1E901760B731CF0A9FA2046A2
:10423000F8BD0624F0E700BF4C150020F8B5054690
:104240000E4617461CF096FA134B2C46D3F824243E
:1042500005F0FC0122FA05F3DB0712D50023013338
:10426000DBB2042B04D1FF241CF08AFA2046F8BDEF
:10427000EC1804F003040C4422FA04FC1CF0010FB7
:10428000EDD1FF2CF0D00122044B03EB0413C3E962
:1042900001671A73E8E700BF00C003504C15002007
:1042A000074BD3F82404D3F8202403F5005310401F
:1042B00000F0553020F05020C3F82004FFF74EBF27
:1042C00000C00350074BD3F82404D3F8202403F58F
:1042D0000053104000F0AA3020F0A020C3F82004C2
:1042E000FFF73CBF00C00350024B1968024B18682F
:1042F00013F0B8BA0C0B00202C0B002070B5940002
:10430000224605460E4628F097FA431C0AD058B9B3
:1043100022463146284627F0F6FA0028034808BF0F
:10432000002070BD0248FCE70248FAE710E000F008
:1043300021E000F024E000F010B5044628F084FAF3
:10434000431C10D088B901F0D1F9234620F00300B6
:104350002044984201D1002010BD53F8042B0132B3
:10436000F7D00348F8E70348F6E70348F4E700BF4F
:104370000EE000F021E000F024E000F008B51CF0B1
:10438000F2F9014B186008BD3C1E0020014B186873
:104390001CF0EDB93C1E0020044BD3F88420D2065B
:1043A000FBD4D3F88400C0F3811070470040005064
:1043B00038B5104B0546D3F820310C4603F0030303
:1043C000022B0BD0032B0DD0012B0FD1FFF700FBDD
:1043D000052305B1286004B1236038BDFFF72EFB2B
:1043E0000323F6E7FFF740FB0223F2E70123002057
:1043F000EFE700BF0080005073B50D4600210E4B63
:104400000191D3F88041064604F00304012C09D041
:10441000022C0CD00C460EB1019B336005B12C6010
:1044200002B070BD01A8FFF7C3FF0F24F3E7FFF749
:104430001BFB0190EFE700BF0080005038B5184B20
:104440000546D3F824010C4600F00700062823D8BF
:10445000DFE800F0040A121A1E0E1600012305B14F
:10446000286004B1236038BDFFF7B2FA0523F6E7F0
:10447000FFF7AEFA0623F2E7FFF7E0FA0323EEE7D1
:10448000FFF7DCFA0423EAE7FFF7EEFA0223E6E798
:104490001BF067FF0723E2E700231846DFE700BFB2
:1044A0000080005038B5104B0546D3F840310C461B
:1044B00003F00303022B0BD0032B0DD0012B0FD1E4
:1044C0001BF051FF092305B1286004B1236038BDFA
:1044D000FFF7CEFA0823F6E71BF048FF0B23F2E7BD
:1044E00001230020EFE700BF0080005038B5144BD7
:1044F0000546D3F800020C4600F0070004281BD83C
:10450000DFE800F003090D111500012305B1286053
:1045100004B1236038BD1BF026FF0923F6E7FFF73F
:10452000A7FA0823F2E71BF021FF0B23EEE7FFF7C2
:104530006FFA0E23800AE9E700231846E6E700BF7A
:104540000080005038B5104B0546D3F840320C4679
:1045500003F00303022B0BD0032B0DD0012B0FD143
:104560001BF001FF092305B1286004B1236038BDA9
:10457000FFF77EFA0823F6E71BF0F8FE0B23F2E7BD
:1045800000231846EFE700BF0080005038B5104BFD
:104590000546D3F860310C4603F00303022B0BD021
:1045A000032B0DD0012B0FD11BF0DDFE092305B12C
:1045B000286004B1236038BDFFF75AFA0823F6E7F4
:1045C0001BF0D4FE0B23F2E701230020EFE700BF2E
:1045D0000080005010B40D4C0B46D4F8204204F07B
:1045E0000304012C0AD0022C0CD008B10021016078
:1045F0000BB100221A605DF8044B70475DF8044B64
:10460000FFF7D6BE5DF8044BFFF74CBF00800050AB
:1046100038B50C4605461CF0A6F8054B9A6A54407E
:104620002C4054409C62BDE838401CF0A0B800BF4C
:1046300000C00050B0F5207F1FD009D8B0F5007F32
:1046400015D003D868B1B0F5C07F0AD000200CE0C7
:10465000B0F5607FFAD10B4BD3F88000C0F30110A6
:1046600003E0084B186FC0F3033001307047054B6F
:10467000D3F89000C0F30460F7E7024B186FC0F363
:104680008020F2E7008000504FF400320E4B0146CC
:1046900010B500209A66FFF7CDFF484341F671320E
:1046A0000A490B4B884294BF00200120DC69DA6381
:1046B0009A6822F4401242EA00529A60E20344BF30
:1046C0000022DA6310BD00BF00900050005A620261
:1046D00000000350420910B50FD0012A0FD00A4B39
:1046E0000A4C022A18BF234600F01F0049B103F507
:1046F0008053012282401A6010BD1346F4E7044B38
:10470000F2E703F50053F4E7688000506082005040
:104710006480005008B580201BF047FF034B98428F
:104720009EBF4FF48032024B1A6708BD005A6202E6
:1047300000A000501FB50023B0F5807F019377D013
:1047400028D8382800F094800BD82438092810D8AD
:1047500009280ED8DFE800F0676767670D0D620D66
:10476000377D52285FD008D83D283BD03E2800F046
:104770008480019805B05DF804FB8028F9D1414B95
:104780001B6F03F00703013B032BF2D8DFE803F0B4
:1047900044413F6CB0F5D06F5BD019D8B0F5A06F35
:1047A00066D00AD8B0F5806F3DD0B0F5906FE0D1FB
:1047B000002001A9FFF742FEDBE7B0F5B06F2DD076
:1047C000B0F5C06FD5D1002001A9FFF76BFED0E78F
:1047D000B0F5006FECD00AD8B0F5E06F4DD0B0F571
:1047E000F06FC6D1002001A9FFF7D0FEC1E7B0F5F8
:1047F000086FBED1234BD3F8003103F00303022B23
:104800002CD0032B2ED0012B30D1FFF717F9032327
:1048100000E005230193ACE70223FBE7002001A998
:10482000FFF7EAFDA5E7002001A9FFF7C1FDA0E71A
:1048300002934FF0E0231B695B0705D5FFF7E8F80B
:104840000C230393039BE5E703A902A8FFF72AFEC5
:10485000F8E7002001A9FFF749FE8AE7FFF708F90A
:104860000823D7E71BF07DFD0723D3E70123D1E71A
:10487000002001A9FFF7AEFE7BE7002001A9FFF7AA
:1048800061FE76E7008000504FF40022034B5A6629
:10489000012203F580439A62704700BF00900050E8
:1048A00008B5FFF747FF082811D00938012802D9B9
:1048B0004FF6FF7008BD4FF40012064B5A6603F521
:1048C000D8335B6ADB07F3D54FF4FA70F2E7024B9B
:1048D0001888EFE700900050200D0020F8B504463E
:1048E0008020FFF727FF032800F087804FF4002285
:1048F000424B02215A6645F60E03414AC2F8803007
:10490000404B9962012103F580539962936DD9035D
:10491000FCD4D4E900131B0543EA0163E17B94F85E
:1049200020500B43217BE77E43EA0143617B6D010D
:1049300043EA0133A17B43EA811313619169D4E90E
:1049400004031B0643EA806301F000410B43A17E90
:1049500094F823000B43217E43EA0143617E43EA3E
:1049600001239361136AE66923F00D0394F8221082
:1049700043EA8703002E2DD11362966A94F8213002
:1049800045EA031326F033052B4343F001039362FA
:104990001D4D1B4B9A6D35EA0202FBD10222194DC7
:1049A000AA621A659A6D5200FCD41A69A56822F4AD
:1049B000700242EA05521A614FF00042114B9A61AF
:1049C00019B9022203F580539A6278B901220F4B7C
:1049D0009A620BE0334343F008031362936A23F0B7
:1049E000330303432B4343EA4103936294F8243097
:1049F0001BB1034B064AC3F88020F8BD009000505D
:104A000000C0005000D000500300014000E0005002
:104A1000F1A7FFFF1E4BFF2870B59E6A35D89A6D2F
:104A200012F4803F18BF01211A4A18BF9162022177
:104A300091629B6DDC0303D5154A936D9907FCD5F4
:104A40000222144B124D1A65AC6D14F08044FBD158
:104A5000114AAB6992F9002023F47F03024423F446
:104A60007F4382F3080243EA002343EA0243AB6137
:104A700031460220FFF7CCFDAB6DDB0303D5314699
:104A80000120FFF7C5FD204670BD2124FBE700BFD4
:104A900000C0005000D00050802D0020014B93F941
:104AA00000007047802D002001221548154B816AB7
:104AB0009A62826D02F00302032AFAD102229A62FC
:104AC0001A650F4A936D5B00FCD40F48936D30EA72
:104AD0000303FBD101220B4B1A65A3F580539A6D9A
:104AE0009007FCD49A6D9207FCD50222054B1A65FB
:104AF000034A936D9B07FCD50320FFF789BD00BFD8
:104B000000C0005000D0005003000100014B18808D
:104B1000704700BF1E0D00204FF4001208B5184B5F
:104B20005A660223174A5360936813F48033FBD10B
:104B3000012822D1FEF782FF134B984215D003F5CE
:104B4000122303F5F863984213D0104B00EB800258
:104B5000400AB3FBF0F3520A0A49CA620B6301230D
:104B60004B620022074B5A6008BD45F67A13084A8B
:104B7000F2E745F61A03074AEEE75362F1E700BF92
:104B8000009000500040025000F0490264666666E2
:104B9000D8B80500BBCF0500B0F5207F10B50C4696
:104BA00042D008D8B0F5007F33D003D888B1B0F533
:104BB000C07F0ED010BDB0F5607FFBD11F4A4C1EE8
:104BC000D2F8803023F0300343EA0413C2F8803077
:104BD000F0E71BF0E2FC1BF0ACFD4FF48031184B0A
:104BE000164A1967136F013C23F4704343EA0433F8
:104BF0001367FEF70DFF0446FFF7CEFBC0F102017D
:104C000020461BF090FD00F02DF8BDE81040FFF7A6
:104C100081BD0A4A4C1ED2F8903023F0F85343EA83
:104C20000463C2F89030C5E7044A4C1E136F23F4A6
:104C3000806343EA84231367BCE700BF0080005011
:104C40000090005008B50121022000F0F5F81BF09B
:104C5000A4FC1BF06EFD4FF48032014B1A6708BDB7
:104C60000090005008B54FF4C0701BF09EFCBDE8EA
:104C700008400449884294BF012102214FF420706A
:104C8000FFF78ABF80F0FA02034B5868C0F30800B0
:104C9000003818BF0120704700ED00E0054B4209C5
:104CA00053F8223000F01F0023FA00F0C04300F058
:104CB0000100704700E100E010B5224B70B94FF4DD
:104CC0000031214A1860516602F598325268012A73
:104CD00003D11E4AD2F800211A6010BD1B68002BB8
:104CE000FBD01B4A5268012AF7D0184A8020C2F82C
:104CF0000031FFF71FFD05281FD14FF4C070FFF7EB
:104D000099FC0128044604D102214FF4C070FFF73A
:104D100043FF07220F4B1A610122A3F580535A600B
:104D20000B4A1369DB07FCD5012CD6D12146BDE81F
:104D300010404FF4C070FFF72FBF0122064B5A609E
:104D4000CBE700BF401E00200090005000800050C4
:104D500000C0015000E0015000D00150044A4178E9
:104D6000536F23F4407343EA01235367704700BF36
:104D70000040005010B5044610B10020FFF79CFF22
:104D8000104A136943F00403136103F03DFA1BF06A
:104D9000FAFC0D4B0D4AC3F820241BF0E4FC27F06D
:104DA0004FFD1BF0E4FC1BF0EFFC03F055FA1CB9BF
:104DB000BDE81040FEF72CBE0120BDE81040FFF713
:104DC0007BBF00BF00ED00E000E003500000FF0FDC
:104DD00010B5044610B10020FFF76EFF0E4A1369AC
:104DE00043F0040313610D4B0D4AC3F8202403F074
:104DF0000BFA1BF0B8FC27F023FD1BF0B8FC03F006
:104E00002BFA1CB9BDE81040FEF702BE0120BDE838
:104E10001040FFF751BF00BF00ED00E000E003507D
:104E20000000FF0F034A0179D36E23F030030B43D8
:104E3000D366704700400050F8B504461C4BD3F8C9
:104E40008420D106FBD4D3F88430C3F381139C4271
:104E50002CD0FEF7C3FD012C064602D121461BF0E3
:104E600062FC1BF080FC4FF00072124B07465A6642
:104E700020461BF090FC4FF480630D4D621E934062
:104E80002B676B6E9A0103D4D5F884309B060AD544
:104E900038461BF06CFC022C08D13046BDE8F840C7
:104EA00000211BF040BCD5F88430EAE7F8BD00BF14
:104EB000004000500060005010B50C4608B9FEF7E5
:104EC0008DFD074B21461B783BB1064B984204D819
:104ED0000120BDE81040FFF7AFBF0220F9E700BF97
:104EE000812D0020005A62020278034B012100202C
:104EF0001A70FFF7E1BF00BF812D00204FF0004284
:104F000038B5264B26495A6601224A604AF6CD3109
:104F100003F50B235D6C1964154030BB9968C90714
:104F20000BD4002401221F4B5A6015B11E4B1F4A9F
:104F30001A6426F04CF8204638BD1A498A601C4A8B
:104F4000D96ACC0705D4904201D10724EAE70130A1
:104F5000F6E79042E5D1F8E70132DC6A14F0080484
:104F600006D08A42F8D10724DFE700221049F4E78F
:104F70008A42F8D020220B4B0B495A620122A3F53A
:104F800080539A6023460A4A486A800603D49342B3
:104F9000E9D00133F8E79342C7D1E4E7009000502D
:104FA0000050095000600950004009503254FFFF82
:104FB00040420F004FF0004238B5174B174C5A666D
:104FC000012203F50C235A604AF6CD33656C236445
:104FD000437893401343124AD363C3788178A2681D
:104FE0009B0043EA011322F074021343A360027989
:104FF000837943EA022323614279C37943EA022396
:1050000063610078FFF77AFFEB0744BF054B236429
:1050100025F0DDFF012038BD009000500040095010
:10502000004000503254FFFF10B504461BF0B8FB9F
:10503000002341F202020849E360A360226104F503
:105040000052E3616361A36123626362E362A3646C
:105050005164A36210BD00BF7F370C0138B5044610
:10506000154639B91848844214BF084638201BF049
:105070009CFA01466368A36803F0E003402B1AD052
:1050800003D8D3B1202B1AD038BD602B19D0802B78
:10509000FAD101236B434901B1FBF3F10B4A2039EB
:1050A000204602EAC10201211BF076FBA262BDE8A4
:1050B00038401BF071BB0623ECE71023EAE7082316
:1050C000E8E70423E6E700BF0000035AF8FF7F008B
:1050D000F8B5436804460D4616461BB140F2FF7111
:1050E0001BF05AFB2046FFF79FFFE9896B7B226983
:1050F0000B43298A22F44C520B4322F00302134340
:105100002361A2682B7B297E22F0804222F0E202FA
:105110000B4313436A69AF681343A3601FB9A368C5
:1051200043F00043A360EB69002B57D0987A1A7ABA
:105130004004A16840EA82503E4A0A4010439A88DF
:1051400002F4C04210435A7840EA82005A7B40EA97
:10515000C2009A7B40EA02109A7840EA8220A0605E
:10516000E168D3E9042021F4D81121F4C06102439D
:105170000A43997942EA8122D97942EA4122E260DE
:105180001A78012A05D1E26842F00402E2602A4A54
:1051900006E0032A3DD1E26842F00402E260274AB9
:1051A0000121C2F8C0105A7A04F580510A621AB17E
:1051B000E26842F40062E260DA7A4AB1E2682049C9
:1051C00042F40042E2601A7B02F00F02C1F8802034
:1051D000E269DB7B22F003021343E36136B196F808
:1051E000203004F58051C3B101238B610521204695
:1051F0001BF0F3FA1FB13A466968FFF72FFF20460C
:1052000029781BF007FB236CDB4313F4405FFAD1D2
:10521000F8BD023A012AC2D9B9E7626996F822308C
:1052200096F8210022F009020343134343F00103DF
:105230004B61DBE7E39BBDFF00E4035000D4035068
:1052400000900350072A2DE9F041154698464FF08B
:10525000030401F003072DD89600B44000FA06F2CB
:1052600021461C481BF0E5FA21461B4807FA06F2C6
:105270001BF0DFFA194B1A499DF81800B8F1000F1E
:1052800018BF1946012303FA05F50D60154B1649A1
:10529000002818BF0B461D60144B9DF81C00C3F876
:1052A0002054103103F22443002818BF0B461D6020
:1052B000BDE8F081A2F10806B600B44000FA06F29B
:1052C00021460B481BF0B5FA21460A4807FA06F2B8
:1052D000CEE700BF00C4035008C4035010D40350ED
:1052E00010E4035014E4035014D4035000E00350BE
:1052F00004C403500CC40350F8B504460D461F46C1
:1053000016464AB101238B403021184A01FB002286
:10531000F7B141F21001535004EB4403072D4FF055
:105320000F014FEA031316D8A80006FA00F28140D5
:105330000F4818441BF07DFA4EB9012330210B4A67
:10534000AB4001FB042277B141F210015350F8BD8C
:1053500042F21001DFE7A5F10800800006FA00F232
:1053600081400448E5E742F21001EFE700C0035036
:1053700004C003500CC0035010B50C4B0C4C0D4A2C
:105380000140C4F83004C3F83014C3F82C04D36EC1
:1053900003F03003202B1FBFD36E23F0300343F004
:1053A0001003D366C4F8200410BD00BF00D0035022
:1053B00000E003500040005038B514461D4603225B
:1053C00083F00103FFF798FF012004F110018840EA
:1053D00005FA01F1FFF7D0FF9DF81010034B044AC6
:1053E000002918BF1346186038BD00BF24E40350DD
:1053F00024D403504FF400120B4B10B5C3F8802097
:10540000BFF34F8FBFF36F8F0024FF22074B21465E
:105410005C6520209A625C60FFF75CF92146BDE87C
:1054200010402120FFF756B900E100E000000450D1
:10543000044A054B002908BF1346012282401A6026
:10544000704700BF401004504020045010B50121A7
:1054500004462020FFF73EF901212120FFF73AF909
:105460000122114B5A60227812069A606178A27864
:1054700042EA01429A61FF229A6200229A631A6408
:105480004FF000425A654FF0FF324FF4001103F520
:1054900000531A65054AC2F88011E3781B01DBB29C
:1054A00082F81533116010BD0000045000E100E0E7
:1054B000F8B50125C3B2DFF888C0D1F800E09D40FF
:1054C0008F7ACB7A0C46097BCCF850500CF5005CF7
:1054D0004CF820E04FF0300E174E1B050EFB00601D
:1054E00094F80DC043EA074343EA415322F0030214
:1054F000C0F860C0C36502671BF03CF9736D227A87
:105500002B4373650D4B02B11D64627A02B19D633A
:105510002279A37943EA0243094A93616179E379E5
:1055200043EA014305498B61034B55639D64BDE824
:10553000F8401BF025B900BF0000045000100450D3
:105540000020045010B50124C0B284401BF012F9B1
:10555000044B5A6D22EA04025A659C62BDE8104071
:105560001BF00EB90000045010B50124C0B28440F5
:105570001BF000F9074BDA6A224208D15B6B9C43AF
:105580000CBF012400241BF0FBF8204610BD0024B2
:10559000F9E700BF000004504FF40032054B9A6653
:1055A00041F6713203F51C33DA63012203F500532F
:1055B000DA6070470090005041F671320121064BCD
:1055C000DA6303F50052D1600022DA634FF400324F
:1055D000A3F518339A66704700000350CB784A78D9
:1055E00010B55B010C7843EA82030A79234343EA4E
:1055F00002130C22424302F1B0421363012C02BF9A
:105600008A78024B43F8202010BD00BFE880035089
:1056100008B54FF0B0435A686AB958B15B680BB12E
:105620001BF017F901210D4B59601BF012F94FF0D7
:10563000B043D96008BD5B680BB11BF00AF90028C4
:10564000F0D11BF006F94FF0B0430222DA601BF0F4
:1056500000F90122024B5A60ECE700BF001000582D
:10566000002000584FF0B0414B6810B50BB11BF053
:10567000F0F801220B4BC4785A608378934043EAD8
:10568000840344782343047943EA0413447943EAC6
:10569000C4038B60044B5A600378C3F10203CB60F0
:1056A00010BD00BF00200058001000584FF4803299
:1056B000064B5A6603F5E6235B69C3F385128270D5
:1056C00003F03F021B0B42700370704700900050C4
:1056D000014B986CD96C70470080E00F024B186842
:1056E000C0F30740704700BF0080E00F0120034B6C
:1056F0009B680A3303F01F03984070470080E00F57
:1057000038B50446054D25F086FC0FCC0FC594E84E
:10571000030085E80300002038BD00BF441E0020C0
:1057200047F6FF739A42F0B56FD002296FD8394B14
:105730005B5C012B6BD8384DDF0005EBC30415F81B
:105740003330A178012B13D10025E078401AA8420C
:1057500002D80844C0B2F0BD431B6668A0EB5303F7
:1057600036F913609642D4BF1D4603F1FF30EEE7D1
:1057700060680028EFD0B0F90040944204DBB0F933
:1057800002409442B8BF144683883D44FF2B19BFA2
:10579000C8224FF0280CB0F90620B0F908C0A2EBDF
:1057A00004030CBF0126002693FBFCF333446E7800
:1057B0001BB29E4201DD002B01DA731E1BB24FF4B7
:1057C0007A7C01339BB2071D5D1E2DB24FEAC50ED8
:1057D00000EBC505EA88AD689E4214FB025222EA3E
:1057E000E27202F15C02B2FBFCF204DD37F83350E6
:1057F00001339542E8D200EB0E039888904228BF0F
:105800001046884238BF0846A4E7FF20A3E70020DF
:10581000A1E700BF81D40300441E00200229F0B597
:1058200055D82C4B585C012851D82B4C04EBC001A7
:1058300014F830004B6801280FD1C8788C7890425A
:1058400094BFC4EB0001C4EB0201001BCAB2824248
:10585000C8BF002233F91200F0BD002B37D0887882
:10586000904202D3B3F90200F6E7CC78B3F9000016
:105870009442F1D94C789988013CA1F1FF0671421C
:1058800003F10405E4B2714103F10C07CEB2B44256
:1058900016D805EBC1014FF47A756A43B1F902409D
:1058A0004968521A04EBD47102EB610292FBF4F2E4
:1058B0009042D1DBB3F902009042CDDC10B2CBE7CD
:1058C00037F831C04E1C9445E3D33146DEE7034838
:1058D000C2E700BF81D40300441E00200080FFFF08
:1058E00008B50448FFF70CFFBDE80840012025F08B
:1058F00096BB00BF84D4030000487047220D0020EF
:105900001B0603F0706300F00F000902034301F46B
:105910007061120402F470220B431343014A1360B6
:10592000704700BF0020025C60B5054619B101391F
:10593000B1F5806F0FD2094EF06810F48030FBD1C2
:1059400043EA012312072B4302F08052134343F032
:105950000043736060BD0120FCE700BF0020025CD3
:105960000122054B9A60DA68D203FCD4D86820F093
:105970000F000004000C70470020025C014B186807
:10598000704700BF0040025C014B5868704700BF81
:105990000010025C014B186B704700BF0010025CE6
:1059A000014B1868704700BF0010025C014B986003
:1059B000704700BF0010025C014B1864704700BFC5
:1059C0000010025C014B5864704700BF0010025C7D
:1059D000014B5863704700BF0010025C0022014B6E
:1059E0001A6070470010025C024A136843F001031A
:1059F000136070470010025C024A136823F0010331
:105A0000136070470010025C43F20402014B1A60FD
:105A1000704700BF0010025C024A136843F0300375
:105A2000136070470010025C044B1A6842F48072E5
:105A30001A601A6822F480721A6070470010025CC3
:105A4000024A136843F48063136070470010025CDD
:105A5000034A136823F4702343EA0043136070473A
:105A60000010025C044B1A6902605A6942609A692C
:105A70008260DB69C36070470010025C0268044BFF
:105A80001A6142685A6182689A61C268DA61704735
:105A90000010025C024B1A6BD207FCD418627047EC
:105AA0000010025C0322024B186019615A637047B0
:105AB0000000025C82B01FB507930A9B04AC8B42C6
:105AC00028BF0B4604E907001048D100079948BFDA
:105AD00003330160099948BF23F0030323F07043A7
:105AE00001F0E041194341F000518160002102F0D2
:105AF000E042019C1A4342F00052C160046182619D
:105B0000416304B0BDE8104002B070470000025C81
:105B10003F22034B1A631022DA6103229A63704713
:105B20000000025C024AD36B9B07FCD4704700BFA5
:105B30000000025C044B9B6A13F0240F14BF012089
:105B400000208000704700BF0000025C08B5FFF72E
:105B5000F1FF064BDB6B23F47F4323F0EF0303439A
:105B60001EBF0122024BC3F8FC2F08BD0000025CDF
:105B700000F0FF3F4368182B0AD0202B1DD0102BBC
:105B80002BD1174BD3F80434DB010AD40120704722
:105B9000134BD3F804349A01F8D50B6843F008038B
:105BA0000B6003680F4A934210D10B6843F0400327
:105BB0000B600023436000207047094BD3F8043486
:105BC0005B01E3D50B6843F00403E9E7064A93421F
:105BD000F1D10B6843F08003EAE70720704700BF6C
:105BE0000000025C832D0020822D00200B4607B5AB
:105BF0000749D1F80414C90708D5002100920246CC
:105C0000084600F05BF803B05DF804FB0120FAE7FA
:105C10000000025C1346064AD2F80424D20504D5DB
:105C20000A46014600201BF01EB80120704700BF45
:105C30000000025C13B5084CD4F80444E40508D510
:105C4000009313460A460146002000F061F802B0B6
:105C500010BD0120FBE700BF0000025C13B5084C3B
:105C6000D4F80444E40508D5009313460A460146D7
:105C7000002000F071F802B010BD0120FBE700BF6A
:105C80000000025C70B504460D4616468CB00A4A08
:105C900009AB07CA83E807001A462146CDE9056328
:105CA000CDE90333CDE9013300954FF480301AF08C
:105CB00006FF0CB070BD00BF08D50300F0B51C4650
:105CC0005B6815468DB01A07129E1AD1CBB1726867
:105CD000934216D10C4B0D4A53F8217009AB07CAF9
:105CE00083E807001A462946CDE90533CDE9033399
:105CF000CDE90163009447F480701AF0E0FE0DB026
:105D0000F0BD0720FBE700BF14D5030008D5030052
:105D1000F0B516465A688DB0102A0D46129F15D15F
:105D20007A68102A12D10A4A09AC07CA84E8070027
:105D300022462946CDE90547CDE90344CDE9014492
:105D4000044800961AF0BBFE0DB0F0BD0720FBE73B
:105D500008D5030030000100F0B516465A688DB032
:105D6000102A0D46129F15D17A68102A12D10A4ABC
:105D700009AC07CA84E8070022462946CDE9057424
:105D8000CDE90344CDE90144044800961AF097FE9A
:105D90000DB0F0BD0720FBE708D50300100001009F
:105DA00082B070B586B0149D03AE202D86E8070042
:105DB0000B9359D805EB85038B4203D006236B4325
:105DC0008B4253D10C9BAB4250D10F9BB3EB450F91
:105DD0004CD1129A934249D1012229462220159B87
:105DE000FFF7A2FD044630BB034606220E210C201D
:105DF000FFF786FD0123CDE900332B4696E8070027
:105E00001AF0F0FD0E230BAA009307CA2B461AF0D6
:105E100034FD0C23164C00930EAA2B4607CA1AF029
:105E20005CFD636823F07F0343F026036360FFF7A4
:105E300097FD30B10624204606B0BDE8704002B0A0
:105E40007047636823F07F0343F022036360FFF72A
:105E500087FD04460028EDD1062311AA009307CA46
:105E60002B461AF06DFDE6E70124E4E70724E2E79C
:105E70000020025C70B598B0002843D02C4C08ADCF
:105E80000FCC0FC50FCC0FC50FCC0FC594E80F007A
:105E900085E80F006D4604AE04F1100320340FCBEB
:105EA00085E80F0094E80F0086E80F00FFF7BCFDBF
:105EB0000420FFF7CDFDFFF7A7FD3046FFF7DEFD1D
:105EC000002408AE56F8040B0134FFF7E3FD102C54
:105ED000F8D1FFF759FD0328FBD90024FFF77EFD19
:105EE0002646FFF74BFD55F8043B01365840042E7B
:105EF00044EA0004F5D12CB1012206200D4B1A70A2
:105F000018B070BDFFF790FD0820FFF74FFD00208F
:105F1000FFF752FD0720FFF755FD4FF40070FFF724
:105F200057FD0820FFF794FDFFF75EFD0020E7E72F
:105F3000F0D50300852D002008B5FFF775FD01227F
:105F4000014B1A7008BD00BF842D00201FB51BF047
:105F500009F8044630B1012206240D4B1A70204680
:105F600004B010BDFFF70AFD0090FFF707FD019098
:105F7000FFF704FD0290FFF701FD03906846FFF76D
:105F80007DFDFFF7D9FFFFF747FDFFF759FDE6E776
:105F9000852D002006289ABF014B185C0020704711
:105FA00050D6030030B5154B87B00293144B0390C5
:105FB000049346F611030D46059300F077F9142873
:105FC000044616D168461BF077F84FF0A843032229
:105FD00002A95A6319601D619A63DA6B9207FCD1BA
:105FE000142C02D168461BF075F800F093F90446B2
:105FF00001E00028E9D0204607B030BD5C1E00203B
:10600000040000202DE9F04FB1B005468C469E46B5
:10601000E8466F4EDDF8EC90409C06F1100A4746CA
:1060200030687168083603C75645B846F7D13E9BBD
:1060300003EB0208C8F1000A0AF00F0AB9F1000FD9
:1060400000F09D80C9F1000707F00F070121DDF87E
:10605000FCB044F00050C4F11006CDF810B005912A
:106060000690300200F4F85040F021000790B9F19A
:10607000000F40F08680CDF820D047F00050002D72
:1060800000F08480099121210A9041EA07210B91B7
:1060900042F00050CDF830C03D9B08A94FEA0A2CD1
:1060A0000D910E904CF041000F901093002A75D185
:1060B0003E9B119143F0005312933C9B1390149319
:1060C00010AB1593434B444A169340F611031793B4
:1060D000424B0021002D08BF1346189314AB1993AF
:1060E0003F4B10221A9311231B931CAB184625F02B
:1060F00034FC01221D92002246F0804603461E9683
:10610000239205B9EB46102CCDF880B024AE4BD1CC
:1061100001232246002130462193229425F01DFCC4
:1061200020AB002125938F4218BF334647F08042B1
:1061300026923A9A2CA828922993B2FA82F35B0904
:1061400049EA837310222B912A9325F006FCB9F1BA
:10615000000F00D028AED04448F080432CA918A8E6
:106160002D962E93FFF71EFF30B92DB90346A3429B
:1061700025D1002818BF2C2031B0BDE8F08F1027A2
:1061800064E7CDF820E049F0005078E7002C3FF4B8
:1061900079AF04A9099101210A9076E73E9B0CAAE8
:1061A00011924120129388E710220021304621935A
:1061B000229425F0D2FB002CB2D10123B1E703F1E8
:1061C000C0026A4412F8C02C01331043CFE700BF6D
:1061D00057D60300100000206CD6030070D60300D1
:1061E00004000020F0B5C0299FB0DDE9244557D058
:1061F000B1F5807F04D0802948D029201FB0F0BDA0
:1062000001265CB140F234470294102403960494B2
:10621000212401970594069502AC0AE040F2144748
:1062200002941024039604942124059401240197D8
:106230000695079401251024089409950A922122B5
:106240000B950C940D92174A0AAD0E92164A0F95B3
:10625000109242F611021192129313951494159212
:1062600001AA1692D3B112AB1793042318931123EA
:10627000199316AB1A901B9340F61103C9081C9191
:106280001AA806A91D93FFF78DFEB7E7012614B9DA
:106290004FF48267C4E74FF48667B5E70EABE3E7D8
:1062A0000F20ABE768D603001000001038B5164B7E
:1062B0005A6E42F004025A66D3F8802242F001027C
:1062C000C3F88022114B5B68C3F3080343B14FF05E
:1062D000A842D36B13F0430FFBD11424204638BDE2
:1062E0004FF0A843DC6B14F04304FBD1084D2B683E
:1062F0001BB90421284602F0B3FE2B68013343F09A
:1063000000432B60EAE700BF0080005000ED00E092
:106310005C1E0020014B00205B68704700ED00E030
:106320004FF40052034B00209A660322C3F8602208
:10633000704700BF009000504FF40052034B002004
:106340009A660322C3F86022704700BF00A0005085
:10635000012300F01F02A0F506200949A0F55060B6
:106360004009934051F820201A4341F82020054964
:1063700051F8202022EA030241F82020704700BF94
:10638000741E0020601E00200121A0F506230E4A85
:10639000A3F550635B0900F01F00814052F8230011
:1063A000014342F823100949D1E9003003448868C9
:1063B0000344C868096903445B1802BFC2E900339B
:1063C000C2E9023313617047601E0020741E002072
:1063D0002DE9F04FA9B003921D4604460822339ED2
:1063E000CDE90401414021FA02F34B40980702F144
:1063F000080218BF9B00202A1C44F4D18123B4FB5F
:10640000F3F303EBC313E41A734B04F506241B7870
:1064100004F55064002B3ED1FDF766FF074620B11E
:106420006FF0910029B0BDE8F08F0146402208A826
:1064300025F093FA4022394618A825F08EFADFF8A5
:10644000B481DFF8B491C3460BF10F0ACDF800A078
:10645000102208A95B46D9F8000024F06BFB00224B
:10646000014608F1100808AF914246D1CDF800A0CE
:106470005B461022D9F8000018A924F064FB4FF005
:10648000000A834618AFD34541D1544B9845DAD121
:106490000122514B1A704FF0810A4FF00008DFF8CB
:1064A0005CB1A4F50627A7F550635B095BF82320D0
:1064B00004F01F01CA40D2073DD4494A52F82330A4
:1064C000CB40DB072AD5B8F1000F08BFA0468123D7
:1064D000A7F6FF47B7FBF3F303EBC313FF1A07F568
:1064E0000624BAF1010A04F55064DAD1039BBBB16A
:1064F000B8F1000F14D0444619E057F8040BCDE969
:106500000612FFF725FF079A06990132ACE757F804
:10651000040BFFF739FF0AF1010AB4E7039B13B933
:106520006FF08B007EE7B8F1000F18BF4446349B34
:1065300000201C6076E7329B13B10023329A13606F
:106540000EB1002333601023DFF8AC9000932A468D
:1065500000232146D9F8000011F0F6FA60BB329909
:106560002A68204BC9B99A4206D02146D9F80000C2
:1065700011F082FB0028D3D1D5E90223DDE9041014
:10658000834208BF8A42A2D1039B002BCFD06B6805
:10659000012BCCD16FF0840044E7102032999A424D
:1065A0000860E2D1002EE7D033462146D9F800003A
:1065B00018AA11F01DFB48B10B4B9842D5D00B4BDC
:1065C0009842D2D00A4B9842D6D029E7329A336803
:1065D00012689B1A3360CFE7862D002000710800F7
:1065E000601E0020105D175EFFDF00F011E000F07C
:1065F000FEDF00F0006D08002C0B0020741E002050
:106600002DE9F04F87B08246894698461646DDF858
:1066100040B02AB1002B4FD040F26C739A424ED852
:10662000BBF1010F4ED8002406F1100739460120B6
:1066300005941BF069F80546002846D021463A46E5
:1066400025F08BF905ABCDE9014300942B460122DF
:1066500050464946FFF7BCFE044680B110F18C0F4E
:1066600008BF6FF08D043A460021284625F075F9E1
:1066700028461BF059F8204607B0BDE8F08F144BB0
:10668000C5E902A92B60C5F804B02EB132464146D7
:1066900005F1100025F06CF9059E0E483B462A4690
:1066A0003146006811F0B8F918B93046FFF750FECE
:1066B000D9E76FF09104D6E76FF08604DBE76FF05F
:1066C0009104D8E76FF08504D5E76FF08C04D2E72A
:1066D000105D175E2C0B00202DE9F0438DB0814634
:1066E000DDE914780E4615461C469BB1B8F1000F43
:1066F00005D16FF0860630460DB0BDE8F083002F5F
:10670000F7D0B7F1005FF4D3C3F1005303F50043B2
:106710009F42EED81022002108A825F01EF9002281
:1067200007AB029305AB019306AB31460093484695
:1067300008ABCDE90522FFF74BFE06460028DAD16B
:10674000059BA4B1AB4215D853EA0504D1D1069BF1
:106750000B48C8F8004000943A46079900682B445B
:1067600011F0F2F9002818BF6FF09106C3E7AB42B1
:10677000EDD2BEE75B1B9C4228BF1C46E7E700BF8B
:106780002C0B002030B58DB00C46054610220021A0
:1067900008A825F0E2F8002207AB029305AB0193AD
:1067A00006AB21460093284608ABCDE90522FFF74A
:1067B0000FFE0446D8B9099B012B1BD0079D104B37
:1067C0002946186811F058FAB8B90122A5F5062330
:1067D0000C49A3F550635B0905F01F00824051F896
:1067E00023004240284641F82320FFF7CDFD2046F4
:1067F0000DB030BD6FF08404F9E76FF09104F6E757
:106800002C0B0020741E00202DE9F04F89B00746A4
:106810000E46FFF7C5F8C00709D4042401201AF07A
:10682000AEFB80B3013CF9D16FF0920028E010225A
:1068300000210DEB020025F090F804A8FFF712F9F3
:10684000049B002BE9D0059B002BE6D0069B002B78
:10685000E3D0079B002BE0D00025DFF8808008F113
:106860000409B54219D34FF48A74FFF793F800F086
:106870000E03062B2DD1C30501D5FFF7BDF800206F
:1068800009B0BDE8F08FFFF785F810F00E03FAD0DD
:10689000022BF8D04105DFD5C4E7FFF775F8A6EB6A
:1068A000050A8400544528BF544699E80300002394
:1068B0008DE80300CDE9054307EB050BCDF810B0DB
:1068C000029404AAD8F8003007CA1AF051FA2544F5
:1068D000C7E724FA03F3DA07A6D5C6E77CD6030098
:1068E0001FB504A800E90E0011460198FFF78CFFC0
:1068F00070B1FFF721FBBFF34F8F0749074BCA6801
:1069000002F4E0621343CB60BFF34F8F00BFFDE79B
:1069100005B05DF804FB00BF00ED00E00400FA05DF
:106920002DE9F0438BB01746DDE91545DDE9132667
:106930009C46DDE91738894621B96FF086000BB017
:10694000BDE8F083002FF8D00EB9002CF5D11299D4
:1069500009B9002AF1D10DB9002BEED1B8F1000F21
:10696000EBD0244A944541D10288B2F5105F3DD165
:106970004288B7EBD20FE0D322F04001802902D049
:10698000B2F5807FD9D16CB3AE421CD23219954298
:1069900019D29C42D1D831462246284624F0C3FF62
:1069A0002E4614F00F03C8D1CDE90197CDE9033687
:1069B000CDE90543CDE907540993FFF7B1FC38B1A0
:1069C0006FF09200BBE79C42EBD96FF08900B6E70D
:1069D00007AA04A901A8FFF709F90546FFF7ACFCCF
:1069E0000543EDD10020C8F80040A8E76FF085000E
:1069F000A5E700BF004440042DE9F04FA9B083464D
:106A000017469A460E46DDF8C890DDF8D88029B9B9
:106A10006FF08603184629B0BDE8F08F002AF7D042
:106A2000B9F1000FF4D0349B002BF1D0B8F1000F76
:106A3000EED00024424B0CAD93E8070085E8070038
:106A40003C22214619A8189424F087FF33887288C5
:106A500003F4E040B0F5804FDAD03A4E3A480BEA02
:106A6000060646F01066864263D1B2F5807F60D19B
:106A700047F2121293425CD10620344ABAF11F0F3A
:106A8000D3680E940B931369126800FB03F3CDE9EE
:106A90000C23BDD9339B402BBAD9359B1F2B4BD927
:106AA00009F1010220261292402299F800300F9736
:106AB000042B18AFCDE91324CDE91572109611946B
:106AC0001794A5D1FFF72CFC03460028A2D10B9BFD
:106AD00015AACDE9086305AB07CA83E8070002AB36
:106AE00012AA07CA83E80700DDE910018DE8030058
:106AF0000F9B95E80700FFF753F90546FFF71CFCCD
:106B000055EA000384D13D46349A20AE2C4603CC8E
:106B1000B44210605160254602F10802F6D100220D
:106B20001146B9540132402AFBD12022C8F8002076
:106B300070E76FF085036DE76FF089036AE700BFC8
:106B400008D503000000FFF6000002091CD5030071
:106B5000F0B50E461D468BB0002853D0002951D009
:106B6000002A4FD0002B4DD0048804F44F43B3F5D6
:106B7000824F03D06FF085000BB0F0BDE3B224F07C
:106B8000FF04B4F5E24FB0F802C0F3D1122B01D0EC
:106B9000172BEFD10CF10701B2EBD10F4FEAD10760
:106BA00033D31D4A04ACBCF5807F07CA84E80700D4
:106BB000E0D1122B07D1194B1A691B681344CDE998
:106BC0000432002306930023CDE907670993FFF7FA
:106BD000A7FB0028D0D1124A02AB92E8030083E859
:106BE00003000AAB13E903008DE80300079B94E858
:106BF00007001AF042F80446FFF79EFB204307D136
:106C00002F60B9E76FF08600B6E76FF08900B3E751
:106C10006FF09200B0E700BF08D503001CD5030059
:106C200074D603002DE9F0438FB01D46DDE916C68A
:106C300000285CD000295AD0002A58D0002B56D00A
:106C4000BCF1000F53D0002E51D0038803F44F4401
:106C5000B4F5824F51D1DCB223F0FF03B3F5824F7C
:106C600040884AD0122C01D0172C46D1C31DB2EB5C
:106C7000D30F4FEAD3083AD34FEA4802571C67456F
:106C800038D8B0F5807F38D1122C18BF4FF00009EA
:106C90004FF0000308BF1C4CCDE9081805F10101B5
:106CA00014BF4C46D4F80C90CDE90B120A930D9307
:106CB000FFF736FBC0B9CDE9058902AB08AA07CAC0
:106CC00083E807000EAB13E903008DE803000B9B7C
:106CD00094E8070019F0F0FF0446FFF72DFB20436E
:106CE0000ED104232B7037600FB0BDE8F0836FF036
:106CF0008600F9E76FF08900F6E76FF08500F3E7AB
:106D00006FF09200F0E700BF1CD503002DE9F043BF
:106D100089B00E4615461F46DDF8488020B96FF051
:106D2000860009B0BDE8F0830029F8D0002AF6D02B
:106D3000B8F1000FF3D0038803F44F42B2F5824F4D
:106D400002D06FF08500ECE7DAB2122A01D0172AE0
:106D5000F7D123F0FF03B3F5E24F41D14488C8F8DF
:106D6000004044B9EB00B3F5807FC8F80030E8D1AB
:106D7000122A0DD108E0E31DB5EBD30FCFD1B4F546
:106D8000807FDED1122A29D1354B1C681B691C4437
:106D90000023194670192C4414F801CD10F8012D68
:106DA0001143B2EB0C020CBF4FF0FF3C4FF0000C54
:106DB00086420CEA030343EA0203EDD10029AED078
:106DC000002BACDA109B9D4246D82A463146384605
:106DD00024F0CEFD119B00201D60A2E70024D7E720
:106DE0003378042B9BD16B1EDB005B08B3F5807FEF
:106DF000C8F80030A5D1122A06F1010318BF4FF0E0
:106E000000094FF0400205934FF000030ABF144CF5
:106E10004C46D4F80C90CDE90623FFF781FA002800
:106E20007FF47FAFCDF80C90D8F800300733DB0843
:106E3000029308AB13E903008DE80300059B94E877
:106E4000070019F0E6FF0446FFF776FA00287FF402
:106E500068AF002CB6D062E76FF0890061E700BF31
:106E60001CD503000388B3F5105F0ED14388DB08FF
:106E7000103B102B0CD8084A22FA03F313F0010F31
:106E800014BF00206FF0860070476FF085007047D8
:106E90006FF08600704700BF010101002DE9F04F3F
:106EA0008FB01546DDE918A91E46DDF868801C9FE5
:106EB00009B300B3B8F1000F1DD0E7B1BAF1000F6C
:106EC00002D1B9F1000F16D1274B26F47E129A4257
:106ED000B0F802B044D1FFF7C5FF0446A8BBB5EB3C
:106EE000DB0F4FEADB0306D316F47C1FC6F3054520
:106EF00004D0102D03D96FF0860426E010251B9ACC
:106F000095422AD8CDE9011300231022CDE905933B
:106F10000DF12809CDE9033ACDE90823CDF81C90FD
:106F2000FFF7FEF9044680B907AA04A901A8FEF7F5
:106F300071FE0646FFF700FA044656B958B92A46CC
:106F40004946404624F014FD3D6020460FB0BDE8A0
:106F5000F08F6FF092040025F6E76FF08904F4E7F4
:106F60006FF08504F1E700BF0002C0032DE9F04196
:106F7000069F0C461646054610B309B302B9FBB985
:106F80006288B3EBD20F4FEAD20819D34C2200210A
:106F9000284624F0E2FC0D4B27F47E129A4212D1CF
:106FA0002046FFF75FFF044638B942463146281DA8
:106FB00024F0DEFCC5F824802F602046BDE8F08177
:106FC0006FF08604F9E76FF08504F6E70002C0036E
:106FD0002DE9F0410E4614460546002840D0002910
:106FE0003ED092B10368214823F47E1383423AD104
:106FF000AF6BF7B1C7F1100807F1280042452844EC
:1070000006D2274424F0B4FCAF630020BDE8F08131
:10701000424624F0ADFC1022103C3C19AA63F4D087
:10702000284605F128011AF09DF80028EED14644C3
:10703000A863102C0CD9671E27F00F073A4631467B
:1070400028461AF08FF80028E0D1E41BDDD03E443A
:107050002246314605F1280024F08AFCAC63D4E7CF
:107060006FF08600D2E76FF08800CFE70002C00320
:107070002DE9F04388461F4605468BB070B169B1D3
:1070800063B10368234923F47E1088423ED113F490
:107090007C1FC3F3054604D0102E03D96FF086047D
:1070A0002AE0102696422BD8FFF73AF9044618BB7F
:1070B000AB6B05F12802CDE901236B6A2A1DCDE9EE
:1070C00004231023CDE9083007AB1A46039006903D
:1070D00005F13C0901A904A8CDF81C90FEF7BEFDFE
:1070E0000546FFF729F904466DB928B932464946E5
:1070F000404624F03DFC3E6020460BB0BDE8F083E6
:107100006FF08904F8E76FF09204F5E76FF08504FB
:10711000F2E700BF0002C00307B56B46054A1068DE
:10712000516803C36846FDF745FF002003B05DF8D2
:1071300004FB00BF88D6030013B50024064A684646
:10714000536F43F00103536700948DF80440FDF73B
:1071500069FE204602B010BD0040005030B58BB033
:107160006C46174D0FCD0FC40FCD0FC495E803002B
:1071700084E80300134BD3F84C2112031CD5A3F56C
:10718000FE431C884FF6FF739C4208BF8C248DF889
:107190001940FDF783FC204480F308008DF81800A7
:1071A0000948FCF751FC6846FDF798FB3220FDF7D3
:1071B000ADFC00200BB030BDD3F85041E4B2E6E79F
:1071C00090D603000080E00F00F049026FF0040346
:1071D000502110B50A480B4C13F0800F03F1010247
:1071E00007D12344402A83F800131346F4D100202A
:1071F00010BD03F00F03043B034419761346EBE77D
:1072000000ED00E000E100E010B5044619F0ABFA33
:10721000024B1C6019F0ABFA002010BD881E002044
:1072200010B519F0A0FA034B1C6819F0A0FA20461B
:1072300010BD00BF881E002038B50446026C136CD8
:107240005906FCD50023E16C1A4694F84800FEF775
:1072500053F80023616D1A4694F85000FEF74CF87D
:1072600094F86830DA0706D50023E16D1A4694F8E1
:107270005800FEF741F894F868309B0706D50023C4
:10728000616E1A4694F86000FEF736F80122206C11
:10729000002100F500539A6404220A4D9A6419F003
:1072A000B9FA0021606CFDF715FA284604F16C016B
:1072B00019F066F82B6813B9034800F06BFD002045
:1072C00038BD00BF8C1E0020901E0020012910B583
:1072D00005D8064B1C686C3C14F16C0F00D110BD36
:1072E000206C052119F096FAE46EF4E78C1E00205C
:1072F0002DE9F0438DB01C4606AB0646894618467C
:10730000904600211822149D24F027FB2279034681
:107310000AB18DF818200127C8F81C30637930466F
:10732000C3F10203DBB2CDE903336A4B4A46029351
:10733000694B29460193694B8DF81E700093684B89
:1073400000F034FA0646002840F09E80A3683946D3
:107350006B64A3693A206B65237DDFF89C9185F807
:1073600050302369EB64237B85F84830236AEB6552
:10737000237F85F85830A36A6B6694F8243085F82B
:10738000603023682B64FDF7A5F93B460422216990
:10739000207BFDF7B1FF3B460222A169207DFDF76E
:1073A000ABFF88F8006085F868603946A068FDF793
:1073B00091F96379394633BB4FF4C060FDF78AF920
:1073C000D9F82032414623F0030343F0020320683A
:1073D000C9F8203219F02BFA0222424B2169C3F876
:1073E000C020227B42EA0142C3F8D020A169227D5D
:1073F00042EA0142C3F8CC202379032B67D8DFE8A7
:1074000003F02E1947604FF48060FDF763F9D9F857
:107410002032414623F0030343F00103C9F8203230
:10742000206819F001FA95F8683043F0040385F8F4
:107430006830D1E7002795F8683043F0010385F8FC
:10744000683002220023216A207FFDF755FF226A5F
:10745000237F43EA0243244AC2F8C430F7B9042226
:107460002B6C052103F580539A64206819F0D2F93A
:107470001E4B1B681BB91E491E4800F079FC1B48B7
:1074800005F16C0118F078FF30460DB0BDE8F083CF
:1074900095F8683043F0020385F868300023042231
:1074A000A16A94F82400FDF727FF01230E4AA16A80
:1074B000C2F8C03094F8243043EA0143C2F8C8301F
:1074C000CDE795F86830012743F00303B7E723269B
:1074D000DAE700BF397201003D12030079120300A0
:1074E0006D12030000C4035000D403508C1E002012
:1074F000300B0020901E002000800050034B022221
:10750000186800238068194617F0DEBC400C002084
:1075100030B51446054687B0104619F03FFF636941
:10752000024683423CBFD4E903315B181B1A7BB18E
:107530000F49049403910021CDE901310123009307
:107540002846D4E9001318F0D9FF002007B030BD59
:107550000122627694F82D20002AF6D084F8353086
:107560001321E369204698472046636A9847ECE771
:10757000117501002DE9F04788B004460F46164604
:10758000984619F0F7F88146002E7AD0237E03F052
:10759000FF02002B00F0A280204619F0FFFE656973
:1075A000A84205D1637ED4E9033213445D1B01E098
:1075B000F9D9451BB54228BF354619F0DBF894F8D8
:1075C0002D308246002B6DD12A463846616924F061
:1075D000CFF963692E462B44636121E0037803F001
:1075E000FD0111295BD1216B814205D1A3F111016C
:1075F0004B424B4184F83430013E6369216B0132C8
:107600008B4203F1010308BF236363619542606904
:10761000E4D1D4E90323216B1344994200D12263BE
:107620000025D4E9032361691344994208BF6261CC
:10763000207A6576FCF7AEFC204619F0AFFE636950
:10764000834232D1257694F82D30E568656103B127
:1076500025632046636A9847214B049403930023D3
:10766000029323692A4601930123009363682168EA
:10767000207A18F043FF207AFCF7ACFC504619F052
:107680007FF84846C8F8006019F07AF8D8F800305A
:10769000002B0CBF1B20002008B0BDE8F08707F8C6
:1076A000013BAAE72E460022B0E70123207A237689
:1076B0000DF11E01FCF7F6FC9DF81E30002BDAD010
:1076C0000DF11F01207AFCF7C5FC9DF81F10002961
:1076D000D1D12246207AFFF71BFFCCE71646D0E730
:1076E00011750100002807DB01234109034A00F05E
:1076F0001F00834042F82130704700BF00E100E0E6
:10770000002808DB01224309034900F01F008240E2
:10771000603341F82320704700E100E070B5044673
:107720000568FFF77DFD844202D10020FFF76CFD64
:1077300095F936603046FFF7E3FF002E0CDB01229F
:107740001949730906F01F06B240203341F823207F
:10775000BFF34F8FBFF36F8F95F937603046FFF758
:10776000CFFF002E0CDB01220F49730906F01F0624
:10777000B240203341F82320BFF34F8FBFF36F8F08
:10778000287AFCF747FC287AFCF7AAFBFCF786FB73
:1077900000232846C4E90033C4E90433A360AB6A7C
:1077A000BDE87040184700BF00E100E02DE9F0435C
:1077B0000C461546064687B04022002120461F464B
:1077C00024F0CBF895E8030000232A692376EB68C0
:1077D00084E80300C4E904232A7DE36084F82C20B4
:1077E000AA7D2363012384F8343084F835300E9B5E
:1077F00084F82D2023620F9BE7616362109BA362D4
:107800002B7A84F836306B7A84F837302D4B34601D
:1078100073602D4BB3602D4B33612D4B73612D4B3A
:10782000F360FCF783FB38B12B4B984204D0102453
:10783000204607B0BDE8F083002104F10800FCF702
:10784000FDFA07460028F2D14FF00108234B3362BE
:10785000234B84F83C80B361224BF3619DF84830A0
:1078600084F8390084F83B309DF84430204684F891
:107870003A30697D84F8388019F0A0FD95F90990B7
:107880004846FFF73DFF4846FFF72CFF164B049490
:10789000CDE902732369CDE900836368E26821685A
:1078A000207A18F02BFE04460028C0D195F9085024
:1078B0002846FFF725FF2846FFF714FF3046FFF75D
:1078C000A3FCB5E70D140300757501008B130300CD
:1078D000911303001D770100038000F0651303007E
:1078E000BD1303009713030011750100BFF35F8FF1
:1078F000074B5A6A22F480325A62D3F8942022F05D
:107900000102C3F89420BFF34F8FBFF36F8F70470E
:1079100000ED00E070B52948294CFFF7E7FF8442ED
:10792000284D294919D1D5F8C03023F0FF0343F081
:10793000A003C5F8C0304FF080430A68214D234EA4
:10794000C5F8982043F0010301328442C5F89C60D9
:10795000C5F8A0300A601ED00DE0D5F8C02020F098
:107960001F03203B22F0FF0242F0A002B3F1005FB0
:10797000C5F8C020E1D2164B0A68124823F01F0355
:1079800043F00303C0F89820C0F89C30114B01323B
:10799000C0F8A0300A60BFF35F8F0522094BC3F81F
:1079A00094205A6A42F480325A62BFF34F8FBFF379
:1079B0006F8FBFF34F8FBFF36F8F70BD540D0020DB
:1079C0002C0F002000ED00E0981E00200300002096
:1079D0004B0F0020E1FFFF3FF8B51446FFF786FF8D
:1079E0001F2C27D90027C2062A4D1CBF20F01F00DC
:1079F00020302A68CB06284B18BF21F01F01FCB2AB
:107A0000A2422BD8D3F8C04020F01F0024F47F44BA
:107A100044F4807421F01F01C3F8C04040F003001B
:107A2000C3F8982041F003010132C3F89C00C3F869
:107A3000A0102A600020BFF35F8F0522164BC3F809
:107A400094205A6A42F480325A62BFF34F8FBFF3D8
:107A50006F8FBFF34F8FBFF36F8FF8BDC3F89840A0
:107A6000D3F89C40D3F8A06024F01F04A04226F075
:107A70001F0601D1B142DDD0B04201D8A14207D2E8
:107A8000D3F89840013724F0FF04C3F89840B6E7D4
:107A90002820D0E7981E002000ED00E0BFF34F8FB4
:107AA0000549064BCA6802F4E0621343CB60BFF39A
:107AB0004F8F00BFFDE700BF00ED00E00400FA05B6
:107AC000054B1A782AB95B78002B0CBF03200220E3
:107AD00070470120704700BF912D00200329F8B5A1
