S019000062742D72656D6F74652D526564657369676E2E733337EE
S214012000C00A0020E13501006B1603006B160300C1
S214012010C52803006B1603006B1603006B1603003E
S2140120206B1603006B1603006B1603006B1603009A
S2140120306B160300E8E00300BB1403006B160300F5
S2140120406B1603006B1603006B1603006B1603007A
S2140120506B1603006B1603006B1603006B1603006A
S2140120606B1603006B1603006B1603006B1603005A
S214012070558801006B1603006B1603006B160300F0
S2140120806B1603006B1603006B1603006B1603003A
S2140120906B160300B93D01006B1603006B160300B7
S2140120A06B160300893F0100653F01006B160300B4
S2140120B06B160300ADF202006B160300F5FC02007E
S2140120C09FCE03009BCE0300E5F40200ABCE0300D7
S2140120D0A3CE0300CDFC0200A7CE030035FD02000F
S2140120E0C5D6020089D80200A5FD02006B160300C2
S2140120F06B1603006B1603006B1603006B160300CA
S2140121006B1603006B1603006B1603006B160300B9
S2140121106B1603006B1603006B1603006B160300A9
S2140121206B1603006B1603006B1603006B16030099
S2140121306B1603006B160300513001008715030070
S214012140002370B5404C05468AB0E36318B1008899
S21401215023600DF08FFA3D482AF003FA3C4E3D4BC2
S214012160304633603C4B736025F086F800213046DC
S21401217017F076FA32A3D3E90023A062C4E9062356
S21401218025F085F8D4E9062319431043C4E906016E
S214012190CDE900014FF0FF334FF0FF32A06A2AF07D
S2140121A05BFA02224FF0FF31A06A2AF05AFA0120A8
S2140121B00CF0E0FF4FF4007300222849A06A2AF0D1
S2140121C0A3FAB0F5007F38D100239422CDE9073376
S2140121D009933C23CDE9033205939623A06A03A90C
S2140121E0069317F05BFB35B3287C0DF0F1FB054633
S2140121F0F0B9A06A2AF066FB0DF098FB0CF09CFF84
S21401220020B14FF48070002109F032FD0CF0A4FFDC
S21401221020B14FF40060002109F02AFD25F002F9F3
S214012220012017F071FA0E4A0E49A06A25F022F82D
S21401223028460AB070BDFF20D7E70725F8E700BF9C
S2140122400DD5015520000000880F0020690345ECDC
S21401225044240020F9EF01005424002044220020E9
S2140122601D7203005D72030010B5054C237833B967
S214012270044B13B1044800E000BF0123237010BDD6
S214012280E811002000000000342C040008B5034BC0
S2140122901BB10349034800E000BF08BD0000000071
S2140122A0EC110020342C0400A3F5803A704700BFDF
S2140122B0174B002B08BF134B9D46FFF7F5FF002178
S2140122C08B460F461348144A121A2AF03BFE0E4B51
S2140122D0002B00D098470D4B002B00D098470020CC
S2140122E0002104000D000D48002802D00C4800E033
S2140122F000BF1DF087FF200029001FF0D2F81DF057
S2140123006DFF00BF00000800000000000000000094
S214012310C00A0020180F0020342C00200000000006
S2140123200000000070B504460D4621B94FF4167141
S21401233008481FF067F80E46062056F8043F33B9E2
S21401234006288ABFA3682B681B68636070BD204699
S2140123509847F2E720DB030038B5036804462BB143
S21401236083681BB145680B4A954203D0C8210A48C9
S2140123701FF048F89847082801D0D221F7E7A3684C
S2140123801B6863602046A168FFF7CCFF0728F9D8D1
S21401239038BD00BF28DB030020DB0300F0B5044690
S2140123A00F46456887B001B125B94FF4967131489B
S2140123B01FF028F82E4639462046736898470128AC
S2140123C03FD83668002EF6D107B0F0BDEB681BB1DA
S2140123D020460191984701992D6839E0906828B107
S2140123E006A800EB830040F8102C0133126837E092
S2140123F05D1E6B1C13D13B696760C3B120469847CD
S21401240065682E4600270628DED9A168A760AE4279
S2140124100FD12046FFF786FF65682E46F3E702AB2D
S21401242053F8253020469B689847013DE1E7062092
S214012430E6E7EB681BB120460191984701992D68A4
S214012440E5E70628C0D90928DCD1A1686768656078
S214012450B542BBD12046FFF765FF3A4600236168C7
S2140124608A4201D0032BB9DD042BC1DD40F22A31AB
S2140124709DE700BF20DB0300024B0360024BC0E96F
S214012480013170473CDB030028DB0300014B83600E
S21401249008207047CCDC0300014B8360082070479E
S2140124A0B4DC0300014B83600820704768DC03003E
S2140124B0044B0A689A4203BF034B8360072000203F
S2140124C0704700BFA00009063CDD030008B50248BE
S2140124D01FF084F9052008BDD0E0030008B50248C6
S2140124E01FF07FF9052008BDD0E003000B68234AE2
S2140124F010B5934204463DD007D8052B2ED002F1E5
S2140125007F4293420DD0002010BD1D4A93421ED03B
S21401251002F180729342F6D1FF2380F83330194BD3
S21401252010E0194B1B681A7B80F822205B7BFF2B7F
S21401253022D0428B4AB1028B3AB142692AB180F865
S2140125402C30124B0720A360DEE7114BFAE70E4B47
S2140125501B685B7980F82C300E4BF3E790F822006D
S21401256010F09CFAE06000B1FEE7FF23022084F839
S2140125703330C9E7084BE5E70120C5E7A0000601AF
S214012580A0000F0308DD03006C1200202CDD030001
S21401259018DD0300F4DC0300E4DC030037B50B6848
S2140125A0714A0446934200F0D18007D8042B15D017
S2140125B0052B00F0C180002003B030BD6B4A93426A
S2140125C0F9D16B4B1B68B3F8052041F212139A42FE
S2140125D040F0AA80674B83600720EDE74B7A032B18
S2140125E045D8DFE803F0026094A50A7A624B53F8F7
S2140125F02230624A934213D1532380F8273090F851
S2140126002B30418B80F828300123032280F82930B3
S21401261000F1270390F8220010F07AFAB0B1FEE735
S214012620574A934226D1502380F8273090F82B3012
S214012630418B80F828302B23032280F8293000F1C3
S214012640270390F8220010F063FA90B9E0600122A7
S2140126504C4B4D481A701FF0C4F800237821CDE981
S21401266000334A4A4A4805F057FFD8B9E0600220CD
S214012670A2E7FEE7474A9342E9D1502380F8273084
S21401268090F82B30418B80F828302D23032280F8D8
S214012690293000F1270390F8220010F039FA0028BB
S2140126A0D4D0FEE7FEE7344B0A7A53F82220334BA8
S2140126B09A4239D190F82B305322022B8EBF002339
S2140126C00133DBB280F82B3080F8272080F82830E1
S2140126D080F82920418B00F12703032290F822007D
S2140126E010F016FA0546E06000B1FEE70222254B1F
S2140126F025481A701FF075F82B467821CDE900554C
S214012700224A234805F008FF0028AFD0FEE71A4BFF
S2140127100A7A53F822201F4B9A4205D190F82200DC
S21401272010F0BCF918B9E06000F0AEFD9FE7FEE7D7
S214012730002025F015FD9AE790F8220010F0AEF97A
S214012740E06000B1FEE700F0BBFD90E7084B1968BA
S214012750038BB1F805209A4289D18A7A23300B314E
S2140127602AF0C9FB83E700BFA0000904A000090600
S2140127706C12002094DC0300CC0A002088E00300E1
S214012780A0E00300E32A0020D0E00300A12D010011
S21401279038120020B8E003000B681F4A70B5934258
S2140127A0044605D002F1A06293421BD0002070BD02
S2140127B01A4B10221D681A4905F10A0630462AF0FE
S2140127C08AFB20B9D5F8053063610220EFE70222C3
S2140127D0304614492AF07FFB0028F6D1D5F805309B
S2140127E0E361F2E743692BB1C3691BB10E4B83600A
S2140127F00720DCE794F8220010F050F9E06000B101
S214012800FEE794F8220010F05BF9E06000B1FEE705
S214012810FF2384F83330D8E7A00009016C120020AA
S2140128206CDD03007EDD030058DC03000A68114BF3
S21401283013B59A4204461AD11EF02BFE0321262018
S21401284010F0CAF9E06000B1FEE74FF6FF730E2103
S214012850CDE9000305226423084610F0A3F8E060E2
S21401286000B1FEE70720044BA36002B010BD0020B4
S214012870FBE700BFA0000100C0DC030010B590F824
S21401288033300446FF2B04D0034805F03FFD10B952
S214012890E060052010BDFEE7381200200B68154ADF
S2140128A010B59342044621D002F1007293421DD026
S2140128B002F17D4293421BD10F4805F027FDE060EF
S2140128C010B90E481EF08AFF0D4B1B689A8841F21C
S2140128D013039A4205D194F82C0010F091F920B90F
S2140128E0E0600720074BA36010BDFEE70220FBE770
S2140128F00020F9E7A000060238120020D0E003000D
S2140129006C120020A8DC0300012213B50446018CDA
S21401291001AB90F822008DF8042010F0F9F8E06081
S21401292000B1FEE702481EF05CFF042002B010BDB5
S214012930D0E003000B68124A10B59342044615D046
S21401294002F18062934219D1038C1BB10D4B836057
S214012950072010BD90F8220010F0A0F8E06000B14A
S214012960FEE7FF2384F833300220F2E7064B1A68AD
S2140129705379927943EA02230384F5E70020E8E7D6
S214012980A000090250DD03006C1200200B68244AE7
S21401299073B5934204460AD002F1806202F58022A2
S2140129A093423BD0052B37D0002002B070BD1D4EA0
S2140129B030680379032B01D00120F6E7817D1730BB
S2140129C000F0B2F90028F7D0174805F09FFCE06048
S2140129D000B1FEE73568EA7A0090A97A6B7A43EA95
S2140129E001230146D5F8050063F30F0101230FF01B
S2140129F0FDFFE06000B1FEE73368D3F80520C4F8B8
S214012A002D20B3F80920DB7AA4F8312084F833307E
S214012A10064B0720A360C8E7054BFAE70220C4E788
S214012A20A00005006C1200203812002084DC030090
S214012A3074DC03000B6837B5042B044605D0154A31
S214012A4093421DD0002003B030BD90F83320FF2AFA
S214012A5014D000F12203009390F8311090F8325010
S214012A600123D0F82D0041EA05210FF0BFFFE060F9
S214012A7000B1FEE7084B0720A360E4E7074BFAE73F
S214012A80074805F043FCE06010B906481EF0A6FEB4
S214012A90054BF0E7A0000601D4DC030038DC030098
S214012AA038120020D0E0030028DC030010B541698D
S214012AB004461022064B90F8220010F013F8E0604E
S214012AC000B1FEE703481EF08CFE042010BD00BFD7
S214012AD05CDD0300D0E0030010B5C16904460222A4
S214012AE0064B90F822000FF0FDFFE06000B1FEE714
S214012AF0208403481EF075FE042010BD7CDD030013
S214012B00D0E003001FB503A905F0A4FC38B90346BD
S214012B10CDE90000034A039903481FF0EBFE05B018
S214012B205DF804FB292C0100381200201FB5002394
S214012B304FF6FF72CDE901324FF4FA720092044665
S214012B404FF49672C82190F822000FF07DFFE060E6
S214012B5000B1FEE742F21070FFF7D4FFE06000B16B
S214012B60FEE701220420024B1A7004B010BD00BF1C
S214012B70E52A002008B502481EF033FE052008BDF0
S214012B80D0E0030008B502481EF02BFE052008BD64
S214012B90D0E0030008B502481EF023FE052008BD5C
S214012BA0D0E0030010B5044690F822000FF088FF2D
S214012BB0E06000B1FEE702481EF013FE042010BDDF
S214012BC0D0E003000B68124A10B59342044605D0C4
S214012BD002F1806293420AD0002010BD0D4B1A68A4
S214012BE05379927943EA022303830220F5E7438B64
S214012BF01BB1094B83600720EFE790F822000FF026
S214012C004DFFE06000B1FEE7FF2384F83330ECE7C8
S214012C10A00009026C12002048DC03000149FFF7FE
S214012C202BBC00BF8D2401000122014B1A70704796
S214012C30E72A002004220A4B70B500251A60E0221C
S214012C401D715A71074B1C682046FFF7E7FF236882
S214012C502A4629462046BDE870401B68184700BF33
S214012C606012002048DB03001FB51B4B1A78B2B177
S214012C7000221A481A7005F049FB00B1FEE742F23D
S214012C80107003A905F0E6FB034638B9CDE900004C
S214012C90134A039911481FF02DFE00B1FEE7114BB0
S214012CA01A783AB100221A700F4B10491868036857
S214012CB05B6898470E4B1A7852B100221A700A4B7D
S214012CC00C49186803685B6805B05DF804EB1847A3
S214012CD005B05DF804FB00BFE42A0020381200208E
S214012CE0292C0100E52A002048DB030060120020A1
S214012CF0E72A002080DD0300084B094918600368B5
S214012D00002223F47F4323F007030B60E0234B717B
S214012D10044B0A71186803685B6818476C12002038
S214012D205812002048DB03002DE9F04105460F4606
S214012D300024DFF83480BC4202D30020BDE8F081D5
S214012D402B195B782E5D063B012B06D8A01C1022A2
S214012D50414628442AF0BFF818B101363444E4B29B
S214012D60E9E70120EAE700BF6CDD030038B5094D4D
S214012D7004462B783BB9084908480FF053FF00B1C9
S214012D80FEE701232B7014B1034B1B782370034815
S214012D9038BD00BFE62A0020E22A0020DC2A0020F7
S214012DA010B50B4C23787BB10A481EF01DFD30B1DF
S214012DB008481EF016FD2378013B237010BD054818
S214012DC0BDE810401EF00DBD0122034B1A70F5E759
S214012DD0E32A0020D0E00300E42A00200122034B6E
S214012DE01A70034B5972187200F06ABAE52A00206D
S214012DF0601200207FB503681F4A23F47F4323F047
S214012E000703934234D10522002118201B4B0FF0F3
S214012E1095FE00B1FEE70DF1070102A80FF002FFD3
S214012E20014600B1FEE79DF80D3008228DF81030FE
S214012E309DF80C301A208DF811309DF80B308DF866
S214012E401230FF238DF81330FE238DF814309DF8D1
S214012E500A308DF815309DF809308DF816309DF83A
S214012E6008308DF8173004AB0FF068FE00B1FEE7AE
S214012E7007B05DF804FB00BFA000010088DD030079
S214012E8010B5234C01F068FB01F04EFD236F23F0D3
S214012E90070343F0030323671EF0FBFD1D4B0020D1
S214012EA09B6A9B075EBF01221B4B9A62D4F82031B6
S214012EB023F0030343F00203C4F82031D4F824318D
S214012EC023F0070343F00203C4F82431D4F8403159
S214012ED023F0030343F00103C4F84031D4F8603112
S214012EE023F0030343F00103C4F86031D4F8403201
S214012EF023F0030343F00103C4F84032D4F8003250
S214012F0023F0070343F00103C4F8003210BD00BFED
S214012F100080005000C0005000E0005008B502F0EC
S214012F2053FA01280ED1134B04205A6E4FF4802316
S214012F301149520358BF114A4B6601F51041086208
S214012F4058BF536603F0BAFF1EF082FB03F05AFF28
S214012F5003F07AFF1FF00CFBFFF792FF03F062FF0E
S214012F601EF06DFB00F0F6FB01F020F8BDE808400E
S214012F7004F0B2BC008000500090005000A0005049
S214012F8030B5204D9DB009AC0FCD0FC495E80F00AC
S214012F9084E80F004FF416532822002112A80B9341
S214012FA029F0D0FF184B01241193382313930223E1
S214012FB08DF8503015938DF85830032310220021D8
S214012FC005A817938DF8494029F0BCFF4FF48012ED
S214012FD00E4B03A9CDE903233E238DF814303F237E
S214012FE08DF815300A4B09AA069320230793094B3F
S214012FF00948009311AB8DF8204003F0F1FF1DB096
S21401300030BD00BF68E003000000035A3400035AD5
S214013010E82A002070120020E8120020022905D8B4
S214013020034B1B68186808B1436A1847704700BF0E
S214013030C80A002008B50449044804F011FDBDE89B
S2140130400840FFF79DBF00BFC00A0020E012002025
S21401305001481FF0EABA00BFE8120020014B1A6AC5
S21401306018681047E812002008B505481EF022FB34
S21401307004481EF01FFBBDE8084003481EF01ABBBB
S21401308088E00300A0E00300B8E0030001481EF05A
S214013090A2BB00BFD0E0030008B5064B834207D1B0
S2140130A0054B1B7823B1C8B20FF0F8FC00B1FEE760
S2140130B008BD00BF0C130020082B002030B50024EB
S2140130C00368384A23F47F4323F0070385B093420D
S2140130D005468DF808408DF809408DF80A408DF8B0
S2140130E00B408DF80C408DF80D4035D002F580224E
S2140130F093420CD0A2F18272934251D12A4B1B7893
S214013100002B4DD005B0BDE830401FF0B6BCB0F87E
S2140131100530222B44D1FF2304A91A4611E90300E6
S2140131201EF084FA012814BF41F2FC141E4B4FF026
S214013130220108BF187004F0FC0228790FF014FD74
S21401314000B1FEE7194900902B79194A0968194818
S21401315000F048F920B3FEE7B0F80530B7EE047A80
S21401316007EE903AF8EE677AB0F8073027EE877ADE
S214013170013307EE903AF8EEE77A67EE277AB1EE7A
S214013180047A67EE877AFAFE677AFCEEE77A17EE3C
S214013190903AB3F57A7F38BF4FF47A73034A1360D7
S2140131A005B030BDA0000602082B0020D80A00207A
S2140131B0993001000C13002004210022034B1971E1
S2140131C01A6019739A6019751A61704744130020C2
S2140131D02DE9F8431F4B06461B78ABB90325DFF8EC
S2140131E07C901D4C59F8043BB34207D130461EF083
S2140131F066FA01280AD11FF0FEFB2060013D15F09A
S214013200FF0504F10804EDD1BDE8F88330461EF051
S21401321056FA80460028F1D11FF0EDFB2368C71A45
S214013220E62005F005F9B84202D984F80480E5E7FE
S2140132304FF47A7005F0FCF8B84202D901232371E5
S214013240DCE740F6B83005F0F3F8B8428CBF02234D
S2140132500323F4E7190D002044130020CC0A0020B4
S21401326070B500240426074D2979E0B2042902D05E
S214013270FFF7B4FD2E710134032C05F10805F3D1D7
S21401328070BD00BF4413002070B50024094D0A4EDE
S21401329055F8040B1EF013FA012803D11FF0ABFBFF
S2140132A046F834000134032CF2D10022034B1A7085
S2140132B070BD00BFCC0A002044130020190D002069
S2140132C0064B1A784AB9012119700421044B197169
S2140132D01A6019739A6019751A617047190D0020E2
S2140132E044130020074B187850B9074B1A79042A63
S2140132F006D11A7B042A03D1187D031F5842584170
S214013300704700BF190D002044130020094B1B789D
S2140133105BB9094B1879042809D11A7B042A07D10D
S2140133201B7D042B08BF0120704701207047042035
S214013330704700BF190D002044130020012208B574
S214013340074B1A700022074B1A700422064B1A709C
S2140133501F22064B1A7003F0DBFD054B186008BDF3
S2140133601A0D0020092B00201B0D00201C0D00202B
S2140133705C13002038B505461EF0A7FB00230B4A58
S21401338014685CB1AC4206D1A96A6BB199621EF0B1
S214013390A2FB012007E02346A46AF2E7002DF3D042
S2140133A01EF099FB204638BD1160F0E7601300203F
S2140133B010B5044690B104F0A9FF2046FFF7DAFFE6
S2140133C058B194F82C0040B11EF07FFB044A1368F4
S2140133D0013B13601EF07FFB002010BD2220FCE79E
S2140133E0641300202DE9F04F85B0054691469846B6
S2140133F00E469DF8387009B9002F66D12846FFF7AA
S214013400D7FF0446002840D185F82C00686305F0F4
S214013410B7F886423DD905F005F840F2E7318C460B
S2140134202146E6FB00C14FF47A72604600231CF089
S2140134303DFD4FF0FF32002383468A461CF036FDE1
S2140134404FF0FF32E8860023584651461CF02EFD09
S2140134502B4611462846CDE900441D4A1FF0A6FA20
S214013460044690B9C5E9089885F82D702E631EF0BC
S2140134702CFB184A136833B31A469B6A002BFBD100
S21401348095620023AB621EF026FB204605B0BDE820
S214013490F08F47B12B4631462846CDE900440C4A09
S2140134A004F0F6FFDCE7304603A904F0D3FF044638
S2140134B00028EAD12B462846CDE90077044A03992D
S2140134C01FF050FACCE71560DBE72124DDE700BFEB
S2140134D0D93401006013002091F82C3013B50C4646
S2140134E083B98B8ECA8E93420ED243B9CDE900338F
S2140134F020460B46104A4FF0FF311FF017FAA38EF5
S2140135000133A38602B010BD52B191F82D307BB1C4
S21401351001230093D1E908232046096BFFF762FFD8
S2140135200123064A84F82C30136801331360E9E757
S214013530084604F0EBFEF3E7D934010064130020DB
S2140135402DE9F041144E336823B34FF00008134FB2
S2140135501EF0BBFA05463C6824B92846BDE8F04192
S2140135601EF0B9BA94F82C3093B1336884F82C80E5
S214013570013B336094F82D3013B92046FFF7FAFE6D
S21401358028461EF0A8FAD4E9083120469847DFE716
S214013590A46AE1E7BDE8F08164130020601300200F
S2140135A0034B1B68002B0CBF01200420704700BF93
S2140135B064130020024B1868B0FA80F04009704787
S2140135C0641300200348044A0449121A92101EF09C
S2140135D04DB800BFA0300400A0300400342C0020F9
S2140135E008B500F02FF8FFF7EDFF124B12498B429A
S2140135F012D30020114B12498B4218D3FEF758FE06
S214013600186850F82240586840F8224001329868FD
S2140136108242F5D30C33EAE70022F8E71C6844F847
S214013620220001325C68A242F8D30833E4E70022A4
S214013630F8E700BF3C2C0400482C0400482C04008A
S214013640482C04004FF400414FF0FF30124B134A50
S21401365010B59A60D3F8882042F47002C3F8882027
S2140136600F4A916601F1884101F5005210664FF646
S214013670DF7050660220C3F8D000BFF34F8FBFF350
S2140136806F8F08244FF440330648C0F88041D3605A
S21401369004600B6110BD00BF00ED00E000200100DA
S2140136A00090005000E100E0014B1868704700BF31
S2140136B0E00A0020084B1B6F03F00703022B04D01F
S2140136C0032B05D0012B05D0FEE7044B1868704785
S2140136D0034BFBE70348704700800050E00A0020D8
S2140136E0E40A0020002D310108B5FFF7E3FF054B82
S2140136F01B6FC3F303330133B0FBF3F0024B1860C7
S21401370008BD00BF00800050DC0A0020004870475A
S21401371000B4C404014B1868704700BFE40A0020D7
S214013720054B1860054B1B6F03F00703032B01D1F4
S214013730FFF7DABF704700BFE40A002000800050A0
S21401374000487047002D3101014B1868704700BFD3
S214013750E80A00200020836A10B5B3F5903F0ED228
S2140137601968084A91420AD1074C227812F0FD0FD7
S21401377004D1DB69984708B90123237010BD4FF4C3
S2140137808170FBE707B0CD5E0A2B00204FF0005397
S214013790074A1A60BFF34F8F0649074BCA6802F4FF
S2140137A0E0621343CB60BFF34F8F00BFFDE700BF5E
S2140137B002020FF000ED00E00400FA0505490A6870
S2140137C01318054883428CBF4FF0FF320B6010463A
S2140137D0704700BFEC0A002000800020F7B504689F
S2140137E0012105463A2000F0DBFD00230122617924
S2140137F0207901F0F3FB14233021227911FB0231E9
S21401380001F1A04101F5703109686379D940C943D6
S214013810A37901F00101022B217017D100F022FBE0
S214013820164A2B466179207900F046FBFF280246AE
S21401383060790ED12A46114900F068FB0123024641
S21401384061792079CDE9003301F070FB002003B0E7
S214013850F0BD01262779002301460096384601F07F
S2140138601FFC2A460549607900F050FB0023617968
S21401387002462079009301963346E5E7C916030010
S21401388008B501213A2000F08BFD03210123042213
S214013890002001F0A3FB00201EF085F90122214B38
S2140138A04FF46070C3F844241EF02BF81E4B00F54D
S2140138B0D520D3F8F02000F2FC4042F00102C3F814
S2140138C0F020D3F8FC2042F08072C3F8FC20174A9F
S2140138D0A3F55D431A60164B0222B0FBF3F0154BBD
S2140138E001381861C3F8F0204FF48072C3F804233E
S2140138F04FF06043104A0020C3F8B02F0F4AC3F8B8
S214013900802ED3F8002E42F48072C3F8002EFF22D8
S21401391083F82020D3F8002E22F48072C3F8002EFC
S21401392008BD00BF00D0035000ED00E0FF030040DB
S214013930F8590D00000004E055CEACC509000100A1
S21401394010B5012243780178847830209A40054BDF
S21401395000FB01331CB942F210015A5010BD41F26E
S2140139601001FAE700C0035010B501224378017830
S214013970847830209A40054B00FB01331CB941F294
S21401398010015A5010BD42F21001FAE700C0035070
S2140139902DE9F04F9A46564B85B01B7806460F46E2
S2140139A01546DDF83C909DF844B0DDF85080002BBC
S2140139B000F08D80072A00F28C800E9B002B00F011
S2140139C08880B9F1000F00F08480129BB3F5006F78
S2140139D07FDC012802D1109B002B7AD0454B03EBEC
S2140139E005131B7B002B76D0434C10220021684622
S2140139F029F0A8FA04EB45141022002F59D13946B4
S214013A00204629F09FFA43F210036380BBF1000FB2
S214013A1003D1E37843F00303E370374A0E9B02EBCE
S214013A20451CCCE90193129B6901013BC3F30A00D3
S214013A309DF84C30012E03F003034FEA836343EAFB
S214013A40001E53582D48CDF800A000EA03004EEAA8
S214013A500003535041D113230CF1100ECCF80C3057
S214013A609CE80F008EE80F006FF00301DCF81C20C5
S214013A70109B61F39F02012FCCF81C20CCF8143068
S214013A8003D1CCF81890CCF804300027194A290144
S214013A9002EB051342F80180159A28465A606946DA
S214013AA022469F605E7301F077FB384605B0BDE89D
S214013AB0F08F0021204629F045FA4FF444736380C5
S214013AC0BBF1000FA9D1E37843F03003A4E70C481B
S214013AD0ECE70C48EAE70C48E8E7B8F1000FD4D168
S214013AE09CF8023068F304138CF80230CDE700BF6F
S214013AF00B2B002068130020E81300200F80FFF333
S214013B00028000F0018000F0078000F038B5124B0B
S214013B1005461B78DBB1E0B11DF0D7FF0F4A002345
S214013B201146147B54B92B6001251A0101EB0313CE
S214013B301D738C501DF0CFFF204638BD0133082B76
S214013B4002F11002EDD11DF0C6FF0548F5E7054864
S214013B50F3E70548F1E700BF0B2B002068130020B0
S214013B60048000F0028000F0018000F013B51DF023
S214013B70ACFF00230B4A147B7CB90133082B02F1FE
S214013B801002F8D1019001F0A9FA074B01981C70B8
S214013B901DF0A1FF204602B010BD1DF09CFF03489A
S214013BA0F9E700BF681300200B2B0020058000F00A
S214013BB00D4B10B51B78044693B1072812D81DF09B
S214013BC084FF0A4B03EB04131A7B2AB100241C73EF
S214013BD01DF081FF204610BD1DF07DFF0448FAE769
S214013BE00448F8E70448F6E70B2B0020681300208A
S214013BF0068000F0028000F0018000F0154B13B53E
S214013C001868002301908DF804301DF05EFF124BFA
S214013C101C7824B11DF05FFF104802B010BD0122D0
S214013C201A701DF058FF0E4B01A81C731C7783F801
S214013C302C4083F83C4083F84C4083F85C4083F882
S214013C406C4083F87C4008238DF8073001F072FA47
S214013C502046E2E738E103000B2B0020038000F04A
S214013C60681300200A4A08B512785AB107280BD8FB
S214013C70084A02EB00131B7B43B1002101F04CFA0A
S214013C80002008BD0448FCE70448FAE70448F8E7C2
S214013C900B2B002068130020028000F0018000F04A
S214013CA0078000F00A4A08B512785AB107280BD8DF
S214013CB0084A02EB00131B7B43B1012101F02CFAE9
S214013CC0002008BD0448FCE70448FAE70448F8E782
S214013CD00B2B002068130020028000F0018000F00A
S214013CE0078000F00A4A08B5127852B107280AD8A8
S214013CF0084A02EB00131B7B3BB101F097FA002048
S214013D0008BD0548FCE70548FAE70548F8E700BF9F
S214013D100B2B002068130020028000F0018000F0C9
S214013D20078000F00D4B1B7893B1072812D889B194
S214013D300B4B03EB00131B7B73B10A4B1A6D01236C
S214013D4003FA00F010401ABF00200B70087070478D
S214013D500548704705487047054870470B2B0020FB
S214013D606813002000000450028000F0018000F07B
S214013D70078000F00B4A10B512780C4662B107288E
S214013D800CD859B1084A02EB00131B7B43B101F072
S214013D905FFA2070002010BD0448FCE70448FAE7EB
S214013DA00448F8E70B2B002068130020028000F07F
S214013DB0018000F0078000F02DE9F843174B1F6DD6
S214013DC05B6D1F4000D5FEE701260025144CDFF889
S214013DD05480DFF85490374217D02368C8F85060F3
S214013DE09BB1A168284601316268A1609847637B50
S214013DF0012B0AD148B909EB45131A7B60F341023E
S214013E001A731A7F60F341021A770135082D4FEABB
S214013E10460604F11004DED1BDE8F8830000045024
S214013E206813002000200450E813002070B50446F3
S214013E3001250B4E04B970BD94FAA4F0B0FA80F0D7
S214013E4005FA00F306EB001224EA03045368002B7C
S214013E50F0D0117B11B191689847EBE79847E9E7F5
S214013E60E814002008B5192000F08AFD28B14FF0AB
S214013E700072074BC3F880211A601A2000F080FDFB
S214013E8028B14FF08062024BC3F880211A6008BD4A
S214013E9000E100E038B505460C461DF016FE00228E
S214013EA0044B03EB05135C601A73BDE838401DF044
S214013EB012BE00BFE8140020F8B504460D461746AA
S214013EC01E461DF002FE1CB9052D0DD0FF2414E080
S214013ED0012C03D1012DF9D1032405E0022CF5D1E3
S214013EE07DB1052DF2D107240123074D04F1100100
S214013EF005EB0111C1E901760B731DF0ECFD2046BF
S214013F00F8BD0624F0E700BFE8140020F8B5054622
S214013F100F4616461DF0D9FD104B05F0FC02D3F8EE
S214013F2024140023EC1804F00304144321FA04FCBF
S214013F301CF0010F07D00133042BF3D1FF241DF031
S214013F40CAFD2046F8BDFF2CF9D00122044B03EB35
S214013F500413C3E901761A73F1E700BF00C00350EA
S214013F60E8140020074BD3F82404D3F8202403F5E3
S214013F700053104000F0553020F05020C3F82004C4
S214013F80FFF754BF00C00350074BD3F82404D3F8FF
S214013F90202403F50053104000F0AA3020F0A020A2
S214013FA0C3F82004FFF742BF00C00350024B196854
S214013FB0024B186814F066BFF40A0020F00A0020CD
S214013FC037B5920004460D46019229F085FD431C43
S214013FD00BD060B929462046019A28F07CFF0028BC
S214013FE0044808BF002003B030BD0348FBE7034880
S214013FF0F9E700BF10E000F021E000F024E000F057
S21401400010B5044629F058FD431C10D088B901F0BC
S214014010E3F9234620F003002044984201D1002012
S21401402010BD53F8042B0132F7D00348F8E70348D4
S214014030F6E70348F4E700BF0EE000F021E000F0E9
S21401404024E000F008B51DF039FD014B186008BDED
S214014050281D0020014B18681DF034BD281D0020C6
S214014060044BD3F88420D206FBD4D3F88400C0F3E3
S214014070811070470040005038B5104B0546D3F804
S21401408020310C4603F00303022B0BD0032B0DD07B
S214014090012B0FD1FFF708FB052305B1286004B1FA
S2140140A0236038BDFFF736FB0323F6E7FFF748FB2F
S2140140B00223F2E701230020EFE700BF0080005053
S2140140C073B50D4600210E4B0191D3F8804106468B
S2140140D004F00304012C09D0022C0CD00C460EB1BE
S2140140E0019B336005B12C6002B070BD01A8FFF7DB
S2140140F0C3FF0F24F3E7FFF723FB0190EFE700BFB1
S2140141000080005038B5184B0546D3F824010C46FC
S21401411000F00700062805D8DFE800F0230B131B84
S2140141201F0F17000023184605B1286004B123604D
S21401413038BDFFF7B9FA0523F6E7FFF7B5FA062308
S214014140F2E7FFF7E7FA0323EEE7FFF7E3FA0423C4
S214014150EAE7FFF7F5FA0223E6E71DF092FA0723EE
S214014160E2E70123E0E700BF0080005038B5104BBE
S2140141700546D3F840310C4603F00303022B0BD05F
S214014180032B0DD0012B0FD11DF07DFA092305B1AC
S214014190286004B1236038BDFFF7D6FA0823F6E796
S2140141A01DF074FA0B23F2E701230020EFE700BFAE
S2140141B00080005038B5144B0546D3F800020C4673
S2140141C000F00700042804D8DFE800F01B0A0E12EE
S2140141D016000023184605B1286004B1236038BDD7
S2140141E01DF051FA0923F6E7FFF7AEFA0823F2E7C6
S2140141F01DF04CFA0B23EEE7FFF776FA0E23800A42
S214014200E9E70123E7E700BF0080005038B5104B0F
S2140142100546D3F840320C4603F00303022B0BD0BD
S214014220032B0DD0012B0FD11DF02DFA092305B15B
S214014230286004B1236038BDFFF786FA0823F6E745
S2140142401DF024FA0B23F2E700231846EFE700BF20
S2140142500080005038B5104B0546D3F860310C4647
S21401426003F00303022B0BD0032B0DD0012B0FD130
S2140142701DF009FA092305B1286004B1236038BD91
S214014280FFF762FA0823F6E71DF000FA0B23F2E7C0
S21401429001230020EFE700BF0080005010B40D4C52
S2140142A00B46D4F8204204F00304012C0AD0022C59
S2140142B00CD008B1002101600BB100221A605DF834
S2140142C0044B70475DF8044BFFF7D6BE5DF8044B10
S2140142D0FFF74CBF0080005038B50C4605461DF070
S2140142E0EDFB064B9A6A82EA040101EA0504544092
S2140142F09C62BDE838401DF0E5BB00BF00C0005021
S214014300B0F5207F1FD009D8B0F5007F15D003D8AF
S21401431068B1B0F5C07F0AD000200CE0B0F5607F30
S214014320FAD10B4BD3F88000C0F3011003E0084B21
S214014330186FC0F3033001307047054BD3F8900077
S214014340C0F30460F7E7024B186FC0F38020F2E772
S214014350008000504FF400320E4B014610B500208D
S2140143609A66FFF7CDFF41F6713248430A490B4B77
S21401437088428CBF4FF480100020DC69DA639A68AB
S21401438022F4401202439A60E20344BF0022DA6339
S21401439010BD00BF00900050005A6202000003509A
S2140143A0420910B510D0012A10D00B4B0B4C022A33
S2140143B018BF234600F01F0051B103F580530122B8
S2140143C002FA00F0186010BD1346F3E7044BF1E75C
S2140143D003F50053F3E700BF688000506082005089
S2140143E06480005008B580201DF08BFA034B98427C
S2140143F09EBF4FF48032024B1A6708BD005A620214
S21401440000A000501FB50023B0F5807F019377D040
S21401441028D8382800F094800BD82438092810D8DA
S21401442009280ED8DFE800F0676767670D0D620D93
S214014430377D52285FD008D83D283BD03E2800F073
S2140144408480019805B05DF804FB8028F9D1414BC2
S2140144501B6F03F00703013B032BF2D8DFE803F0E1
S21401446044413F6CB0F5D06F5BD019D8B0F5A06F62
S21401447066D00AD8B0F5806F3DD0B0F5906FE0D128
S214014480002001A9FFF73EFEDBE7B0F5B06F2DD0A7
S214014490B0F5C06FD5D1002001A9FFF767FED0E7C0
S2140144A0B0F5006FECD00AD8B0F5E06F4DD0B0F59E
S2140144B0F06FC6D1002001A9FFF7CCFEC1E7B0F529
S2140144C0086FBED1234BD3F8003103F00303022B50
S2140144D02CD0032B2ED0012B30D1FFF71BF9032351
S2140144E000E005230193ACE70223FBE7002001A9C6
S2140144F0FFF7E6FDA5E7002001A9FFF7BDFDA0E750
S21401450002934FF0E0231B695B0705D5FFF7ECF834
S2140145100C230393039BE5E703A902A8FFF726FEF6
S214014520F8E7002001A9FFF745FE8AE7FFF70CF937
S2140145300823D7E71DF0A5F80723D3E70123D1E722
S214014540002001A9FFF7AAFE7BE7002001A9FFF7DB
S2140145505DFE76E7008000504FF40022034B5A665A
S214014560012203F580439A62704700BF0090005015
S21401457008B5FFF747FF082811D00938012811D8D8
S2140145804FF40012094B4FF6FF705A6603F5D83305
S2140145905B6A13F0010F18BF4FF4FA7008BD044BA5
S2140145A01888FBE74FF6FF70F8E700BF0090005051
S2140145B0040D002070B504468020FFF723FF032872
S2140145C000F082804FF40022444B02215A6645F6E1
S2140145D00E03434AC2F88030424B9962012103F52B
S2140145E080539962936DD903FCD4D4E900131B055B
S2140145F043EA0163E17B94F822500B43217B94F854
S214014600236043EA0143617B43EA0133A17B43EA2A
S214014610811313619169D4E904031B0643EA80639D
S21401462001F000410B43A17EE07E0B43217E43EA6D
S2140146300143617E43EA01239361E369126A002B19
S2140146400CBF0021082122F00D0242EA030242EAD1
S2140146508002234B42EA01021A6294F820204FEAB4
S214014660421232D1986A94F8211020F0330042EABF
S2140146700112024342F001029A621B4A996D32EA24
S2140146800101FBD1022217498A621A659A6D52000E
S214014690FCD41869A26820F4700040EA02504FF07A
S2140146A0004218610F4B9A611DB9022203F580532F
S2140146B09A6216B901220D4B9A6294F824301BB106
S2140146C0074B0B4AC3F8802070BD996A21F033016D
S2140146D031430A4342EA4502EEE700BF009000502C
S2140146E000C0005000D000500300014000E0005020
S2140146F0F1A7FFFF1F4BFF2873B5996A37D89A6D4C
S21401470012F4803F18BF01241B4A18BF946202248A
S21401471094629B6DDA0303D5164A936D9B07FCD50D
S2140147200222154B134E1A65B46D14F08044FBD16A
S214014730124B93F90050B369054423F47F0323F425
S2140147407F4343EA002385F3080043EA0043B3614D
S21401475002200191FFF7C0FDB06D019910F4803081
S21401476003D00120FFF7B8FD204602B070BD21201E
S214014770FBE700BF00C0005000D000500C2B00200B
S214014780014B93F9000070470C2B002001221548BD
S214014790154B816A9A62826D02F00302032AFAD1EE
S2140147A002229A621A650F4B9A6D5200FCD40F4A88
S2140147B0986D32EA0000FBD101220B4B1A65A3F576
S2140147C080539A6D9007FCD49A6D9207FCD502220D
S2140147D0054B1A65034A936D9B07FCD50320FFF72B
S2140147E07BBD00BF00C0005000D000500300010098
S2140147F0014B1880704700BF020D00204FF40012D5
S21401480008B5184B5A660223174A5360936813F487
S2140148108033FBD1012822D1FEF77CFF134B98424F
S21401482015D003F5122303F5F863984213D0104B05
S21401483000EB8002400AB3FBF0F0520A0A4BDA6240
S214014840012218635A620022074B5A6008BD45F6DA
S2140148507A10084AF2E745F61A00074AEEE753626D
S214014860F1E700BF009000500040025000F04902FE
S21401487064666666D8B80500BBCF0500B0F5207F34
S21401488010B50C4642D008D8B0F5007F33D003D817
S21401489088B1B0F5C07F0ED010BDB0F5607FFBD1FA
S2140148A01F4B013CD3F8801021F0300141EA04147B
S2140148B0C3F88040F0E71DF01CF81DF0E5F84FF452
S2140148C08031184A164B1167196F013C21F470416B
S2140148D041EA04341C67FEF707FF0446FFF7C0FBF6
S2140148E0C0F1020120461DF0C9F800F02DF8BDE820
S2140148F01040FFF777BD0A4B013CD3F8901021F02A
S214014900F85141EA0464C3F89040C5E7044B013C02
S214014910196F21F4806141EA84241C67BCE700BF5B
S214014920008000500090005008B50121022000F0E0
S214014930F5F81CF0DEFF1DF0A7F84FF48032014BAE
S2140149401A6708BD0090005008B54FF4C0701CF0FF
S214014950D8FFBDE80840044988428CBF02210121E6
S2140149604FF42070FFF78ABF80F0FA02034B5868B5
S214014970C0F30800003818BF0120704700ED00E0C2
S214014980054B420953F8223000F01F0023FA00F0CD
S214014990C04300F00100704700E100E0194B10B57C
S2140149A01B6873B3184A5268012A2AD0174A802016
S2140149B0C2F80031FFF726FD05281FD14FF4C0705D
S2140149C0FFF79EFC0128044604D102214FF4C07073
S2140149D0FFF754FF07220E4B1A610122A3F58053FD
S2140149E05A60094A1369DB07FCD5012C09D1214617
S2140149F0BDE810404FF4C070FFF740BF0122054BE1
S214014A005A6010BDDC1D002000C00150008000501F
S214014A1000E0015000D0015000224FF40031074B56
S214014A201A60074A516602F598325268012A02BF97
S214014A30044AD2F800211A60704700BFDC1D00202E
S214014A400090005000800050044A4178536F23F4D0
S214014A50407343EA01235367704700BF004000508C
S214014A6010B5044608B1FFF7D7FF104A136943F0A3
S214014A700403136103F024FA1DF030F80C4B0D4AC1
S214014A80C3F820241DF01AF829F01EF81DF01AF8B4
S214014A901DF025F803F03CFA1CB1BDE81040FFF705
S214014AA07DBFBDE81040FEF71FBE00BF00ED00E071
S214014AB000E003500000FF0F10B5044608B1FFF7F1
S214014AC0ABFF0E4A136943F0040313610C4B0D4A06
S214014AD0C3F8202403F0F4F91CF0F0FF28F0F4FFEB
S214014AE01CF0F0FF03F014FA1CB1BDE81040FFF70C
S214014AF055BFBDE81040FEF7F7BD00BF00ED00E072
S214014B0000E003500000FF0F034A0179D36E23F043
S214014B1030030B43D366704700400050F8B5044697
S214014B201C4BD3F88420D106FBD4D3F88430C3F3CE
S214014B3081139C422CD0FEF7BDFD012C064602D106
S214014B4021461CF09BFF1CF0B9FF4FF00072124B80
S214014B5007465A6620461CF0C7FF4FF480630D4D8A
S214014B60621E93402B676B6E9A0103D4D5F884308E
S214014B709B060AD538461CF0A5FF022C08D1304604
S214014B80BDE8F84000211CF079BFD5F88430EAE78B
S214014B90F8BD00BF004000500060005007B518B9CE
S214014BA00191FEF787FD0199064B1B7843B1064B31
S214014BB0984205D8012003B05DF804EBFFF7AEBFBD
S214014BC00220F8E70D2B0020005A62020278034B00
S214014BD0012100201A70FFF7E1BF00BF0D2B002056
S214014BE04FF0004238B5264B26495A6601224A60E4
S214014BF04AF6CD3103F50B235D6C1964154030BBC5
S214014C009968C9070BD4002401221F4B5A6015B1BD
S214014C101E4B1F4A1A6427F037FD204638BD1A4935
S214014C208A601C4AD96ACC0705D4904201D1072470
S214014C30EAE70130F6E79042E5D1F8E70132DC6AAF
S214014C4014F0080406D08A42F8D10724DFE70022D0
S214014C501049F4E78A42F8D020220B4B0B495A62DE
S214014C600122A3F580539A6023460A4A486A8006C1
S214014C7003D49342E9D00133F8E79342C7D1E4E77E
S214014C800090005000500950006009500040095043
S214014C903254FFFF40420F004FF0004238B5194B27
S214014CA0194C5A66012203F50C235A604AF6CD3395
S214014CB0656C23644378154093401343134AD363CA
S214014CC0A368827823F0740343EA0213C278002AA9
S214014CD014BF042200221343A3600279837943EAB6
S214014CE0022323614279C37943EA02236361007890
S214014CF0FFF776FF0DB1064B236427F0C5FC0120B4
S214014D0038BD00BF009000500040095000400050E0
S214014D103254FFFF10B504461CF0EBFE002341F2AF
S214014D2002020849E360A360226104F50052E361D0
S214014D306361A36123626362E362A3645164A36255
S214014D4010BD00BF7F370C0138B50446154639B98A
S214014D50184B984214BF084638201CF0D2FD014675
S214014D606368A06800F0E00040281AD003D8D0B1EC
S214014D7020281AD038BD602819D08028FAD10123FE
S214014D806B434901B1FBF3F10B4A2039204602EA95
S214014D90C10201211CF0A9FEA262BDE838401CF048
S214014DA0A4BE0623ECE71023EAE70823E8E704237A
S214014DB0E6E700BF0000035AF8FF7F00436870B5BE
S214014DC004460D4616461BB140F2FF711CF08DFEDF
S214014DD02046FFF79FFFE9896B7B22690B43298AEF
S214014DE022F44C520B4322F0030213432361A268C0
S214014DF02B7B297E22F0804222F0E2020B431343F2
S214014E006A691343A360AB681BB9A36843F0004308
S214014E10A360EB69002B58D0A16898883F4A00F43C
S214014E20C0400A4010431A7A40EA82509A7A40EA11
S214014E3042405A7840EA82005A7B40EAC2009A7B96
S214014E4040EA02109A7840EA8220A060E168D3E93D
S214014E50042021F4D81121F4C06102430A43997950
S214014E6042EA8122D97942EA4122E2601A7802F0C6
S214014E70FD01012908BFE168A2F1020204BF41F069
S214014E800401E160012A4FF0010294BF244925493B
S214014E90C1F8C0205A7A04F580510A621AB1E26854
S214014EA042F40062E260DA7A4AB1E2681E4942F4EC
S214014EB00042E2601A7B02F00F02C1F88020E2692C
S214014EC0DB7B22F003021343E36136B196F8203010
S214014ED004F58051A3B101238B61052120461CF006
S214014EE025FEAA6812B16968FFF72EFF20462978C9
S214014EF01CF039FE236CDB4313F4405FFAD170BD1E
S214014F00626996F8223096F8210022F009020343DE
S214014F10134343F001034B61DFE700BFE39BBDFF93
S214014F2000D4035000E4035000900350072AF7B55D
S214014F3001F0030614461F464FF003012CD89500D6
S214014F40A94000FA05F21C4801911CF01BFE0199CC
S214014F501A4806FA05F21CF015FE194B19499DF878
S214014F602000002F08BF1946012303FA04F40C6041
S214014F70154B1649002808BF0B461C60144B9DF8BC
S214014F802400C3F820441031A3F6DC33002808BF00
S214014F900B461C6003B0F0BDA2F10805AD00A940A8
S214014FA000FA05F20B4801911CF0ECFD01990A4844
S214014FB006FA05F2CFE700BF00C4035008C4035049
S214014FC010E4035010D4035014D4035014E40350D7
S214014FD000E0035004C403500CC40350F8B5044663
S214014FE00D461F4616464AB101238B403021194A09
S214014FF001FB0022FFB141F21001535004EB4403C0
S214015000072D4FF00F014FEA031317D8A80006FA31
S21401501000F28140104818441CF0B4FD56B9012135
S21401502030230C4801FA05F503FB040077B141F281
S2140150301003C550F8BD42F21001DEE7A5F10800E5
S214015040800006FA00F281400448E4E742F21003C9
S214015050EFE700BF00C0035004C003500CC003506C
S21401506010B50C4B0C4C0D4A0140C4F83004C3F883
S2140150703014C3F82C04D36E03F03003202B1FBF6B
S214015080D36E23F0300343F01003D366C4F8200434
S21401509010BD00BF00D0035000E003500040005098
S2140150A038B514461D46032283F00103FFF796FF29
S2140150B0012004F11001884005FA01F1FFF7D0FF45
S2140150C09DF81010034B044A002908BF13461860C8
S2140150D038BD00BF24D4035024E403504FF400121B
S2140150E00B4B10B5C3F88020BFF34F8FBFF36F8F04
S2140150F00024FF22074B21465C6520209A625C60F3
S214015100FFF74EF92146BDE810402120FFF748B9C8
S21401511000E100E000000450044A054B002918BFD6
S2140151201346012202FA00F018607047402004502E
S2140151304010045010B5012104462020FFF730F935
S21401514001212120FFF72CF90122114B5A60227808
S21401515012069A606178A27842EA01429A61FF22B9
S2140151609A6200229A631A644FF000425A654FF021
S214015170FF324FF4001103F500531A65054AC2F8D1
S2140151808011E3781B01DBB282F81533116010BD84
S2140151900000045000E100E0F8B50125C3B2DFF8D5
S2140151A088C0D1F800E09D408F7ACB7A0C46097B07
S2140151B0CCF850500CF5005C4CF820E04FF0300E67
S2140151C0174E1B050EFB006094F80DC043EA07431B
S2140151D043EA415322F00302C0F860C0C365026788
S2140151E01CF073FC736D227A2B4373650D4B02B171
S2140151F01D64627A02B19D632279A37943EA024370
S214015200094A93616179E37943EA014305498B6170
S214015210034B55639D64BDE8F8401CF05CBC00BFC1
S21401522000000450001004500020045010B5012462
S214015230C0B284401CF049FC044B5A6D22EA0402B9
S2140152405A659C62BDE810401CF045BC0000045045
S21401525010B50124C0B284401CF037FC074BDA6A53
S214015260224209D15B6B34EA03030CBF01240024FC
S2140152701CF031FC204610BD0024F9E70000045064
S2140152804FF40032054B9A6641F6713203F51C3332
S214015290DA63012203F50053DA607047009000508C
S2140152A041F671320121064BDA6303F50052D160F3
S2140152B00022DA634FF40032A3F518339A6670477A
S2140152C000000350CB784A7810B55B010C7843EAAE
S2140152D082030A79234343EA02130C22424302F172
S2140152E0B0421363012C02BF8A78024B43F8202098
S2140152F010BD00BFE880035008B54FF0B0435A68B0
S21401530002B960B15B680BB11CF04EFC4FF0B041C6
S21401531030B10120074B58601CF046FCC86008BD40
S2140153201CF042FC0223CB601CF03EFC0122024B27
S2140153305A60F4E700100058002000584FF0B043C0
S2140153405B6870B50BB11CF02FFC0121104B457842
S214015350596083780679002BC37814BF0224002491
S214015360002B14BF042200224379DB0043EA061314
S2140153702B43234313434FF0B0429360054B5960D0
S2140153800378002B14BF0B460223D36070BD00BF09
S21401539000200058001000584FF48032064B5A6621
S2140153A003F5E6235B69C3F38512827003F03F02BF
S2140153B01B0B42700370704700900050014B986CB5
S2140153C0D96C70470080E00F024B1868C0F30740A5
S2140153D0704700BF0080E00F0120034B9B680A3333
S2140153E003F01F03984070470080E00F38B504466D
S2140153F0054D27F06DF90FCC0FC594E8030085E83D
S2140154000300002038BD00BFE01D002047F6FF73F3
S2140154109A42F0B56AD002296AD8364B5B5C012BFA
S21401542066D8354DDF0005EBC30015F833308478B8
S214015430012B13D10025C3781B1BAB4202D8E01801
S214015440C0B2F0BD591B4668A3EB510136F9116095
S2140154509642D4BF0D4601F1FF33EEE740680028BF
S214015460EFD0B0F90030934204DBB0F9023093423A
S214015470B8BF134682883D44FF2A19BFC8214FF0A2
S214015480280CB0F90610B0F908C0A1EB03020CBF56
S2140154900126002692FBFCF26D78324412B2954248
S2140154A001DD002A01DA6A1E12B24FF47A7700EBA8
S2140154B0C206F188B668013213FB016112B221EA15
S2140154C0E1715C319542B1FBF7F104DD00EBC206F8
S2140154D0B6888E42EBD200EBC20232F8040C884248
S2140154E028BF0846A04238BF2046A9E7FF20A8E704
S2140154F00020A6E760E10300E01D00200229F0B5C8
S21401550057D82D4B585C012853D82C4C04EBC001BE
S21401551014F830004B6801280FD1C8788C78904277
S21401552094BFC4EB0001C4EB0201001BCAB2824265
S214015530C8BF002233F91200F0BD002B39D088789D
S214015540904202D3B3F90200F6E7CC78B3F9000033
S2140155509442F1D94C789988013CA1F1FF06714239
S21401556003F10405E4B2714103F10C071FFA82FC52
S214015570CEB2B44216D805EBC1014FF47A756A4330
S214015580B1F902404968521A04EBD47102EB610288
S21401559092FBF4F29042CFDBB3F902009042CBDCEF
S2140155A010B2C9E737F831E04E1CE645E3D3314681
S2140155B0DEE70348C0E700BF60E10300E01D00200E
S2140155C00080FFFF08B50448FFF710FFBDE808405C
S2140155D0012027F081B800BF64E10300004870474E
S2140155E0060D00201B0603F0706300F00F00090291
S2140155F0034301F47061120402F470220B43134357
S214015600014A1360704700BF0020025C60B5054682
S21401561019B10139B1F5806F10D2094EF06810F456
S2140156208030FBD143EA0121120741EA050302F06B
S2140156308052134343F00043736060BD0120FCE7D2
S2140156400020025C0122054B9A60DA68D203FCD482
S214015650D86820F00F000004000C70470020025CA0
S214015660014B1868704700BF0040025C014B586848
S214015670704700BF0010025C014B186B704700BFFB
S2140156800010025C014B1868704700BF0010025CF6
S214015690014B9860704700BF0010025C014B186414
S2140156A0704700BF0010025C014B5864704700BF92
S2140156B00010025C014B5863704700BF0010025C8B
S2140156C00022014B1A6070470010025C024A136800
S2140156D043F00103136070470010025C024A13682E
S2140156E023F00103136070470010025C43F20402CA
S2140156F0014B1A60704700BF0010025C024A136833
S21401570043F03003136070470010025C044B1A68C4
S21401571042F480721A601A6822F480721A60704726
S2140157200010025C024A136843F4806313607047FA
S2140157300010025C034A136823F4702343EA004016
S214015740106070470010025C044B1A6902605A69C7
S21401575042609A698260DB69C36070470010025C30
S2140157600268044B1A6142685A6182689A61C2688B
S214015770DA6170470010025C024B1A6BD207FCD448
S214015780186270470010025C82B01FB507930A9B2F
S21401579004AC8B4228BF0B4604E907001048D10031
S2140157A0079948BF03330160099948BF23F00303F3
S2140157B023F0704301F0E041194341F0005181604C
S2140157C0002102F0E042019C134343F00053C16004
S2140157D004618361416304B0BDE8104002B07047C4
S2140157E00000025C3F22034B1A631022DA61032297
S2140157F09A6370470000025C024AD36B9B07FCD495
S214015800704700BF0000025C034B986A10F024004A
S21401581018BF0420704700BF0000025C08B5FFF700
S214015820F3FF064BDB6B23F47F4323F0EF030343C5
S2140158301EBF0122024BC3F8FC2F08BD0000025C0C
S21401584000F0FF3F032208B5054B186019615A6343
S214015850FFF7C8FFFFF7D0FFBDE80840FFF7DEBF40
S2140158600000025C42680346182A10B50AD0202AB6
S2140158701DD0102A2BD1174AD2F80424D4010AD4F9
S214015880012013E0134AD2F804249001F8D50A68DF
S21401589042F008020A6010481A6882424FF000007F
S2140158A00ED10A6842F040020A60586010BD094AEB
S2140158B0D2F804245201E3D50A6842F00402E9E76B
S2140158C0064CA242F2D10A6842F08002ECE70720B9
S2140158D0ECE700BF0000025C0E2B00200F2B00201F
S2140158E00B4607B50749D1F80414C90708D50021A6
S2140158F000920246084600F05BF803B05DF804FB30
S2140159000120FAE70000025C1346064AD2F8042496
S214015910D20504D50A46014600201CF04DBB0120E5
S214015920704700BF0000025C13B5084CD4F804446D
S214015930E40508D5009313460A460146002000F008
S21401594061F802B010BD0120FBE700BF0000025C59
S21401595013B5084CD4F80444E40508D5009313465F
S2140159600A460146002000F071F802B010BD012081
S214015970FBE700BF0000025C70B504460D46164604
S2140159808CB00A4A09AB07CA83E807001A462146C3
S214015990CDE90563CDE90333CDE9013300954FF435
S2140159A080301CF02DFA0CB070BD00BFE8E103009A
S2140159B0F0B51C465B6815468DB01A07129E1AD1C3
S2140159C0CBB17268934216D10C4B0D4A53F8217035
S2140159D009AB07CA83E807001A462946CDE905330D
S2140159E0CDE90333CDE90163009447F480701CF0E0
S2140159F007FA0DB0F0BD0720FBE700BFF4E1030096
S214015A00E8E10300F0B516465A688DB0102A0D4637
S214015A10129F15D17A68102A12D10A4A09AC07CA10
S214015A2084E8070022462946CDE90547CDE9034427
S214015A30CDE90144044800961CF0E2F90DB0F0BD32
S214015A400720FBE7E8E1030030000100F0B5164649
S214015A505A688DB0102A0D46129F15D17A68102A01
S214015A6012D10A4A09AC07CA84E807002246294629
S214015A70CDE90574CDE90344CDE901440448009617
S214015A801CF0BEF90DB0F0BD0720FBE7E8E103000E
S214015A901000010082B070B586B0149D03AE202DB3
S214015AA086E807000B9359D805EB85038B4203D094
S214015AB006236B438B4253D10C9BAB4250D10F9BB9
S214015AC0B3EB450F4CD1129A934249D10122294694
S214015AD02220159BFFF79AFD044630BB034606229B
S214015AE00E210C20FFF77EFD0123CDE900332B4666
S214015AF096E807001CF021F90E230BAA009307CAAB
S214015B002B461CF065F80C23164C00930EAA2B4668
S214015B1007CA1CF08DF8636823F07F0343F0260361
S214015B206360FFF78FFD30B10624204606B0BDE85E
S214015B30704002B07047636823F07F0343F022038E
S214015B406360FFF77FFD04460028EDD1062311AA06
S214015B50009307CA2B461CF09EF8E6E70124E4E70B
S214015B600724E2E70020025C70B598B0002843D015
S214015B702C4C08AD0FCC0FC50FCC0FC50FCC0FC5E5
S214015B8094E80F0085E80F006D4604AE04F110039B
S214015B9020340FCB85E80F0094E80F0086E80F004D
S214015BA0FFF7B4FD0420FFF7C5FDFFF79FFD304664
S214015BB0FFF7D6FD002408AE56F8040B0134FFF7B4
S214015BC0DBFD102CF8D1FFF751FD0328FBD900248B
S214015BD0FFF776FD2646FFF743FD55F8043B0136F1
S214015BE05840042E44EA0004F5D12CB101220620C7
S214015BF00D4B1A7018B070BDFFF788FD0820FFF72F
S214015C0047FD0020FFF74AFD0720FFF74DFD4FF443
S214015C100070FFF74FFD0820FFF78CFDFFF756FDDC
S214015C200020E7E7D0E20300112B002008B5FFF7BC
S214015C306DFD0122014B1A7008BD00BF102B00201C
S214015C401FB51CF034FB044630B1012206240D4B6F
S214015C501A70204604B010BDFFF702FD0090FFF752
S214015C60FFFC0190FFF7FCFC0290FFF7F9FC0390A4
S214015C706846FFF775FDFFF7D9FFFFF73FFDFFF712
S214015C8051FDE6E7112B002006289ABF014B185C50
S214015C900020704730E3030030B5154B87B0029300
S214015CA0144B0390049346F611030D46059300F03A
S214015CB06DF91428044616D168461CF0A8FB4FF06F
S214015CC0A843032202A95A6319601D619A63DA6B1D
S214015CD09207FCD1142C02D168461CF0A6FB00F0FA
S214015CE089F9044601E00028E9D0204607B030BD16
S214015CF0F81D0020040000202DE9F04FB1B0054644
S214015D008C46E9466E4F3B9EDDF8F8E0409C07F175
S214015D10100AC846386879680837A8E80300574566
S214015D20C146F6D10EEB0208C8F1000909F00F09C9
S214015D30002E00F0AF80774207F00F070121DDF853
S214015D40FCB0C4F1100ACDF810B0059144F0005132
S214015D5006914FEA0A2101F4F85141F02101079119
S214015D6006B96B460893002D40F09680002C00F093
S214015D70938004AB0993002E00F0908046F0005308
S214015D800A93002D40F08D80002C14BF012321239F
S214015D9043EA07230B9308A942F00053CDF830C01D
S214015DA03D980D910E934FEA092343F041030F935B
S214015DB0109002B10CA9002A16BF00224FF0005223
S214015DC0412342EA0E021191129213933C9B3D4AE3
S214015DD0149310AB15933C4B0021169340F6110318
S214015DE017933A4B002D08BF1346189314AB19931B
S214015DF0374B10221A9311231B931CAB184627F01E
S214015E00A1F801221D924AF080421E92002203460A
S214015E10239205B9EB46102C08BF01230DF1900A19
S214015E20102200215046CDF880B02193229427F00D
S214015E3089F8002C37D020AB002125938F4218BF5C
S214015E40534647F0804226923A9A2CA88A422892D4
S214015E50299313460CBF4FF080430B461022334361
S214015E602B912A9327F06EF8FEB95346C8442D931A
S214015E702CA948F0804318A82E93FFF70DFF30B9E0
S214015E802DB90346A34212D1002818BF2C2031B0E9
S214015E90BDE8F08F102751E701236BE747F0005369
S214015EA06EE7212374E70123C6E728ABDEE703F19B
S214015EB0C0026A4412F8C02C01331043E2E700BF67
S214015EC037E3030048E30300100000204CE303001F
S214015ED004000020F0B5C0299FB0249E4FD0B1F534
S214015EE0807F04D0802941D029201FB0F0BD40F228
S214015EF0344440F21445002E08BF2C4621271025B5
S214015F00019401240296039404950597259F06970C
S214015F1006B102AC07940124089509940A9221223D
S214015F200B940C950D92174A0AAC0E92164A0F94D2
S214015F30109242F61102119212931394149515922F
S214015F4001AA1692CBB112AB17930423189311230F
S214015F50199316AB1A901B9340F61103C9081C91AE
S214015F601AA806A91D93FFF797FEBEE7002E14BFD9
S214015F704FF486644FF48264C0E70EABE4E70F206B
S214015F80B3E700BF50E303001000001038B5164B0E
S214015F905A6E42F004025A66D3F8802242F0010299
S214015FA0C3F88022114B5B68C3F3080343B14FF07B
S214015FB0A842D36B13F0430FFBD11424204638BDFF
S214015FC04FF0A843DC6B14F04304FBD1084D2B685B
S214015FD01BB90421284602F053FF2B68013343F016
S214015FE000432B60EAE700BF0080005000ED00E0B0
S214015FF0F81D0020014B00205B68704700ED00E0B3
S2140160004FF40052034B00209A660322C3F8602225
S214016010704700BF009000504FF40052034B002021
S2140160209A660322C3F86022704700BF00A00050A2
S214016030012300F01F02A0F506200949A0F55060D3
S2140160404009934051F820201A4341F82020054981
S21401605051F8202022EA030341F82030704700BFA0
S214016060FC1D0020101E00200121A0F506230F4A6A
S214016070A3F550635B0900F01F0001FA00F052F827
S214016080231008430A4942F82300D1E900300344AB
S21401609088680344C868096903445B1802BFC2E9FB
S2140160A00033C2E902331361704700BF101E00209F
S2140160B0FC1D00202DE9F04FA9B002921D46DDE936
S2140160C0326704460822CDE90301414021FA02F372
S2140160D04B40980702F1080218BF9B00202A1C4477
S2140160E0F4D18123B4FBF3F303EBC313E41A7A4B25
S2140160F004F506241B7804F55064002B40D1FDF707
S21401610055FF014620B16FF0910029B0BDE8F08F30
S2140161104022059008A826F015FF4022059918A8E8
S21401612026F010FFDFF8C891DFF8C8A14B4603F14F
S2140161300F0B102208A9DAF80000CDF800B005937D
S21401614026F055F800220146059B09F110090DF1CC
S214016150200891424CD1CDF800B01022DAF80000A8
S21401616018A926F04DF84FF0000B03460DF1600814
S2140161705B4549D1594B9945D8D10122564B1A70E6
S2140161804FF081084FF00009DFF868A1A4F5062357
S2140161905349A3F55062520951F8221004F01F0C1E
S2140161A021FA0CF1C90744D44E4951F8220020FACD
S2140161B00CF010F0010030D0B9F1000F08BFA14675
S2140161C0A3F6FF448123B4FBF3F303EBC313E41AF2
S2140161D004F50624B8F1010804F55064D6D1029BF3
S2140161E0EBB1B9F1000F1AD0349BC3F800906DE003
S2140161F058F8040BCDE906230591FFF719FF069A17
S214016200079B05990132A4E758F8040B05930BF197
S214016210010BFFF729FF059BAAE7029B13B96FF055
S2140162208B0072E7349BB9F1000F4ED0C3F8009093
S2140162306BE70EB1002333600FB100233B604FF0D4
S214016240100B00232A462146DAF80000CDF800B0EC
S21401625012F08AFF08BB0EB1C6F800B02B68224ABE
S214016260934224D166B15FB13B462146DAF800007D
S21401627018AA12F0CDFF80B93B6832689B1A3B60C2
S214016280D5E90223DDE90310834208BF8A4216D00E
S214016290A4F50624A4F6FF4494E7144B984206D0CE
S2140162A01233984203D0133B9842E9D02BE721469C
S2140162B0DAF8000012F0F0FF0028E1D0AFE7029B09
S2140162C013B16B68012B03D0349B1C6000201CE7C4
S2140162D06FF0840019E700BF122B00200071080040
S2140162E0FC1D0020101E0020105D175EFFDF00F071
S2140162F0006D0800F00A00202DE9F04F87B08246B5
S214016300894698461646DDF840B02AB1002B4ED095
S21401631040F26C739A424DD8BBF1010F4DD8002460
S21401632006F110073946012005941CF0B6FB054618
S214016330002845D021463A4626F004FE05ABCDE9B5
S214016340014300942B46012250464946FFF7B2FE10
S214016350044680B110F18C0F08BF6FF08D043A46E9
S2140163600021284626F0EEFD28461CF0A7FB204615
S21401637007B0BDE8F08F144BC5E902A92B60C5F83C
S21401638004B02EB13246414605F1100026F0B3FDA9
S2140163900E483B462A460599006812F04DFE18B98C
S2140163A00598FFF745FEDAE76FF09104D7E76FF03F
S2140163B08604DCE76FF09104D9E76FF08504D6E731
S2140163C06FF08C04D3E700BF105D175EF00A002063
S2140163D02DE9F0438DB08146DDE914780C4615466B
S2140163E01E469BB1B8F1000F05D16FF0860420461A
S2140163F00DB0BDE8F083002FF7D0B7F1005FF4D3FE
S214016400C3F1005303F500439F42EED8102200214A
S21401641008A826F097FD002207AB029305AB01936F
S21401642006AB21460093484608ABCDE90522FFF7A7
S21401643041FE04460028DAD10599DEB1A94203D807
S2140164400029D2D115B1D0E70029FBD0491BB142B2
S21401645028BF3146069B0948C8F8001000913A4605
S214016460079900682B4412F07FFE002818BF6FF0D2
S2140164709104BCE7A942E9D2B7E700BFF00A0020C1
S21401648030B58DB00C4605461022002108A826F02E
S21401649059FD002207AB029305AB019306AB2146DB
S2140164A00093284608ABCDE90522FFF703FE044614
S2140164B0D0B9099B012B1AD0104B0799186812F016
S2140164C0EBFEB8B9012207980D49A0F50623A3F5FE
S2140164D050635B0900F01F05AA4051F823506A403B
S2140164E041F82320FFF7C0FD20460DB030BD6FF008
S2140164F08404F9E76FF09104F6E700BFF00A002084
S214016500FC1D00202DE9F04F89B007460E46FFF727
S214016510B9F8C20705D40524013C2ED16FF09200CC
S21401652028E0102200210DEB020026F00BFD04A846
S214016530FFF70AF9049B002BEDD0059B002BEAD050
S214016540069B002BE7D0079B002BE4D00025DFF845
S214016550908008F10409B5421ED30124FFF78CF898
S21401656000F00E03062B33D110F4807002D0FFF733
S214016570B5F8002009B0BDE8F08F01201BF0A4FE9D
S2140165800028C9D1FFF778F810F00E03FAD0022BD5
S214016590F8D04305DAD5BFE7FFF768F8A6EB050A9A
S2140165A08400544528BF544699E8030000238DE82B
S2140165B00300CDE9054307EB050BCDF810B00294B7
S2140165C004AAD8F8003007CA1BF07AFD2544C2E7B2
S2140165D0082BA3D804FA03F313F48A7F9ED0BDE7F1
S2140165E05CE303001FB504A800E90E0011460198FC
S2140165F0FFF788FF70B1FFF719FBBFF34F8F07490D
S214016600074BCA6802F4E0621343CB60BFF34F8FB7
S21401661000BFFDE705B05DF804FB00BF00ED00E03C
S2140166200400FA052DE9F0438BB01746DDE9154560
S214016630DDE913269C46DDE91738894621B96FF056
S21401664086000BB0BDE8F083002FF8D00EB9002C01
S214016650F5D1129909B9002AF1D10DB9002BEED165
S214016660B8F1000FEBD0254A944544D10288B2F523
S214016670105F40D14288B7EBD20FE0D322F0400141
S214016680802902D0B2F5807FD9D11CB92046C8F83E
S2140166900040D6E7AE421CD23219954219D29C422E
S2140166A0CDD831462246284626F032FC2E4614F036
S2140166B00F03C4D1CDE90197CDE90336CDE90543F2
S2140166C0CDE907540993FFF79BFC38B16FF09200B0
S2140166D0B7E79C42EBD96FF08900B2E707AA04A995
S2140166E001A8FFF7FDF80546FFF796FC2843EDD114
S2140166F0C8F80040A5E76FF08500A2E70044400413
S2140167002DE9F04FA9B0834617469A460E46DDF8A6
S214016710C890DDF8D88029B96FF08603184629B0ED
S214016720BDE8F08F002AF7D0B9F1000FF4D0349B02
S214016730002BF1D0B8F1000FEED00024434B0CAD86
S21401674093E8070085E807003C22214619A818941B
S21401675026F0F8FB3288718802F4E040B0F5804FED
S214016760DAD03B4E3B480BEA060646F010668642F8
S21401677065D1B1F5807F62D147F212118A425ED1AE
S21401678006203549BAF11F0F0A69CB6800FB02F2F1
S21401679009680B93CDE90C120E94BDD9339B402B9F
S2140167A0BAD9359B1F2B4DD909F101022026129229
S2140167B0402299F800300F97042B18AFCDE9132427
S2140167C0CDE91572109611941794A5D1FFF718FC10
S2140167D003460028A2D10B9B15AACDE9086305AB99
S2140167E007CA83E8070002AB12AA07CA83E80700B4
S2140167F0DDE910018DE803000F9B95E80700FFF720
S21401680049F90546FFF708FC55EA000384D13D46E1
S214016810349A20AE2C4603CCB44210605160254613
S21401682002F10802F6D100221046B9180132412AB7
S21401683003D12022C8F8002070E70870F5E76FF052
S21401684085036BE76FF0890368E700BFE8E10300A3
S2140168500000FFF600000209BCE20300F0B58C461A
S2140168601D468BB0002856D0002954D0002A52D09D
S214016870002B50D00488B0F802E0234604F44F41C0
S214016880B1F5824F18BF002423F0FF03B3F5E24FA2
S214016890E4B203D06FF085000BB0F0BD122C01D02E
S2140168A0172CF7D10EF10703B2EBD30F4FEAD3073C
S2140168B034D31D4B04AEBEF5807F93E8070086E80F
S2140168C00700E7D1122C07D1184B1A691B6813442D
S2140168D0CDE90432002306930023CDE907C70993C7
S2140168E0FFF78EFB0028D7D1114A02AB92E80300CE
S2140168F083E803000AAB13E903008DE80300079B56
S21401690096E807001BF062FB0446FFF785FB204371
S21401691007D12F60C0E76FF08600BDE76FF08900F2
S214016920BAE76FF09200B7E7E8E10300BCE20300C4
S21401693054E303002DE9F0438FB01D46DDE916C68A
S214016940002863D0002961D0002A5FD0002B5DD0DB
S214016950BCF1000F5AD0002E58D00388B0F802E0E0
S2140169601C4603F44F47B7F5824F18BF002324F0A7
S214016970FF00B0F5824FDBB24ED0B7F5824F4BD158
S214016980122B01D0172B47D10EF10700B2EBD00F17
S2140169904FEAD0083AD34FEA4802571C674538D821
S2140169A0BEF5807F38D1122B18BF4FF000094FF08B
S2140169B0000308BF1B4CCDE9081805F1010114BFFF
S2140169C04C46D4F80C90CDE90B120A930D93FFF7C1
S2140169D017FBC0B9CDE9058902AB08AA07CA83E847
S2140169E007000EAB13E903008DE803000B9B94E848
S2140169F007001BF00AFB0446FFF70EFB20430ED1EF
S214016A0004232B7037600FB0BDE8F0836FF086006B
S214016A10F9E76FF08900F6E76FF08500F3E76FF0AE
S214016A209200F0E7BCE203002DE9F04389B00D4681
S214016A3014461F46DDF8488020B96FF0860009B07D
S214016A40BDE8F0830029F8D0002AF6D0B8F1000F8F
S214016A50F3D0028802F44F43B3F5824F0CBF1346BE
S214016A600023DBB202D06FF08500E8E7122B01D0DD
S214016A70172BF8D122F0FF02B2F5E24F40D142883F
S214016A80C8F80020002A36D1E200C8F80020D8F85D
S214016A900020B2F5807FE6D1122B09BF384B0022C9
S214016AA01A681B6905EB040608BFD21800231846AE
S214016AB0224412F801CD16F8011D0843B1EB0C0172
S214016AC00CBF4FF0FF3C4FF0000CB5420CEA03033D
S214016AD043EA0103EDD10028AFD0002BADDA109BBD
S214016AE09C4249D822462946384626F004FA119B8C
S214016AF000201C60A3E70732B4EBD20FC7D09CE797
S214016B002A78042A99D1621ED2005208B2F5807FF3
S214016B10C8F80020A7D1122B05F1010318BF4FF0CA
S214016B2000094FF0400205934FF000030ABF144ED0
S214016B304E46D6F80C90CDE90623FFF761FA0028F9
S214016B407FF47DAFCDF80C90D8F800300733DB0822
S214016B50029308AB13E903008DE80300059B96E852
S214016B6007001BF0FBFA0646FFF756FA00287FF4EB
S214016B7066AF002EB3D060E76FF089005FE700BF15
S214016B80BCE203002DE9F04F8FB00546DDE918A9F8
S214016B9093461E46DDF868801C9F09B300B3B8F122
S214016BA0000F1DD0E7B1BAF1000F02D1B9F1000F05
S214016BB016D1284B26F47E129A4247D128461BF05E
S214016BC07EFC0446B0BB6B88BBEBD30F4FEAD30207
S214016BD006D316F47C1FC6F3054504D0102D03D941
S214016BE06FF0860426E010251B9B9D422BD80023C0
S214016BF0CDE901121022CDE905930DF12809CDE961
S214016C00033ACDE90823CDF81C90FFF7F9F90446BD
S214016C1080B907AA04A901A8FEF776FE0646FFF783
S214016C20FBF9044656B958B92A464946404626F065
S214016C3062F93D6020460FB0BDE8F08F6FF0920418
S214016C4000233B60F6E76FF08904F3E76FF08504F5
S214016C50F0E700BF0002C0032DE9F041069F0C4695
S214016C601646054610B309B302B9FBB96288B3EB01
S214016C70D20F4FEAD20819D34C220021284626F01B
S214016C8061F90D4B27F47E129A4212D120461BF071
S214016C9016FC044638B942463146281D26F02BF923
S214016CA0C5F824802F602046BDE8F0816FF0860489
S214016CB0F9E76FF08504F6E70002C0032DE9F0411D
S214016CC00E4614460546002840D000293ED012B98B
S214016CD00020BDE8F08103681F4823F47E13834239
S214016CE037D1AF6BE7B1C7F1100807F1280042456D
S214016CF0284404D226F0FFF83C44AC63E8E7424659
S214016D0026F0F9F81022103C3C19AA63E0D0284678
S214016D1005F128011BF0EFFB0028DAD14644A863F1
S214016D20102C0CD9671E27F00F073A463146284625
S214016D301BF0E1FB0028CCD1E41BC9D03E4422461F
S214016D40314605F1280026F0D6F8D6E76FF0860022
S214016D50BFE76FF08800BCE70002C0032DE9F043EF
S214016D6088461F4605468BB070B169B163B10368AA
S214016D70234923F47E1088423ED113F47C1FC3F3CB
S214016D80054604D0102E03D96FF086042AE010269B
S214016D9096422BD8FFF734F9044618BBAB6B05F1C6
S214016DA02802CDE901236B6A2A1DCDE904231023AD
S214016DB0CDE9083007AB1A460390069005F13C0969
S214016DC001A904A8CDF81C90FEF7C2FD0546FFF701
S214016DD023F904466DB928B932464946404626F09D
S214016DE08AF83E6020460BB0BDE8F0836FF0890458
S214016DF0F8E76FF09204F5E76FF08504F2E700BF5D
S214016E000002C00307B56B46054A1068516803C304
S214016E106846FDF741FF002003B05DF804FB00BFA4
S214016E2068E3030013B50024064A6846536F43F02F
S214016E300103536700948DF80440FDF765FE204674
S214016E4002B010BD0040005030B58BB06C46174DF7
S214016E500FCD0FC40FCD0FC495E8030084E80300DF
S214016E60134BD3F84C21120317D4D3F85041E4B294
S214016E708DF81940FDF784FC204480F308008DF856
S214016E8018000C48FCF74CFC6846FDF793FB3220D3
S214016E90FDF7AEFC00200BB030BD074B1C884FF64B
S214016EA0FF739C4208BF8C24E2E700BF70E3030037
S214016EB00080E00F00F049020001E00F6FF00402CD
S214016EC0502110B50A480B4C12F0800FD3B21BBFED
S214016ED003F00F03043BA3181B1802F101020CBFB9
S214016EE083F800131976402AEED1002010BD00BFAA
S214016EF000ED00E000E100E010B504461AF0DEFD0A
S214016F00024B1C601AF0DEFD002010BD241E00207E
S214016F1010B51AF0D3FD034B1C681AF0D3FD2046BA
S214016F2010BD00BF241E002038B50446026C136C49
S214016F305906FCD50023E16C1A4694F84800FEF782
S214016F404DF80023616D1A4694F85000FEF746F896
S214016F5094F86830DA0706D50023E16D1A4694F8EE
S214016F605800FEF73BF894F868309B0706D50023D7
S214016F70616E1A4694F86000FEF730F80122206C24
S214016F80002100F500539A6404220A4D9A641AF00F
S214016F90EAFD0021606CFDF703FA284604F16C0156
S214016FA01AF07EFB2B6813B9034800F06BFD002036
S214016FB038BD00BF281E00202C1E0020012910B558
S214016FC005D8064B1C686C3C14F16C0F00D110BD43
S214016FD0206C05211AF0C7FDE46EF4E7281E002098
S214016FE02DE9F0438DB01C4606AB06468946184689
S214016FF0904600211822149D25F0A4FF227903460D
S2140170000AB18DF818200127C8F81C30637930467C
S214017010002B14BF3B460223CDE903336A4B4A4695
S21401702002936A4B29460193694B8DF81E700093B3
S214017030684B00F03BFA0646002840F09E80A368A5
S21401704039466B64A3693A206B65237DDFF89C9112
S21401705085F850302369EB64237B85F84830236A32
S214017060EB65237F85F85830A36A6B6694F8243065
S21401707085F8603023682B64FDF792F93B460422BD
S2140170802169207BFDF7AAFF3B460222A169207DEC
S214017090FDF7A4FF88F8006085F868603946A068A7
S2140170A0FDF77EF96379394633BB4FF4C060FDF7CF
S2140170B077F9D9F82032414623F0030343F002035F
S2140170C02068C9F820321AF05BFD0222424B216982
S2140170D0C3F8C020227B42EA0142C3F8D020A1694E
S2140170E0227D42EA0142C3F8CC202379032B69D8DA
S2140170F0DFE803F02E1947604FF48060FDF750F982
S214017100D9F82032414623F0030343F00103C9F8BE
S214017110203220681AF031FD95F8683043F00403F8
S21401712085F86830D1E7002795F8683043F0010309
S21401713085F8683000230222216A207FFDF74EFF82
S214017140226A237F43EA0243244AC2F8C430F7B9CD
S21401715004222B6C052103F580539A6420681AF0EB
S21401716002FD1F4B1B681BB91E491F4800F078FC27
S2140171701B4805F16C011AF08FFA30460DB0BDE8D8
S214017180F08395F8683043F0020385F868300023F1
S2140171900422A16A94F82400FDF720FF01230F4A78
S2140171A0A16AC2F8C03094F8243043EA0143C2F819
S2140171B0C830CDE795F86830012743F0030385F81A
S2140171C06830B7E72326D8E7296F0100EF250300CB
S2140171D0D72503001F26030000C4035000D4035024
S2140171E0281E0020140B00202C1E002000800050BA
S2140171F0034B0222186800238068194619F026B945
S214017200180C002030B51446054687B010461BF012
S21401721092FA6369024683423CBFD4E903315B18A4
S2140172201B1A7BB10F49284603910021CDE9013194
S214017230012304940093D4E900131AF00BFB0020F9
S21401724007B030BD0122627694F82D20002AF6D0D0
S21401725084F835301321E369204698472046636A4F
S2140172609847ECE7057201002DE9F04788B004461F
S2140172708846174699461AF028FC8246002F7AD08F
S214017280237E03F0FF02002B00F0A28020461BF0B5
S21401729052FA6669B04205D1637ED4E903521544B9
S2140172A0AD1B01E0F9D9851BBD4228BF3D461AF04A
S2140172B00CFC94F82D300646002B6DD12A4640462C
S2140172C0616925F018FE63692F462B44636121E04E
S2140172D0037803F0FD0111295BD1216B814205D1B1
S2140172E0A3F111014B424B4184F83430013F6369ED
S2140172F0216B01328B4203F1010308BF23636361F3
S21401730095426069E4D1D4E90323216B1344994281
S21401731000D122630025D4E903236169134499420D
S21401732008BF6261207A6576FCF79CFC20461BF05C
S21401733002FA6369834232D1257694F82D30E568E6
S214017340656103B125632046636A9847214B2A4647
S2140173500393002302932369216801930123207A72
S2140173600093049463681AF075FA207AFCF79AFC85
S21401737030461AF0B0FB5046C9F800701AF0ABFB65
S214017380D9F80030002B0CBF1B20002008B0BDE848
S214017390F08708F8013BAAE72F460022B0E7012351
S2140173A0207A23760DF11E01FCF7E4FC9DF81E30D1
S2140173B0002BDAD00DF11F01207AFCF7B3FC9DF803
S2140173C01F100029D1D12246207AFFF71BFFCCE7F8
S2140173D01746D0E705720100002808DB01234209A1
S2140173E000F01F0003FA00F0014B43F8220070473B
S2140173F000E100E0002809DB0122430900F01F003C
S21401740002FA00F0024A603342F82300704700BFD8
S21401741000E100E070B504460568FFF779FD844297
S21401742002D10020FFF768FD95F93600FFF7E2FF6D
S21401743095F93630002B0DDB01215A0903F01F03A5
S21401744001FA03F31849203241F82230BFF34F8F77
S214017450BFF36F8F95F93700FFF7CCFF95F93730FB
S214017460002B0DDB01215A0903F01F0301FA03F378
S2140174700D49203241F82230BFF34F8FBFF36F8F93
S214017480287AFCF72FFC287AFCF792FBFCF76EFBB8
S21401749000232846C4E90033C4E90433A360AB6A79
S2140174A0BDE87040184700BF00E100E02DE9F0415B
S2140174B00C461546064686B04022002120461F4649
S2140174C025F040FD95E8030000232A692376EB6842
S2140174D084E80300C4E904232A7DE36084F82C20B1
S2140174E0AA7D2363012384F8343084F835300C9B5D
S2140174F084F82D2023620D9BE76163620E9BA362D5
S2140175002B7A84F836306B7A84F837302D4B34601A
S21401751073602D4BB3602D4B33612D4B73612D4B37
S214017520F360FCF76BFB38B12B4B984204D0102468
S214017530204606B0BDE8F081002104F10800FCF702
S214017540E5FA07460028F2D14FF00108234B3362D3
S214017550234B84F83C80B361224BF3619DF84030A5
S21401756084F8390084F83B309DF83C30204684F896
S2140175703A30697D84F838801BF0EDF895F90900FA
S214017580FFF738FF95F90900FFF726FF164B04941D
S214017590CDE902732369CDE900836368E268216857
S2140175A0207A1AF057F904460028C0D195F9080048
S2140175B0FFF720FF95F90800FFF70EFF3046FFF7AB
S2140175C09BFCB5E7A7270300697201002527030086
S2140175D02B27030015740100038000F0FB2603002F
S2140175E0572703003127030005720100BFF35F8FA1
S2140175F0074B5A6A22F480325A62D3F8942022F05A
S2140176000102C3F89420BFF34F8FBFF36F8F70470B
S21401761000ED00E070B52648264CFFF7E7FF8442F0
S21401762008BF4FF08043244A18BF20F01F03D2F84A
S214017630C01018BF203B21F0FF0141F0A001B3F1BB
S214017640005FC2F8C0100CD31C4D1D4E296843F0D4
S2140176500103C2F898100131C2F89C60C2F8A0304C
S2140176602960844210D01548164B0268124923F04F
S2140176701F0343F00303C1F89820C1F89C30124B56
S2140176800132C1F8A0300260BFF35F8F05220A4BBA
S214017690C3F894205A6A42F480325A62BFF34F8F7D
S2140176A0BFF36F8FBFF34F8FBFF36F8F70BD00BFF8
S2140176B0380D0020100F002000ED00E0341E0020E1
S2140176C0030000202F0F0020E1FFFF3FF8B514460E
S2140176D0FFF78CFF1F2C27D90027C2062A4D1CBF97
S2140176E020F01F0020302A68CB06284B18BF21F057
S2140176F01F01FCB2A24219D8D3F8C04020F01F00E7
S21401770024F47F4444F4807421F01F01C3F8C04080
S21401771040F00300C3F8982041F003010132C3F89A
S2140177209C00C3F8A0102A6000201AE0C3F8984015
S214017730D3F89C40D3F8A06024F01F04A04226F0A2
S2140177401F0601D1B142EFD0B04201D8A14207D203
S214017750D3F89840013724F0FF04C3F89840C8E7EF
S2140177602820BFF35F8F0522084BC3F894205A6A7E
S21401777042F480325A62BFF34F8FBFF36F8FBFF36D
S2140177804F8FBFF36F8FF8BD341E002000ED00E071
S214017790BFF34F8F0549064BCA6802F4E0621343F4
S2140177A0CB60BFF34F8F00BFFDE700BF00ED00E0E9
S2140177B00400FA05054B1A782AB95B78002B14BF2A
S2140177C00220032070470120704700BF1B2B0020BA
S2140177D00329F8B598BF124B05460E468CBF002408
S2140177E05C5C032805D8DFE800F002080B0E44F0C5
S2140177F002040C4B1F684FB9F8BD44F00804F8E7C3
S21401780044F02004F5E744F08004F2E77B681A6848
S214017810144203D0314628465B6898473F68EAE73A
S21401782098E303005C1E002038B5104D2B78ABB1F1
S2140178300F4C23781BB100F0A9FB00232370002016
S2140178401BF051F80B4C50B100F0F2FB0023012164
S21401785020782B70FFF7BCFF0123237038BD01226F
S214017860054B1A702278054B1A70F7E71A2B002081
S214017870152B0020132B0020192B0020202B002075
S21401788010B51AF01BF9064B04461B781BB1BDE870
S21401789010401AF017B9FFF7C7FF2046F7E700BFF9
S2140178A0142B0020002814BF0121FF21074A13785A
S2140178B00B44137008D0064B1B78012B04D9054BDB
S2140178C01B780BB9FFF7B0BF704700BF1B2B00201A
