S019000062742D72656D6F74652D526564657369676E2E733337EE
S214012000C00A0020D54A01006F3203006F32030078
S214012010294503006F3203006F3203006F3203005D
S2140120206F3203006F3203006F3203006F3203001A
S2140120306F32030028070400BD3003006F3203002F
S2140120406F3203006F3203006F3203006F320300FA
S2140120506F3203006F3203006F3203006F320300EA
S2140120606F3203006F3203006F3203006F320300DA
S2140120707D9D01006F3203006F3203006F32030053
S2140120806F3203006F3203006F3203006F320300BA
S2140120906F320300AD5201006F3203006F3203004E
S2140120A06F3203007D540100595401006F32030062
S2140120B06F320300210803006F3203006912030028
S2140120C095EB030091EB0300590A0300A1EB030013
S2140120D099EB0300411203009DEB0300A9120300D4
S2140120E039EC0200FDED0200191303006F32030004
S2140120F06F3203006F3203006F3203006F3203004A
S2140121006F3203006F3203006F3203006F32030039
S2140121106F3203006F3203006F3203006F32030029
S2140121206F3203006F3203006F3203006F32030019
S2140121306F3203006F32030001430100893103004F
S214012140002370B5404C05468AB0E36318B1008899
S21401215023600EF023FD3D482CF07EF83C4E3D4BAF
S214012160304633603C4B736026F0B8FE00213046A3
S21401217018F030FD32A3D3E90023A062C4E9062398
S21401218026F0B7FED4E9062319431043C4E9060135
S214012190CDE900014FF0FF334FF0FF32A06A2CF07B
S2140121A0D6F802224FF0FF31A06A2CF0D5F80120B4
S2140121B00EF074FA4FF4007300222849A06A2CF03E
S2140121C01EF9B0F5007F38D100239422CDE90733FC
S2140121D009933C23CDE9033205939623A06A03A90C
S2140121E0069318F015FE35B3287C0EF085FE0546DD
S2140121F0F0B9A06A2CF0E1F90EF02CFE0EF030FAE0
S21401220020B14FF4807000210AF0C6FF0EF038FAB4
S21401221020B14FF4006000210AF0BEFF26F034FF23
S214012220012018F02BFD0E4A0E49A06A26F054FE36
S21401223028460AB070BDFF20D7E70725F8E700BF9C
S2140122400DD5015520000000880F0020690345ECDC
S21401225038240020210502004824002038220020CE
S214012260818E0300C18E030010B5054C237833B967
S214012270044B13B1044800E000BF0123237010BDD6
S214012280E811002000000000B452040008B5034B1A
S2140122901BB10349034800E000BF08BD0000000071
S2140122A0EC110020B4520400A3F5803A704700BF39
S2140122B0174B002B08BF134B9D46FFF7F5FF002178
S2140122C08B460F461348144A121A2CF0B6FC0E4BD6
S2140122D0002B00D098470D4B002B00D098470020CC
S2140122E0002104000D000D48002802D00C4800E033
S2140122F000BF1FF041FA2000290020F0D3FE1FF096
S21401230027FA00BF000008000000000000000000DF
S214012310C00A0020180F0020282C00200000000012
S2140123200000000070B504460D4621B94FF4167141
S214012330084800F0ABF80E46062056F8043F33B9BD
S21401234006288ABFA3682B681B68636070BD204699
S2140123509847F2E780F9030038B5036804462BB1C5
S21401236083681BB145680B4A954203D0C8210A48C9
S21401237000F08CF89847082801D0D221F7E7A36827
S2140123801B6863602046A168FFF7CCFF0728F9D8D1
S21401239038BD00BF88F9030080F90300F0B5044694
S2140123A00F46456887B001B125B94FF4967131489B
S2140123B000F06CF82E463946204673689847012887
S2140123C03FD83668002EF6D107B0F0BDEB681BB1DA
S2140123D020460191984701992D6839E0906828B107
S2140123E006A800EB830040F8102C0133126837E092
S2140123F05D1E6B1C13D13B696760C3B120469847CD
S21401240065682E4600270628DED9A168A760AE4279
S2140124100FD12046FFF786FF65682E46F3E702AB2D
S21401242053F8253020469B689847013DE1E7062092
S214012430E6E7EB681BB120460191984701992D68A4
S214012440E5E70628C0D90928DCD1A1686768656078
S214012450B542BBD12046FFF765FF3A4600236168C7
S2140124608A4201D0032BB9DD042BC1DD40F22A31AB
S2140124709DE700BF80F90300024B0360024BC0E9F1
S214012480013170479CF9030088F903000F4C07B52A
S2140124900F49206821F0C2FE0E49206821F0BEFED9
S2140124A00D49206821F0BAFE02F064F920F0C6FE5C
S2140124B00A4B0B4A0B49009320680E2321F0AEFE0F
S2140124C0094A0A49206821F0A9FEFEE750130020B8
S2140124D03B020400A8F90300B7F90300F1F9030071
S2140124E0BCF90300C9F90300D5F90300DBF90300C1
S2140124F0014B83600820704780010400014B836014
S2140125000820704768010400014B8360082070476B
S21401251004010400044B0A689A4203BF034B83601C
S21401252007200020704700BFA000090688010400AC
S2140125300B68042B03BF024B836007200020704703
S214012540CC00040037B50B68654A0446934269D04F
S21401255002F1007202F54032934205D0614A93427D
S2140125602DD0002003B030BD5F4B1968038BB1F846
S21401257005209A4204D18A7A1D300B312CF036FBA5
S214012580032002F0D7F808B90220EBE7574D584967
S214012590286821F043FE5749286821F03FFE02F0E3
S2140125A0E9F820F04BFE94F8203053490193E37F7D
S2140125B028680093A37F627F21F030FEE4E790F85D
S2140125C0260011F0D7FDE060032002F0B3F880B1D9
S2140125D0464D4749286821F021FE4649286821F0E2
S2140125E01DFE02F0C7F820F029FE4449286821F0B4
S2140125F015FE032002F09EF880B13C4D3C49286848
S21401260021F00CFE3B49286821F008FE02F0B2F8E2
S21401261020F014FE3A49286821F000FE394B0720C5
S214012620A3609FE7304B1B68DB7A032BACD8DFE84F
S21401263003F002192D42032002F07CF80028A3D0F3
S2140126402A4C2B49206821F0E9FD2A49206821F00F
S214012650E5FD02F08FF820F0F1FD2B49206821F00E
S214012660DDFD91E7032002F065F800288CD01F4CB1
S2140126701F49206821F0D2FD1E49206821F0CEFDB9
S21401268002F078F820F0DAFD2049E7E7032002F0AF
S21401269051F800283FF478AF144C1549206821F012
S2140126A0BDFD1449206821F0B9FD02F063F820F061
S2140126B0C5FD1749D2E7032002F03CF800283FF495
S2140126C063AF0A4C0A49206821F0A8FD0949206831
S2140126D021F0A4FD02F04EF820F0B0FD0D49BDE753
S2140126E0A0000602A0000601601200205013002080
S2140126F0FBF9030007FA03000CFA030036FA03009D
S21401270056FA03005C01040068FA030075FA030038
S214012710ABFA0300E3FA0300284B37B50546186801
S2140127200023C27A0093417A847A0123D0F8050007
S21401273041EA042111F0D4FBE86038B3204C21496A
S214012740206821F06BFD2049206821F067FD1F49B4
S214012750206821F063FD02F00DF820F06FFD1C4BA0
S2140127601C4A00931C4940F28513206821F056FD4F
S2140127701A49EB681A4A206821F050FDE86802F011
S21401278053F81849206821F049FDFEE7032001F0BF
S214012790D1FF80B10A4C1449206821F03FFD13494E
S2140127A0206821F03BFD01F0E5FF20F047FD1049D0
S2140127B0206821F033FD042003B030BD60120020F4
S2140127C0501300203B020400A8F90300B7F90300E8
S2140127D009FF030038FB0300C9F903004FFB0300A0
S2140127E048FB030064FB0300FBF9030007FA030040
S2140127F075FB03000B68624A73B59342044600F00A
S2140128009F8002F18072934200F083805D4A93427A
S21401281040F0B2805C4D2B681B7B0377032001F0F0
S21401282089FF80B1594E5A49306821F0F7FC594961
S214012830306821F0F3FC01F09DFF20F0FFFC5649C3
S214012840306821F0EBFC2B685B7BFF2B00F0968059
S214012850032001F06FFF80B14C4E4D49306821F0E6
S214012860DDFC4C49306821F0D9FC01F083FF20F0F3
S214012870E5FC4A49306821F0D1FC2B6803205B7BDC
S21401288084F8263001F056FF80B1404E404930684A
S21401289021F0C4FC3F49306821F0C0FC01F06AFF1A
S2140128A020F0CCFC3E49306821F0B8FC2B68187B40
S2140128B011F04EFCE06038B3344D3A49286821F0F7
S2140128C0ADFC3949286821F0A9FC3849286821F06F
S2140128D0A5FC01F04FFF20F0B1FC354B354A0093C3
S2140128E0354940F29F13286821F098FC3349E36884
S2140128F0334A286821F092FCE06801F095FF3149DF
S214012900286821F08BFCFEE72F4B0720A36002B05E
S21401291070BD032001F00EFF80B11C4D1C492868D4
S21401292021F07CFC1B49286821F078FC01F022FF8D
S21401293020F084FC2549286821F070FC244BE4E74C
S214012940032001F0F7FE80B1104D1149286821F0EF
S21401295065FC1049286821F061FC01F00BFF20F0AE
S2140129606DFC1C49286821F059FC074B1B685B79F4
S21401297084F82630184BC8E70020C8E70120C6E7D0
S214012980A0000F03A00006006012002050130020D4
S214012990FBF9030007FA03008EFB0300A2FB03000A
S2140129A0B3FB03003B020400A8F90300B7F90300D8
S2140129B0F6FE030038FB0300C9F903004FFB0300D2
S2140129C048FB030064FB03002C010400D9FB030051
S2140129D020010400ECFB03001001040037B5054696
S2140129E0007F11F0E7FAE86038B3204C20492068F0
S2140129F021F014FC1F49206821F010FC1E492068B4
S214012A0021F00CFC01F0B6FE20F018FC1B4B1C4A12
S214012A101C490093206840F2152321F0FFFB1A4958
S214012A20EB681A4A206821F0F9FBE86801F0FCFE21
S214012A301749206821F0F2FBFEE7032001F07AFE39
S214012A4080B10A4C1349206821F0E8FB124920683E
S214012A5021F0E4FB01F08EFE20F0F0FB0F49206828
S214012A6021F0DCFB042003B030BD00BF5013002072
S214012A703B020400A8F90300B7F90300D8FE0300DF
S214012A8038FB0300C9F903004FFB030048FB0300B2
S214012A9064FB0300FBF9030007FA030002FC0300D2
S214012AA037B50B68514A0446934206D002F1A0623C
S214012AB093423AD0002003B030BD4D4B10221D6822
S214012AC04C4905F10A002CF081F8D0B9D5F805304B
S214012AD00320636101F02EFE08B90220EBE7464CA5
S214012AE04649206821F09AFB4549206821F096FB6B
S214012AF001F040FE20F0A2FB4249206821F08EFB47
S214012B00EBE7022001F016FE0028E6D03A4C3E49DB
S214012B10206821F083FB3D49206821F07FFB01F00E
S214012B2029FE20F08BFB3A49E7E743691BB1394B95
S214012B300720A360BFE72E4B1B68187911F028FA0F
S214012B40E06038B32C4D3449286821F067FB3349DF
S214012B50286821F063FB3249286821F05FFB01F009
S214012B6009FE20F06BFB2F4B2F4A00932F494FF4A1
S214012B701073286821F052FB2D49E3682D4A286816
S214012B8021F04CFBE06801F04FFE2B49286821F04C
S214012B9045FBFEE7022001F0CDFD80B1164D1A4936
S214012BA0286821F03BFB1949286821F037FB01F022
S214012BB0E1FD20F043FB2149286821F02FFB02208C
S214012BC001F0B8FD80B10C4D0F49286821F026FBB5
S214012BD00E49286821F022FB01F0CCFD20F02EFBE7
S214012BE01749286821F01AFB164BA1E7A000090136
S214012BF0601200209102040050130020FBF903002C
S214012C0007FA030024FC030049FC030055FC0300FB
S214012C105AFC0300F80004003B020400A8F9030074
S214012C20B7F90300BCFE030038FB0300C9F9030033
S214012C304FFB030048FB030064FB030073FC030027
S214012C409DFC0300EC0004000B68644A73B59342D4
S214012C50044606D002F1806293425CD0002002B0A6
S214012C6070BD5F4B10221D685E4905F109063046AE
S214012C702BF0ACFFE0B96B79AA79032043EA022373
S214012C80238301F057FD08B90220E8E7564C57495F
S214012C90206821F0C3FA5649206821F0BFFA01F0F6
S214012CA069FD20F0CBFA5349206821F0B7FAEBE72B
S214012CB01022304650492BF089FFC0B96B79AA79AA
S214012CC0032043EA0223638301F034FD0028DBD0AE
S214012CD0454C4649206821F0A1FA4549206821F073
S214012CE09DFA01F047FD20F0A9FA4449DCE70220ED
S214012CF001F020FD0028C7D03B4C4149206821F057
S214012D008DFA4049206821F089FA01F033FD20F060
S214012D1095FA3D49C8E7438B2BB1038B1BB13B4B5F
S214012D200720A3609BE72E4B1B68187911F030F93A
S214012D30E06038B32C4D3649286821F06FFA3549E2
S214012D40286821F06BFA3449286821F067FA01F007
S214012D5011FD20F073FA314B314A0093314940F2AC
S214012D609923286821F05AFA2F49E3682F4A2868E0
S214012D7021F054FAE06801F057FD2D49286821F04A
S214012D804DFAFEE7022001F0D5FC80B1164D1C4934
S214012D90286821F043FA1B49286821F03FFA01F020
S214012DA0E9FC20F04BFA2349286821F037FA022083
S214012DB001F0C0FC80B10C4D1149286821F02EFAB3
S214012DC01049286821F02AFA01F0D4FC20F036FADE
S214012DD01949286821F022FA184BA1E7A000090238
S214012DE0601200208102040050130020FBF903004A
S214012DF007FA0300B2FC030071020400CCFC0300D6
S214012E0049FC030055FC0300E3FC0300A001040099
S214012E103B020400A8F90300B7F90300B9FF030059
S214012E2038FB0300C9F903004FFB030048FB03000E
S214012E3064FB0300FDFC03009DFC030094010400F9
S214012E40244B37B51B6805464169187911F0C4F85B
S214012E50E86038B3204C2149206821F0DFF9204989
S214012E60206821F0DBF91F49206821F0D7F901F02D
S214012E7081FC20F0E3F91C4B1C4A1D490093206895
S214012E8040F2662321F0CAF91A49EB681A4A20680B
S214012E9021F0C4F9E86801F0C7FC1849206821F060
S214012EA0BDF9FEE7032001F045FC80B10A4C144948
S214012EB0206821F0B3F91349206821F0AFF901F039
S214012EC059FC20F0BBF91049206821F0A7F904202D
S214012ED003B030BD60120020501300203B020400F6
S214012EE0A8F90300B7F90300DCFF030038FB030071
S214012EF0C9F903004FFB030048FB030064FB030012
S214012F00FBF9030007FA030033FD030037B5044657
S214012F10018B0122007F11F075F8E06038B3204D77
S214012F202049286821F07AF91F49286821F076F9A6
S214012F301E49286821F072F901F01CFC20F07EF988
S214012F401B4B1C4A1C49009328684FF4307321F030
S214012F5065F91A49E3681A4A286821F05FF9E068BA
S214012F6001F062FC1749286821F058F9FEE70320B2
S214012F7001F0E0FB80B10A4C1349206821F04EF9BC
S214012F801249206821F04AF901F0F4FB20F056F9C5
S214012F900F49206821F042F9042003B030BD00BF7C
S214012FA0501300203B020400A8F90300B7F9030000
S214012FB098FF030038FB0300C9F903004FFB030029
S214012FC048FB030064FB0300FBF9030007FA030058
S214012FD053FD030010B5032001F0ACFB80B10A4C91
S214012FE00A49206821F01AF90949206821F016F9E2
S214012FF001F0C0FB20F022F90649206821F00EF905
S21401300001F03EFB042010BD50130020FBF9030025
S21401301007FA030075FD030030B5044685B001F0DC
S2140130202FFB218B207F11F005F8E06038B3464D69
S2140130304649286821F0F2F84549286821F0EEF85B
S2140130404449286821F0EAF801F094FB20F0F6F8EC
S214013050414B424A42490093286840F2F22321F04C
S214013060DDF84049E368404A286821F0D7F8E0686F
S21401307001F0DAFB3D49286821F0D0F8FEE74FF66B
S214013080FF73CDE901034FF4FA7300934FF4967280
S2140130900346A021207F10F051FFE06038B32A4D8F
S2140130A02A49286821F0BAF82949286821F0B6F893
S2140130B02849286821F0B2F801F05CFB20F0BEF840
S2140130C0254B264A2649009328684FF43F7321F082
S2140130D0A5F82449E368244A286821F09FF8E068A7
S2140130E001F0A2FB2149286821F098F8FEE70320A9
S2140130F001F020FB80B1144C1D49206821F08EF8A8
S2140131001C49206821F08AF801F034FB20F096F87B
S2140131101949206821F082F8032001F00BFB80B1E9
S214013120094C1349206821F079F81249206821F0EA
S21401313075F801F01FFB20F081F81049206821F096
S2140131406DF8042005B030BD501300203B0204008A
S214013150A8F90300B7F9030084FF030038FB030056
S214013160C9F903004FFB030048FB030064FB03009F
S214013170FBF9030007FA030082FD03009DFD03002F
S2140131800B68A34A73B59342044600F0EF8202F13E
S214013190A06202F54032934200F0A982042B40F06F
S2140131A007834B7A032B00F2F481DFE813F0040067
S2140131B00602A002A3020A7A964B53F82230964AD8
S2140131C0934240F09280532380F8213090F82530C6
S2140131D0418B80F8223003445B7F0322DB43C3F339
S2140131E0C01380F8233000F12103007F10F038FF70
S2140131F0E06038B3894D8A49286821F00FF889497B
S214013200286821F00BF88849286821F007F801F0B2
S214013210B1FA20F013F8854B854A0093854940F2B0
S2140132202333286820F0FAFF8349E368834A286835
S21401323020F0F4FFE06801F0F7FA8149286820F0F1
S214013240EDFFFEE7032001F075FAA0B1734D7D494D
S214013250286820F0E3FF7C49286820F0DFFF01F0B2
S21401326089FA1FF0EBFF94F8233094F8252077496C
S214013270286820F0D3FF0122754B76481A7020F09B
S214013280B2F800237D21CDE90033734A734806F076
S214013290D7FBE060002800F07881604D604928681F
S2140132A020F0BCFF5F49286820F0B8FF5E49286817
S2140132B020F0B4FF01F05EFA1FF0C0FF5B4B5C4AE2
S2140132C000935C4940F27A33286820F0A7FF5A49F8
S2140132D0E3685A4A286820F0A1FFE06801F0A4FAE2
S2140132E05749286820F09AFFFEE75D4A934240F06E
S2140132F0BB8090F82550618B43195A7F007F02F0FE
S2140133007F02632A04F1210338D80532642A88BF74
S2140133106422502684F8232084F82160032284F84E
S214013320225010F09DFEE060002857D03B4D3C49EE
S214013330286820F073FF3B49286820F06FFF3A4960
S214013340286820F06BFF01F015FA1FF077FF374B66
S214013350374A009337494FF44E73286820F05EFFD2
S2140133603549E368354A286820F058FFE06801F0DF
S2140133705BFA3349286820F051FFFEE7642284F89F
S2140133802320032210F06CFEE06038B3234D24495D
S214013390286820F043FF2349286820F03FFF224990
S2140133A0286820F03BFF01F0E5F91FF047FF1F4BAF
S2140133B01F4A00931F4940F23F33286820F02EFF32
S2140133C01D49E3681D4A286820F028FFE06801F0DF
S2140133D02BFA1B49286820F021FFFEE7032001F0A5
S2140133E0A9F900283FF447AF0C4D1649286820F08C
S2140133F015FF1549286820F011FF01F0BBF91FF0F1
S2140134001DFF94F8233094F82520164930E700BFB5
S214013410A0000601CC0A002000060400501300207C
S2140134203B020400A8F90300B7F903001EFF0300DE
S21401343038FB0300C9F903004FFB030048FB0300F8
S21401344064FB0300FBF9030007FA0300A9FD030070
S214013450D72A002048060400313F01002C12002024
S21401346018060400BBFD0300A94A93427FF403AF8C
S21401347090F82550618B43195A7F007F12F07F0226
S21401348004F1210339D0053AD2B2642A88BF00225A
S214013490502684F8232084F82160032284F82250E1
S2140134A010F0DEFDE060002856D09A4D9A49286853
S2140134B020F0B4FE9949286820F0B0FE98492868A3
S2140134C020F0ACFE01F056F91FF0B8FE954B964A77
S2140134D00093964940F25533286820F09FFE9449A0
S2140134E0E368944A286820F099FEE06801F09CF9A8
S2140134F09149286820F092FEFEE784F823200322F3
S21401350010F0AEFDE06038B3824D8349286820F0A4
S21401351085FE8249286820F081FE8149286820F0CE
S2140135207DFE01F027F91FF089FE7E4B7E4A00934F
S2140135307E494FF45773286820F070FE7C49E36893
S2140135407C4A286820F06AFEE06801F06DF97A4945
S214013550286820F063FEFEE7032001F0EBF8002860
S2140135603FF489AE6B4D7549286820F057FE7449C3
S214013570286820F053FE01F0FDF81FF05FFE94F876
S214013580233094F825206F4972E6032001F0D2F823
S21401359008B902200AE15F4C6849206820F03EFE27
S2140135A06749206820F03AFE01F0E4F81FF046FE75
S2140135B06549206820F032FEEBE7644B0A7A53F83F
S2140135C02220634B9A4240F0928090F82530532295
S2140135D0022B8EBF00230133DBB280F8253080F842
S2140135E0212080F8223003445B7F418BDB0980F881
S2140135F02330032200F12103007F10F031FD06463F
S214013600E06038B3434D4449286820F007FE43493B
S214013610286820F003FE4249286820F0FFFD01F0EB
S214013620A9F81FF00BFE3F4B3F4A00933F4940F27B
S2140136309233286820F0F2FD3D49E3683D4A286848
S21401364020F0ECFDE06801F0EFF83B49286820F037
S214013650E5FDFEE702253F4B3F481D701FF0C3FE08
S21401366033467D21CDE900663C4A3D4806F0E8F93F
S214013670E06038B3274D2849286820F0CFFD274958
S214013680286820F0CBFD2649286820F0C7FD01F008
S21401369071F81FF0D3FD234B234A0093234940F2D0
S2140136A0A133286820F0BAFD2149E368214A286839
S2140136B020F0B4FDE06801F0B7F81F49286820F053
S2140136C0ADFDFEE7032001F035F800283FF461AFB9
S2140136D0104C1A49206820F0A1FD1949206820F0F5
S2140136E09DFD01F047F81FF0A9FD1E4961E700F0B6
S2140136F0C7FF4EE7032001F01DF820B1054B1A491C
S214013700186820F08BFD002026F05CFB41E700BF27
S21401371030060400501300203B020400A8F9030001
S214013720B7F903001EFF030038FB0300C9F90300C5
S2140137304FFB030048FB030064FB0300FBF9030097
S21401374007FA0300CFFD0300E3FD0300CC0A0020C7
S21401375000060400D72A002048060400313F010075
S2140137602C120020F0FD0300FDFD0300114806F0B9
S21401377047F8E060B8B9032000F0DCFF80B10E4DD9
S2140137800E49286820F04AFD0D49286820F046FDBC
S21401379000F0F0FF1FF052FD0A49286820F03EFDB8
S2140137A009481FF01DFE0720084BA36002B070BD3C
S2140137B00020FBE72C12002050130020FBF9030029
S2140137C007FA03000BFE030048060400DC000400B1
S2140137D037B5364B0A6804469A4265D1032000F095
S2140137E0A9FFC0B1324D3349286820F017FD324990
S2140137F0286820F013FD00F0BDFF1FF01FFD2F4BC2
S21401380019684889CB888A880190098928680091B7
S2140138102B4920F003FD00F04FFB0321262010F07A
S21401382083FCE06030B3224D2649286820F0F6FC80
S2140138302549286820F0F2FC2449286820F0EEFC8F
S21401384000F098FF1FF0FAFC214B224A2249009310
S2140138502868872320F0E2FC2049E368204A28688C
S21401386020F0DCFCE06800F0DFFF1E49286820F04D
S214013870D5FCFEE7032000F05DFF80B10C4D0D493D
S214013880286820F0CBFC0C49286820F0C7FC00F023
S21401389071FF1FF0D3FC1449286820F0BFFC0720F5
S2140138A0124BA36003B030BD0020FBE7A00001006F
S2140138B050130020FBF9030007FA030060120020F2
S2140138C020FE03003B020400A8F90300B7F9030039
S2140138D06DFF030038FB0300C9F903004FFB03002B
S2140138E048FB030064FB030048FE03007401040068
S2140138F037B5054610F0F8FBE86038B3154C1649A5
S214013900206820F08BFC1549206820F087FC1449BC
S214013910206820F083FC00F02DFF1FF08FFC114B78
S214013920114A12490093206840F22F1320F076FCCA
S2140139300F49EB680F4A206820F070FCE86800F039
S21401394073FF0D49206820F069FCFEE7052003B0EF
S21401395030BD00BF501300203B020400A8F903004D
S214013960B7F9030043FF030038FB0300C9F903005E
S2140139704FFB030048FB030064FB030037B50B68ED
S214013980324A044693420AD002F1806202F580224E
S214013990934259D0052B55D0002003B030BD2C4B97
S2140139A018680579032D01D00120F6E7817D1730CF
S2140139B000F008FA0028F7D0284600F0BBFE80B1D8
S2140139C0244D2549286820F029FC2449286820F040
S2140139D025FC00F0CFFE1FF031FC2149286820F0BD
S2140139E01DFC204805F00CFFE06038B3194D1E4958
S2140139F0286820F013FC1D49286820F00FFC1C499C
S214013A00286820F00BFC00F0B5FE1FF017FC194BE0
S214013A10194A0093194940F24313286820F0FEFB27
S214013A201749E368174A286820F0F8FBE06800F0B9
S214013A30FBFE1549286820F0F1FBFEE7134B072033
S214013A40A360AAE7124BFAE70220A6E7A00005004A
S214013A506012002050130020FBF9030007FA030050
S214013A605CFE03002C1200203B020400A8F90300B0
S214013A70B7F9030030FF030038FB0300C9F9030060
S214013A804FFB030048FB030064FB03004C010400EA
S214013A903C0104000149FEF7EFBC00BFF124010020
S214013AA030B585B0044600F007FE4EF6602003A947
S214013AB005F064FF38B90346CDE900003B4A039997
S214013AC03B4820F049FDE06038B33A4D3A49286852
S214013AD020F0A4FB3949286820F0A0FB3849286863
S214013AE020F09CFB00F046FE1FF0A8FB354B364A43
S214013AF036490093286840F21D1320F08FFB3449A5
S214013B00E368344A286820F089FBE06800F08CFE00
S214013B103149286820F082FBFEE7012120461FF08C
S214013B20B7FA084610F0ECFAE06038B3214D2249A6
S214013B30286820F073FB2149286820F06FFB204994
S214013B40286820F06BFB00F015FE1FF077FB1D4B7D
S214013B501D4A1E49009328684FF4937320F05EFBBC
S214013B601B49E3681B4A286820F058FBE06800F010
S214013B705BFE1A49286820F051FBFEE7032000F09F
S214013B80D9FD80B10B4C1649206820F047FB15493A
S214013B90206820F043FB00F0EDFD1FF04FFB1249BB
S214013BA0206820F03BFB042005B030BD6D3F0100CE
S214013BB02C120020501300203B020400A8F9030039
S214013BC0B7F9030058FF030038FB0300C9F90300E7
S214013BD04FFB030048FB030064FB03007AFE03006F
S214013BE0FBF9030007FA0300AAFE030004220A4BAE
S214013BF070B500251A60E0221D715A71074B1C68CA
S214013C002046FFF747FF23682A4629462046BDE897
S214013C1070401B68184700BF54120020B8FE03000E
S214013C20464B37B51A78002A42D0002244481A700B
S214013C3005F0E6FD054630B3424C4349206820F0C6
S214013C40EDFA4249206820F0E9FA4149206820F05F
S214013C50E5FA00F08FFD1FF0F1FA3E4B3E4A3F4970
S214013C6000932068802320F0D9FA3D492B463D4A2F
S214013C70206820F0D3FA284600F0D6FD3A4920689D
S214013C8020F0CCFAFEE7032000F054FD80B12D4C65
S214013C903649206820F0C2FA3549206820F0BEFA7D
S214013CA000F068FD1FF0CAFA3249206820F0B6FA23
S214013CB0314B1A78EAB1002203201A7000F03AFD5F
S214013CC080B1204C2949206820F0A8FA28492068AC
S214013CD020F0A4FA00F04EFD1FF0B0FA2749206844
S214013CE020F09CFA264B00221868264903685B6878
S214013CF09847254D2B78FBB1032000F01BFD80B1C2
S214013D00104C1A49206820F089FA1949206820F0D9
S214013D1085FA00F02FFD1FF091FA1C49206820F06B
S214013D207DFA0022164B1A4918682A7003685B68E8
S214013D3003B0BDE83040184703B030BDD82A002094
S214013D402C120020501300203B020400A8F90300A7
S214013D50B7F903005E020400AC010400C9F90300D0
S214013D604FFB03004CFB030064FB0300FBF903005D
S214013D7007FA0300B5010400D92A0020C501040092
S214013D80B8FE030054120020DB2A0020D6010400EE
S214013D90A4020400084B094918600368002223F4B2
S214013DA07F4323F007030B60E0234B71044B0A713A
S214013DB0186803685B681847601200204C120020E0
S214013DC0B8FE03002DE9F04105460F460024DFF852
S214013DD03480BC4202D30020BDE8F0812B195B7809
S214013DE02E5D063B012B06D8A01C10224146284416
S214013DF02AF0ECFE18B101363444E4B2E9E70120BA
S214013E00EAE700BF9102040073B51E4E04463378FC
S214013E10002B2FD11C491D4810F0BEF9054638B3BA
S214013E201B4C1C49206820F0F9F91B49206820F03A
S214013E30F5F91A49206820F0F1F900F09BFC1FF013
S214013E40FDF9174B174A009317494FF483732068FF
S214013E5020F0E4F915492B46154A206820F0DEF9D2
S214013E60284600F0E1FC1349206820F0D7F9FEE768
S214013E700123337014B1044B1B782370034802B03E
S214013E8070BD00BFDA2A0020D62A0020D02A0020E2
S214013E90501300203B020400A8F90300B7F9030001
S214013EA03D020400AC010400C9F903004FFB030006
S214013EB04CFB030064FB030030B589B00DF11F0015
S214013EC0FFF7A2FF0446032000F034FC10B3124DA6
S214013ED01249286820F0A2F91149286820F09EF9B5
S214013EE000F048FC1FF0AAF9227863790492627800
S214013EF09DF81F000392A2780A490292E278019285
S214013F0022790092084A002808BF0A46074928680D
S214013F1020F084F909B030BD50130020FBF90300EE
S214013F2007FA0300F9010400EB010400070204008C
S214013F3010B50B4C23787BB10A481FF057FA30B105
S214013F4008481FF050FA2378013B237010BD05483E
S214013F50BDE810401FF047BA0122034B1A70F5E77F
S214013F60D72A002048060400D82A00200122014B47
S214013F701A707047DB2A00200122034B1A70034B8C
S214013F805972187200F098BBD92A002054120020EA
S214013F9030B503685A4A23F47F4323F0070393425C
S214013FA089B040F0AA80052200211820554B10F058
S214013FB06DF8054630B3544C5449206820F02EF96C
S214013FC05349206820F02AF95249206820F026F942
S214013FD000F0D0FB1FF032F94F4B504A0093504986
S214013FE05923206820F01AF94E492B464E4A20687C
S214013FF020F014F9284600F017FC4C49206820F000
S2140140000DF9FEE70DF10F0104A810F0C5F80446FE
S21401401030B33D4D3D49286820F000F93C492868F9
S21401402020F0FCF83B49286820F0F8F800F0A2FBE5
S2140140301FF004F9384B394A00933949642328683C
S21401404020F0ECF837492346374A286820F0E6F88E
S214014050204600F0E9FB3549286820F0DFF8FEE746
S2140140609DF8153001468DF818309DF81430082259
S2140140708DF819309DF813301A208DF81A30FF2369
S2140140808DF81B30FE238DF81C309DF812308DF80C
S2140140901D309DF811308DF81E309DF810308DF8CA
S2140140A01F3006AB0FF0F2FF054630B3164C17492A
S2140140B0206820F0B3F81649206820F0AFF81549BB
S2140140C0206820F0ABF800F055FB1FF0B7F8124B54
S2140140D0124A009312497423206820F09FF8114970
S2140140E02B46114A206820F099F8284600F09CFBE0
S2140140F00E49206820F092F8FEE709B030BD00BFF7
S214014100A0000100AC020400501300203B02040092
S214014110A8F90300B7F90300DA020400B2020400AA
S214014120C9F903004FFB03004CFB030064FB0300CB
S21401413010B5234C01F08AFC01F070FE236F23F0CA
S214014140070343F0030323671FF0A5FA1D4B002066
S2140141509B6A9B075EBF01221B4B9A62D4F82031F3
S21401416023F0030343F00203C4F82031D4F82431CA
S21401417023F0070343F00203C4F82431D4F8403196
S21401418023F0030343F00103C4F84031D4F860314F
S21401419023F0030343F00103C4F86031D4F840323E
S2140141A023F0030343F00103C4F84032D4F800328D
S2140141B023F0070343F00103C4F8003210BD00BF2B
S2140141C00080005000C0005000E0005008B502F02A
S2140141D075FB01280ED1134B04205A6E4FF4802331
S2140141E01149520358BF114A4B6601F51041086246
S2140141F058BF536604F0DCF81FF02CF804F07CF886
S21401420004F09CF81FF0B6FFFFF792FF04F084F865
S2140142101FF017F800F018FD01F042F9BDE808405C
S21401422004F0D4BD008000500090005000A0005063
S21401423030B5204D9DB009AC0FCD0FC495E80F00E9
S21401424084E80F004FF416532822002112A80B937E
S2140142502AF0F3FC184B01241193382313930223FD
S2140142608DF8503015938DF8583003231022002115
S21401427005A817938DF849402AF0DFFC4FF4801209
S2140142800E4B03A9CDE903233E238DF814303F23BB
S2140142908DF815300A4B09AA069320230793094B7C
S2140142A00948009311AB8DF8204004F013F91DB0B6
S2140142B030BD00BFE00504000000035A3400035A75
S2140142C0DC2A002064120020DC120020022905D816
S2140142D0034B1B68186808B1436A1847704700BF4C
S2140142E0C80A002008B50449044804F033FEBDE8B6
S2140142F00840FFF79DBF00BFC00A0020D41200206F
S21401430001481FF0C2BF00BFDC120020014B1A6A31
S21401431018681047DC12002008B505481EF0CCFFCF
S21401432004481EF0C9FFBDE8084003481EF0C4BF9C
S21401433000060400180604003006040001481FF0B9
S2140143404CB800BF480604001A4B37B583422ED13D
S214014350194B1B785BB3C8B20FF01AFE054630B393
S214014360164C174920681FF059FF164920681FF0A0
S21401437055FF154920681FF051FF00F0FBF91EF0AC
S2140143805DFF124B124A13490093206885231FF0E4
S21401439045FF11492B46114A20681FF03FFF28466A
S2140143A000F042FA0E4920681FF038FFFEE703B01E
S2140143B030BD00BF00130020FC2A0020501300204F
S2140143C03B020400A8F90300B7F90300D80604006D
S2140143D060060400C9F903004FFB03004CFB030011
S2140143E064FB030030B500240368614A23F47F436D
S2140143F023F0070385B0934205468DF808408DF8F3
S21401440009408DF80A408DF80B408DF80C408DF868
S2140144100D4000F0878002F5802293420ED0A2F173
S2140144208272934240F0A280524B1B78002B00F020
S2140144309D8005B0BDE8304020F051B9B0F8053098
S214014440222B40F09380FF2304A91A4611E90300AA
S2140144501EF0EDFE012814BF41F2FC14454B04F09A
S214014460FC0208BF1870222128790FF025FE0446A9
S21401447030B3414D414928681FF0D0FE40492868B5
S2140144801FF0CCFE3F4928681FF0C8FE00F072F905
S2140144901EF0D4FE3C4B3D4A00933D495923286803
S2140144A01FF0BCFE3B4923463B4A28681FF0B6FE78
S2140144B0204600F0B9F9394928681FF0AFFEFEE73B
S2140144C0374900902B79374A0968374800F004FAD3
S2140144D0054600284AD0284C284920681FF09EFE31
S2140144E0274920681FF09AFE264920681FF096FE8D
S2140144F000F040F91EF0A2FE234B244A0093244903
S214014500622320681FF08AFE22492B46224A206831
S2140145101FF084FE284600F087F9204920681FF026
S2140145207DFEFEE7B0F80530B7EE047A07EE903A66
S214014530F8EE677AB0F8073027EE877A013307EE90
S214014540903AF8EEE77A67EE277AB1EE047A67EEEC
S214014550877AFAFE677AFCEEE77A17EE903AB3F5B9
S2140145607A7F38BF4FF47A730D4A136005B030BDB9
S214014570A0000602FC2A0020501300203B02040083
S214014580A8F90300B7F90300E70604006006040073
S214014590C9F903004FFB03004CFB030064FB030057
S2140145A0D80A0020494301000013002004210022FC
S2140145B0034B19711A6019739A6019751A6170475D
S2140145C0381300202DE9F843204B06461B78ABB97B
S2140145D00325DFF880901E4C59F8043BB34207D1FF
S2140145E030461EF06EFE01280AD120F036F8206013
S2140145F0013D15F0FF0504F10804EDD1BDE8F8838F
S21401460030461EF05EFE80460028F1D120F025F8E7
S2140146102368C71A4FF47A7005F09EF9B84202D99A
S21401462084F80480E4E740F6B83005F095F9B8421E
S21401463002D901232371DBE741F2883005F08CF9BA
S214014640B8428CBF02230323F4E700BF190D0020F4
S21401465038130020CC0A002070B500240426074D2C
S2140146602979E0B2042902D0FFF786FC2E710134C5
S214014670032C05F10805F3D170BD00BF38130020E7
S21401468070B50024094D0A4E55F8040B1EF019FEAC
S214014690012803D11FF0E1FF46F834000134032C52
S2140146A0F2D10022034B1A7070BD00BFCC0A002065
S2140146B038130020190D0020064B1A784AB901213B
S2140146C019700421044B19711A6019739A601975CF
S2140146D01A617047190D002038130020074B18780F
S2140146E050B9074B1A79042A06D11A7B042A03D13A
S2140146F0187D031F58425841704700BF190D00200E
S21401470038130020094B1B785BB9094B187904282C
S21401471009D11A7B042A07D11B7D042B08BF01206F
S2140147207047012070470420704700BF190D002014
S214014730381300200B4B02461B788BB10A4B1B78B3
S214014740834234BF00200120084B1B783BB1084B45
S2140147501B7843FA02F212F0010F08BF00207047DF
S2140147600120F1E71A0D00201B0D0020FD2A002074
S2140147701C0D002073B505F0CFF84FF47A740E4681
S214014780054605F0E3F80246A5FB0401002304FBF9
S21401479006111CF045FE4EF66023B0FBF4F23C21F8
S2140147A0B0FBF3F304FB12040194B2FBF1F4B3FB88
S2140147B0F1F501FB14220092054A01FB1533B0FB0B
S2140147C0F2F20448044900681FF028FD02B070BDEB
S2140147D080EE36005013002007070400012208B5BA
S2140147E0074B1A700022074B1A700422064B1A70E8
S2140147F01F22064B1A7003F005FE054B186008BD14
S2140148001A0D0020FD2A00201B0D00201C0D002083
S21401481050130020024B034918681FF0FFBC00BF6D
S214014820501300201E07040070B50C4C0C490646B8
S21401483020681FF0F3FC03F0E5FD0546206803F051
S214014840D5FD3046FFF7E6FF284603F0CFFD20688A
S2140148500449BDE870401FF0E1BC00BF50130020C2
S214014860200704002207040038B505461EF02FFF76
S21401487000230B4A14685CB1AC4206D1A96A6BB13D
S21401488099621EF02AFF012007E02346A46AF2E798
S214014890002DF3D01EF021FF204638BD1160F0E751
S2140148A05413002010B5044690B104F0A9FF204629
S2140148B0FFF7DAFF58B194F82C0040B11EF007FF5D
S2140148C0044A1368013B13601EF007FF002010BD69
S2140148D02220FCE7581300202DE9F04F85B005464D
S2140148E0914698460E469DF8387009B9002F66D154
S2140148F02846FFF7D7FF0446002840D185F82C004C
S214014900686305F0D1F886423DD905F01FF840F2FC
S214014910E7318C462146E6FB00C14FF47A726046C9
S21401492000231CF07DFD4FF0FF32002383468A46AC
S2140149301CF076FD4FF0FF32E886002358465146BC
S2140149401CF06EFD2B4611462846CDE900441D4A53
S2140149501FF05EFE044690B9C5E9089885F82D70EB
S2140149602E631EF0B4FE184A136833B31A469B6AC8
S214014970002BFBD195620023AB621EF0AEFE2046F3
S21401498005B0BDE8F08F47B12B4631462846CDE944
S21401499000440C4A05F010F8DCE7304603A904F0A1
S2140149A0EDFF04460028EAD12B462846CDE90077DC
S2140149B0044A03991FF008FECCE71560DBE72124C3
S2140149C0DDE700BFCD4901005413002091F82C30DB
S2140149D013B50C4683B98B8ECA8E93420ED243B959
S2140149E0CDE9003320460B46104A4FF0FF311FF049
S2140149F0CFFDA38E0133A38602B010BD52B191F84C
S214014A002D307BB101230093D1E908232046096BA1
S214014A10FFF762FF0123064A84F82C30136801333E
S214014A201360E9E7084604F0EBFEF3E7CD49010021
S214014A30581300202DE9F041144E336823B34FF08C
S214014A400008134F1EF043FE05463C6824B928466D
S214014A50BDE8F0411EF041BE94F82C3093B13368A6
S214014A6084F82C80013B336094F82D3013B920462E
S214014A70FFF7FAFE28461EF030FED4E9083120463C
S214014A809847DFE7A46AE1E7BDE8F0815813002004
S214014A9054130020034B1B68002B0CBF012004207D
S214014AA0704700BF58130020024B1868B0FA80F018
S214014AB040097047581300200348044A0449121A53
S214014AC092101EF0D5BB00BF2057040020570400EB
S214014AD0282C002008B500F02FF8FFF7EDFF124B49
S214014AE012498B4212D30020114B12498B4218D324
S214014AF0FDF7DEFB186850F82240586840F822405F
S214014B00013298688242F5D30C33EAE70022F8E7CF
S214014B101C6844F8220001325C68A242F8D30833CC
S214014B20E4E70022F8E700BFBC520400C8520400C4
S214014B30C8520400C85204004FF400414FF0FF3041
S214014B40124B134A10B59A60D3F8882042F47002CB
S214014B50C3F888200F4A916601F1884101F5005299
S214014B6010664FF6DF7050660220C3F8D000BFF320
S214014B704F8FBFF36F8F08244FF440330648C0F8B9
S214014B808041D36004600B6110BD00BF00ED00E002
S214014B90002001000090005000E100E0014B186881
S214014BA0704700BFE00A0020084B1B6F03F00703A5
S214014BB0022B04D0032B05D0012B05D0FEE7044BB6
S214014BC018687047034BFBE70348704700800050A6
S214014BD0E00A0020E40A0020002D310108B5FFF7A5
S214014BE0E3FF054B1B6FC3F303330133B0FBF3F055
S214014BF0024B186008BD00BF00800050DC0A002090
S214014C000048704700B4C404014B1868704700BFE1
S214014C10E40A0020054B1860054B1B6F03F00703E1
S214014C20032B01D1FFF7DABF704700BFE40A00206B
S214014C300080005000487047002D3101014B186874
S214014C40704700BFE80A00200020836A10B5B3F55C
S214014C50903F0ED21968084A91420AD1074C227831
S214014C6012F0FD0F04D1DB69984708B901232370C0
S214014C7010BD4FF48170FBE707B0CD5EFE2A002021
S214014C804FF00053074A1A60BFF34F8F0649074B90
S214014C90CA6802F4E0621343CB60BFF34F8F00BFD4
S214014CA0FDE700BF02020FF000ED00E00400FA0588
S214014CB005490A681318054883428CBF4FF0FF3236
S214014CC00B601046704700BFEC0A002000800020F1
S214014CD0F7B50468012105463A2000F0DBFD002304
S214014CE001226179207901F0F3FB14233021227926
S214014CF011FB023101F1A04101F5703109686379B8
S214014D00D940C943A37901F00101022B217017D1C3
S214014D1000F022FB164A2B466179207900F046FB0B
S214014D20FF28024660790ED12A46114900F068FB39
S214014D300123024661792079CDE9003301F070FB49
S214014D40002003B0F0BD0126277900230146009616
S214014D50384601F01FFC2A460549607900F050FBF1
S214014D600023617902462079009301963346E5E7F0
S214014D70CD32030008B501213A2000F08BFD032156
S214014D8001230422002001F0A3FB00201EF00DFDEC
S214014D900122214B4FF46070C3F844241EF0B3FB8C
S214014DA01E4B00F5D520D3F8F02000F2FC4042F06F
S214014DB00102C3F8F020D3F8FC2042F08072C3F859
S214014DC0FC20174AA3F55D431A60164B0222B0FB7E
S214014DD0F3F0154B01381861C3F8F0204FF48072D8
S214014DE0C3F804234FF06043104A0020C3F8B02FE5
S214014DF00F4AC3F8802ED3F8002E42F48072C3F80F
S214014E00002EFF2283F82020D3F8002E22F4807291
S214014E10C3F8002E08BD00BF00D0035000ED00E02F
S214014E20FF030040F8590D00000004E055CEACC564
S214014E300900010010B501224378017884783020FA
S214014E409A40054B00FB01331CB942F210015A503F
S214014E5010BD41F21001FAE700C0035010B501225F
S214014E6043780178847830209A40054B00FB013363
S214014E701CB941F210015A5010BD42F21001FAE776
S214014E8000C003502DE9F04F9A46564B85B01B786B
S214014E9006460F461546DDF83C909DF844B0DDF811
S214014EA05080002B00F08D80072A00F28C800E9B2C
S214014EB0002B00F08880B9F1000F00F08480129B6F
S214014EC0B3F5006F7FDC012802D1109B002B7AD04E
S214014ED0454B03EB05131B7B002B76D0434C10226E
S214014EE00021684629F0A9FE04EB45141022002F84
S214014EF059D13946204629F0A0FE43F210036380BB
S214014F00BBF1000F03D1E37843F00303E370374AA4
S214014F100E9B02EB451CCCE90193129B6901013BF8
S214014F20C3F30A009DF84C30012E03F003034FEA49
S214014F30836343EA001E53582D48CDF800A000EACB
S214014F4003004EEA0003535041D113230CF1100E17
S214014F50CCF80C309CE80F008EE80F006FF00301D0
S214014F60DCF81C20109B61F39F02012FCCF81C205B
S214014F70CCF8143003D1CCF81890CCF804300027C4
S214014F80194A290102EB051342F80180159A2846B1
S214014F905A60694622469F605E7301F077FB384689
S214014FA005B0BDE8F08F0021204629F046FE4FF4FB
S214014FB044736380BBF1000FA9D1E37843F030035B
S214014FC0A4E70C48ECE70C48EAE70C48E8E7B8F138
S214014FD0000FD4D19CF8023068F304138CF8023029
S214014FE0CDE700BFFF2A00205C130020DC13002061
S214014FF00F80FFF3028000F0018000F0078000F0D0
S21401500038B5124B05461B78DBB1E0B11EF05FFBED
S2140150100F4A00231146147B54B92B6001251A014F
S21401502001EB03131D738C501EF057FB204638BD51
S2140150300133082B02F11002EDD11EF04EFB05489C
S214015040F5E70548F3E70548F1E700BFFF2A00202A
S2140150505C130020048000F0028000F0018000F064
S21401506013B51EF034FB00230B4A147B7CB90133C5
S214015070082B02F11002F8D1019001F0A9FA074BB2
S21401508001981C701EF029FB204602B010BD1EF0D0
S21401509024FB0348F9E700BF5C130020FF2A002029
S2140150A0058000F00D4B10B51B78044693B1072818
S2140150B012D81EF00CFB0A4B03EB04131A7B2AB121
S2140150C000241C731EF009FB204610BD1EF005FBD4
S2140150D00448FAE70448F8E70448F6E7FF2A002000
S2140150E05C130020068000F0028000F0018000F0D2
S2140150F0154B13B51868002301908DF804301EF087
S214015100E6FA124B1C7824B11EF0E7FA104802B0FA
S21401511010BD01221A701EF0E0FA0E4B01A81C7396
S2140151201C7783F82C4083F83C4083F84C4083F886
S2140151305C4083F86C4083F87C4008238DF8073088
S21401514001F072FA2046E2E778070400FF2A002001
S214015150038000F05C1300200A4A08B512785AB1A1
S21401516007280BD8084A02EB00131B7B43B100212A
S21401517001F04CFA002008BD0448FCE70448FAE7B1
S2140151800448F8E7FF2A00205C130020028000F0A4
S214015190018000F0078000F00A4A08B512785AB17B
S2140151A007280BD8084A02EB00131B7B43B10121E9
S2140151B001F02CFA002008BD0448FCE70448FAE791
S2140151C00448F8E7FF2A00205C130020028000F064
S2140151D0018000F0078000F00A4A08B5127852B143
S2140151E007280AD8084A02EB00131B7B3BB101F0E3
S2140151F097FA002008BD0548FCE70548FAE7054888
S214015200F8E700BFFF2A00205C130020028000F0B0
S214015210018000F0078000F00D4B1B7893B1072842
S21401522012D889B10B4B03EB00131B7B73B10A4BEE
S2140152301A6D012303FA00F010401ABF00200B700C
S214015240087070470548704705487047054870471D
S214015250FF2A00205C13002000000450028000F0AA
S214015260018000F0078000F00B4A10B512780C465A
S21401527062B107280CD859B1084A02EB00131B7B10
S21401528043B101F05FFA2070002010BD0448FCE72E
S2140152900448FAE70448F8E7FF2A00205C130020D8
S2140152A0028000F0018000F0078000F02DE9F8434D
S2140152B0174B1F6D5B6D1F4000D5FEE701260025CD
S2140152C0144CDFF85480DFF85490374217D0236827
S2140152D0C8F850609BB1A168284601316268A16098
S2140152E09847637B012B0AD148B909EB45131A7B12
S2140152F060F341021A731A7F60F341021A7701358F
S214015300082D4FEA460604F11004DED1BDE8F88305
S214015310000004505C13002000200450DC13002021
S21401532070B5044601250B4E04B970BD94FAA4F07D
S214015330B0FA80F005FA00F306EB001224EA030443
S2140153405368002BF0D0117B11B191689847EBE7B9
S2140153509847E9E7DC14002008B5192000F08AFD1B
S21401536028B14FF00072074BC3F880211A601A204B
S21401537000F080FD28B14FF08062024BC3F8802117
S2140153801A6008BD00E100E038B505460C461EF07F
S2140153909EF90022044B03EB05135C601A73BDE80B
S2140153A038401EF09AB900BFDC140020F8B5044658
S2140153B00D4617461E461EF08AF91CB9052D0DD05E
S2140153C0FF2414E0012C03D1012DF9D1032405E0BB
S2140153D0022CF5D17DB1052DF2D107240123074D0D
S2140153E004F1100105EB0111C1E901760B731EF002
S2140153F074F92046F8BD0624F0E700BFDC1400204F
S214015400F8B505460F4616461EF061F9104B05F035
S214015410FC02D3F824140023EC1804F0030414430C
S21401542021FA04FC1CF0010F07D00133042BF3D141
S214015430FF241EF052F92046F8BDFF2CF9D00122B8
S214015440044B03EB0413C3E901761A73F1E700BFBB
S21401545000C00350DC140020074BD3F82404D3F813
S214015460202403F50053104000F0553020F0502062
S214015470C3F82004FFF754BF00C00350074BD3F80E
S2140154802404D3F8202403F50053104000F0AA307A
S21401549020F0A020C3F82004FFF742BF00C003504D
S2140154A0024B1968024B186814F0A6BFF40A0020D4
S2140154B0F00A002037B5920004460D4601922AF004
S2140154C033FA431C0BD060B929462046019A29F0CD
S2140154D07DFB0028044808BF002003B030BD034808
S2140154E0FBE70348F9E700BF10E000F021E000F019
S2140154F024E000F010B504462AF00EFA431C10D042
S21401550088B901F0E3F9234620F0030020449842CD
S21401551001D1002010BD53F8042B0132F7D0034807
S214015520F8E70348F6E70348F4E700BF0EE000F0AB
S21401553021E000F024E000F008B51EF0C1F8014BB0
S214015540186008BD1C1D0020014B18681EF0BCB871
S2140155501C1D0020044BD3F88420D206FBD4D3F8BC
S2140155608400C0F3811070470040005038B5104BDE
S2140155700546D3F820310C4603F00303022B0BD06B
S214015580032B0DD0012B0FD1FFF708FB052305B127
S214015590286004B1236038BDFFF736FB0323F6E726
S2140155A0FFF748FB0223F2E701230020EFE700BFE5
S2140155B00080005073B50D4600210E4B0191D3F8C3
S2140155C08041064604F00304012C09D0022C0CD0BD
S2140155D00C460EB1019B336005B12C6002B070BD64
S2140155E001A8FFF7C3FF0F24F3E7FFF723FB0190A2
S2140155F0EFE700BF0080005038B5184B0546D3F8DA
S21401560024010C4600F00700062805D8DFE800F064
S214015610230B131B1F0F17000023184605B1286024
S21401562004B1236038BDFFF7B9FA0523F6E7FFF7A3
S214015630B5FA0623F2E7FFF7E7FA0323EEE7FFF7EB
S214015640E3FA0423EAE7FFF7F5FA0223E6E71DF09B
S2140156501AFE0723E2E70123E0E700BF00800050BF
S21401566038B5104B0546D3F840310C4603F003031A
S214015670022B0BD0032B0DD0012B0FD11DF005FEF5
S214015680092305B1286004B1236038BDFFF7D6FAB7
S2140156900823F6E71DF0FCFD0B23F2E701230020AB
S2140156A0EFE700BF0080005038B5144B0546D3F82D
S2140156B000020C4600F00700042804D8DFE800F0DA
S2140156C01B0A0E1216000023184605B1286004B105
S2140156D0236038BD1DF0D9FD0923F6E7FFF7AEFAC2
S2140156E00823F2E71DF0D4FD0B23EEE7FFF776FA69
S2140156F00E23800AE9E70123E7E700BF0080005098
S21401570038B5104B0546D3F840320C4603F0030378
S214015710022B0BD0032B0DD0012B0FD11DF0B5FDA5
S214015720092305B1286004B1236038BDFFF786FA66
S2140157300823F6E71DF0ACFD0B23F2E7002318461D
S214015740EFE700BF0080005038B5104B0546D3F890
S21401575060310C4603F00303022B0BD0032B0DD054
S214015760012B0FD11DF091FD092305B1286004B16D
S214015770236038BDFFF762FA0823F6E71DF088FDBF
S2140157800B23F2E701230020EFE700BF0080005063
S21401579010B40D4C0B46D4F8204204F00304012C3F
S2140157A00AD0022C0CD008B1002101600BB10022F6
S2140157B01A605DF8044B70475DF8044BFFF7D6BEE0
S2140157C05DF8044BFFF74CBF0080005038B50C461F
S2140157D005461DF075FF064B9A6A82EA040101EA46
S2140157E0050454409C62BDE838401DF06DBF00BF03
S2140157F000C00050B0F5207F1FD009D8B0F5007F5B
S21401580015D003D868B1B0F5C07F0AD000200CE0EF
S214015810B0F5607FFAD10B4BD3F88000C0F30110CE
S21401582003E0084B186FC0F3033001307047054B97
S214015830D3F89000C0F30460F7E7024B186FC0F38B
S2140158408020F2E7008000504FF400320E4B0146F4
S21401585010B500209A66FFF7CDFF41F67132484336
S2140158600A490B4B88428CBF4FF480100020DC693C
S214015870DA639A6822F4401202439A60E20344BF54
S2140158800022DA6310BD00BF00900050005A620289
S21401589000000350420910B510D0012A10D00B4B5E
S2140158A00B4C022A18BF234600F01F0051B103F526
S2140158B08053012202FA00F0186010BD1346F3E788
S2140158C0044BF1E703F50053F3E700BF688000508F
S2140158D0608200506480005008B580201DF013FEE1
S2140158E0034B98429EBF4FF48032024B1A6708BDA5
S2140158F0005A620200A000501FB50023B0F5807F59
S214015900019377D028D8382800F094800BD8243813
S214015910092810D809280ED8DFE800F067676767FE
S2140159200D0D620D377D52285FD008D83D283BD03B
S2140159303E2800F08480019805B05DF804FB8028BD
S214015940F9D1414B1B6F03F00703013B032BF2D840
S214015950DFE803F044413F6CB0F5D06F5BD019D857
S214015960B0F5A06F66D00AD8B0F5806F3DD0B0F51F
S214015970906FE0D1002001A9FFF73EFEDBE7B0F50E
S214015980B06F2DD0B0F5C06FD5D1002001A9FFF7BB
S21401599067FED0E7B0F5006FECD00AD8B0F5E06F3F
S2140159A04DD0B0F5F06FC6D1002001A9FFF7CCFEAF
S2140159B0C1E7B0F5086FBED1234BD3F8003103F031
S2140159C00303022B2CD0032B2ED0012B30D1FFF753
S2140159D01BF9032300E005230193ACE70223FBE751
S2140159E0002001A9FFF7E6FDA5E7002001A9FFF7C2
S2140159F0BDFDA0E702934FF0E0231B695B0705D5C9
S214015A00FFF7ECF80C230393039BE5E703A902A831
S214015A10FFF726FEF8E7002001A9FFF745FE8AE713
S214015A20FFF70CF90823D7E71DF02DFC0723D3E772
S214015A300123D1E7002001A9FFF7AAFE7BE700209A
S214015A4001A9FFF75DFE76E7008000504FF40022C3
S214015A50034B5A66012203F580439A62704700BFE2
S214015A600090005008B5FFF747FF082811D0093805
S214015A70012811D84FF40012094B4FF6FF705A66F1
S214015A8003F5D8335B6A13F0010F18BF4FF4FA70B1
S214015A9008BD044B1888FBE74FF6FF70F8E700BF18
S214015AA000900050040D002070B504468020FFF7DA
S214015AB023FF032800F082804FF40022444B02218A
S214015AC05A6645F60E03434AC2F88030424B996245
S214015AD0012103F580539962936DD903FCD4D4E96F
S214015AE000131B0543EA0163E17B94F822500B4344
S214015AF0217B94F8236043EA0143617B43EA013347
S214015B00A17B43EA811313619169D4E904031B065F
S214015B1043EA806301F000410B43A17EE07E0B4324
S214015B20217E43EA0143617E43EA01239361E369EF
S214015B30126A002B0CBF0021082122F00D0242EA56
S214015B40030242EA8002234B42EA01021A6294F8F7
S214015B5020204FEA421232D1986A94F8211020F0A0
S214015B60330042EA0112024342F001029A621B4AE2
S214015B70996D32EA0101FBD1022217498A621A6540
S214015B809A6D5200FCD41869A26820F4700040EAAD
S214015B9002504FF0004218610F4B9A611DB9022264
S214015BA003F580539A6216B901220D4B9A6294F856
S214015BB024301BB1074B0B4AC3F8802070BD996A8D
S214015BC021F0330131430A4342EA4502EEE700BFC2
S214015BD00090005000C0005000D00050030001406B
S214015BE000E00050F1A7FFFF1F4BFF2873B5996A2D
S214015BF037D89A6D12F4803F18BF01241B4A18BF8C
S214015C009462022494629B6DDA0303D5164A936D5F
S214015C109B07FCD50222154B134E1A65B46D14F082
S214015C208044FBD1124B93F90050B369054423F429
S214015C307F0323F47F4343EA002385F3080043EA06
S214015C400043B36102200191FFF7C0FDB06D0199D9
S214015C5010F4803003D00120FFF7B8FD204602B0D3
S214015C6070BD2120FBE700BF00C0005000D00050EF
S214015C70002B0020014B93F900007047002B0020F9
S214015C8001221548154B816A9A62826D02F0030261
S214015C90032AFAD102229A621A650F4B9A6D5200B4
S214015CA0FCD40F4A986D32EA0000FBD101220B4B5F
S214015CB01A65A3F580539A6D9007FCD49A6D9207E6
S214015CC0FCD50222054B1A65034A936D9B07FCD54A
S214015CD00320FFF77BBD00BF00C0005000D000507E
S214015CE003000100014B1880704700BF020D002021
S214015CF04FF4001208B5184B5A660223174A536030
S214015D00936813F48033FBD1012822D1FEF77CFF80
S214015D10134B984215D003F5122303F5F863984206
S214015D2013D0104B00EB8002400AB3FBF0F0520A8E
S214015D300A4BDA62012218635A620022074B5A6044
S214015D4008BD45F67A10084AF2E745F61A00074AF2
S214015D50EEE75362F1E700BF0090005000400250AA
S214015D6000F0490264666666D8B80500BBCF050038
S214015D70B0F5207F10B50C4642D008D8B0F5007FAC
S214015D8033D003D888B1B0F5C07F0ED010BDB0F5C2
S214015D90607FFBD11F4B013CD3F8801021F030010E
S214015DA041EA0414C3F88040F0E71DF0A4FB1DF09F
S214015DB06DFC4FF48031184A164B1167196F013C80
S214015DC021F4704141EA04341C67FEF707FF0446DC
S214015DD0FFF7C0FBC0F1020120461DF051FC00F0A8
S214015DE02DF8BDE81040FFF777BD0A4B013CD3F80C
S214015DF0901021F0F85141EA0464C3F89040C5E7D9
S214015E00044B013C196F21F4806141EA84241C672C
S214015E10BCE700BF008000500090005008B501218B
S214015E20022000F0F5F81DF066FB1DF02FFC4FF484
S214015E308032014B1A6708BD0090005008B54FF438
S214015E40C0701DF060FBBDE80840044988428CBF65
S214015E50022101214FF42070FFF78ABF80F0FA0279
S214015E60034B5868C0F30800003818BF012070477C
S214015E7000ED00E0054B420953F8223000F01F0008
S214015E8023FA00F0C04300F00100704700E100E093
S214015E90194B10B51B6873B3184A5268012A2AD0E9
S214015EA0174A8020C2F80031FFF726FD05281FD1CA
S214015EB04FF4C070FFF79EFC0128044604D102216E
S214015EC04FF4C070FFF754FF07220E4B1A610122F0
S214015ED0A3F580535A60094A1369DB07FCD5012CE8
S214015EE009D12146BDE810404FF4C070FFF740BF0E
S214015EF00122054B5A6010BDD01D002000C0015084
S214015F000080005000E0015000D0015000224FF404
S214015F100031074B1A60074A516602F598325268FB
S214015F20012A02BF044AD2F800211A60704700BF56
S214015F30D01D00200090005000800050044A417897
S214015F40536F23F4407343EA01235367704700BF3E
S214015F500040005010B5044608B1FFF7D7FF104ABD
S214015F60136943F00403136103F024FA1DF0B8FB30
S214015F700C4B0D4AC3F820241DF0A2FB29F0DCFCD3
S214015F801DF0A2FB1DF0ADFB03F03CFA1CB1BDE811
S214015F901040FFF77DBFBDE81040FEF71FBE00BFF3
S214015FA000ED00E000E003500000FF0F10B50446CE
S214015FB008B1FFF7ABFF0E4A136943F00403136100
S214015FC00C4B0D4AC3F8202403F0F4F91DF078FBBE
S214015FD029F0B2FC1DF078FB03F014FA1CB1BDE801
S214015FE01040FFF755BFBDE81040FEF7F7BD00BFF4
S214015FF000ED00E000E003500000FF0F034A0179C6
S214016000D36E23F030030B43D36670470040005035
S214016010F8B504461C4BD3F88420D106FBD4D3F83C
S2140160208430C3F381139C422CD0FEF7BDFD012CB6
S214016030064602D121461DF023FB1DF041FB4FF021
S2140160400072124B07465A6620461DF04FFB4FF46E
S21401605080630D4D621E93402B676B6E9A0103D4CD
S214016060D5F884309B060AD538461DF02DFB022C48
S21401607008D13046BDE8F84000211DF001BBD5F837
S2140160808430EAE7F8BD00BF0040005000600050D1
S21401609007B518B90191FEF787FD0199064B1B78E4
S2140160A043B1064B984205D8012003B05DF804EBD6
S2140160B0FFF7AEBF0220F8E7012B0020005A62026C
S2140160C00278034B012100201A70FFF7E1BF00BFE1
S2140160D0012B00204FF0004238B5264B26495A6660
S2140160E001224A604AF6CD3103F50B235D6C196433
S2140160F0154030BB9968C9070BD4002401221F4BF9
S2140161005A6015B11E4B1F4A1A6428F038F920460A
S21401611038BD1A498A601C4AD96ACC0705D4904210
S21401612001D10724EAE70130F6E79042E5D1F8E726
S2140161300132DC6A14F0080406D08A42F8D107243A
S214016140DFE700221049F4E78A42F8D020220B4B01
S2140161500B495A620122A3F580539A6023460A4AE4
S214016160486A800603D49342E9D00133F8E79342A4
S214016170C7D1E4E700900050005009500060095074
S214016180004009503254FFFF40420F004FF00042DA
S21401619038B5194B194C5A66012203F50C235A607F
S2140161A04AF6CD33656C2364437815409340134318
S2140161B0134AD363A368827823F0740343EA021375
S2140161C0C278002A14BF042200221343A360027976
S2140161D0837943EA022323614279C37943EA02239E
S2140161E063610078FFF776FF0DB1064B236428F054
S2140161F0C6F8012038BD00BF00900050004009508D
S214016200004000503254FFFF10B504461DF073FAEB
S214016210002341F202020849E360A360226104F50B
S2140162200052E3616361A36123626362E362A36474
S2140162305164A36210BD00BF7F370C0138B5044618
S214016240154639B9184B984214BF084638201DF038
S2140162505AF901466368A06800F0E00040281AD0A9
S21401626003D8D0B120281AD038BD602819D080288C
S214016270FAD101236B434901B1FBF3F10B4A2039F3
S214016280204602EAC10201211DF031FAA262BDE8F0
S21401629038401DF02CBA0623ECE71023EAE7082362
S2140162A0E8E70423E6E700BF0000035AF8FF7F0093
S2140162B0436870B504460D4616461BB140F2FF71A1
S2140162C01DF015FA2046FFF79FFFE9896B7B2269CF
S2140162D00B43298A22F44C520B4322F00302134348
S2140162E02361A2682B7B297E22F0804222F0E20203
S2140162F00B4313436A691343A360AB681BB9A368D6
S21401630043F00043A360EB69002B58D0A16898883E
S2140163103F4A00F4C0400A4010431A7A40EA8250CD
S2140163209A7A40EA42405A7840EA82005A7B40EA2A
S214016330C2009A7B40EA02109A7840EA8220A06066
S214016340E168D3E9042021F4D81121F4C0610243A5
S2140163500A43997942EA8122D97942EA4122E260E6
S2140163601A7802F0FD01012908BFE168A2F10202D4
S21401637004BF41F00401E160012A4FF0010294BF1D
S21401638024492549C1F8C0205A7A04F580510A6289
S2140163901AB1E26842F40062E260DA7A4AB1E2686F
S2140163A01E4942F40042E2601A7B02F00F02C1F875
S2140163B08020E269DB7B22F003021343E36136B1FE
S2140163C096F8203004F58051A3B101238B61052195
S2140163D020461DF0ADF9AA6812B16968FFF72EFFD5
S2140163E0204629781DF0C1F9236CDB4313F4405F86
S2140163F0FAD170BD626996F8223096F8210022F033
S21401640009020343134343F001034B61DFE700BF77
S214016410E39BBDFF00D4035000E4035000900350FB
S214016420072AF7B501F0030614461F464FF003018D
S2140164302CD89500A94000FA05F21C4801911DF0E0
S214016440A3F901991A4806FA05F21DF09DF9194BB0
S21401645019499DF82000002F08BF1946012303FAA9
S21401646004F40C60154B1649002808BF0B461C6047
S214016470144B9DF82400C3F820441031A3F6DC33F6
S214016480002808BF0B461C6003B0F0BDA2F108054A
S214016490AD00A94000FA05F20B4801911DF074F910
S2140164A001990A4806FA05F2CFE700BF00C4035077
S2140164B008C4035010E4035010D4035014D40350FE
S2140164C014E4035000E0035004C403500CC403500A
S2140164D0F8B504460D461F4616464AB101238B40C1
S2140164E03021194A01FB0022FFB141F2100153503D
S2140164F004EB4403072D4FF00F014FEA031317D89F
S214016500A80006FA00F28140104818441DF03CF934
S21401651056B9012130230C4801FA05F503FB0400A6
S21401652077B141F21003C550F8BD42F21001DEE723
S214016530A5F10800800006FA00F281400448E4E76D
S21401654042F21003EFE700BF00C0035004C003503F
S2140165500CC0035010B50C4B0C4C0D4A0140C4F84E
S2140165603004C3F83014C3F82C04D36E03F03003A0
S214016570202B1FBFD36E23F0300343F01003D366E6
S214016580C4F8200410BD00BF00D0035000E0035043
S2140165900040005038B514461D46032283F001031F
S2140165A0FFF796FF012004F11001884005FA01F17A
S2140165B0FFF7D0FF9DF81010034B044A002908BFCF
S2140165C01346186038BD00BF24D4035024E403509A
S2140165D04FF400120B4B10B5C3F88020BFF34F8F5A
S2140165E0BFF36F8F0024FF22074B21465C652020F6
S2140165F09A625C60FFF74EF92146BDE81040212003
S214016600FFF748B900E100E000000450044A054BDA
S214016610002918BF1346012202FA00F018607047DD
S214016620402004504010045010B50121044620209B
S214016630FFF730F901212120FFF72CF90122114B38
S2140166405A60227812069A606178A27842EA01427C
S2140166509A61FF229A6200229A631A644FF00042FE
S2140166605A654FF0FF324FF4001103F500531A65D7
S214016670054AC2F88011E3781B01DBB282F81533B4
S214016680116010BD0000045000E100E0F8B50125DE
S214016690C3B2DFF888C0D1F800E09D408F7ACB7A8C
S2140166A00C46097BCCF850500CF5005C4CF820E009
S2140166B04FF0300E174E1B050EFB006094F80DC010
S2140166C043EA074343EA415322F00302C0F860C09D
S2140166D0C36502671CF0FBFF736D227A2B4373655B
S2140166E00D4B02B11D64627A02B19D632279A379D2
S2140166F043EA0243094A93616179E37943EA014334
S21401670005498B61034B55639D64BDE8F8401CF059
S214016710E4BF00BF000004500010045000200450E5
S21401672010B50124C0B284401CF0D1FF044B5A6D51
S21401673022EA04025A659C62BDE810401CF0CDBFF7
S2140167400000045010B50124C0B284401CF0BFFF05
S214016750074BDA6A224209D15B6B34EA03030CBFAA
S214016760012400241CF0B9FF204610BD0024F9E7DF
S214016770000004504FF40032054B9A6641F6713220
S21401678003F51C33DA63012203F50053DA60704720
S2140167900090005041F671320121064BDA6303F591
S2140167A00052D1600022DA634FF40032A3F51833A9
S2140167B09A66704700000350CB784A7810B55B01A3
S2140167C00C7843EA82030A79234343EA02130C2234
S2140167D0424302F1B0421363012C02BF8A78024B96
S2140167E043F8202010BD00BFE880035008B54FF0E5
S2140167F0B0435A6802B960B15B680BB11CF0D6FFB2
S2140168004FF0B04130B10120074B58601CF0CEFF6D
S214016810C86008BD1CF0CAFF0223CB601CF0C6FF8F
S2140168200122024B5A60F4E700100058002000587D
S2140168304FF0B0435B6870B50BB11CF0B7FF012198
S214016840104B4578596083780679002BC37814BFBE
S21401685002240024002B14BF042200224379DB000B
S21401686043EA06132B43234313434FF0B04293608E
S214016870054B59600378002B14BF0B460223D360E7
S21401688070BD00BF00200058001000584FF4803241
S214016890064B5A6603F5E6235B69C3F385128270DD
S2140168A003F03F021B0B42700370704700900050CC
S2140168B0014B986CD96C70470080E00F024B18684A
S2140168C0C0F30740704700BF0080E00F0120034B74
S2140168D09B680A3303F01F03984070470080E00F5F
S2140168E038B50446054D27F06EFD0FCC0FC594E86C
S2140168F0030085E80300002038BD00BFD41D00203A
S21401690047F6FF739A42F0B56AD002296AD8364B29
S2140169105B5C012B66D8354DDF0005EBC30015F82F
S21401692033308478012B13D10025C3781B1BAB426F
S21401693002D8E018C0B2F0BD591B4668A3EB51015E
S21401694036F911609642D4BF0D4601F1FF33EEE7EA
S21401695040680028EFD0B0F90030934204DBB0F96C
S21401696002309342B8BF134682883D44FF2A19BFBE
S214016970C8214FF0280CB0F90610B0F908C0A1EBF9
S21401698003020CBF0126002692FBFCF26D7832440E
S21401699012B2954201DD002A01DA6A1E12B24FF4E4
S2140169A07A7700EBC206F188B668013213FB016103
S2140169B012B221EAE1715C319542B1FBF7F104DDD7
S2140169C000EBC206B6888E42EBD200EBC20232F86A
S2140169D0040C884228BF0846A04238BF2046A9E7D3
S2140169E0FF20A8E70020A6E7A0070400D41D00208A
S2140169F00229F0B557D82D4B585C012853D82C4C9A
S214016A0004EBC00114F830004B6801280FD1C87898
S214016A108C78904294BFC4EB0001C4EB0201001BCA
S214016A20CAB28242C8BF002233F91200F0BD002B61
S214016A3039D08878904202D3B3F90200F6E7CC78D1
S214016A40B3F900009442F1D94C789988013CA1F140
S214016A50FF06714203F10405E4B2714103F10C072C
S214016A601FFA82FCCEB2B44216D805EBC1014FF430
S214016A707A756A43B1F902404968521A04EBD47137
S214016A8002EB610292FBF4F29042CFDBB3F9020013
S214016A909042CBDC10B2C9E737F831E04E1CE64530
S214016AA0E3D33146DEE70348C0E700BFA007040092
S214016AB0D41D00200080FFFF08B50448FFF710FF33
S214016AC0BDE80840012027F082BC00BFA4070400EF
S214016AD000487047060D00201B0603F0706300F0A7
S214016AE00F000902034301F47061120402F47022DC
S214016AF00B431343014A1360704700BF0020025C3A
S214016B0060B5054619B10139B1F5806F10D2094E4D
S214016B10F06810F48030FBD143EA0121120741EA04
S214016B20050302F08052134343F00043736060BDD7
S214016B300120FCE70020025C0122054B9A60DA681E
S214016B40D203FCD4D86820F00F000004000C704774
S214016B500020025C014B1868704700BF0040025CD1
S214016B60014B5868704700BF0010025C014B186B60
S214016B70704700BF0010025C014B1868704700BFE9
S214016B800010025C014B9860704700BF0010025C69
S214016B90014B1864704700BF0010025C014B58643B
S214016BA0704700BF0010025C014B5863704700BF7E
S214016BB00010025C0022014B1A6070470010025C54
S214016BC0024A136843F00103136070470010025C29
S214016BD0024A136823F00103136070470010025C39
S214016BE043F20402014B1A60704700BF0010025CBA
S214016BF0024A136843F03003136070470010025CCA
S214016C00044B1A6842F480721A601A6822F4807281
S214016C101A6070470010025C024A136843F48063EE
S214016C20136070470010025C034A136823F4702354
S214016C3043EA0040106070470010025C044B1A697A
S214016C4002605A6942609A698260DB69C360704774
S214016C500010025C0268044B1A6142685A6182683D
S214016C609A61C268DA6170470010025C024B1A6BC7
S214016C70D207FCD4186270470010025C82B01FB5C0
S214016C8007930A9B04AC8B4228BF0B4604E9070016
S214016C901048D100079948BF03330160099948BFDE
S214016CA023F0030323F0704301F0E041194341F060
S214016CB000518160002102F0E042019C134343F041
S214016CC00053C16004618361416304B0BDE81040B4
S214016CD002B070470000025C3F22034B1A63102289
S214016CE0DA6103229A6370470000025C024AD36BA2
S214016CF09B07FCD4704700BF0000025C034B986AF8
S214016D0010F0240018BF0420704700BF0000025C8A
S214016D1008B5FFF7F3FF064BDB6B23F47F4323F045
S214016D20EF0303431EBF0122024BC3F8FC2F08BD2D
S214016D300000025C00F0FF3F032208B5054B186017
S214016D4019615A63FFF7C8FFFFF7D0FFBDE8084097
S214016D50FFF7DEBF0000025C42680346182A10B542
S214016D600AD0202A1DD0102A2BD1174AD2F8042483
S214016D70D4010AD4012013E0134AD2F80424900166
S214016D80F8D50A6842F008020A6010481A6882427A
S214016D904FF000000ED10A6842F040020A605860C7
S214016DA010BD094AD2F804245201E3D50A6842F01C
S214016DB00402E9E7064CA242F2D10A6842F08002D8
S214016DC0ECE70720ECE700BF0000025C022B002086
S214016DD0032B00200B4607B50749D1F80414C90751
S214016DE008D5002100920246084600F05BF803B081
S214016DF05DF804FB0120FAE70000025C1346064A30
S214016E00D2F80424D20504D50A46014600201CF017
S214016E10D5BE0120704700BF0000025C13B5084CC8
S214016E20D4F80444E40508D5009313460A460146FF
S214016E30002000F061F802B010BD0120FBE700BFA2
S214016E400000025C13B5084CD4F80444E40508D5E8
S214016E50009313460A460146002000F071F802B07E
S214016E6010BD0120FBE700BF0000025C70B50446C0
S214016E700D4616468CB00A4A09AB07CA83E80700D6
S214016E801A462146CDE90563CDE90333CDE9013341
S214016E9000954FF480301CF0B5FD0CB070BD00BFFE
S214016EA028080400F0B51C465B6815468DB01A0725
S214016EB0129E1AD1CBB17268934216D10C4B0D4A71
S214016EC053F8217009AB07CA83E807001A4629461A
S214016ED0CDE90533CDE90333CDE90163009447F4E9
S214016EE080701CF08FFD0DB0F0BD0720FBE700BFE2
S214016EF03408040028080400F0B516465A688DB018
S214016F00102A0D46129F15D17A68102A12D10A4A04
S214016F1009AC07CA84E8070022462946CDE9054799
S214016F20CDE90344CDE90144044800961CF06AFD0E
S214016F300DB0F0BD0720FBE7280804003000010073
S214016F40F0B516465A688DB0102A0D46129F15D117
S214016F507A68102A12D10A4A09AC07CA84E80700DF
S214016F6022462946CDE90574CDE90344CDE901441D
S214016F70044800961CF046FD0DB0F0BD0720FBE767
S214016F80280804001000010082B070B586B0149D78
S214016F9003AE202D86E807000B9359D805EB850331
S214016FA08B4203D006236B438B4253D10C9BAB42DF
S214016FB050D10F9BB3EB450F4CD1129A934249D156
S214016FC0012229462220159BFFF79AFD044630BB75
S214016FD0034606220E210C20FFF77EFD0123CDE994
S214016FE000332B4696E807001CF0A9FC0E230BAADB
S214016FF0009307CA2B461CF0EDFB0C23164C00939E
S2140170000EAA2B4607CA1CF015FC636823F07F0303
S21401701043F026036360FFF78FFD30B10624204658
S21401702006B0BDE8704002B07047636823F07F0386
S21401703043F022036360FFF77FFD04460028EDD18D
S214017040062311AA009307CA2B461CF026FCE6E786
S2140170500124E4E70724E2E70020025C70B598B05B
S214017060002843D02C4C08AD0FCC0FC50FCC0FC554
S2140170700FCC0FC594E80F0085E80F006D4604AEEF
S21401708004F1100320340FCB85E80F0094E80F00BD
S21401709086E80F00FFF7B4FD0420FFF7C5FDFFF7F4
S2140170A09FFD3046FFF7D6FD002408AE56F8040BC8
S2140170B00134FFF7DBFD102CF8D1FFF751FD032853
S2140170C0FBD90024FFF776FD2646FFF743FD55F86A
S2140170D0043B01365840042E44EA0004F5D12CB195
S2140170E0012206200D4B1A7018B070BDFFF788FDFF
S2140170F00820FFF747FD0020FFF74AFD0720FFF7AE
S2140171004DFD4FF40070FFF74FFD0820FFF78CFD93
S214017110FFF756FD0020E7E710090400052B0020C5
S21401712008B5FFF76DFD0122014B1A7008BD00BFBF
S214017130042B00201FB51CF0BCFE044630B1012212
S21401714006240D4B1A70204604B010BDFFF702FD51
S2140171500090FFF7FFFC0190FFF7FCFC0290FFF7A1
S214017160F9FC03906846FFF775FDFFF7D9FFFFF7B7
S2140171703FFDFFF751FDE6E7052B002006289ABFE5
S214017180014B185C002070477009040030B5154BA0
S21401719087B00293144B0390049346F611030D46F1
S2140171A0059300F06DF91428044616D168461CF0C4
S2140171B030FF4FF0A843032202A95A6319601D61EC
S2140171C09A63DA6B9207FCD1142C02D168461CF044
S2140171D02EFF00F089F9044601E00028E9D0204698
S2140171E007B030BDEC1D0020040000202DE9F04F53
S2140171F0B1B005468C46E9466E4F3B9EDDF8F8E099
S214017200409C07F1100AC846386879680837A8E82C
S21401721003005745C146F6D10EEB0208C8F1000936
S21401722009F00F09002E00F0AF80774207F00F0734
S2140172300121DDF8FCB0C4F1100ACDF810B00591BB
S21401724044F0005106914FEA0A2101F4F85141F049
S2140172502101079106B96B460893002D40F09680F0
S214017260002C00F0938004AB0993002E00F0908070
S21401727046F000530A93002D40F08D80002C14BF79
S2140172800123212343EA07230B9308A942F0005365
S214017290CDF830C03D980D910E934FEA092343F087
S2140172A041030F93109002B10CA9002A16BF0022C9
S2140172B04FF00052412342EA0E02119112921393AB
S2140172C03C9B3D4A149310AB15933C4B00211693FF
S2140172D040F6110317933A4B002D08BF1346189337
S2140172E014AB1993374B10221A9311231B931CAB23
S2140172F0184627F0A2FC01221D924AF080421E92F7
S21401730000220346239205B9EB46102C08BF012341
S2140173100DF1900A102200215046CDF880B021933D
S214017320229427F08AFC002C37D020AB002125932D
S2140173308F4218BF534647F0804226923A9A2CA8AD
S2140173408A422892299313460CBF4FF080430B467E
S214017350102233432B912A9327F06FFCFEB9534634
S214017360C8442D932CA948F0804318A82E93FFF704
S2140173700DFF30B92DB90346A34212D1002818BF1C
S2140173802C2031B0BDE8F08F102751E701236BE7C1
S21401739047F000536EE7212374E70123C6E728ABC5
S2140173A0DEE703F1C0026A4412F8C02C0133104331
S2140173B0E2E700BF770904008809040010000020F6
S2140173C08C09040004000020F0B5C0299FB0249E5B
S2140173D04FD0B1F5807F04D0802941D029201FB03D
S2140173E0F0BD40F2344440F21445002E08BF2C464E
S2140173F021271025019401240296039404950597EC
S214017400259F069706B102AC0794012408950994B6
S2140174100A9221220B940C950D92174A0AAC0E92F1
S214017420164A0F94109242F6110211921293139477
S2140174301495159201AA1692CBB112AB1793042399
S21401744018931123199316AB1A901B9340F6110348
S214017450C9081C911AA806A91D93FFF797FEBEE757
S214017460002E14BF4FF486644FF48264C0E70EAB5F
S214017470E4E70F20B3E700BF9009040010000010F6
S21401748038B5164B5A6E42F004025A66D3F880227B
S21401749042F00102C3F88022114B5B68C3F3080374
S2140174A043B14FF0A842D36B13F0430FFBD1142422
S2140174B0204638BD4FF0A843DC6B14F04304FBD1E3
S2140174C0084D2B681BB90421284602F06DFF2B6876
S2140174D0013343F000432B60EAE700BF0080005011
S2140174E000ED00E0EC1D0020014B00205B687047BA
S2140174F000ED00E04FF40052034B00209A66032291
S214017500C3F86022704700BF009000504FF400524D
S214017510034B00209A660322C3F86022704700BF1F
S21401752000A00050012300F01F02A0F50620094923
S214017530A0F550604009934051F820201A4341F8C5
S2140175402020054951F8202022EA030341F8203083
S214017550704700BFF01D0020041E00200121A0F589
S21401756006230F4AA3F550635B0900F01F0001FADA
S21401757000F052F8231008430A4942F82300D1E9E3
S2140175800030034488680344C868096903445B18EB
S21401759002BFC2E90033C2E902331361704700BF7C
S2140175A0041E0020F01D00202DE9F04FA9B0029224
S2140175B01D46DDE9326704460822CDE90301414054
S2140175C021FA02F34B40980702F1080218BF9B000C
S2140175D0202A1C44F4D18123B4FBF3F303EBC31339
S2140175E0E41A7A4B04F506241B7804F55064002B44
S2140175F040D1FDF755FF014620B16FF0910029B04B
S214017600BDE8F08F4022059008A827F016FB40221F
S214017610059918A827F011FBDFF8C891DFF8C8A173
S2140176204B4603F10F0B102208A9DAF80000CDF83B
S21401763000B0059326F056FC00220146059B09F191
S21401764010090DF1200891424CD1CDF800B010225E
S214017650DAF8000018A926F04EFC4FF0000B03469E
S2140176600DF160085B4549D1594B9945D8D10122A6
S214017670564B1A704FF081084FF00009DFF868A1E9
S214017680A4F506235349A3F55062520951F8221076
S21401769004F01F0C21FA0CF1C90744D44E4951F8E5
S2140176A0220020FA0CF010F0010030D0B9F1000FE2
S2140176B008BFA146A3F6FF448123B4FBF3F303EB13
S2140176C0C313E41A04F50624B8F1010804F550645E
S2140176D0D6D1029BEBB1B9F1000F1AD0349BC3F897
S2140176E000906DE058F8040BCDE906230591FFF7ED
S2140176F019FF069A079B05990132A4E758F8040B6F
S21401770005930BF1010BFFF729FF059BAAE7029BE7
S21401771013B96FF08B0072E7349BB9F1000F4ED0AE
S214017720C3F800906BE70EB1002333600FB100235E
S2140177303B604FF0100B00232A462146DAF8000082
S214017740CDF800B012F0CAFF08BB0EB1C6F800B003
S2140177502B68224A934224D166B15FB13B4621464B
S214017760DAF8000018AA13F00DF880B93B68326801
S2140177709B1A3B60D5E90223DDE90310834208BF6B
S2140177808A4216D0A4F50624A4F6FF4494E7144BC7
S214017790984206D01233984203D0133B9842E9D060
S2140177A02BE72146DAF8000013F030F80028E1D084
S2140177B0AFE7029B13B16B68012B03D0349B1C60AF
S2140177C000201CE76FF0840019E700BF062B00209D
S2140177D000710800F01D0020041E0020105D175ED9
S2140177E0FFDF00F0006D0800F00A00202DE9F04FE1
S2140177F087B08246894698461646DDF840B02AB1DB
S214017800002B4ED040F26C739A424DD8BBF1010F5B
S2140178104DD8002406F110073946012005941CF0C6
S2140178206EFF0546002845D021463A4627F005FA60
S21401783005ABCDE9014300942B460122504649464B
S214017840FFF7B2FE044680B110F18C0F08BF6FF04F
S2140178508D043A460021284627F0EFF928461CF009
S2140178605FFF204607B0BDE8F08F144BC5E902A9BB
S2140178702B60C5F804B02EB13246414605F1100022
S21401788027F0B4F90E483B462A460599006812F0DF
S2140178908DFE18B90598FFF745FEDAE76FF09104FB
S2140178A0D7E76FF08604DCE76FF09104D9E76FF055
S2140178B08504D6E76FF08C04D3E700BF105D175E32
S2140178C0F00A00202DE9F0438DB08146DDE91478F9
